{
  "contracts/RewardsDistributorV2.sol": {
    "RewardsDistributorV2": {
      "abi": [
        {
          "inputs": [
            {
              "internalType": "address",
              "name": "_voting_escrow",
              "type": "address"
            }
          ],
          "stateMutability": "nonpayable",
          "type": "constructor"
        },
        {
          "anonymous": false,
          "inputs": [
            {
              "indexed": false,
              "internalType": "uint256",
              "name": "time",
              "type": "uint256"
            },
            {
              "indexed": false,
              "internalType": "uint256",
              "name": "tokens",
              "type": "uint256"
            }
          ],
          "name": "CheckpointToken",
          "type": "event"
        },
        {
          "anonymous": false,
          "inputs": [
            {
              "indexed": false,
              "internalType": "uint256",
              "name": "tokenId",
              "type": "uint256"
            },
            {
              "indexed": false,
              "internalType": "uint256",
              "name": "amount",
              "type": "uint256"
            },
            {
              "indexed": false,
              "internalType": "uint256",
              "name": "claim_epoch",
              "type": "uint256"
            },
            {
              "indexed": false,
              "internalType": "uint256",
              "name": "max_epoch",
              "type": "uint256"
            }
          ],
          "name": "Claimed",
          "type": "event"
        },
        {
          "inputs": [
            {
              "internalType": "address",
              "name": "caller",
              "type": "address"
            }
          ],
          "name": "_lockAddress",
          "outputs": [],
          "stateMutability": "nonpayable",
          "type": "function"
        },
        {
          "inputs": [
            {
              "internalType": "address",
              "name": "caller",
              "type": "address"
            }
          ],
          "name": "_unlockAddress",
          "outputs": [],
          "stateMutability": "nonpayable",
          "type": "function"
        },
        {
          "inputs": [],
          "name": "checkpoint_token",
          "outputs": [],
          "stateMutability": "nonpayable",
          "type": "function"
        },
        {
          "inputs": [],
          "name": "checkpoint_total_supply",
          "outputs": [],
          "stateMutability": "nonpayable",
          "type": "function"
        },
        {
          "inputs": [
            {
              "internalType": "uint256",
              "name": "_tokenId",
              "type": "uint256"
            }
          ],
          "name": "claim",
          "outputs": [
            {
              "internalType": "uint256",
              "name": "",
              "type": "uint256"
            }
          ],
          "stateMutability": "nonpayable",
          "type": "function"
        },
        {
          "inputs": [
            {
              "internalType": "uint256[]",
              "name": "tokenIds",
              "type": "uint256[]"
            }
          ],
          "name": "claim_many",
          "outputs": [
            {
              "internalType": "bool",
              "name": "",
              "type": "bool"
            }
          ],
          "stateMutability": "nonpayable",
          "type": "function"
        },
        {
          "inputs": [
            {
              "internalType": "uint256",
              "name": "_tokenId",
              "type": "uint256"
            }
          ],
          "name": "claimable",
          "outputs": [
            {
              "internalType": "uint256",
              "name": "",
              "type": "uint256"
            }
          ],
          "stateMutability": "view",
          "type": "function"
        },
        {
          "inputs": [],
          "name": "depositor",
          "outputs": [
            {
              "internalType": "address",
              "name": "",
              "type": "address"
            }
          ],
          "stateMutability": "view",
          "type": "function"
        },
        {
          "inputs": [
            {
              "internalType": "bool",
              "name": "what",
              "type": "bool"
            }
          ],
          "name": "increaseOrRemoveAllowances",
          "outputs": [],
          "stateMutability": "nonpayable",
          "type": "function"
        },
        {
          "inputs": [],
          "name": "last_token_time",
          "outputs": [
            {
              "internalType": "uint256",
              "name": "",
              "type": "uint256"
            }
          ],
          "stateMutability": "view",
          "type": "function"
        },
        {
          "inputs": [],
          "name": "last_week",
          "outputs": [
            {
              "internalType": "uint256",
              "name": "",
              "type": "uint256"
            }
          ],
          "stateMutability": "view",
          "type": "function"
        },
        {
          "inputs": [
            {
              "internalType": "address",
              "name": "",
              "type": "address"
            }
          ],
          "name": "lockAddress",
          "outputs": [
            {
              "internalType": "bool",
              "name": "",
              "type": "bool"
            }
          ],
          "stateMutability": "view",
          "type": "function"
        },
        {
          "inputs": [],
          "name": "owner",
          "outputs": [
            {
              "internalType": "address",
              "name": "",
              "type": "address"
            }
          ],
          "stateMutability": "view",
          "type": "function"
        },
        {
          "inputs": [
            {
              "internalType": "address",
              "name": "_depositor",
              "type": "address"
            }
          ],
          "name": "setDepositor",
          "outputs": [],
          "stateMutability": "nonpayable",
          "type": "function"
        },
        {
          "inputs": [
            {
              "internalType": "address",
              "name": "_owner",
              "type": "address"
            }
          ],
          "name": "setOwner",
          "outputs": [],
          "stateMutability": "nonpayable",
          "type": "function"
        },
        {
          "inputs": [],
          "name": "start_time",
          "outputs": [
            {
              "internalType": "uint256",
              "name": "",
              "type": "uint256"
            }
          ],
          "stateMutability": "view",
          "type": "function"
        },
        {
          "inputs": [],
          "name": "time_cursor",
          "outputs": [
            {
              "internalType": "uint256",
              "name": "",
              "type": "uint256"
            }
          ],
          "stateMutability": "view",
          "type": "function"
        },
        {
          "inputs": [
            {
              "internalType": "uint256",
              "name": "",
              "type": "uint256"
            }
          ],
          "name": "time_cursor_of",
          "outputs": [
            {
              "internalType": "uint256",
              "name": "",
              "type": "uint256"
            }
          ],
          "stateMutability": "view",
          "type": "function"
        },
        {
          "inputs": [],
          "name": "timestamp",
          "outputs": [
            {
              "internalType": "uint256",
              "name": "",
              "type": "uint256"
            }
          ],
          "stateMutability": "view",
          "type": "function"
        },
        {
          "inputs": [],
          "name": "token",
          "outputs": [
            {
              "internalType": "address",
              "name": "",
              "type": "address"
            }
          ],
          "stateMutability": "view",
          "type": "function"
        },
        {
          "inputs": [],
          "name": "token_claimed",
          "outputs": [
            {
              "internalType": "uint256",
              "name": "",
              "type": "uint256"
            }
          ],
          "stateMutability": "view",
          "type": "function"
        },
        {
          "inputs": [
            {
              "internalType": "uint256",
              "name": "",
              "type": "uint256"
            }
          ],
          "name": "tokens_per_week",
          "outputs": [
            {
              "internalType": "uint256",
              "name": "",
              "type": "uint256"
            }
          ],
          "stateMutability": "view",
          "type": "function"
        },
        {
          "inputs": [],
          "name": "total_distributed",
          "outputs": [
            {
              "internalType": "uint256",
              "name": "",
              "type": "uint256"
            }
          ],
          "stateMutability": "view",
          "type": "function"
        },
        {
          "inputs": [
            {
              "internalType": "uint256",
              "name": "",
              "type": "uint256"
            }
          ],
          "name": "ve_supply",
          "outputs": [
            {
              "internalType": "uint256",
              "name": "",
              "type": "uint256"
            }
          ],
          "stateMutability": "view",
          "type": "function"
        },
        {
          "inputs": [],
          "name": "voting_escrow",
          "outputs": [
            {
              "internalType": "address",
              "name": "",
              "type": "address"
            }
          ],
          "stateMutability": "view",
          "type": "function"
        },
        {
          "inputs": [
            {
              "internalType": "address",
              "name": "_token",
              "type": "address"
            }
          ],
          "name": "withdrawERC20",
          "outputs": [],
          "stateMutability": "nonpayable",
          "type": "function"
        }
      ],
      "evm": {
        "bytecode": {
          "linkReferences": {},
          "object": "608060405234801561001057600080fd5b5060405161199838038061199883398101604081905261002f9161019f565b6001600090815562093a8061004481426101cf565b61004e91906101f1565b905080600281905550806006819055506000826001600160a01b031663fc0c546a6040518163ffffffff1660e01b8152600401602060405180830381865afa15801561009e573d6000803e3d6000fd5b505050506040513d601f19601f820116820180604052508101906100c2919061019f565b66071afd498d000980546001600160a01b038381166001600160a01b0319928316811790935566071afd498d000880549188169183168217905566071afd498d000a805483169055600186905566071afd498d00078054909216331790915560405163095ea7b360e01b8152600481019190915260001960248201529192509063095ea7b3906044016020604051808303816000875af115801561016a573d6000803e3d6000fd5b505050506040513d601f19601f8201168201806040525081019061018e919061021c565b61019757600080fd5b50505061023e565b6000602082840312156101b157600080fd5b81516001600160a01b03811681146101c857600080fd5b9392505050565b6000826101ec57634e487b7160e01b600052601260045260246000fd5b500490565b808202811582820484141761021657634e487b7160e01b600052601160045260246000fd5b92915050565b60006020828403121561022e57600080fd5b815180151581146101c857600080fd5b61174b8061024d6000396000f3fe608060405234801561001057600080fd5b506004361061016e5760003560e01c8063b80777ea116100ce578063de42fa1e11610087578063de42fa1e146102f0578063dfe0503114610303578063e8b8b73f1461031c578063edf5999714610325578063f2c098b714610338578063f4f3b2001461034b578063fc0c546a1461035e57600080fd5b8063b80777ea1461028d578063c7c4ff4614610295578063ce2639a7146102ae578063d1d58b25146102b7578063d4dafba8146102ca578063dcbbab4f146102dd57600080fd5b8063486d25fe1161012b578063486d25fe1461020c578063616174ce146102325780637f58e8f814610245578063811a40fe1461024e578063834ee417146102565780638da5cb5b1461025f578063b21ed5021461028557600080fd5b8063127dcbd31461017357806313af40351461018f5780631f1db043146101a457806321f1e89d146101c757806334a90d02146101d0578063379607f5146101f9575b600080fd5b61017c60065481565b6040519081526020015b60405180910390f35b6101a261019d36600461136a565b610377565b005b6101b76101b23660046113ce565b6103bc565b6040519015158152602001610186565b61017c60055481565b6101b76101de36600461136a565b66071afd498d000c6020526000908152604090205460ff1681565b61017c61020736600461147f565b610420565b61017c61021a36600461147f565b66071afd498d000b6020526000908152604090205481565b6101a261024036600461136a565b61043f565b61017c60025481565b6101a2610496565b61017c60015481565b66071afd498d000754610278906001600160a01b031681565b6040516101869190611498565b6101a26104db565b61017c61051e565b66071afd498d000a54610278906001600160a01b031681565b61017c60035481565b61017c6102c536600461147f565b61053d565b61017c6102d836600461147f565b6105ab565b6101a26102eb3660046114ba565b6105ce565b6101a26102fe36600461136a565b6106c3565b66071afd498d000854610278906001600160a01b031681565b61017c60045481565b61017c61033336600461147f565b61071d565b6101a261034636600461136a565b610733565b6101a261035936600461136a565b610778565b66071afd498d000954610278906001600160a01b031681565b66071afd498d0007546001600160a01b0316331461039457600080fd5b66071afd498d000780546001600160a01b0319166001600160a01b0392909216919091179055565b60006103c6610891565b6019825111156103d557600080fd5b60005b825181101561040c576104038382815181106103f6576103f66114d7565b60200260200101516108ef565b506001016103d8565b506001905061041b6001600055565b919050565b600061042a610891565b610433826108ef565b905061041b6001600055565b336001600160a01b0382161480610466575066071afd498d0007546001600160a01b031633145b61046f57600080fd5b6001600160a01b0316600090815266071afd498d000c60205260409020805460ff19169055565b66071afd498d000a546001600160a01b03163314806104c5575066071afd498d0007546001600160a01b031633145b6104d1576104d16114ed565b6104d9610ce5565b565b66071afd498d000a546001600160a01b031633148061050a575066071afd498d0007546001600160a01b031633145b610516576105166114ed565b6104d9610e40565b600062093a8061052e8142611519565b610538919061153b565b905090565b600081815266071afd498d000b602052604081205480820361055e57506001545b6003546000805b60648110156105a2578284116105a25761057f8685610fe3565b6105899083611552565b915061059862093a8085611552565b9350600101610565565b50949350505050565b66038d7ea4c680078166038d7ea4c6800081106105c757600080fd5b0154905081565b66071afd498d0007546001600160a01b031633146105eb57600080fd5b60018115151461067f5766071afd498d00095466071afd498d00085460405163095ea7b360e01b81526001600160a01b039283169263095ea7b39261063892911690600090600401611565565b6020604051808303816000875af1158015610657573d6000803e3d6000fd5b505050506040513d601f19601f8201168201806040525081019061067b919061157e565b5050565b66071afd498d00095466071afd498d00085460405163095ea7b360e01b81526001600160a01b039283169263095ea7b3926106389291169060001990600401611565565b336001600160a01b03821614806106ea575066071afd498d0007546001600160a01b031633145b6106f357600080fd5b6001600160a01b0316600090815266071afd498d000c60205260409020805460ff19166001179055565b60078166038d7ea4c6800081106105c757600080fd5b66071afd498d0007546001600160a01b0316331461075057600080fd5b66071afd498d000a80546001600160a01b0319166001600160a01b0392909216919091179055565b66071afd498d0007546001600160a01b0316331461079557600080fd5b6001600160a01b0381166107a857600080fd5b6040516370a0823160e01b81526000906001600160a01b038316906370a08231906107d7903090600401611498565b602060405180830381865afa1580156107f4573d6000803e3d6000fd5b505050506040513d601f19601f82011682018060405250810190610818919061159b565b60405163a9059cbb60e01b81529091506001600160a01b0383169063a9059cbb906108499033908590600401611565565b6020604051808303816000875af1158015610868573d6000803e3d6000fd5b505050506040513d601f19601f8201168201806040525081019061088c919061157e565b505050565b6002600054036108e85760405162461bcd60e51b815260206004820152601f60248201527f5265656e7472616e637947756172643a207265656e7472616e742063616c6c0060448201526064015b60405180910390fd5b6002600055565b66071afd498d0008546040516331a9108f60e11b81526004810183905260009182916001600160a01b0390911690636352211e90602401602060405180830381865afa158015610943573d6000803e3d6000fd5b505050506040513d601f19601f8201168201806040525081019061096791906115b4565b6001600160a01b038116600090815266071afd498d000c602052604090205490915060ff1615610a455766071afd498d00085460405163430c208160e01b81526001600160a01b039091169063430c2081906109c99033908790600401611565565b602060405180830381865afa1580156109e6573d6000803e3d6000fd5b505050506040513d601f19601f82011682018060405250810190610a0a919061157e565b610a455760405162461bcd60e51b815260206004820152600c60248201526b1b9bdd08185c1c1c9bdd995960a21b60448201526064016108df565b66071afd498d000854604051635a2d1e0760e11b8152600481018590526000916001600160a01b03169063b45a3c0e906024016040805180830381865afa158015610a94573d6000803e3d6000fd5b505050506040513d601f19601f82011682018060405250810190610ab891906115e3565b905060008160000151600f0b13610b0a5760405162461bcd60e51b8152602060048201526016602482015275139bc8195e1a5cdd1a5b99c81b1bd8dac8199bdd5b9960521b60448201526064016108df565b42816020015111610b695760405162461bcd60e51b8152602060048201526024808201527f43616e6e6f742061646420746f2065787069726564206c6f636b2e20576974686044820152636472617760e01b60648201526084016108df565b600084815266071afd498d000b6020526040902054600154811015610b8d57506001545b6003546000805b6064811015610bd157828411610bd157610bae8885610fe3565b610bb89083611552565b9150610bc762093a8085611552565b9350600101610b94565b508015610c445766071afd498d000854604051631dd33fc560e31b815260048101899052602481018390526001600160a01b039091169063ee99fe2890604401600060405180830381600087803b158015610c2b57600080fd5b505af1158015610c3f573d6000803e3d6000fd5b505050505b600087815266071afd498d000b6020526040812084905560058054839290610c6d908490611552565b909155505060035466071afd498d0008547fcae2990aa9af8eb1c64713b7eddb3a80bf18e49a94a13fe0d0002b5d61d58f00918991849190610cb8906001600160a01b0316826111ef565b60408051948552602085019390935291830152606082015260800160405180910390a19695505050505050565b62093a80610cf38142611519565b610cfd919061153b565b6003819055600090815266071afd498d000d60205260408082204390554260025566071afd498d00095490516370a0823160e01b81526001600160a01b03909116906370a0823190610d53903090600401611498565b602060405180830381865afa158015610d70573d6000803e3d6000fd5b505050506040513d601f19601f82011682018060405250810190610d94919061159b565b90506000600554600454610da8919061163b565b90506000610db6828461163b565b905080600760035466038d7ea4c680008110610dd457610dd46114d7565b016000828254610de49190611552565b925050819055508060046000828254610dfd9190611552565b909155505060408051428152602081018390527fce749457b74e10f393f2c6b1ce4261b78791376db5a3f501477a809f03f500d6910160405180910390a1505050565b66071afd498d0008546006546001600160a01b0390911690600062093a80610e688142611519565b610e72919061153b565b9050826001600160a01b031663c2c4c5c16040518163ffffffff1660e01b8152600401600060405180830381600087803b158015610eaf57600080fd5b505af1158015610ec3573d6000803e3d6000fd5b5050505060005b6014811015610fdb57818311610fdb576000610ee685856111ef565b60405163d1febfb960e01b8152600481018290529091506000906001600160a01b0387169063d1febfb990602401608060405180830381865afa158015610f31573d6000803e3d6000fd5b505050506040513d601f19601f82011682018060405250810190610f55919061164e565b905060008160400151861115610f77576040820151610f74908761163b565b90505b610fa0818360200151610f8a91906116c1565b8351610f9691906116e8565b600f0b6000611339565b66038d7ea4c680078766038d7ea4c680008110610fbf57610fbf6114d7565b0155505050610fd162093a8084611552565b9250600101610eca565b505060065550565b66071afd498d0008546040516309bb79ed60e11b8152600481018490526001602482015260009182916001600160a01b0390911690631376f3da90604401608060405180830381865afa15801561103e573d6000803e3d6000fd5b505050506040513d601f19601f82011682018060405250810190611062919061164e565b905066038d7ea4c680078366038d7ea4c680008110611083576110836114d7565b01546000036110965760009150506111e9565b60078366038d7ea4c6800081106110af576110af6114d7565b01546000036110c25760009150506111e9565b82816040015111156110d85760009150506111e9565b66071afd498d000854600084815266071afd498d000d6020526040808220549051638c2c9baf60e01b815260048101889052602481019190915290916001600160a01b031690638c2c9baf90604401602060405180830381865afa158015611144573d6000803e3d6000fd5b505050506040513d601f19601f82011682018060405250810190611168919061159b565b9050600066038d7ea4c680078566038d7ea4c68000811061118b5761118b6114d7565b015461119f83670de0b6b3a764000061153b565b6111a99190611519565b9050670de0b6b3a764000060078666038d7ea4c6800081106111cd576111cd6114d7565b01546111d9908361153b565b6111e39190611519565b93505050505b92915050565b600080600090506000846001600160a01b031663900cf0cf6040518163ffffffff1660e01b8152600401602060405180830381865afa158015611236573d6000803e3d6000fd5b505050506040513d601f19601f8201168201806040525081019061125a919061159b565b905060005b608081101561132f578183101561132f576000600261127e8486611552565b611289906002611552565b6112939190611519565b60405163d1febfb960e01b8152600481018290529091506000906001600160a01b0389169063d1febfb990602401608060405180830381865afa1580156112de573d6000803e3d6000fd5b505050506040513d601f19601f82011682018060405250810190611302919061164e565b90508681604001511161131757819450611325565b61132260018361163b565b93505b505060010161125f565b5090949350505050565b600081831015611349578161134b565b825b9392505050565b6001600160a01b038116811461136757600080fd5b50565b60006020828403121561137c57600080fd5b813561134b81611352565b634e487b7160e01b600052604160045260246000fd5b604051601f8201601f1916810167ffffffffffffffff811182821017156113c6576113c6611387565b604052919050565b6000602082840312156113e057600080fd5b813567ffffffffffffffff8111156113f757600080fd5b8201601f8101841361140857600080fd5b803567ffffffffffffffff81111561142257611422611387565b8060051b6114326020820161139d565b9182526020818401810192908101908784111561144e57600080fd5b6020850194505b8385101561147457843580835260209586019590935090910190611455565b979650505050505050565b60006020828403121561149157600080fd5b5035919050565b6001600160a01b0391909116815260200190565b801515811461136757600080fd5b6000602082840312156114cc57600080fd5b813561134b816114ac565b634e487b7160e01b600052603260045260246000fd5b634e487b7160e01b600052600160045260246000fd5b634e487b7160e01b600052601160045260246000fd5b60008261153657634e487b7160e01b600052601260045260246000fd5b500490565b80820281158282048414176111e9576111e9611503565b808201808211156111e9576111e9611503565b6001600160a01b03929092168252602082015260400190565b60006020828403121561159057600080fd5b815161134b816114ac565b6000602082840312156115ad57600080fd5b5051919050565b6000602082840312156115c657600080fd5b815161134b81611352565b8051600f81900b811461041b57600080fd5b600060408284031280156115f657600080fd5b506040805190810167ffffffffffffffff8111828210171561161a5761161a611387565b604052611626836115d1565b81526020928301519281019290925250919050565b818103818111156111e9576111e9611503565b6000608082840312801561166157600080fd5b506040516080810167ffffffffffffffff8111828210171561168557611685611387565b604052611691836115d1565b815261169f602084016115d1565b6020820152604083810151908201526060928301519281019290925250919050565b600082600f0b82600f0b0280600f0b91508082146116e1576116e1611503565b5092915050565b600f82810b9082900b0360016001607f1b0319811260016001607f1b03821317156111e9576111e961150356fea2646970667358221220b448ec71c3210fab3b1d660154f98a100c72b2d0656ea2124b34d09034ca699064736f6c634300081c0033",
          "opcodes": "PUSH1 0x80 PUSH1 0x40 MSTORE CALLVALUE DUP1 ISZERO PUSH2 0x10 JUMPI PUSH1 0x0 DUP1 REVERT JUMPDEST POP PUSH1 0x40 MLOAD PUSH2 0x1998 CODESIZE SUB DUP1 PUSH2 0x1998 DUP4 CODECOPY DUP2 ADD PUSH1 0x40 DUP2 SWAP1 MSTORE PUSH2 0x2F SWAP2 PUSH2 0x19F JUMP JUMPDEST PUSH1 0x1 PUSH1 0x0 SWAP1 DUP2 SSTORE PUSH3 0x93A80 PUSH2 0x44 DUP2 TIMESTAMP PUSH2 0x1CF JUMP JUMPDEST PUSH2 0x4E SWAP2 SWAP1 PUSH2 0x1F1 JUMP JUMPDEST SWAP1 POP DUP1 PUSH1 0x2 DUP2 SWAP1 SSTORE POP DUP1 PUSH1 0x6 DUP2 SWAP1 SSTORE POP PUSH1 0x0 DUP3 PUSH1 0x1 PUSH1 0x1 PUSH1 0xA0 SHL SUB AND PUSH4 0xFC0C546A PUSH1 0x40 MLOAD DUP2 PUSH4 0xFFFFFFFF AND PUSH1 0xE0 SHL DUP2 MSTORE PUSH1 0x4 ADD PUSH1 0x20 PUSH1 0x40 MLOAD DUP1 DUP4 SUB DUP2 DUP7 GAS STATICCALL ISZERO DUP1 ISZERO PUSH2 0x9E JUMPI RETURNDATASIZE PUSH1 0x0 DUP1 RETURNDATACOPY RETURNDATASIZE PUSH1 0x0 REVERT JUMPDEST POP POP POP POP PUSH1 0x40 MLOAD RETURNDATASIZE PUSH1 0x1F NOT PUSH1 0x1F DUP3 ADD AND DUP3 ADD DUP1 PUSH1 0x40 MSTORE POP DUP2 ADD SWAP1 PUSH2 0xC2 SWAP2 SWAP1 PUSH2 0x19F JUMP JUMPDEST PUSH7 0x71AFD498D0009 DUP1 SLOAD PUSH1 0x1 PUSH1 0x1 PUSH1 0xA0 SHL SUB DUP4 DUP2 AND PUSH1 0x1 PUSH1 0x1 PUSH1 0xA0 SHL SUB NOT SWAP3 DUP4 AND DUP2 OR SWAP1 SWAP4 SSTORE PUSH7 0x71AFD498D0008 DUP1 SLOAD SWAP2 DUP9 AND SWAP2 DUP4 AND DUP3 OR SWAP1 SSTORE PUSH7 0x71AFD498D000A DUP1 SLOAD DUP4 AND SWAP1 SSTORE PUSH1 0x1 DUP7 SWAP1 SSTORE PUSH7 0x71AFD498D0007 DUP1 SLOAD SWAP1 SWAP3 AND CALLER OR SWAP1 SWAP2 SSTORE PUSH1 0x40 MLOAD PUSH4 0x95EA7B3 PUSH1 0xE0 SHL DUP2 MSTORE PUSH1 0x4 DUP2 ADD SWAP2 SWAP1 SWAP2 MSTORE PUSH1 0x0 NOT PUSH1 0x24 DUP3 ADD MSTORE SWAP2 SWAP3 POP SWAP1 PUSH4 0x95EA7B3 SWAP1 PUSH1 0x44 ADD PUSH1 0x20 PUSH1 0x40 MLOAD DUP1 DUP4 SUB DUP2 PUSH1 0x0 DUP8 GAS CALL ISZERO DUP1 ISZERO PUSH2 0x16A JUMPI RETURNDATASIZE PUSH1 0x0 DUP1 RETURNDATACOPY RETURNDATASIZE PUSH1 0x0 REVERT JUMPDEST POP POP POP POP PUSH1 0x40 MLOAD RETURNDATASIZE PUSH1 0x1F NOT PUSH1 0x1F DUP3 ADD AND DUP3 ADD DUP1 PUSH1 0x40 MSTORE POP DUP2 ADD SWAP1 PUSH2 0x18E SWAP2 SWAP1 PUSH2 0x21C JUMP JUMPDEST PUSH2 0x197 JUMPI PUSH1 0x0 DUP1 REVERT JUMPDEST POP POP POP PUSH2 0x23E JUMP JUMPDEST PUSH1 0x0 PUSH1 0x20 DUP3 DUP5 SUB SLT ISZERO PUSH2 0x1B1 JUMPI PUSH1 0x0 DUP1 REVERT JUMPDEST DUP2 MLOAD PUSH1 0x1 PUSH1 0x1 PUSH1 0xA0 SHL SUB DUP2 AND DUP2 EQ PUSH2 0x1C8 JUMPI PUSH1 0x0 DUP1 REVERT JUMPDEST SWAP4 SWAP3 POP POP POP JUMP JUMPDEST PUSH1 0x0 DUP3 PUSH2 0x1EC JUMPI PUSH4 0x4E487B71 PUSH1 0xE0 SHL PUSH1 0x0 MSTORE PUSH1 0x12 PUSH1 0x4 MSTORE PUSH1 0x24 PUSH1 0x0 REVERT JUMPDEST POP DIV SWAP1 JUMP JUMPDEST DUP1 DUP3 MUL DUP2 ISZERO DUP3 DUP3 DIV DUP5 EQ OR PUSH2 0x216 JUMPI PUSH4 0x4E487B71 PUSH1 0xE0 SHL PUSH1 0x0 MSTORE PUSH1 0x11 PUSH1 0x4 MSTORE PUSH1 0x24 PUSH1 0x0 REVERT JUMPDEST SWAP3 SWAP2 POP POP JUMP JUMPDEST PUSH1 0x0 PUSH1 0x20 DUP3 DUP5 SUB SLT ISZERO PUSH2 0x22E JUMPI PUSH1 0x0 DUP1 REVERT JUMPDEST DUP2 MLOAD DUP1 ISZERO ISZERO DUP2 EQ PUSH2 0x1C8 JUMPI PUSH1 0x0 DUP1 REVERT JUMPDEST PUSH2 0x174B DUP1 PUSH2 0x24D PUSH1 0x0 CODECOPY PUSH1 0x0 RETURN INVALID PUSH1 0x80 PUSH1 0x40 MSTORE CALLVALUE DUP1 ISZERO PUSH2 0x10 JUMPI PUSH1 0x0 DUP1 REVERT JUMPDEST POP PUSH1 0x4 CALLDATASIZE LT PUSH2 0x16E JUMPI PUSH1 0x0 CALLDATALOAD PUSH1 0xE0 SHR DUP1 PUSH4 0xB80777EA GT PUSH2 0xCE JUMPI DUP1 PUSH4 0xDE42FA1E GT PUSH2 0x87 JUMPI DUP1 PUSH4 0xDE42FA1E EQ PUSH2 0x2F0 JUMPI DUP1 PUSH4 0xDFE05031 EQ PUSH2 0x303 JUMPI DUP1 PUSH4 0xE8B8B73F EQ PUSH2 0x31C JUMPI DUP1 PUSH4 0xEDF59997 EQ PUSH2 0x325 JUMPI DUP1 PUSH4 0xF2C098B7 EQ PUSH2 0x338 JUMPI DUP1 PUSH4 0xF4F3B200 EQ PUSH2 0x34B JUMPI DUP1 PUSH4 0xFC0C546A EQ PUSH2 0x35E JUMPI PUSH1 0x0 DUP1 REVERT JUMPDEST DUP1 PUSH4 0xB80777EA EQ PUSH2 0x28D JUMPI DUP1 PUSH4 0xC7C4FF46 EQ PUSH2 0x295 JUMPI DUP1 PUSH4 0xCE2639A7 EQ PUSH2 0x2AE JUMPI DUP1 PUSH4 0xD1D58B25 EQ PUSH2 0x2B7 JUMPI DUP1 PUSH4 0xD4DAFBA8 EQ PUSH2 0x2CA JUMPI DUP1 PUSH4 0xDCBBAB4F EQ PUSH2 0x2DD JUMPI PUSH1 0x0 DUP1 REVERT JUMPDEST DUP1 PUSH4 0x486D25FE GT PUSH2 0x12B JUMPI DUP1 PUSH4 0x486D25FE EQ PUSH2 0x20C JUMPI DUP1 PUSH4 0x616174CE EQ PUSH2 0x232 JUMPI DUP1 PUSH4 0x7F58E8F8 EQ PUSH2 0x245 JUMPI DUP1 PUSH4 0x811A40FE EQ PUSH2 0x24E JUMPI DUP1 PUSH4 0x834EE417 EQ PUSH2 0x256 JUMPI DUP1 PUSH4 0x8DA5CB5B EQ PUSH2 0x25F JUMPI DUP1 PUSH4 0xB21ED502 EQ PUSH2 0x285 JUMPI PUSH1 0x0 DUP1 REVERT JUMPDEST DUP1 PUSH4 0x127DCBD3 EQ PUSH2 0x173 JUMPI DUP1 PUSH4 0x13AF4035 EQ PUSH2 0x18F JUMPI DUP1 PUSH4 0x1F1DB043 EQ PUSH2 0x1A4 JUMPI DUP1 PUSH4 0x21F1E89D EQ PUSH2 0x1C7 JUMPI DUP1 PUSH4 0x34A90D02 EQ PUSH2 0x1D0 JUMPI DUP1 PUSH4 0x379607F5 EQ PUSH2 0x1F9 JUMPI JUMPDEST PUSH1 0x0 DUP1 REVERT JUMPDEST PUSH2 0x17C PUSH1 0x6 SLOAD DUP2 JUMP JUMPDEST PUSH1 0x40 MLOAD SWAP1 DUP2 MSTORE PUSH1 0x20 ADD JUMPDEST PUSH1 0x40 MLOAD DUP1 SWAP2 SUB SWAP1 RETURN JUMPDEST PUSH2 0x1A2 PUSH2 0x19D CALLDATASIZE PUSH1 0x4 PUSH2 0x136A JUMP JUMPDEST PUSH2 0x377 JUMP JUMPDEST STOP JUMPDEST PUSH2 0x1B7 PUSH2 0x1B2 CALLDATASIZE PUSH1 0x4 PUSH2 0x13CE JUMP JUMPDEST PUSH2 0x3BC JUMP JUMPDEST PUSH1 0x40 MLOAD SWAP1 ISZERO ISZERO DUP2 MSTORE PUSH1 0x20 ADD PUSH2 0x186 JUMP JUMPDEST PUSH2 0x17C PUSH1 0x5 SLOAD DUP2 JUMP JUMPDEST PUSH2 0x1B7 PUSH2 0x1DE CALLDATASIZE PUSH1 0x4 PUSH2 0x136A JUMP JUMPDEST PUSH7 0x71AFD498D000C PUSH1 0x20 MSTORE PUSH1 0x0 SWAP1 DUP2 MSTORE PUSH1 0x40 SWAP1 KECCAK256 SLOAD PUSH1 0xFF AND DUP2 JUMP JUMPDEST PUSH2 0x17C PUSH2 0x207 CALLDATASIZE PUSH1 0x4 PUSH2 0x147F JUMP JUMPDEST PUSH2 0x420 JUMP JUMPDEST PUSH2 0x17C PUSH2 0x21A CALLDATASIZE PUSH1 0x4 PUSH2 0x147F JUMP JUMPDEST PUSH7 0x71AFD498D000B PUSH1 0x20 MSTORE PUSH1 0x0 SWAP1 DUP2 MSTORE PUSH1 0x40 SWAP1 KECCAK256 SLOAD DUP2 JUMP JUMPDEST PUSH2 0x1A2 PUSH2 0x240 CALLDATASIZE PUSH1 0x4 PUSH2 0x136A JUMP JUMPDEST PUSH2 0x43F JUMP JUMPDEST PUSH2 0x17C PUSH1 0x2 SLOAD DUP2 JUMP JUMPDEST PUSH2 0x1A2 PUSH2 0x496 JUMP JUMPDEST PUSH2 0x17C PUSH1 0x1 SLOAD DUP2 JUMP JUMPDEST PUSH7 0x71AFD498D0007 SLOAD PUSH2 0x278 SWAP1 PUSH1 0x1 PUSH1 0x1 PUSH1 0xA0 SHL SUB AND DUP2 JUMP JUMPDEST PUSH1 0x40 MLOAD PUSH2 0x186 SWAP2 SWAP1 PUSH2 0x1498 JUMP JUMPDEST PUSH2 0x1A2 PUSH2 0x4DB JUMP JUMPDEST PUSH2 0x17C PUSH2 0x51E JUMP JUMPDEST PUSH7 0x71AFD498D000A SLOAD PUSH2 0x278 SWAP1 PUSH1 0x1 PUSH1 0x1 PUSH1 0xA0 SHL SUB AND DUP2 JUMP JUMPDEST PUSH2 0x17C PUSH1 0x3 SLOAD DUP2 JUMP JUMPDEST PUSH2 0x17C PUSH2 0x2C5 CALLDATASIZE PUSH1 0x4 PUSH2 0x147F JUMP JUMPDEST PUSH2 0x53D JUMP JUMPDEST PUSH2 0x17C PUSH2 0x2D8 CALLDATASIZE PUSH1 0x4 PUSH2 0x147F JUMP JUMPDEST PUSH2 0x5AB JUMP JUMPDEST PUSH2 0x1A2 PUSH2 0x2EB CALLDATASIZE PUSH1 0x4 PUSH2 0x14BA JUMP JUMPDEST PUSH2 0x5CE JUMP JUMPDEST PUSH2 0x1A2 PUSH2 0x2FE CALLDATASIZE PUSH1 0x4 PUSH2 0x136A JUMP JUMPDEST PUSH2 0x6C3 JUMP JUMPDEST PUSH7 0x71AFD498D0008 SLOAD PUSH2 0x278 SWAP1 PUSH1 0x1 PUSH1 0x1 PUSH1 0xA0 SHL SUB AND DUP2 JUMP JUMPDEST PUSH2 0x17C PUSH1 0x4 SLOAD DUP2 JUMP JUMPDEST PUSH2 0x17C PUSH2 0x333 CALLDATASIZE PUSH1 0x4 PUSH2 0x147F JUMP JUMPDEST PUSH2 0x71D JUMP JUMPDEST PUSH2 0x1A2 PUSH2 0x346 CALLDATASIZE PUSH1 0x4 PUSH2 0x136A JUMP JUMPDEST PUSH2 0x733 JUMP JUMPDEST PUSH2 0x1A2 PUSH2 0x359 CALLDATASIZE PUSH1 0x4 PUSH2 0x136A JUMP JUMPDEST PUSH2 0x778 JUMP JUMPDEST PUSH7 0x71AFD498D0009 SLOAD PUSH2 0x278 SWAP1 PUSH1 0x1 PUSH1 0x1 PUSH1 0xA0 SHL SUB AND DUP2 JUMP JUMPDEST PUSH7 0x71AFD498D0007 SLOAD PUSH1 0x1 PUSH1 0x1 PUSH1 0xA0 SHL SUB AND CALLER EQ PUSH2 0x394 JUMPI PUSH1 0x0 DUP1 REVERT JUMPDEST PUSH7 0x71AFD498D0007 DUP1 SLOAD PUSH1 0x1 PUSH1 0x1 PUSH1 0xA0 SHL SUB NOT AND PUSH1 0x1 PUSH1 0x1 PUSH1 0xA0 SHL SUB SWAP3 SWAP1 SWAP3 AND SWAP2 SWAP1 SWAP2 OR SWAP1 SSTORE JUMP JUMPDEST PUSH1 0x0 PUSH2 0x3C6 PUSH2 0x891 JUMP JUMPDEST PUSH1 0x19 DUP3 MLOAD GT ISZERO PUSH2 0x3D5 JUMPI PUSH1 0x0 DUP1 REVERT JUMPDEST PUSH1 0x0 JUMPDEST DUP3 MLOAD DUP2 LT ISZERO PUSH2 0x40C JUMPI PUSH2 0x403 DUP4 DUP3 DUP2 MLOAD DUP2 LT PUSH2 0x3F6 JUMPI PUSH2 0x3F6 PUSH2 0x14D7 JUMP JUMPDEST PUSH1 0x20 MUL PUSH1 0x20 ADD ADD MLOAD PUSH2 0x8EF JUMP JUMPDEST POP PUSH1 0x1 ADD PUSH2 0x3D8 JUMP JUMPDEST POP PUSH1 0x1 SWAP1 POP PUSH2 0x41B PUSH1 0x1 PUSH1 0x0 SSTORE JUMP JUMPDEST SWAP2 SWAP1 POP JUMP JUMPDEST PUSH1 0x0 PUSH2 0x42A PUSH2 0x891 JUMP JUMPDEST PUSH2 0x433 DUP3 PUSH2 0x8EF JUMP JUMPDEST SWAP1 POP PUSH2 0x41B PUSH1 0x1 PUSH1 0x0 SSTORE JUMP JUMPDEST CALLER PUSH1 0x1 PUSH1 0x1 PUSH1 0xA0 SHL SUB DUP3 AND EQ DUP1 PUSH2 0x466 JUMPI POP PUSH7 0x71AFD498D0007 SLOAD PUSH1 0x1 PUSH1 0x1 PUSH1 0xA0 SHL SUB AND CALLER EQ JUMPDEST PUSH2 0x46F JUMPI PUSH1 0x0 DUP1 REVERT JUMPDEST PUSH1 0x1 PUSH1 0x1 PUSH1 0xA0 SHL SUB AND PUSH1 0x0 SWAP1 DUP2 MSTORE PUSH7 0x71AFD498D000C PUSH1 0x20 MSTORE PUSH1 0x40 SWAP1 KECCAK256 DUP1 SLOAD PUSH1 0xFF NOT AND SWAP1 SSTORE JUMP JUMPDEST PUSH7 0x71AFD498D000A SLOAD PUSH1 0x1 PUSH1 0x1 PUSH1 0xA0 SHL SUB AND CALLER EQ DUP1 PUSH2 0x4C5 JUMPI POP PUSH7 0x71AFD498D0007 SLOAD PUSH1 0x1 PUSH1 0x1 PUSH1 0xA0 SHL SUB AND CALLER EQ JUMPDEST PUSH2 0x4D1 JUMPI PUSH2 0x4D1 PUSH2 0x14ED JUMP JUMPDEST PUSH2 0x4D9 PUSH2 0xCE5 JUMP JUMPDEST JUMP JUMPDEST PUSH7 0x71AFD498D000A SLOAD PUSH1 0x1 PUSH1 0x1 PUSH1 0xA0 SHL SUB AND CALLER EQ DUP1 PUSH2 0x50A JUMPI POP PUSH7 0x71AFD498D0007 SLOAD PUSH1 0x1 PUSH1 0x1 PUSH1 0xA0 SHL SUB AND CALLER EQ JUMPDEST PUSH2 0x516 JUMPI PUSH2 0x516 PUSH2 0x14ED JUMP JUMPDEST PUSH2 0x4D9 PUSH2 0xE40 JUMP JUMPDEST PUSH1 0x0 PUSH3 0x93A80 PUSH2 0x52E DUP2 TIMESTAMP PUSH2 0x1519 JUMP JUMPDEST PUSH2 0x538 SWAP2 SWAP1 PUSH2 0x153B JUMP JUMPDEST SWAP1 POP SWAP1 JUMP JUMPDEST PUSH1 0x0 DUP2 DUP2 MSTORE PUSH7 0x71AFD498D000B PUSH1 0x20 MSTORE PUSH1 0x40 DUP2 KECCAK256 SLOAD DUP1 DUP3 SUB PUSH2 0x55E JUMPI POP PUSH1 0x1 SLOAD JUMPDEST PUSH1 0x3 SLOAD PUSH1 0x0 DUP1 JUMPDEST PUSH1 0x64 DUP2 LT ISZERO PUSH2 0x5A2 JUMPI DUP3 DUP5 GT PUSH2 0x5A2 JUMPI PUSH2 0x57F DUP7 DUP6 PUSH2 0xFE3 JUMP JUMPDEST PUSH2 0x589 SWAP1 DUP4 PUSH2 0x1552 JUMP JUMPDEST SWAP2 POP PUSH2 0x598 PUSH3 0x93A80 DUP6 PUSH2 0x1552 JUMP JUMPDEST SWAP4 POP PUSH1 0x1 ADD PUSH2 0x565 JUMP JUMPDEST POP SWAP5 SWAP4 POP POP POP POP JUMP JUMPDEST PUSH7 0x38D7EA4C68007 DUP2 PUSH7 0x38D7EA4C68000 DUP2 LT PUSH2 0x5C7 JUMPI PUSH1 0x0 DUP1 REVERT JUMPDEST ADD SLOAD SWAP1 POP DUP2 JUMP JUMPDEST PUSH7 0x71AFD498D0007 SLOAD PUSH1 0x1 PUSH1 0x1 PUSH1 0xA0 SHL SUB AND CALLER EQ PUSH2 0x5EB JUMPI PUSH1 0x0 DUP1 REVERT JUMPDEST PUSH1 0x1 DUP2 ISZERO ISZERO EQ PUSH2 0x67F JUMPI PUSH7 0x71AFD498D0009 SLOAD PUSH7 0x71AFD498D0008 SLOAD PUSH1 0x40 MLOAD PUSH4 0x95EA7B3 PUSH1 0xE0 SHL DUP2 MSTORE PUSH1 0x1 PUSH1 0x1 PUSH1 0xA0 SHL SUB SWAP3 DUP4 AND SWAP3 PUSH4 0x95EA7B3 SWAP3 PUSH2 0x638 SWAP3 SWAP2 AND SWAP1 PUSH1 0x0 SWAP1 PUSH1 0x4 ADD PUSH2 0x1565 JUMP JUMPDEST PUSH1 0x20 PUSH1 0x40 MLOAD DUP1 DUP4 SUB DUP2 PUSH1 0x0 DUP8 GAS CALL ISZERO DUP1 ISZERO PUSH2 0x657 JUMPI RETURNDATASIZE PUSH1 0x0 DUP1 RETURNDATACOPY RETURNDATASIZE PUSH1 0x0 REVERT JUMPDEST POP POP POP POP PUSH1 0x40 MLOAD RETURNDATASIZE PUSH1 0x1F NOT PUSH1 0x1F DUP3 ADD AND DUP3 ADD DUP1 PUSH1 0x40 MSTORE POP DUP2 ADD SWAP1 PUSH2 0x67B SWAP2 SWAP1 PUSH2 0x157E JUMP JUMPDEST POP POP JUMP JUMPDEST PUSH7 0x71AFD498D0009 SLOAD PUSH7 0x71AFD498D0008 SLOAD PUSH1 0x40 MLOAD PUSH4 0x95EA7B3 PUSH1 0xE0 SHL DUP2 MSTORE PUSH1 0x1 PUSH1 0x1 PUSH1 0xA0 SHL SUB SWAP3 DUP4 AND SWAP3 PUSH4 0x95EA7B3 SWAP3 PUSH2 0x638 SWAP3 SWAP2 AND SWAP1 PUSH1 0x0 NOT SWAP1 PUSH1 0x4 ADD PUSH2 0x1565 JUMP JUMPDEST CALLER PUSH1 0x1 PUSH1 0x1 PUSH1 0xA0 SHL SUB DUP3 AND EQ DUP1 PUSH2 0x6EA JUMPI POP PUSH7 0x71AFD498D0007 SLOAD PUSH1 0x1 PUSH1 0x1 PUSH1 0xA0 SHL SUB AND CALLER EQ JUMPDEST PUSH2 0x6F3 JUMPI PUSH1 0x0 DUP1 REVERT JUMPDEST PUSH1 0x1 PUSH1 0x1 PUSH1 0xA0 SHL SUB AND PUSH1 0x0 SWAP1 DUP2 MSTORE PUSH7 0x71AFD498D000C PUSH1 0x20 MSTORE PUSH1 0x40 SWAP1 KECCAK256 DUP1 SLOAD PUSH1 0xFF NOT AND PUSH1 0x1 OR SWAP1 SSTORE JUMP JUMPDEST PUSH1 0x7 DUP2 PUSH7 0x38D7EA4C68000 DUP2 LT PUSH2 0x5C7 JUMPI PUSH1 0x0 DUP1 REVERT JUMPDEST PUSH7 0x71AFD498D0007 SLOAD PUSH1 0x1 PUSH1 0x1 PUSH1 0xA0 SHL SUB AND CALLER EQ PUSH2 0x750 JUMPI PUSH1 0x0 DUP1 REVERT JUMPDEST PUSH7 0x71AFD498D000A DUP1 SLOAD PUSH1 0x1 PUSH1 0x1 PUSH1 0xA0 SHL SUB NOT AND PUSH1 0x1 PUSH1 0x1 PUSH1 0xA0 SHL SUB SWAP3 SWAP1 SWAP3 AND SWAP2 SWAP1 SWAP2 OR SWAP1 SSTORE JUMP JUMPDEST PUSH7 0x71AFD498D0007 SLOAD PUSH1 0x1 PUSH1 0x1 PUSH1 0xA0 SHL SUB AND CALLER EQ PUSH2 0x795 JUMPI PUSH1 0x0 DUP1 REVERT JUMPDEST PUSH1 0x1 PUSH1 0x1 PUSH1 0xA0 SHL SUB DUP2 AND PUSH2 0x7A8 JUMPI PUSH1 0x0 DUP1 REVERT JUMPDEST PUSH1 0x40 MLOAD PUSH4 0x70A08231 PUSH1 0xE0 SHL DUP2 MSTORE PUSH1 0x0 SWAP1 PUSH1 0x1 PUSH1 0x1 PUSH1 0xA0 SHL SUB DUP4 AND SWAP1 PUSH4 0x70A08231 SWAP1 PUSH2 0x7D7 SWAP1 ADDRESS SWAP1 PUSH1 0x4 ADD PUSH2 0x1498 JUMP JUMPDEST PUSH1 0x20 PUSH1 0x40 MLOAD DUP1 DUP4 SUB DUP2 DUP7 GAS STATICCALL ISZERO DUP1 ISZERO PUSH2 0x7F4 JUMPI RETURNDATASIZE PUSH1 0x0 DUP1 RETURNDATACOPY RETURNDATASIZE PUSH1 0x0 REVERT JUMPDEST POP POP POP POP PUSH1 0x40 MLOAD RETURNDATASIZE PUSH1 0x1F NOT PUSH1 0x1F DUP3 ADD AND DUP3 ADD DUP1 PUSH1 0x40 MSTORE POP DUP2 ADD SWAP1 PUSH2 0x818 SWAP2 SWAP1 PUSH2 0x159B JUMP JUMPDEST PUSH1 0x40 MLOAD PUSH4 0xA9059CBB PUSH1 0xE0 SHL DUP2 MSTORE SWAP1 SWAP2 POP PUSH1 0x1 PUSH1 0x1 PUSH1 0xA0 SHL SUB DUP4 AND SWAP1 PUSH4 0xA9059CBB SWAP1 PUSH2 0x849 SWAP1 CALLER SWAP1 DUP6 SWAP1 PUSH1 0x4 ADD PUSH2 0x1565 JUMP JUMPDEST PUSH1 0x20 PUSH1 0x40 MLOAD DUP1 DUP4 SUB DUP2 PUSH1 0x0 DUP8 GAS CALL ISZERO DUP1 ISZERO PUSH2 0x868 JUMPI RETURNDATASIZE PUSH1 0x0 DUP1 RETURNDATACOPY RETURNDATASIZE PUSH1 0x0 REVERT JUMPDEST POP POP POP POP PUSH1 0x40 MLOAD RETURNDATASIZE PUSH1 0x1F NOT PUSH1 0x1F DUP3 ADD AND DUP3 ADD DUP1 PUSH1 0x40 MSTORE POP DUP2 ADD SWAP1 PUSH2 0x88C SWAP2 SWAP1 PUSH2 0x157E JUMP JUMPDEST POP POP POP JUMP JUMPDEST PUSH1 0x2 PUSH1 0x0 SLOAD SUB PUSH2 0x8E8 JUMPI PUSH1 0x40 MLOAD PUSH3 0x461BCD PUSH1 0xE5 SHL DUP2 MSTORE PUSH1 0x20 PUSH1 0x4 DUP3 ADD MSTORE PUSH1 0x1F PUSH1 0x24 DUP3 ADD MSTORE PUSH32 0x5265656E7472616E637947756172643A207265656E7472616E742063616C6C00 PUSH1 0x44 DUP3 ADD MSTORE PUSH1 0x64 ADD JUMPDEST PUSH1 0x40 MLOAD DUP1 SWAP2 SUB SWAP1 REVERT JUMPDEST PUSH1 0x2 PUSH1 0x0 SSTORE JUMP JUMPDEST PUSH7 0x71AFD498D0008 SLOAD PUSH1 0x40 MLOAD PUSH4 0x31A9108F PUSH1 0xE1 SHL DUP2 MSTORE PUSH1 0x4 DUP2 ADD DUP4 SWAP1 MSTORE PUSH1 0x0 SWAP2 DUP3 SWAP2 PUSH1 0x1 PUSH1 0x1 PUSH1 0xA0 SHL SUB SWAP1 SWAP2 AND SWAP1 PUSH4 0x6352211E SWAP1 PUSH1 0x24 ADD PUSH1 0x20 PUSH1 0x40 MLOAD DUP1 DUP4 SUB DUP2 DUP7 GAS STATICCALL ISZERO DUP1 ISZERO PUSH2 0x943 JUMPI RETURNDATASIZE PUSH1 0x0 DUP1 RETURNDATACOPY RETURNDATASIZE PUSH1 0x0 REVERT JUMPDEST POP POP POP POP PUSH1 0x40 MLOAD RETURNDATASIZE PUSH1 0x1F NOT PUSH1 0x1F DUP3 ADD AND DUP3 ADD DUP1 PUSH1 0x40 MSTORE POP DUP2 ADD SWAP1 PUSH2 0x967 SWAP2 SWAP1 PUSH2 0x15B4 JUMP JUMPDEST PUSH1 0x1 PUSH1 0x1 PUSH1 0xA0 SHL SUB DUP2 AND PUSH1 0x0 SWAP1 DUP2 MSTORE PUSH7 0x71AFD498D000C PUSH1 0x20 MSTORE PUSH1 0x40 SWAP1 KECCAK256 SLOAD SWAP1 SWAP2 POP PUSH1 0xFF AND ISZERO PUSH2 0xA45 JUMPI PUSH7 0x71AFD498D0008 SLOAD PUSH1 0x40 MLOAD PUSH4 0x430C2081 PUSH1 0xE0 SHL DUP2 MSTORE PUSH1 0x1 PUSH1 0x1 PUSH1 0xA0 SHL SUB SWAP1 SWAP2 AND SWAP1 PUSH4 0x430C2081 SWAP1 PUSH2 0x9C9 SWAP1 CALLER SWAP1 DUP8 SWAP1 PUSH1 0x4 ADD PUSH2 0x1565 JUMP JUMPDEST PUSH1 0x20 PUSH1 0x40 MLOAD DUP1 DUP4 SUB DUP2 DUP7 GAS STATICCALL ISZERO DUP1 ISZERO PUSH2 0x9E6 JUMPI RETURNDATASIZE PUSH1 0x0 DUP1 RETURNDATACOPY RETURNDATASIZE PUSH1 0x0 REVERT JUMPDEST POP POP POP POP PUSH1 0x40 MLOAD RETURNDATASIZE PUSH1 0x1F NOT PUSH1 0x1F DUP3 ADD AND DUP3 ADD DUP1 PUSH1 0x40 MSTORE POP DUP2 ADD SWAP1 PUSH2 0xA0A SWAP2 SWAP1 PUSH2 0x157E JUMP JUMPDEST PUSH2 0xA45 JUMPI PUSH1 0x40 MLOAD PUSH3 0x461BCD PUSH1 0xE5 SHL DUP2 MSTORE PUSH1 0x20 PUSH1 0x4 DUP3 ADD MSTORE PUSH1 0xC PUSH1 0x24 DUP3 ADD MSTORE PUSH12 0x1B9BDD08185C1C1C9BDD9959 PUSH1 0xA2 SHL PUSH1 0x44 DUP3 ADD MSTORE PUSH1 0x64 ADD PUSH2 0x8DF JUMP JUMPDEST PUSH7 0x71AFD498D0008 SLOAD PUSH1 0x40 MLOAD PUSH4 0x5A2D1E07 PUSH1 0xE1 SHL DUP2 MSTORE PUSH1 0x4 DUP2 ADD DUP6 SWAP1 MSTORE PUSH1 0x0 SWAP2 PUSH1 0x1 PUSH1 0x1 PUSH1 0xA0 SHL SUB AND SWAP1 PUSH4 0xB45A3C0E SWAP1 PUSH1 0x24 ADD PUSH1 0x40 DUP1 MLOAD DUP1 DUP4 SUB DUP2 DUP7 GAS STATICCALL ISZERO DUP1 ISZERO PUSH2 0xA94 JUMPI RETURNDATASIZE PUSH1 0x0 DUP1 RETURNDATACOPY RETURNDATASIZE PUSH1 0x0 REVERT JUMPDEST POP POP POP POP PUSH1 0x40 MLOAD RETURNDATASIZE PUSH1 0x1F NOT PUSH1 0x1F DUP3 ADD AND DUP3 ADD DUP1 PUSH1 0x40 MSTORE POP DUP2 ADD SWAP1 PUSH2 0xAB8 SWAP2 SWAP1 PUSH2 0x15E3 JUMP JUMPDEST SWAP1 POP PUSH1 0x0 DUP2 PUSH1 0x0 ADD MLOAD PUSH1 0xF SIGNEXTEND SGT PUSH2 0xB0A JUMPI PUSH1 0x40 MLOAD PUSH3 0x461BCD PUSH1 0xE5 SHL DUP2 MSTORE PUSH1 0x20 PUSH1 0x4 DUP3 ADD MSTORE PUSH1 0x16 PUSH1 0x24 DUP3 ADD MSTORE PUSH22 0x139BC8195E1A5CDD1A5B99C81B1BD8DAC8199BDD5B99 PUSH1 0x52 SHL PUSH1 0x44 DUP3 ADD MSTORE PUSH1 0x64 ADD PUSH2 0x8DF JUMP JUMPDEST TIMESTAMP DUP2 PUSH1 0x20 ADD MLOAD GT PUSH2 0xB69 JUMPI PUSH1 0x40 MLOAD PUSH3 0x461BCD PUSH1 0xE5 SHL DUP2 MSTORE PUSH1 0x20 PUSH1 0x4 DUP3 ADD MSTORE PUSH1 0x24 DUP1 DUP3 ADD MSTORE PUSH32 0x43616E6E6F742061646420746F2065787069726564206C6F636B2E2057697468 PUSH1 0x44 DUP3 ADD MSTORE PUSH4 0x64726177 PUSH1 0xE0 SHL PUSH1 0x64 DUP3 ADD MSTORE PUSH1 0x84 ADD PUSH2 0x8DF JUMP JUMPDEST PUSH1 0x0 DUP5 DUP2 MSTORE PUSH7 0x71AFD498D000B PUSH1 0x20 MSTORE PUSH1 0x40 SWAP1 KECCAK256 SLOAD PUSH1 0x1 SLOAD DUP2 LT ISZERO PUSH2 0xB8D JUMPI POP PUSH1 0x1 SLOAD JUMPDEST PUSH1 0x3 SLOAD PUSH1 0x0 DUP1 JUMPDEST PUSH1 0x64 DUP2 LT ISZERO PUSH2 0xBD1 JUMPI DUP3 DUP5 GT PUSH2 0xBD1 JUMPI PUSH2 0xBAE DUP9 DUP6 PUSH2 0xFE3 JUMP JUMPDEST PUSH2 0xBB8 SWAP1 DUP4 PUSH2 0x1552 JUMP JUMPDEST SWAP2 POP PUSH2 0xBC7 PUSH3 0x93A80 DUP6 PUSH2 0x1552 JUMP JUMPDEST SWAP4 POP PUSH1 0x1 ADD PUSH2 0xB94 JUMP JUMPDEST POP DUP1 ISZERO PUSH2 0xC44 JUMPI PUSH7 0x71AFD498D0008 SLOAD PUSH1 0x40 MLOAD PUSH4 0x1DD33FC5 PUSH1 0xE3 SHL DUP2 MSTORE PUSH1 0x4 DUP2 ADD DUP10 SWAP1 MSTORE PUSH1 0x24 DUP2 ADD DUP4 SWAP1 MSTORE PUSH1 0x1 PUSH1 0x1 PUSH1 0xA0 SHL SUB SWAP1 SWAP2 AND SWAP1 PUSH4 0xEE99FE28 SWAP1 PUSH1 0x44 ADD PUSH1 0x0 PUSH1 0x40 MLOAD DUP1 DUP4 SUB DUP2 PUSH1 0x0 DUP8 DUP1 EXTCODESIZE ISZERO DUP1 ISZERO PUSH2 0xC2B JUMPI PUSH1 0x0 DUP1 REVERT JUMPDEST POP GAS CALL ISZERO DUP1 ISZERO PUSH2 0xC3F JUMPI RETURNDATASIZE PUSH1 0x0 DUP1 RETURNDATACOPY RETURNDATASIZE PUSH1 0x0 REVERT JUMPDEST POP POP POP POP JUMPDEST PUSH1 0x0 DUP8 DUP2 MSTORE PUSH7 0x71AFD498D000B PUSH1 0x20 MSTORE PUSH1 0x40 DUP2 KECCAK256 DUP5 SWAP1 SSTORE PUSH1 0x5 DUP1 SLOAD DUP4 SWAP3 SWAP1 PUSH2 0xC6D SWAP1 DUP5 SWAP1 PUSH2 0x1552 JUMP JUMPDEST SWAP1 SWAP2 SSTORE POP POP PUSH1 0x3 SLOAD PUSH7 0x71AFD498D0008 SLOAD PUSH32 0xCAE2990AA9AF8EB1C64713B7EDDB3A80BF18E49A94A13FE0D0002B5D61D58F00 SWAP2 DUP10 SWAP2 DUP5 SWAP2 SWAP1 PUSH2 0xCB8 SWAP1 PUSH1 0x1 PUSH1 0x1 PUSH1 0xA0 SHL SUB AND DUP3 PUSH2 0x11EF JUMP JUMPDEST PUSH1 0x40 DUP1 MLOAD SWAP5 DUP6 MSTORE PUSH1 0x20 DUP6 ADD SWAP4 SWAP1 SWAP4 MSTORE SWAP2 DUP4 ADD MSTORE PUSH1 0x60 DUP3 ADD MSTORE PUSH1 0x80 ADD PUSH1 0x40 MLOAD DUP1 SWAP2 SUB SWAP1 LOG1 SWAP7 SWAP6 POP POP POP POP POP POP JUMP JUMPDEST PUSH3 0x93A80 PUSH2 0xCF3 DUP2 TIMESTAMP PUSH2 0x1519 JUMP JUMPDEST PUSH2 0xCFD SWAP2 SWAP1 PUSH2 0x153B JUMP JUMPDEST PUSH1 0x3 DUP2 SWAP1 SSTORE PUSH1 0x0 SWAP1 DUP2 MSTORE PUSH7 0x71AFD498D000D PUSH1 0x20 MSTORE PUSH1 0x40 DUP1 DUP3 KECCAK256 NUMBER SWAP1 SSTORE TIMESTAMP PUSH1 0x2 SSTORE PUSH7 0x71AFD498D0009 SLOAD SWAP1 MLOAD PUSH4 0x70A08231 PUSH1 0xE0 SHL DUP2 MSTORE PUSH1 0x1 PUSH1 0x1 PUSH1 0xA0 SHL SUB SWAP1 SWAP2 AND SWAP1 PUSH4 0x70A08231 SWAP1 PUSH2 0xD53 SWAP1 ADDRESS SWAP1 PUSH1 0x4 ADD PUSH2 0x1498 JUMP JUMPDEST PUSH1 0x20 PUSH1 0x40 MLOAD DUP1 DUP4 SUB DUP2 DUP7 GAS STATICCALL ISZERO DUP1 ISZERO PUSH2 0xD70 JUMPI RETURNDATASIZE PUSH1 0x0 DUP1 RETURNDATACOPY RETURNDATASIZE PUSH1 0x0 REVERT JUMPDEST POP POP POP POP PUSH1 0x40 MLOAD RETURNDATASIZE PUSH1 0x1F NOT PUSH1 0x1F DUP3 ADD AND DUP3 ADD DUP1 PUSH1 0x40 MSTORE POP DUP2 ADD SWAP1 PUSH2 0xD94 SWAP2 SWAP1 PUSH2 0x159B JUMP JUMPDEST SWAP1 POP PUSH1 0x0 PUSH1 0x5 SLOAD PUSH1 0x4 SLOAD PUSH2 0xDA8 SWAP2 SWAP1 PUSH2 0x163B JUMP JUMPDEST SWAP1 POP PUSH1 0x0 PUSH2 0xDB6 DUP3 DUP5 PUSH2 0x163B JUMP JUMPDEST SWAP1 POP DUP1 PUSH1 0x7 PUSH1 0x3 SLOAD PUSH7 0x38D7EA4C68000 DUP2 LT PUSH2 0xDD4 JUMPI PUSH2 0xDD4 PUSH2 0x14D7 JUMP JUMPDEST ADD PUSH1 0x0 DUP3 DUP3 SLOAD PUSH2 0xDE4 SWAP2 SWAP1 PUSH2 0x1552 JUMP JUMPDEST SWAP3 POP POP DUP2 SWAP1 SSTORE POP DUP1 PUSH1 0x4 PUSH1 0x0 DUP3 DUP3 SLOAD PUSH2 0xDFD SWAP2 SWAP1 PUSH2 0x1552 JUMP JUMPDEST SWAP1 SWAP2 SSTORE POP POP PUSH1 0x40 DUP1 MLOAD TIMESTAMP DUP2 MSTORE PUSH1 0x20 DUP2 ADD DUP4 SWAP1 MSTORE PUSH32 0xCE749457B74E10F393F2C6B1CE4261B78791376DB5A3F501477A809F03F500D6 SWAP2 ADD PUSH1 0x40 MLOAD DUP1 SWAP2 SUB SWAP1 LOG1 POP POP POP JUMP JUMPDEST PUSH7 0x71AFD498D0008 SLOAD PUSH1 0x6 SLOAD PUSH1 0x1 PUSH1 0x1 PUSH1 0xA0 SHL SUB SWAP1 SWAP2 AND SWAP1 PUSH1 0x0 PUSH3 0x93A80 PUSH2 0xE68 DUP2 TIMESTAMP PUSH2 0x1519 JUMP JUMPDEST PUSH2 0xE72 SWAP2 SWAP1 PUSH2 0x153B JUMP JUMPDEST SWAP1 POP DUP3 PUSH1 0x1 PUSH1 0x1 PUSH1 0xA0 SHL SUB AND PUSH4 0xC2C4C5C1 PUSH1 0x40 MLOAD DUP2 PUSH4 0xFFFFFFFF AND PUSH1 0xE0 SHL DUP2 MSTORE PUSH1 0x4 ADD PUSH1 0x0 PUSH1 0x40 MLOAD DUP1 DUP4 SUB DUP2 PUSH1 0x0 DUP8 DUP1 EXTCODESIZE ISZERO DUP1 ISZERO PUSH2 0xEAF JUMPI PUSH1 0x0 DUP1 REVERT JUMPDEST POP GAS CALL ISZERO DUP1 ISZERO PUSH2 0xEC3 JUMPI RETURNDATASIZE PUSH1 0x0 DUP1 RETURNDATACOPY RETURNDATASIZE PUSH1 0x0 REVERT JUMPDEST POP POP POP POP PUSH1 0x0 JUMPDEST PUSH1 0x14 DUP2 LT ISZERO PUSH2 0xFDB JUMPI DUP2 DUP4 GT PUSH2 0xFDB JUMPI PUSH1 0x0 PUSH2 0xEE6 DUP6 DUP6 PUSH2 0x11EF JUMP JUMPDEST PUSH1 0x40 MLOAD PUSH4 0xD1FEBFB9 PUSH1 0xE0 SHL DUP2 MSTORE PUSH1 0x4 DUP2 ADD DUP3 SWAP1 MSTORE SWAP1 SWAP2 POP PUSH1 0x0 SWAP1 PUSH1 0x1 PUSH1 0x1 PUSH1 0xA0 SHL SUB DUP8 AND SWAP1 PUSH4 0xD1FEBFB9 SWAP1 PUSH1 0x24 ADD PUSH1 0x80 PUSH1 0x40 MLOAD DUP1 DUP4 SUB DUP2 DUP7 GAS STATICCALL ISZERO DUP1 ISZERO PUSH2 0xF31 JUMPI RETURNDATASIZE PUSH1 0x0 DUP1 RETURNDATACOPY RETURNDATASIZE PUSH1 0x0 REVERT JUMPDEST POP POP POP POP PUSH1 0x40 MLOAD RETURNDATASIZE PUSH1 0x1F NOT PUSH1 0x1F DUP3 ADD AND DUP3 ADD DUP1 PUSH1 0x40 MSTORE POP DUP2 ADD SWAP1 PUSH2 0xF55 SWAP2 SWAP1 PUSH2 0x164E JUMP JUMPDEST SWAP1 POP PUSH1 0x0 DUP2 PUSH1 0x40 ADD MLOAD DUP7 GT ISZERO PUSH2 0xF77 JUMPI PUSH1 0x40 DUP3 ADD MLOAD PUSH2 0xF74 SWAP1 DUP8 PUSH2 0x163B JUMP JUMPDEST SWAP1 POP JUMPDEST PUSH2 0xFA0 DUP2 DUP4 PUSH1 0x20 ADD MLOAD PUSH2 0xF8A SWAP2 SWAP1 PUSH2 0x16C1 JUMP JUMPDEST DUP4 MLOAD PUSH2 0xF96 SWAP2 SWAP1 PUSH2 0x16E8 JUMP JUMPDEST PUSH1 0xF SIGNEXTEND PUSH1 0x0 PUSH2 0x1339 JUMP JUMPDEST PUSH7 0x38D7EA4C68007 DUP8 PUSH7 0x38D7EA4C68000 DUP2 LT PUSH2 0xFBF JUMPI PUSH2 0xFBF PUSH2 0x14D7 JUMP JUMPDEST ADD SSTORE POP POP POP PUSH2 0xFD1 PUSH3 0x93A80 DUP5 PUSH2 0x1552 JUMP JUMPDEST SWAP3 POP PUSH1 0x1 ADD PUSH2 0xECA JUMP JUMPDEST POP POP PUSH1 0x6 SSTORE POP JUMP JUMPDEST PUSH7 0x71AFD498D0008 SLOAD PUSH1 0x40 MLOAD PUSH4 0x9BB79ED PUSH1 0xE1 SHL DUP2 MSTORE PUSH1 0x4 DUP2 ADD DUP5 SWAP1 MSTORE PUSH1 0x1 PUSH1 0x24 DUP3 ADD MSTORE PUSH1 0x0 SWAP2 DUP3 SWAP2 PUSH1 0x1 PUSH1 0x1 PUSH1 0xA0 SHL SUB SWAP1 SWAP2 AND SWAP1 PUSH4 0x1376F3DA SWAP1 PUSH1 0x44 ADD PUSH1 0x80 PUSH1 0x40 MLOAD DUP1 DUP4 SUB DUP2 DUP7 GAS STATICCALL ISZERO DUP1 ISZERO PUSH2 0x103E JUMPI RETURNDATASIZE PUSH1 0x0 DUP1 RETURNDATACOPY RETURNDATASIZE PUSH1 0x0 REVERT JUMPDEST POP POP POP POP PUSH1 0x40 MLOAD RETURNDATASIZE PUSH1 0x1F NOT PUSH1 0x1F DUP3 ADD AND DUP3 ADD DUP1 PUSH1 0x40 MSTORE POP DUP2 ADD SWAP1 PUSH2 0x1062 SWAP2 SWAP1 PUSH2 0x164E JUMP JUMPDEST SWAP1 POP PUSH7 0x38D7EA4C68007 DUP4 PUSH7 0x38D7EA4C68000 DUP2 LT PUSH2 0x1083 JUMPI PUSH2 0x1083 PUSH2 0x14D7 JUMP JUMPDEST ADD SLOAD PUSH1 0x0 SUB PUSH2 0x1096 JUMPI PUSH1 0x0 SWAP2 POP POP PUSH2 0x11E9 JUMP JUMPDEST PUSH1 0x7 DUP4 PUSH7 0x38D7EA4C68000 DUP2 LT PUSH2 0x10AF JUMPI PUSH2 0x10AF PUSH2 0x14D7 JUMP JUMPDEST ADD SLOAD PUSH1 0x0 SUB PUSH2 0x10C2 JUMPI PUSH1 0x0 SWAP2 POP POP PUSH2 0x11E9 JUMP JUMPDEST DUP3 DUP2 PUSH1 0x40 ADD MLOAD GT ISZERO PUSH2 0x10D8 JUMPI PUSH1 0x0 SWAP2 POP POP PUSH2 0x11E9 JUMP JUMPDEST PUSH7 0x71AFD498D0008 SLOAD PUSH1 0x0 DUP5 DUP2 MSTORE PUSH7 0x71AFD498D000D PUSH1 0x20 MSTORE PUSH1 0x40 DUP1 DUP3 KECCAK256 SLOAD SWAP1 MLOAD PUSH4 0x8C2C9BAF PUSH1 0xE0 SHL DUP2 MSTORE PUSH1 0x4 DUP2 ADD DUP9 SWAP1 MSTORE PUSH1 0x24 DUP2 ADD SWAP2 SWAP1 SWAP2 MSTORE SWAP1 SWAP2 PUSH1 0x1 PUSH1 0x1 PUSH1 0xA0 SHL SUB AND SWAP1 PUSH4 0x8C2C9BAF SWAP1 PUSH1 0x44 ADD PUSH1 0x20 PUSH1 0x40 MLOAD DUP1 DUP4 SUB DUP2 DUP7 GAS STATICCALL ISZERO DUP1 ISZERO PUSH2 0x1144 JUMPI RETURNDATASIZE PUSH1 0x0 DUP1 RETURNDATACOPY RETURNDATASIZE PUSH1 0x0 REVERT JUMPDEST POP POP POP POP PUSH1 0x40 MLOAD RETURNDATASIZE PUSH1 0x1F NOT PUSH1 0x1F DUP3 ADD AND DUP3 ADD DUP1 PUSH1 0x40 MSTORE POP DUP2 ADD SWAP1 PUSH2 0x1168 SWAP2 SWAP1 PUSH2 0x159B JUMP JUMPDEST SWAP1 POP PUSH1 0x0 PUSH7 0x38D7EA4C68007 DUP6 PUSH7 0x38D7EA4C68000 DUP2 LT PUSH2 0x118B JUMPI PUSH2 0x118B PUSH2 0x14D7 JUMP JUMPDEST ADD SLOAD PUSH2 0x119F DUP4 PUSH8 0xDE0B6B3A7640000 PUSH2 0x153B JUMP JUMPDEST PUSH2 0x11A9 SWAP2 SWAP1 PUSH2 0x1519 JUMP JUMPDEST SWAP1 POP PUSH8 0xDE0B6B3A7640000 PUSH1 0x7 DUP7 PUSH7 0x38D7EA4C68000 DUP2 LT PUSH2 0x11CD JUMPI PUSH2 0x11CD PUSH2 0x14D7 JUMP JUMPDEST ADD SLOAD PUSH2 0x11D9 SWAP1 DUP4 PUSH2 0x153B JUMP JUMPDEST PUSH2 0x11E3 SWAP2 SWAP1 PUSH2 0x1519 JUMP JUMPDEST SWAP4 POP POP POP POP JUMPDEST SWAP3 SWAP2 POP POP JUMP JUMPDEST PUSH1 0x0 DUP1 PUSH1 0x0 SWAP1 POP PUSH1 0x0 DUP5 PUSH1 0x1 PUSH1 0x1 PUSH1 0xA0 SHL SUB AND PUSH4 0x900CF0CF PUSH1 0x40 MLOAD DUP2 PUSH4 0xFFFFFFFF AND PUSH1 0xE0 SHL DUP2 MSTORE PUSH1 0x4 ADD PUSH1 0x20 PUSH1 0x40 MLOAD DUP1 DUP4 SUB DUP2 DUP7 GAS STATICCALL ISZERO DUP1 ISZERO PUSH2 0x1236 JUMPI RETURNDATASIZE PUSH1 0x0 DUP1 RETURNDATACOPY RETURNDATASIZE PUSH1 0x0 REVERT JUMPDEST POP POP POP POP PUSH1 0x40 MLOAD RETURNDATASIZE PUSH1 0x1F NOT PUSH1 0x1F DUP3 ADD AND DUP3 ADD DUP1 PUSH1 0x40 MSTORE POP DUP2 ADD SWAP1 PUSH2 0x125A SWAP2 SWAP1 PUSH2 0x159B JUMP JUMPDEST SWAP1 POP PUSH1 0x0 JUMPDEST PUSH1 0x80 DUP2 LT ISZERO PUSH2 0x132F JUMPI DUP2 DUP4 LT ISZERO PUSH2 0x132F JUMPI PUSH1 0x0 PUSH1 0x2 PUSH2 0x127E DUP5 DUP7 PUSH2 0x1552 JUMP JUMPDEST PUSH2 0x1289 SWAP1 PUSH1 0x2 PUSH2 0x1552 JUMP JUMPDEST PUSH2 0x1293 SWAP2 SWAP1 PUSH2 0x1519 JUMP JUMPDEST PUSH1 0x40 MLOAD PUSH4 0xD1FEBFB9 PUSH1 0xE0 SHL DUP2 MSTORE PUSH1 0x4 DUP2 ADD DUP3 SWAP1 MSTORE SWAP1 SWAP2 POP PUSH1 0x0 SWAP1 PUSH1 0x1 PUSH1 0x1 PUSH1 0xA0 SHL SUB DUP10 AND SWAP1 PUSH4 0xD1FEBFB9 SWAP1 PUSH1 0x24 ADD PUSH1 0x80 PUSH1 0x40 MLOAD DUP1 DUP4 SUB DUP2 DUP7 GAS STATICCALL ISZERO DUP1 ISZERO PUSH2 0x12DE JUMPI RETURNDATASIZE PUSH1 0x0 DUP1 RETURNDATACOPY RETURNDATASIZE PUSH1 0x0 REVERT JUMPDEST POP POP POP POP PUSH1 0x40 MLOAD RETURNDATASIZE PUSH1 0x1F NOT PUSH1 0x1F DUP3 ADD AND DUP3 ADD DUP1 PUSH1 0x40 MSTORE POP DUP2 ADD SWAP1 PUSH2 0x1302 SWAP2 SWAP1 PUSH2 0x164E JUMP JUMPDEST SWAP1 POP DUP7 DUP2 PUSH1 0x40 ADD MLOAD GT PUSH2 0x1317 JUMPI DUP2 SWAP5 POP PUSH2 0x1325 JUMP JUMPDEST PUSH2 0x1322 PUSH1 0x1 DUP4 PUSH2 0x163B JUMP JUMPDEST SWAP4 POP JUMPDEST POP POP PUSH1 0x1 ADD PUSH2 0x125F JUMP JUMPDEST POP SWAP1 SWAP5 SWAP4 POP POP POP POP JUMP JUMPDEST PUSH1 0x0 DUP2 DUP4 LT ISZERO PUSH2 0x1349 JUMPI DUP2 PUSH2 0x134B JUMP JUMPDEST DUP3 JUMPDEST SWAP4 SWAP3 POP POP POP JUMP JUMPDEST PUSH1 0x1 PUSH1 0x1 PUSH1 0xA0 SHL SUB DUP2 AND DUP2 EQ PUSH2 0x1367 JUMPI PUSH1 0x0 DUP1 REVERT JUMPDEST POP JUMP JUMPDEST PUSH1 0x0 PUSH1 0x20 DUP3 DUP5 SUB SLT ISZERO PUSH2 0x137C JUMPI PUSH1 0x0 DUP1 REVERT JUMPDEST DUP2 CALLDATALOAD PUSH2 0x134B DUP2 PUSH2 0x1352 JUMP JUMPDEST PUSH4 0x4E487B71 PUSH1 0xE0 SHL PUSH1 0x0 MSTORE PUSH1 0x41 PUSH1 0x4 MSTORE PUSH1 0x24 PUSH1 0x0 REVERT JUMPDEST PUSH1 0x40 MLOAD PUSH1 0x1F DUP3 ADD PUSH1 0x1F NOT AND DUP2 ADD PUSH8 0xFFFFFFFFFFFFFFFF DUP2 GT DUP3 DUP3 LT OR ISZERO PUSH2 0x13C6 JUMPI PUSH2 0x13C6 PUSH2 0x1387 JUMP JUMPDEST PUSH1 0x40 MSTORE SWAP2 SWAP1 POP JUMP JUMPDEST PUSH1 0x0 PUSH1 0x20 DUP3 DUP5 SUB SLT ISZERO PUSH2 0x13E0 JUMPI PUSH1 0x0 DUP1 REVERT JUMPDEST DUP2 CALLDATALOAD PUSH8 0xFFFFFFFFFFFFFFFF DUP2 GT ISZERO PUSH2 0x13F7 JUMPI PUSH1 0x0 DUP1 REVERT JUMPDEST DUP3 ADD PUSH1 0x1F DUP2 ADD DUP5 SGT PUSH2 0x1408 JUMPI PUSH1 0x0 DUP1 REVERT JUMPDEST DUP1 CALLDATALOAD PUSH8 0xFFFFFFFFFFFFFFFF DUP2 GT ISZERO PUSH2 0x1422 JUMPI PUSH2 0x1422 PUSH2 0x1387 JUMP JUMPDEST DUP1 PUSH1 0x5 SHL PUSH2 0x1432 PUSH1 0x20 DUP3 ADD PUSH2 0x139D JUMP JUMPDEST SWAP2 DUP3 MSTORE PUSH1 0x20 DUP2 DUP5 ADD DUP2 ADD SWAP3 SWAP1 DUP2 ADD SWAP1 DUP8 DUP5 GT ISZERO PUSH2 0x144E JUMPI PUSH1 0x0 DUP1 REVERT JUMPDEST PUSH1 0x20 DUP6 ADD SWAP5 POP JUMPDEST DUP4 DUP6 LT ISZERO PUSH2 0x1474 JUMPI DUP5 CALLDATALOAD DUP1 DUP4 MSTORE PUSH1 0x20 SWAP6 DUP7 ADD SWAP6 SWAP1 SWAP4 POP SWAP1 SWAP2 ADD SWAP1 PUSH2 0x1455 JUMP JUMPDEST SWAP8 SWAP7 POP POP POP POP POP POP POP JUMP JUMPDEST PUSH1 0x0 PUSH1 0x20 DUP3 DUP5 SUB SLT ISZERO PUSH2 0x1491 JUMPI PUSH1 0x0 DUP1 REVERT JUMPDEST POP CALLDATALOAD SWAP2 SWAP1 POP JUMP JUMPDEST PUSH1 0x1 PUSH1 0x1 PUSH1 0xA0 SHL SUB SWAP2 SWAP1 SWAP2 AND DUP2 MSTORE PUSH1 0x20 ADD SWAP1 JUMP JUMPDEST DUP1 ISZERO ISZERO DUP2 EQ PUSH2 0x1367 JUMPI PUSH1 0x0 DUP1 REVERT JUMPDEST PUSH1 0x0 PUSH1 0x20 DUP3 DUP5 SUB SLT ISZERO PUSH2 0x14CC JUMPI PUSH1 0x0 DUP1 REVERT JUMPDEST DUP2 CALLDATALOAD PUSH2 0x134B DUP2 PUSH2 0x14AC JUMP JUMPDEST PUSH4 0x4E487B71 PUSH1 0xE0 SHL PUSH1 0x0 MSTORE PUSH1 0x32 PUSH1 0x4 MSTORE PUSH1 0x24 PUSH1 0x0 REVERT JUMPDEST PUSH4 0x4E487B71 PUSH1 0xE0 SHL PUSH1 0x0 MSTORE PUSH1 0x1 PUSH1 0x4 MSTORE PUSH1 0x24 PUSH1 0x0 REVERT JUMPDEST PUSH4 0x4E487B71 PUSH1 0xE0 SHL PUSH1 0x0 MSTORE PUSH1 0x11 PUSH1 0x4 MSTORE PUSH1 0x24 PUSH1 0x0 REVERT JUMPDEST PUSH1 0x0 DUP3 PUSH2 0x1536 JUMPI PUSH4 0x4E487B71 PUSH1 0xE0 SHL PUSH1 0x0 MSTORE PUSH1 0x12 PUSH1 0x4 MSTORE PUSH1 0x24 PUSH1 0x0 REVERT JUMPDEST POP DIV SWAP1 JUMP JUMPDEST DUP1 DUP3 MUL DUP2 ISZERO DUP3 DUP3 DIV DUP5 EQ OR PUSH2 0x11E9 JUMPI PUSH2 0x11E9 PUSH2 0x1503 JUMP JUMPDEST DUP1 DUP3 ADD DUP1 DUP3 GT ISZERO PUSH2 0x11E9 JUMPI PUSH2 0x11E9 PUSH2 0x1503 JUMP JUMPDEST PUSH1 0x1 PUSH1 0x1 PUSH1 0xA0 SHL SUB SWAP3 SWAP1 SWAP3 AND DUP3 MSTORE PUSH1 0x20 DUP3 ADD MSTORE PUSH1 0x40 ADD SWAP1 JUMP JUMPDEST PUSH1 0x0 PUSH1 0x20 DUP3 DUP5 SUB SLT ISZERO PUSH2 0x1590 JUMPI PUSH1 0x0 DUP1 REVERT JUMPDEST DUP2 MLOAD PUSH2 0x134B DUP2 PUSH2 0x14AC JUMP JUMPDEST PUSH1 0x0 PUSH1 0x20 DUP3 DUP5 SUB SLT ISZERO PUSH2 0x15AD JUMPI PUSH1 0x0 DUP1 REVERT JUMPDEST POP MLOAD SWAP2 SWAP1 POP JUMP JUMPDEST PUSH1 0x0 PUSH1 0x20 DUP3 DUP5 SUB SLT ISZERO PUSH2 0x15C6 JUMPI PUSH1 0x0 DUP1 REVERT JUMPDEST DUP2 MLOAD PUSH2 0x134B DUP2 PUSH2 0x1352 JUMP JUMPDEST DUP1 MLOAD PUSH1 0xF DUP2 SWAP1 SIGNEXTEND DUP2 EQ PUSH2 0x41B JUMPI PUSH1 0x0 DUP1 REVERT JUMPDEST PUSH1 0x0 PUSH1 0x40 DUP3 DUP5 SUB SLT DUP1 ISZERO PUSH2 0x15F6 JUMPI PUSH1 0x0 DUP1 REVERT JUMPDEST POP PUSH1 0x40 DUP1 MLOAD SWAP1 DUP2 ADD PUSH8 0xFFFFFFFFFFFFFFFF DUP2 GT DUP3 DUP3 LT OR ISZERO PUSH2 0x161A JUMPI PUSH2 0x161A PUSH2 0x1387 JUMP JUMPDEST PUSH1 0x40 MSTORE PUSH2 0x1626 DUP4 PUSH2 0x15D1 JUMP JUMPDEST DUP2 MSTORE PUSH1 0x20 SWAP3 DUP4 ADD MLOAD SWAP3 DUP2 ADD SWAP3 SWAP1 SWAP3 MSTORE POP SWAP2 SWAP1 POP JUMP JUMPDEST DUP2 DUP2 SUB DUP2 DUP2 GT ISZERO PUSH2 0x11E9 JUMPI PUSH2 0x11E9 PUSH2 0x1503 JUMP JUMPDEST PUSH1 0x0 PUSH1 0x80 DUP3 DUP5 SUB SLT DUP1 ISZERO PUSH2 0x1661 JUMPI PUSH1 0x0 DUP1 REVERT JUMPDEST POP PUSH1 0x40 MLOAD PUSH1 0x80 DUP2 ADD PUSH8 0xFFFFFFFFFFFFFFFF DUP2 GT DUP3 DUP3 LT OR ISZERO PUSH2 0x1685 JUMPI PUSH2 0x1685 PUSH2 0x1387 JUMP JUMPDEST PUSH1 0x40 MSTORE PUSH2 0x1691 DUP4 PUSH2 0x15D1 JUMP JUMPDEST DUP2 MSTORE PUSH2 0x169F PUSH1 0x20 DUP5 ADD PUSH2 0x15D1 JUMP JUMPDEST PUSH1 0x20 DUP3 ADD MSTORE PUSH1 0x40 DUP4 DUP2 ADD MLOAD SWAP1 DUP3 ADD MSTORE PUSH1 0x60 SWAP3 DUP4 ADD MLOAD SWAP3 DUP2 ADD SWAP3 SWAP1 SWAP3 MSTORE POP SWAP2 SWAP1 POP JUMP JUMPDEST PUSH1 0x0 DUP3 PUSH1 0xF SIGNEXTEND DUP3 PUSH1 0xF SIGNEXTEND MUL DUP1 PUSH1 0xF SIGNEXTEND SWAP2 POP DUP1 DUP3 EQ PUSH2 0x16E1 JUMPI PUSH2 0x16E1 PUSH2 0x1503 JUMP JUMPDEST POP SWAP3 SWAP2 POP POP JUMP JUMPDEST PUSH1 0xF DUP3 DUP2 SIGNEXTEND SWAP1 DUP3 SWAP1 SIGNEXTEND SUB PUSH1 0x1 PUSH1 0x1 PUSH1 0x7F SHL SUB NOT DUP2 SLT PUSH1 0x1 PUSH1 0x1 PUSH1 0x7F SHL SUB DUP3 SGT OR ISZERO PUSH2 0x11E9 JUMPI PUSH2 0x11E9 PUSH2 0x1503 JUMP INVALID LOG2 PUSH5 0x6970667358 0x22 SLT KECCAK256 0xB4 BASEFEE 0xEC PUSH18 0xC3210FAB3B1D660154F98A100C72B2D0656E LOG2 SLT 0x4B CALLVALUE 0xD0 SWAP1 CALLVALUE 0xCA PUSH10 0x9064736F6C634300081C STOP CALLER "
        },
        "methodIdentifiers": {
          "_lockAddress(address)": "de42fa1e",
          "_unlockAddress(address)": "616174ce",
          "checkpoint_token()": "811a40fe",
          "checkpoint_total_supply()": "b21ed502",
          "claim(uint256)": "379607f5",
          "claim_many(uint256[])": "1f1db043",
          "claimable(uint256)": "d1d58b25",
          "depositor()": "c7c4ff46",
          "increaseOrRemoveAllowances(bool)": "dcbbab4f",
          "last_token_time()": "7f58e8f8",
          "last_week()": "ce2639a7",
          "lockAddress(address)": "34a90d02",
          "owner()": "8da5cb5b",
          "setDepositor(address)": "f2c098b7",
          "setOwner(address)": "13af4035",
          "start_time()": "834ee417",
          "time_cursor()": "127dcbd3",
          "time_cursor_of(uint256)": "486d25fe",
          "timestamp()": "b80777ea",
          "token()": "fc0c546a",
          "token_claimed()": "21f1e89d",
          "tokens_per_week(uint256)": "edf59997",
          "total_distributed()": "e8b8b73f",
          "ve_supply(uint256)": "d4dafba8",
          "voting_escrow()": "dfe05031",
          "withdrawERC20(address)": "f4f3b200"
        }
      },
      "storageLayout": {
        "storage": [
          {
            "astId": 10,
            "contract": "contracts/RewardsDistributorV2.sol:RewardsDistributorV2",
            "label": "_status",
            "offset": 0,
            "slot": "0",
            "type": "t_uint256"
          },
          {
            "astId": 99,
            "contract": "contracts/RewardsDistributorV2.sol:RewardsDistributorV2",
            "label": "start_time",
            "offset": 0,
            "slot": "1",
            "type": "t_uint256"
          },
          {
            "astId": 101,
            "contract": "contracts/RewardsDistributorV2.sol:RewardsDistributorV2",
            "label": "last_token_time",
            "offset": 0,
            "slot": "2",
            "type": "t_uint256"
          },
          {
            "astId": 103,
            "contract": "contracts/RewardsDistributorV2.sol:RewardsDistributorV2",
            "label": "last_week",
            "offset": 0,
            "slot": "3",
            "type": "t_uint256"
          },
          {
            "astId": 105,
            "contract": "contracts/RewardsDistributorV2.sol:RewardsDistributorV2",
            "label": "total_distributed",
            "offset": 0,
            "slot": "4",
            "type": "t_uint256"
          },
          {
            "astId": 107,
            "contract": "contracts/RewardsDistributorV2.sol:RewardsDistributorV2",
            "label": "token_claimed",
            "offset": 0,
            "slot": "5",
            "type": "t_uint256"
          },
          {
            "astId": 109,
            "contract": "contracts/RewardsDistributorV2.sol:RewardsDistributorV2",
            "label": "time_cursor",
            "offset": 0,
            "slot": "6",
            "type": "t_uint256"
          },
          {
            "astId": 113,
            "contract": "contracts/RewardsDistributorV2.sol:RewardsDistributorV2",
            "label": "tokens_per_week",
            "offset": 0,
            "slot": "7",
            "type": "t_array(t_uint256)1000000000000000_storage"
          },
          {
            "astId": 117,
            "contract": "contracts/RewardsDistributorV2.sol:RewardsDistributorV2",
            "label": "ve_supply",
            "offset": 0,
            "slot": "1000000000000007",
            "type": "t_array(t_uint256)1000000000000000_storage"
          },
          {
            "astId": 119,
            "contract": "contracts/RewardsDistributorV2.sol:RewardsDistributorV2",
            "label": "owner",
            "offset": 0,
            "slot": "2000000000000007",
            "type": "t_address"
          },
          {
            "astId": 121,
            "contract": "contracts/RewardsDistributorV2.sol:RewardsDistributorV2",
            "label": "voting_escrow",
            "offset": 0,
            "slot": "2000000000000008",
            "type": "t_address"
          },
          {
            "astId": 123,
            "contract": "contracts/RewardsDistributorV2.sol:RewardsDistributorV2",
            "label": "token",
            "offset": 0,
            "slot": "2000000000000009",
            "type": "t_address"
          },
          {
            "astId": 125,
            "contract": "contracts/RewardsDistributorV2.sol:RewardsDistributorV2",
            "label": "depositor",
            "offset": 0,
            "slot": "2000000000000010",
            "type": "t_address"
          },
          {
            "astId": 129,
            "contract": "contracts/RewardsDistributorV2.sol:RewardsDistributorV2",
            "label": "time_cursor_of",
            "offset": 0,
            "slot": "2000000000000011",
            "type": "t_mapping(t_uint256,t_uint256)"
          },
          {
            "astId": 133,
            "contract": "contracts/RewardsDistributorV2.sol:RewardsDistributorV2",
            "label": "lockAddress",
            "offset": 0,
            "slot": "2000000000000012",
            "type": "t_mapping(t_address,t_bool)"
          },
          {
            "astId": 137,
            "contract": "contracts/RewardsDistributorV2.sol:RewardsDistributorV2",
            "label": "time_to_block",
            "offset": 0,
            "slot": "2000000000000013",
            "type": "t_mapping(t_uint256,t_uint256)"
          }
        ],
        "types": {
          "t_address": {
            "encoding": "inplace",
            "label": "address",
            "numberOfBytes": "20"
          },
          "t_array(t_uint256)1000000000000000_storage": {
            "base": "t_uint256",
            "encoding": "inplace",
            "label": "uint256[1000000000000000]",
            "numberOfBytes": "32000000000000000"
          },
          "t_bool": {
            "encoding": "inplace",
            "label": "bool",
            "numberOfBytes": "1"
          },
          "t_mapping(t_address,t_bool)": {
            "encoding": "mapping",
            "key": "t_address",
            "label": "mapping(address => bool)",
            "numberOfBytes": "32",
            "value": "t_bool"
          },
          "t_mapping(t_uint256,t_uint256)": {
            "encoding": "mapping",
            "key": "t_uint256",
            "label": "mapping(uint256 => uint256)",
            "numberOfBytes": "32",
            "value": "t_uint256"
          },
          "t_uint256": {
            "encoding": "inplace",
            "label": "uint256",
            "numberOfBytes": "32"
          }
        }
      }
    }
  }
}