{
  "contracts/solidly/RouterV2.sol": {
    "RouterV2": {
      "abi": [
        {
          "inputs": [
            {
              "internalType": "address",
              "name": "_factory",
              "type": "address"
            },
            {
              "internalType": "address",
              "name": "_wETH",
              "type": "address"
            }
          ],
          "stateMutability": "nonpayable",
          "type": "constructor"
        },
        {
          "anonymous": false,
          "inputs": [
            {
              "indexed": true,
              "internalType": "address",
              "name": "sender",
              "type": "address"
            },
            {
              "indexed": false,
              "internalType": "uint256",
              "name": "amount0In",
              "type": "uint256"
            },
            {
              "indexed": false,
              "internalType": "address",
              "name": "_tokenIn",
              "type": "address"
            },
            {
              "indexed": true,
              "internalType": "address",
              "name": "to",
              "type": "address"
            },
            {
              "indexed": false,
              "internalType": "bool",
              "name": "stable",
              "type": "bool"
            }
          ],
          "name": "Swap",
          "type": "event"
        },
        {
          "inputs": [
            {
              "internalType": "uint256[]",
              "name": "amounts",
              "type": "uint256[]"
            },
            {
              "components": [
                {
                  "internalType": "address",
                  "name": "from",
                  "type": "address"
                },
                {
                  "internalType": "address",
                  "name": "to",
                  "type": "address"
                },
                {
                  "internalType": "bool",
                  "name": "stable",
                  "type": "bool"
                }
              ],
              "internalType": "struct RouterV2.route[]",
              "name": "routes",
              "type": "tuple[]"
            },
            {
              "internalType": "address",
              "name": "to",
              "type": "address"
            },
            {
              "internalType": "uint256",
              "name": "deadline",
              "type": "uint256"
            }
          ],
          "name": "UNSAFE_swapExactTokensForTokens",
          "outputs": [
            {
              "internalType": "uint256[]",
              "name": "",
              "type": "uint256[]"
            }
          ],
          "stateMutability": "nonpayable",
          "type": "function"
        },
        {
          "inputs": [
            {
              "internalType": "address",
              "name": "tokenA",
              "type": "address"
            },
            {
              "internalType": "address",
              "name": "tokenB",
              "type": "address"
            },
            {
              "internalType": "bool",
              "name": "stable",
              "type": "bool"
            },
            {
              "internalType": "uint256",
              "name": "amountADesired",
              "type": "uint256"
            },
            {
              "internalType": "uint256",
              "name": "amountBDesired",
              "type": "uint256"
            },
            {
              "internalType": "uint256",
              "name": "amountAMin",
              "type": "uint256"
            },
            {
              "internalType": "uint256",
              "name": "amountBMin",
              "type": "uint256"
            },
            {
              "internalType": "address",
              "name": "to",
              "type": "address"
            },
            {
              "internalType": "uint256",
              "name": "deadline",
              "type": "uint256"
            }
          ],
          "name": "addLiquidity",
          "outputs": [
            {
              "internalType": "uint256",
              "name": "amountA",
              "type": "uint256"
            },
            {
              "internalType": "uint256",
              "name": "amountB",
              "type": "uint256"
            },
            {
              "internalType": "uint256",
              "name": "liquidity",
              "type": "uint256"
            }
          ],
          "stateMutability": "nonpayable",
          "type": "function"
        },
        {
          "inputs": [
            {
              "internalType": "address",
              "name": "token",
              "type": "address"
            },
            {
              "internalType": "bool",
              "name": "stable",
              "type": "bool"
            },
            {
              "internalType": "uint256",
              "name": "amountTokenDesired",
              "type": "uint256"
            },
            {
              "internalType": "uint256",
              "name": "amountTokenMin",
              "type": "uint256"
            },
            {
              "internalType": "uint256",
              "name": "amountETHMin",
              "type": "uint256"
            },
            {
              "internalType": "address",
              "name": "to",
              "type": "address"
            },
            {
              "internalType": "uint256",
              "name": "deadline",
              "type": "uint256"
            }
          ],
          "name": "addLiquidityETH",
          "outputs": [
            {
              "internalType": "uint256",
              "name": "amountToken",
              "type": "uint256"
            },
            {
              "internalType": "uint256",
              "name": "amountETH",
              "type": "uint256"
            },
            {
              "internalType": "uint256",
              "name": "liquidity",
              "type": "uint256"
            }
          ],
          "stateMutability": "payable",
          "type": "function"
        },
        {
          "inputs": [],
          "name": "factory",
          "outputs": [
            {
              "internalType": "address",
              "name": "",
              "type": "address"
            }
          ],
          "stateMutability": "view",
          "type": "function"
        },
        {
          "inputs": [
            {
              "internalType": "uint256",
              "name": "amountIn",
              "type": "uint256"
            },
            {
              "internalType": "address",
              "name": "tokenIn",
              "type": "address"
            },
            {
              "internalType": "address",
              "name": "tokenOut",
              "type": "address"
            }
          ],
          "name": "getAmountOut",
          "outputs": [
            {
              "internalType": "uint256",
              "name": "amount",
              "type": "uint256"
            },
            {
              "internalType": "bool",
              "name": "stable",
              "type": "bool"
            }
          ],
          "stateMutability": "view",
          "type": "function"
        },
        {
          "inputs": [
            {
              "internalType": "uint256",
              "name": "amountIn",
              "type": "uint256"
            },
            {
              "components": [
                {
                  "internalType": "address",
                  "name": "from",
                  "type": "address"
                },
                {
                  "internalType": "address",
                  "name": "to",
                  "type": "address"
                },
                {
                  "internalType": "bool",
                  "name": "stable",
                  "type": "bool"
                }
              ],
              "internalType": "struct RouterV2.route[]",
              "name": "routes",
              "type": "tuple[]"
            }
          ],
          "name": "getAmountsOut",
          "outputs": [
            {
              "internalType": "uint256[]",
              "name": "amounts",
              "type": "uint256[]"
            }
          ],
          "stateMutability": "view",
          "type": "function"
        },
        {
          "inputs": [
            {
              "internalType": "address",
              "name": "tokenA",
              "type": "address"
            },
            {
              "internalType": "address",
              "name": "tokenB",
              "type": "address"
            },
            {
              "internalType": "bool",
              "name": "stable",
              "type": "bool"
            }
          ],
          "name": "getReserves",
          "outputs": [
            {
              "internalType": "uint256",
              "name": "reserveA",
              "type": "uint256"
            },
            {
              "internalType": "uint256",
              "name": "reserveB",
              "type": "uint256"
            }
          ],
          "stateMutability": "view",
          "type": "function"
        },
        {
          "inputs": [
            {
              "internalType": "address",
              "name": "pair",
              "type": "address"
            }
          ],
          "name": "isPair",
          "outputs": [
            {
              "internalType": "bool",
              "name": "",
              "type": "bool"
            }
          ],
          "stateMutability": "view",
          "type": "function"
        },
        {
          "inputs": [
            {
              "internalType": "address",
              "name": "tokenA",
              "type": "address"
            },
            {
              "internalType": "address",
              "name": "tokenB",
              "type": "address"
            },
            {
              "internalType": "bool",
              "name": "stable",
              "type": "bool"
            }
          ],
          "name": "pairFor",
          "outputs": [
            {
              "internalType": "address",
              "name": "pair",
              "type": "address"
            }
          ],
          "stateMutability": "view",
          "type": "function"
        },
        {
          "inputs": [
            {
              "internalType": "address",
              "name": "tokenA",
              "type": "address"
            },
            {
              "internalType": "address",
              "name": "tokenB",
              "type": "address"
            },
            {
              "internalType": "bool",
              "name": "stable",
              "type": "bool"
            },
            {
              "internalType": "uint256",
              "name": "amountADesired",
              "type": "uint256"
            },
            {
              "internalType": "uint256",
              "name": "amountBDesired",
              "type": "uint256"
            }
          ],
          "name": "quoteAddLiquidity",
          "outputs": [
            {
              "internalType": "uint256",
              "name": "amountA",
              "type": "uint256"
            },
            {
              "internalType": "uint256",
              "name": "amountB",
              "type": "uint256"
            },
            {
              "internalType": "uint256",
              "name": "liquidity",
              "type": "uint256"
            }
          ],
          "stateMutability": "view",
          "type": "function"
        },
        {
          "inputs": [
            {
              "internalType": "address",
              "name": "tokenA",
              "type": "address"
            },
            {
              "internalType": "address",
              "name": "tokenB",
              "type": "address"
            },
            {
              "internalType": "bool",
              "name": "stable",
              "type": "bool"
            },
            {
              "internalType": "uint256",
              "name": "liquidity",
              "type": "uint256"
            }
          ],
          "name": "quoteRemoveLiquidity",
          "outputs": [
            {
              "internalType": "uint256",
              "name": "amountA",
              "type": "uint256"
            },
            {
              "internalType": "uint256",
              "name": "amountB",
              "type": "uint256"
            }
          ],
          "stateMutability": "view",
          "type": "function"
        },
        {
          "inputs": [
            {
              "internalType": "address",
              "name": "tokenA",
              "type": "address"
            },
            {
              "internalType": "address",
              "name": "tokenB",
              "type": "address"
            },
            {
              "internalType": "bool",
              "name": "stable",
              "type": "bool"
            },
            {
              "internalType": "uint256",
              "name": "liquidity",
              "type": "uint256"
            },
            {
              "internalType": "uint256",
              "name": "amountAMin",
              "type": "uint256"
            },
            {
              "internalType": "uint256",
              "name": "amountBMin",
              "type": "uint256"
            },
            {
              "internalType": "address",
              "name": "to",
              "type": "address"
            },
            {
              "internalType": "uint256",
              "name": "deadline",
              "type": "uint256"
            }
          ],
          "name": "removeLiquidity",
          "outputs": [
            {
              "internalType": "uint256",
              "name": "amountA",
              "type": "uint256"
            },
            {
              "internalType": "uint256",
              "name": "amountB",
              "type": "uint256"
            }
          ],
          "stateMutability": "nonpayable",
          "type": "function"
        },
        {
          "inputs": [
            {
              "internalType": "address",
              "name": "token",
              "type": "address"
            },
            {
              "internalType": "bool",
              "name": "stable",
              "type": "bool"
            },
            {
              "internalType": "uint256",
              "name": "liquidity",
              "type": "uint256"
            },
            {
              "internalType": "uint256",
              "name": "amountTokenMin",
              "type": "uint256"
            },
            {
              "internalType": "uint256",
              "name": "amountETHMin",
              "type": "uint256"
            },
            {
              "internalType": "address",
              "name": "to",
              "type": "address"
            },
            {
              "internalType": "uint256",
              "name": "deadline",
              "type": "uint256"
            }
          ],
          "name": "removeLiquidityETH",
          "outputs": [
            {
              "internalType": "uint256",
              "name": "amountToken",
              "type": "uint256"
            },
            {
              "internalType": "uint256",
              "name": "amountETH",
              "type": "uint256"
            }
          ],
          "stateMutability": "nonpayable",
          "type": "function"
        },
        {
          "inputs": [
            {
              "internalType": "address",
              "name": "token",
              "type": "address"
            },
            {
              "internalType": "bool",
              "name": "stable",
              "type": "bool"
            },
            {
              "internalType": "uint256",
              "name": "liquidity",
              "type": "uint256"
            },
            {
              "internalType": "uint256",
              "name": "amountTokenMin",
              "type": "uint256"
            },
            {
              "internalType": "uint256",
              "name": "amountETHMin",
              "type": "uint256"
            },
            {
              "internalType": "address",
              "name": "to",
              "type": "address"
            },
            {
              "internalType": "uint256",
              "name": "deadline",
              "type": "uint256"
            }
          ],
          "name": "removeLiquidityETHSupportingFeeOnTransferTokens",
          "outputs": [
            {
              "internalType": "uint256",
              "name": "amountToken",
              "type": "uint256"
            },
            {
              "internalType": "uint256",
              "name": "amountETH",
              "type": "uint256"
            }
          ],
          "stateMutability": "nonpayable",
          "type": "function"
        },
        {
          "inputs": [
            {
              "internalType": "address",
              "name": "token",
              "type": "address"
            },
            {
              "internalType": "bool",
              "name": "stable",
              "type": "bool"
            },
            {
              "internalType": "uint256",
              "name": "liquidity",
              "type": "uint256"
            },
            {
              "internalType": "uint256",
              "name": "amountTokenMin",
              "type": "uint256"
            },
            {
              "internalType": "uint256",
              "name": "amountETHMin",
              "type": "uint256"
            },
            {
              "internalType": "address",
              "name": "to",
              "type": "address"
            },
            {
              "internalType": "uint256",
              "name": "deadline",
              "type": "uint256"
            },
            {
              "internalType": "bool",
              "name": "approveMax",
              "type": "bool"
            },
            {
              "internalType": "uint8",
              "name": "v",
              "type": "uint8"
            },
            {
              "internalType": "bytes32",
              "name": "r",
              "type": "bytes32"
            },
            {
              "internalType": "bytes32",
              "name": "s",
              "type": "bytes32"
            }
          ],
          "name": "removeLiquidityETHWithPermit",
          "outputs": [
            {
              "internalType": "uint256",
              "name": "amountToken",
              "type": "uint256"
            },
            {
              "internalType": "uint256",
              "name": "amountETH",
              "type": "uint256"
            }
          ],
          "stateMutability": "nonpayable",
          "type": "function"
        },
        {
          "inputs": [
            {
              "internalType": "address",
              "name": "token",
              "type": "address"
            },
            {
              "internalType": "bool",
              "name": "stable",
              "type": "bool"
            },
            {
              "internalType": "uint256",
              "name": "liquidity",
              "type": "uint256"
            },
            {
              "internalType": "uint256",
              "name": "amountTokenMin",
              "type": "uint256"
            },
            {
              "internalType": "uint256",
              "name": "amountETHMin",
              "type": "uint256"
            },
            {
              "internalType": "address",
              "name": "to",
              "type": "address"
            },
            {
              "internalType": "uint256",
              "name": "deadline",
              "type": "uint256"
            },
            {
              "internalType": "bool",
              "name": "approveMax",
              "type": "bool"
            },
            {
              "internalType": "uint8",
              "name": "v",
              "type": "uint8"
            },
            {
              "internalType": "bytes32",
              "name": "r",
              "type": "bytes32"
            },
            {
              "internalType": "bytes32",
              "name": "s",
              "type": "bytes32"
            }
          ],
          "name": "removeLiquidityETHWithPermitSupportingFeeOnTransferTokens",
          "outputs": [
            {
              "internalType": "uint256",
              "name": "amountToken",
              "type": "uint256"
            },
            {
              "internalType": "uint256",
              "name": "amountETH",
              "type": "uint256"
            }
          ],
          "stateMutability": "nonpayable",
          "type": "function"
        },
        {
          "inputs": [
            {
              "internalType": "address",
              "name": "tokenA",
              "type": "address"
            },
            {
              "internalType": "address",
              "name": "tokenB",
              "type": "address"
            },
            {
              "internalType": "bool",
              "name": "stable",
              "type": "bool"
            },
            {
              "internalType": "uint256",
              "name": "liquidity",
              "type": "uint256"
            },
            {
              "internalType": "uint256",
              "name": "amountAMin",
              "type": "uint256"
            },
            {
              "internalType": "uint256",
              "name": "amountBMin",
              "type": "uint256"
            },
            {
              "internalType": "address",
              "name": "to",
              "type": "address"
            },
            {
              "internalType": "uint256",
              "name": "deadline",
              "type": "uint256"
            },
            {
              "internalType": "bool",
              "name": "approveMax",
              "type": "bool"
            },
            {
              "internalType": "uint8",
              "name": "v",
              "type": "uint8"
            },
            {
              "internalType": "bytes32",
              "name": "r",
              "type": "bytes32"
            },
            {
              "internalType": "bytes32",
              "name": "s",
              "type": "bytes32"
            }
          ],
          "name": "removeLiquidityWithPermit",
          "outputs": [
            {
              "internalType": "uint256",
              "name": "amountA",
              "type": "uint256"
            },
            {
              "internalType": "uint256",
              "name": "amountB",
              "type": "uint256"
            }
          ],
          "stateMutability": "nonpayable",
          "type": "function"
        },
        {
          "inputs": [
            {
              "internalType": "address",
              "name": "tokenA",
              "type": "address"
            },
            {
              "internalType": "address",
              "name": "tokenB",
              "type": "address"
            }
          ],
          "name": "sortTokens",
          "outputs": [
            {
              "internalType": "address",
              "name": "token0",
              "type": "address"
            },
            {
              "internalType": "address",
              "name": "token1",
              "type": "address"
            }
          ],
          "stateMutability": "pure",
          "type": "function"
        },
        {
          "inputs": [
            {
              "internalType": "uint256",
              "name": "amountOutMin",
              "type": "uint256"
            },
            {
              "components": [
                {
                  "internalType": "address",
                  "name": "from",
                  "type": "address"
                },
                {
                  "internalType": "address",
                  "name": "to",
                  "type": "address"
                },
                {
                  "internalType": "bool",
                  "name": "stable",
                  "type": "bool"
                }
              ],
              "internalType": "struct RouterV2.route[]",
              "name": "routes",
              "type": "tuple[]"
            },
            {
              "internalType": "address",
              "name": "to",
              "type": "address"
            },
            {
              "internalType": "uint256",
              "name": "deadline",
              "type": "uint256"
            }
          ],
          "name": "swapExactETHForTokens",
          "outputs": [
            {
              "internalType": "uint256[]",
              "name": "amounts",
              "type": "uint256[]"
            }
          ],
          "stateMutability": "payable",
          "type": "function"
        },
        {
          "inputs": [
            {
              "internalType": "uint256",
              "name": "amountOutMin",
              "type": "uint256"
            },
            {
              "components": [
                {
                  "internalType": "address",
                  "name": "from",
                  "type": "address"
                },
                {
                  "internalType": "address",
                  "name": "to",
                  "type": "address"
                },
                {
                  "internalType": "bool",
                  "name": "stable",
                  "type": "bool"
                }
              ],
              "internalType": "struct RouterV2.route[]",
              "name": "routes",
              "type": "tuple[]"
            },
            {
              "internalType": "address",
              "name": "to",
              "type": "address"
            },
            {
              "internalType": "uint256",
              "name": "deadline",
              "type": "uint256"
            }
          ],
          "name": "swapExactETHForTokensSupportingFeeOnTransferTokens",
          "outputs": [],
          "stateMutability": "payable",
          "type": "function"
        },
        {
          "inputs": [
            {
              "internalType": "uint256",
              "name": "amountIn",
              "type": "uint256"
            },
            {
              "internalType": "uint256",
              "name": "amountOutMin",
              "type": "uint256"
            },
            {
              "components": [
                {
                  "internalType": "address",
                  "name": "from",
                  "type": "address"
                },
                {
                  "internalType": "address",
                  "name": "to",
                  "type": "address"
                },
                {
                  "internalType": "bool",
                  "name": "stable",
                  "type": "bool"
                }
              ],
              "internalType": "struct RouterV2.route[]",
              "name": "routes",
              "type": "tuple[]"
            },
            {
              "internalType": "address",
              "name": "to",
              "type": "address"
            },
            {
              "internalType": "uint256",
              "name": "deadline",
              "type": "uint256"
            }
          ],
          "name": "swapExactTokensForETH",
          "outputs": [
            {
              "internalType": "uint256[]",
              "name": "amounts",
              "type": "uint256[]"
            }
          ],
          "stateMutability": "nonpayable",
          "type": "function"
        },
        {
          "inputs": [
            {
              "internalType": "uint256",
              "name": "amountIn",
              "type": "uint256"
            },
            {
              "internalType": "uint256",
              "name": "amountOutMin",
              "type": "uint256"
            },
            {
              "components": [
                {
                  "internalType": "address",
                  "name": "from",
                  "type": "address"
                },
                {
                  "internalType": "address",
                  "name": "to",
                  "type": "address"
                },
                {
                  "internalType": "bool",
                  "name": "stable",
                  "type": "bool"
                }
              ],
              "internalType": "struct RouterV2.route[]",
              "name": "routes",
              "type": "tuple[]"
            },
            {
              "internalType": "address",
              "name": "to",
              "type": "address"
            },
            {
              "internalType": "uint256",
              "name": "deadline",
              "type": "uint256"
            }
          ],
          "name": "swapExactTokensForETHSupportingFeeOnTransferTokens",
          "outputs": [],
          "stateMutability": "nonpayable",
          "type": "function"
        },
        {
          "inputs": [
            {
              "internalType": "uint256",
              "name": "amountIn",
              "type": "uint256"
            },
            {
              "internalType": "uint256",
              "name": "amountOutMin",
              "type": "uint256"
            },
            {
              "components": [
                {
                  "internalType": "address",
                  "name": "from",
                  "type": "address"
                },
                {
                  "internalType": "address",
                  "name": "to",
                  "type": "address"
                },
                {
                  "internalType": "bool",
                  "name": "stable",
                  "type": "bool"
                }
              ],
              "internalType": "struct RouterV2.route[]",
              "name": "routes",
              "type": "tuple[]"
            },
            {
              "internalType": "address",
              "name": "to",
              "type": "address"
            },
            {
              "internalType": "uint256",
              "name": "deadline",
              "type": "uint256"
            }
          ],
          "name": "swapExactTokensForTokens",
          "outputs": [
            {
              "internalType": "uint256[]",
              "name": "amounts",
              "type": "uint256[]"
            }
          ],
          "stateMutability": "nonpayable",
          "type": "function"
        },
        {
          "inputs": [
            {
              "internalType": "uint256",
              "name": "amountIn",
              "type": "uint256"
            },
            {
              "internalType": "uint256",
              "name": "amountOutMin",
              "type": "uint256"
            },
            {
              "internalType": "address",
              "name": "tokenFrom",
              "type": "address"
            },
            {
              "internalType": "address",
              "name": "tokenTo",
              "type": "address"
            },
            {
              "internalType": "bool",
              "name": "stable",
              "type": "bool"
            },
            {
              "internalType": "address",
              "name": "to",
              "type": "address"
            },
            {
              "internalType": "uint256",
              "name": "deadline",
              "type": "uint256"
            }
          ],
          "name": "swapExactTokensForTokensSimple",
          "outputs": [
            {
              "internalType": "uint256[]",
              "name": "amounts",
              "type": "uint256[]"
            }
          ],
          "stateMutability": "nonpayable",
          "type": "function"
        },
        {
          "inputs": [
            {
              "internalType": "uint256",
              "name": "amountIn",
              "type": "uint256"
            },
            {
              "internalType": "uint256",
              "name": "amountOutMin",
              "type": "uint256"
            },
            {
              "components": [
                {
                  "internalType": "address",
                  "name": "from",
                  "type": "address"
                },
                {
                  "internalType": "address",
                  "name": "to",
                  "type": "address"
                },
                {
                  "internalType": "bool",
                  "name": "stable",
                  "type": "bool"
                }
              ],
              "internalType": "struct RouterV2.route[]",
              "name": "routes",
              "type": "tuple[]"
            },
            {
              "internalType": "address",
              "name": "to",
              "type": "address"
            },
            {
              "internalType": "uint256",
              "name": "deadline",
              "type": "uint256"
            }
          ],
          "name": "swapExactTokensForTokensSupportingFeeOnTransferTokens",
          "outputs": [],
          "stateMutability": "nonpayable",
          "type": "function"
        },
        {
          "inputs": [],
          "name": "wETH",
          "outputs": [
            {
              "internalType": "contract IWETH",
              "name": "",
              "type": "address"
            }
          ],
          "stateMutability": "view",
          "type": "function"
        },
        {
          "stateMutability": "payable",
          "type": "receive"
        }
      ],
      "evm": {
        "bytecode": {
          "linkReferences": {},
          "object": "60e060405234801561001057600080fd5b506040516147fb3803806147fb83398101604081905261002f916100ce565b6001600160a01b038216608081905260408051631355724960e31b81529051639aab9248916004808201926020929091908290030181865afa158015610079573d6000803e3d6000fd5b505050506040513d601f19601f8201168201806040525081019061009d9190610101565b60c0526001600160a01b031660a0525061011a565b80516001600160a01b03811681146100c957600080fd5b919050565b600080604083850312156100e157600080fd5b6100ea836100b2565b91506100f8602084016100b2565b90509250929050565b60006020828403121561011357600080fd5b5051919050565b60805160a05160c0516145e061021b6000396000610f500152600081816101750152818161051c0152818161097501528181610bb401528181610e05015281816114e5015281816115f80152818161168601528181611af001528181611b6e01528181611be201528181611dd001528181611e8501528181611f33015281816124ee0152818161252401528181612559015281816125df0152818161272d0152818161277d015281816128030152612a9c01526000818161047801528181610c9a01528181610f15015281816111bf015281816112e7015281816120ae0152818161220f015281816128d10152818161303601526130d701526145e06000f3fe6080604052600436106101655760003560e01c806376c72751116100c1578063c45a01551161007a578063c45a015514610466578063d7b0e0a51461049a578063e2d9d4dc146104ba578063e5e31b13146104da578063f24286211461050a578063f41766d81461053e578063fe411f141461055e57600080fd5b806376c72751146103c05780637af728c8146103d35780639881fcb4146103f357806398a0fb3c14610413578063a32b1fcd14610433578063b7e0d4c01461045357600080fd5b8063544caa561161011e578063544caa561461029d5780635a47ddc3146102dd5780635e1e6325146103185780635e60dab51461034d57806367ffb66a1461036d5780636cc1ae13146103805780637301e3c8146103a057600080fd5b80630dede6c4146101a957806313dcfc59146101e357806318a13086146102105780634386e63c14610230578063448725b4146102505780634c1ee03e1461027057600080fd5b366101a457336001600160a01b037f000000000000000000000000000000000000000000000000000000000000000016146101a2576101a261386e565b005b600080fd5b3480156101b557600080fd5b506101c96101c43660046138b5565b61057e565b604080519283526020830191909152015b60405180910390f35b3480156101ef57600080fd5b506102036101fe36600461393a565b610735565b6040516101da91906139b6565b34801561021c57600080fd5b5061020361022b366004613a3d565b610948565b34801561023c57600080fd5b506101c961024b366004613aaf565b610c93565b34801561025c57600080fd5b506101c961026b366004613b11565b610dfa565b34801561027c57600080fd5b5061029061028b366004613bc0565b610ed3565b6040516101da9190613c0b565b3480156102a957600080fd5b506102bd6102b8366004613c1f565b610fd1565b604080516001600160a01b039384168152929091166020830152016101da565b3480156102e957600080fd5b506102fd6102f8366004613c58565b6110c4565b604080519384526020840192909252908201526060016101da565b34801561032457600080fd5b50610338610333366004613ce8565b6111a7565b604080519283529015156020830152016101da565b34801561035957600080fd5b506101c9610368366004613bc0565b6113f6565b61020361037b366004613d1f565b6114c0565b34801561038c57600080fd5b506101a261039b366004613a3d565b61180b565b3480156103ac57600080fd5b506102036103bb366004613dee565b6119f7565b6101a26103ce366004613d1f565b611acd565b3480156103df57600080fd5b506101a26103ee366004613a3d565b611da5565b3480156103ff57600080fd5b5061020361040e366004613f36565b611fa1565b34801561041f57600080fd5b506102fd61042e366004613fe1565b612207565b34801561043f57600080fd5b506101c961044e36600461403c565b612407565b6102fd6104613660046140fd565b6124c2565b34801561047257600080fd5b506102907f000000000000000000000000000000000000000000000000000000000000000081565b3480156104a657600080fd5b506101c96104b53660046140fd565b612703565b3480156104c657600080fd5b506101c96104d5366004613b11565b6127f8565b3480156104e657600080fd5b506104fa6104f5366004614158565b6128b7565b60405190151581526020016101da565b34801561051657600080fd5b506102907f000000000000000000000000000000000000000000000000000000000000000081565b34801561054a57600080fd5b50610203610559366004613a3d565b61294d565b34801561056a57600080fd5b506101c96105793660046140fd565b612a72565b60008082428110156105ab5760405162461bcd60e51b81526004016105a290614175565b60405180910390fd5b60006105b88c8c8c610ed3565b6040516323b872dd60e01b81529091506001600160a01b038216906323b872dd906105eb90339085908e906004016141a4565b6020604051808303816000875af115801561060a573d6000803e3d6000fd5b505050506040513d601f19601f8201168201806040525081019061062e91906141c8565b61063757600080fd5b600080826001600160a01b03166389afcb44896040518263ffffffff1660e01b81526004016106669190613c0b565b60408051808303816000875af1158015610684573d6000803e3d6000fd5b505050506040513d601f19601f820116820180604052508101906106a891906141e5565b9150915060006106b88f8f610fd1565b509050806001600160a01b03168f6001600160a01b0316146106db5781836106de565b82825b90975095508a8710156107035760405162461bcd60e51b81526004016105a290614209565b898610156107235760405162461bcd60e51b81526004016105a29061424c565b50505050509850989650505050505050565b606081428110156107585760405162461bcd60e51b81526004016105a290614175565b604080516001808252818301909252600091816020015b604080516060810182526000808252602080830182905292820152825260001990920191018161076f57905050905087816000815181106107b2576107b261428f565b6020026020010151600001906001600160a01b031690816001600160a01b03168152505086816000815181106107ea576107ea61428f565b6020026020010151602001906001600160a01b031690816001600160a01b03168152505085816000815181106108225761082261428f565b60209081029190910101519015156040909101526108408a82611fa1565b925088836001855161085291906142bb565b815181106108625761086261428f565b602002602001015110156108885760405162461bcd60e51b81526004016105a2906142ce565b6109308160008151811061089e5761089e61428f565b60200260200101516000015133610910846000815181106108c1576108c161428f565b602002602001015160000151856000815181106108e0576108e061428f565b602002602001015160200151866000815181106108ff576108ff61428f565b602002602001015160400151610ed3565b866000815181106109235761092361428f565b6020026020010151612b45565b61093b838287612c41565b5050979650505050505050565b6060814281101561096b5760405162461bcd60e51b81526004016105a290614175565b6001600160a01b037f00000000000000000000000000000000000000000000000000000000000000001686866109a26001826142bb565b8181106109b1576109b161428f565b90506060020160200160208101906109c99190614158565b6001600160a01b0316146109ef5760405162461bcd60e51b81526004016105a290614316565b610a4b888787808060200260200160405190810160405280939291908181526020016000905b82821015610a4157610a326060830286013681900381019061434d565b81526020019060010190610a15565b5050505050611fa1565b9150868260018451610a5d91906142bb565b81518110610a6d57610a6d61428f565b60200260200101511015610a935760405162461bcd60e51b81526004016105a2906142ce565b610b5586866000818110610aa957610aa961428f565b610abf9260206060909202019081019150614158565b33610b4289896000818110610ad657610ad661428f565b610aec9260206060909202019081019150614158565b8a8a6000818110610aff57610aff61428f565b9050606002016020016020810190610b179190614158565b8b8b6000818110610b2a57610b2a61428f565b905060600201604001602081019061028b9190614369565b856000815181106109235761092361428f565b610bb2828787808060200260200160405190810160405280939291908181526020016000905b82821015610ba757610b986060830286013681900381019061434d565b81526020019060010190610b7b565b505050505030612c41565b7f00000000000000000000000000000000000000000000000000000000000000006001600160a01b0316632e1a7d4d8360018551610bf091906142bb565b81518110610c0057610c0061428f565b60200260200101516040518263ffffffff1660e01b8152600401610c2691815260200190565b600060405180830381600087803b158015610c4057600080fd5b505af1158015610c54573d6000803e3d6000fd5b50505050610c88848360018551610c6b91906142bb565b81518110610c7b57610c7b61428f565b6020026020010151612f31565b509695505050505050565b60008060007f00000000000000000000000000000000000000000000000000000000000000006001600160a01b0316636801cc308888886040518463ffffffff1660e01b8152600401610ce893929190614386565b602060405180830381865afa158015610d05573d6000803e3d6000fd5b505050506040513d601f19601f82011682018060405250810190610d2991906143aa565b90506001600160a01b038116610d46576000809250925050610df1565b600080610d548989896113f6565b915091506000836001600160a01b03166318160ddd6040518163ffffffff1660e01b8152600401602060405180830381865afa158015610d98573d6000803e3d6000fd5b505050506040513d601f19601f82011682018060405250810190610dbc91906143c7565b905080610dc984896143e0565b610dd391906143f7565b955080610de083896143e0565b610dea91906143f7565b9450505050505b94509492505050565b6000806000610e2a8e7f00000000000000000000000000000000000000000000000000000000000000008f610ed3565b9050600087610e39578c610e3d565b6000195b60405163d505accf60e01b81529091506001600160a01b0383169063d505accf90610e78903390309086908f908e908e908e90600401614419565b600060405180830381600087803b158015610e9257600080fd5b505af1158015610ea6573d6000803e3d6000fd5b50505050610eb98f8f8f8f8f8f8f612703565b809450819550505050509b509b9950505050505050505050565b6000806000610ee28686610fd1565b6040516001600160601b0319606084811b8216602084015283901b16603482015286151560f81b604882015291935091507f000000000000000000000000000000000000000000000000000000000000000090604901604051602081830303815290604052805190602001207f0000000000000000000000000000000000000000000000000000000000000000604051602001610faf939291906001600160f81b0319815260609390931b6001600160601b03191660018401526015830191909152603582015260550190565b60408051601f1981840301815291905280516020909101209695505050505050565b600080826001600160a01b0316846001600160a01b03160361103f5760405162461bcd60e51b815260206004820152602160248201527f426173655631526f757465723a204944454e544943414c5f41444452455353456044820152605360f81b60648201526084016105a2565b826001600160a01b0316846001600160a01b03161061105f578284611062565b83835b90925090506001600160a01b0382166110bd5760405162461bcd60e51b815260206004820152601a60248201527f426173655631526f757465723a205a45524f5f4144445245535300000000000060448201526064016105a2565b9250929050565b600080600083428110156110ea5760405162461bcd60e51b81526004016105a290614175565b6110f98d8d8d8d8d8d8d612fff565b9094509250600061110b8e8e8e610ed3565b90506111198e338388612b45565b6111258d338387612b45565b6040516335313c2160e11b81526001600160a01b03821690636a62784290611151908a90600401613c0b565b6020604051808303816000875af1158015611170573d6000803e3d6000fd5b505050506040513d601f19601f8201168201806040525081019061119491906143c7565b9250505099509950999650505050505050565b60008060006111b885856001610ed3565b90506000807f00000000000000000000000000000000000000000000000000000000000000006001600160a01b031663e5e31b13846040518263ffffffff1660e01b81526004016112099190613c0b565b602060405180830381865afa158015611226573d6000803e3d6000fd5b505050506040513d601f19601f8201168201806040525081019061124a91906141c8565b156112c1576040516378a051ad60e11b81526001600160a01b0384169063f140a35a9061127d908b908b9060040161445a565b602060405180830381865afa15801561129a573d6000803e3d6000fd5b505050506040513d601f19601f820116820180604052508101906112be91906143c7565b91505b6112cd87876000610ed3565b60405163e5e31b1360e01b81529093506001600160a01b037f0000000000000000000000000000000000000000000000000000000000000000169063e5e31b139061131c908690600401613c0b565b602060405180830381865afa158015611339573d6000803e3d6000fd5b505050506040513d601f19601f8201168201806040525081019061135d91906141c8565b156113d4576040516378a051ad60e11b81526001600160a01b0384169063f140a35a90611390908b908b9060040161445a565b602060405180830381865afa1580156113ad573d6000803e3d6000fd5b505050506040513d601f19601f820116820180604052508101906113d191906143c7565b90505b8082116113e3578060006113e7565b8160015b94509450505050935093915050565b60008060006114058686610fd1565b509050600080611416888888610ed3565b6001600160a01b0316630902f1ac6040518163ffffffff1660e01b8152600401606060405180830381865afa158015611453573d6000803e3d6000fd5b505050506040513d601f19601f820116820180604052508101906114779190614488565b506001600160701b031691506001600160701b03169150826001600160a01b0316886001600160a01b0316146114ae5780826114b1565b81815b90999098509650505050505050565b606081428110156114e35760405162461bcd60e51b81526004016105a290614175565b7f00000000000000000000000000000000000000000000000000000000000000006001600160a01b0316868660008181106115205761152061428f565b6115369260206060909202019081019150614158565b6001600160a01b03161461155c5760405162461bcd60e51b81526004016105a290614316565b6115ae348787808060200260200160405190810160405280939291908181526020016000905b82821015610a415761159f6060830286013681900381019061434d565b81526020019060010190611582565b91508682600184516115c091906142bb565b815181106115d0576115d061428f565b602002602001015110156115f65760405162461bcd60e51b81526004016105a2906142ce565b7f00000000000000000000000000000000000000000000000000000000000000006001600160a01b031663d0e30db0836000815181106116385761163861428f565b60200260200101516040518263ffffffff1660e01b81526004016000604051808303818588803b15801561166b57600080fd5b505af115801561167f573d6000803e3d6000fd5b50505050507f00000000000000000000000000000000000000000000000000000000000000006001600160a01b031663a9059cbb61171d888860008181106116c9576116c961428f565b6116df9260206060909202019081019150614158565b898960008181106116f2576116f261428f565b905060600201602001602081019061170a9190614158565b8a8a6000818110610b2a57610b2a61428f565b846000815181106117305761173061428f565b60200260200101516040518363ffffffff1660e01b81526004016117559291906144cd565b6020604051808303816000875af1158015611774573d6000803e3d6000fd5b505050506040513d601f19601f8201168201806040525081019061179891906141c8565b6117a4576117a461386e565b611801828787808060200260200160405190810160405280939291908181526020016000905b828210156117f6576117e76060830286013681900381019061434d565b815260200190600101906117ca565b505050505086612c41565b5095945050505050565b804281101561182c5760405162461bcd60e51b81526004016105a290614175565b611875858560008181106118425761184261428f565b6118589260206060909202019081019150614158565b3361186f888860008181106116c9576116c961428f565b8a612b45565b600085856118846001826142bb565b8181106118935761189361428f565b90506060020160200160208101906118ab9190614158565b6001600160a01b03166370a08231856040518263ffffffff1660e01b81526004016118d69190613c0b565b602060405180830381865afa1580156118f3573d6000803e3d6000fd5b505050506040513d601f19601f8201168201806040525081019061191791906143c7565b905061192486868661321d565b866119cf8288886119366001826142bb565b8181106119455761194561428f565b905060600201602001602081019061195d9190614158565b6001600160a01b03166370a08231886040518263ffffffff1660e01b81526004016119889190613c0b565b602060405180830381865afa1580156119a5573d6000803e3d6000fd5b505050506040513d601f19601f820116820180604052508101906119c991906143c7565b906135b9565b10156119ed5760405162461bcd60e51b81526004016105a2906142ce565b5050505050505050565b60608142811015611a1a5760405162461bcd60e51b81526004016105a290614175565b611a7086866000818110611a3057611a3061428f565b611a469260206060909202019081019150614158565b33611a5d89896000818110610ad657610ad661428f565b8a6000815181106109235761092361428f565b611ac2878787808060200260200160405190810160405280939291908181526020016000905b828210156117f657611ab36060830286013681900381019061434d565b81526020019060010190611a96565b509495945050505050565b8042811015611aee5760405162461bcd60e51b81526004016105a290614175565b7f00000000000000000000000000000000000000000000000000000000000000006001600160a01b031685856000818110611b2b57611b2b61428f565b611b419260206060909202019081019150614158565b6001600160a01b031614611b675760405162461bcd60e51b81526004016105a290614316565b60003490507f00000000000000000000000000000000000000000000000000000000000000006001600160a01b031663d0e30db0826040518263ffffffff1660e01b81526004016000604051808303818588803b158015611bc757600080fd5b505af1158015611bdb573d6000803e3d6000fd5b50505050507f00000000000000000000000000000000000000000000000000000000000000006001600160a01b031663a9059cbb611c25888860008181106116c9576116c961428f565b836040518363ffffffff1660e01b8152600401611c439291906144cd565b6020604051808303816000875af1158015611c62573d6000803e3d6000fd5b505050506040513d601f19601f82011682018060405250810190611c8691906141c8565b611c9257611c9261386e565b60008686611ca16001826142bb565b818110611cb057611cb061428f565b9050606002016020016020810190611cc89190614158565b6001600160a01b03166370a08231866040518263ffffffff1660e01b8152600401611cf39190613c0b565b602060405180830381865afa158015611d10573d6000803e3d6000fd5b505050506040513d601f19601f82011682018060405250810190611d3491906143c7565b9050611d4187878761321d565b876119cf828989611d536001826142bb565b818110611d6257611d6261428f565b9050606002016020016020810190611d7a9190614158565b6001600160a01b03166370a08231896040518263ffffffff1660e01b81526004016119889190613c0b565b8042811015611dc65760405162461bcd60e51b81526004016105a290614175565b6001600160a01b037f0000000000000000000000000000000000000000000000000000000000000000168585611dfd6001826142bb565b818110611e0c57611e0c61428f565b9050606002016020016020810190611e249190614158565b6001600160a01b031614611e4a5760405162461bcd60e51b81526004016105a290614316565b611e60858560008181106118425761184261428f565b611e6b85853061321d565b6040516370a0823160e01b81526000906001600160a01b037f000000000000000000000000000000000000000000000000000000000000000016906370a0823190611eba903090600401613c0b565b602060405180830381865afa158015611ed7573d6000803e3d6000fd5b505050506040513d601f19601f82011682018060405250810190611efb91906143c7565b905086811015611f1d5760405162461bcd60e51b81526004016105a2906142ce565b604051632e1a7d4d60e01b8152600481018290527f00000000000000000000000000000000000000000000000000000000000000006001600160a01b031690632e1a7d4d90602401600060405180830381600087803b158015611f7f57600080fd5b505af1158015611f93573d6000803e3d6000fd5b505050506119ed8482612f31565b6060600182511015611fc55760405162461bcd60e51b81526004016105a290614316565b8151611fd29060016144e6565b6001600160401b03811115611fe957611fe9613d85565b604051908082528060200260200182016040528015612012578160200160208202803683370190505b50905082816000815181106120295761202961428f565b60200260200101818152505060005b82518110156122005760006120948483815181106120585761205861428f565b6020026020010151600001518584815181106120765761207661428f565b6020026020010151602001518685815181106108ff576108ff61428f565b60405163e5e31b1360e01b81529091506001600160a01b037f0000000000000000000000000000000000000000000000000000000000000000169063e5e31b13906120e3908490600401613c0b565b602060405180830381865afa158015612100573d6000803e3d6000fd5b505050506040513d601f19601f8201168201806040525081019061212491906141c8565b156121f757806001600160a01b031663f140a35a84848151811061214a5761214a61428f565b60200260200101518685815181106121645761216461428f565b6020026020010151600001516040518363ffffffff1660e01b815260040161218d92919061445a565b602060405180830381865afa1580156121aa573d6000803e3d6000fd5b505050506040513d601f19601f820116820180604052508101906121ce91906143c7565b836121da8460016144e6565b815181106121ea576121ea61428f565b6020026020010181815250505b50600101612038565b5092915050565b6000806000807f00000000000000000000000000000000000000000000000000000000000000006001600160a01b0316636801cc308a8a8a6040518463ffffffff1660e01b815260040161225d93929190614386565b602060405180830381865afa15801561227a573d6000803e3d6000fd5b505050506040513d601f19601f8201168201806040525081019061229e91906143aa565b9050600080806001600160a01b0384161561232857836001600160a01b03166318160ddd6040518163ffffffff1660e01b8152600401602060405180830381865afa1580156122f1573d6000803e3d6000fd5b505050506040513d601f19601f8201168201806040525081019061231591906143c7565b90506123228c8c8c6113f6565b90935091505b82158015612334575081155b15612365578896508795506103e861235461234f888a6143e0565b61360d565b61235e91906142bb565b94506123f8565b60006123728a858561367d565b90508881116123ba578997509550856123b38461238f848b6143e0565b61239991906143f7565b846123a4858b6143e0565b6123ae91906143f7565b61375d565b95506123f6565b60006123c78a858761367d565b98508997508890506123f2856123dd85846143e0565b6123e791906143f7565b856123a4868c6143e0565b9650505b505b50505050955095509592505050565b60008060006124178f8f8f610ed3565b9050600087612426578c61242a565b6000195b60405163d505accf60e01b81529091506001600160a01b0383169063d505accf90612465903390309086908f908e908e908e90600401614419565b600060405180830381600087803b15801561247f57600080fd5b505af1158015612493573d6000803e3d6000fd5b50505050506124a88f8f8f8f8f8f8f8f61057e565b8093508194505050509c509c9a5050505050505050505050565b600080600083428110156124e85760405162461bcd60e51b81526004016105a290614175565b6125178b7f00000000000000000000000000000000000000000000000000000000000000008c8c348d8d612fff565b909450925060006125498c7f00000000000000000000000000000000000000000000000000000000000000008d610ed3565b90506125578c338388612b45565b7f00000000000000000000000000000000000000000000000000000000000000006001600160a01b031663d0e30db0856040518263ffffffff1660e01b81526004016000604051808303818588803b1580156125b257600080fd5b505af11580156125c6573d6000803e3d6000fd5b505060405163a9059cbb60e01b81526001600160a01b037f000000000000000000000000000000000000000000000000000000000000000016935063a9059cbb92506126199150849088906004016144cd565b6020604051808303816000875af1158015612638573d6000803e3d6000fd5b505050506040513d601f19601f8201168201806040525081019061265c91906141c8565b6126685761266861386e565b6040516335313c2160e11b81526001600160a01b03821690636a62784290612694908a90600401613c0b565b6020604051808303816000875af11580156126b3573d6000803e3d6000fd5b505050506040513d601f19601f820116820180604052508101906126d791906143c7565b9250833411156126f4576126f4336126ef86346142bb565b612f31565b50509750975097945050505050565b60008082428110156127275760405162461bcd60e51b81526004016105a290614175565b6127578a7f00000000000000000000000000000000000000000000000000000000000000008b8b8b8b308b61057e565b90935091506127678a8685613775565b604051632e1a7d4d60e01b8152600481018390527f00000000000000000000000000000000000000000000000000000000000000006001600160a01b031690632e1a7d4d90602401600060405180830381600087803b1580156127c957600080fd5b505af11580156127dd573d6000803e3d6000fd5b505050506127eb8583612f31565b5097509795505050505050565b60008060006128288e7f00000000000000000000000000000000000000000000000000000000000000008f610ed3565b9050600087612837578c61283b565b6000195b60405163d505accf60e01b81529091506001600160a01b0383169063d505accf90612876903390309086908f908e908e908e90600401614419565b600060405180830381600087803b15801561289057600080fd5b505af11580156128a4573d6000803e3d6000fd5b50505050610eb98f8f8f8f8f8f8f612a72565b60405163e5e31b1360e01b81526000906001600160a01b037f0000000000000000000000000000000000000000000000000000000000000000169063e5e31b1390612906908590600401613c0b565b602060405180830381865afa158015612923573d6000803e3d6000fd5b505050506040513d601f19601f8201168201806040525081019061294791906141c8565b92915050565b606081428110156129705760405162461bcd60e51b81526004016105a290614175565b6129c2888787808060200260200160405190810160405280939291908181526020016000905b82821015610a41576129b36060830286013681900381019061434d565b81526020019060010190612996565b91508682600184516129d491906142bb565b815181106129e4576129e461428f565b60200260200101511015612a0a5760405162461bcd60e51b81526004016105a2906142ce565b612a2086866000818110610aa957610aa961428f565b610c88828787808060200260200160405190810160405280939291908181526020016000905b828210156117f657612a636060830286013681900381019061434d565b81526020019060010190612a46565b6000808242811015612a965760405162461bcd60e51b81526004016105a290614175565b612ac68a7f00000000000000000000000000000000000000000000000000000000000000008b8b8b8b308b61057e565b6040516370a0823160e01b81529194509250612767908b9087906001600160a01b038316906370a0823190612aff903090600401613c0b565b602060405180830381865afa158015612b1c573d6000803e3d6000fd5b505050506040513d601f19601f82011682018060405250810190612b4091906143c7565b613775565b6000846001600160a01b03163b11612b5c57600080fd5b600080856001600160a01b03166323b872dd60e01b868686604051602401612b86939291906141a4565b60408051601f198184030181529181526020820180516001600160e01b03166001600160e01b0319909416939093179092529051612bc4919061451d565b6000604051808303816000865af19150503d8060008114612c01576040519150601f19603f3d011682016040523d82523d6000602084013e612c06565b606091505b5091509150818015612c30575080511580612c30575080806020019051810190612c3091906141c8565b612c3957600080fd5b505050505050565b60005b8251811015612f2b576000612c93848381518110612c6457612c6461428f565b602002602001015160000151858481518110612c8257612c8261428f565b602002602001015160200151610fd1565b509050600085612ca48460016144e6565b81518110612cb457612cb461428f565b60200260200101519050600080836001600160a01b0316878681518110612cdd57612cdd61428f565b6020026020010151600001516001600160a01b031614612cff57826000612d03565b6000835b91509150600060018851612d1791906142bb565b8610612d235786612d96565b612d9688612d328860016144e6565b81518110612d4257612d4261428f565b60200260200101516000015189886001612d5c91906144e6565b81518110612d6c57612d6c61428f565b6020026020010151602001518a896001612d8691906144e6565b815181106108ff576108ff61428f565b9050612de9888781518110612dad57612dad61428f565b602002602001015160000151898881518110612dcb57612dcb61428f565b6020026020010151602001518a89815181106108ff576108ff61428f565b6001600160a01b031663022c0d9f84848460006040519080825280601f01601f191660200182016040528015612e26576020820181803683370190505b506040518563ffffffff1660e01b8152600401612e469493929190614539565b600060405180830381600087803b158015612e6057600080fd5b505af1158015612e74573d6000803e3d6000fd5b50505050866001600160a01b0316336001600160a01b03167f423c093a1f80c354c75d4f9e86fde37d7c9014453df9643f585a1b199d094e508b8981518110612ebf57612ebf61428f565b60200260200101518b8a81518110612ed957612ed961428f565b6020026020010151600001518c8b81518110612ef757612ef761428f565b602002602001015160400151604051612f1293929190614589565b60405180910390a3505060019093019250612c44915050565b50505050565b604080516000808252602082019092526001600160a01b038416908390604051612f5b919061451d565b60006040518083038185875af1925050503d8060008114612f98576040519150601f19603f3d011682016040523d82523d6000602084013e612f9d565b606091505b5050905080612ffa5760405162461bcd60e51b815260206004820152602360248201527f5472616e7366657248656c7065723a204554485f5452414e534645525f46414960448201526213115160ea1b60648201526084016105a2565b505050565b6000808386101561300f57600080fd5b8285101561301c57600080fd5b6040516306801cc360e41b81526000906001600160a01b037f00000000000000000000000000000000000000000000000000000000000000001690636801cc309061306f908d908d908d90600401614386565b602060405180830381865afa15801561308c573d6000803e3d6000fd5b505050506040513d601f19601f820116820180604052508101906130b091906143aa565b90506001600160a01b038116613156576040516320b7f73960e21b81526001600160a01b037f000000000000000000000000000000000000000000000000000000000000000016906382dfdce490613110908d908d908d90600401614386565b6020604051808303816000875af115801561312f573d6000803e3d6000fd5b505050506040513d601f19601f8201168201806040525081019061315391906143aa565b90505b6000806131648c8c8c6113f6565b91509150816000148015613176575080155b156131865788945087935061320e565b60006131938a848461367d565b90508881116131c757868110156131bc5760405162461bcd60e51b81526004016105a29061424c565b89955093508361320c565b60006131d48a848661367d565b90508a8111156131e6576131e661386e565b888110156132065760405162461bcd60e51b81526004016105a290614209565b95508894505b505b50505097509795505050505050565b60005b82811015612f2b5760008085858481811061323d5761323d61428f565b6132539260206060909202019081019150614158565b8686858181106132655761326561428f565b905060600201602001602081019061327d9190614158565b91509150600061328d8383610fd1565b50905060006132f98888878181106132a7576132a761428f565b6132bd9260206060909202019081019150614158565b8989888181106132cf576132cf61428f565b90506060020160200160208101906132e79190614158565b8a8a89818110610b2a57610b2a61428f565b9050600080600080846001600160a01b0316630902f1ac6040518163ffffffff1660e01b8152600401606060405180830381865afa15801561333f573d6000803e3d6000fd5b505050506040513d601f19601f820116820180604052508101906133639190614488565b506001600160701b031691506001600160701b031691506000866001600160a01b0316896001600160a01b03161461339c57818361339f565b82825b5090506133d2818a6001600160a01b03166370a08231896040518263ffffffff1660e01b81526004016119889190613c0b565b94506133df858a8a6111a7565b5080945050505050600080856001600160a01b0316886001600160a01b03161461340b5782600061340f565b6000835b9092509050600061342160018d6142bb565b8a1061342d578a6134b2565b6134b28d8d61343d8d60016144e6565b81811061344c5761344c61428f565b6134629260206060909202019081019150614158565b8e8e61346f8e60016144e6565b81811061347e5761347e61428f565b90506060020160200160208101906134969190614158565b8f8f6134a38f60016144e6565b818110610b2a57610b2a61428f565b6040805160008152602081019182905263022c0d9f60e01b9091529091506001600160a01b0387169063022c0d9f906134f49086908690869060248101614539565b600060405180830381600087803b15801561350e57600080fd5b505af1158015613522573d6000803e3d6000fd5b5050505060008d8d8c81811061353a5761353a61428f565b90506060020160400160208101906135529190614369565b90508b6001600160a01b0316336001600160a01b03167f423c093a1f80c354c75d4f9e86fde37d7c9014453df9643f585a1b199d094e50888d8560405161359b93929190614589565b60405180910390a35050600190980197506132209650505050505050565b6000826135c683826142bb565b91508111156129475760405162461bcd60e51b81526020600482015260136024820152724d6174683a205375622d756e646572666c6f7760681b60448201526064016105a2565b6000600382111561366e57508060006136276002836143f7565b6136329060016144e6565b90505b818110156136685790508060028161364d81866143f7565b61365791906144e6565b61366191906143f7565b9050613635565b50919050565b8115613678575060015b919050565b60008084116136d85760405162461bcd60e51b815260206004820152602160248201527f426173655631526f757465723a20494e53554646494349454e545f414d4f554e6044820152601560fa1b60648201526084016105a2565b6000831180156136e85750600082115b6137405760405162461bcd60e51b8152602060048201526024808201527f426173655631526f757465723a20494e53554646494349454e545f4c495155496044820152634449545960e01b60648201526084016105a2565b8261374b83866143e0565b61375591906143f7565b949350505050565b600081831061376c578161376e565b825b9392505050565b6000836001600160a01b03163b1161378c57600080fd5b600080846001600160a01b031663a9059cbb60e01b85856040516024016137b49291906144cd565b60408051601f198184030181529181526020820180516001600160e01b03166001600160e01b03199094169390931790925290516137f2919061451d565b6000604051808303816000865af19150503d806000811461382f576040519150601f19603f3d011682016040523d82523d6000602084013e613834565b606091505b509150915081801561385e57508051158061385e57508080602001905181019061385e91906141c8565b61386757600080fd5b5050505050565b634e487b7160e01b600052600160045260246000fd5b6001600160a01b038116811461389957600080fd5b50565b803561367881613884565b801515811461389957600080fd5b600080600080600080600080610100898b0312156138d257600080fd5b88356138dd81613884565b975060208901356138ed81613884565b965060408901356138fd816138a7565b9550606089013594506080890135935060a0890135925060c089013561392281613884565b979a969950949793969295919450919260e001359150565b600080600080600080600060e0888a03121561395557600080fd5b8735965060208801359550604088013561396e81613884565b9450606088013561397e81613884565b9350608088013561398e816138a7565b925060a088013561399e81613884565b96999598509396929591949193505060c09091013590565b602080825282518282018190526000918401906040840190835b818110156139ee5783518352602093840193909201916001016139d0565b509095945050505050565b60008083601f840112613a0b57600080fd5b5081356001600160401b03811115613a2257600080fd5b6020830191508360206060830285010111156110bd57600080fd5b60008060008060008060a08789031215613a5657600080fd5b863595506020870135945060408701356001600160401b03811115613a7a57600080fd5b613a8689828a016139f9565b9095509350506060870135613a9a81613884565b95989497509295919493608090920135925050565b60008060008060808587031215613ac557600080fd5b8435613ad081613884565b93506020850135613ae081613884565b92506040850135613af0816138a7565b9396929550929360600135925050565b803560ff8116811461367857600080fd5b60008060008060008060008060008060006101608c8e031215613b3357600080fd5b8b35613b3e81613884565b9a5060208c0135613b4e816138a7565b995060408c0135985060608c0135975060808c0135965060a08c0135613b7381613884565b955060c08c0135945060e08c0135613b8a816138a7565b9350613b996101008d01613b00565b9a9d999c50979a969995989497509295919493610120830135935061014090920135919050565b600080600060608486031215613bd557600080fd5b8335613be081613884565b92506020840135613bf081613884565b91506040840135613c00816138a7565b809150509250925092565b6001600160a01b0391909116815260200190565b60008060408385031215613c3257600080fd5b8235613c3d81613884565b91506020830135613c4d81613884565b809150509250929050565b60008060008060008060008060006101208a8c031215613c7757600080fd5b8935613c8281613884565b985060208a0135613c9281613884565b975060408a0135613ca2816138a7565b965060608a0135955060808a0135945060a08a0135935060c08a0135925060e08a0135613cce81613884565b989b979a5095989497939692955090936101000135919050565b600080600060608486031215613cfd57600080fd5b833592506020840135613d0f81613884565b91506040840135613c0081613884565b600080600080600060808688031215613d3757600080fd5b8535945060208601356001600160401b03811115613d5457600080fd5b613d60888289016139f9565b9095509350506040860135613d7481613884565b949793965091946060013592915050565b634e487b7160e01b600052604160045260246000fd5b604051601f8201601f191681016001600160401b0381118282101715613dc357613dc3613d85565b604052919050565b60006001600160401b03821115613de457613de4613d85565b5060051b60200190565b600080600080600060808688031215613e0657600080fd5b85356001600160401b03811115613e1c57600080fd5b8601601f81018813613e2d57600080fd5b8035613e40613e3b82613dcb565b613d9b565b8082825260208201915060208360051b85010192508a831115613e6257600080fd5b6020840193505b82841015613e84578335825260209384019390910190613e69565b975050505060208601356001600160401b03811115613ea257600080fd5b613eae888289016139f9565b9095509350613d7490506040870161389c565b600060608284031215613ed357600080fd5b604051606081016001600160401b0381118282101715613ef557613ef5613d85565b6040529050808235613f0681613884565b81526020830135613f1681613884565b60208201526040830135613f29816138a7565b6040919091015292915050565b60008060408385031215613f4957600080fd5b8235915060208301356001600160401b03811115613f6657600080fd5b8301601f81018513613f7757600080fd5b8035613f85613e3b82613dcb565b80828252602082019150602060608402850101925087831115613fa757600080fd5b6020840193505b82841015613fd357613fc08885613ec1565b8252602082019150606084019350613fae565b809450505050509250929050565b600080600080600060a08688031215613ff957600080fd5b853561400481613884565b9450602086013561401481613884565b93506040860135614024816138a7565b94979396509394606081013594506080013592915050565b6000806000806000806000806000806000806101808d8f03121561405f57600080fd5b8c3561406a81613884565b9b5060208d013561407a81613884565b9a5060408d013561408a816138a7565b995060608d0135985060808d0135975060a08d0135965060c08d01356140af81613884565b955060e08d013594506101008d01356140c7816138a7565b93506140d66101208e01613b00565b9b9e9a9d50989b979a96999598509396929591949193505061014082013591610160013590565b600080600080600080600060e0888a03121561411857600080fd5b873561412381613884565b96506020880135614133816138a7565b955060408801359450606088013593506080880135925060a088013561399e81613884565b60006020828403121561416a57600080fd5b813561376e81613884565b60208082526015908201527410985cd9558c549bdd5d195c8e8811561412549151605a1b604082015260600190565b6001600160a01b039384168152919092166020820152604081019190915260600190565b6000602082840312156141da57600080fd5b815161376e816138a7565b600080604083850312156141f857600080fd5b505080516020909101519092909150565b60208082526023908201527f426173655631526f757465723a20494e53554646494349454e545f415f414d4f60408201526215539560ea1b606082015260800190565b60208082526023908201527f426173655631526f757465723a20494e53554646494349454e545f425f414d4f60408201526215539560ea1b606082015260800190565b634e487b7160e01b600052603260045260246000fd5b634e487b7160e01b600052601160045260246000fd5b81810381811115612947576129476142a5565b60208082526028908201527f426173655631526f757465723a20494e53554646494349454e545f4f555450556040820152671517d05353d5539560c21b606082015260800190565b6020808252601a908201527f426173655631526f757465723a20494e56414c49445f50415448000000000000604082015260600190565b60006060828403121561435f57600080fd5b61376e8383613ec1565b60006020828403121561437b57600080fd5b813561376e816138a7565b6001600160a01b039384168152919092166020820152901515604082015260600190565b6000602082840312156143bc57600080fd5b815161376e81613884565b6000602082840312156143d957600080fd5b5051919050565b8082028115828204841417612947576129476142a5565b60008261441457634e487b7160e01b600052601260045260246000fd5b500490565b6001600160a01b0397881681529590961660208601526040850193909352606084019190915260ff16608083015260a082015260c081019190915260e00190565b9182526001600160a01b0316602082015260400190565b80516001600160701b038116811461367857600080fd5b60008060006060848603121561449d57600080fd5b6144a684614471565b92506144b460208501614471565b9150604084015163ffffffff81168114613c0057600080fd5b6001600160a01b03929092168252602082015260400190565b80820180821115612947576129476142a5565b60005b838110156145145781810151838201526020016144fc565b50506000910152565b6000825161452f8184602087016144f9565b9190910192915050565b84815283602082015260018060a01b038316604082015260806060820152600082518060808401526145728160a08501602087016144f9565b601f01601f19169190910160a00195945050505050565b9283526001600160a01b03919091166020830152151560408201526060019056fea2646970667358221220a882b260e2a8eb3e011c38d8ecf913e96c361e2d64a30cd2cea27944012f5b2364736f6c634300081c0033",
          "opcodes": "PUSH1 0xE0 PUSH1 0x40 MSTORE CALLVALUE DUP1 ISZERO PUSH2 0x10 JUMPI PUSH1 0x0 DUP1 REVERT JUMPDEST POP PUSH1 0x40 MLOAD PUSH2 0x47FB CODESIZE SUB DUP1 PUSH2 0x47FB DUP4 CODECOPY DUP2 ADD PUSH1 0x40 DUP2 SWAP1 MSTORE PUSH2 0x2F SWAP2 PUSH2 0xCE JUMP JUMPDEST PUSH1 0x1 PUSH1 0x1 PUSH1 0xA0 SHL SUB DUP3 AND PUSH1 0x80 DUP2 SWAP1 MSTORE PUSH1 0x40 DUP1 MLOAD PUSH4 0x13557249 PUSH1 0xE3 SHL DUP2 MSTORE SWAP1 MLOAD PUSH4 0x9AAB9248 SWAP2 PUSH1 0x4 DUP1 DUP3 ADD SWAP3 PUSH1 0x20 SWAP3 SWAP1 SWAP2 SWAP1 DUP3 SWAP1 SUB ADD DUP2 DUP7 GAS STATICCALL ISZERO DUP1 ISZERO PUSH2 0x79 JUMPI RETURNDATASIZE PUSH1 0x0 DUP1 RETURNDATACOPY RETURNDATASIZE PUSH1 0x0 REVERT JUMPDEST POP POP POP POP PUSH1 0x40 MLOAD RETURNDATASIZE PUSH1 0x1F NOT PUSH1 0x1F DUP3 ADD AND DUP3 ADD DUP1 PUSH1 0x40 MSTORE POP DUP2 ADD SWAP1 PUSH2 0x9D SWAP2 SWAP1 PUSH2 0x101 JUMP JUMPDEST PUSH1 0xC0 MSTORE PUSH1 0x1 PUSH1 0x1 PUSH1 0xA0 SHL SUB AND PUSH1 0xA0 MSTORE POP PUSH2 0x11A JUMP JUMPDEST DUP1 MLOAD PUSH1 0x1 PUSH1 0x1 PUSH1 0xA0 SHL SUB DUP2 AND DUP2 EQ PUSH2 0xC9 JUMPI PUSH1 0x0 DUP1 REVERT JUMPDEST SWAP2 SWAP1 POP JUMP JUMPDEST PUSH1 0x0 DUP1 PUSH1 0x40 DUP4 DUP6 SUB SLT ISZERO PUSH2 0xE1 JUMPI PUSH1 0x0 DUP1 REVERT JUMPDEST PUSH2 0xEA DUP4 PUSH2 0xB2 JUMP JUMPDEST SWAP2 POP PUSH2 0xF8 PUSH1 0x20 DUP5 ADD PUSH2 0xB2 JUMP JUMPDEST SWAP1 POP SWAP3 POP SWAP3 SWAP1 POP JUMP JUMPDEST PUSH1 0x0 PUSH1 0x20 DUP3 DUP5 SUB SLT ISZERO PUSH2 0x113 JUMPI PUSH1 0x0 DUP1 REVERT JUMPDEST POP MLOAD SWAP2 SWAP1 POP JUMP JUMPDEST PUSH1 0x80 MLOAD PUSH1 0xA0 MLOAD PUSH1 0xC0 MLOAD PUSH2 0x45E0 PUSH2 0x21B PUSH1 0x0 CODECOPY PUSH1 0x0 PUSH2 0xF50 ADD MSTORE PUSH1 0x0 DUP2 DUP2 PUSH2 0x175 ADD MSTORE DUP2 DUP2 PUSH2 0x51C ADD MSTORE DUP2 DUP2 PUSH2 0x975 ADD MSTORE DUP2 DUP2 PUSH2 0xBB4 ADD MSTORE DUP2 DUP2 PUSH2 0xE05 ADD MSTORE DUP2 DUP2 PUSH2 0x14E5 ADD MSTORE DUP2 DUP2 PUSH2 0x15F8 ADD MSTORE DUP2 DUP2 PUSH2 0x1686 ADD MSTORE DUP2 DUP2 PUSH2 0x1AF0 ADD MSTORE DUP2 DUP2 PUSH2 0x1B6E ADD MSTORE DUP2 DUP2 PUSH2 0x1BE2 ADD MSTORE DUP2 DUP2 PUSH2 0x1DD0 ADD MSTORE DUP2 DUP2 PUSH2 0x1E85 ADD MSTORE DUP2 DUP2 PUSH2 0x1F33 ADD MSTORE DUP2 DUP2 PUSH2 0x24EE ADD MSTORE DUP2 DUP2 PUSH2 0x2524 ADD MSTORE DUP2 DUP2 PUSH2 0x2559 ADD MSTORE DUP2 DUP2 PUSH2 0x25DF ADD MSTORE DUP2 DUP2 PUSH2 0x272D ADD MSTORE DUP2 DUP2 PUSH2 0x277D ADD MSTORE DUP2 DUP2 PUSH2 0x2803 ADD MSTORE PUSH2 0x2A9C ADD MSTORE PUSH1 0x0 DUP2 DUP2 PUSH2 0x478 ADD MSTORE DUP2 DUP2 PUSH2 0xC9A ADD MSTORE DUP2 DUP2 PUSH2 0xF15 ADD MSTORE DUP2 DUP2 PUSH2 0x11BF ADD MSTORE DUP2 DUP2 PUSH2 0x12E7 ADD MSTORE DUP2 DUP2 PUSH2 0x20AE ADD MSTORE DUP2 DUP2 PUSH2 0x220F ADD MSTORE DUP2 DUP2 PUSH2 0x28D1 ADD MSTORE DUP2 DUP2 PUSH2 0x3036 ADD MSTORE PUSH2 0x30D7 ADD MSTORE PUSH2 0x45E0 PUSH1 0x0 RETURN INVALID PUSH1 0x80 PUSH1 0x40 MSTORE PUSH1 0x4 CALLDATASIZE LT PUSH2 0x165 JUMPI PUSH1 0x0 CALLDATALOAD PUSH1 0xE0 SHR DUP1 PUSH4 0x76C72751 GT PUSH2 0xC1 JUMPI DUP1 PUSH4 0xC45A0155 GT PUSH2 0x7A JUMPI DUP1 PUSH4 0xC45A0155 EQ PUSH2 0x466 JUMPI DUP1 PUSH4 0xD7B0E0A5 EQ PUSH2 0x49A JUMPI DUP1 PUSH4 0xE2D9D4DC EQ PUSH2 0x4BA JUMPI DUP1 PUSH4 0xE5E31B13 EQ PUSH2 0x4DA JUMPI DUP1 PUSH4 0xF2428621 EQ PUSH2 0x50A JUMPI DUP1 PUSH4 0xF41766D8 EQ PUSH2 0x53E JUMPI DUP1 PUSH4 0xFE411F14 EQ PUSH2 0x55E JUMPI PUSH1 0x0 DUP1 REVERT JUMPDEST DUP1 PUSH4 0x76C72751 EQ PUSH2 0x3C0 JUMPI DUP1 PUSH4 0x7AF728C8 EQ PUSH2 0x3D3 JUMPI DUP1 PUSH4 0x9881FCB4 EQ PUSH2 0x3F3 JUMPI DUP1 PUSH4 0x98A0FB3C EQ PUSH2 0x413 JUMPI DUP1 PUSH4 0xA32B1FCD EQ PUSH2 0x433 JUMPI DUP1 PUSH4 0xB7E0D4C0 EQ PUSH2 0x453 JUMPI PUSH1 0x0 DUP1 REVERT JUMPDEST DUP1 PUSH4 0x544CAA56 GT PUSH2 0x11E JUMPI DUP1 PUSH4 0x544CAA56 EQ PUSH2 0x29D JUMPI DUP1 PUSH4 0x5A47DDC3 EQ PUSH2 0x2DD JUMPI DUP1 PUSH4 0x5E1E6325 EQ PUSH2 0x318 JUMPI DUP1 PUSH4 0x5E60DAB5 EQ PUSH2 0x34D JUMPI DUP1 PUSH4 0x67FFB66A EQ PUSH2 0x36D JUMPI DUP1 PUSH4 0x6CC1AE13 EQ PUSH2 0x380 JUMPI DUP1 PUSH4 0x7301E3C8 EQ PUSH2 0x3A0 JUMPI PUSH1 0x0 DUP1 REVERT JUMPDEST DUP1 PUSH4 0xDEDE6C4 EQ PUSH2 0x1A9 JUMPI DUP1 PUSH4 0x13DCFC59 EQ PUSH2 0x1E3 JUMPI DUP1 PUSH4 0x18A13086 EQ PUSH2 0x210 JUMPI DUP1 PUSH4 0x4386E63C EQ PUSH2 0x230 JUMPI DUP1 PUSH4 0x448725B4 EQ PUSH2 0x250 JUMPI DUP1 PUSH4 0x4C1EE03E EQ PUSH2 0x270 JUMPI PUSH1 0x0 DUP1 REVERT JUMPDEST CALLDATASIZE PUSH2 0x1A4 JUMPI CALLER PUSH1 0x1 PUSH1 0x1 PUSH1 0xA0 SHL SUB PUSH32 0x0 AND EQ PUSH2 0x1A2 JUMPI PUSH2 0x1A2 PUSH2 0x386E JUMP JUMPDEST STOP JUMPDEST PUSH1 0x0 DUP1 REVERT JUMPDEST CALLVALUE DUP1 ISZERO PUSH2 0x1B5 JUMPI PUSH1 0x0 DUP1 REVERT JUMPDEST POP PUSH2 0x1C9 PUSH2 0x1C4 CALLDATASIZE PUSH1 0x4 PUSH2 0x38B5 JUMP JUMPDEST PUSH2 0x57E JUMP JUMPDEST PUSH1 0x40 DUP1 MLOAD SWAP3 DUP4 MSTORE PUSH1 0x20 DUP4 ADD SWAP2 SWAP1 SWAP2 MSTORE ADD JUMPDEST PUSH1 0x40 MLOAD DUP1 SWAP2 SUB SWAP1 RETURN JUMPDEST CALLVALUE DUP1 ISZERO PUSH2 0x1EF JUMPI PUSH1 0x0 DUP1 REVERT JUMPDEST POP PUSH2 0x203 PUSH2 0x1FE CALLDATASIZE PUSH1 0x4 PUSH2 0x393A JUMP JUMPDEST PUSH2 0x735 JUMP JUMPDEST PUSH1 0x40 MLOAD PUSH2 0x1DA SWAP2 SWAP1 PUSH2 0x39B6 JUMP JUMPDEST CALLVALUE DUP1 ISZERO PUSH2 0x21C JUMPI PUSH1 0x0 DUP1 REVERT JUMPDEST POP PUSH2 0x203 PUSH2 0x22B CALLDATASIZE PUSH1 0x4 PUSH2 0x3A3D JUMP JUMPDEST PUSH2 0x948 JUMP JUMPDEST CALLVALUE DUP1 ISZERO PUSH2 0x23C JUMPI PUSH1 0x0 DUP1 REVERT JUMPDEST POP PUSH2 0x1C9 PUSH2 0x24B CALLDATASIZE PUSH1 0x4 PUSH2 0x3AAF JUMP JUMPDEST PUSH2 0xC93 JUMP JUMPDEST CALLVALUE DUP1 ISZERO PUSH2 0x25C JUMPI PUSH1 0x0 DUP1 REVERT JUMPDEST POP PUSH2 0x1C9 PUSH2 0x26B CALLDATASIZE PUSH1 0x4 PUSH2 0x3B11 JUMP JUMPDEST PUSH2 0xDFA JUMP JUMPDEST CALLVALUE DUP1 ISZERO PUSH2 0x27C JUMPI PUSH1 0x0 DUP1 REVERT JUMPDEST POP PUSH2 0x290 PUSH2 0x28B CALLDATASIZE PUSH1 0x4 PUSH2 0x3BC0 JUMP JUMPDEST PUSH2 0xED3 JUMP JUMPDEST PUSH1 0x40 MLOAD PUSH2 0x1DA SWAP2 SWAP1 PUSH2 0x3C0B JUMP JUMPDEST CALLVALUE DUP1 ISZERO PUSH2 0x2A9 JUMPI PUSH1 0x0 DUP1 REVERT JUMPDEST POP PUSH2 0x2BD PUSH2 0x2B8 CALLDATASIZE PUSH1 0x4 PUSH2 0x3C1F JUMP JUMPDEST PUSH2 0xFD1 JUMP JUMPDEST PUSH1 0x40 DUP1 MLOAD PUSH1 0x1 PUSH1 0x1 PUSH1 0xA0 SHL SUB SWAP4 DUP5 AND DUP2 MSTORE SWAP3 SWAP1 SWAP2 AND PUSH1 0x20 DUP4 ADD MSTORE ADD PUSH2 0x1DA JUMP JUMPDEST CALLVALUE DUP1 ISZERO PUSH2 0x2E9 JUMPI PUSH1 0x0 DUP1 REVERT JUMPDEST POP PUSH2 0x2FD PUSH2 0x2F8 CALLDATASIZE PUSH1 0x4 PUSH2 0x3C58 JUMP JUMPDEST PUSH2 0x10C4 JUMP JUMPDEST PUSH1 0x40 DUP1 MLOAD SWAP4 DUP5 MSTORE PUSH1 0x20 DUP5 ADD SWAP3 SWAP1 SWAP3 MSTORE SWAP1 DUP3 ADD MSTORE PUSH1 0x60 ADD PUSH2 0x1DA JUMP JUMPDEST CALLVALUE DUP1 ISZERO PUSH2 0x324 JUMPI PUSH1 0x0 DUP1 REVERT JUMPDEST POP PUSH2 0x338 PUSH2 0x333 CALLDATASIZE PUSH1 0x4 PUSH2 0x3CE8 JUMP JUMPDEST PUSH2 0x11A7 JUMP JUMPDEST PUSH1 0x40 DUP1 MLOAD SWAP3 DUP4 MSTORE SWAP1 ISZERO ISZERO PUSH1 0x20 DUP4 ADD MSTORE ADD PUSH2 0x1DA JUMP JUMPDEST CALLVALUE DUP1 ISZERO PUSH2 0x359 JUMPI PUSH1 0x0 DUP1 REVERT JUMPDEST POP PUSH2 0x1C9 PUSH2 0x368 CALLDATASIZE PUSH1 0x4 PUSH2 0x3BC0 JUMP JUMPDEST PUSH2 0x13F6 JUMP JUMPDEST PUSH2 0x203 PUSH2 0x37B CALLDATASIZE PUSH1 0x4 PUSH2 0x3D1F JUMP JUMPDEST PUSH2 0x14C0 JUMP JUMPDEST CALLVALUE DUP1 ISZERO PUSH2 0x38C JUMPI PUSH1 0x0 DUP1 REVERT JUMPDEST POP PUSH2 0x1A2 PUSH2 0x39B CALLDATASIZE PUSH1 0x4 PUSH2 0x3A3D JUMP JUMPDEST PUSH2 0x180B JUMP JUMPDEST CALLVALUE DUP1 ISZERO PUSH2 0x3AC JUMPI PUSH1 0x0 DUP1 REVERT JUMPDEST POP PUSH2 0x203 PUSH2 0x3BB CALLDATASIZE PUSH1 0x4 PUSH2 0x3DEE JUMP JUMPDEST PUSH2 0x19F7 JUMP JUMPDEST PUSH2 0x1A2 PUSH2 0x3CE CALLDATASIZE PUSH1 0x4 PUSH2 0x3D1F JUMP JUMPDEST PUSH2 0x1ACD JUMP JUMPDEST CALLVALUE DUP1 ISZERO PUSH2 0x3DF JUMPI PUSH1 0x0 DUP1 REVERT JUMPDEST POP PUSH2 0x1A2 PUSH2 0x3EE CALLDATASIZE PUSH1 0x4 PUSH2 0x3A3D JUMP JUMPDEST PUSH2 0x1DA5 JUMP JUMPDEST CALLVALUE DUP1 ISZERO PUSH2 0x3FF JUMPI PUSH1 0x0 DUP1 REVERT JUMPDEST POP PUSH2 0x203 PUSH2 0x40E CALLDATASIZE PUSH1 0x4 PUSH2 0x3F36 JUMP JUMPDEST PUSH2 0x1FA1 JUMP JUMPDEST CALLVALUE DUP1 ISZERO PUSH2 0x41F JUMPI PUSH1 0x0 DUP1 REVERT JUMPDEST POP PUSH2 0x2FD PUSH2 0x42E CALLDATASIZE PUSH1 0x4 PUSH2 0x3FE1 JUMP JUMPDEST PUSH2 0x2207 JUMP JUMPDEST CALLVALUE DUP1 ISZERO PUSH2 0x43F JUMPI PUSH1 0x0 DUP1 REVERT JUMPDEST POP PUSH2 0x1C9 PUSH2 0x44E CALLDATASIZE PUSH1 0x4 PUSH2 0x403C JUMP JUMPDEST PUSH2 0x2407 JUMP JUMPDEST PUSH2 0x2FD PUSH2 0x461 CALLDATASIZE PUSH1 0x4 PUSH2 0x40FD JUMP JUMPDEST PUSH2 0x24C2 JUMP JUMPDEST CALLVALUE DUP1 ISZERO PUSH2 0x472 JUMPI PUSH1 0x0 DUP1 REVERT JUMPDEST POP PUSH2 0x290 PUSH32 0x0 DUP2 JUMP JUMPDEST CALLVALUE DUP1 ISZERO PUSH2 0x4A6 JUMPI PUSH1 0x0 DUP1 REVERT JUMPDEST POP PUSH2 0x1C9 PUSH2 0x4B5 CALLDATASIZE PUSH1 0x4 PUSH2 0x40FD JUMP JUMPDEST PUSH2 0x2703 JUMP JUMPDEST CALLVALUE DUP1 ISZERO PUSH2 0x4C6 JUMPI PUSH1 0x0 DUP1 REVERT JUMPDEST POP PUSH2 0x1C9 PUSH2 0x4D5 CALLDATASIZE PUSH1 0x4 PUSH2 0x3B11 JUMP JUMPDEST PUSH2 0x27F8 JUMP JUMPDEST CALLVALUE DUP1 ISZERO PUSH2 0x4E6 JUMPI PUSH1 0x0 DUP1 REVERT JUMPDEST POP PUSH2 0x4FA PUSH2 0x4F5 CALLDATASIZE PUSH1 0x4 PUSH2 0x4158 JUMP JUMPDEST PUSH2 0x28B7 JUMP JUMPDEST PUSH1 0x40 MLOAD SWAP1 ISZERO ISZERO DUP2 MSTORE PUSH1 0x20 ADD PUSH2 0x1DA JUMP JUMPDEST CALLVALUE DUP1 ISZERO PUSH2 0x516 JUMPI PUSH1 0x0 DUP1 REVERT JUMPDEST POP PUSH2 0x290 PUSH32 0x0 DUP2 JUMP JUMPDEST CALLVALUE DUP1 ISZERO PUSH2 0x54A JUMPI PUSH1 0x0 DUP1 REVERT JUMPDEST POP PUSH2 0x203 PUSH2 0x559 CALLDATASIZE PUSH1 0x4 PUSH2 0x3A3D JUMP JUMPDEST PUSH2 0x294D JUMP JUMPDEST CALLVALUE DUP1 ISZERO PUSH2 0x56A JUMPI PUSH1 0x0 DUP1 REVERT JUMPDEST POP PUSH2 0x1C9 PUSH2 0x579 CALLDATASIZE PUSH1 0x4 PUSH2 0x40FD JUMP JUMPDEST PUSH2 0x2A72 JUMP JUMPDEST PUSH1 0x0 DUP1 DUP3 TIMESTAMP DUP2 LT ISZERO PUSH2 0x5AB JUMPI PUSH1 0x40 MLOAD PUSH3 0x461BCD PUSH1 0xE5 SHL DUP2 MSTORE PUSH1 0x4 ADD PUSH2 0x5A2 SWAP1 PUSH2 0x4175 JUMP JUMPDEST PUSH1 0x40 MLOAD DUP1 SWAP2 SUB SWAP1 REVERT JUMPDEST PUSH1 0x0 PUSH2 0x5B8 DUP13 DUP13 DUP13 PUSH2 0xED3 JUMP JUMPDEST PUSH1 0x40 MLOAD PUSH4 0x23B872DD PUSH1 0xE0 SHL DUP2 MSTORE SWAP1 SWAP2 POP PUSH1 0x1 PUSH1 0x1 PUSH1 0xA0 SHL SUB DUP3 AND SWAP1 PUSH4 0x23B872DD SWAP1 PUSH2 0x5EB SWAP1 CALLER SWAP1 DUP6 SWAP1 DUP15 SWAP1 PUSH1 0x4 ADD PUSH2 0x41A4 JUMP JUMPDEST PUSH1 0x20 PUSH1 0x40 MLOAD DUP1 DUP4 SUB DUP2 PUSH1 0x0 DUP8 GAS CALL ISZERO DUP1 ISZERO PUSH2 0x60A JUMPI RETURNDATASIZE PUSH1 0x0 DUP1 RETURNDATACOPY RETURNDATASIZE PUSH1 0x0 REVERT JUMPDEST POP POP POP POP PUSH1 0x40 MLOAD RETURNDATASIZE PUSH1 0x1F NOT PUSH1 0x1F DUP3 ADD AND DUP3 ADD DUP1 PUSH1 0x40 MSTORE POP DUP2 ADD SWAP1 PUSH2 0x62E SWAP2 SWAP1 PUSH2 0x41C8 JUMP JUMPDEST PUSH2 0x637 JUMPI PUSH1 0x0 DUP1 REVERT JUMPDEST PUSH1 0x0 DUP1 DUP3 PUSH1 0x1 PUSH1 0x1 PUSH1 0xA0 SHL SUB AND PUSH4 0x89AFCB44 DUP10 PUSH1 0x40 MLOAD DUP3 PUSH4 0xFFFFFFFF AND PUSH1 0xE0 SHL DUP2 MSTORE PUSH1 0x4 ADD PUSH2 0x666 SWAP2 SWAP1 PUSH2 0x3C0B JUMP JUMPDEST PUSH1 0x40 DUP1 MLOAD DUP1 DUP4 SUB DUP2 PUSH1 0x0 DUP8 GAS CALL ISZERO DUP1 ISZERO PUSH2 0x684 JUMPI RETURNDATASIZE PUSH1 0x0 DUP1 RETURNDATACOPY RETURNDATASIZE PUSH1 0x0 REVERT JUMPDEST POP POP POP POP PUSH1 0x40 MLOAD RETURNDATASIZE PUSH1 0x1F NOT PUSH1 0x1F DUP3 ADD AND DUP3 ADD DUP1 PUSH1 0x40 MSTORE POP DUP2 ADD SWAP1 PUSH2 0x6A8 SWAP2 SWAP1 PUSH2 0x41E5 JUMP JUMPDEST SWAP2 POP SWAP2 POP PUSH1 0x0 PUSH2 0x6B8 DUP16 DUP16 PUSH2 0xFD1 JUMP JUMPDEST POP SWAP1 POP DUP1 PUSH1 0x1 PUSH1 0x1 PUSH1 0xA0 SHL SUB AND DUP16 PUSH1 0x1 PUSH1 0x1 PUSH1 0xA0 SHL SUB AND EQ PUSH2 0x6DB JUMPI DUP2 DUP4 PUSH2 0x6DE JUMP JUMPDEST DUP3 DUP3 JUMPDEST SWAP1 SWAP8 POP SWAP6 POP DUP11 DUP8 LT ISZERO PUSH2 0x703 JUMPI PUSH1 0x40 MLOAD PUSH3 0x461BCD PUSH1 0xE5 SHL DUP2 MSTORE PUSH1 0x4 ADD PUSH2 0x5A2 SWAP1 PUSH2 0x4209 JUMP JUMPDEST DUP10 DUP7 LT ISZERO PUSH2 0x723 JUMPI PUSH1 0x40 MLOAD PUSH3 0x461BCD PUSH1 0xE5 SHL DUP2 MSTORE PUSH1 0x4 ADD PUSH2 0x5A2 SWAP1 PUSH2 0x424C JUMP JUMPDEST POP POP POP POP POP SWAP9 POP SWAP9 SWAP7 POP POP POP POP POP POP POP JUMP JUMPDEST PUSH1 0x60 DUP2 TIMESTAMP DUP2 LT ISZERO PUSH2 0x758 JUMPI PUSH1 0x40 MLOAD PUSH3 0x461BCD PUSH1 0xE5 SHL DUP2 MSTORE PUSH1 0x4 ADD PUSH2 0x5A2 SWAP1 PUSH2 0x4175 JUMP JUMPDEST PUSH1 0x40 DUP1 MLOAD PUSH1 0x1 DUP1 DUP3 MSTORE DUP2 DUP4 ADD SWAP1 SWAP3 MSTORE PUSH1 0x0 SWAP2 DUP2 PUSH1 0x20 ADD JUMPDEST PUSH1 0x40 DUP1 MLOAD PUSH1 0x60 DUP2 ADD DUP3 MSTORE PUSH1 0x0 DUP1 DUP3 MSTORE PUSH1 0x20 DUP1 DUP4 ADD DUP3 SWAP1 MSTORE SWAP3 DUP3 ADD MSTORE DUP3 MSTORE PUSH1 0x0 NOT SWAP1 SWAP3 ADD SWAP2 ADD DUP2 PUSH2 0x76F JUMPI SWAP1 POP POP SWAP1 POP DUP8 DUP2 PUSH1 0x0 DUP2 MLOAD DUP2 LT PUSH2 0x7B2 JUMPI PUSH2 0x7B2 PUSH2 0x428F JUMP JUMPDEST PUSH1 0x20 MUL PUSH1 0x20 ADD ADD MLOAD PUSH1 0x0 ADD SWAP1 PUSH1 0x1 PUSH1 0x1 PUSH1 0xA0 SHL SUB AND SWAP1 DUP2 PUSH1 0x1 PUSH1 0x1 PUSH1 0xA0 SHL SUB AND DUP2 MSTORE POP POP DUP7 DUP2 PUSH1 0x0 DUP2 MLOAD DUP2 LT PUSH2 0x7EA JUMPI PUSH2 0x7EA PUSH2 0x428F JUMP JUMPDEST PUSH1 0x20 MUL PUSH1 0x20 ADD ADD MLOAD PUSH1 0x20 ADD SWAP1 PUSH1 0x1 PUSH1 0x1 PUSH1 0xA0 SHL SUB AND SWAP1 DUP2 PUSH1 0x1 PUSH1 0x1 PUSH1 0xA0 SHL SUB AND DUP2 MSTORE POP POP DUP6 DUP2 PUSH1 0x0 DUP2 MLOAD DUP2 LT PUSH2 0x822 JUMPI PUSH2 0x822 PUSH2 0x428F JUMP JUMPDEST PUSH1 0x20 SWAP1 DUP2 MUL SWAP2 SWAP1 SWAP2 ADD ADD MLOAD SWAP1 ISZERO ISZERO PUSH1 0x40 SWAP1 SWAP2 ADD MSTORE PUSH2 0x840 DUP11 DUP3 PUSH2 0x1FA1 JUMP JUMPDEST SWAP3 POP DUP9 DUP4 PUSH1 0x1 DUP6 MLOAD PUSH2 0x852 SWAP2 SWAP1 PUSH2 0x42BB JUMP JUMPDEST DUP2 MLOAD DUP2 LT PUSH2 0x862 JUMPI PUSH2 0x862 PUSH2 0x428F JUMP JUMPDEST PUSH1 0x20 MUL PUSH1 0x20 ADD ADD MLOAD LT ISZERO PUSH2 0x888 JUMPI PUSH1 0x40 MLOAD PUSH3 0x461BCD PUSH1 0xE5 SHL DUP2 MSTORE PUSH1 0x4 ADD PUSH2 0x5A2 SWAP1 PUSH2 0x42CE JUMP JUMPDEST PUSH2 0x930 DUP2 PUSH1 0x0 DUP2 MLOAD DUP2 LT PUSH2 0x89E JUMPI PUSH2 0x89E PUSH2 0x428F JUMP JUMPDEST PUSH1 0x20 MUL PUSH1 0x20 ADD ADD MLOAD PUSH1 0x0 ADD MLOAD CALLER PUSH2 0x910 DUP5 PUSH1 0x0 DUP2 MLOAD DUP2 LT PUSH2 0x8C1 JUMPI PUSH2 0x8C1 PUSH2 0x428F JUMP JUMPDEST PUSH1 0x20 MUL PUSH1 0x20 ADD ADD MLOAD PUSH1 0x0 ADD MLOAD DUP6 PUSH1 0x0 DUP2 MLOAD DUP2 LT PUSH2 0x8E0 JUMPI PUSH2 0x8E0 PUSH2 0x428F JUMP JUMPDEST PUSH1 0x20 MUL PUSH1 0x20 ADD ADD MLOAD PUSH1 0x20 ADD MLOAD DUP7 PUSH1 0x0 DUP2 MLOAD DUP2 LT PUSH2 0x8FF JUMPI PUSH2 0x8FF PUSH2 0x428F JUMP JUMPDEST PUSH1 0x20 MUL PUSH1 0x20 ADD ADD MLOAD PUSH1 0x40 ADD MLOAD PUSH2 0xED3 JUMP JUMPDEST DUP7 PUSH1 0x0 DUP2 MLOAD DUP2 LT PUSH2 0x923 JUMPI PUSH2 0x923 PUSH2 0x428F JUMP JUMPDEST PUSH1 0x20 MUL PUSH1 0x20 ADD ADD MLOAD PUSH2 0x2B45 JUMP JUMPDEST PUSH2 0x93B DUP4 DUP3 DUP8 PUSH2 0x2C41 JUMP JUMPDEST POP POP SWAP8 SWAP7 POP POP POP POP POP POP POP JUMP JUMPDEST PUSH1 0x60 DUP2 TIMESTAMP DUP2 LT ISZERO PUSH2 0x96B JUMPI PUSH1 0x40 MLOAD PUSH3 0x461BCD PUSH1 0xE5 SHL DUP2 MSTORE PUSH1 0x4 ADD PUSH2 0x5A2 SWAP1 PUSH2 0x4175 JUMP JUMPDEST PUSH1 0x1 PUSH1 0x1 PUSH1 0xA0 SHL SUB PUSH32 0x0 AND DUP7 DUP7 PUSH2 0x9A2 PUSH1 0x1 DUP3 PUSH2 0x42BB JUMP JUMPDEST DUP2 DUP2 LT PUSH2 0x9B1 JUMPI PUSH2 0x9B1 PUSH2 0x428F JUMP JUMPDEST SWAP1 POP PUSH1 0x60 MUL ADD PUSH1 0x20 ADD PUSH1 0x20 DUP2 ADD SWAP1 PUSH2 0x9C9 SWAP2 SWAP1 PUSH2 0x4158 JUMP JUMPDEST PUSH1 0x1 PUSH1 0x1 PUSH1 0xA0 SHL SUB AND EQ PUSH2 0x9EF JUMPI PUSH1 0x40 MLOAD PUSH3 0x461BCD PUSH1 0xE5 SHL DUP2 MSTORE PUSH1 0x4 ADD PUSH2 0x5A2 SWAP1 PUSH2 0x4316 JUMP JUMPDEST PUSH2 0xA4B DUP9 DUP8 DUP8 DUP1 DUP1 PUSH1 0x20 MUL PUSH1 0x20 ADD PUSH1 0x40 MLOAD SWAP1 DUP2 ADD PUSH1 0x40 MSTORE DUP1 SWAP4 SWAP3 SWAP2 SWAP1 DUP2 DUP2 MSTORE PUSH1 0x20 ADD PUSH1 0x0 SWAP1 JUMPDEST DUP3 DUP3 LT ISZERO PUSH2 0xA41 JUMPI PUSH2 0xA32 PUSH1 0x60 DUP4 MUL DUP7 ADD CALLDATASIZE DUP2 SWAP1 SUB DUP2 ADD SWAP1 PUSH2 0x434D JUMP JUMPDEST DUP2 MSTORE PUSH1 0x20 ADD SWAP1 PUSH1 0x1 ADD SWAP1 PUSH2 0xA15 JUMP JUMPDEST POP POP POP POP POP PUSH2 0x1FA1 JUMP JUMPDEST SWAP2 POP DUP7 DUP3 PUSH1 0x1 DUP5 MLOAD PUSH2 0xA5D SWAP2 SWAP1 PUSH2 0x42BB JUMP JUMPDEST DUP2 MLOAD DUP2 LT PUSH2 0xA6D JUMPI PUSH2 0xA6D PUSH2 0x428F JUMP JUMPDEST PUSH1 0x20 MUL PUSH1 0x20 ADD ADD MLOAD LT ISZERO PUSH2 0xA93 JUMPI PUSH1 0x40 MLOAD PUSH3 0x461BCD PUSH1 0xE5 SHL DUP2 MSTORE PUSH1 0x4 ADD PUSH2 0x5A2 SWAP1 PUSH2 0x42CE JUMP JUMPDEST PUSH2 0xB55 DUP7 DUP7 PUSH1 0x0 DUP2 DUP2 LT PUSH2 0xAA9 JUMPI PUSH2 0xAA9 PUSH2 0x428F JUMP JUMPDEST PUSH2 0xABF SWAP3 PUSH1 0x20 PUSH1 0x60 SWAP1 SWAP3 MUL ADD SWAP1 DUP2 ADD SWAP2 POP PUSH2 0x4158 JUMP JUMPDEST CALLER PUSH2 0xB42 DUP10 DUP10 PUSH1 0x0 DUP2 DUP2 LT PUSH2 0xAD6 JUMPI PUSH2 0xAD6 PUSH2 0x428F JUMP JUMPDEST PUSH2 0xAEC SWAP3 PUSH1 0x20 PUSH1 0x60 SWAP1 SWAP3 MUL ADD SWAP1 DUP2 ADD SWAP2 POP PUSH2 0x4158 JUMP JUMPDEST DUP11 DUP11 PUSH1 0x0 DUP2 DUP2 LT PUSH2 0xAFF JUMPI PUSH2 0xAFF PUSH2 0x428F JUMP JUMPDEST SWAP1 POP PUSH1 0x60 MUL ADD PUSH1 0x20 ADD PUSH1 0x20 DUP2 ADD SWAP1 PUSH2 0xB17 SWAP2 SWAP1 PUSH2 0x4158 JUMP JUMPDEST DUP12 DUP12 PUSH1 0x0 DUP2 DUP2 LT PUSH2 0xB2A JUMPI PUSH2 0xB2A PUSH2 0x428F JUMP JUMPDEST SWAP1 POP PUSH1 0x60 MUL ADD PUSH1 0x40 ADD PUSH1 0x20 DUP2 ADD SWAP1 PUSH2 0x28B SWAP2 SWAP1 PUSH2 0x4369 JUMP JUMPDEST DUP6 PUSH1 0x0 DUP2 MLOAD DUP2 LT PUSH2 0x923 JUMPI PUSH2 0x923 PUSH2 0x428F JUMP JUMPDEST PUSH2 0xBB2 DUP3 DUP8 DUP8 DUP1 DUP1 PUSH1 0x20 MUL PUSH1 0x20 ADD PUSH1 0x40 MLOAD SWAP1 DUP2 ADD PUSH1 0x40 MSTORE DUP1 SWAP4 SWAP3 SWAP2 SWAP1 DUP2 DUP2 MSTORE PUSH1 0x20 ADD PUSH1 0x0 SWAP1 JUMPDEST DUP3 DUP3 LT ISZERO PUSH2 0xBA7 JUMPI PUSH2 0xB98 PUSH1 0x60 DUP4 MUL DUP7 ADD CALLDATASIZE DUP2 SWAP1 SUB DUP2 ADD SWAP1 PUSH2 0x434D JUMP JUMPDEST DUP2 MSTORE PUSH1 0x20 ADD SWAP1 PUSH1 0x1 ADD SWAP1 PUSH2 0xB7B JUMP JUMPDEST POP POP POP POP POP ADDRESS PUSH2 0x2C41 JUMP JUMPDEST PUSH32 0x0 PUSH1 0x1 PUSH1 0x1 PUSH1 0xA0 SHL SUB AND PUSH4 0x2E1A7D4D DUP4 PUSH1 0x1 DUP6 MLOAD PUSH2 0xBF0 SWAP2 SWAP1 PUSH2 0x42BB JUMP JUMPDEST DUP2 MLOAD DUP2 LT PUSH2 0xC00 JUMPI PUSH2 0xC00 PUSH2 0x428F JUMP JUMPDEST PUSH1 0x20 MUL PUSH1 0x20 ADD ADD MLOAD PUSH1 0x40 MLOAD DUP3 PUSH4 0xFFFFFFFF AND PUSH1 0xE0 SHL DUP2 MSTORE PUSH1 0x4 ADD PUSH2 0xC26 SWAP2 DUP2 MSTORE PUSH1 0x20 ADD SWAP1 JUMP JUMPDEST PUSH1 0x0 PUSH1 0x40 MLOAD DUP1 DUP4 SUB DUP2 PUSH1 0x0 DUP8 DUP1 EXTCODESIZE ISZERO DUP1 ISZERO PUSH2 0xC40 JUMPI PUSH1 0x0 DUP1 REVERT JUMPDEST POP GAS CALL ISZERO DUP1 ISZERO PUSH2 0xC54 JUMPI RETURNDATASIZE PUSH1 0x0 DUP1 RETURNDATACOPY RETURNDATASIZE PUSH1 0x0 REVERT JUMPDEST POP POP POP POP PUSH2 0xC88 DUP5 DUP4 PUSH1 0x1 DUP6 MLOAD PUSH2 0xC6B SWAP2 SWAP1 PUSH2 0x42BB JUMP JUMPDEST DUP2 MLOAD DUP2 LT PUSH2 0xC7B JUMPI PUSH2 0xC7B PUSH2 0x428F JUMP JUMPDEST PUSH1 0x20 MUL PUSH1 0x20 ADD ADD MLOAD PUSH2 0x2F31 JUMP JUMPDEST POP SWAP7 SWAP6 POP POP POP POP POP POP JUMP JUMPDEST PUSH1 0x0 DUP1 PUSH1 0x0 PUSH32 0x0 PUSH1 0x1 PUSH1 0x1 PUSH1 0xA0 SHL SUB AND PUSH4 0x6801CC30 DUP9 DUP9 DUP9 PUSH1 0x40 MLOAD DUP5 PUSH4 0xFFFFFFFF AND PUSH1 0xE0 SHL DUP2 MSTORE PUSH1 0x4 ADD PUSH2 0xCE8 SWAP4 SWAP3 SWAP2 SWAP1 PUSH2 0x4386 JUMP JUMPDEST PUSH1 0x20 PUSH1 0x40 MLOAD DUP1 DUP4 SUB DUP2 DUP7 GAS STATICCALL ISZERO DUP1 ISZERO PUSH2 0xD05 JUMPI RETURNDATASIZE PUSH1 0x0 DUP1 RETURNDATACOPY RETURNDATASIZE PUSH1 0x0 REVERT JUMPDEST POP POP POP POP PUSH1 0x40 MLOAD RETURNDATASIZE PUSH1 0x1F NOT PUSH1 0x1F DUP3 ADD AND DUP3 ADD DUP1 PUSH1 0x40 MSTORE POP DUP2 ADD SWAP1 PUSH2 0xD29 SWAP2 SWAP1 PUSH2 0x43AA JUMP JUMPDEST SWAP1 POP PUSH1 0x1 PUSH1 0x1 PUSH1 0xA0 SHL SUB DUP2 AND PUSH2 0xD46 JUMPI PUSH1 0x0 DUP1 SWAP3 POP SWAP3 POP POP PUSH2 0xDF1 JUMP JUMPDEST PUSH1 0x0 DUP1 PUSH2 0xD54 DUP10 DUP10 DUP10 PUSH2 0x13F6 JUMP JUMPDEST SWAP2 POP SWAP2 POP PUSH1 0x0 DUP4 PUSH1 0x1 PUSH1 0x1 PUSH1 0xA0 SHL SUB AND PUSH4 0x18160DDD PUSH1 0x40 MLOAD DUP2 PUSH4 0xFFFFFFFF AND PUSH1 0xE0 SHL DUP2 MSTORE PUSH1 0x4 ADD PUSH1 0x20 PUSH1 0x40 MLOAD DUP1 DUP4 SUB DUP2 DUP7 GAS STATICCALL ISZERO DUP1 ISZERO PUSH2 0xD98 JUMPI RETURNDATASIZE PUSH1 0x0 DUP1 RETURNDATACOPY RETURNDATASIZE PUSH1 0x0 REVERT JUMPDEST POP POP POP POP PUSH1 0x40 MLOAD RETURNDATASIZE PUSH1 0x1F NOT PUSH1 0x1F DUP3 ADD AND DUP3 ADD DUP1 PUSH1 0x40 MSTORE POP DUP2 ADD SWAP1 PUSH2 0xDBC SWAP2 SWAP1 PUSH2 0x43C7 JUMP JUMPDEST SWAP1 POP DUP1 PUSH2 0xDC9 DUP5 DUP10 PUSH2 0x43E0 JUMP JUMPDEST PUSH2 0xDD3 SWAP2 SWAP1 PUSH2 0x43F7 JUMP JUMPDEST SWAP6 POP DUP1 PUSH2 0xDE0 DUP4 DUP10 PUSH2 0x43E0 JUMP JUMPDEST PUSH2 0xDEA SWAP2 SWAP1 PUSH2 0x43F7 JUMP JUMPDEST SWAP5 POP POP POP POP POP JUMPDEST SWAP5 POP SWAP5 SWAP3 POP POP POP JUMP JUMPDEST PUSH1 0x0 DUP1 PUSH1 0x0 PUSH2 0xE2A DUP15 PUSH32 0x0 DUP16 PUSH2 0xED3 JUMP JUMPDEST SWAP1 POP PUSH1 0x0 DUP8 PUSH2 0xE39 JUMPI DUP13 PUSH2 0xE3D JUMP JUMPDEST PUSH1 0x0 NOT JUMPDEST PUSH1 0x40 MLOAD PUSH4 0xD505ACCF PUSH1 0xE0 SHL DUP2 MSTORE SWAP1 SWAP2 POP PUSH1 0x1 PUSH1 0x1 PUSH1 0xA0 SHL SUB DUP4 AND SWAP1 PUSH4 0xD505ACCF SWAP1 PUSH2 0xE78 SWAP1 CALLER SWAP1 ADDRESS SWAP1 DUP7 SWAP1 DUP16 SWAP1 DUP15 SWAP1 DUP15 SWAP1 DUP15 SWAP1 PUSH1 0x4 ADD PUSH2 0x4419 JUMP JUMPDEST PUSH1 0x0 PUSH1 0x40 MLOAD DUP1 DUP4 SUB DUP2 PUSH1 0x0 DUP8 DUP1 EXTCODESIZE ISZERO DUP1 ISZERO PUSH2 0xE92 JUMPI PUSH1 0x0 DUP1 REVERT JUMPDEST POP GAS CALL ISZERO DUP1 ISZERO PUSH2 0xEA6 JUMPI RETURNDATASIZE PUSH1 0x0 DUP1 RETURNDATACOPY RETURNDATASIZE PUSH1 0x0 REVERT JUMPDEST POP POP POP POP PUSH2 0xEB9 DUP16 DUP16 DUP16 DUP16 DUP16 DUP16 DUP16 PUSH2 0x2703 JUMP JUMPDEST DUP1 SWAP5 POP DUP2 SWAP6 POP POP POP POP POP SWAP12 POP SWAP12 SWAP10 POP POP POP POP POP POP POP POP POP POP JUMP JUMPDEST PUSH1 0x0 DUP1 PUSH1 0x0 PUSH2 0xEE2 DUP7 DUP7 PUSH2 0xFD1 JUMP JUMPDEST PUSH1 0x40 MLOAD PUSH1 0x1 PUSH1 0x1 PUSH1 0x60 SHL SUB NOT PUSH1 0x60 DUP5 DUP2 SHL DUP3 AND PUSH1 0x20 DUP5 ADD MSTORE DUP4 SWAP1 SHL AND PUSH1 0x34 DUP3 ADD MSTORE DUP7 ISZERO ISZERO PUSH1 0xF8 SHL PUSH1 0x48 DUP3 ADD MSTORE SWAP2 SWAP4 POP SWAP2 POP PUSH32 0x0 SWAP1 PUSH1 0x49 ADD PUSH1 0x40 MLOAD PUSH1 0x20 DUP2 DUP4 SUB SUB DUP2 MSTORE SWAP1 PUSH1 0x40 MSTORE DUP1 MLOAD SWAP1 PUSH1 0x20 ADD KECCAK256 PUSH32 0x0 PUSH1 0x40 MLOAD PUSH1 0x20 ADD PUSH2 0xFAF SWAP4 SWAP3 SWAP2 SWAP1 PUSH1 0x1 PUSH1 0x1 PUSH1 0xF8 SHL SUB NOT DUP2 MSTORE PUSH1 0x60 SWAP4 SWAP1 SWAP4 SHL PUSH1 0x1 PUSH1 0x1 PUSH1 0x60 SHL SUB NOT AND PUSH1 0x1 DUP5 ADD MSTORE PUSH1 0x15 DUP4 ADD SWAP2 SWAP1 SWAP2 MSTORE PUSH1 0x35 DUP3 ADD MSTORE PUSH1 0x55 ADD SWAP1 JUMP JUMPDEST PUSH1 0x40 DUP1 MLOAD PUSH1 0x1F NOT DUP2 DUP5 SUB ADD DUP2 MSTORE SWAP2 SWAP1 MSTORE DUP1 MLOAD PUSH1 0x20 SWAP1 SWAP2 ADD KECCAK256 SWAP7 SWAP6 POP POP POP POP POP POP JUMP JUMPDEST PUSH1 0x0 DUP1 DUP3 PUSH1 0x1 PUSH1 0x1 PUSH1 0xA0 SHL SUB AND DUP5 PUSH1 0x1 PUSH1 0x1 PUSH1 0xA0 SHL SUB AND SUB PUSH2 0x103F JUMPI PUSH1 0x40 MLOAD PUSH3 0x461BCD PUSH1 0xE5 SHL DUP2 MSTORE PUSH1 0x20 PUSH1 0x4 DUP3 ADD MSTORE PUSH1 0x21 PUSH1 0x24 DUP3 ADD MSTORE PUSH32 0x426173655631526F757465723A204944454E544943414C5F4144445245535345 PUSH1 0x44 DUP3 ADD MSTORE PUSH1 0x53 PUSH1 0xF8 SHL PUSH1 0x64 DUP3 ADD MSTORE PUSH1 0x84 ADD PUSH2 0x5A2 JUMP JUMPDEST DUP3 PUSH1 0x1 PUSH1 0x1 PUSH1 0xA0 SHL SUB AND DUP5 PUSH1 0x1 PUSH1 0x1 PUSH1 0xA0 SHL SUB AND LT PUSH2 0x105F JUMPI DUP3 DUP5 PUSH2 0x1062 JUMP JUMPDEST DUP4 DUP4 JUMPDEST SWAP1 SWAP3 POP SWAP1 POP PUSH1 0x1 PUSH1 0x1 PUSH1 0xA0 SHL SUB DUP3 AND PUSH2 0x10BD JUMPI PUSH1 0x40 MLOAD PUSH3 0x461BCD PUSH1 0xE5 SHL DUP2 MSTORE PUSH1 0x20 PUSH1 0x4 DUP3 ADD MSTORE PUSH1 0x1A PUSH1 0x24 DUP3 ADD MSTORE PUSH32 0x426173655631526F757465723A205A45524F5F41444452455353000000000000 PUSH1 0x44 DUP3 ADD MSTORE PUSH1 0x64 ADD PUSH2 0x5A2 JUMP JUMPDEST SWAP3 POP SWAP3 SWAP1 POP JUMP JUMPDEST PUSH1 0x0 DUP1 PUSH1 0x0 DUP4 TIMESTAMP DUP2 LT ISZERO PUSH2 0x10EA JUMPI PUSH1 0x40 MLOAD PUSH3 0x461BCD PUSH1 0xE5 SHL DUP2 MSTORE PUSH1 0x4 ADD PUSH2 0x5A2 SWAP1 PUSH2 0x4175 JUMP JUMPDEST PUSH2 0x10F9 DUP14 DUP14 DUP14 DUP14 DUP14 DUP14 DUP14 PUSH2 0x2FFF JUMP JUMPDEST SWAP1 SWAP5 POP SWAP3 POP PUSH1 0x0 PUSH2 0x110B DUP15 DUP15 DUP15 PUSH2 0xED3 JUMP JUMPDEST SWAP1 POP PUSH2 0x1119 DUP15 CALLER DUP4 DUP9 PUSH2 0x2B45 JUMP JUMPDEST PUSH2 0x1125 DUP14 CALLER DUP4 DUP8 PUSH2 0x2B45 JUMP JUMPDEST PUSH1 0x40 MLOAD PUSH4 0x35313C21 PUSH1 0xE1 SHL DUP2 MSTORE PUSH1 0x1 PUSH1 0x1 PUSH1 0xA0 SHL SUB DUP3 AND SWAP1 PUSH4 0x6A627842 SWAP1 PUSH2 0x1151 SWAP1 DUP11 SWAP1 PUSH1 0x4 ADD PUSH2 0x3C0B JUMP JUMPDEST PUSH1 0x20 PUSH1 0x40 MLOAD DUP1 DUP4 SUB DUP2 PUSH1 0x0 DUP8 GAS CALL ISZERO DUP1 ISZERO PUSH2 0x1170 JUMPI RETURNDATASIZE PUSH1 0x0 DUP1 RETURNDATACOPY RETURNDATASIZE PUSH1 0x0 REVERT JUMPDEST POP POP POP POP PUSH1 0x40 MLOAD RETURNDATASIZE PUSH1 0x1F NOT PUSH1 0x1F DUP3 ADD AND DUP3 ADD DUP1 PUSH1 0x40 MSTORE POP DUP2 ADD SWAP1 PUSH2 0x1194 SWAP2 SWAP1 PUSH2 0x43C7 JUMP JUMPDEST SWAP3 POP POP POP SWAP10 POP SWAP10 POP SWAP10 SWAP7 POP POP POP POP POP POP POP JUMP JUMPDEST PUSH1 0x0 DUP1 PUSH1 0x0 PUSH2 0x11B8 DUP6 DUP6 PUSH1 0x1 PUSH2 0xED3 JUMP JUMPDEST SWAP1 POP PUSH1 0x0 DUP1 PUSH32 0x0 PUSH1 0x1 PUSH1 0x1 PUSH1 0xA0 SHL SUB AND PUSH4 0xE5E31B13 DUP5 PUSH1 0x40 MLOAD DUP3 PUSH4 0xFFFFFFFF AND PUSH1 0xE0 SHL DUP2 MSTORE PUSH1 0x4 ADD PUSH2 0x1209 SWAP2 SWAP1 PUSH2 0x3C0B JUMP JUMPDEST PUSH1 0x20 PUSH1 0x40 MLOAD DUP1 DUP4 SUB DUP2 DUP7 GAS STATICCALL ISZERO DUP1 ISZERO PUSH2 0x1226 JUMPI RETURNDATASIZE PUSH1 0x0 DUP1 RETURNDATACOPY RETURNDATASIZE PUSH1 0x0 REVERT JUMPDEST POP POP POP POP PUSH1 0x40 MLOAD RETURNDATASIZE PUSH1 0x1F NOT PUSH1 0x1F DUP3 ADD AND DUP3 ADD DUP1 PUSH1 0x40 MSTORE POP DUP2 ADD SWAP1 PUSH2 0x124A SWAP2 SWAP1 PUSH2 0x41C8 JUMP JUMPDEST ISZERO PUSH2 0x12C1 JUMPI PUSH1 0x40 MLOAD PUSH4 0x78A051AD PUSH1 0xE1 SHL DUP2 MSTORE PUSH1 0x1 PUSH1 0x1 PUSH1 0xA0 SHL SUB DUP5 AND SWAP1 PUSH4 0xF140A35A SWAP1 PUSH2 0x127D SWAP1 DUP12 SWAP1 DUP12 SWAP1 PUSH1 0x4 ADD PUSH2 0x445A JUMP JUMPDEST PUSH1 0x20 PUSH1 0x40 MLOAD DUP1 DUP4 SUB DUP2 DUP7 GAS STATICCALL ISZERO DUP1 ISZERO PUSH2 0x129A JUMPI RETURNDATASIZE PUSH1 0x0 DUP1 RETURNDATACOPY RETURNDATASIZE PUSH1 0x0 REVERT JUMPDEST POP POP POP POP PUSH1 0x40 MLOAD RETURNDATASIZE PUSH1 0x1F NOT PUSH1 0x1F DUP3 ADD AND DUP3 ADD DUP1 PUSH1 0x40 MSTORE POP DUP2 ADD SWAP1 PUSH2 0x12BE SWAP2 SWAP1 PUSH2 0x43C7 JUMP JUMPDEST SWAP2 POP JUMPDEST PUSH2 0x12CD DUP8 DUP8 PUSH1 0x0 PUSH2 0xED3 JUMP JUMPDEST PUSH1 0x40 MLOAD PUSH4 0xE5E31B13 PUSH1 0xE0 SHL DUP2 MSTORE SWAP1 SWAP4 POP PUSH1 0x1 PUSH1 0x1 PUSH1 0xA0 SHL SUB PUSH32 0x0 AND SWAP1 PUSH4 0xE5E31B13 SWAP1 PUSH2 0x131C SWAP1 DUP7 SWAP1 PUSH1 0x4 ADD PUSH2 0x3C0B JUMP JUMPDEST PUSH1 0x20 PUSH1 0x40 MLOAD DUP1 DUP4 SUB DUP2 DUP7 GAS STATICCALL ISZERO DUP1 ISZERO PUSH2 0x1339 JUMPI RETURNDATASIZE PUSH1 0x0 DUP1 RETURNDATACOPY RETURNDATASIZE PUSH1 0x0 REVERT JUMPDEST POP POP POP POP PUSH1 0x40 MLOAD RETURNDATASIZE PUSH1 0x1F NOT PUSH1 0x1F DUP3 ADD AND DUP3 ADD DUP1 PUSH1 0x40 MSTORE POP DUP2 ADD SWAP1 PUSH2 0x135D SWAP2 SWAP1 PUSH2 0x41C8 JUMP JUMPDEST ISZERO PUSH2 0x13D4 JUMPI PUSH1 0x40 MLOAD PUSH4 0x78A051AD PUSH1 0xE1 SHL DUP2 MSTORE PUSH1 0x1 PUSH1 0x1 PUSH1 0xA0 SHL SUB DUP5 AND SWAP1 PUSH4 0xF140A35A SWAP1 PUSH2 0x1390 SWAP1 DUP12 SWAP1 DUP12 SWAP1 PUSH1 0x4 ADD PUSH2 0x445A JUMP JUMPDEST PUSH1 0x20 PUSH1 0x40 MLOAD DUP1 DUP4 SUB DUP2 DUP7 GAS STATICCALL ISZERO DUP1 ISZERO PUSH2 0x13AD JUMPI RETURNDATASIZE PUSH1 0x0 DUP1 RETURNDATACOPY RETURNDATASIZE PUSH1 0x0 REVERT JUMPDEST POP POP POP POP PUSH1 0x40 MLOAD RETURNDATASIZE PUSH1 0x1F NOT PUSH1 0x1F DUP3 ADD AND DUP3 ADD DUP1 PUSH1 0x40 MSTORE POP DUP2 ADD SWAP1 PUSH2 0x13D1 SWAP2 SWAP1 PUSH2 0x43C7 JUMP JUMPDEST SWAP1 POP JUMPDEST DUP1 DUP3 GT PUSH2 0x13E3 JUMPI DUP1 PUSH1 0x0 PUSH2 0x13E7 JUMP JUMPDEST DUP2 PUSH1 0x1 JUMPDEST SWAP5 POP SWAP5 POP POP POP POP SWAP4 POP SWAP4 SWAP2 POP POP JUMP JUMPDEST PUSH1 0x0 DUP1 PUSH1 0x0 PUSH2 0x1405 DUP7 DUP7 PUSH2 0xFD1 JUMP JUMPDEST POP SWAP1 POP PUSH1 0x0 DUP1 PUSH2 0x1416 DUP9 DUP9 DUP9 PUSH2 0xED3 JUMP JUMPDEST PUSH1 0x1 PUSH1 0x1 PUSH1 0xA0 SHL SUB AND PUSH4 0x902F1AC PUSH1 0x40 MLOAD DUP2 PUSH4 0xFFFFFFFF AND PUSH1 0xE0 SHL DUP2 MSTORE PUSH1 0x4 ADD PUSH1 0x60 PUSH1 0x40 MLOAD DUP1 DUP4 SUB DUP2 DUP7 GAS STATICCALL ISZERO DUP1 ISZERO PUSH2 0x1453 JUMPI RETURNDATASIZE PUSH1 0x0 DUP1 RETURNDATACOPY RETURNDATASIZE PUSH1 0x0 REVERT JUMPDEST POP POP POP POP PUSH1 0x40 MLOAD RETURNDATASIZE PUSH1 0x1F NOT PUSH1 0x1F DUP3 ADD AND DUP3 ADD DUP1 PUSH1 0x40 MSTORE POP DUP2 ADD SWAP1 PUSH2 0x1477 SWAP2 SWAP1 PUSH2 0x4488 JUMP JUMPDEST POP PUSH1 0x1 PUSH1 0x1 PUSH1 0x70 SHL SUB AND SWAP2 POP PUSH1 0x1 PUSH1 0x1 PUSH1 0x70 SHL SUB AND SWAP2 POP DUP3 PUSH1 0x1 PUSH1 0x1 PUSH1 0xA0 SHL SUB AND DUP9 PUSH1 0x1 PUSH1 0x1 PUSH1 0xA0 SHL SUB AND EQ PUSH2 0x14AE JUMPI DUP1 DUP3 PUSH2 0x14B1 JUMP JUMPDEST DUP2 DUP2 JUMPDEST SWAP1 SWAP10 SWAP1 SWAP9 POP SWAP7 POP POP POP POP POP POP POP JUMP JUMPDEST PUSH1 0x60 DUP2 TIMESTAMP DUP2 LT ISZERO PUSH2 0x14E3 JUMPI PUSH1 0x40 MLOAD PUSH3 0x461BCD PUSH1 0xE5 SHL DUP2 MSTORE PUSH1 0x4 ADD PUSH2 0x5A2 SWAP1 PUSH2 0x4175 JUMP JUMPDEST PUSH32 0x0 PUSH1 0x1 PUSH1 0x1 PUSH1 0xA0 SHL SUB AND DUP7 DUP7 PUSH1 0x0 DUP2 DUP2 LT PUSH2 0x1520 JUMPI PUSH2 0x1520 PUSH2 0x428F JUMP JUMPDEST PUSH2 0x1536 SWAP3 PUSH1 0x20 PUSH1 0x60 SWAP1 SWAP3 MUL ADD SWAP1 DUP2 ADD SWAP2 POP PUSH2 0x4158 JUMP JUMPDEST PUSH1 0x1 PUSH1 0x1 PUSH1 0xA0 SHL SUB AND EQ PUSH2 0x155C JUMPI PUSH1 0x40 MLOAD PUSH3 0x461BCD PUSH1 0xE5 SHL DUP2 MSTORE PUSH1 0x4 ADD PUSH2 0x5A2 SWAP1 PUSH2 0x4316 JUMP JUMPDEST PUSH2 0x15AE CALLVALUE DUP8 DUP8 DUP1 DUP1 PUSH1 0x20 MUL PUSH1 0x20 ADD PUSH1 0x40 MLOAD SWAP1 DUP2 ADD PUSH1 0x40 MSTORE DUP1 SWAP4 SWAP3 SWAP2 SWAP1 DUP2 DUP2 MSTORE PUSH1 0x20 ADD PUSH1 0x0 SWAP1 JUMPDEST DUP3 DUP3 LT ISZERO PUSH2 0xA41 JUMPI PUSH2 0x159F PUSH1 0x60 DUP4 MUL DUP7 ADD CALLDATASIZE DUP2 SWAP1 SUB DUP2 ADD SWAP1 PUSH2 0x434D JUMP JUMPDEST DUP2 MSTORE PUSH1 0x20 ADD SWAP1 PUSH1 0x1 ADD SWAP1 PUSH2 0x1582 JUMP JUMPDEST SWAP2 POP DUP7 DUP3 PUSH1 0x1 DUP5 MLOAD PUSH2 0x15C0 SWAP2 SWAP1 PUSH2 0x42BB JUMP JUMPDEST DUP2 MLOAD DUP2 LT PUSH2 0x15D0 JUMPI PUSH2 0x15D0 PUSH2 0x428F JUMP JUMPDEST PUSH1 0x20 MUL PUSH1 0x20 ADD ADD MLOAD LT ISZERO PUSH2 0x15F6 JUMPI PUSH1 0x40 MLOAD PUSH3 0x461BCD PUSH1 0xE5 SHL DUP2 MSTORE PUSH1 0x4 ADD PUSH2 0x5A2 SWAP1 PUSH2 0x42CE JUMP JUMPDEST PUSH32 0x0 PUSH1 0x1 PUSH1 0x1 PUSH1 0xA0 SHL SUB AND PUSH4 0xD0E30DB0 DUP4 PUSH1 0x0 DUP2 MLOAD DUP2 LT PUSH2 0x1638 JUMPI PUSH2 0x1638 PUSH2 0x428F JUMP JUMPDEST PUSH1 0x20 MUL PUSH1 0x20 ADD ADD MLOAD PUSH1 0x40 MLOAD DUP3 PUSH4 0xFFFFFFFF AND PUSH1 0xE0 SHL DUP2 MSTORE PUSH1 0x4 ADD PUSH1 0x0 PUSH1 0x40 MLOAD DUP1 DUP4 SUB DUP2 DUP6 DUP9 DUP1 EXTCODESIZE ISZERO DUP1 ISZERO PUSH2 0x166B JUMPI PUSH1 0x0 DUP1 REVERT JUMPDEST POP GAS CALL ISZERO DUP1 ISZERO PUSH2 0x167F JUMPI RETURNDATASIZE PUSH1 0x0 DUP1 RETURNDATACOPY RETURNDATASIZE PUSH1 0x0 REVERT JUMPDEST POP POP POP POP POP PUSH32 0x0 PUSH1 0x1 PUSH1 0x1 PUSH1 0xA0 SHL SUB AND PUSH4 0xA9059CBB PUSH2 0x171D DUP9 DUP9 PUSH1 0x0 DUP2 DUP2 LT PUSH2 0x16C9 JUMPI PUSH2 0x16C9 PUSH2 0x428F JUMP JUMPDEST PUSH2 0x16DF SWAP3 PUSH1 0x20 PUSH1 0x60 SWAP1 SWAP3 MUL ADD SWAP1 DUP2 ADD SWAP2 POP PUSH2 0x4158 JUMP JUMPDEST DUP10 DUP10 PUSH1 0x0 DUP2 DUP2 LT PUSH2 0x16F2 JUMPI PUSH2 0x16F2 PUSH2 0x428F JUMP JUMPDEST SWAP1 POP PUSH1 0x60 MUL ADD PUSH1 0x20 ADD PUSH1 0x20 DUP2 ADD SWAP1 PUSH2 0x170A SWAP2 SWAP1 PUSH2 0x4158 JUMP JUMPDEST DUP11 DUP11 PUSH1 0x0 DUP2 DUP2 LT PUSH2 0xB2A JUMPI PUSH2 0xB2A PUSH2 0x428F JUMP JUMPDEST DUP5 PUSH1 0x0 DUP2 MLOAD DUP2 LT PUSH2 0x1730 JUMPI PUSH2 0x1730 PUSH2 0x428F JUMP JUMPDEST PUSH1 0x20 MUL PUSH1 0x20 ADD ADD MLOAD PUSH1 0x40 MLOAD DUP4 PUSH4 0xFFFFFFFF AND PUSH1 0xE0 SHL DUP2 MSTORE PUSH1 0x4 ADD PUSH2 0x1755 SWAP3 SWAP2 SWAP1 PUSH2 0x44CD JUMP JUMPDEST PUSH1 0x20 PUSH1 0x40 MLOAD DUP1 DUP4 SUB DUP2 PUSH1 0x0 DUP8 GAS CALL ISZERO DUP1 ISZERO PUSH2 0x1774 JUMPI RETURNDATASIZE PUSH1 0x0 DUP1 RETURNDATACOPY RETURNDATASIZE PUSH1 0x0 REVERT JUMPDEST POP POP POP POP PUSH1 0x40 MLOAD RETURNDATASIZE PUSH1 0x1F NOT PUSH1 0x1F DUP3 ADD AND DUP3 ADD DUP1 PUSH1 0x40 MSTORE POP DUP2 ADD SWAP1 PUSH2 0x1798 SWAP2 SWAP1 PUSH2 0x41C8 JUMP JUMPDEST PUSH2 0x17A4 JUMPI PUSH2 0x17A4 PUSH2 0x386E JUMP JUMPDEST PUSH2 0x1801 DUP3 DUP8 DUP8 DUP1 DUP1 PUSH1 0x20 MUL PUSH1 0x20 ADD PUSH1 0x40 MLOAD SWAP1 DUP2 ADD PUSH1 0x40 MSTORE DUP1 SWAP4 SWAP3 SWAP2 SWAP1 DUP2 DUP2 MSTORE PUSH1 0x20 ADD PUSH1 0x0 SWAP1 JUMPDEST DUP3 DUP3 LT ISZERO PUSH2 0x17F6 JUMPI PUSH2 0x17E7 PUSH1 0x60 DUP4 MUL DUP7 ADD CALLDATASIZE DUP2 SWAP1 SUB DUP2 ADD SWAP1 PUSH2 0x434D JUMP JUMPDEST DUP2 MSTORE PUSH1 0x20 ADD SWAP1 PUSH1 0x1 ADD SWAP1 PUSH2 0x17CA JUMP JUMPDEST POP POP POP POP POP DUP7 PUSH2 0x2C41 JUMP JUMPDEST POP SWAP6 SWAP5 POP POP POP POP POP JUMP JUMPDEST DUP1 TIMESTAMP DUP2 LT ISZERO PUSH2 0x182C JUMPI PUSH1 0x40 MLOAD PUSH3 0x461BCD PUSH1 0xE5 SHL DUP2 MSTORE PUSH1 0x4 ADD PUSH2 0x5A2 SWAP1 PUSH2 0x4175 JUMP JUMPDEST PUSH2 0x1875 DUP6 DUP6 PUSH1 0x0 DUP2 DUP2 LT PUSH2 0x1842 JUMPI PUSH2 0x1842 PUSH2 0x428F JUMP JUMPDEST PUSH2 0x1858 SWAP3 PUSH1 0x20 PUSH1 0x60 SWAP1 SWAP3 MUL ADD SWAP1 DUP2 ADD SWAP2 POP PUSH2 0x4158 JUMP JUMPDEST CALLER PUSH2 0x186F DUP9 DUP9 PUSH1 0x0 DUP2 DUP2 LT PUSH2 0x16C9 JUMPI PUSH2 0x16C9 PUSH2 0x428F JUMP JUMPDEST DUP11 PUSH2 0x2B45 JUMP JUMPDEST PUSH1 0x0 DUP6 DUP6 PUSH2 0x1884 PUSH1 0x1 DUP3 PUSH2 0x42BB JUMP JUMPDEST DUP2 DUP2 LT PUSH2 0x1893 JUMPI PUSH2 0x1893 PUSH2 0x428F JUMP JUMPDEST SWAP1 POP PUSH1 0x60 MUL ADD PUSH1 0x20 ADD PUSH1 0x20 DUP2 ADD SWAP1 PUSH2 0x18AB SWAP2 SWAP1 PUSH2 0x4158 JUMP JUMPDEST PUSH1 0x1 PUSH1 0x1 PUSH1 0xA0 SHL SUB AND PUSH4 0x70A08231 DUP6 PUSH1 0x40 MLOAD DUP3 PUSH4 0xFFFFFFFF AND PUSH1 0xE0 SHL DUP2 MSTORE PUSH1 0x4 ADD PUSH2 0x18D6 SWAP2 SWAP1 PUSH2 0x3C0B JUMP JUMPDEST PUSH1 0x20 PUSH1 0x40 MLOAD DUP1 DUP4 SUB DUP2 DUP7 GAS STATICCALL ISZERO DUP1 ISZERO PUSH2 0x18F3 JUMPI RETURNDATASIZE PUSH1 0x0 DUP1 RETURNDATACOPY RETURNDATASIZE PUSH1 0x0 REVERT JUMPDEST POP POP POP POP PUSH1 0x40 MLOAD RETURNDATASIZE PUSH1 0x1F NOT PUSH1 0x1F DUP3 ADD AND DUP3 ADD DUP1 PUSH1 0x40 MSTORE POP DUP2 ADD SWAP1 PUSH2 0x1917 SWAP2 SWAP1 PUSH2 0x43C7 JUMP JUMPDEST SWAP1 POP PUSH2 0x1924 DUP7 DUP7 DUP7 PUSH2 0x321D JUMP JUMPDEST DUP7 PUSH2 0x19CF DUP3 DUP9 DUP9 PUSH2 0x1936 PUSH1 0x1 DUP3 PUSH2 0x42BB JUMP JUMPDEST DUP2 DUP2 LT PUSH2 0x1945 JUMPI PUSH2 0x1945 PUSH2 0x428F JUMP JUMPDEST SWAP1 POP PUSH1 0x60 MUL ADD PUSH1 0x20 ADD PUSH1 0x20 DUP2 ADD SWAP1 PUSH2 0x195D SWAP2 SWAP1 PUSH2 0x4158 JUMP JUMPDEST PUSH1 0x1 PUSH1 0x1 PUSH1 0xA0 SHL SUB AND PUSH4 0x70A08231 DUP9 PUSH1 0x40 MLOAD DUP3 PUSH4 0xFFFFFFFF AND PUSH1 0xE0 SHL DUP2 MSTORE PUSH1 0x4 ADD PUSH2 0x1988 SWAP2 SWAP1 PUSH2 0x3C0B JUMP JUMPDEST PUSH1 0x20 PUSH1 0x40 MLOAD DUP1 DUP4 SUB DUP2 DUP7 GAS STATICCALL ISZERO DUP1 ISZERO PUSH2 0x19A5 JUMPI RETURNDATASIZE PUSH1 0x0 DUP1 RETURNDATACOPY RETURNDATASIZE PUSH1 0x0 REVERT JUMPDEST POP POP POP POP PUSH1 0x40 MLOAD RETURNDATASIZE PUSH1 0x1F NOT PUSH1 0x1F DUP3 ADD AND DUP3 ADD DUP1 PUSH1 0x40 MSTORE POP DUP2 ADD SWAP1 PUSH2 0x19C9 SWAP2 SWAP1 PUSH2 0x43C7 JUMP JUMPDEST SWAP1 PUSH2 0x35B9 JUMP JUMPDEST LT ISZERO PUSH2 0x19ED JUMPI PUSH1 0x40 MLOAD PUSH3 0x461BCD PUSH1 0xE5 SHL DUP2 MSTORE PUSH1 0x4 ADD PUSH2 0x5A2 SWAP1 PUSH2 0x42CE JUMP JUMPDEST POP POP POP POP POP POP POP POP JUMP JUMPDEST PUSH1 0x60 DUP2 TIMESTAMP DUP2 LT ISZERO PUSH2 0x1A1A JUMPI PUSH1 0x40 MLOAD PUSH3 0x461BCD PUSH1 0xE5 SHL DUP2 MSTORE PUSH1 0x4 ADD PUSH2 0x5A2 SWAP1 PUSH2 0x4175 JUMP JUMPDEST PUSH2 0x1A70 DUP7 DUP7 PUSH1 0x0 DUP2 DUP2 LT PUSH2 0x1A30 JUMPI PUSH2 0x1A30 PUSH2 0x428F JUMP JUMPDEST PUSH2 0x1A46 SWAP3 PUSH1 0x20 PUSH1 0x60 SWAP1 SWAP3 MUL ADD SWAP1 DUP2 ADD SWAP2 POP PUSH2 0x4158 JUMP JUMPDEST CALLER PUSH2 0x1A5D DUP10 DUP10 PUSH1 0x0 DUP2 DUP2 LT PUSH2 0xAD6 JUMPI PUSH2 0xAD6 PUSH2 0x428F JUMP JUMPDEST DUP11 PUSH1 0x0 DUP2 MLOAD DUP2 LT PUSH2 0x923 JUMPI PUSH2 0x923 PUSH2 0x428F JUMP JUMPDEST PUSH2 0x1AC2 DUP8 DUP8 DUP8 DUP1 DUP1 PUSH1 0x20 MUL PUSH1 0x20 ADD PUSH1 0x40 MLOAD SWAP1 DUP2 ADD PUSH1 0x40 MSTORE DUP1 SWAP4 SWAP3 SWAP2 SWAP1 DUP2 DUP2 MSTORE PUSH1 0x20 ADD PUSH1 0x0 SWAP1 JUMPDEST DUP3 DUP3 LT ISZERO PUSH2 0x17F6 JUMPI PUSH2 0x1AB3 PUSH1 0x60 DUP4 MUL DUP7 ADD CALLDATASIZE DUP2 SWAP1 SUB DUP2 ADD SWAP1 PUSH2 0x434D JUMP JUMPDEST DUP2 MSTORE PUSH1 0x20 ADD SWAP1 PUSH1 0x1 ADD SWAP1 PUSH2 0x1A96 JUMP JUMPDEST POP SWAP5 SWAP6 SWAP5 POP POP POP POP POP JUMP JUMPDEST DUP1 TIMESTAMP DUP2 LT ISZERO PUSH2 0x1AEE JUMPI PUSH1 0x40 MLOAD PUSH3 0x461BCD PUSH1 0xE5 SHL DUP2 MSTORE PUSH1 0x4 ADD PUSH2 0x5A2 SWAP1 PUSH2 0x4175 JUMP JUMPDEST PUSH32 0x0 PUSH1 0x1 PUSH1 0x1 PUSH1 0xA0 SHL SUB AND DUP6 DUP6 PUSH1 0x0 DUP2 DUP2 LT PUSH2 0x1B2B JUMPI PUSH2 0x1B2B PUSH2 0x428F JUMP JUMPDEST PUSH2 0x1B41 SWAP3 PUSH1 0x20 PUSH1 0x60 SWAP1 SWAP3 MUL ADD SWAP1 DUP2 ADD SWAP2 POP PUSH2 0x4158 JUMP JUMPDEST PUSH1 0x1 PUSH1 0x1 PUSH1 0xA0 SHL SUB AND EQ PUSH2 0x1B67 JUMPI PUSH1 0x40 MLOAD PUSH3 0x461BCD PUSH1 0xE5 SHL DUP2 MSTORE PUSH1 0x4 ADD PUSH2 0x5A2 SWAP1 PUSH2 0x4316 JUMP JUMPDEST PUSH1 0x0 CALLVALUE SWAP1 POP PUSH32 0x0 PUSH1 0x1 PUSH1 0x1 PUSH1 0xA0 SHL SUB AND PUSH4 0xD0E30DB0 DUP3 PUSH1 0x40 MLOAD DUP3 PUSH4 0xFFFFFFFF AND PUSH1 0xE0 SHL DUP2 MSTORE PUSH1 0x4 ADD PUSH1 0x0 PUSH1 0x40 MLOAD DUP1 DUP4 SUB DUP2 DUP6 DUP9 DUP1 EXTCODESIZE ISZERO DUP1 ISZERO PUSH2 0x1BC7 JUMPI PUSH1 0x0 DUP1 REVERT JUMPDEST POP GAS CALL ISZERO DUP1 ISZERO PUSH2 0x1BDB JUMPI RETURNDATASIZE PUSH1 0x0 DUP1 RETURNDATACOPY RETURNDATASIZE PUSH1 0x0 REVERT JUMPDEST POP POP POP POP POP PUSH32 0x0 PUSH1 0x1 PUSH1 0x1 PUSH1 0xA0 SHL SUB AND PUSH4 0xA9059CBB PUSH2 0x1C25 DUP9 DUP9 PUSH1 0x0 DUP2 DUP2 LT PUSH2 0x16C9 JUMPI PUSH2 0x16C9 PUSH2 0x428F JUMP JUMPDEST DUP4 PUSH1 0x40 MLOAD DUP4 PUSH4 0xFFFFFFFF AND PUSH1 0xE0 SHL DUP2 MSTORE PUSH1 0x4 ADD PUSH2 0x1C43 SWAP3 SWAP2 SWAP1 PUSH2 0x44CD JUMP JUMPDEST PUSH1 0x20 PUSH1 0x40 MLOAD DUP1 DUP4 SUB DUP2 PUSH1 0x0 DUP8 GAS CALL ISZERO DUP1 ISZERO PUSH2 0x1C62 JUMPI RETURNDATASIZE PUSH1 0x0 DUP1 RETURNDATACOPY RETURNDATASIZE PUSH1 0x0 REVERT JUMPDEST POP POP POP POP PUSH1 0x40 MLOAD RETURNDATASIZE PUSH1 0x1F NOT PUSH1 0x1F DUP3 ADD AND DUP3 ADD DUP1 PUSH1 0x40 MSTORE POP DUP2 ADD SWAP1 PUSH2 0x1C86 SWAP2 SWAP1 PUSH2 0x41C8 JUMP JUMPDEST PUSH2 0x1C92 JUMPI PUSH2 0x1C92 PUSH2 0x386E JUMP JUMPDEST PUSH1 0x0 DUP7 DUP7 PUSH2 0x1CA1 PUSH1 0x1 DUP3 PUSH2 0x42BB JUMP JUMPDEST DUP2 DUP2 LT PUSH2 0x1CB0 JUMPI PUSH2 0x1CB0 PUSH2 0x428F JUMP JUMPDEST SWAP1 POP PUSH1 0x60 MUL ADD PUSH1 0x20 ADD PUSH1 0x20 DUP2 ADD SWAP1 PUSH2 0x1CC8 SWAP2 SWAP1 PUSH2 0x4158 JUMP JUMPDEST PUSH1 0x1 PUSH1 0x1 PUSH1 0xA0 SHL SUB AND PUSH4 0x70A08231 DUP7 PUSH1 0x40 MLOAD DUP3 PUSH4 0xFFFFFFFF AND PUSH1 0xE0 SHL DUP2 MSTORE PUSH1 0x4 ADD PUSH2 0x1CF3 SWAP2 SWAP1 PUSH2 0x3C0B JUMP JUMPDEST PUSH1 0x20 PUSH1 0x40 MLOAD DUP1 DUP4 SUB DUP2 DUP7 GAS STATICCALL ISZERO DUP1 ISZERO PUSH2 0x1D10 JUMPI RETURNDATASIZE PUSH1 0x0 DUP1 RETURNDATACOPY RETURNDATASIZE PUSH1 0x0 REVERT JUMPDEST POP POP POP POP PUSH1 0x40 MLOAD RETURNDATASIZE PUSH1 0x1F NOT PUSH1 0x1F DUP3 ADD AND DUP3 ADD DUP1 PUSH1 0x40 MSTORE POP DUP2 ADD SWAP1 PUSH2 0x1D34 SWAP2 SWAP1 PUSH2 0x43C7 JUMP JUMPDEST SWAP1 POP PUSH2 0x1D41 DUP8 DUP8 DUP8 PUSH2 0x321D JUMP JUMPDEST DUP8 PUSH2 0x19CF DUP3 DUP10 DUP10 PUSH2 0x1D53 PUSH1 0x1 DUP3 PUSH2 0x42BB JUMP JUMPDEST DUP2 DUP2 LT PUSH2 0x1D62 JUMPI PUSH2 0x1D62 PUSH2 0x428F JUMP JUMPDEST SWAP1 POP PUSH1 0x60 MUL ADD PUSH1 0x20 ADD PUSH1 0x20 DUP2 ADD SWAP1 PUSH2 0x1D7A SWAP2 SWAP1 PUSH2 0x4158 JUMP JUMPDEST PUSH1 0x1 PUSH1 0x1 PUSH1 0xA0 SHL SUB AND PUSH4 0x70A08231 DUP10 PUSH1 0x40 MLOAD DUP3 PUSH4 0xFFFFFFFF AND PUSH1 0xE0 SHL DUP2 MSTORE PUSH1 0x4 ADD PUSH2 0x1988 SWAP2 SWAP1 PUSH2 0x3C0B JUMP JUMPDEST DUP1 TIMESTAMP DUP2 LT ISZERO PUSH2 0x1DC6 JUMPI PUSH1 0x40 MLOAD PUSH3 0x461BCD PUSH1 0xE5 SHL DUP2 MSTORE PUSH1 0x4 ADD PUSH2 0x5A2 SWAP1 PUSH2 0x4175 JUMP JUMPDEST PUSH1 0x1 PUSH1 0x1 PUSH1 0xA0 SHL SUB PUSH32 0x0 AND DUP6 DUP6 PUSH2 0x1DFD PUSH1 0x1 DUP3 PUSH2 0x42BB JUMP JUMPDEST DUP2 DUP2 LT PUSH2 0x1E0C JUMPI PUSH2 0x1E0C PUSH2 0x428F JUMP JUMPDEST SWAP1 POP PUSH1 0x60 MUL ADD PUSH1 0x20 ADD PUSH1 0x20 DUP2 ADD SWAP1 PUSH2 0x1E24 SWAP2 SWAP1 PUSH2 0x4158 JUMP JUMPDEST PUSH1 0x1 PUSH1 0x1 PUSH1 0xA0 SHL SUB AND EQ PUSH2 0x1E4A JUMPI PUSH1 0x40 MLOAD PUSH3 0x461BCD PUSH1 0xE5 SHL DUP2 MSTORE PUSH1 0x4 ADD PUSH2 0x5A2 SWAP1 PUSH2 0x4316 JUMP JUMPDEST PUSH2 0x1E60 DUP6 DUP6 PUSH1 0x0 DUP2 DUP2 LT PUSH2 0x1842 JUMPI PUSH2 0x1842 PUSH2 0x428F JUMP JUMPDEST PUSH2 0x1E6B DUP6 DUP6 ADDRESS PUSH2 0x321D JUMP JUMPDEST PUSH1 0x40 MLOAD PUSH4 0x70A08231 PUSH1 0xE0 SHL DUP2 MSTORE PUSH1 0x0 SWAP1 PUSH1 0x1 PUSH1 0x1 PUSH1 0xA0 SHL SUB PUSH32 0x0 AND SWAP1 PUSH4 0x70A08231 SWAP1 PUSH2 0x1EBA SWAP1 ADDRESS SWAP1 PUSH1 0x4 ADD PUSH2 0x3C0B JUMP JUMPDEST PUSH1 0x20 PUSH1 0x40 MLOAD DUP1 DUP4 SUB DUP2 DUP7 GAS STATICCALL ISZERO DUP1 ISZERO PUSH2 0x1ED7 JUMPI RETURNDATASIZE PUSH1 0x0 DUP1 RETURNDATACOPY RETURNDATASIZE PUSH1 0x0 REVERT JUMPDEST POP POP POP POP PUSH1 0x40 MLOAD RETURNDATASIZE PUSH1 0x1F NOT PUSH1 0x1F DUP3 ADD AND DUP3 ADD DUP1 PUSH1 0x40 MSTORE POP DUP2 ADD SWAP1 PUSH2 0x1EFB SWAP2 SWAP1 PUSH2 0x43C7 JUMP JUMPDEST SWAP1 POP DUP7 DUP2 LT ISZERO PUSH2 0x1F1D JUMPI PUSH1 0x40 MLOAD PUSH3 0x461BCD PUSH1 0xE5 SHL DUP2 MSTORE PUSH1 0x4 ADD PUSH2 0x5A2 SWAP1 PUSH2 0x42CE JUMP JUMPDEST PUSH1 0x40 MLOAD PUSH4 0x2E1A7D4D PUSH1 0xE0 SHL DUP2 MSTORE PUSH1 0x4 DUP2 ADD DUP3 SWAP1 MSTORE PUSH32 0x0 PUSH1 0x1 PUSH1 0x1 PUSH1 0xA0 SHL SUB AND SWAP1 PUSH4 0x2E1A7D4D SWAP1 PUSH1 0x24 ADD PUSH1 0x0 PUSH1 0x40 MLOAD DUP1 DUP4 SUB DUP2 PUSH1 0x0 DUP8 DUP1 EXTCODESIZE ISZERO DUP1 ISZERO PUSH2 0x1F7F JUMPI PUSH1 0x0 DUP1 REVERT JUMPDEST POP GAS CALL ISZERO DUP1 ISZERO PUSH2 0x1F93 JUMPI RETURNDATASIZE PUSH1 0x0 DUP1 RETURNDATACOPY RETURNDATASIZE PUSH1 0x0 REVERT JUMPDEST POP POP POP POP PUSH2 0x19ED DUP5 DUP3 PUSH2 0x2F31 JUMP JUMPDEST PUSH1 0x60 PUSH1 0x1 DUP3 MLOAD LT ISZERO PUSH2 0x1FC5 JUMPI PUSH1 0x40 MLOAD PUSH3 0x461BCD PUSH1 0xE5 SHL DUP2 MSTORE PUSH1 0x4 ADD PUSH2 0x5A2 SWAP1 PUSH2 0x4316 JUMP JUMPDEST DUP2 MLOAD PUSH2 0x1FD2 SWAP1 PUSH1 0x1 PUSH2 0x44E6 JUMP JUMPDEST PUSH1 0x1 PUSH1 0x1 PUSH1 0x40 SHL SUB DUP2 GT ISZERO PUSH2 0x1FE9 JUMPI PUSH2 0x1FE9 PUSH2 0x3D85 JUMP JUMPDEST PUSH1 0x40 MLOAD SWAP1 DUP1 DUP3 MSTORE DUP1 PUSH1 0x20 MUL PUSH1 0x20 ADD DUP3 ADD PUSH1 0x40 MSTORE DUP1 ISZERO PUSH2 0x2012 JUMPI DUP2 PUSH1 0x20 ADD PUSH1 0x20 DUP3 MUL DUP1 CALLDATASIZE DUP4 CALLDATACOPY ADD SWAP1 POP JUMPDEST POP SWAP1 POP DUP3 DUP2 PUSH1 0x0 DUP2 MLOAD DUP2 LT PUSH2 0x2029 JUMPI PUSH2 0x2029 PUSH2 0x428F JUMP JUMPDEST PUSH1 0x20 MUL PUSH1 0x20 ADD ADD DUP2 DUP2 MSTORE POP POP PUSH1 0x0 JUMPDEST DUP3 MLOAD DUP2 LT ISZERO PUSH2 0x2200 JUMPI PUSH1 0x0 PUSH2 0x2094 DUP5 DUP4 DUP2 MLOAD DUP2 LT PUSH2 0x2058 JUMPI PUSH2 0x2058 PUSH2 0x428F JUMP JUMPDEST PUSH1 0x20 MUL PUSH1 0x20 ADD ADD MLOAD PUSH1 0x0 ADD MLOAD DUP6 DUP5 DUP2 MLOAD DUP2 LT PUSH2 0x2076 JUMPI PUSH2 0x2076 PUSH2 0x428F JUMP JUMPDEST PUSH1 0x20 MUL PUSH1 0x20 ADD ADD MLOAD PUSH1 0x20 ADD MLOAD DUP7 DUP6 DUP2 MLOAD DUP2 LT PUSH2 0x8FF JUMPI PUSH2 0x8FF PUSH2 0x428F JUMP JUMPDEST PUSH1 0x40 MLOAD PUSH4 0xE5E31B13 PUSH1 0xE0 SHL DUP2 MSTORE SWAP1 SWAP2 POP PUSH1 0x1 PUSH1 0x1 PUSH1 0xA0 SHL SUB PUSH32 0x0 AND SWAP1 PUSH4 0xE5E31B13 SWAP1 PUSH2 0x20E3 SWAP1 DUP5 SWAP1 PUSH1 0x4 ADD PUSH2 0x3C0B JUMP JUMPDEST PUSH1 0x20 PUSH1 0x40 MLOAD DUP1 DUP4 SUB DUP2 DUP7 GAS STATICCALL ISZERO DUP1 ISZERO PUSH2 0x2100 JUMPI RETURNDATASIZE PUSH1 0x0 DUP1 RETURNDATACOPY RETURNDATASIZE PUSH1 0x0 REVERT JUMPDEST POP POP POP POP PUSH1 0x40 MLOAD RETURNDATASIZE PUSH1 0x1F NOT PUSH1 0x1F DUP3 ADD AND DUP3 ADD DUP1 PUSH1 0x40 MSTORE POP DUP2 ADD SWAP1 PUSH2 0x2124 SWAP2 SWAP1 PUSH2 0x41C8 JUMP JUMPDEST ISZERO PUSH2 0x21F7 JUMPI DUP1 PUSH1 0x1 PUSH1 0x1 PUSH1 0xA0 SHL SUB AND PUSH4 0xF140A35A DUP5 DUP5 DUP2 MLOAD DUP2 LT PUSH2 0x214A JUMPI PUSH2 0x214A PUSH2 0x428F JUMP JUMPDEST PUSH1 0x20 MUL PUSH1 0x20 ADD ADD MLOAD DUP7 DUP6 DUP2 MLOAD DUP2 LT PUSH2 0x2164 JUMPI PUSH2 0x2164 PUSH2 0x428F JUMP JUMPDEST PUSH1 0x20 MUL PUSH1 0x20 ADD ADD MLOAD PUSH1 0x0 ADD MLOAD PUSH1 0x40 MLOAD DUP4 PUSH4 0xFFFFFFFF AND PUSH1 0xE0 SHL DUP2 MSTORE PUSH1 0x4 ADD PUSH2 0x218D SWAP3 SWAP2 SWAP1 PUSH2 0x445A JUMP JUMPDEST PUSH1 0x20 PUSH1 0x40 MLOAD DUP1 DUP4 SUB DUP2 DUP7 GAS STATICCALL ISZERO DUP1 ISZERO PUSH2 0x21AA JUMPI RETURNDATASIZE PUSH1 0x0 DUP1 RETURNDATACOPY RETURNDATASIZE PUSH1 0x0 REVERT JUMPDEST POP POP POP POP PUSH1 0x40 MLOAD RETURNDATASIZE PUSH1 0x1F NOT PUSH1 0x1F DUP3 ADD AND DUP3 ADD DUP1 PUSH1 0x40 MSTORE POP DUP2 ADD SWAP1 PUSH2 0x21CE SWAP2 SWAP1 PUSH2 0x43C7 JUMP JUMPDEST DUP4 PUSH2 0x21DA DUP5 PUSH1 0x1 PUSH2 0x44E6 JUMP JUMPDEST DUP2 MLOAD DUP2 LT PUSH2 0x21EA JUMPI PUSH2 0x21EA PUSH2 0x428F JUMP JUMPDEST PUSH1 0x20 MUL PUSH1 0x20 ADD ADD DUP2 DUP2 MSTORE POP POP JUMPDEST POP PUSH1 0x1 ADD PUSH2 0x2038 JUMP JUMPDEST POP SWAP3 SWAP2 POP POP JUMP JUMPDEST PUSH1 0x0 DUP1 PUSH1 0x0 DUP1 PUSH32 0x0 PUSH1 0x1 PUSH1 0x1 PUSH1 0xA0 SHL SUB AND PUSH4 0x6801CC30 DUP11 DUP11 DUP11 PUSH1 0x40 MLOAD DUP5 PUSH4 0xFFFFFFFF AND PUSH1 0xE0 SHL DUP2 MSTORE PUSH1 0x4 ADD PUSH2 0x225D SWAP4 SWAP3 SWAP2 SWAP1 PUSH2 0x4386 JUMP JUMPDEST PUSH1 0x20 PUSH1 0x40 MLOAD DUP1 DUP4 SUB DUP2 DUP7 GAS STATICCALL ISZERO DUP1 ISZERO PUSH2 0x227A JUMPI RETURNDATASIZE PUSH1 0x0 DUP1 RETURNDATACOPY RETURNDATASIZE PUSH1 0x0 REVERT JUMPDEST POP POP POP POP PUSH1 0x40 MLOAD RETURNDATASIZE PUSH1 0x1F NOT PUSH1 0x1F DUP3 ADD AND DUP3 ADD DUP1 PUSH1 0x40 MSTORE POP DUP2 ADD SWAP1 PUSH2 0x229E SWAP2 SWAP1 PUSH2 0x43AA JUMP JUMPDEST SWAP1 POP PUSH1 0x0 DUP1 DUP1 PUSH1 0x1 PUSH1 0x1 PUSH1 0xA0 SHL SUB DUP5 AND ISZERO PUSH2 0x2328 JUMPI DUP4 PUSH1 0x1 PUSH1 0x1 PUSH1 0xA0 SHL SUB AND PUSH4 0x18160DDD PUSH1 0x40 MLOAD DUP2 PUSH4 0xFFFFFFFF AND PUSH1 0xE0 SHL DUP2 MSTORE PUSH1 0x4 ADD PUSH1 0x20 PUSH1 0x40 MLOAD DUP1 DUP4 SUB DUP2 DUP7 GAS STATICCALL ISZERO DUP1 ISZERO PUSH2 0x22F1 JUMPI RETURNDATASIZE PUSH1 0x0 DUP1 RETURNDATACOPY RETURNDATASIZE PUSH1 0x0 REVERT JUMPDEST POP POP POP POP PUSH1 0x40 MLOAD RETURNDATASIZE PUSH1 0x1F NOT PUSH1 0x1F DUP3 ADD AND DUP3 ADD DUP1 PUSH1 0x40 MSTORE POP DUP2 ADD SWAP1 PUSH2 0x2315 SWAP2 SWAP1 PUSH2 0x43C7 JUMP JUMPDEST SWAP1 POP PUSH2 0x2322 DUP13 DUP13 DUP13 PUSH2 0x13F6 JUMP JUMPDEST SWAP1 SWAP4 POP SWAP2 POP JUMPDEST DUP3 ISZERO DUP1 ISZERO PUSH2 0x2334 JUMPI POP DUP2 ISZERO JUMPDEST ISZERO PUSH2 0x2365 JUMPI DUP9 SWAP7 POP DUP8 SWAP6 POP PUSH2 0x3E8 PUSH2 0x2354 PUSH2 0x234F DUP9 DUP11 PUSH2 0x43E0 JUMP JUMPDEST PUSH2 0x360D JUMP JUMPDEST PUSH2 0x235E SWAP2 SWAP1 PUSH2 0x42BB JUMP JUMPDEST SWAP5 POP PUSH2 0x23F8 JUMP JUMPDEST PUSH1 0x0 PUSH2 0x2372 DUP11 DUP6 DUP6 PUSH2 0x367D JUMP JUMPDEST SWAP1 POP DUP9 DUP2 GT PUSH2 0x23BA JUMPI DUP10 SWAP8 POP SWAP6 POP DUP6 PUSH2 0x23B3 DUP5 PUSH2 0x238F DUP5 DUP12 PUSH2 0x43E0 JUMP JUMPDEST PUSH2 0x2399 SWAP2 SWAP1 PUSH2 0x43F7 JUMP JUMPDEST DUP5 PUSH2 0x23A4 DUP6 DUP12 PUSH2 0x43E0 JUMP JUMPDEST PUSH2 0x23AE SWAP2 SWAP1 PUSH2 0x43F7 JUMP JUMPDEST PUSH2 0x375D JUMP JUMPDEST SWAP6 POP PUSH2 0x23F6 JUMP JUMPDEST PUSH1 0x0 PUSH2 0x23C7 DUP11 DUP6 DUP8 PUSH2 0x367D JUMP JUMPDEST SWAP9 POP DUP10 SWAP8 POP DUP9 SWAP1 POP PUSH2 0x23F2 DUP6 PUSH2 0x23DD DUP6 DUP5 PUSH2 0x43E0 JUMP JUMPDEST PUSH2 0x23E7 SWAP2 SWAP1 PUSH2 0x43F7 JUMP JUMPDEST DUP6 PUSH2 0x23A4 DUP7 DUP13 PUSH2 0x43E0 JUMP JUMPDEST SWAP7 POP POP JUMPDEST POP JUMPDEST POP POP POP POP SWAP6 POP SWAP6 POP SWAP6 SWAP3 POP POP POP JUMP JUMPDEST PUSH1 0x0 DUP1 PUSH1 0x0 PUSH2 0x2417 DUP16 DUP16 DUP16 PUSH2 0xED3 JUMP JUMPDEST SWAP1 POP PUSH1 0x0 DUP8 PUSH2 0x2426 JUMPI DUP13 PUSH2 0x242A JUMP JUMPDEST PUSH1 0x0 NOT JUMPDEST PUSH1 0x40 MLOAD PUSH4 0xD505ACCF PUSH1 0xE0 SHL DUP2 MSTORE SWAP1 SWAP2 POP PUSH1 0x1 PUSH1 0x1 PUSH1 0xA0 SHL SUB DUP4 AND SWAP1 PUSH4 0xD505ACCF SWAP1 PUSH2 0x2465 SWAP1 CALLER SWAP1 ADDRESS SWAP1 DUP7 SWAP1 DUP16 SWAP1 DUP15 SWAP1 DUP15 SWAP1 DUP15 SWAP1 PUSH1 0x4 ADD PUSH2 0x4419 JUMP JUMPDEST PUSH1 0x0 PUSH1 0x40 MLOAD DUP1 DUP4 SUB DUP2 PUSH1 0x0 DUP8 DUP1 EXTCODESIZE ISZERO DUP1 ISZERO PUSH2 0x247F JUMPI PUSH1 0x0 DUP1 REVERT JUMPDEST POP GAS CALL ISZERO DUP1 ISZERO PUSH2 0x2493 JUMPI RETURNDATASIZE PUSH1 0x0 DUP1 RETURNDATACOPY RETURNDATASIZE PUSH1 0x0 REVERT JUMPDEST POP POP POP POP POP PUSH2 0x24A8 DUP16 DUP16 DUP16 DUP16 DUP16 DUP16 DUP16 DUP16 PUSH2 0x57E JUMP JUMPDEST DUP1 SWAP4 POP DUP2 SWAP5 POP POP POP POP SWAP13 POP SWAP13 SWAP11 POP POP POP POP POP POP POP POP POP POP POP JUMP JUMPDEST PUSH1 0x0 DUP1 PUSH1 0x0 DUP4 TIMESTAMP DUP2 LT ISZERO PUSH2 0x24E8 JUMPI PUSH1 0x40 MLOAD PUSH3 0x461BCD PUSH1 0xE5 SHL DUP2 MSTORE PUSH1 0x4 ADD PUSH2 0x5A2 SWAP1 PUSH2 0x4175 JUMP JUMPDEST PUSH2 0x2517 DUP12 PUSH32 0x0 DUP13 DUP13 CALLVALUE DUP14 DUP14 PUSH2 0x2FFF JUMP JUMPDEST SWAP1 SWAP5 POP SWAP3 POP PUSH1 0x0 PUSH2 0x2549 DUP13 PUSH32 0x0 DUP14 PUSH2 0xED3 JUMP JUMPDEST SWAP1 POP PUSH2 0x2557 DUP13 CALLER DUP4 DUP9 PUSH2 0x2B45 JUMP JUMPDEST PUSH32 0x0 PUSH1 0x1 PUSH1 0x1 PUSH1 0xA0 SHL SUB AND PUSH4 0xD0E30DB0 DUP6 PUSH1 0x40 MLOAD DUP3 PUSH4 0xFFFFFFFF AND PUSH1 0xE0 SHL DUP2 MSTORE PUSH1 0x4 ADD PUSH1 0x0 PUSH1 0x40 MLOAD DUP1 DUP4 SUB DUP2 DUP6 DUP9 DUP1 EXTCODESIZE ISZERO DUP1 ISZERO PUSH2 0x25B2 JUMPI PUSH1 0x0 DUP1 REVERT JUMPDEST POP GAS CALL ISZERO DUP1 ISZERO PUSH2 0x25C6 JUMPI RETURNDATASIZE PUSH1 0x0 DUP1 RETURNDATACOPY RETURNDATASIZE PUSH1 0x0 REVERT JUMPDEST POP POP PUSH1 0x40 MLOAD PUSH4 0xA9059CBB PUSH1 0xE0 SHL DUP2 MSTORE PUSH1 0x1 PUSH1 0x1 PUSH1 0xA0 SHL SUB PUSH32 0x0 AND SWAP4 POP PUSH4 0xA9059CBB SWAP3 POP PUSH2 0x2619 SWAP2 POP DUP5 SWAP1 DUP9 SWAP1 PUSH1 0x4 ADD PUSH2 0x44CD JUMP JUMPDEST PUSH1 0x20 PUSH1 0x40 MLOAD DUP1 DUP4 SUB DUP2 PUSH1 0x0 DUP8 GAS CALL ISZERO DUP1 ISZERO PUSH2 0x2638 JUMPI RETURNDATASIZE PUSH1 0x0 DUP1 RETURNDATACOPY RETURNDATASIZE PUSH1 0x0 REVERT JUMPDEST POP POP POP POP PUSH1 0x40 MLOAD RETURNDATASIZE PUSH1 0x1F NOT PUSH1 0x1F DUP3 ADD AND DUP3 ADD DUP1 PUSH1 0x40 MSTORE POP DUP2 ADD SWAP1 PUSH2 0x265C SWAP2 SWAP1 PUSH2 0x41C8 JUMP JUMPDEST PUSH2 0x2668 JUMPI PUSH2 0x2668 PUSH2 0x386E JUMP JUMPDEST PUSH1 0x40 MLOAD PUSH4 0x35313C21 PUSH1 0xE1 SHL DUP2 MSTORE PUSH1 0x1 PUSH1 0x1 PUSH1 0xA0 SHL SUB DUP3 AND SWAP1 PUSH4 0x6A627842 SWAP1 PUSH2 0x2694 SWAP1 DUP11 SWAP1 PUSH1 0x4 ADD PUSH2 0x3C0B JUMP JUMPDEST PUSH1 0x20 PUSH1 0x40 MLOAD DUP1 DUP4 SUB DUP2 PUSH1 0x0 DUP8 GAS CALL ISZERO DUP1 ISZERO PUSH2 0x26B3 JUMPI RETURNDATASIZE PUSH1 0x0 DUP1 RETURNDATACOPY RETURNDATASIZE PUSH1 0x0 REVERT JUMPDEST POP POP POP POP PUSH1 0x40 MLOAD RETURNDATASIZE PUSH1 0x1F NOT PUSH1 0x1F DUP3 ADD AND DUP3 ADD DUP1 PUSH1 0x40 MSTORE POP DUP2 ADD SWAP1 PUSH2 0x26D7 SWAP2 SWAP1 PUSH2 0x43C7 JUMP JUMPDEST SWAP3 POP DUP4 CALLVALUE GT ISZERO PUSH2 0x26F4 JUMPI PUSH2 0x26F4 CALLER PUSH2 0x26EF DUP7 CALLVALUE PUSH2 0x42BB JUMP JUMPDEST PUSH2 0x2F31 JUMP JUMPDEST POP POP SWAP8 POP SWAP8 POP SWAP8 SWAP5 POP POP POP POP POP JUMP JUMPDEST PUSH1 0x0 DUP1 DUP3 TIMESTAMP DUP2 LT ISZERO PUSH2 0x2727 JUMPI PUSH1 0x40 MLOAD PUSH3 0x461BCD PUSH1 0xE5 SHL DUP2 MSTORE PUSH1 0x4 ADD PUSH2 0x5A2 SWAP1 PUSH2 0x4175 JUMP JUMPDEST PUSH2 0x2757 DUP11 PUSH32 0x0 DUP12 DUP12 DUP12 DUP12 ADDRESS DUP12 PUSH2 0x57E JUMP JUMPDEST SWAP1 SWAP4 POP SWAP2 POP PUSH2 0x2767 DUP11 DUP7 DUP6 PUSH2 0x3775 JUMP JUMPDEST PUSH1 0x40 MLOAD PUSH4 0x2E1A7D4D PUSH1 0xE0 SHL DUP2 MSTORE PUSH1 0x4 DUP2 ADD DUP4 SWAP1 MSTORE PUSH32 0x0 PUSH1 0x1 PUSH1 0x1 PUSH1 0xA0 SHL SUB AND SWAP1 PUSH4 0x2E1A7D4D SWAP1 PUSH1 0x24 ADD PUSH1 0x0 PUSH1 0x40 MLOAD DUP1 DUP4 SUB DUP2 PUSH1 0x0 DUP8 DUP1 EXTCODESIZE ISZERO DUP1 ISZERO PUSH2 0x27C9 JUMPI PUSH1 0x0 DUP1 REVERT JUMPDEST POP GAS CALL ISZERO DUP1 ISZERO PUSH2 0x27DD JUMPI RETURNDATASIZE PUSH1 0x0 DUP1 RETURNDATACOPY RETURNDATASIZE PUSH1 0x0 REVERT JUMPDEST POP POP POP POP PUSH2 0x27EB DUP6 DUP4 PUSH2 0x2F31 JUMP JUMPDEST POP SWAP8 POP SWAP8 SWAP6 POP POP POP POP POP POP JUMP JUMPDEST PUSH1 0x0 DUP1 PUSH1 0x0 PUSH2 0x2828 DUP15 PUSH32 0x0 DUP16 PUSH2 0xED3 JUMP JUMPDEST SWAP1 POP PUSH1 0x0 DUP8 PUSH2 0x2837 JUMPI DUP13 PUSH2 0x283B JUMP JUMPDEST PUSH1 0x0 NOT JUMPDEST PUSH1 0x40 MLOAD PUSH4 0xD505ACCF PUSH1 0xE0 SHL DUP2 MSTORE SWAP1 SWAP2 POP PUSH1 0x1 PUSH1 0x1 PUSH1 0xA0 SHL SUB DUP4 AND SWAP1 PUSH4 0xD505ACCF SWAP1 PUSH2 0x2876 SWAP1 CALLER SWAP1 ADDRESS SWAP1 DUP7 SWAP1 DUP16 SWAP1 DUP15 SWAP1 DUP15 SWAP1 DUP15 SWAP1 PUSH1 0x4 ADD PUSH2 0x4419 JUMP JUMPDEST PUSH1 0x0 PUSH1 0x40 MLOAD DUP1 DUP4 SUB DUP2 PUSH1 0x0 DUP8 DUP1 EXTCODESIZE ISZERO DUP1 ISZERO PUSH2 0x2890 JUMPI PUSH1 0x0 DUP1 REVERT JUMPDEST POP GAS CALL ISZERO DUP1 ISZERO PUSH2 0x28A4 JUMPI RETURNDATASIZE PUSH1 0x0 DUP1 RETURNDATACOPY RETURNDATASIZE PUSH1 0x0 REVERT JUMPDEST POP POP POP POP PUSH2 0xEB9 DUP16 DUP16 DUP16 DUP16 DUP16 DUP16 DUP16 PUSH2 0x2A72 JUMP JUMPDEST PUSH1 0x40 MLOAD PUSH4 0xE5E31B13 PUSH1 0xE0 SHL DUP2 MSTORE PUSH1 0x0 SWAP1 PUSH1 0x1 PUSH1 0x1 PUSH1 0xA0 SHL SUB PUSH32 0x0 AND SWAP1 PUSH4 0xE5E31B13 SWAP1 PUSH2 0x2906 SWAP1 DUP6 SWAP1 PUSH1 0x4 ADD PUSH2 0x3C0B JUMP JUMPDEST PUSH1 0x20 PUSH1 0x40 MLOAD DUP1 DUP4 SUB DUP2 DUP7 GAS STATICCALL ISZERO DUP1 ISZERO PUSH2 0x2923 JUMPI RETURNDATASIZE PUSH1 0x0 DUP1 RETURNDATACOPY RETURNDATASIZE PUSH1 0x0 REVERT JUMPDEST POP POP POP POP PUSH1 0x40 MLOAD RETURNDATASIZE PUSH1 0x1F NOT PUSH1 0x1F DUP3 ADD AND DUP3 ADD DUP1 PUSH1 0x40 MSTORE POP DUP2 ADD SWAP1 PUSH2 0x2947 SWAP2 SWAP1 PUSH2 0x41C8 JUMP JUMPDEST SWAP3 SWAP2 POP POP JUMP JUMPDEST PUSH1 0x60 DUP2 TIMESTAMP DUP2 LT ISZERO PUSH2 0x2970 JUMPI PUSH1 0x40 MLOAD PUSH3 0x461BCD PUSH1 0xE5 SHL DUP2 MSTORE PUSH1 0x4 ADD PUSH2 0x5A2 SWAP1 PUSH2 0x4175 JUMP JUMPDEST PUSH2 0x29C2 DUP9 DUP8 DUP8 DUP1 DUP1 PUSH1 0x20 MUL PUSH1 0x20 ADD PUSH1 0x40 MLOAD SWAP1 DUP2 ADD PUSH1 0x40 MSTORE DUP1 SWAP4 SWAP3 SWAP2 SWAP1 DUP2 DUP2 MSTORE PUSH1 0x20 ADD PUSH1 0x0 SWAP1 JUMPDEST DUP3 DUP3 LT ISZERO PUSH2 0xA41 JUMPI PUSH2 0x29B3 PUSH1 0x60 DUP4 MUL DUP7 ADD CALLDATASIZE DUP2 SWAP1 SUB DUP2 ADD SWAP1 PUSH2 0x434D JUMP JUMPDEST DUP2 MSTORE PUSH1 0x20 ADD SWAP1 PUSH1 0x1 ADD SWAP1 PUSH2 0x2996 JUMP JUMPDEST SWAP2 POP DUP7 DUP3 PUSH1 0x1 DUP5 MLOAD PUSH2 0x29D4 SWAP2 SWAP1 PUSH2 0x42BB JUMP JUMPDEST DUP2 MLOAD DUP2 LT PUSH2 0x29E4 JUMPI PUSH2 0x29E4 PUSH2 0x428F JUMP JUMPDEST PUSH1 0x20 MUL PUSH1 0x20 ADD ADD MLOAD LT ISZERO PUSH2 0x2A0A JUMPI PUSH1 0x40 MLOAD PUSH3 0x461BCD PUSH1 0xE5 SHL DUP2 MSTORE PUSH1 0x4 ADD PUSH2 0x5A2 SWAP1 PUSH2 0x42CE JUMP JUMPDEST PUSH2 0x2A20 DUP7 DUP7 PUSH1 0x0 DUP2 DUP2 LT PUSH2 0xAA9 JUMPI PUSH2 0xAA9 PUSH2 0x428F JUMP JUMPDEST PUSH2 0xC88 DUP3 DUP8 DUP8 DUP1 DUP1 PUSH1 0x20 MUL PUSH1 0x20 ADD PUSH1 0x40 MLOAD SWAP1 DUP2 ADD PUSH1 0x40 MSTORE DUP1 SWAP4 SWAP3 SWAP2 SWAP1 DUP2 DUP2 MSTORE PUSH1 0x20 ADD PUSH1 0x0 SWAP1 JUMPDEST DUP3 DUP3 LT ISZERO PUSH2 0x17F6 JUMPI PUSH2 0x2A63 PUSH1 0x60 DUP4 MUL DUP7 ADD CALLDATASIZE DUP2 SWAP1 SUB DUP2 ADD SWAP1 PUSH2 0x434D JUMP JUMPDEST DUP2 MSTORE PUSH1 0x20 ADD SWAP1 PUSH1 0x1 ADD SWAP1 PUSH2 0x2A46 JUMP JUMPDEST PUSH1 0x0 DUP1 DUP3 TIMESTAMP DUP2 LT ISZERO PUSH2 0x2A96 JUMPI PUSH1 0x40 MLOAD PUSH3 0x461BCD PUSH1 0xE5 SHL DUP2 MSTORE PUSH1 0x4 ADD PUSH2 0x5A2 SWAP1 PUSH2 0x4175 JUMP JUMPDEST PUSH2 0x2AC6 DUP11 PUSH32 0x0 DUP12 DUP12 DUP12 DUP12 ADDRESS DUP12 PUSH2 0x57E JUMP JUMPDEST PUSH1 0x40 MLOAD PUSH4 0x70A08231 PUSH1 0xE0 SHL DUP2 MSTORE SWAP2 SWAP5 POP SWAP3 POP PUSH2 0x2767 SWAP1 DUP12 SWAP1 DUP8 SWAP1 PUSH1 0x1 PUSH1 0x1 PUSH1 0xA0 SHL SUB DUP4 AND SWAP1 PUSH4 0x70A08231 SWAP1 PUSH2 0x2AFF SWAP1 ADDRESS SWAP1 PUSH1 0x4 ADD PUSH2 0x3C0B JUMP JUMPDEST PUSH1 0x20 PUSH1 0x40 MLOAD DUP1 DUP4 SUB DUP2 DUP7 GAS STATICCALL ISZERO DUP1 ISZERO PUSH2 0x2B1C JUMPI RETURNDATASIZE PUSH1 0x0 DUP1 RETURNDATACOPY RETURNDATASIZE PUSH1 0x0 REVERT JUMPDEST POP POP POP POP PUSH1 0x40 MLOAD RETURNDATASIZE PUSH1 0x1F NOT PUSH1 0x1F DUP3 ADD AND DUP3 ADD DUP1 PUSH1 0x40 MSTORE POP DUP2 ADD SWAP1 PUSH2 0x2B40 SWAP2 SWAP1 PUSH2 0x43C7 JUMP JUMPDEST PUSH2 0x3775 JUMP JUMPDEST PUSH1 0x0 DUP5 PUSH1 0x1 PUSH1 0x1 PUSH1 0xA0 SHL SUB AND EXTCODESIZE GT PUSH2 0x2B5C JUMPI PUSH1 0x0 DUP1 REVERT JUMPDEST PUSH1 0x0 DUP1 DUP6 PUSH1 0x1 PUSH1 0x1 PUSH1 0xA0 SHL SUB AND PUSH4 0x23B872DD PUSH1 0xE0 SHL DUP7 DUP7 DUP7 PUSH1 0x40 MLOAD PUSH1 0x24 ADD PUSH2 0x2B86 SWAP4 SWAP3 SWAP2 SWAP1 PUSH2 0x41A4 JUMP JUMPDEST PUSH1 0x40 DUP1 MLOAD PUSH1 0x1F NOT DUP2 DUP5 SUB ADD DUP2 MSTORE SWAP2 DUP2 MSTORE PUSH1 0x20 DUP3 ADD DUP1 MLOAD PUSH1 0x1 PUSH1 0x1 PUSH1 0xE0 SHL SUB AND PUSH1 0x1 PUSH1 0x1 PUSH1 0xE0 SHL SUB NOT SWAP1 SWAP5 AND SWAP4 SWAP1 SWAP4 OR SWAP1 SWAP3 MSTORE SWAP1 MLOAD PUSH2 0x2BC4 SWAP2 SWAP1 PUSH2 0x451D JUMP JUMPDEST PUSH1 0x0 PUSH1 0x40 MLOAD DUP1 DUP4 SUB DUP2 PUSH1 0x0 DUP7 GAS CALL SWAP2 POP POP RETURNDATASIZE DUP1 PUSH1 0x0 DUP2 EQ PUSH2 0x2C01 JUMPI PUSH1 0x40 MLOAD SWAP2 POP PUSH1 0x1F NOT PUSH1 0x3F RETURNDATASIZE ADD AND DUP3 ADD PUSH1 0x40 MSTORE RETURNDATASIZE DUP3 MSTORE RETURNDATASIZE PUSH1 0x0 PUSH1 0x20 DUP5 ADD RETURNDATACOPY PUSH2 0x2C06 JUMP JUMPDEST PUSH1 0x60 SWAP2 POP JUMPDEST POP SWAP2 POP SWAP2 POP DUP2 DUP1 ISZERO PUSH2 0x2C30 JUMPI POP DUP1 MLOAD ISZERO DUP1 PUSH2 0x2C30 JUMPI POP DUP1 DUP1 PUSH1 0x20 ADD SWAP1 MLOAD DUP2 ADD SWAP1 PUSH2 0x2C30 SWAP2 SWAP1 PUSH2 0x41C8 JUMP JUMPDEST PUSH2 0x2C39 JUMPI PUSH1 0x0 DUP1 REVERT JUMPDEST POP POP POP POP POP POP JUMP JUMPDEST PUSH1 0x0 JUMPDEST DUP3 MLOAD DUP2 LT ISZERO PUSH2 0x2F2B JUMPI PUSH1 0x0 PUSH2 0x2C93 DUP5 DUP4 DUP2 MLOAD DUP2 LT PUSH2 0x2C64 JUMPI PUSH2 0x2C64 PUSH2 0x428F JUMP JUMPDEST PUSH1 0x20 MUL PUSH1 0x20 ADD ADD MLOAD PUSH1 0x0 ADD MLOAD DUP6 DUP5 DUP2 MLOAD DUP2 LT PUSH2 0x2C82 JUMPI PUSH2 0x2C82 PUSH2 0x428F JUMP JUMPDEST PUSH1 0x20 MUL PUSH1 0x20 ADD ADD MLOAD PUSH1 0x20 ADD MLOAD PUSH2 0xFD1 JUMP JUMPDEST POP SWAP1 POP PUSH1 0x0 DUP6 PUSH2 0x2CA4 DUP5 PUSH1 0x1 PUSH2 0x44E6 JUMP JUMPDEST DUP2 MLOAD DUP2 LT PUSH2 0x2CB4 JUMPI PUSH2 0x2CB4 PUSH2 0x428F JUMP JUMPDEST PUSH1 0x20 MUL PUSH1 0x20 ADD ADD MLOAD SWAP1 POP PUSH1 0x0 DUP1 DUP4 PUSH1 0x1 PUSH1 0x1 PUSH1 0xA0 SHL SUB AND DUP8 DUP7 DUP2 MLOAD DUP2 LT PUSH2 0x2CDD JUMPI PUSH2 0x2CDD PUSH2 0x428F JUMP JUMPDEST PUSH1 0x20 MUL PUSH1 0x20 ADD ADD MLOAD PUSH1 0x0 ADD MLOAD PUSH1 0x1 PUSH1 0x1 PUSH1 0xA0 SHL SUB AND EQ PUSH2 0x2CFF JUMPI DUP3 PUSH1 0x0 PUSH2 0x2D03 JUMP JUMPDEST PUSH1 0x0 DUP4 JUMPDEST SWAP2 POP SWAP2 POP PUSH1 0x0 PUSH1 0x1 DUP9 MLOAD PUSH2 0x2D17 SWAP2 SWAP1 PUSH2 0x42BB JUMP JUMPDEST DUP7 LT PUSH2 0x2D23 JUMPI DUP7 PUSH2 0x2D96 JUMP JUMPDEST PUSH2 0x2D96 DUP9 PUSH2 0x2D32 DUP9 PUSH1 0x1 PUSH2 0x44E6 JUMP JUMPDEST DUP2 MLOAD DUP2 LT PUSH2 0x2D42 JUMPI PUSH2 0x2D42 PUSH2 0x428F JUMP JUMPDEST PUSH1 0x20 MUL PUSH1 0x20 ADD ADD MLOAD PUSH1 0x0 ADD MLOAD DUP10 DUP9 PUSH1 0x1 PUSH2 0x2D5C SWAP2 SWAP1 PUSH2 0x44E6 JUMP JUMPDEST DUP2 MLOAD DUP2 LT PUSH2 0x2D6C JUMPI PUSH2 0x2D6C PUSH2 0x428F JUMP JUMPDEST PUSH1 0x20 MUL PUSH1 0x20 ADD ADD MLOAD PUSH1 0x20 ADD MLOAD DUP11 DUP10 PUSH1 0x1 PUSH2 0x2D86 SWAP2 SWAP1 PUSH2 0x44E6 JUMP JUMPDEST DUP2 MLOAD DUP2 LT PUSH2 0x8FF JUMPI PUSH2 0x8FF PUSH2 0x428F JUMP JUMPDEST SWAP1 POP PUSH2 0x2DE9 DUP9 DUP8 DUP2 MLOAD DUP2 LT PUSH2 0x2DAD JUMPI PUSH2 0x2DAD PUSH2 0x428F JUMP JUMPDEST PUSH1 0x20 MUL PUSH1 0x20 ADD ADD MLOAD PUSH1 0x0 ADD MLOAD DUP10 DUP9 DUP2 MLOAD DUP2 LT PUSH2 0x2DCB JUMPI PUSH2 0x2DCB PUSH2 0x428F JUMP JUMPDEST PUSH1 0x20 MUL PUSH1 0x20 ADD ADD MLOAD PUSH1 0x20 ADD MLOAD DUP11 DUP10 DUP2 MLOAD DUP2 LT PUSH2 0x8FF JUMPI PUSH2 0x8FF PUSH2 0x428F JUMP JUMPDEST PUSH1 0x1 PUSH1 0x1 PUSH1 0xA0 SHL SUB AND PUSH4 0x22C0D9F DUP5 DUP5 DUP5 PUSH1 0x0 PUSH1 0x40 MLOAD SWAP1 DUP1 DUP3 MSTORE DUP1 PUSH1 0x1F ADD PUSH1 0x1F NOT AND PUSH1 0x20 ADD DUP3 ADD PUSH1 0x40 MSTORE DUP1 ISZERO PUSH2 0x2E26 JUMPI PUSH1 0x20 DUP3 ADD DUP2 DUP1 CALLDATASIZE DUP4 CALLDATACOPY ADD SWAP1 POP JUMPDEST POP PUSH1 0x40 MLOAD DUP6 PUSH4 0xFFFFFFFF AND PUSH1 0xE0 SHL DUP2 MSTORE PUSH1 0x4 ADD PUSH2 0x2E46 SWAP5 SWAP4 SWAP3 SWAP2 SWAP1 PUSH2 0x4539 JUMP JUMPDEST PUSH1 0x0 PUSH1 0x40 MLOAD DUP1 DUP4 SUB DUP2 PUSH1 0x0 DUP8 DUP1 EXTCODESIZE ISZERO DUP1 ISZERO PUSH2 0x2E60 JUMPI PUSH1 0x0 DUP1 REVERT JUMPDEST POP GAS CALL ISZERO DUP1 ISZERO PUSH2 0x2E74 JUMPI RETURNDATASIZE PUSH1 0x0 DUP1 RETURNDATACOPY RETURNDATASIZE PUSH1 0x0 REVERT JUMPDEST POP POP POP POP DUP7 PUSH1 0x1 PUSH1 0x1 PUSH1 0xA0 SHL SUB AND CALLER PUSH1 0x1 PUSH1 0x1 PUSH1 0xA0 SHL SUB AND PUSH32 0x423C093A1F80C354C75D4F9E86FDE37D7C9014453DF9643F585A1B199D094E50 DUP12 DUP10 DUP2 MLOAD DUP2 LT PUSH2 0x2EBF JUMPI PUSH2 0x2EBF PUSH2 0x428F JUMP JUMPDEST PUSH1 0x20 MUL PUSH1 0x20 ADD ADD MLOAD DUP12 DUP11 DUP2 MLOAD DUP2 LT PUSH2 0x2ED9 JUMPI PUSH2 0x2ED9 PUSH2 0x428F JUMP JUMPDEST PUSH1 0x20 MUL PUSH1 0x20 ADD ADD MLOAD PUSH1 0x0 ADD MLOAD DUP13 DUP12 DUP2 MLOAD DUP2 LT PUSH2 0x2EF7 JUMPI PUSH2 0x2EF7 PUSH2 0x428F JUMP JUMPDEST PUSH1 0x20 MUL PUSH1 0x20 ADD ADD MLOAD PUSH1 0x40 ADD MLOAD PUSH1 0x40 MLOAD PUSH2 0x2F12 SWAP4 SWAP3 SWAP2 SWAP1 PUSH2 0x4589 JUMP JUMPDEST PUSH1 0x40 MLOAD DUP1 SWAP2 SUB SWAP1 LOG3 POP POP PUSH1 0x1 SWAP1 SWAP4 ADD SWAP3 POP PUSH2 0x2C44 SWAP2 POP POP JUMP JUMPDEST POP POP POP POP JUMP JUMPDEST PUSH1 0x40 DUP1 MLOAD PUSH1 0x0 DUP1 DUP3 MSTORE PUSH1 0x20 DUP3 ADD SWAP1 SWAP3 MSTORE PUSH1 0x1 PUSH1 0x1 PUSH1 0xA0 SHL SUB DUP5 AND SWAP1 DUP4 SWAP1 PUSH1 0x40 MLOAD PUSH2 0x2F5B SWAP2 SWAP1 PUSH2 0x451D JUMP JUMPDEST PUSH1 0x0 PUSH1 0x40 MLOAD DUP1 DUP4 SUB DUP2 DUP6 DUP8 GAS CALL SWAP3 POP POP POP RETURNDATASIZE DUP1 PUSH1 0x0 DUP2 EQ PUSH2 0x2F98 JUMPI PUSH1 0x40 MLOAD SWAP2 POP PUSH1 0x1F NOT PUSH1 0x3F RETURNDATASIZE ADD AND DUP3 ADD PUSH1 0x40 MSTORE RETURNDATASIZE DUP3 MSTORE RETURNDATASIZE PUSH1 0x0 PUSH1 0x20 DUP5 ADD RETURNDATACOPY PUSH2 0x2F9D JUMP JUMPDEST PUSH1 0x60 SWAP2 POP JUMPDEST POP POP SWAP1 POP DUP1 PUSH2 0x2FFA JUMPI PUSH1 0x40 MLOAD PUSH3 0x461BCD PUSH1 0xE5 SHL DUP2 MSTORE PUSH1 0x20 PUSH1 0x4 DUP3 ADD MSTORE PUSH1 0x23 PUSH1 0x24 DUP3 ADD MSTORE PUSH32 0x5472616E7366657248656C7065723A204554485F5452414E534645525F464149 PUSH1 0x44 DUP3 ADD MSTORE PUSH3 0x131151 PUSH1 0xEA SHL PUSH1 0x64 DUP3 ADD MSTORE PUSH1 0x84 ADD PUSH2 0x5A2 JUMP JUMPDEST POP POP POP JUMP JUMPDEST PUSH1 0x0 DUP1 DUP4 DUP7 LT ISZERO PUSH2 0x300F JUMPI PUSH1 0x0 DUP1 REVERT JUMPDEST DUP3 DUP6 LT ISZERO PUSH2 0x301C JUMPI PUSH1 0x0 DUP1 REVERT JUMPDEST PUSH1 0x40 MLOAD PUSH4 0x6801CC3 PUSH1 0xE4 SHL DUP2 MSTORE PUSH1 0x0 SWAP1 PUSH1 0x1 PUSH1 0x1 PUSH1 0xA0 SHL SUB PUSH32 0x0 AND SWAP1 PUSH4 0x6801CC30 SWAP1 PUSH2 0x306F SWAP1 DUP14 SWAP1 DUP14 SWAP1 DUP14 SWAP1 PUSH1 0x4 ADD PUSH2 0x4386 JUMP JUMPDEST PUSH1 0x20 PUSH1 0x40 MLOAD DUP1 DUP4 SUB DUP2 DUP7 GAS STATICCALL ISZERO DUP1 ISZERO PUSH2 0x308C JUMPI RETURNDATASIZE PUSH1 0x0 DUP1 RETURNDATACOPY RETURNDATASIZE PUSH1 0x0 REVERT JUMPDEST POP POP POP POP PUSH1 0x40 MLOAD RETURNDATASIZE PUSH1 0x1F NOT PUSH1 0x1F DUP3 ADD AND DUP3 ADD DUP1 PUSH1 0x40 MSTORE POP DUP2 ADD SWAP1 PUSH2 0x30B0 SWAP2 SWAP1 PUSH2 0x43AA JUMP JUMPDEST SWAP1 POP PUSH1 0x1 PUSH1 0x1 PUSH1 0xA0 SHL SUB DUP2 AND PUSH2 0x3156 JUMPI PUSH1 0x40 MLOAD PUSH4 0x20B7F739 PUSH1 0xE2 SHL DUP2 MSTORE PUSH1 0x1 PUSH1 0x1 PUSH1 0xA0 SHL SUB PUSH32 0x0 AND SWAP1 PUSH4 0x82DFDCE4 SWAP1 PUSH2 0x3110 SWAP1 DUP14 SWAP1 DUP14 SWAP1 DUP14 SWAP1 PUSH1 0x4 ADD PUSH2 0x4386 JUMP JUMPDEST PUSH1 0x20 PUSH1 0x40 MLOAD DUP1 DUP4 SUB DUP2 PUSH1 0x0 DUP8 GAS CALL ISZERO DUP1 ISZERO PUSH2 0x312F JUMPI RETURNDATASIZE PUSH1 0x0 DUP1 RETURNDATACOPY RETURNDATASIZE PUSH1 0x0 REVERT JUMPDEST POP POP POP POP PUSH1 0x40 MLOAD RETURNDATASIZE PUSH1 0x1F NOT PUSH1 0x1F DUP3 ADD AND DUP3 ADD DUP1 PUSH1 0x40 MSTORE POP DUP2 ADD SWAP1 PUSH2 0x3153 SWAP2 SWAP1 PUSH2 0x43AA JUMP JUMPDEST SWAP1 POP JUMPDEST PUSH1 0x0 DUP1 PUSH2 0x3164 DUP13 DUP13 DUP13 PUSH2 0x13F6 JUMP JUMPDEST SWAP2 POP SWAP2 POP DUP2 PUSH1 0x0 EQ DUP1 ISZERO PUSH2 0x3176 JUMPI POP DUP1 ISZERO JUMPDEST ISZERO PUSH2 0x3186 JUMPI DUP9 SWAP5 POP DUP8 SWAP4 POP PUSH2 0x320E JUMP JUMPDEST PUSH1 0x0 PUSH2 0x3193 DUP11 DUP5 DUP5 PUSH2 0x367D JUMP JUMPDEST SWAP1 POP DUP9 DUP2 GT PUSH2 0x31C7 JUMPI DUP7 DUP2 LT ISZERO PUSH2 0x31BC JUMPI PUSH1 0x40 MLOAD PUSH3 0x461BCD PUSH1 0xE5 SHL DUP2 MSTORE PUSH1 0x4 ADD PUSH2 0x5A2 SWAP1 PUSH2 0x424C JUMP JUMPDEST DUP10 SWAP6 POP SWAP4 POP DUP4 PUSH2 0x320C JUMP JUMPDEST PUSH1 0x0 PUSH2 0x31D4 DUP11 DUP5 DUP7 PUSH2 0x367D JUMP JUMPDEST SWAP1 POP DUP11 DUP2 GT ISZERO PUSH2 0x31E6 JUMPI PUSH2 0x31E6 PUSH2 0x386E JUMP JUMPDEST DUP9 DUP2 LT ISZERO PUSH2 0x3206 JUMPI PUSH1 0x40 MLOAD PUSH3 0x461BCD PUSH1 0xE5 SHL DUP2 MSTORE PUSH1 0x4 ADD PUSH2 0x5A2 SWAP1 PUSH2 0x4209 JUMP JUMPDEST SWAP6 POP DUP9 SWAP5 POP JUMPDEST POP JUMPDEST POP POP POP SWAP8 POP SWAP8 SWAP6 POP POP POP POP POP POP JUMP JUMPDEST PUSH1 0x0 JUMPDEST DUP3 DUP2 LT ISZERO PUSH2 0x2F2B JUMPI PUSH1 0x0 DUP1 DUP6 DUP6 DUP5 DUP2 DUP2 LT PUSH2 0x323D JUMPI PUSH2 0x323D PUSH2 0x428F JUMP JUMPDEST PUSH2 0x3253 SWAP3 PUSH1 0x20 PUSH1 0x60 SWAP1 SWAP3 MUL ADD SWAP1 DUP2 ADD SWAP2 POP PUSH2 0x4158 JUMP JUMPDEST DUP7 DUP7 DUP6 DUP2 DUP2 LT PUSH2 0x3265 JUMPI PUSH2 0x3265 PUSH2 0x428F JUMP JUMPDEST SWAP1 POP PUSH1 0x60 MUL ADD PUSH1 0x20 ADD PUSH1 0x20 DUP2 ADD SWAP1 PUSH2 0x327D SWAP2 SWAP1 PUSH2 0x4158 JUMP JUMPDEST SWAP2 POP SWAP2 POP PUSH1 0x0 PUSH2 0x328D DUP4 DUP4 PUSH2 0xFD1 JUMP JUMPDEST POP SWAP1 POP PUSH1 0x0 PUSH2 0x32F9 DUP9 DUP9 DUP8 DUP2 DUP2 LT PUSH2 0x32A7 JUMPI PUSH2 0x32A7 PUSH2 0x428F JUMP JUMPDEST PUSH2 0x32BD SWAP3 PUSH1 0x20 PUSH1 0x60 SWAP1 SWAP3 MUL ADD SWAP1 DUP2 ADD SWAP2 POP PUSH2 0x4158 JUMP JUMPDEST DUP10 DUP10 DUP9 DUP2 DUP2 LT PUSH2 0x32CF JUMPI PUSH2 0x32CF PUSH2 0x428F JUMP JUMPDEST SWAP1 POP PUSH1 0x60 MUL ADD PUSH1 0x20 ADD PUSH1 0x20 DUP2 ADD SWAP1 PUSH2 0x32E7 SWAP2 SWAP1 PUSH2 0x4158 JUMP JUMPDEST DUP11 DUP11 DUP10 DUP2 DUP2 LT PUSH2 0xB2A JUMPI PUSH2 0xB2A PUSH2 0x428F JUMP JUMPDEST SWAP1 POP PUSH1 0x0 DUP1 PUSH1 0x0 DUP1 DUP5 PUSH1 0x1 PUSH1 0x1 PUSH1 0xA0 SHL SUB AND PUSH4 0x902F1AC PUSH1 0x40 MLOAD DUP2 PUSH4 0xFFFFFFFF AND PUSH1 0xE0 SHL DUP2 MSTORE PUSH1 0x4 ADD PUSH1 0x60 PUSH1 0x40 MLOAD DUP1 DUP4 SUB DUP2 DUP7 GAS STATICCALL ISZERO DUP1 ISZERO PUSH2 0x333F JUMPI RETURNDATASIZE PUSH1 0x0 DUP1 RETURNDATACOPY RETURNDATASIZE PUSH1 0x0 REVERT JUMPDEST POP POP POP POP PUSH1 0x40 MLOAD RETURNDATASIZE PUSH1 0x1F NOT PUSH1 0x1F DUP3 ADD AND DUP3 ADD DUP1 PUSH1 0x40 MSTORE POP DUP2 ADD SWAP1 PUSH2 0x3363 SWAP2 SWAP1 PUSH2 0x4488 JUMP JUMPDEST POP PUSH1 0x1 PUSH1 0x1 PUSH1 0x70 SHL SUB AND SWAP2 POP PUSH1 0x1 PUSH1 0x1 PUSH1 0x70 SHL SUB AND SWAP2 POP PUSH1 0x0 DUP7 PUSH1 0x1 PUSH1 0x1 PUSH1 0xA0 SHL SUB AND DUP10 PUSH1 0x1 PUSH1 0x1 PUSH1 0xA0 SHL SUB AND EQ PUSH2 0x339C JUMPI DUP2 DUP4 PUSH2 0x339F JUMP JUMPDEST DUP3 DUP3 JUMPDEST POP SWAP1 POP PUSH2 0x33D2 DUP2 DUP11 PUSH1 0x1 PUSH1 0x1 PUSH1 0xA0 SHL SUB AND PUSH4 0x70A08231 DUP10 PUSH1 0x40 MLOAD DUP3 PUSH4 0xFFFFFFFF AND PUSH1 0xE0 SHL DUP2 MSTORE PUSH1 0x4 ADD PUSH2 0x1988 SWAP2 SWAP1 PUSH2 0x3C0B JUMP JUMPDEST SWAP5 POP PUSH2 0x33DF DUP6 DUP11 DUP11 PUSH2 0x11A7 JUMP JUMPDEST POP DUP1 SWAP5 POP POP POP POP POP PUSH1 0x0 DUP1 DUP6 PUSH1 0x1 PUSH1 0x1 PUSH1 0xA0 SHL SUB AND DUP9 PUSH1 0x1 PUSH1 0x1 PUSH1 0xA0 SHL SUB AND EQ PUSH2 0x340B JUMPI DUP3 PUSH1 0x0 PUSH2 0x340F JUMP JUMPDEST PUSH1 0x0 DUP4 JUMPDEST SWAP1 SWAP3 POP SWAP1 POP PUSH1 0x0 PUSH2 0x3421 PUSH1 0x1 DUP14 PUSH2 0x42BB JUMP JUMPDEST DUP11 LT PUSH2 0x342D JUMPI DUP11 PUSH2 0x34B2 JUMP JUMPDEST PUSH2 0x34B2 DUP14 DUP14 PUSH2 0x343D DUP14 PUSH1 0x1 PUSH2 0x44E6 JUMP JUMPDEST DUP2 DUP2 LT PUSH2 0x344C JUMPI PUSH2 0x344C PUSH2 0x428F JUMP JUMPDEST PUSH2 0x3462 SWAP3 PUSH1 0x20 PUSH1 0x60 SWAP1 SWAP3 MUL ADD SWAP1 DUP2 ADD SWAP2 POP PUSH2 0x4158 JUMP JUMPDEST DUP15 DUP15 PUSH2 0x346F DUP15 PUSH1 0x1 PUSH2 0x44E6 JUMP JUMPDEST DUP2 DUP2 LT PUSH2 0x347E JUMPI PUSH2 0x347E PUSH2 0x428F JUMP JUMPDEST SWAP1 POP PUSH1 0x60 MUL ADD PUSH1 0x20 ADD PUSH1 0x20 DUP2 ADD SWAP1 PUSH2 0x3496 SWAP2 SWAP1 PUSH2 0x4158 JUMP JUMPDEST DUP16 DUP16 PUSH2 0x34A3 DUP16 PUSH1 0x1 PUSH2 0x44E6 JUMP JUMPDEST DUP2 DUP2 LT PUSH2 0xB2A JUMPI PUSH2 0xB2A PUSH2 0x428F JUMP JUMPDEST PUSH1 0x40 DUP1 MLOAD PUSH1 0x0 DUP2 MSTORE PUSH1 0x20 DUP2 ADD SWAP2 DUP3 SWAP1 MSTORE PUSH4 0x22C0D9F PUSH1 0xE0 SHL SWAP1 SWAP2 MSTORE SWAP1 SWAP2 POP PUSH1 0x1 PUSH1 0x1 PUSH1 0xA0 SHL SUB DUP8 AND SWAP1 PUSH4 0x22C0D9F SWAP1 PUSH2 0x34F4 SWAP1 DUP7 SWAP1 DUP7 SWAP1 DUP7 SWAP1 PUSH1 0x24 DUP2 ADD PUSH2 0x4539 JUMP JUMPDEST PUSH1 0x0 PUSH1 0x40 MLOAD DUP1 DUP4 SUB DUP2 PUSH1 0x0 DUP8 DUP1 EXTCODESIZE ISZERO DUP1 ISZERO PUSH2 0x350E JUMPI PUSH1 0x0 DUP1 REVERT JUMPDEST POP GAS CALL ISZERO DUP1 ISZERO PUSH2 0x3522 JUMPI RETURNDATASIZE PUSH1 0x0 DUP1 RETURNDATACOPY RETURNDATASIZE PUSH1 0x0 REVERT JUMPDEST POP POP POP POP PUSH1 0x0 DUP14 DUP14 DUP13 DUP2 DUP2 LT PUSH2 0x353A JUMPI PUSH2 0x353A PUSH2 0x428F JUMP JUMPDEST SWAP1 POP PUSH1 0x60 MUL ADD PUSH1 0x40 ADD PUSH1 0x20 DUP2 ADD SWAP1 PUSH2 0x3552 SWAP2 SWAP1 PUSH2 0x4369 JUMP JUMPDEST SWAP1 POP DUP12 PUSH1 0x1 PUSH1 0x1 PUSH1 0xA0 SHL SUB AND CALLER PUSH1 0x1 PUSH1 0x1 PUSH1 0xA0 SHL SUB AND PUSH32 0x423C093A1F80C354C75D4F9E86FDE37D7C9014453DF9643F585A1B199D094E50 DUP9 DUP14 DUP6 PUSH1 0x40 MLOAD PUSH2 0x359B SWAP4 SWAP3 SWAP2 SWAP1 PUSH2 0x4589 JUMP JUMPDEST PUSH1 0x40 MLOAD DUP1 SWAP2 SUB SWAP1 LOG3 POP POP PUSH1 0x1 SWAP1 SWAP9 ADD SWAP8 POP PUSH2 0x3220 SWAP7 POP POP POP POP POP POP POP JUMP JUMPDEST PUSH1 0x0 DUP3 PUSH2 0x35C6 DUP4 DUP3 PUSH2 0x42BB JUMP JUMPDEST SWAP2 POP DUP2 GT ISZERO PUSH2 0x2947 JUMPI PUSH1 0x40 MLOAD PUSH3 0x461BCD PUSH1 0xE5 SHL DUP2 MSTORE PUSH1 0x20 PUSH1 0x4 DUP3 ADD MSTORE PUSH1 0x13 PUSH1 0x24 DUP3 ADD MSTORE PUSH19 0x4D6174683A205375622D756E646572666C6F77 PUSH1 0x68 SHL PUSH1 0x44 DUP3 ADD MSTORE PUSH1 0x64 ADD PUSH2 0x5A2 JUMP JUMPDEST PUSH1 0x0 PUSH1 0x3 DUP3 GT ISZERO PUSH2 0x366E JUMPI POP DUP1 PUSH1 0x0 PUSH2 0x3627 PUSH1 0x2 DUP4 PUSH2 0x43F7 JUMP JUMPDEST PUSH2 0x3632 SWAP1 PUSH1 0x1 PUSH2 0x44E6 JUMP JUMPDEST SWAP1 POP JUMPDEST DUP2 DUP2 LT ISZERO PUSH2 0x3668 JUMPI SWAP1 POP DUP1 PUSH1 0x2 DUP2 PUSH2 0x364D DUP2 DUP7 PUSH2 0x43F7 JUMP JUMPDEST PUSH2 0x3657 SWAP2 SWAP1 PUSH2 0x44E6 JUMP JUMPDEST PUSH2 0x3661 SWAP2 SWAP1 PUSH2 0x43F7 JUMP JUMPDEST SWAP1 POP PUSH2 0x3635 JUMP JUMPDEST POP SWAP2 SWAP1 POP JUMP JUMPDEST DUP2 ISZERO PUSH2 0x3678 JUMPI POP PUSH1 0x1 JUMPDEST SWAP2 SWAP1 POP JUMP JUMPDEST PUSH1 0x0 DUP1 DUP5 GT PUSH2 0x36D8 JUMPI PUSH1 0x40 MLOAD PUSH3 0x461BCD PUSH1 0xE5 SHL DUP2 MSTORE PUSH1 0x20 PUSH1 0x4 DUP3 ADD MSTORE PUSH1 0x21 PUSH1 0x24 DUP3 ADD MSTORE PUSH32 0x426173655631526F757465723A20494E53554646494349454E545F414D4F554E PUSH1 0x44 DUP3 ADD MSTORE PUSH1 0x15 PUSH1 0xFA SHL PUSH1 0x64 DUP3 ADD MSTORE PUSH1 0x84 ADD PUSH2 0x5A2 JUMP JUMPDEST PUSH1 0x0 DUP4 GT DUP1 ISZERO PUSH2 0x36E8 JUMPI POP PUSH1 0x0 DUP3 GT JUMPDEST PUSH2 0x3740 JUMPI PUSH1 0x40 MLOAD PUSH3 0x461BCD PUSH1 0xE5 SHL DUP2 MSTORE PUSH1 0x20 PUSH1 0x4 DUP3 ADD MSTORE PUSH1 0x24 DUP1 DUP3 ADD MSTORE PUSH32 0x426173655631526F757465723A20494E53554646494349454E545F4C49515549 PUSH1 0x44 DUP3 ADD MSTORE PUSH4 0x44495459 PUSH1 0xE0 SHL PUSH1 0x64 DUP3 ADD MSTORE PUSH1 0x84 ADD PUSH2 0x5A2 JUMP JUMPDEST DUP3 PUSH2 0x374B DUP4 DUP7 PUSH2 0x43E0 JUMP JUMPDEST PUSH2 0x3755 SWAP2 SWAP1 PUSH2 0x43F7 JUMP JUMPDEST SWAP5 SWAP4 POP POP POP POP JUMP JUMPDEST PUSH1 0x0 DUP2 DUP4 LT PUSH2 0x376C JUMPI DUP2 PUSH2 0x376E JUMP JUMPDEST DUP3 JUMPDEST SWAP4 SWAP3 POP POP POP JUMP JUMPDEST PUSH1 0x0 DUP4 PUSH1 0x1 PUSH1 0x1 PUSH1 0xA0 SHL SUB AND EXTCODESIZE GT PUSH2 0x378C JUMPI PUSH1 0x0 DUP1 REVERT JUMPDEST PUSH1 0x0 DUP1 DUP5 PUSH1 0x1 PUSH1 0x1 PUSH1 0xA0 SHL SUB AND PUSH4 0xA9059CBB PUSH1 0xE0 SHL DUP6 DUP6 PUSH1 0x40 MLOAD PUSH1 0x24 ADD PUSH2 0x37B4 SWAP3 SWAP2 SWAP1 PUSH2 0x44CD JUMP JUMPDEST PUSH1 0x40 DUP1 MLOAD PUSH1 0x1F NOT DUP2 DUP5 SUB ADD DUP2 MSTORE SWAP2 DUP2 MSTORE PUSH1 0x20 DUP3 ADD DUP1 MLOAD PUSH1 0x1 PUSH1 0x1 PUSH1 0xE0 SHL SUB AND PUSH1 0x1 PUSH1 0x1 PUSH1 0xE0 SHL SUB NOT SWAP1 SWAP5 AND SWAP4 SWAP1 SWAP4 OR SWAP1 SWAP3 MSTORE SWAP1 MLOAD PUSH2 0x37F2 SWAP2 SWAP1 PUSH2 0x451D JUMP JUMPDEST PUSH1 0x0 PUSH1 0x40 MLOAD DUP1 DUP4 SUB DUP2 PUSH1 0x0 DUP7 GAS CALL SWAP2 POP POP RETURNDATASIZE DUP1 PUSH1 0x0 DUP2 EQ PUSH2 0x382F JUMPI PUSH1 0x40 MLOAD SWAP2 POP PUSH1 0x1F NOT PUSH1 0x3F RETURNDATASIZE ADD AND DUP3 ADD PUSH1 0x40 MSTORE RETURNDATASIZE DUP3 MSTORE RETURNDATASIZE PUSH1 0x0 PUSH1 0x20 DUP5 ADD RETURNDATACOPY PUSH2 0x3834 JUMP JUMPDEST PUSH1 0x60 SWAP2 POP JUMPDEST POP SWAP2 POP SWAP2 POP DUP2 DUP1 ISZERO PUSH2 0x385E JUMPI POP DUP1 MLOAD ISZERO DUP1 PUSH2 0x385E JUMPI POP DUP1 DUP1 PUSH1 0x20 ADD SWAP1 MLOAD DUP2 ADD SWAP1 PUSH2 0x385E SWAP2 SWAP1 PUSH2 0x41C8 JUMP JUMPDEST PUSH2 0x3867 JUMPI PUSH1 0x0 DUP1 REVERT JUMPDEST POP POP POP POP POP JUMP JUMPDEST PUSH4 0x4E487B71 PUSH1 0xE0 SHL PUSH1 0x0 MSTORE PUSH1 0x1 PUSH1 0x4 MSTORE PUSH1 0x24 PUSH1 0x0 REVERT JUMPDEST PUSH1 0x1 PUSH1 0x1 PUSH1 0xA0 SHL SUB DUP2 AND DUP2 EQ PUSH2 0x3899 JUMPI PUSH1 0x0 DUP1 REVERT JUMPDEST POP JUMP JUMPDEST DUP1 CALLDATALOAD PUSH2 0x3678 DUP2 PUSH2 0x3884 JUMP JUMPDEST DUP1 ISZERO ISZERO DUP2 EQ PUSH2 0x3899 JUMPI PUSH1 0x0 DUP1 REVERT JUMPDEST PUSH1 0x0 DUP1 PUSH1 0x0 DUP1 PUSH1 0x0 DUP1 PUSH1 0x0 DUP1 PUSH2 0x100 DUP10 DUP12 SUB SLT ISZERO PUSH2 0x38D2 JUMPI PUSH1 0x0 DUP1 REVERT JUMPDEST DUP9 CALLDATALOAD PUSH2 0x38DD DUP2 PUSH2 0x3884 JUMP JUMPDEST SWAP8 POP PUSH1 0x20 DUP10 ADD CALLDATALOAD PUSH2 0x38ED DUP2 PUSH2 0x3884 JUMP JUMPDEST SWAP7 POP PUSH1 0x40 DUP10 ADD CALLDATALOAD PUSH2 0x38FD DUP2 PUSH2 0x38A7 JUMP JUMPDEST SWAP6 POP PUSH1 0x60 DUP10 ADD CALLDATALOAD SWAP5 POP PUSH1 0x80 DUP10 ADD CALLDATALOAD SWAP4 POP PUSH1 0xA0 DUP10 ADD CALLDATALOAD SWAP3 POP PUSH1 0xC0 DUP10 ADD CALLDATALOAD PUSH2 0x3922 DUP2 PUSH2 0x3884 JUMP JUMPDEST SWAP8 SWAP11 SWAP7 SWAP10 POP SWAP5 SWAP8 SWAP4 SWAP7 SWAP3 SWAP6 SWAP2 SWAP5 POP SWAP2 SWAP3 PUSH1 0xE0 ADD CALLDATALOAD SWAP2 POP JUMP JUMPDEST PUSH1 0x0 DUP1 PUSH1 0x0 DUP1 PUSH1 0x0 DUP1 PUSH1 0x0 PUSH1 0xE0 DUP9 DUP11 SUB SLT ISZERO PUSH2 0x3955 JUMPI PUSH1 0x0 DUP1 REVERT JUMPDEST DUP8 CALLDATALOAD SWAP7 POP PUSH1 0x20 DUP9 ADD CALLDATALOAD SWAP6 POP PUSH1 0x40 DUP9 ADD CALLDATALOAD PUSH2 0x396E DUP2 PUSH2 0x3884 JUMP JUMPDEST SWAP5 POP PUSH1 0x60 DUP9 ADD CALLDATALOAD PUSH2 0x397E DUP2 PUSH2 0x3884 JUMP JUMPDEST SWAP4 POP PUSH1 0x80 DUP9 ADD CALLDATALOAD PUSH2 0x398E DUP2 PUSH2 0x38A7 JUMP JUMPDEST SWAP3 POP PUSH1 0xA0 DUP9 ADD CALLDATALOAD PUSH2 0x399E DUP2 PUSH2 0x3884 JUMP JUMPDEST SWAP7 SWAP10 SWAP6 SWAP9 POP SWAP4 SWAP7 SWAP3 SWAP6 SWAP2 SWAP5 SWAP2 SWAP4 POP POP PUSH1 0xC0 SWAP1 SWAP2 ADD CALLDATALOAD SWAP1 JUMP JUMPDEST PUSH1 0x20 DUP1 DUP3 MSTORE DUP3 MLOAD DUP3 DUP3 ADD DUP2 SWAP1 MSTORE PUSH1 0x0 SWAP2 DUP5 ADD SWAP1 PUSH1 0x40 DUP5 ADD SWAP1 DUP4 JUMPDEST DUP2 DUP2 LT ISZERO PUSH2 0x39EE JUMPI DUP4 MLOAD DUP4 MSTORE PUSH1 0x20 SWAP4 DUP5 ADD SWAP4 SWAP1 SWAP3 ADD SWAP2 PUSH1 0x1 ADD PUSH2 0x39D0 JUMP JUMPDEST POP SWAP1 SWAP6 SWAP5 POP POP POP POP POP JUMP JUMPDEST PUSH1 0x0 DUP1 DUP4 PUSH1 0x1F DUP5 ADD SLT PUSH2 0x3A0B JUMPI PUSH1 0x0 DUP1 REVERT JUMPDEST POP DUP2 CALLDATALOAD PUSH1 0x1 PUSH1 0x1 PUSH1 0x40 SHL SUB DUP2 GT ISZERO PUSH2 0x3A22 JUMPI PUSH1 0x0 DUP1 REVERT JUMPDEST PUSH1 0x20 DUP4 ADD SWAP2 POP DUP4 PUSH1 0x20 PUSH1 0x60 DUP4 MUL DUP6 ADD ADD GT ISZERO PUSH2 0x10BD JUMPI PUSH1 0x0 DUP1 REVERT JUMPDEST PUSH1 0x0 DUP1 PUSH1 0x0 DUP1 PUSH1 0x0 DUP1 PUSH1 0xA0 DUP8 DUP10 SUB SLT ISZERO PUSH2 0x3A56 JUMPI PUSH1 0x0 DUP1 REVERT JUMPDEST DUP7 CALLDATALOAD SWAP6 POP PUSH1 0x20 DUP8 ADD CALLDATALOAD SWAP5 POP PUSH1 0x40 DUP8 ADD CALLDATALOAD PUSH1 0x1 PUSH1 0x1 PUSH1 0x40 SHL SUB DUP2 GT ISZERO PUSH2 0x3A7A JUMPI PUSH1 0x0 DUP1 REVERT JUMPDEST PUSH2 0x3A86 DUP10 DUP3 DUP11 ADD PUSH2 0x39F9 JUMP JUMPDEST SWAP1 SWAP6 POP SWAP4 POP POP PUSH1 0x60 DUP8 ADD CALLDATALOAD PUSH2 0x3A9A DUP2 PUSH2 0x3884 JUMP JUMPDEST SWAP6 SWAP9 SWAP5 SWAP8 POP SWAP3 SWAP6 SWAP2 SWAP5 SWAP4 PUSH1 0x80 SWAP1 SWAP3 ADD CALLDATALOAD SWAP3 POP POP JUMP JUMPDEST PUSH1 0x0 DUP1 PUSH1 0x0 DUP1 PUSH1 0x80 DUP6 DUP8 SUB SLT ISZERO PUSH2 0x3AC5 JUMPI PUSH1 0x0 DUP1 REVERT JUMPDEST DUP5 CALLDATALOAD PUSH2 0x3AD0 DUP2 PUSH2 0x3884 JUMP JUMPDEST SWAP4 POP PUSH1 0x20 DUP6 ADD CALLDATALOAD PUSH2 0x3AE0 DUP2 PUSH2 0x3884 JUMP JUMPDEST SWAP3 POP PUSH1 0x40 DUP6 ADD CALLDATALOAD PUSH2 0x3AF0 DUP2 PUSH2 0x38A7 JUMP JUMPDEST SWAP4 SWAP7 SWAP3 SWAP6 POP SWAP3 SWAP4 PUSH1 0x60 ADD CALLDATALOAD SWAP3 POP POP JUMP JUMPDEST DUP1 CALLDATALOAD PUSH1 0xFF DUP2 AND DUP2 EQ PUSH2 0x3678 JUMPI PUSH1 0x0 DUP1 REVERT JUMPDEST PUSH1 0x0 DUP1 PUSH1 0x0 DUP1 PUSH1 0x0 DUP1 PUSH1 0x0 DUP1 PUSH1 0x0 DUP1 PUSH1 0x0 PUSH2 0x160 DUP13 DUP15 SUB SLT ISZERO PUSH2 0x3B33 JUMPI PUSH1 0x0 DUP1 REVERT JUMPDEST DUP12 CALLDATALOAD PUSH2 0x3B3E DUP2 PUSH2 0x3884 JUMP JUMPDEST SWAP11 POP PUSH1 0x20 DUP13 ADD CALLDATALOAD PUSH2 0x3B4E DUP2 PUSH2 0x38A7 JUMP JUMPDEST SWAP10 POP PUSH1 0x40 DUP13 ADD CALLDATALOAD SWAP9 POP PUSH1 0x60 DUP13 ADD CALLDATALOAD SWAP8 POP PUSH1 0x80 DUP13 ADD CALLDATALOAD SWAP7 POP PUSH1 0xA0 DUP13 ADD CALLDATALOAD PUSH2 0x3B73 DUP2 PUSH2 0x3884 JUMP JUMPDEST SWAP6 POP PUSH1 0xC0 DUP13 ADD CALLDATALOAD SWAP5 POP PUSH1 0xE0 DUP13 ADD CALLDATALOAD PUSH2 0x3B8A DUP2 PUSH2 0x38A7 JUMP JUMPDEST SWAP4 POP PUSH2 0x3B99 PUSH2 0x100 DUP14 ADD PUSH2 0x3B00 JUMP JUMPDEST SWAP11 SWAP14 SWAP10 SWAP13 POP SWAP8 SWAP11 SWAP7 SWAP10 SWAP6 SWAP9 SWAP5 SWAP8 POP SWAP3 SWAP6 SWAP2 SWAP5 SWAP4 PUSH2 0x120 DUP4 ADD CALLDATALOAD SWAP4 POP PUSH2 0x140 SWAP1 SWAP3 ADD CALLDATALOAD SWAP2 SWAP1 POP JUMP JUMPDEST PUSH1 0x0 DUP1 PUSH1 0x0 PUSH1 0x60 DUP5 DUP7 SUB SLT ISZERO PUSH2 0x3BD5 JUMPI PUSH1 0x0 DUP1 REVERT JUMPDEST DUP4 CALLDATALOAD PUSH2 0x3BE0 DUP2 PUSH2 0x3884 JUMP JUMPDEST SWAP3 POP PUSH1 0x20 DUP5 ADD CALLDATALOAD PUSH2 0x3BF0 DUP2 PUSH2 0x3884 JUMP JUMPDEST SWAP2 POP PUSH1 0x40 DUP5 ADD CALLDATALOAD PUSH2 0x3C00 DUP2 PUSH2 0x38A7 JUMP JUMPDEST DUP1 SWAP2 POP POP SWAP3 POP SWAP3 POP SWAP3 JUMP JUMPDEST PUSH1 0x1 PUSH1 0x1 PUSH1 0xA0 SHL SUB SWAP2 SWAP1 SWAP2 AND DUP2 MSTORE PUSH1 0x20 ADD SWAP1 JUMP JUMPDEST PUSH1 0x0 DUP1 PUSH1 0x40 DUP4 DUP6 SUB SLT ISZERO PUSH2 0x3C32 JUMPI PUSH1 0x0 DUP1 REVERT JUMPDEST DUP3 CALLDATALOAD PUSH2 0x3C3D DUP2 PUSH2 0x3884 JUMP JUMPDEST SWAP2 POP PUSH1 0x20 DUP4 ADD CALLDATALOAD PUSH2 0x3C4D DUP2 PUSH2 0x3884 JUMP JUMPDEST DUP1 SWAP2 POP POP SWAP3 POP SWAP3 SWAP1 POP JUMP JUMPDEST PUSH1 0x0 DUP1 PUSH1 0x0 DUP1 PUSH1 0x0 DUP1 PUSH1 0x0 DUP1 PUSH1 0x0 PUSH2 0x120 DUP11 DUP13 SUB SLT ISZERO PUSH2 0x3C77 JUMPI PUSH1 0x0 DUP1 REVERT JUMPDEST DUP10 CALLDATALOAD PUSH2 0x3C82 DUP2 PUSH2 0x3884 JUMP JUMPDEST SWAP9 POP PUSH1 0x20 DUP11 ADD CALLDATALOAD PUSH2 0x3C92 DUP2 PUSH2 0x3884 JUMP JUMPDEST SWAP8 POP PUSH1 0x40 DUP11 ADD CALLDATALOAD PUSH2 0x3CA2 DUP2 PUSH2 0x38A7 JUMP JUMPDEST SWAP7 POP PUSH1 0x60 DUP11 ADD CALLDATALOAD SWAP6 POP PUSH1 0x80 DUP11 ADD CALLDATALOAD SWAP5 POP PUSH1 0xA0 DUP11 ADD CALLDATALOAD SWAP4 POP PUSH1 0xC0 DUP11 ADD CALLDATALOAD SWAP3 POP PUSH1 0xE0 DUP11 ADD CALLDATALOAD PUSH2 0x3CCE DUP2 PUSH2 0x3884 JUMP JUMPDEST SWAP9 SWAP12 SWAP8 SWAP11 POP SWAP6 SWAP9 SWAP5 SWAP8 SWAP4 SWAP7 SWAP3 SWAP6 POP SWAP1 SWAP4 PUSH2 0x100 ADD CALLDATALOAD SWAP2 SWAP1 POP JUMP JUMPDEST PUSH1 0x0 DUP1 PUSH1 0x0 PUSH1 0x60 DUP5 DUP7 SUB SLT ISZERO PUSH2 0x3CFD JUMPI PUSH1 0x0 DUP1 REVERT JUMPDEST DUP4 CALLDATALOAD SWAP3 POP PUSH1 0x20 DUP5 ADD CALLDATALOAD PUSH2 0x3D0F DUP2 PUSH2 0x3884 JUMP JUMPDEST SWAP2 POP PUSH1 0x40 DUP5 ADD CALLDATALOAD PUSH2 0x3C00 DUP2 PUSH2 0x3884 JUMP JUMPDEST PUSH1 0x0 DUP1 PUSH1 0x0 DUP1 PUSH1 0x0 PUSH1 0x80 DUP7 DUP9 SUB SLT ISZERO PUSH2 0x3D37 JUMPI PUSH1 0x0 DUP1 REVERT JUMPDEST DUP6 CALLDATALOAD SWAP5 POP PUSH1 0x20 DUP7 ADD CALLDATALOAD PUSH1 0x1 PUSH1 0x1 PUSH1 0x40 SHL SUB DUP2 GT ISZERO PUSH2 0x3D54 JUMPI PUSH1 0x0 DUP1 REVERT JUMPDEST PUSH2 0x3D60 DUP9 DUP3 DUP10 ADD PUSH2 0x39F9 JUMP JUMPDEST SWAP1 SWAP6 POP SWAP4 POP POP PUSH1 0x40 DUP7 ADD CALLDATALOAD PUSH2 0x3D74 DUP2 PUSH2 0x3884 JUMP JUMPDEST SWAP5 SWAP8 SWAP4 SWAP7 POP SWAP2 SWAP5 PUSH1 0x60 ADD CALLDATALOAD SWAP3 SWAP2 POP POP JUMP JUMPDEST PUSH4 0x4E487B71 PUSH1 0xE0 SHL PUSH1 0x0 MSTORE PUSH1 0x41 PUSH1 0x4 MSTORE PUSH1 0x24 PUSH1 0x0 REVERT JUMPDEST PUSH1 0x40 MLOAD PUSH1 0x1F DUP3 ADD PUSH1 0x1F NOT AND DUP2 ADD PUSH1 0x1 PUSH1 0x1 PUSH1 0x40 SHL SUB DUP2 GT DUP3 DUP3 LT OR ISZERO PUSH2 0x3DC3 JUMPI PUSH2 0x3DC3 PUSH2 0x3D85 JUMP JUMPDEST PUSH1 0x40 MSTORE SWAP2 SWAP1 POP JUMP JUMPDEST PUSH1 0x0 PUSH1 0x1 PUSH1 0x1 PUSH1 0x40 SHL SUB DUP3 GT ISZERO PUSH2 0x3DE4 JUMPI PUSH2 0x3DE4 PUSH2 0x3D85 JUMP JUMPDEST POP PUSH1 0x5 SHL PUSH1 0x20 ADD SWAP1 JUMP JUMPDEST PUSH1 0x0 DUP1 PUSH1 0x0 DUP1 PUSH1 0x0 PUSH1 0x80 DUP7 DUP9 SUB SLT ISZERO PUSH2 0x3E06 JUMPI PUSH1 0x0 DUP1 REVERT JUMPDEST DUP6 CALLDATALOAD PUSH1 0x1 PUSH1 0x1 PUSH1 0x40 SHL SUB DUP2 GT ISZERO PUSH2 0x3E1C JUMPI PUSH1 0x0 DUP1 REVERT JUMPDEST DUP7 ADD PUSH1 0x1F DUP2 ADD DUP9 SGT PUSH2 0x3E2D JUMPI PUSH1 0x0 DUP1 REVERT JUMPDEST DUP1 CALLDATALOAD PUSH2 0x3E40 PUSH2 0x3E3B DUP3 PUSH2 0x3DCB JUMP JUMPDEST PUSH2 0x3D9B JUMP JUMPDEST DUP1 DUP3 DUP3 MSTORE PUSH1 0x20 DUP3 ADD SWAP2 POP PUSH1 0x20 DUP4 PUSH1 0x5 SHL DUP6 ADD ADD SWAP3 POP DUP11 DUP4 GT ISZERO PUSH2 0x3E62 JUMPI PUSH1 0x0 DUP1 REVERT JUMPDEST PUSH1 0x20 DUP5 ADD SWAP4 POP JUMPDEST DUP3 DUP5 LT ISZERO PUSH2 0x3E84 JUMPI DUP4 CALLDATALOAD DUP3 MSTORE PUSH1 0x20 SWAP4 DUP5 ADD SWAP4 SWAP1 SWAP2 ADD SWAP1 PUSH2 0x3E69 JUMP JUMPDEST SWAP8 POP POP POP POP PUSH1 0x20 DUP7 ADD CALLDATALOAD PUSH1 0x1 PUSH1 0x1 PUSH1 0x40 SHL SUB DUP2 GT ISZERO PUSH2 0x3EA2 JUMPI PUSH1 0x0 DUP1 REVERT JUMPDEST PUSH2 0x3EAE DUP9 DUP3 DUP10 ADD PUSH2 0x39F9 JUMP JUMPDEST SWAP1 SWAP6 POP SWAP4 POP PUSH2 0x3D74 SWAP1 POP PUSH1 0x40 DUP8 ADD PUSH2 0x389C JUMP JUMPDEST PUSH1 0x0 PUSH1 0x60 DUP3 DUP5 SUB SLT ISZERO PUSH2 0x3ED3 JUMPI PUSH1 0x0 DUP1 REVERT JUMPDEST PUSH1 0x40 MLOAD PUSH1 0x60 DUP2 ADD PUSH1 0x1 PUSH1 0x1 PUSH1 0x40 SHL SUB DUP2 GT DUP3 DUP3 LT OR ISZERO PUSH2 0x3EF5 JUMPI PUSH2 0x3EF5 PUSH2 0x3D85 JUMP JUMPDEST PUSH1 0x40 MSTORE SWAP1 POP DUP1 DUP3 CALLDATALOAD PUSH2 0x3F06 DUP2 PUSH2 0x3884 JUMP JUMPDEST DUP2 MSTORE PUSH1 0x20 DUP4 ADD CALLDATALOAD PUSH2 0x3F16 DUP2 PUSH2 0x3884 JUMP JUMPDEST PUSH1 0x20 DUP3 ADD MSTORE PUSH1 0x40 DUP4 ADD CALLDATALOAD PUSH2 0x3F29 DUP2 PUSH2 0x38A7 JUMP JUMPDEST PUSH1 0x40 SWAP2 SWAP1 SWAP2 ADD MSTORE SWAP3 SWAP2 POP POP JUMP JUMPDEST PUSH1 0x0 DUP1 PUSH1 0x40 DUP4 DUP6 SUB SLT ISZERO PUSH2 0x3F49 JUMPI PUSH1 0x0 DUP1 REVERT JUMPDEST DUP3 CALLDATALOAD SWAP2 POP PUSH1 0x20 DUP4 ADD CALLDATALOAD PUSH1 0x1 PUSH1 0x1 PUSH1 0x40 SHL SUB DUP2 GT ISZERO PUSH2 0x3F66 JUMPI PUSH1 0x0 DUP1 REVERT JUMPDEST DUP4 ADD PUSH1 0x1F DUP2 ADD DUP6 SGT PUSH2 0x3F77 JUMPI PUSH1 0x0 DUP1 REVERT JUMPDEST DUP1 CALLDATALOAD PUSH2 0x3F85 PUSH2 0x3E3B DUP3 PUSH2 0x3DCB JUMP JUMPDEST DUP1 DUP3 DUP3 MSTORE PUSH1 0x20 DUP3 ADD SWAP2 POP PUSH1 0x20 PUSH1 0x60 DUP5 MUL DUP6 ADD ADD SWAP3 POP DUP8 DUP4 GT ISZERO PUSH2 0x3FA7 JUMPI PUSH1 0x0 DUP1 REVERT JUMPDEST PUSH1 0x20 DUP5 ADD SWAP4 POP JUMPDEST DUP3 DUP5 LT ISZERO PUSH2 0x3FD3 JUMPI PUSH2 0x3FC0 DUP9 DUP6 PUSH2 0x3EC1 JUMP JUMPDEST DUP3 MSTORE PUSH1 0x20 DUP3 ADD SWAP2 POP PUSH1 0x60 DUP5 ADD SWAP4 POP PUSH2 0x3FAE JUMP JUMPDEST DUP1 SWAP5 POP POP POP POP POP SWAP3 POP SWAP3 SWAP1 POP JUMP JUMPDEST PUSH1 0x0 DUP1 PUSH1 0x0 DUP1 PUSH1 0x0 PUSH1 0xA0 DUP7 DUP9 SUB SLT ISZERO PUSH2 0x3FF9 JUMPI PUSH1 0x0 DUP1 REVERT JUMPDEST DUP6 CALLDATALOAD PUSH2 0x4004 DUP2 PUSH2 0x3884 JUMP JUMPDEST SWAP5 POP PUSH1 0x20 DUP7 ADD CALLDATALOAD PUSH2 0x4014 DUP2 PUSH2 0x3884 JUMP JUMPDEST SWAP4 POP PUSH1 0x40 DUP7 ADD CALLDATALOAD PUSH2 0x4024 DUP2 PUSH2 0x38A7 JUMP JUMPDEST SWAP5 SWAP8 SWAP4 SWAP7 POP SWAP4 SWAP5 PUSH1 0x60 DUP2 ADD CALLDATALOAD SWAP5 POP PUSH1 0x80 ADD CALLDATALOAD SWAP3 SWAP2 POP POP JUMP JUMPDEST PUSH1 0x0 DUP1 PUSH1 0x0 DUP1 PUSH1 0x0 DUP1 PUSH1 0x0 DUP1 PUSH1 0x0 DUP1 PUSH1 0x0 DUP1 PUSH2 0x180 DUP14 DUP16 SUB SLT ISZERO PUSH2 0x405F JUMPI PUSH1 0x0 DUP1 REVERT JUMPDEST DUP13 CALLDATALOAD PUSH2 0x406A DUP2 PUSH2 0x3884 JUMP JUMPDEST SWAP12 POP PUSH1 0x20 DUP14 ADD CALLDATALOAD PUSH2 0x407A DUP2 PUSH2 0x3884 JUMP JUMPDEST SWAP11 POP PUSH1 0x40 DUP14 ADD CALLDATALOAD PUSH2 0x408A DUP2 PUSH2 0x38A7 JUMP JUMPDEST SWAP10 POP PUSH1 0x60 DUP14 ADD CALLDATALOAD SWAP9 POP PUSH1 0x80 DUP14 ADD CALLDATALOAD SWAP8 POP PUSH1 0xA0 DUP14 ADD CALLDATALOAD SWAP7 POP PUSH1 0xC0 DUP14 ADD CALLDATALOAD PUSH2 0x40AF DUP2 PUSH2 0x3884 JUMP JUMPDEST SWAP6 POP PUSH1 0xE0 DUP14 ADD CALLDATALOAD SWAP5 POP PUSH2 0x100 DUP14 ADD CALLDATALOAD PUSH2 0x40C7 DUP2 PUSH2 0x38A7 JUMP JUMPDEST SWAP4 POP PUSH2 0x40D6 PUSH2 0x120 DUP15 ADD PUSH2 0x3B00 JUMP JUMPDEST SWAP12 SWAP15 SWAP11 SWAP14 POP SWAP9 SWAP12 SWAP8 SWAP11 SWAP7 SWAP10 SWAP6 SWAP9 POP SWAP4 SWAP7 SWAP3 SWAP6 SWAP2 SWAP5 SWAP2 SWAP4 POP POP PUSH2 0x140 DUP3 ADD CALLDATALOAD SWAP2 PUSH2 0x160 ADD CALLDATALOAD SWAP1 JUMP JUMPDEST PUSH1 0x0 DUP1 PUSH1 0x0 DUP1 PUSH1 0x0 DUP1 PUSH1 0x0 PUSH1 0xE0 DUP9 DUP11 SUB SLT ISZERO PUSH2 0x4118 JUMPI PUSH1 0x0 DUP1 REVERT JUMPDEST DUP8 CALLDATALOAD PUSH2 0x4123 DUP2 PUSH2 0x3884 JUMP JUMPDEST SWAP7 POP PUSH1 0x20 DUP9 ADD CALLDATALOAD PUSH2 0x4133 DUP2 PUSH2 0x38A7 JUMP JUMPDEST SWAP6 POP PUSH1 0x40 DUP9 ADD CALLDATALOAD SWAP5 POP PUSH1 0x60 DUP9 ADD CALLDATALOAD SWAP4 POP PUSH1 0x80 DUP9 ADD CALLDATALOAD SWAP3 POP PUSH1 0xA0 DUP9 ADD CALLDATALOAD PUSH2 0x399E DUP2 PUSH2 0x3884 JUMP JUMPDEST PUSH1 0x0 PUSH1 0x20 DUP3 DUP5 SUB SLT ISZERO PUSH2 0x416A JUMPI PUSH1 0x0 DUP1 REVERT JUMPDEST DUP2 CALLDATALOAD PUSH2 0x376E DUP2 PUSH2 0x3884 JUMP JUMPDEST PUSH1 0x20 DUP1 DUP3 MSTORE PUSH1 0x15 SWAP1 DUP3 ADD MSTORE PUSH21 0x10985CD9558C549BDD5D195C8E8811561412549151 PUSH1 0x5A SHL PUSH1 0x40 DUP3 ADD MSTORE PUSH1 0x60 ADD SWAP1 JUMP JUMPDEST PUSH1 0x1 PUSH1 0x1 PUSH1 0xA0 SHL SUB SWAP4 DUP5 AND DUP2 MSTORE SWAP2 SWAP1 SWAP3 AND PUSH1 0x20 DUP3 ADD MSTORE PUSH1 0x40 DUP2 ADD SWAP2 SWAP1 SWAP2 MSTORE PUSH1 0x60 ADD SWAP1 JUMP JUMPDEST PUSH1 0x0 PUSH1 0x20 DUP3 DUP5 SUB SLT ISZERO PUSH2 0x41DA JUMPI PUSH1 0x0 DUP1 REVERT JUMPDEST DUP2 MLOAD PUSH2 0x376E DUP2 PUSH2 0x38A7 JUMP JUMPDEST PUSH1 0x0 DUP1 PUSH1 0x40 DUP4 DUP6 SUB SLT ISZERO PUSH2 0x41F8 JUMPI PUSH1 0x0 DUP1 REVERT JUMPDEST POP POP DUP1 MLOAD PUSH1 0x20 SWAP1 SWAP2 ADD MLOAD SWAP1 SWAP3 SWAP1 SWAP2 POP JUMP JUMPDEST PUSH1 0x20 DUP1 DUP3 MSTORE PUSH1 0x23 SWAP1 DUP3 ADD MSTORE PUSH32 0x426173655631526F757465723A20494E53554646494349454E545F415F414D4F PUSH1 0x40 DUP3 ADD MSTORE PUSH3 0x155395 PUSH1 0xEA SHL PUSH1 0x60 DUP3 ADD MSTORE PUSH1 0x80 ADD SWAP1 JUMP JUMPDEST PUSH1 0x20 DUP1 DUP3 MSTORE PUSH1 0x23 SWAP1 DUP3 ADD MSTORE PUSH32 0x426173655631526F757465723A20494E53554646494349454E545F425F414D4F PUSH1 0x40 DUP3 ADD MSTORE PUSH3 0x155395 PUSH1 0xEA SHL PUSH1 0x60 DUP3 ADD MSTORE PUSH1 0x80 ADD SWAP1 JUMP JUMPDEST PUSH4 0x4E487B71 PUSH1 0xE0 SHL PUSH1 0x0 MSTORE PUSH1 0x32 PUSH1 0x4 MSTORE PUSH1 0x24 PUSH1 0x0 REVERT JUMPDEST PUSH4 0x4E487B71 PUSH1 0xE0 SHL PUSH1 0x0 MSTORE PUSH1 0x11 PUSH1 0x4 MSTORE PUSH1 0x24 PUSH1 0x0 REVERT JUMPDEST DUP2 DUP2 SUB DUP2 DUP2 GT ISZERO PUSH2 0x2947 JUMPI PUSH2 0x2947 PUSH2 0x42A5 JUMP JUMPDEST PUSH1 0x20 DUP1 DUP3 MSTORE PUSH1 0x28 SWAP1 DUP3 ADD MSTORE PUSH32 0x426173655631526F757465723A20494E53554646494349454E545F4F55545055 PUSH1 0x40 DUP3 ADD MSTORE PUSH8 0x1517D05353D55395 PUSH1 0xC2 SHL PUSH1 0x60 DUP3 ADD MSTORE PUSH1 0x80 ADD SWAP1 JUMP JUMPDEST PUSH1 0x20 DUP1 DUP3 MSTORE PUSH1 0x1A SWAP1 DUP3 ADD MSTORE PUSH32 0x426173655631526F757465723A20494E56414C49445F50415448000000000000 PUSH1 0x40 DUP3 ADD MSTORE PUSH1 0x60 ADD SWAP1 JUMP JUMPDEST PUSH1 0x0 PUSH1 0x60 DUP3 DUP5 SUB SLT ISZERO PUSH2 0x435F JUMPI PUSH1 0x0 DUP1 REVERT JUMPDEST PUSH2 0x376E DUP4 DUP4 PUSH2 0x3EC1 JUMP JUMPDEST PUSH1 0x0 PUSH1 0x20 DUP3 DUP5 SUB SLT ISZERO PUSH2 0x437B JUMPI PUSH1 0x0 DUP1 REVERT JUMPDEST DUP2 CALLDATALOAD PUSH2 0x376E DUP2 PUSH2 0x38A7 JUMP JUMPDEST PUSH1 0x1 PUSH1 0x1 PUSH1 0xA0 SHL SUB SWAP4 DUP5 AND DUP2 MSTORE SWAP2 SWAP1 SWAP3 AND PUSH1 0x20 DUP3 ADD MSTORE SWAP1 ISZERO ISZERO PUSH1 0x40 DUP3 ADD MSTORE PUSH1 0x60 ADD SWAP1 JUMP JUMPDEST PUSH1 0x0 PUSH1 0x20 DUP3 DUP5 SUB SLT ISZERO PUSH2 0x43BC JUMPI PUSH1 0x0 DUP1 REVERT JUMPDEST DUP2 MLOAD PUSH2 0x376E DUP2 PUSH2 0x3884 JUMP JUMPDEST PUSH1 0x0 PUSH1 0x20 DUP3 DUP5 SUB SLT ISZERO PUSH2 0x43D9 JUMPI PUSH1 0x0 DUP1 REVERT JUMPDEST POP MLOAD SWAP2 SWAP1 POP JUMP JUMPDEST DUP1 DUP3 MUL DUP2 ISZERO DUP3 DUP3 DIV DUP5 EQ OR PUSH2 0x2947 JUMPI PUSH2 0x2947 PUSH2 0x42A5 JUMP JUMPDEST PUSH1 0x0 DUP3 PUSH2 0x4414 JUMPI PUSH4 0x4E487B71 PUSH1 0xE0 SHL PUSH1 0x0 MSTORE PUSH1 0x12 PUSH1 0x4 MSTORE PUSH1 0x24 PUSH1 0x0 REVERT JUMPDEST POP DIV SWAP1 JUMP JUMPDEST PUSH1 0x1 PUSH1 0x1 PUSH1 0xA0 SHL SUB SWAP8 DUP9 AND DUP2 MSTORE SWAP6 SWAP1 SWAP7 AND PUSH1 0x20 DUP7 ADD MSTORE PUSH1 0x40 DUP6 ADD SWAP4 SWAP1 SWAP4 MSTORE PUSH1 0x60 DUP5 ADD SWAP2 SWAP1 SWAP2 MSTORE PUSH1 0xFF AND PUSH1 0x80 DUP4 ADD MSTORE PUSH1 0xA0 DUP3 ADD MSTORE PUSH1 0xC0 DUP2 ADD SWAP2 SWAP1 SWAP2 MSTORE PUSH1 0xE0 ADD SWAP1 JUMP JUMPDEST SWAP2 DUP3 MSTORE PUSH1 0x1 PUSH1 0x1 PUSH1 0xA0 SHL SUB AND PUSH1 0x20 DUP3 ADD MSTORE PUSH1 0x40 ADD SWAP1 JUMP JUMPDEST DUP1 MLOAD PUSH1 0x1 PUSH1 0x1 PUSH1 0x70 SHL SUB DUP2 AND DUP2 EQ PUSH2 0x3678 JUMPI PUSH1 0x0 DUP1 REVERT JUMPDEST PUSH1 0x0 DUP1 PUSH1 0x0 PUSH1 0x60 DUP5 DUP7 SUB SLT ISZERO PUSH2 0x449D JUMPI PUSH1 0x0 DUP1 REVERT JUMPDEST PUSH2 0x44A6 DUP5 PUSH2 0x4471 JUMP JUMPDEST SWAP3 POP PUSH2 0x44B4 PUSH1 0x20 DUP6 ADD PUSH2 0x4471 JUMP JUMPDEST SWAP2 POP PUSH1 0x40 DUP5 ADD MLOAD PUSH4 0xFFFFFFFF DUP2 AND DUP2 EQ PUSH2 0x3C00 JUMPI PUSH1 0x0 DUP1 REVERT JUMPDEST PUSH1 0x1 PUSH1 0x1 PUSH1 0xA0 SHL SUB SWAP3 SWAP1 SWAP3 AND DUP3 MSTORE PUSH1 0x20 DUP3 ADD MSTORE PUSH1 0x40 ADD SWAP1 JUMP JUMPDEST DUP1 DUP3 ADD DUP1 DUP3 GT ISZERO PUSH2 0x2947 JUMPI PUSH2 0x2947 PUSH2 0x42A5 JUMP JUMPDEST PUSH1 0x0 JUMPDEST DUP4 DUP2 LT ISZERO PUSH2 0x4514 JUMPI DUP2 DUP2 ADD MLOAD DUP4 DUP3 ADD MSTORE PUSH1 0x20 ADD PUSH2 0x44FC JUMP JUMPDEST POP POP PUSH1 0x0 SWAP2 ADD MSTORE JUMP JUMPDEST PUSH1 0x0 DUP3 MLOAD PUSH2 0x452F DUP2 DUP5 PUSH1 0x20 DUP8 ADD PUSH2 0x44F9 JUMP JUMPDEST SWAP2 SWAP1 SWAP2 ADD SWAP3 SWAP2 POP POP JUMP JUMPDEST DUP5 DUP2 MSTORE DUP4 PUSH1 0x20 DUP3 ADD MSTORE PUSH1 0x1 DUP1 PUSH1 0xA0 SHL SUB DUP4 AND PUSH1 0x40 DUP3 ADD MSTORE PUSH1 0x80 PUSH1 0x60 DUP3 ADD MSTORE PUSH1 0x0 DUP3 MLOAD DUP1 PUSH1 0x80 DUP5 ADD MSTORE PUSH2 0x4572 DUP2 PUSH1 0xA0 DUP6 ADD PUSH1 0x20 DUP8 ADD PUSH2 0x44F9 JUMP JUMPDEST PUSH1 0x1F ADD PUSH1 0x1F NOT AND SWAP2 SWAP1 SWAP2 ADD PUSH1 0xA0 ADD SWAP6 SWAP5 POP POP POP POP POP JUMP JUMPDEST SWAP3 DUP4 MSTORE PUSH1 0x1 PUSH1 0x1 PUSH1 0xA0 SHL SUB SWAP2 SWAP1 SWAP2 AND PUSH1 0x20 DUP4 ADD MSTORE ISZERO ISZERO PUSH1 0x40 DUP3 ADD MSTORE PUSH1 0x60 ADD SWAP1 JUMP INVALID LOG2 PUSH5 0x6970667358 0x22 SLT KECCAK256 0xA8 DUP3 0xB2 PUSH1 0xE2 0xA8 0xEB RETURNDATACOPY ADD SHR CODESIZE 0xD8 0xEC 0xF9 SGT 0xE9 PUSH13 0x361E2D64A30CD2CEA27944012F JUMPDEST 0x23 PUSH5 0x736F6C6343 STOP ADDMOD SHR STOP CALLER "
        },
        "methodIdentifiers": {
          "UNSAFE_swapExactTokensForTokens(uint256[],(address,address,bool)[],address,uint256)": "7301e3c8",
          "addLiquidity(address,address,bool,uint256,uint256,uint256,uint256,address,uint256)": "5a47ddc3",
          "addLiquidityETH(address,bool,uint256,uint256,uint256,address,uint256)": "b7e0d4c0",
          "factory()": "c45a0155",
          "getAmountOut(uint256,address,address)": "5e1e6325",
          "getAmountsOut(uint256,(address,address,bool)[])": "9881fcb4",
          "getReserves(address,address,bool)": "5e60dab5",
          "isPair(address)": "e5e31b13",
          "pairFor(address,address,bool)": "4c1ee03e",
          "quoteAddLiquidity(address,address,bool,uint256,uint256)": "98a0fb3c",
          "quoteRemoveLiquidity(address,address,bool,uint256)": "4386e63c",
          "removeLiquidity(address,address,bool,uint256,uint256,uint256,address,uint256)": "0dede6c4",
          "removeLiquidityETH(address,bool,uint256,uint256,uint256,address,uint256)": "d7b0e0a5",
          "removeLiquidityETHSupportingFeeOnTransferTokens(address,bool,uint256,uint256,uint256,address,uint256)": "fe411f14",
          "removeLiquidityETHWithPermit(address,bool,uint256,uint256,uint256,address,uint256,bool,uint8,bytes32,bytes32)": "448725b4",
          "removeLiquidityETHWithPermitSupportingFeeOnTransferTokens(address,bool,uint256,uint256,uint256,address,uint256,bool,uint8,bytes32,bytes32)": "e2d9d4dc",
          "removeLiquidityWithPermit(address,address,bool,uint256,uint256,uint256,address,uint256,bool,uint8,bytes32,bytes32)": "a32b1fcd",
          "sortTokens(address,address)": "544caa56",
          "swapExactETHForTokens(uint256,(address,address,bool)[],address,uint256)": "67ffb66a",
          "swapExactETHForTokensSupportingFeeOnTransferTokens(uint256,(address,address,bool)[],address,uint256)": "76c72751",
          "swapExactTokensForETH(uint256,uint256,(address,address,bool)[],address,uint256)": "18a13086",
          "swapExactTokensForETHSupportingFeeOnTransferTokens(uint256,uint256,(address,address,bool)[],address,uint256)": "7af728c8",
          "swapExactTokensForTokens(uint256,uint256,(address,address,bool)[],address,uint256)": "f41766d8",
          "swapExactTokensForTokensSimple(uint256,uint256,address,address,bool,address,uint256)": "13dcfc59",
          "swapExactTokensForTokensSupportingFeeOnTransferTokens(uint256,uint256,(address,address,bool)[],address,uint256)": "6cc1ae13",
          "wETH()": "f2428621"
        }
      },
      "storageLayout": {
        "storage": [],
        "types": null
      }
    }
  }
}