{
  "contracts/MinterUpgradeable.sol": {
    "MinterUpgradeable": {
      "abi": [
        {
          "inputs": [],
          "stateMutability": "nonpayable",
          "type": "constructor"
        },
        {
          "anonymous": false,
          "inputs": [
            {
              "indexed": false,
              "internalType": "uint8",
              "name": "version",
              "type": "uint8"
            }
          ],
          "name": "Initialized",
          "type": "event"
        },
        {
          "anonymous": false,
          "inputs": [
            {
              "indexed": true,
              "internalType": "address",
              "name": "sender",
              "type": "address"
            },
            {
              "indexed": false,
              "internalType": "uint256",
              "name": "weekly",
              "type": "uint256"
            },
            {
              "indexed": false,
              "internalType": "uint256",
              "name": "circulating_supply",
              "type": "uint256"
            },
            {
              "indexed": false,
              "internalType": "uint256",
              "name": "circulating_emission",
              "type": "uint256"
            }
          ],
          "name": "Mint",
          "type": "event"
        },
        {
          "anonymous": false,
          "inputs": [
            {
              "indexed": true,
              "internalType": "address",
              "name": "previousOwner",
              "type": "address"
            },
            {
              "indexed": true,
              "internalType": "address",
              "name": "newOwner",
              "type": "address"
            }
          ],
          "name": "OwnershipTransferred",
          "type": "event"
        },
        {
          "inputs": [],
          "name": "EMISSION",
          "outputs": [
            {
              "internalType": "uint256",
              "name": "",
              "type": "uint256"
            }
          ],
          "stateMutability": "view",
          "type": "function"
        },
        {
          "inputs": [],
          "name": "LOCK",
          "outputs": [
            {
              "internalType": "uint256",
              "name": "",
              "type": "uint256"
            }
          ],
          "stateMutability": "view",
          "type": "function"
        },
        {
          "inputs": [],
          "name": "MAX_TEAM_RATE",
          "outputs": [
            {
              "internalType": "uint256",
              "name": "",
              "type": "uint256"
            }
          ],
          "stateMutability": "view",
          "type": "function"
        },
        {
          "inputs": [],
          "name": "PRECISION",
          "outputs": [
            {
              "internalType": "uint256",
              "name": "",
              "type": "uint256"
            }
          ],
          "stateMutability": "view",
          "type": "function"
        },
        {
          "inputs": [],
          "name": "REBASEMAX",
          "outputs": [
            {
              "internalType": "uint256",
              "name": "",
              "type": "uint256"
            }
          ],
          "stateMutability": "view",
          "type": "function"
        },
        {
          "inputs": [],
          "name": "TAIL_EMISSION",
          "outputs": [
            {
              "internalType": "uint256",
              "name": "",
              "type": "uint256"
            }
          ],
          "stateMutability": "view",
          "type": "function"
        },
        {
          "inputs": [],
          "name": "WEEK",
          "outputs": [
            {
              "internalType": "uint256",
              "name": "",
              "type": "uint256"
            }
          ],
          "stateMutability": "view",
          "type": "function"
        },
        {
          "inputs": [],
          "name": "_emissionToken",
          "outputs": [
            {
              "internalType": "contract IEmissionToken",
              "name": "",
              "type": "address"
            }
          ],
          "stateMutability": "view",
          "type": "function"
        },
        {
          "inputs": [
            {
              "internalType": "address[]",
              "name": "claimants",
              "type": "address[]"
            },
            {
              "internalType": "uint256[]",
              "name": "amounts",
              "type": "uint256[]"
            },
            {
              "internalType": "uint256",
              "name": "max",
              "type": "uint256"
            }
          ],
          "name": "_initialize",
          "outputs": [],
          "stateMutability": "nonpayable",
          "type": "function"
        },
        {
          "inputs": [],
          "name": "_rewards_distributor",
          "outputs": [
            {
              "internalType": "contract IRewardsDistributor",
              "name": "",
              "type": "address"
            }
          ],
          "stateMutability": "view",
          "type": "function"
        },
        {
          "inputs": [],
          "name": "_ve",
          "outputs": [
            {
              "internalType": "contract IVotingEscrow",
              "name": "",
              "type": "address"
            }
          ],
          "stateMutability": "view",
          "type": "function"
        },
        {
          "inputs": [],
          "name": "_voter",
          "outputs": [
            {
              "internalType": "contract IVoter",
              "name": "",
              "type": "address"
            }
          ],
          "stateMutability": "view",
          "type": "function"
        },
        {
          "inputs": [],
          "name": "acceptTeam",
          "outputs": [],
          "stateMutability": "nonpayable",
          "type": "function"
        },
        {
          "inputs": [],
          "name": "active_period",
          "outputs": [
            {
              "internalType": "uint256",
              "name": "",
              "type": "uint256"
            }
          ],
          "stateMutability": "view",
          "type": "function"
        },
        {
          "inputs": [],
          "name": "calculate_emission",
          "outputs": [
            {
              "internalType": "uint256",
              "name": "",
              "type": "uint256"
            }
          ],
          "stateMutability": "view",
          "type": "function"
        },
        {
          "inputs": [
            {
              "internalType": "uint256",
              "name": "_weeklyMint",
              "type": "uint256"
            }
          ],
          "name": "calculate_rebase",
          "outputs": [
            {
              "internalType": "uint256",
              "name": "",
              "type": "uint256"
            }
          ],
          "stateMutability": "view",
          "type": "function"
        },
        {
          "inputs": [],
          "name": "check",
          "outputs": [
            {
              "internalType": "bool",
              "name": "",
              "type": "bool"
            }
          ],
          "stateMutability": "view",
          "type": "function"
        },
        {
          "inputs": [],
          "name": "circulating_emission",
          "outputs": [
            {
              "internalType": "uint256",
              "name": "",
              "type": "uint256"
            }
          ],
          "stateMutability": "view",
          "type": "function"
        },
        {
          "inputs": [],
          "name": "circulating_supply",
          "outputs": [
            {
              "internalType": "uint256",
              "name": "",
              "type": "uint256"
            }
          ],
          "stateMutability": "view",
          "type": "function"
        },
        {
          "inputs": [
            {
              "internalType": "address",
              "name": "__voter",
              "type": "address"
            },
            {
              "internalType": "address",
              "name": "__ve",
              "type": "address"
            },
            {
              "internalType": "address",
              "name": "__rewards_distributor",
              "type": "address"
            }
          ],
          "name": "initialize",
          "outputs": [],
          "stateMutability": "nonpayable",
          "type": "function"
        },
        {
          "inputs": [],
          "name": "isFirstMint",
          "outputs": [
            {
              "internalType": "bool",
              "name": "",
              "type": "bool"
            }
          ],
          "stateMutability": "view",
          "type": "function"
        },
        {
          "inputs": [],
          "name": "owner",
          "outputs": [
            {
              "internalType": "address",
              "name": "",
              "type": "address"
            }
          ],
          "stateMutability": "view",
          "type": "function"
        },
        {
          "inputs": [],
          "name": "pendingTeam",
          "outputs": [
            {
              "internalType": "address",
              "name": "",
              "type": "address"
            }
          ],
          "stateMutability": "view",
          "type": "function"
        },
        {
          "inputs": [],
          "name": "period",
          "outputs": [
            {
              "internalType": "uint256",
              "name": "",
              "type": "uint256"
            }
          ],
          "stateMutability": "view",
          "type": "function"
        },
        {
          "inputs": [],
          "name": "renounceOwnership",
          "outputs": [],
          "stateMutability": "nonpayable",
          "type": "function"
        },
        {
          "inputs": [
            {
              "internalType": "uint256",
              "name": "_emission",
              "type": "uint256"
            }
          ],
          "name": "setEmission",
          "outputs": [],
          "stateMutability": "nonpayable",
          "type": "function"
        },
        {
          "inputs": [
            {
              "internalType": "uint256",
              "name": "_rebase",
              "type": "uint256"
            }
          ],
          "name": "setRebase",
          "outputs": [],
          "stateMutability": "nonpayable",
          "type": "function"
        },
        {
          "inputs": [
            {
              "internalType": "address",
              "name": "_rewardDistro",
              "type": "address"
            }
          ],
          "name": "setRewardDistributor",
          "outputs": [],
          "stateMutability": "nonpayable",
          "type": "function"
        },
        {
          "inputs": [
            {
              "internalType": "address",
              "name": "_team",
              "type": "address"
            }
          ],
          "name": "setTeam",
          "outputs": [],
          "stateMutability": "nonpayable",
          "type": "function"
        },
        {
          "inputs": [
            {
              "internalType": "uint256",
              "name": "_teamRate",
              "type": "uint256"
            }
          ],
          "name": "setTeamRate",
          "outputs": [],
          "stateMutability": "nonpayable",
          "type": "function"
        },
        {
          "inputs": [
            {
              "internalType": "address",
              "name": "__voter",
              "type": "address"
            }
          ],
          "name": "setVoter",
          "outputs": [],
          "stateMutability": "nonpayable",
          "type": "function"
        },
        {
          "inputs": [],
          "name": "team",
          "outputs": [
            {
              "internalType": "address",
              "name": "",
              "type": "address"
            }
          ],
          "stateMutability": "view",
          "type": "function"
        },
        {
          "inputs": [],
          "name": "teamRate",
          "outputs": [
            {
              "internalType": "uint256",
              "name": "",
              "type": "uint256"
            }
          ],
          "stateMutability": "view",
          "type": "function"
        },
        {
          "inputs": [
            {
              "internalType": "address",
              "name": "newOwner",
              "type": "address"
            }
          ],
          "name": "transferOwnership",
          "outputs": [],
          "stateMutability": "nonpayable",
          "type": "function"
        },
        {
          "inputs": [],
          "name": "update_period",
          "outputs": [
            {
              "internalType": "uint256",
              "name": "",
              "type": "uint256"
            }
          ],
          "stateMutability": "nonpayable",
          "type": "function"
        },
        {
          "inputs": [],
          "name": "weekly",
          "outputs": [
            {
              "internalType": "uint256",
              "name": "",
              "type": "uint256"
            }
          ],
          "stateMutability": "view",
          "type": "function"
        },
        {
          "inputs": [],
          "name": "weekly_emission",
          "outputs": [
            {
              "internalType": "uint256",
              "name": "",
              "type": "uint256"
            }
          ],
          "stateMutability": "view",
          "type": "function"
        }
      ],
      "evm": {
        "bytecode": {
          "linkReferences": {},
          "object": "608060405234801561001057600080fd5b5061188c806100206000396000f3fe608060405234801561001057600080fd5b50600436106101f75760003560e01c8063a129cfbf11610120578063cfc6c8ff116100b8578063e6684de81161007c578063e6684de8146103ea578063ed29fc11146103f3578063ef78d4fd146103fb578063f2fde38b14610403578063f4359ce51461041657600080fd5b8063cfc6c8ff146103ab578063d1399608146103b3578063ddce102f146103bc578063de3e3492146103cf578063e038c75a146103e257600080fd5b8063a129cfbf14610337578063a1809b951461034a578063a18cb9561461035d578063a2e23a5114610366578063a4f0d7d01461036f578063a9abf7ec1461037a578063aaf5eb6814610387578063b5cc143a14610390578063c0c53b8b1461039857600080fd5b80634bc2a657116101935780634bc2a6571461029e57806359d46ffc146102b1578063715018a6146102c457806378ef7f02146102cc57806385f2aef2146102d55780638da5cb5b146102e85780638dd598fb146102f9578063919840ad1461030c578063952c820a1461032457600080fd5b806301c8e6fd146101fc578063095cf5c6146102175780631c1b9e521461022c5780631eebae801461024c57806326cfc17b146102545780632e8f7b1f1461025d57806336d96faf146102705780633db9b42a146102785780634b1cd5da1461028b575b600080fd5b610204603281565b6040519081526020015b60405180910390f35b61022a610225366004611466565b610420565b005b606f5461023f906001600160a01b031681565b60405161020e9190611483565b610204610475565b610204606a5481565b61022a61026b366004611497565b61049e565b6102046104ef565b60705461023f906001600160a01b031681565b60725461023f906001600160a01b031681565b61022a6102ac366004611466565b610504565b606e5461023f906001600160a01b031681565b61022a610563565b61020460695481565b606d5461023f906001600160a01b031681565b6033546001600160a01b031661023f565b60715461023f906001600160a01b031681565b610314610577565b604051901515815260200161020e565b61022a610332366004611586565b6105a8565b610204610345366004611497565b6107d3565b61022a610358366004611466565b61091e565b61020460665481565b61020460675481565b6102046303bfc40081565b6065546103149060ff1681565b6102046103e881565b61022a610957565b61022a6103a6366004611651565b6109c8565b610204610c11565b610204606b5481565b61022a6103ca366004611497565b610c2b565b61022a6103dd366004611497565b610c7c565b610204610ccd565b61020460685481565b610204610dc7565b61020461129a565b61022a610411366004611466565b6112b4565b61020462093a8081565b606d546001600160a01b031633146104535760405162461bcd60e51b815260040161044a9061169c565b60405180910390fd5b606e80546001600160a01b0319166001600160a01b0392909216919091179055565b60006103e8606754610485610ccd565b61048f91906116d4565b61049991906116f3565b905090565b606d546001600160a01b031633146104c85760405162461bcd60e51b815260040161044a9061169c565b6107d08111156104ea5760405162461bcd60e51b815260040161044a90611715565b606955565b60006103e8606654606a5461048f91906116d4565b6001600160a01b03811661051757600080fd5b606d546001600160a01b031633146105415760405162461bcd60e51b815260040161044a9061169c565b607080546001600160a01b0319166001600160a01b0392909216919091179055565b61056b61132d565b6105756000611387565b565b606b5460009061058a62093a808261173c565b42101580156105a25750606c546001600160a01b0316155b91505090565b606c546001600160a01b031633146105bf57600080fd5b80156107a357606f546040516340c10f1960e01b81526001600160a01b03909116906340c10f19906105f79030908590600401611754565b6020604051808303816000875af1158015610616573d6000803e3d6000fd5b505050506040513d601f19601f8201168201806040525081019061063a919061176d565b50606f5460715460405163095ea7b360e01b81526001600160a01b039283169263095ea7b3926106739291169060001990600401611754565b6020604051808303816000875af1158015610692573d6000803e3d6000fd5b505050506040513d601f19601f820116820180604052508101906106b6919061176d565b5060005b83518110156107a15760715483516001600160a01b039091169063d4e54c3b908590849081106106ec576106ec61178f565b60200260200101516303bfc40087858151811061070b5761070b61178f565b60200260200101516040518463ffffffff1660e01b815260040161074b9392919092835260208301919091526001600160a01b0316604082015260600190565b6020604051808303816000875af115801561076a573d6000803e3d6000fd5b505050506040513d601f19601f8201168201806040525081019061078e91906117a5565b5080610799816117be565b9150506106ba565b505b606c80546001600160a01b031916905562093a806107c181426116f3565b6107cb91906116d4565b606b55505050565b606f546071546040516370a0823160e01b815260009283926001600160a01b03918216926370a082319261080b921690600401611483565b602060405180830381865afa158015610828573d6000803e3d6000fd5b505050506040513d601f19601f8201168201806040525081019061084c91906117a5565b90506000606f60009054906101000a90046001600160a01b03166001600160a01b03166318160ddd6040518163ffffffff1660e01b8152600401602060405180830381865afa1580156108a3573d6000803e3d6000fd5b505050506040513d601f19601f820116820180604052508101906108c791906117a5565b90506000816108d86103e8856116d4565b6108e291906116f3565b90506068548110610911576103e8606854866108fe91906116d4565b61090891906116f3565b95945050505050565b6103e86108fe82876116d4565b606d546001600160a01b0316331461093557600080fd5b607280546001600160a01b0319166001600160a01b0392909216919091179055565b606e546001600160a01b031633146109a45760405162461bcd60e51b815260206004820152601060248201526f6e6f742070656e64696e67207465616d60801b604482015260640161044a565b606e54606d80546001600160a01b0319166001600160a01b03909216919091179055565b600054610100900460ff16158080156109e85750600054600160ff909116105b80610a025750303b158015610a02575060005460ff166001145b610a655760405162461bcd60e51b815260206004820152602e60248201527f496e697469616c697a61626c653a20636f6e747261637420697320616c72656160448201526d191e481a5b9a5d1a585b1a5e995960921b606482015260840161044a565b6000805460ff191660011790558015610a88576000805461ff0019166101001790555b610a906113d9565b606c8054336001600160a01b03199182168117909255606d8054909116909117905560196069556103d4606655600260675561012c60685560408051637e062a3560e11b815290516001600160a01b0385169163fc0c546a9160048281019260209291908290030181865afa158015610b0d573d6000803e3d6000fd5b505050506040513d601f19601f82011682018060405250810190610b3191906117d7565b606f80546001600160a01b03199081166001600160a01b03938416179091556070805482168784161790556071805482168684161790556072805490911691841691909117905562093a8080610b888160026116d4565b610b92904261173c565b610b9c91906116f3565b610ba691906116d4565b606b556a022692484ce19d09000000606a556065805460ff191660011790558015610c0b576000805461ff0019169055604051600181527f7f26b83ff96e1f2b6a682f133852f6798a09c465da95921460cefb38474024989060200160405180910390a15b50505050565b6000610499610c1e6104ef565b610c26610475565b611408565b606d546001600160a01b03163314610c555760405162461bcd60e51b815260040161044a9061169c565b6103e8811115610c775760405162461bcd60e51b815260040161044a90611715565b606655565b606d546001600160a01b03163314610ca65760405162461bcd60e51b815260040161044a9061169c565b6103e8811115610cc85760405162461bcd60e51b815260040161044a90611715565b606855565b606f546071546040516370a0823160e01b81526000926001600160a01b03908116926370a0823192610d059290911690600401611483565b602060405180830381865afa158015610d22573d6000803e3d6000fd5b505050506040513d601f19601f82011682018060405250810190610d4691906117a5565b606f60009054906101000a90046001600160a01b03166001600160a01b03166318160ddd6040518163ffffffff1660e01b8152600401602060405180830381865afa158015610d99573d6000803e3d6000fd5b505050506040513d601f19601f82011682018060405250810190610dbd91906117a5565b61049991906117f4565b606b54600090610dda62093a808261173c565b4210158015610df25750606c546001600160a01b0316155b156112955762093a80610e0581426116f3565b610e0f91906116d4565b606b81905560655490915060ff16610e3157610e29610c11565b606a55610e3c565b6065805460ff191690555b6000610e49606a546107d3565b905060006103e8606954606a54610e6091906116d4565b610e6a91906116f3565b606a54909150600082610e7d85846117f4565b610e8791906117f4565b606f546040516370a0823160e01b81529192506000916001600160a01b03909116906370a0823190610ebd903090600401611483565b602060405180830381865afa158015610eda573d6000803e3d6000fd5b505050506040513d601f19601f82011682018060405250810190610efe91906117a5565b905082811015610f8657606f546001600160a01b03166340c10f1930610f2484876117f4565b6040518363ffffffff1660e01b8152600401610f41929190611754565b6020604051808303816000875af1158015610f60573d6000803e3d6000fd5b505050506040513d601f19601f82011682018060405250810190610f84919061176d565b505b606f54606d5460405163a9059cbb60e01b81526001600160a01b039283169263a9059cbb92610fbc929116908890600401611754565b6020604051808303816000875af1158015610fdb573d6000803e3d6000fd5b505050506040513d601f19601f82011682018060405250810190610fff919061176d565b61100857600080fd5b606f5460725460405163a9059cbb60e01b81526001600160a01b039283169263a9059cbb9261103e929116908990600401611754565b6020604051808303816000875af115801561105d573d6000803e3d6000fd5b505050506040513d601f19601f82011682018060405250810190611081919061176d565b61108a57600080fd5b607260009054906101000a90046001600160a01b03166001600160a01b031663811a40fe6040518163ffffffff1660e01b8152600401600060405180830381600087803b1580156110da57600080fd5b505af11580156110ee573d6000803e3d6000fd5b50505050607260009054906101000a90046001600160a01b03166001600160a01b031663b21ed5026040518163ffffffff1660e01b8152600401600060405180830381600087803b15801561114257600080fd5b505af1158015611156573d6000803e3d6000fd5b5050606f5460705460405163095ea7b360e01b81526001600160a01b03928316945063095ea7b3935061119192909116908690600401611754565b6020604051808303816000875af11580156111b0573d6000803e3d6000fd5b505050506040513d601f19601f820116820180604052508101906111d4919061176d565b50607054604051633c6b16ab60e01b8152600481018490526001600160a01b0390911690633c6b16ab90602401600060405180830381600087803b15801561121b57600080fd5b505af115801561122f573d6000803e3d6000fd5b50505050336001600160a01b03167fb4c03061fb5b7fed76389d5af8f2e0ddb09f8c70d1333abbb62582835e10accb606a54611269610ccd565b611271610475565b6040805193845260208401929092529082015260600160405180910390a250505050505b919050565b600062093a806112aa81426116f3565b61049991906116d4565b6112bc61132d565b6001600160a01b0381166113215760405162461bcd60e51b815260206004820152602660248201527f4f776e61626c653a206e6577206f776e657220697320746865207a65726f206160448201526564647265737360d01b606482015260840161044a565b61132a81611387565b50565b6033546001600160a01b031633146105755760405162461bcd60e51b815260206004820181905260248201527f4f776e61626c653a2063616c6c6572206973206e6f7420746865206f776e6572604482015260640161044a565b603380546001600160a01b038381166001600160a01b0319831681179093556040519116919082907f8be0079c531659141344cd1fd0a4f28419497f9722a3daafe3b4186f6b6457e090600090a35050565b600054610100900460ff166114005760405162461bcd60e51b815260040161044a9061180b565b610575611421565b600081831015611418578161141a565b825b9392505050565b600054610100900460ff166114485760405162461bcd60e51b815260040161044a9061180b565b61057533611387565b6001600160a01b038116811461132a57600080fd5b60006020828403121561147857600080fd5b813561141a81611451565b6001600160a01b0391909116815260200190565b6000602082840312156114a957600080fd5b5035919050565b634e487b7160e01b600052604160045260246000fd5b604051601f8201601f1916810167ffffffffffffffff811182821017156114ef576114ef6114b0565b604052919050565b600067ffffffffffffffff821115611511576115116114b0565b5060051b60200190565b600082601f83011261152c57600080fd5b8135602061154161153c836114f7565b6114c6565b82815260059290921b8401810191818101908684111561156057600080fd5b8286015b8481101561157b5780358352918301918301611564565b509695505050505050565b60008060006060848603121561159b57600080fd5b833567ffffffffffffffff808211156115b357600080fd5b818601915086601f8301126115c757600080fd5b813560206115d761153c836114f7565b82815260059290921b8401810191818101908a8411156115f657600080fd5b948201945b8386101561161d57853561160e81611451565b825294820194908201906115fb565b9750508701359250508082111561163357600080fd5b506116408682870161151b565b925050604084013590509250925092565b60008060006060848603121561166657600080fd5b833561167181611451565b9250602084013561168181611451565b9150604084013561169181611451565b809150509250925092565b6020808252600890820152676e6f74207465616d60c01b604082015260600190565b634e487b7160e01b600052601160045260246000fd5b60008160001904831182151516156116ee576116ee6116be565b500290565b60008261171057634e487b7160e01b600052601260045260246000fd5b500490565b6020808252600d908201526c0e4c2e8ca40e8dede40d0d2ced609b1b604082015260600190565b6000821982111561174f5761174f6116be565b500190565b6001600160a01b03929092168252602082015260400190565b60006020828403121561177f57600080fd5b8151801515811461141a57600080fd5b634e487b7160e01b600052603260045260246000fd5b6000602082840312156117b757600080fd5b5051919050565b6000600182016117d0576117d06116be565b5060010190565b6000602082840312156117e957600080fd5b815161141a81611451565b600082821015611806576118066116be565b500390565b6020808252602b908201527f496e697469616c697a61626c653a20636f6e7472616374206973206e6f74206960408201526a6e697469616c697a696e6760a81b60608201526080019056fea2646970667358221220a7d3bc3ec2ad2806b4008df63da55fba08416698768260f3a96ad5b798140af764736f6c634300080d0033",
          "opcodes": "PUSH1 0x80 PUSH1 0x40 MSTORE CALLVALUE DUP1 ISZERO PUSH2 0x10 JUMPI PUSH1 0x0 DUP1 REVERT JUMPDEST POP PUSH2 0x188C DUP1 PUSH2 0x20 PUSH1 0x0 CODECOPY PUSH1 0x0 RETURN INVALID PUSH1 0x80 PUSH1 0x40 MSTORE CALLVALUE DUP1 ISZERO PUSH2 0x10 JUMPI PUSH1 0x0 DUP1 REVERT JUMPDEST POP PUSH1 0x4 CALLDATASIZE LT PUSH2 0x1F7 JUMPI PUSH1 0x0 CALLDATALOAD PUSH1 0xE0 SHR DUP1 PUSH4 0xA129CFBF GT PUSH2 0x120 JUMPI DUP1 PUSH4 0xCFC6C8FF GT PUSH2 0xB8 JUMPI DUP1 PUSH4 0xE6684DE8 GT PUSH2 0x7C JUMPI DUP1 PUSH4 0xE6684DE8 EQ PUSH2 0x3EA JUMPI DUP1 PUSH4 0xED29FC11 EQ PUSH2 0x3F3 JUMPI DUP1 PUSH4 0xEF78D4FD EQ PUSH2 0x3FB JUMPI DUP1 PUSH4 0xF2FDE38B EQ PUSH2 0x403 JUMPI DUP1 PUSH4 0xF4359CE5 EQ PUSH2 0x416 JUMPI PUSH1 0x0 DUP1 REVERT JUMPDEST DUP1 PUSH4 0xCFC6C8FF EQ PUSH2 0x3AB JUMPI DUP1 PUSH4 0xD1399608 EQ PUSH2 0x3B3 JUMPI DUP1 PUSH4 0xDDCE102F EQ PUSH2 0x3BC JUMPI DUP1 PUSH4 0xDE3E3492 EQ PUSH2 0x3CF JUMPI DUP1 PUSH4 0xE038C75A EQ PUSH2 0x3E2 JUMPI PUSH1 0x0 DUP1 REVERT JUMPDEST DUP1 PUSH4 0xA129CFBF EQ PUSH2 0x337 JUMPI DUP1 PUSH4 0xA1809B95 EQ PUSH2 0x34A JUMPI DUP1 PUSH4 0xA18CB956 EQ PUSH2 0x35D JUMPI DUP1 PUSH4 0xA2E23A51 EQ PUSH2 0x366 JUMPI DUP1 PUSH4 0xA4F0D7D0 EQ PUSH2 0x36F JUMPI DUP1 PUSH4 0xA9ABF7EC EQ PUSH2 0x37A JUMPI DUP1 PUSH4 0xAAF5EB68 EQ PUSH2 0x387 JUMPI DUP1 PUSH4 0xB5CC143A EQ PUSH2 0x390 JUMPI DUP1 PUSH4 0xC0C53B8B EQ PUSH2 0x398 JUMPI PUSH1 0x0 DUP1 REVERT JUMPDEST DUP1 PUSH4 0x4BC2A657 GT PUSH2 0x193 JUMPI DUP1 PUSH4 0x4BC2A657 EQ PUSH2 0x29E JUMPI DUP1 PUSH4 0x59D46FFC EQ PUSH2 0x2B1 JUMPI DUP1 PUSH4 0x715018A6 EQ PUSH2 0x2C4 JUMPI DUP1 PUSH4 0x78EF7F02 EQ PUSH2 0x2CC JUMPI DUP1 PUSH4 0x85F2AEF2 EQ PUSH2 0x2D5 JUMPI DUP1 PUSH4 0x8DA5CB5B EQ PUSH2 0x2E8 JUMPI DUP1 PUSH4 0x8DD598FB EQ PUSH2 0x2F9 JUMPI DUP1 PUSH4 0x919840AD EQ PUSH2 0x30C JUMPI DUP1 PUSH4 0x952C820A EQ PUSH2 0x324 JUMPI PUSH1 0x0 DUP1 REVERT JUMPDEST DUP1 PUSH4 0x1C8E6FD EQ PUSH2 0x1FC JUMPI DUP1 PUSH4 0x95CF5C6 EQ PUSH2 0x217 JUMPI DUP1 PUSH4 0x1C1B9E52 EQ PUSH2 0x22C JUMPI DUP1 PUSH4 0x1EEBAE80 EQ PUSH2 0x24C JUMPI DUP1 PUSH4 0x26CFC17B EQ PUSH2 0x254 JUMPI DUP1 PUSH4 0x2E8F7B1F EQ PUSH2 0x25D JUMPI DUP1 PUSH4 0x36D96FAF EQ PUSH2 0x270 JUMPI DUP1 PUSH4 0x3DB9B42A EQ PUSH2 0x278 JUMPI DUP1 PUSH4 0x4B1CD5DA EQ PUSH2 0x28B JUMPI JUMPDEST PUSH1 0x0 DUP1 REVERT JUMPDEST PUSH2 0x204 PUSH1 0x32 DUP2 JUMP JUMPDEST PUSH1 0x40 MLOAD SWAP1 DUP2 MSTORE PUSH1 0x20 ADD JUMPDEST PUSH1 0x40 MLOAD DUP1 SWAP2 SUB SWAP1 RETURN JUMPDEST PUSH2 0x22A PUSH2 0x225 CALLDATASIZE PUSH1 0x4 PUSH2 0x1466 JUMP JUMPDEST PUSH2 0x420 JUMP JUMPDEST STOP JUMPDEST PUSH1 0x6F SLOAD PUSH2 0x23F SWAP1 PUSH1 0x1 PUSH1 0x1 PUSH1 0xA0 SHL SUB AND DUP2 JUMP JUMPDEST PUSH1 0x40 MLOAD PUSH2 0x20E SWAP2 SWAP1 PUSH2 0x1483 JUMP JUMPDEST PUSH2 0x204 PUSH2 0x475 JUMP JUMPDEST PUSH2 0x204 PUSH1 0x6A SLOAD DUP2 JUMP JUMPDEST PUSH2 0x22A PUSH2 0x26B CALLDATASIZE PUSH1 0x4 PUSH2 0x1497 JUMP JUMPDEST PUSH2 0x49E JUMP JUMPDEST PUSH2 0x204 PUSH2 0x4EF JUMP JUMPDEST PUSH1 0x70 SLOAD PUSH2 0x23F SWAP1 PUSH1 0x1 PUSH1 0x1 PUSH1 0xA0 SHL SUB AND DUP2 JUMP JUMPDEST PUSH1 0x72 SLOAD PUSH2 0x23F SWAP1 PUSH1 0x1 PUSH1 0x1 PUSH1 0xA0 SHL SUB AND DUP2 JUMP JUMPDEST PUSH2 0x22A PUSH2 0x2AC CALLDATASIZE PUSH1 0x4 PUSH2 0x1466 JUMP JUMPDEST PUSH2 0x504 JUMP JUMPDEST PUSH1 0x6E SLOAD PUSH2 0x23F SWAP1 PUSH1 0x1 PUSH1 0x1 PUSH1 0xA0 SHL SUB AND DUP2 JUMP JUMPDEST PUSH2 0x22A PUSH2 0x563 JUMP JUMPDEST PUSH2 0x204 PUSH1 0x69 SLOAD DUP2 JUMP JUMPDEST PUSH1 0x6D SLOAD PUSH2 0x23F SWAP1 PUSH1 0x1 PUSH1 0x1 PUSH1 0xA0 SHL SUB AND DUP2 JUMP JUMPDEST PUSH1 0x33 SLOAD PUSH1 0x1 PUSH1 0x1 PUSH1 0xA0 SHL SUB AND PUSH2 0x23F JUMP JUMPDEST PUSH1 0x71 SLOAD PUSH2 0x23F SWAP1 PUSH1 0x1 PUSH1 0x1 PUSH1 0xA0 SHL SUB AND DUP2 JUMP JUMPDEST PUSH2 0x314 PUSH2 0x577 JUMP JUMPDEST PUSH1 0x40 MLOAD SWAP1 ISZERO ISZERO DUP2 MSTORE PUSH1 0x20 ADD PUSH2 0x20E JUMP JUMPDEST PUSH2 0x22A PUSH2 0x332 CALLDATASIZE PUSH1 0x4 PUSH2 0x1586 JUMP JUMPDEST PUSH2 0x5A8 JUMP JUMPDEST PUSH2 0x204 PUSH2 0x345 CALLDATASIZE PUSH1 0x4 PUSH2 0x1497 JUMP JUMPDEST PUSH2 0x7D3 JUMP JUMPDEST PUSH2 0x22A PUSH2 0x358 CALLDATASIZE PUSH1 0x4 PUSH2 0x1466 JUMP JUMPDEST PUSH2 0x91E JUMP JUMPDEST PUSH2 0x204 PUSH1 0x66 SLOAD DUP2 JUMP JUMPDEST PUSH2 0x204 PUSH1 0x67 SLOAD DUP2 JUMP JUMPDEST PUSH2 0x204 PUSH4 0x3BFC400 DUP2 JUMP JUMPDEST PUSH1 0x65 SLOAD PUSH2 0x314 SWAP1 PUSH1 0xFF AND DUP2 JUMP JUMPDEST PUSH2 0x204 PUSH2 0x3E8 DUP2 JUMP JUMPDEST PUSH2 0x22A PUSH2 0x957 JUMP JUMPDEST PUSH2 0x22A PUSH2 0x3A6 CALLDATASIZE PUSH1 0x4 PUSH2 0x1651 JUMP JUMPDEST PUSH2 0x9C8 JUMP JUMPDEST PUSH2 0x204 PUSH2 0xC11 JUMP JUMPDEST PUSH2 0x204 PUSH1 0x6B SLOAD DUP2 JUMP JUMPDEST PUSH2 0x22A PUSH2 0x3CA CALLDATASIZE PUSH1 0x4 PUSH2 0x1497 JUMP JUMPDEST PUSH2 0xC2B JUMP JUMPDEST PUSH2 0x22A PUSH2 0x3DD CALLDATASIZE PUSH1 0x4 PUSH2 0x1497 JUMP JUMPDEST PUSH2 0xC7C JUMP JUMPDEST PUSH2 0x204 PUSH2 0xCCD JUMP JUMPDEST PUSH2 0x204 PUSH1 0x68 SLOAD DUP2 JUMP JUMPDEST PUSH2 0x204 PUSH2 0xDC7 JUMP JUMPDEST PUSH2 0x204 PUSH2 0x129A JUMP JUMPDEST PUSH2 0x22A PUSH2 0x411 CALLDATASIZE PUSH1 0x4 PUSH2 0x1466 JUMP JUMPDEST PUSH2 0x12B4 JUMP JUMPDEST PUSH2 0x204 PUSH3 0x93A80 DUP2 JUMP JUMPDEST PUSH1 0x6D SLOAD PUSH1 0x1 PUSH1 0x1 PUSH1 0xA0 SHL SUB AND CALLER EQ PUSH2 0x453 JUMPI PUSH1 0x40 MLOAD PUSH3 0x461BCD PUSH1 0xE5 SHL DUP2 MSTORE PUSH1 0x4 ADD PUSH2 0x44A SWAP1 PUSH2 0x169C JUMP JUMPDEST PUSH1 0x40 MLOAD DUP1 SWAP2 SUB SWAP1 REVERT JUMPDEST PUSH1 0x6E DUP1 SLOAD PUSH1 0x1 PUSH1 0x1 PUSH1 0xA0 SHL SUB NOT AND PUSH1 0x1 PUSH1 0x1 PUSH1 0xA0 SHL SUB SWAP3 SWAP1 SWAP3 AND SWAP2 SWAP1 SWAP2 OR SWAP1 SSTORE JUMP JUMPDEST PUSH1 0x0 PUSH2 0x3E8 PUSH1 0x67 SLOAD PUSH2 0x485 PUSH2 0xCCD JUMP JUMPDEST PUSH2 0x48F SWAP2 SWAP1 PUSH2 0x16D4 JUMP JUMPDEST PUSH2 0x499 SWAP2 SWAP1 PUSH2 0x16F3 JUMP JUMPDEST SWAP1 POP SWAP1 JUMP JUMPDEST PUSH1 0x6D SLOAD PUSH1 0x1 PUSH1 0x1 PUSH1 0xA0 SHL SUB AND CALLER EQ PUSH2 0x4C8 JUMPI PUSH1 0x40 MLOAD PUSH3 0x461BCD PUSH1 0xE5 SHL DUP2 MSTORE PUSH1 0x4 ADD PUSH2 0x44A SWAP1 PUSH2 0x169C JUMP JUMPDEST PUSH2 0x7D0 DUP2 GT ISZERO PUSH2 0x4EA JUMPI PUSH1 0x40 MLOAD PUSH3 0x461BCD PUSH1 0xE5 SHL DUP2 MSTORE PUSH1 0x4 ADD PUSH2 0x44A SWAP1 PUSH2 0x1715 JUMP JUMPDEST PUSH1 0x69 SSTORE JUMP JUMPDEST PUSH1 0x0 PUSH2 0x3E8 PUSH1 0x66 SLOAD PUSH1 0x6A SLOAD PUSH2 0x48F SWAP2 SWAP1 PUSH2 0x16D4 JUMP JUMPDEST PUSH1 0x1 PUSH1 0x1 PUSH1 0xA0 SHL SUB DUP2 AND PUSH2 0x517 JUMPI PUSH1 0x0 DUP1 REVERT JUMPDEST PUSH1 0x6D SLOAD PUSH1 0x1 PUSH1 0x1 PUSH1 0xA0 SHL SUB AND CALLER EQ PUSH2 0x541 JUMPI PUSH1 0x40 MLOAD PUSH3 0x461BCD PUSH1 0xE5 SHL DUP2 MSTORE PUSH1 0x4 ADD PUSH2 0x44A SWAP1 PUSH2 0x169C JUMP JUMPDEST PUSH1 0x70 DUP1 SLOAD PUSH1 0x1 PUSH1 0x1 PUSH1 0xA0 SHL SUB NOT AND PUSH1 0x1 PUSH1 0x1 PUSH1 0xA0 SHL SUB SWAP3 SWAP1 SWAP3 AND SWAP2 SWAP1 SWAP2 OR SWAP1 SSTORE JUMP JUMPDEST PUSH2 0x56B PUSH2 0x132D JUMP JUMPDEST PUSH2 0x575 PUSH1 0x0 PUSH2 0x1387 JUMP JUMPDEST JUMP JUMPDEST PUSH1 0x6B SLOAD PUSH1 0x0 SWAP1 PUSH2 0x58A PUSH3 0x93A80 DUP3 PUSH2 0x173C JUMP JUMPDEST TIMESTAMP LT ISZERO DUP1 ISZERO PUSH2 0x5A2 JUMPI POP PUSH1 0x6C SLOAD PUSH1 0x1 PUSH1 0x1 PUSH1 0xA0 SHL SUB AND ISZERO JUMPDEST SWAP2 POP POP SWAP1 JUMP JUMPDEST PUSH1 0x6C SLOAD PUSH1 0x1 PUSH1 0x1 PUSH1 0xA0 SHL SUB AND CALLER EQ PUSH2 0x5BF JUMPI PUSH1 0x0 DUP1 REVERT JUMPDEST DUP1 ISZERO PUSH2 0x7A3 JUMPI PUSH1 0x6F SLOAD PUSH1 0x40 MLOAD PUSH4 0x40C10F19 PUSH1 0xE0 SHL DUP2 MSTORE PUSH1 0x1 PUSH1 0x1 PUSH1 0xA0 SHL SUB SWAP1 SWAP2 AND SWAP1 PUSH4 0x40C10F19 SWAP1 PUSH2 0x5F7 SWAP1 ADDRESS SWAP1 DUP6 SWAP1 PUSH1 0x4 ADD PUSH2 0x1754 JUMP JUMPDEST PUSH1 0x20 PUSH1 0x40 MLOAD DUP1 DUP4 SUB DUP2 PUSH1 0x0 DUP8 GAS CALL ISZERO DUP1 ISZERO PUSH2 0x616 JUMPI RETURNDATASIZE PUSH1 0x0 DUP1 RETURNDATACOPY RETURNDATASIZE PUSH1 0x0 REVERT JUMPDEST POP POP POP POP PUSH1 0x40 MLOAD RETURNDATASIZE PUSH1 0x1F NOT PUSH1 0x1F DUP3 ADD AND DUP3 ADD DUP1 PUSH1 0x40 MSTORE POP DUP2 ADD SWAP1 PUSH2 0x63A SWAP2 SWAP1 PUSH2 0x176D JUMP JUMPDEST POP PUSH1 0x6F SLOAD PUSH1 0x71 SLOAD PUSH1 0x40 MLOAD PUSH4 0x95EA7B3 PUSH1 0xE0 SHL DUP2 MSTORE PUSH1 0x1 PUSH1 0x1 PUSH1 0xA0 SHL SUB SWAP3 DUP4 AND SWAP3 PUSH4 0x95EA7B3 SWAP3 PUSH2 0x673 SWAP3 SWAP2 AND SWAP1 PUSH1 0x0 NOT SWAP1 PUSH1 0x4 ADD PUSH2 0x1754 JUMP JUMPDEST PUSH1 0x20 PUSH1 0x40 MLOAD DUP1 DUP4 SUB DUP2 PUSH1 0x0 DUP8 GAS CALL ISZERO DUP1 ISZERO PUSH2 0x692 JUMPI RETURNDATASIZE PUSH1 0x0 DUP1 RETURNDATACOPY RETURNDATASIZE PUSH1 0x0 REVERT JUMPDEST POP POP POP POP PUSH1 0x40 MLOAD RETURNDATASIZE PUSH1 0x1F NOT PUSH1 0x1F DUP3 ADD AND DUP3 ADD DUP1 PUSH1 0x40 MSTORE POP DUP2 ADD SWAP1 PUSH2 0x6B6 SWAP2 SWAP1 PUSH2 0x176D JUMP JUMPDEST POP PUSH1 0x0 JUMPDEST DUP4 MLOAD DUP2 LT ISZERO PUSH2 0x7A1 JUMPI PUSH1 0x71 SLOAD DUP4 MLOAD PUSH1 0x1 PUSH1 0x1 PUSH1 0xA0 SHL SUB SWAP1 SWAP2 AND SWAP1 PUSH4 0xD4E54C3B SWAP1 DUP6 SWAP1 DUP5 SWAP1 DUP2 LT PUSH2 0x6EC JUMPI PUSH2 0x6EC PUSH2 0x178F JUMP JUMPDEST PUSH1 0x20 MUL PUSH1 0x20 ADD ADD MLOAD PUSH4 0x3BFC400 DUP8 DUP6 DUP2 MLOAD DUP2 LT PUSH2 0x70B JUMPI PUSH2 0x70B PUSH2 0x178F JUMP JUMPDEST PUSH1 0x20 MUL PUSH1 0x20 ADD ADD MLOAD PUSH1 0x40 MLOAD DUP5 PUSH4 0xFFFFFFFF AND PUSH1 0xE0 SHL DUP2 MSTORE PUSH1 0x4 ADD PUSH2 0x74B SWAP4 SWAP3 SWAP2 SWAP1 SWAP3 DUP4 MSTORE PUSH1 0x20 DUP4 ADD SWAP2 SWAP1 SWAP2 MSTORE PUSH1 0x1 PUSH1 0x1 PUSH1 0xA0 SHL SUB AND PUSH1 0x40 DUP3 ADD MSTORE PUSH1 0x60 ADD SWAP1 JUMP JUMPDEST PUSH1 0x20 PUSH1 0x40 MLOAD DUP1 DUP4 SUB DUP2 PUSH1 0x0 DUP8 GAS CALL ISZERO DUP1 ISZERO PUSH2 0x76A JUMPI RETURNDATASIZE PUSH1 0x0 DUP1 RETURNDATACOPY RETURNDATASIZE PUSH1 0x0 REVERT JUMPDEST POP POP POP POP PUSH1 0x40 MLOAD RETURNDATASIZE PUSH1 0x1F NOT PUSH1 0x1F DUP3 ADD AND DUP3 ADD DUP1 PUSH1 0x40 MSTORE POP DUP2 ADD SWAP1 PUSH2 0x78E SWAP2 SWAP1 PUSH2 0x17A5 JUMP JUMPDEST POP DUP1 PUSH2 0x799 DUP2 PUSH2 0x17BE JUMP JUMPDEST SWAP2 POP POP PUSH2 0x6BA JUMP JUMPDEST POP JUMPDEST PUSH1 0x6C DUP1 SLOAD PUSH1 0x1 PUSH1 0x1 PUSH1 0xA0 SHL SUB NOT AND SWAP1 SSTORE PUSH3 0x93A80 PUSH2 0x7C1 DUP2 TIMESTAMP PUSH2 0x16F3 JUMP JUMPDEST PUSH2 0x7CB SWAP2 SWAP1 PUSH2 0x16D4 JUMP JUMPDEST PUSH1 0x6B SSTORE POP POP POP JUMP JUMPDEST PUSH1 0x6F SLOAD PUSH1 0x71 SLOAD PUSH1 0x40 MLOAD PUSH4 0x70A08231 PUSH1 0xE0 SHL DUP2 MSTORE PUSH1 0x0 SWAP3 DUP4 SWAP3 PUSH1 0x1 PUSH1 0x1 PUSH1 0xA0 SHL SUB SWAP2 DUP3 AND SWAP3 PUSH4 0x70A08231 SWAP3 PUSH2 0x80B SWAP3 AND SWAP1 PUSH1 0x4 ADD PUSH2 0x1483 JUMP JUMPDEST PUSH1 0x20 PUSH1 0x40 MLOAD DUP1 DUP4 SUB DUP2 DUP7 GAS STATICCALL ISZERO DUP1 ISZERO PUSH2 0x828 JUMPI RETURNDATASIZE PUSH1 0x0 DUP1 RETURNDATACOPY RETURNDATASIZE PUSH1 0x0 REVERT JUMPDEST POP POP POP POP PUSH1 0x40 MLOAD RETURNDATASIZE PUSH1 0x1F NOT PUSH1 0x1F DUP3 ADD AND DUP3 ADD DUP1 PUSH1 0x40 MSTORE POP DUP2 ADD SWAP1 PUSH2 0x84C SWAP2 SWAP1 PUSH2 0x17A5 JUMP JUMPDEST SWAP1 POP PUSH1 0x0 PUSH1 0x6F PUSH1 0x0 SWAP1 SLOAD SWAP1 PUSH2 0x100 EXP SWAP1 DIV PUSH1 0x1 PUSH1 0x1 PUSH1 0xA0 SHL SUB AND PUSH1 0x1 PUSH1 0x1 PUSH1 0xA0 SHL SUB AND PUSH4 0x18160DDD PUSH1 0x40 MLOAD DUP2 PUSH4 0xFFFFFFFF AND PUSH1 0xE0 SHL DUP2 MSTORE PUSH1 0x4 ADD PUSH1 0x20 PUSH1 0x40 MLOAD DUP1 DUP4 SUB DUP2 DUP7 GAS STATICCALL ISZERO DUP1 ISZERO PUSH2 0x8A3 JUMPI RETURNDATASIZE PUSH1 0x0 DUP1 RETURNDATACOPY RETURNDATASIZE PUSH1 0x0 REVERT JUMPDEST POP POP POP POP PUSH1 0x40 MLOAD RETURNDATASIZE PUSH1 0x1F NOT PUSH1 0x1F DUP3 ADD AND DUP3 ADD DUP1 PUSH1 0x40 MSTORE POP DUP2 ADD SWAP1 PUSH2 0x8C7 SWAP2 SWAP1 PUSH2 0x17A5 JUMP JUMPDEST SWAP1 POP PUSH1 0x0 DUP2 PUSH2 0x8D8 PUSH2 0x3E8 DUP6 PUSH2 0x16D4 JUMP JUMPDEST PUSH2 0x8E2 SWAP2 SWAP1 PUSH2 0x16F3 JUMP JUMPDEST SWAP1 POP PUSH1 0x68 SLOAD DUP2 LT PUSH2 0x911 JUMPI PUSH2 0x3E8 PUSH1 0x68 SLOAD DUP7 PUSH2 0x8FE SWAP2 SWAP1 PUSH2 0x16D4 JUMP JUMPDEST PUSH2 0x908 SWAP2 SWAP1 PUSH2 0x16F3 JUMP JUMPDEST SWAP6 SWAP5 POP POP POP POP POP JUMP JUMPDEST PUSH2 0x3E8 PUSH2 0x8FE DUP3 DUP8 PUSH2 0x16D4 JUMP JUMPDEST PUSH1 0x6D SLOAD PUSH1 0x1 PUSH1 0x1 PUSH1 0xA0 SHL SUB AND CALLER EQ PUSH2 0x935 JUMPI PUSH1 0x0 DUP1 REVERT JUMPDEST PUSH1 0x72 DUP1 SLOAD PUSH1 0x1 PUSH1 0x1 PUSH1 0xA0 SHL SUB NOT AND PUSH1 0x1 PUSH1 0x1 PUSH1 0xA0 SHL SUB SWAP3 SWAP1 SWAP3 AND SWAP2 SWAP1 SWAP2 OR SWAP1 SSTORE JUMP JUMPDEST PUSH1 0x6E SLOAD PUSH1 0x1 PUSH1 0x1 PUSH1 0xA0 SHL SUB AND CALLER EQ PUSH2 0x9A4 JUMPI PUSH1 0x40 MLOAD PUSH3 0x461BCD PUSH1 0xE5 SHL DUP2 MSTORE PUSH1 0x20 PUSH1 0x4 DUP3 ADD MSTORE PUSH1 0x10 PUSH1 0x24 DUP3 ADD MSTORE PUSH16 0x6E6F742070656E64696E67207465616D PUSH1 0x80 SHL PUSH1 0x44 DUP3 ADD MSTORE PUSH1 0x64 ADD PUSH2 0x44A JUMP JUMPDEST PUSH1 0x6E SLOAD PUSH1 0x6D DUP1 SLOAD PUSH1 0x1 PUSH1 0x1 PUSH1 0xA0 SHL SUB NOT AND PUSH1 0x1 PUSH1 0x1 PUSH1 0xA0 SHL SUB SWAP1 SWAP3 AND SWAP2 SWAP1 SWAP2 OR SWAP1 SSTORE JUMP JUMPDEST PUSH1 0x0 SLOAD PUSH2 0x100 SWAP1 DIV PUSH1 0xFF AND ISZERO DUP1 DUP1 ISZERO PUSH2 0x9E8 JUMPI POP PUSH1 0x0 SLOAD PUSH1 0x1 PUSH1 0xFF SWAP1 SWAP2 AND LT JUMPDEST DUP1 PUSH2 0xA02 JUMPI POP ADDRESS EXTCODESIZE ISZERO DUP1 ISZERO PUSH2 0xA02 JUMPI POP PUSH1 0x0 SLOAD PUSH1 0xFF AND PUSH1 0x1 EQ JUMPDEST PUSH2 0xA65 JUMPI PUSH1 0x40 MLOAD PUSH3 0x461BCD PUSH1 0xE5 SHL DUP2 MSTORE PUSH1 0x20 PUSH1 0x4 DUP3 ADD MSTORE PUSH1 0x2E PUSH1 0x24 DUP3 ADD MSTORE PUSH32 0x496E697469616C697A61626C653A20636F6E747261637420697320616C726561 PUSH1 0x44 DUP3 ADD MSTORE PUSH14 0x191E481A5B9A5D1A585B1A5E9959 PUSH1 0x92 SHL PUSH1 0x64 DUP3 ADD MSTORE PUSH1 0x84 ADD PUSH2 0x44A JUMP JUMPDEST PUSH1 0x0 DUP1 SLOAD PUSH1 0xFF NOT AND PUSH1 0x1 OR SWAP1 SSTORE DUP1 ISZERO PUSH2 0xA88 JUMPI PUSH1 0x0 DUP1 SLOAD PUSH2 0xFF00 NOT AND PUSH2 0x100 OR SWAP1 SSTORE JUMPDEST PUSH2 0xA90 PUSH2 0x13D9 JUMP JUMPDEST PUSH1 0x6C DUP1 SLOAD CALLER PUSH1 0x1 PUSH1 0x1 PUSH1 0xA0 SHL SUB NOT SWAP2 DUP3 AND DUP2 OR SWAP1 SWAP3 SSTORE PUSH1 0x6D DUP1 SLOAD SWAP1 SWAP2 AND SWAP1 SWAP2 OR SWAP1 SSTORE PUSH1 0x19 PUSH1 0x69 SSTORE PUSH2 0x3D4 PUSH1 0x66 SSTORE PUSH1 0x2 PUSH1 0x67 SSTORE PUSH2 0x12C PUSH1 0x68 SSTORE PUSH1 0x40 DUP1 MLOAD PUSH4 0x7E062A35 PUSH1 0xE1 SHL DUP2 MSTORE SWAP1 MLOAD PUSH1 0x1 PUSH1 0x1 PUSH1 0xA0 SHL SUB DUP6 AND SWAP2 PUSH4 0xFC0C546A SWAP2 PUSH1 0x4 DUP3 DUP2 ADD SWAP3 PUSH1 0x20 SWAP3 SWAP2 SWAP1 DUP3 SWAP1 SUB ADD DUP2 DUP7 GAS STATICCALL ISZERO DUP1 ISZERO PUSH2 0xB0D JUMPI RETURNDATASIZE PUSH1 0x0 DUP1 RETURNDATACOPY RETURNDATASIZE PUSH1 0x0 REVERT JUMPDEST POP POP POP POP PUSH1 0x40 MLOAD RETURNDATASIZE PUSH1 0x1F NOT PUSH1 0x1F DUP3 ADD AND DUP3 ADD DUP1 PUSH1 0x40 MSTORE POP DUP2 ADD SWAP1 PUSH2 0xB31 SWAP2 SWAP1 PUSH2 0x17D7 JUMP JUMPDEST PUSH1 0x6F DUP1 SLOAD PUSH1 0x1 PUSH1 0x1 PUSH1 0xA0 SHL SUB NOT SWAP1 DUP2 AND PUSH1 0x1 PUSH1 0x1 PUSH1 0xA0 SHL SUB SWAP4 DUP5 AND OR SWAP1 SWAP2 SSTORE PUSH1 0x70 DUP1 SLOAD DUP3 AND DUP8 DUP5 AND OR SWAP1 SSTORE PUSH1 0x71 DUP1 SLOAD DUP3 AND DUP7 DUP5 AND OR SWAP1 SSTORE PUSH1 0x72 DUP1 SLOAD SWAP1 SWAP2 AND SWAP2 DUP5 AND SWAP2 SWAP1 SWAP2 OR SWAP1 SSTORE PUSH3 0x93A80 DUP1 PUSH2 0xB88 DUP2 PUSH1 0x2 PUSH2 0x16D4 JUMP JUMPDEST PUSH2 0xB92 SWAP1 TIMESTAMP PUSH2 0x173C JUMP JUMPDEST PUSH2 0xB9C SWAP2 SWAP1 PUSH2 0x16F3 JUMP JUMPDEST PUSH2 0xBA6 SWAP2 SWAP1 PUSH2 0x16D4 JUMP JUMPDEST PUSH1 0x6B SSTORE PUSH11 0x22692484CE19D09000000 PUSH1 0x6A SSTORE PUSH1 0x65 DUP1 SLOAD PUSH1 0xFF NOT AND PUSH1 0x1 OR SWAP1 SSTORE DUP1 ISZERO PUSH2 0xC0B JUMPI PUSH1 0x0 DUP1 SLOAD PUSH2 0xFF00 NOT AND SWAP1 SSTORE PUSH1 0x40 MLOAD PUSH1 0x1 DUP2 MSTORE PUSH32 0x7F26B83FF96E1F2B6A682F133852F6798A09C465DA95921460CEFB3847402498 SWAP1 PUSH1 0x20 ADD PUSH1 0x40 MLOAD DUP1 SWAP2 SUB SWAP1 LOG1 JUMPDEST POP POP POP POP JUMP JUMPDEST PUSH1 0x0 PUSH2 0x499 PUSH2 0xC1E PUSH2 0x4EF JUMP JUMPDEST PUSH2 0xC26 PUSH2 0x475 JUMP JUMPDEST PUSH2 0x1408 JUMP JUMPDEST PUSH1 0x6D SLOAD PUSH1 0x1 PUSH1 0x1 PUSH1 0xA0 SHL SUB AND CALLER EQ PUSH2 0xC55 JUMPI PUSH1 0x40 MLOAD PUSH3 0x461BCD PUSH1 0xE5 SHL DUP2 MSTORE PUSH1 0x4 ADD PUSH2 0x44A SWAP1 PUSH2 0x169C JUMP JUMPDEST PUSH2 0x3E8 DUP2 GT ISZERO PUSH2 0xC77 JUMPI PUSH1 0x40 MLOAD PUSH3 0x461BCD PUSH1 0xE5 SHL DUP2 MSTORE PUSH1 0x4 ADD PUSH2 0x44A SWAP1 PUSH2 0x1715 JUMP JUMPDEST PUSH1 0x66 SSTORE JUMP JUMPDEST PUSH1 0x6D SLOAD PUSH1 0x1 PUSH1 0x1 PUSH1 0xA0 SHL SUB AND CALLER EQ PUSH2 0xCA6 JUMPI PUSH1 0x40 MLOAD PUSH3 0x461BCD PUSH1 0xE5 SHL DUP2 MSTORE PUSH1 0x4 ADD PUSH2 0x44A SWAP1 PUSH2 0x169C JUMP JUMPDEST PUSH2 0x3E8 DUP2 GT ISZERO PUSH2 0xCC8 JUMPI PUSH1 0x40 MLOAD PUSH3 0x461BCD PUSH1 0xE5 SHL DUP2 MSTORE PUSH1 0x4 ADD PUSH2 0x44A SWAP1 PUSH2 0x1715 JUMP JUMPDEST PUSH1 0x68 SSTORE JUMP JUMPDEST PUSH1 0x6F SLOAD PUSH1 0x71 SLOAD PUSH1 0x40 MLOAD PUSH4 0x70A08231 PUSH1 0xE0 SHL DUP2 MSTORE PUSH1 0x0 SWAP3 PUSH1 0x1 PUSH1 0x1 PUSH1 0xA0 SHL SUB SWAP1 DUP2 AND SWAP3 PUSH4 0x70A08231 SWAP3 PUSH2 0xD05 SWAP3 SWAP1 SWAP2 AND SWAP1 PUSH1 0x4 ADD PUSH2 0x1483 JUMP JUMPDEST PUSH1 0x20 PUSH1 0x40 MLOAD DUP1 DUP4 SUB DUP2 DUP7 GAS STATICCALL ISZERO DUP1 ISZERO PUSH2 0xD22 JUMPI RETURNDATASIZE PUSH1 0x0 DUP1 RETURNDATACOPY RETURNDATASIZE PUSH1 0x0 REVERT JUMPDEST POP POP POP POP PUSH1 0x40 MLOAD RETURNDATASIZE PUSH1 0x1F NOT PUSH1 0x1F DUP3 ADD AND DUP3 ADD DUP1 PUSH1 0x40 MSTORE POP DUP2 ADD SWAP1 PUSH2 0xD46 SWAP2 SWAP1 PUSH2 0x17A5 JUMP JUMPDEST PUSH1 0x6F PUSH1 0x0 SWAP1 SLOAD SWAP1 PUSH2 0x100 EXP SWAP1 DIV PUSH1 0x1 PUSH1 0x1 PUSH1 0xA0 SHL SUB AND PUSH1 0x1 PUSH1 0x1 PUSH1 0xA0 SHL SUB AND PUSH4 0x18160DDD PUSH1 0x40 MLOAD DUP2 PUSH4 0xFFFFFFFF AND PUSH1 0xE0 SHL DUP2 MSTORE PUSH1 0x4 ADD PUSH1 0x20 PUSH1 0x40 MLOAD DUP1 DUP4 SUB DUP2 DUP7 GAS STATICCALL ISZERO DUP1 ISZERO PUSH2 0xD99 JUMPI RETURNDATASIZE PUSH1 0x0 DUP1 RETURNDATACOPY RETURNDATASIZE PUSH1 0x0 REVERT JUMPDEST POP POP POP POP PUSH1 0x40 MLOAD RETURNDATASIZE PUSH1 0x1F NOT PUSH1 0x1F DUP3 ADD AND DUP3 ADD DUP1 PUSH1 0x40 MSTORE POP DUP2 ADD SWAP1 PUSH2 0xDBD SWAP2 SWAP1 PUSH2 0x17A5 JUMP JUMPDEST PUSH2 0x499 SWAP2 SWAP1 PUSH2 0x17F4 JUMP JUMPDEST PUSH1 0x6B SLOAD PUSH1 0x0 SWAP1 PUSH2 0xDDA PUSH3 0x93A80 DUP3 PUSH2 0x173C JUMP JUMPDEST TIMESTAMP LT ISZERO DUP1 ISZERO PUSH2 0xDF2 JUMPI POP PUSH1 0x6C SLOAD PUSH1 0x1 PUSH1 0x1 PUSH1 0xA0 SHL SUB AND ISZERO JUMPDEST ISZERO PUSH2 0x1295 JUMPI PUSH3 0x93A80 PUSH2 0xE05 DUP2 TIMESTAMP PUSH2 0x16F3 JUMP JUMPDEST PUSH2 0xE0F SWAP2 SWAP1 PUSH2 0x16D4 JUMP JUMPDEST PUSH1 0x6B DUP2 SWAP1 SSTORE PUSH1 0x65 SLOAD SWAP1 SWAP2 POP PUSH1 0xFF AND PUSH2 0xE31 JUMPI PUSH2 0xE29 PUSH2 0xC11 JUMP JUMPDEST PUSH1 0x6A SSTORE PUSH2 0xE3C JUMP JUMPDEST PUSH1 0x65 DUP1 SLOAD PUSH1 0xFF NOT AND SWAP1 SSTORE JUMPDEST PUSH1 0x0 PUSH2 0xE49 PUSH1 0x6A SLOAD PUSH2 0x7D3 JUMP JUMPDEST SWAP1 POP PUSH1 0x0 PUSH2 0x3E8 PUSH1 0x69 SLOAD PUSH1 0x6A SLOAD PUSH2 0xE60 SWAP2 SWAP1 PUSH2 0x16D4 JUMP JUMPDEST PUSH2 0xE6A SWAP2 SWAP1 PUSH2 0x16F3 JUMP JUMPDEST PUSH1 0x6A SLOAD SWAP1 SWAP2 POP PUSH1 0x0 DUP3 PUSH2 0xE7D DUP6 DUP5 PUSH2 0x17F4 JUMP JUMPDEST PUSH2 0xE87 SWAP2 SWAP1 PUSH2 0x17F4 JUMP JUMPDEST PUSH1 0x6F SLOAD PUSH1 0x40 MLOAD PUSH4 0x70A08231 PUSH1 0xE0 SHL DUP2 MSTORE SWAP2 SWAP3 POP PUSH1 0x0 SWAP2 PUSH1 0x1 PUSH1 0x1 PUSH1 0xA0 SHL SUB SWAP1 SWAP2 AND SWAP1 PUSH4 0x70A08231 SWAP1 PUSH2 0xEBD SWAP1 ADDRESS SWAP1 PUSH1 0x4 ADD PUSH2 0x1483 JUMP JUMPDEST PUSH1 0x20 PUSH1 0x40 MLOAD DUP1 DUP4 SUB DUP2 DUP7 GAS STATICCALL ISZERO DUP1 ISZERO PUSH2 0xEDA JUMPI RETURNDATASIZE PUSH1 0x0 DUP1 RETURNDATACOPY RETURNDATASIZE PUSH1 0x0 REVERT JUMPDEST POP POP POP POP PUSH1 0x40 MLOAD RETURNDATASIZE PUSH1 0x1F NOT PUSH1 0x1F DUP3 ADD AND DUP3 ADD DUP1 PUSH1 0x40 MSTORE POP DUP2 ADD SWAP1 PUSH2 0xEFE SWAP2 SWAP1 PUSH2 0x17A5 JUMP JUMPDEST SWAP1 POP DUP3 DUP2 LT ISZERO PUSH2 0xF86 JUMPI PUSH1 0x6F SLOAD PUSH1 0x1 PUSH1 0x1 PUSH1 0xA0 SHL SUB AND PUSH4 0x40C10F19 ADDRESS PUSH2 0xF24 DUP5 DUP8 PUSH2 0x17F4 JUMP JUMPDEST PUSH1 0x40 MLOAD DUP4 PUSH4 0xFFFFFFFF AND PUSH1 0xE0 SHL DUP2 MSTORE PUSH1 0x4 ADD PUSH2 0xF41 SWAP3 SWAP2 SWAP1 PUSH2 0x1754 JUMP JUMPDEST PUSH1 0x20 PUSH1 0x40 MLOAD DUP1 DUP4 SUB DUP2 PUSH1 0x0 DUP8 GAS CALL ISZERO DUP1 ISZERO PUSH2 0xF60 JUMPI RETURNDATASIZE PUSH1 0x0 DUP1 RETURNDATACOPY RETURNDATASIZE PUSH1 0x0 REVERT JUMPDEST POP POP POP POP PUSH1 0x40 MLOAD RETURNDATASIZE PUSH1 0x1F NOT PUSH1 0x1F DUP3 ADD AND DUP3 ADD DUP1 PUSH1 0x40 MSTORE POP DUP2 ADD SWAP1 PUSH2 0xF84 SWAP2 SWAP1 PUSH2 0x176D JUMP JUMPDEST POP JUMPDEST PUSH1 0x6F SLOAD PUSH1 0x6D SLOAD PUSH1 0x40 MLOAD PUSH4 0xA9059CBB PUSH1 0xE0 SHL DUP2 MSTORE PUSH1 0x1 PUSH1 0x1 PUSH1 0xA0 SHL SUB SWAP3 DUP4 AND SWAP3 PUSH4 0xA9059CBB SWAP3 PUSH2 0xFBC SWAP3 SWAP2 AND SWAP1 DUP9 SWAP1 PUSH1 0x4 ADD PUSH2 0x1754 JUMP JUMPDEST PUSH1 0x20 PUSH1 0x40 MLOAD DUP1 DUP4 SUB DUP2 PUSH1 0x0 DUP8 GAS CALL ISZERO DUP1 ISZERO PUSH2 0xFDB JUMPI RETURNDATASIZE PUSH1 0x0 DUP1 RETURNDATACOPY RETURNDATASIZE PUSH1 0x0 REVERT JUMPDEST POP POP POP POP PUSH1 0x40 MLOAD RETURNDATASIZE PUSH1 0x1F NOT PUSH1 0x1F DUP3 ADD AND DUP3 ADD DUP1 PUSH1 0x40 MSTORE POP DUP2 ADD SWAP1 PUSH2 0xFFF SWAP2 SWAP1 PUSH2 0x176D JUMP JUMPDEST PUSH2 0x1008 JUMPI PUSH1 0x0 DUP1 REVERT JUMPDEST PUSH1 0x6F SLOAD PUSH1 0x72 SLOAD PUSH1 0x40 MLOAD PUSH4 0xA9059CBB PUSH1 0xE0 SHL DUP2 MSTORE PUSH1 0x1 PUSH1 0x1 PUSH1 0xA0 SHL SUB SWAP3 DUP4 AND SWAP3 PUSH4 0xA9059CBB SWAP3 PUSH2 0x103E SWAP3 SWAP2 AND SWAP1 DUP10 SWAP1 PUSH1 0x4 ADD PUSH2 0x1754 JUMP JUMPDEST PUSH1 0x20 PUSH1 0x40 MLOAD DUP1 DUP4 SUB DUP2 PUSH1 0x0 DUP8 GAS CALL ISZERO DUP1 ISZERO PUSH2 0x105D JUMPI RETURNDATASIZE PUSH1 0x0 DUP1 RETURNDATACOPY RETURNDATASIZE PUSH1 0x0 REVERT JUMPDEST POP POP POP POP PUSH1 0x40 MLOAD RETURNDATASIZE PUSH1 0x1F NOT PUSH1 0x1F DUP3 ADD AND DUP3 ADD DUP1 PUSH1 0x40 MSTORE POP DUP2 ADD SWAP1 PUSH2 0x1081 SWAP2 SWAP1 PUSH2 0x176D JUMP JUMPDEST PUSH2 0x108A JUMPI PUSH1 0x0 DUP1 REVERT JUMPDEST PUSH1 0x72 PUSH1 0x0 SWAP1 SLOAD SWAP1 PUSH2 0x100 EXP SWAP1 DIV PUSH1 0x1 PUSH1 0x1 PUSH1 0xA0 SHL SUB AND PUSH1 0x1 PUSH1 0x1 PUSH1 0xA0 SHL SUB AND PUSH4 0x811A40FE PUSH1 0x40 MLOAD DUP2 PUSH4 0xFFFFFFFF AND PUSH1 0xE0 SHL DUP2 MSTORE PUSH1 0x4 ADD PUSH1 0x0 PUSH1 0x40 MLOAD DUP1 DUP4 SUB DUP2 PUSH1 0x0 DUP8 DUP1 EXTCODESIZE ISZERO DUP1 ISZERO PUSH2 0x10DA JUMPI PUSH1 0x0 DUP1 REVERT JUMPDEST POP GAS CALL ISZERO DUP1 ISZERO PUSH2 0x10EE JUMPI RETURNDATASIZE PUSH1 0x0 DUP1 RETURNDATACOPY RETURNDATASIZE PUSH1 0x0 REVERT JUMPDEST POP POP POP POP PUSH1 0x72 PUSH1 0x0 SWAP1 SLOAD SWAP1 PUSH2 0x100 EXP SWAP1 DIV PUSH1 0x1 PUSH1 0x1 PUSH1 0xA0 SHL SUB AND PUSH1 0x1 PUSH1 0x1 PUSH1 0xA0 SHL SUB AND PUSH4 0xB21ED502 PUSH1 0x40 MLOAD DUP2 PUSH4 0xFFFFFFFF AND PUSH1 0xE0 SHL DUP2 MSTORE PUSH1 0x4 ADD PUSH1 0x0 PUSH1 0x40 MLOAD DUP1 DUP4 SUB DUP2 PUSH1 0x0 DUP8 DUP1 EXTCODESIZE ISZERO DUP1 ISZERO PUSH2 0x1142 JUMPI PUSH1 0x0 DUP1 REVERT JUMPDEST POP GAS CALL ISZERO DUP1 ISZERO PUSH2 0x1156 JUMPI RETURNDATASIZE PUSH1 0x0 DUP1 RETURNDATACOPY RETURNDATASIZE PUSH1 0x0 REVERT JUMPDEST POP POP PUSH1 0x6F SLOAD PUSH1 0x70 SLOAD PUSH1 0x40 MLOAD PUSH4 0x95EA7B3 PUSH1 0xE0 SHL DUP2 MSTORE PUSH1 0x1 PUSH1 0x1 PUSH1 0xA0 SHL SUB SWAP3 DUP4 AND SWAP5 POP PUSH4 0x95EA7B3 SWAP4 POP PUSH2 0x1191 SWAP3 SWAP1 SWAP2 AND SWAP1 DUP7 SWAP1 PUSH1 0x4 ADD PUSH2 0x1754 JUMP JUMPDEST PUSH1 0x20 PUSH1 0x40 MLOAD DUP1 DUP4 SUB DUP2 PUSH1 0x0 DUP8 GAS CALL ISZERO DUP1 ISZERO PUSH2 0x11B0 JUMPI RETURNDATASIZE PUSH1 0x0 DUP1 RETURNDATACOPY RETURNDATASIZE PUSH1 0x0 REVERT JUMPDEST POP POP POP POP PUSH1 0x40 MLOAD RETURNDATASIZE PUSH1 0x1F NOT PUSH1 0x1F DUP3 ADD AND DUP3 ADD DUP1 PUSH1 0x40 MSTORE POP DUP2 ADD SWAP1 PUSH2 0x11D4 SWAP2 SWAP1 PUSH2 0x176D JUMP JUMPDEST POP PUSH1 0x70 SLOAD PUSH1 0x40 MLOAD PUSH4 0x3C6B16AB PUSH1 0xE0 SHL DUP2 MSTORE PUSH1 0x4 DUP2 ADD DUP5 SWAP1 MSTORE PUSH1 0x1 PUSH1 0x1 PUSH1 0xA0 SHL SUB SWAP1 SWAP2 AND SWAP1 PUSH4 0x3C6B16AB SWAP1 PUSH1 0x24 ADD PUSH1 0x0 PUSH1 0x40 MLOAD DUP1 DUP4 SUB DUP2 PUSH1 0x0 DUP8 DUP1 EXTCODESIZE ISZERO DUP1 ISZERO PUSH2 0x121B JUMPI PUSH1 0x0 DUP1 REVERT JUMPDEST POP GAS CALL ISZERO DUP1 ISZERO PUSH2 0x122F JUMPI RETURNDATASIZE PUSH1 0x0 DUP1 RETURNDATACOPY RETURNDATASIZE PUSH1 0x0 REVERT JUMPDEST POP POP POP POP CALLER PUSH1 0x1 PUSH1 0x1 PUSH1 0xA0 SHL SUB AND PUSH32 0xB4C03061FB5B7FED76389D5AF8F2E0DDB09F8C70D1333ABBB62582835E10ACCB PUSH1 0x6A SLOAD PUSH2 0x1269 PUSH2 0xCCD JUMP JUMPDEST PUSH2 0x1271 PUSH2 0x475 JUMP JUMPDEST PUSH1 0x40 DUP1 MLOAD SWAP4 DUP5 MSTORE PUSH1 0x20 DUP5 ADD SWAP3 SWAP1 SWAP3 MSTORE SWAP1 DUP3 ADD MSTORE PUSH1 0x60 ADD PUSH1 0x40 MLOAD DUP1 SWAP2 SUB SWAP1 LOG2 POP POP POP POP POP JUMPDEST SWAP2 SWAP1 POP JUMP JUMPDEST PUSH1 0x0 PUSH3 0x93A80 PUSH2 0x12AA DUP2 TIMESTAMP PUSH2 0x16F3 JUMP JUMPDEST PUSH2 0x499 SWAP2 SWAP1 PUSH2 0x16D4 JUMP JUMPDEST PUSH2 0x12BC PUSH2 0x132D JUMP JUMPDEST PUSH1 0x1 PUSH1 0x1 PUSH1 0xA0 SHL SUB DUP2 AND PUSH2 0x1321 JUMPI PUSH1 0x40 MLOAD PUSH3 0x461BCD PUSH1 0xE5 SHL DUP2 MSTORE PUSH1 0x20 PUSH1 0x4 DUP3 ADD MSTORE PUSH1 0x26 PUSH1 0x24 DUP3 ADD MSTORE PUSH32 0x4F776E61626C653A206E6577206F776E657220697320746865207A65726F2061 PUSH1 0x44 DUP3 ADD MSTORE PUSH6 0x646472657373 PUSH1 0xD0 SHL PUSH1 0x64 DUP3 ADD MSTORE PUSH1 0x84 ADD PUSH2 0x44A JUMP JUMPDEST PUSH2 0x132A DUP2 PUSH2 0x1387 JUMP JUMPDEST POP JUMP JUMPDEST PUSH1 0x33 SLOAD PUSH1 0x1 PUSH1 0x1 PUSH1 0xA0 SHL SUB AND CALLER EQ PUSH2 0x575 JUMPI PUSH1 0x40 MLOAD PUSH3 0x461BCD PUSH1 0xE5 SHL DUP2 MSTORE PUSH1 0x20 PUSH1 0x4 DUP3 ADD DUP2 SWAP1 MSTORE PUSH1 0x24 DUP3 ADD MSTORE PUSH32 0x4F776E61626C653A2063616C6C6572206973206E6F7420746865206F776E6572 PUSH1 0x44 DUP3 ADD MSTORE PUSH1 0x64 ADD PUSH2 0x44A JUMP JUMPDEST PUSH1 0x33 DUP1 SLOAD PUSH1 0x1 PUSH1 0x1 PUSH1 0xA0 SHL SUB DUP4 DUP2 AND PUSH1 0x1 PUSH1 0x1 PUSH1 0xA0 SHL SUB NOT DUP4 AND DUP2 OR SWAP1 SWAP4 SSTORE PUSH1 0x40 MLOAD SWAP2 AND SWAP2 SWAP1 DUP3 SWAP1 PUSH32 0x8BE0079C531659141344CD1FD0A4F28419497F9722A3DAAFE3B4186F6B6457E0 SWAP1 PUSH1 0x0 SWAP1 LOG3 POP POP JUMP JUMPDEST PUSH1 0x0 SLOAD PUSH2 0x100 SWAP1 DIV PUSH1 0xFF AND PUSH2 0x1400 JUMPI PUSH1 0x40 MLOAD PUSH3 0x461BCD PUSH1 0xE5 SHL DUP2 MSTORE PUSH1 0x4 ADD PUSH2 0x44A SWAP1 PUSH2 0x180B JUMP JUMPDEST PUSH2 0x575 PUSH2 0x1421 JUMP JUMPDEST PUSH1 0x0 DUP2 DUP4 LT ISZERO PUSH2 0x1418 JUMPI DUP2 PUSH2 0x141A JUMP JUMPDEST DUP3 JUMPDEST SWAP4 SWAP3 POP POP POP JUMP JUMPDEST PUSH1 0x0 SLOAD PUSH2 0x100 SWAP1 DIV PUSH1 0xFF AND PUSH2 0x1448 JUMPI PUSH1 0x40 MLOAD PUSH3 0x461BCD PUSH1 0xE5 SHL DUP2 MSTORE PUSH1 0x4 ADD PUSH2 0x44A SWAP1 PUSH2 0x180B JUMP JUMPDEST PUSH2 0x575 CALLER PUSH2 0x1387 JUMP JUMPDEST PUSH1 0x1 PUSH1 0x1 PUSH1 0xA0 SHL SUB DUP2 AND DUP2 EQ PUSH2 0x132A JUMPI PUSH1 0x0 DUP1 REVERT JUMPDEST PUSH1 0x0 PUSH1 0x20 DUP3 DUP5 SUB SLT ISZERO PUSH2 0x1478 JUMPI PUSH1 0x0 DUP1 REVERT JUMPDEST DUP2 CALLDATALOAD PUSH2 0x141A DUP2 PUSH2 0x1451 JUMP JUMPDEST PUSH1 0x1 PUSH1 0x1 PUSH1 0xA0 SHL SUB SWAP2 SWAP1 SWAP2 AND DUP2 MSTORE PUSH1 0x20 ADD SWAP1 JUMP JUMPDEST PUSH1 0x0 PUSH1 0x20 DUP3 DUP5 SUB SLT ISZERO PUSH2 0x14A9 JUMPI PUSH1 0x0 DUP1 REVERT JUMPDEST POP CALLDATALOAD SWAP2 SWAP1 POP JUMP JUMPDEST PUSH4 0x4E487B71 PUSH1 0xE0 SHL PUSH1 0x0 MSTORE PUSH1 0x41 PUSH1 0x4 MSTORE PUSH1 0x24 PUSH1 0x0 REVERT JUMPDEST PUSH1 0x40 MLOAD PUSH1 0x1F DUP3 ADD PUSH1 0x1F NOT AND DUP2 ADD PUSH8 0xFFFFFFFFFFFFFFFF DUP2 GT DUP3 DUP3 LT OR ISZERO PUSH2 0x14EF JUMPI PUSH2 0x14EF PUSH2 0x14B0 JUMP JUMPDEST PUSH1 0x40 MSTORE SWAP2 SWAP1 POP JUMP JUMPDEST PUSH1 0x0 PUSH8 0xFFFFFFFFFFFFFFFF DUP3 GT ISZERO PUSH2 0x1511 JUMPI PUSH2 0x1511 PUSH2 0x14B0 JUMP JUMPDEST POP PUSH1 0x5 SHL PUSH1 0x20 ADD SWAP1 JUMP JUMPDEST PUSH1 0x0 DUP3 PUSH1 0x1F DUP4 ADD SLT PUSH2 0x152C JUMPI PUSH1 0x0 DUP1 REVERT JUMPDEST DUP2 CALLDATALOAD PUSH1 0x20 PUSH2 0x1541 PUSH2 0x153C DUP4 PUSH2 0x14F7 JUMP JUMPDEST PUSH2 0x14C6 JUMP JUMPDEST DUP3 DUP2 MSTORE PUSH1 0x5 SWAP3 SWAP1 SWAP3 SHL DUP5 ADD DUP2 ADD SWAP2 DUP2 DUP2 ADD SWAP1 DUP7 DUP5 GT ISZERO PUSH2 0x1560 JUMPI PUSH1 0x0 DUP1 REVERT JUMPDEST DUP3 DUP7 ADD JUMPDEST DUP5 DUP2 LT ISZERO PUSH2 0x157B JUMPI DUP1 CALLDATALOAD DUP4 MSTORE SWAP2 DUP4 ADD SWAP2 DUP4 ADD PUSH2 0x1564 JUMP JUMPDEST POP SWAP7 SWAP6 POP POP POP POP POP POP JUMP JUMPDEST PUSH1 0x0 DUP1 PUSH1 0x0 PUSH1 0x60 DUP5 DUP7 SUB SLT ISZERO PUSH2 0x159B JUMPI PUSH1 0x0 DUP1 REVERT JUMPDEST DUP4 CALLDATALOAD PUSH8 0xFFFFFFFFFFFFFFFF DUP1 DUP3 GT ISZERO PUSH2 0x15B3 JUMPI PUSH1 0x0 DUP1 REVERT JUMPDEST DUP2 DUP7 ADD SWAP2 POP DUP7 PUSH1 0x1F DUP4 ADD SLT PUSH2 0x15C7 JUMPI PUSH1 0x0 DUP1 REVERT JUMPDEST DUP2 CALLDATALOAD PUSH1 0x20 PUSH2 0x15D7 PUSH2 0x153C DUP4 PUSH2 0x14F7 JUMP JUMPDEST DUP3 DUP2 MSTORE PUSH1 0x5 SWAP3 SWAP1 SWAP3 SHL DUP5 ADD DUP2 ADD SWAP2 DUP2 DUP2 ADD SWAP1 DUP11 DUP5 GT ISZERO PUSH2 0x15F6 JUMPI PUSH1 0x0 DUP1 REVERT JUMPDEST SWAP5 DUP3 ADD SWAP5 JUMPDEST DUP4 DUP7 LT ISZERO PUSH2 0x161D JUMPI DUP6 CALLDATALOAD PUSH2 0x160E DUP2 PUSH2 0x1451 JUMP JUMPDEST DUP3 MSTORE SWAP5 DUP3 ADD SWAP5 SWAP1 DUP3 ADD SWAP1 PUSH2 0x15FB JUMP JUMPDEST SWAP8 POP POP DUP8 ADD CALLDATALOAD SWAP3 POP POP DUP1 DUP3 GT ISZERO PUSH2 0x1633 JUMPI PUSH1 0x0 DUP1 REVERT JUMPDEST POP PUSH2 0x1640 DUP7 DUP3 DUP8 ADD PUSH2 0x151B JUMP JUMPDEST SWAP3 POP POP PUSH1 0x40 DUP5 ADD CALLDATALOAD SWAP1 POP SWAP3 POP SWAP3 POP SWAP3 JUMP JUMPDEST PUSH1 0x0 DUP1 PUSH1 0x0 PUSH1 0x60 DUP5 DUP7 SUB SLT ISZERO PUSH2 0x1666 JUMPI PUSH1 0x0 DUP1 REVERT JUMPDEST DUP4 CALLDATALOAD PUSH2 0x1671 DUP2 PUSH2 0x1451 JUMP JUMPDEST SWAP3 POP PUSH1 0x20 DUP5 ADD CALLDATALOAD PUSH2 0x1681 DUP2 PUSH2 0x1451 JUMP JUMPDEST SWAP2 POP PUSH1 0x40 DUP5 ADD CALLDATALOAD PUSH2 0x1691 DUP2 PUSH2 0x1451 JUMP JUMPDEST DUP1 SWAP2 POP POP SWAP3 POP SWAP3 POP SWAP3 JUMP JUMPDEST PUSH1 0x20 DUP1 DUP3 MSTORE PUSH1 0x8 SWAP1 DUP3 ADD MSTORE PUSH8 0x6E6F74207465616D PUSH1 0xC0 SHL PUSH1 0x40 DUP3 ADD MSTORE PUSH1 0x60 ADD SWAP1 JUMP JUMPDEST PUSH4 0x4E487B71 PUSH1 0xE0 SHL PUSH1 0x0 MSTORE PUSH1 0x11 PUSH1 0x4 MSTORE PUSH1 0x24 PUSH1 0x0 REVERT JUMPDEST PUSH1 0x0 DUP2 PUSH1 0x0 NOT DIV DUP4 GT DUP3 ISZERO ISZERO AND ISZERO PUSH2 0x16EE JUMPI PUSH2 0x16EE PUSH2 0x16BE JUMP JUMPDEST POP MUL SWAP1 JUMP JUMPDEST PUSH1 0x0 DUP3 PUSH2 0x1710 JUMPI PUSH4 0x4E487B71 PUSH1 0xE0 SHL PUSH1 0x0 MSTORE PUSH1 0x12 PUSH1 0x4 MSTORE PUSH1 0x24 PUSH1 0x0 REVERT JUMPDEST POP DIV SWAP1 JUMP JUMPDEST PUSH1 0x20 DUP1 DUP3 MSTORE PUSH1 0xD SWAP1 DUP3 ADD MSTORE PUSH13 0xE4C2E8CA40E8DEDE40D0D2CED PUSH1 0x9B SHL PUSH1 0x40 DUP3 ADD MSTORE PUSH1 0x60 ADD SWAP1 JUMP JUMPDEST PUSH1 0x0 DUP3 NOT DUP3 GT ISZERO PUSH2 0x174F JUMPI PUSH2 0x174F PUSH2 0x16BE JUMP JUMPDEST POP ADD SWAP1 JUMP JUMPDEST PUSH1 0x1 PUSH1 0x1 PUSH1 0xA0 SHL SUB SWAP3 SWAP1 SWAP3 AND DUP3 MSTORE PUSH1 0x20 DUP3 ADD MSTORE PUSH1 0x40 ADD SWAP1 JUMP JUMPDEST PUSH1 0x0 PUSH1 0x20 DUP3 DUP5 SUB SLT ISZERO PUSH2 0x177F JUMPI PUSH1 0x0 DUP1 REVERT JUMPDEST DUP2 MLOAD DUP1 ISZERO ISZERO DUP2 EQ PUSH2 0x141A JUMPI PUSH1 0x0 DUP1 REVERT JUMPDEST PUSH4 0x4E487B71 PUSH1 0xE0 SHL PUSH1 0x0 MSTORE PUSH1 0x32 PUSH1 0x4 MSTORE PUSH1 0x24 PUSH1 0x0 REVERT JUMPDEST PUSH1 0x0 PUSH1 0x20 DUP3 DUP5 SUB SLT ISZERO PUSH2 0x17B7 JUMPI PUSH1 0x0 DUP1 REVERT JUMPDEST POP MLOAD SWAP2 SWAP1 POP JUMP JUMPDEST PUSH1 0x0 PUSH1 0x1 DUP3 ADD PUSH2 0x17D0 JUMPI PUSH2 0x17D0 PUSH2 0x16BE JUMP JUMPDEST POP PUSH1 0x1 ADD SWAP1 JUMP JUMPDEST PUSH1 0x0 PUSH1 0x20 DUP3 DUP5 SUB SLT ISZERO PUSH2 0x17E9 JUMPI PUSH1 0x0 DUP1 REVERT JUMPDEST DUP2 MLOAD PUSH2 0x141A DUP2 PUSH2 0x1451 JUMP JUMPDEST PUSH1 0x0 DUP3 DUP3 LT ISZERO PUSH2 0x1806 JUMPI PUSH2 0x1806 PUSH2 0x16BE JUMP JUMPDEST POP SUB SWAP1 JUMP JUMPDEST PUSH1 0x20 DUP1 DUP3 MSTORE PUSH1 0x2B SWAP1 DUP3 ADD MSTORE PUSH32 0x496E697469616C697A61626C653A20636F6E7472616374206973206E6F742069 PUSH1 0x40 DUP3 ADD MSTORE PUSH11 0x6E697469616C697A696E67 PUSH1 0xA8 SHL PUSH1 0x60 DUP3 ADD MSTORE PUSH1 0x80 ADD SWAP1 JUMP INVALID LOG2 PUSH5 0x6970667358 0x22 SLT KECCAK256 0xA7 0xD3 0xBC RETURNDATACOPY 0xC2 0xAD 0x28 MOD 0xB4 STOP DUP14 0xF6 RETURNDATASIZE 0xA5 0x5F 0xBA ADDMOD COINBASE PUSH7 0x98768260F3A96A 0xD5 0xB7 SWAP9 EQ EXP 0xF7 PUSH5 0x736F6C6343 STOP ADDMOD 0xD STOP CALLER "
        },
        "methodIdentifiers": {
          "EMISSION()": "a18cb956",
          "LOCK()": "a4f0d7d0",
          "MAX_TEAM_RATE()": "01c8e6fd",
          "PRECISION()": "aaf5eb68",
          "REBASEMAX()": "e6684de8",
          "TAIL_EMISSION()": "a2e23a51",
          "WEEK()": "f4359ce5",
          "_emissionToken()": "1c1b9e52",
          "_initialize(address[],uint256[],uint256)": "952c820a",
          "_rewards_distributor()": "4b1cd5da",
          "_ve()": "8dd598fb",
          "_voter()": "3db9b42a",
          "acceptTeam()": "b5cc143a",
          "active_period()": "d1399608",
          "calculate_emission()": "36d96faf",
          "calculate_rebase(uint256)": "a129cfbf",
          "check()": "919840ad",
          "circulating_emission()": "1eebae80",
          "circulating_supply()": "e038c75a",
          "initialize(address,address,address)": "c0c53b8b",
          "isFirstMint()": "a9abf7ec",
          "owner()": "8da5cb5b",
          "pendingTeam()": "59d46ffc",
          "period()": "ef78d4fd",
          "renounceOwnership()": "715018a6",
          "setEmission(uint256)": "ddce102f",
          "setRebase(uint256)": "de3e3492",
          "setRewardDistributor(address)": "a1809b95",
          "setTeam(address)": "095cf5c6",
          "setTeamRate(uint256)": "2e8f7b1f",
          "setVoter(address)": "4bc2a657",
          "team()": "85f2aef2",
          "teamRate()": "78ef7f02",
          "transferOwnership(address)": "f2fde38b",
          "update_period()": "ed29fc11",
          "weekly()": "26cfc17b",
          "weekly_emission()": "cfc6c8ff"
        }
      },
      "storageLayout": {
        "storage": [
          {
            "astId": 139,
            "contract": "contracts/MinterUpgradeable.sol:MinterUpgradeable",
            "label": "_initialized",
            "offset": 0,
            "slot": "0",
            "type": "t_uint8"
          },
          {
            "astId": 142,
            "contract": "contracts/MinterUpgradeable.sol:MinterUpgradeable",
            "label": "_initializing",
            "offset": 1,
            "slot": "0",
            "type": "t_bool"
          },
          {
            "astId": 681,
            "contract": "contracts/MinterUpgradeable.sol:MinterUpgradeable",
            "label": "__gap",
            "offset": 0,
            "slot": "1",
            "type": "t_array(t_uint256)50_storage"
          },
          {
            "astId": 11,
            "contract": "contracts/MinterUpgradeable.sol:MinterUpgradeable",
            "label": "_owner",
            "offset": 0,
            "slot": "51",
            "type": "t_address"
          },
          {
            "astId": 131,
            "contract": "contracts/MinterUpgradeable.sol:MinterUpgradeable",
            "label": "__gap",
            "offset": 0,
            "slot": "52",
            "type": "t_array(t_uint256)49_storage"
          },
          {
            "astId": 697,
            "contract": "contracts/MinterUpgradeable.sol:MinterUpgradeable",
            "label": "isFirstMint",
            "offset": 0,
            "slot": "101",
            "type": "t_bool"
          },
          {
            "astId": 699,
            "contract": "contracts/MinterUpgradeable.sol:MinterUpgradeable",
            "label": "EMISSION",
            "offset": 0,
            "slot": "102",
            "type": "t_uint256"
          },
          {
            "astId": 701,
            "contract": "contracts/MinterUpgradeable.sol:MinterUpgradeable",
            "label": "TAIL_EMISSION",
            "offset": 0,
            "slot": "103",
            "type": "t_uint256"
          },
          {
            "astId": 703,
            "contract": "contracts/MinterUpgradeable.sol:MinterUpgradeable",
            "label": "REBASEMAX",
            "offset": 0,
            "slot": "104",
            "type": "t_uint256"
          },
          {
            "astId": 708,
            "contract": "contracts/MinterUpgradeable.sol:MinterUpgradeable",
            "label": "teamRate",
            "offset": 0,
            "slot": "105",
            "type": "t_uint256"
          },
          {
            "astId": 718,
            "contract": "contracts/MinterUpgradeable.sol:MinterUpgradeable",
            "label": "weekly",
            "offset": 0,
            "slot": "106",
            "type": "t_uint256"
          },
          {
            "astId": 720,
            "contract": "contracts/MinterUpgradeable.sol:MinterUpgradeable",
            "label": "active_period",
            "offset": 0,
            "slot": "107",
            "type": "t_uint256"
          },
          {
            "astId": 731,
            "contract": "contracts/MinterUpgradeable.sol:MinterUpgradeable",
            "label": "_initializer",
            "offset": 0,
            "slot": "108",
            "type": "t_address"
          },
          {
            "astId": 733,
            "contract": "contracts/MinterUpgradeable.sol:MinterUpgradeable",
            "label": "team",
            "offset": 0,
            "slot": "109",
            "type": "t_address"
          },
          {
            "astId": 735,
            "contract": "contracts/MinterUpgradeable.sol:MinterUpgradeable",
            "label": "pendingTeam",
            "offset": 0,
            "slot": "110",
            "type": "t_address"
          },
          {
            "astId": 738,
            "contract": "contracts/MinterUpgradeable.sol:MinterUpgradeable",
            "label": "_emissionToken",
            "offset": 0,
            "slot": "111",
            "type": "t_contract(IEmissionToken)1480"
          },
          {
            "astId": 741,
            "contract": "contracts/MinterUpgradeable.sol:MinterUpgradeable",
            "label": "_voter",
            "offset": 0,
            "slot": "112",
            "type": "t_contract(IVoter)1637"
          },
          {
            "astId": 744,
            "contract": "contracts/MinterUpgradeable.sol:MinterUpgradeable",
            "label": "_ve",
            "offset": 0,
            "slot": "113",
            "type": "t_contract(IVotingEscrow)1838"
          },
          {
            "astId": 747,
            "contract": "contracts/MinterUpgradeable.sol:MinterUpgradeable",
            "label": "_rewards_distributor",
            "offset": 0,
            "slot": "114",
            "type": "t_contract(IRewardsDistributor)1524"
          }
        ],
        "types": {
          "t_address": {
            "encoding": "inplace",
            "label": "address",
            "numberOfBytes": "20"
          },
          "t_array(t_uint256)49_storage": {
            "base": "t_uint256",
            "encoding": "inplace",
            "label": "uint256[49]",
            "numberOfBytes": "1568"
          },
          "t_array(t_uint256)50_storage": {
            "base": "t_uint256",
            "encoding": "inplace",
            "label": "uint256[50]",
            "numberOfBytes": "1600"
          },
          "t_bool": {
            "encoding": "inplace",
            "label": "bool",
            "numberOfBytes": "1"
          },
          "t_contract(IEmissionToken)1480": {
            "encoding": "inplace",
            "label": "contract IEmissionToken",
            "numberOfBytes": "20"
          },
          "t_contract(IRewardsDistributor)1524": {
            "encoding": "inplace",
            "label": "contract IRewardsDistributor",
            "numberOfBytes": "20"
          },
          "t_contract(IVoter)1637": {
            "encoding": "inplace",
            "label": "contract IVoter",
            "numberOfBytes": "20"
          },
          "t_contract(IVotingEscrow)1838": {
            "encoding": "inplace",
            "label": "contract IVotingEscrow",
            "numberOfBytes": "20"
          },
          "t_uint256": {
            "encoding": "inplace",
            "label": "uint256",
            "numberOfBytes": "32"
          },
          "t_uint8": {
            "encoding": "inplace",
            "label": "uint8",
            "numberOfBytes": "1"
          }
        }
      }
    }
  }
}