{
  "_format": "hh-sol-artifact-1",
  "contractName": "AlgebraVaultFactory",
  "sourceName": "contracts/algebra/AlgebraVaultFactory.sol",
  "abi": [
    {
      "inputs": [
        {
          "internalType": "address",
          "name": "_voter",
          "type": "address"
        },
        {
          "internalType": "address",
          "name": "_algebraFactory",
          "type": "address"
        }
      ],
      "stateMutability": "nonpayable",
      "type": "constructor"
    },
    {
      "inputs": [],
      "name": "NotAlgebraFactory",
      "type": "error"
    },
    {
      "inputs": [],
      "name": "ZeroAddress",
      "type": "error"
    },
    {
      "anonymous": false,
      "inputs": [
        {
          "indexed": true,
          "internalType": "bytes32",
          "name": "role",
          "type": "bytes32"
        },
        {
          "indexed": true,
          "internalType": "bytes32",
          "name": "previousAdminRole",
          "type": "bytes32"
        },
        {
          "indexed": true,
          "internalType": "bytes32",
          "name": "newAdminRole",
          "type": "bytes32"
        }
      ],
      "name": "RoleAdminChanged",
      "type": "event"
    },
    {
      "anonymous": false,
      "inputs": [
        {
          "indexed": true,
          "internalType": "bytes32",
          "name": "role",
          "type": "bytes32"
        },
        {
          "indexed": true,
          "internalType": "address",
          "name": "account",
          "type": "address"
        },
        {
          "indexed": true,
          "internalType": "address",
          "name": "sender",
          "type": "address"
        }
      ],
      "name": "RoleGranted",
      "type": "event"
    },
    {
      "anonymous": false,
      "inputs": [
        {
          "indexed": true,
          "internalType": "bytes32",
          "name": "role",
          "type": "bytes32"
        },
        {
          "indexed": true,
          "internalType": "address",
          "name": "account",
          "type": "address"
        },
        {
          "indexed": true,
          "internalType": "address",
          "name": "sender",
          "type": "address"
        }
      ],
      "name": "RoleRevoked",
      "type": "event"
    },
    {
      "anonymous": false,
      "inputs": [
        {
          "indexed": true,
          "internalType": "address",
          "name": "pool",
          "type": "address"
        },
        {
          "indexed": false,
          "internalType": "uint16",
          "name": "newFee",
          "type": "uint16"
        }
      ],
      "name": "SetCommunityFee",
      "type": "event"
    },
    {
      "anonymous": false,
      "inputs": [
        {
          "indexed": true,
          "internalType": "address",
          "name": "pool",
          "type": "address"
        },
        {
          "indexed": true,
          "internalType": "address",
          "name": "vault",
          "type": "address"
        },
        {
          "indexed": true,
          "internalType": "address",
          "name": "gauge",
          "type": "address"
        }
      ],
      "name": "SetGauge",
      "type": "event"
    },
    {
      "anonymous": false,
      "inputs": [
        {
          "indexed": true,
          "internalType": "address",
          "name": "oldReceiver",
          "type": "address"
        },
        {
          "indexed": true,
          "internalType": "address",
          "name": "newReceiver",
          "type": "address"
        }
      ],
      "name": "SetTheNftFeeReceiver",
      "type": "event"
    },
    {
      "anonymous": false,
      "inputs": [
        {
          "indexed": false,
          "internalType": "uint32",
          "name": "oldShare",
          "type": "uint32"
        },
        {
          "indexed": false,
          "internalType": "uint32",
          "name": "newShare",
          "type": "uint32"
        }
      ],
      "name": "SetTheNftShare",
      "type": "event"
    },
    {
      "anonymous": false,
      "inputs": [
        {
          "indexed": true,
          "internalType": "address",
          "name": "oldTreasury",
          "type": "address"
        },
        {
          "indexed": true,
          "internalType": "address",
          "name": "newTreasury",
          "type": "address"
        }
      ],
      "name": "SetThenaTreasury",
      "type": "event"
    },
    {
      "anonymous": false,
      "inputs": [
        {
          "indexed": true,
          "internalType": "uint32",
          "name": "oldShare",
          "type": "uint32"
        },
        {
          "indexed": true,
          "internalType": "uint32",
          "name": "newShare",
          "type": "uint32"
        }
      ],
      "name": "SetThenaTreasuryShare",
      "type": "event"
    },
    {
      "anonymous": false,
      "inputs": [
        {
          "indexed": true,
          "internalType": "address",
          "name": "oldVoter",
          "type": "address"
        },
        {
          "indexed": true,
          "internalType": "address",
          "name": "newVoter",
          "type": "address"
        }
      ],
      "name": "SetVoter",
      "type": "event"
    },
    {
      "anonymous": false,
      "inputs": [
        {
          "indexed": true,
          "internalType": "address",
          "name": "pool",
          "type": "address"
        },
        {
          "indexed": true,
          "internalType": "address",
          "name": "vault",
          "type": "address"
        }
      ],
      "name": "VaultCreated",
      "type": "event"
    },
    {
      "anonymous": false,
      "inputs": [
        {
          "indexed": true,
          "internalType": "address",
          "name": "to",
          "type": "address"
        },
        {
          "indexed": false,
          "internalType": "address[]",
          "name": "vaults",
          "type": "address[]"
        },
        {
          "indexed": false,
          "internalType": "address[][]",
          "name": "tokens",
          "type": "address[][]"
        },
        {
          "indexed": false,
          "internalType": "uint256[][]",
          "name": "amounts",
          "type": "uint256[][]"
        }
      ],
      "name": "VaultWithdrawal",
      "type": "event"
    },
    {
      "inputs": [],
      "name": "DEFAULT_ADMIN_ROLE",
      "outputs": [
        {
          "internalType": "bytes32",
          "name": "",
          "type": "bytes32"
        }
      ],
      "stateMutability": "view",
      "type": "function"
    },
    {
      "inputs": [],
      "name": "FACTORY_VAULT_MANAGER_ROLE",
      "outputs": [
        {
          "internalType": "bytes32",
          "name": "",
          "type": "bytes32"
        }
      ],
      "stateMutability": "view",
      "type": "function"
    },
    {
      "inputs": [],
      "name": "FEE_VAULT_MANAGER_ROLE",
      "outputs": [
        {
          "internalType": "bytes32",
          "name": "",
          "type": "bytes32"
        }
      ],
      "stateMutability": "view",
      "type": "function"
    },
    {
      "inputs": [],
      "name": "PRECISION",
      "outputs": [
        {
          "internalType": "uint32",
          "name": "",
          "type": "uint32"
        }
      ],
      "stateMutability": "view",
      "type": "function"
    },
    {
      "inputs": [],
      "name": "algebraFactory",
      "outputs": [
        {
          "internalType": "address",
          "name": "",
          "type": "address"
        }
      ],
      "stateMutability": "view",
      "type": "function"
    },
    {
      "inputs": [
        {
          "internalType": "address",
          "name": "pool",
          "type": "address"
        },
        {
          "internalType": "address",
          "name": "",
          "type": "address"
        },
        {
          "internalType": "address",
          "name": "",
          "type": "address"
        },
        {
          "internalType": "address",
          "name": "",
          "type": "address"
        },
        {
          "internalType": "address",
          "name": "",
          "type": "address"
        }
      ],
      "name": "createVaultForPool",
      "outputs": [
        {
          "internalType": "address",
          "name": "_vault",
          "type": "address"
        }
      ],
      "stateMutability": "nonpayable",
      "type": "function"
    },
    {
      "inputs": [],
      "name": "feeInfoTheNFT",
      "outputs": [
        {
          "internalType": "bool",
          "name": "isActive",
          "type": "bool"
        },
        {
          "internalType": "uint32",
          "name": "share",
          "type": "uint32"
        },
        {
          "internalType": "address",
          "name": "receiver",
          "type": "address"
        }
      ],
      "stateMutability": "view",
      "type": "function"
    },
    {
      "inputs": [],
      "name": "feeInfoThenaTreasury",
      "outputs": [
        {
          "internalType": "bool",
          "name": "isActive",
          "type": "bool"
        },
        {
          "internalType": "uint32",
          "name": "share",
          "type": "uint32"
        },
        {
          "internalType": "address",
          "name": "receiver",
          "type": "address"
        }
      ],
      "stateMutability": "view",
      "type": "function"
    },
    {
      "inputs": [
        {
          "internalType": "uint256",
          "name": "amount",
          "type": "uint256"
        }
      ],
      "name": "getFees",
      "outputs": [
        {
          "internalType": "uint256",
          "name": "thenftAmount",
          "type": "uint256"
        },
        {
          "internalType": "uint256",
          "name": "thenatreasuryAmount",
          "type": "uint256"
        }
      ],
      "stateMutability": "view",
      "type": "function"
    },
    {
      "inputs": [],
      "name": "getFeesReceivers",
      "outputs": [
        {
          "internalType": "address",
          "name": "thenft",
          "type": "address"
        },
        {
          "internalType": "address",
          "name": "thenatreasury",
          "type": "address"
        }
      ],
      "stateMutability": "view",
      "type": "function"
    },
    {
      "inputs": [
        {
          "internalType": "bytes32",
          "name": "role",
          "type": "bytes32"
        }
      ],
      "name": "getRoleAdmin",
      "outputs": [
        {
          "internalType": "bytes32",
          "name": "",
          "type": "bytes32"
        }
      ],
      "stateMutability": "view",
      "type": "function"
    },
    {
      "inputs": [
        {
          "internalType": "address",
          "name": "pool",
          "type": "address"
        }
      ],
      "name": "getVaultForPool",
      "outputs": [
        {
          "internalType": "address",
          "name": "",
          "type": "address"
        }
      ],
      "stateMutability": "view",
      "type": "function"
    },
    {
      "inputs": [
        {
          "internalType": "bytes32",
          "name": "role",
          "type": "bytes32"
        },
        {
          "internalType": "address",
          "name": "account",
          "type": "address"
        }
      ],
      "name": "grantRole",
      "outputs": [],
      "stateMutability": "nonpayable",
      "type": "function"
    },
    {
      "inputs": [
        {
          "internalType": "bytes32",
          "name": "role",
          "type": "bytes32"
        },
        {
          "internalType": "address",
          "name": "account",
          "type": "address"
        }
      ],
      "name": "hasRole",
      "outputs": [
        {
          "internalType": "bool",
          "name": "",
          "type": "bool"
        }
      ],
      "stateMutability": "view",
      "type": "function"
    },
    {
      "inputs": [
        {
          "internalType": "address",
          "name": "pool",
          "type": "address"
        }
      ],
      "name": "poolToVault",
      "outputs": [
        {
          "internalType": "address",
          "name": "vault",
          "type": "address"
        }
      ],
      "stateMutability": "view",
      "type": "function"
    },
    {
      "inputs": [
        {
          "internalType": "bytes32",
          "name": "role",
          "type": "bytes32"
        },
        {
          "internalType": "address",
          "name": "account",
          "type": "address"
        }
      ],
      "name": "renounceRole",
      "outputs": [],
      "stateMutability": "nonpayable",
      "type": "function"
    },
    {
      "inputs": [
        {
          "internalType": "bytes32",
          "name": "role",
          "type": "bytes32"
        },
        {
          "internalType": "address",
          "name": "account",
          "type": "address"
        }
      ],
      "name": "revokeRole",
      "outputs": [],
      "stateMutability": "nonpayable",
      "type": "function"
    },
    {
      "inputs": [
        {
          "internalType": "address",
          "name": "pool",
          "type": "address"
        },
        {
          "internalType": "uint16",
          "name": "newCommunityFee",
          "type": "uint16"
        }
      ],
      "name": "setCommunityFee",
      "outputs": [],
      "stateMutability": "nonpayable",
      "type": "function"
    },
    {
      "inputs": [
        {
          "internalType": "address",
          "name": "_feeReceiver",
          "type": "address"
        }
      ],
      "name": "setTheNftFeeReceiver",
      "outputs": [],
      "stateMutability": "nonpayable",
      "type": "function"
    },
    {
      "inputs": [
        {
          "internalType": "uint16",
          "name": "share",
          "type": "uint16"
        }
      ],
      "name": "setTheNftShare",
      "outputs": [],
      "stateMutability": "nonpayable",
      "type": "function"
    },
    {
      "inputs": [
        {
          "internalType": "address",
          "name": "_thenaTreasury",
          "type": "address"
        }
      ],
      "name": "setThenaTreasury",
      "outputs": [],
      "stateMutability": "nonpayable",
      "type": "function"
    },
    {
      "inputs": [
        {
          "internalType": "uint32",
          "name": "_thenaShare",
          "type": "uint32"
        }
      ],
      "name": "setThenaTreasuryShare",
      "outputs": [],
      "stateMutability": "nonpayable",
      "type": "function"
    },
    {
      "inputs": [
        {
          "internalType": "address",
          "name": "_voter",
          "type": "address"
        }
      ],
      "name": "setVoter",
      "outputs": [],
      "stateMutability": "nonpayable",
      "type": "function"
    },
    {
      "inputs": [
        {
          "internalType": "bytes4",
          "name": "interfaceId",
          "type": "bytes4"
        }
      ],
      "name": "supportsInterface",
      "outputs": [
        {
          "internalType": "bool",
          "name": "",
          "type": "bool"
        }
      ],
      "stateMutability": "view",
      "type": "function"
    },
    {
      "inputs": [],
      "name": "voter",
      "outputs": [
        {
          "internalType": "address",
          "name": "",
          "type": "address"
        }
      ],
      "stateMutability": "view",
      "type": "function"
    },
    {
      "inputs": [
        {
          "internalType": "address",
          "name": "to",
          "type": "address"
        },
        {
          "internalType": "address[]",
          "name": "vault",
          "type": "address[]"
        },
        {
          "internalType": "address[][]",
          "name": "token",
          "type": "address[][]"
        },
        {
          "internalType": "uint256[][]",
          "name": "amount",
          "type": "uint256[][]"
        }
      ],
      "name": "withdrawFromVault",
      "outputs": [],
      "stateMutability": "nonpayable",
      "type": "function"
    },
    {
      "inputs": [
        {
          "internalType": "address",
          "name": "to",
          "type": "address"
        },
        {
          "internalType": "address[]",
          "name": "pools",
          "type": "address[]"
        },
        {
          "internalType": "address[][]",
          "name": "token",
          "type": "address[][]"
        },
        {
          "internalType": "uint256[][]",
          "name": "amount",
          "type": "uint256[][]"
        }
      ],
      "name": "withdrawFromVaultWithPools",
      "outputs": [],
      "stateMutability": "nonpayable",
      "type": "function"
    }
  ],
  "bytecode": "0x608060405234801561001057600080fd5b5060405161324b38038061324b83398101604081905261002f9161027a565b6001600160a01b0382166100565760405163d92e233d60e01b815260040160405180910390fd5b6001600160a01b03811661007d5760405163d92e233d60e01b815260040160405180910390fd5b600380546001600160a01b038085166001600160a01b031992831617909255600480549284169290911691909117905560408051606080820183526001808352620186a06020808501829052736c1c0af31e3c59bc3de10c5cdb0d4af6a0f2eccc948601949094528154786c1c0af31e3c59bc3de10c5cdb0d4af6a0f2eccc000186a0016001600160c81b0319918216179092558451928301855260008352928201929092527346f99291eedf25fd5c6ae56bbfd6679d0ea3630b920191909152600280547846f99291eedf25fd5c6ae56bbfd6679d0ea3630b000186a000921691909117905561018e7f051c694253ee1de28d55aa7bc6304f8b568f938d7a7e9bdf84d217e165111cbb336101bf565b6101b87f90fb7ad8c058c7ad7a6703544465fefa9f297038d3d21b64b96e4713179a435d336101bf565b50506102ad565b6000828152602081815260408083206001600160a01b038516845290915290205460ff1661025a576000828152602081815260408083206001600160a01b03851684529091529020805460ff191660011790556102193390565b6001600160a01b0316816001600160a01b0316837f2f8788117e7eff1d82e926ec794901d17c78024a50270940304540a733656f0d60405160405180910390a45b5050565b80516001600160a01b038116811461027557600080fd5b919050565b6000806040838503121561028d57600080fd5b6102968361025e565b91506102a46020840161025e565b90509250929050565b612f8f806102bc6000396000f3fe608060405234801561001057600080fd5b50600436106101795760003560e01c80637570e389116100d9578063aaf5eb6811610087578063aaf5eb68146103f8578063b8a1d3c614610417578063d547741f1461042a578063d5a06d4c1461043d578063d91ae24114610465578063e5e19bd11461047a578063f6ad98781461048d57600080fd5b80637570e38914610339578063865a9b3d1461036557806391d1485414610390578063983fcda1146103a3578063a217fddf146103ca578063a5ebf2ee146103d2578063a7b64b04146103e557600080fd5b80632f2ff15d116101365780632f2ff15d1461025357806336568abe1461026657806346c96aac146102795780634af3a2461461028c5780634bc2a657146102e25780634d139b5e146102f557806358923bc51461030857600080fd5b806301ffc9a71461017e5780630a7c12b6146101a657806311c75c1d146101e75780631b29e5b7146101fc578063248a9ca31461020f578063279030af14610240575b600080fd5b61019161018c3660046111a6565b6104a0565b60405190151581526020015b60405180910390f35b6101cf6101b43660046111e5565b6005602052600090815260409020546001600160a01b031681565b6040516001600160a01b03909116815260200161019d565b6101fa6101f5366004611219565b6104d7565b005b6101fa61020a36600461124e565b61061f565b61023261021d366004611274565b60009081526020819052604090206001015490565b60405190815260200161019d565b6101fa61024e3660046111e5565b61068c565b6101fa61026136600461128d565b61072a565b6101fa61027436600461128d565b610754565b6003546101cf906001600160a01b031681565b6002546102b79060ff811690610100810463ffffffff1690600160281b90046001600160a01b031683565b60408051931515845263ffffffff90921660208401526001600160a01b03169082015260600161019d565b6101fa6102f03660046111e5565b6107d7565b6101fa6103033660046111e5565b610869565b600154600254604080516001600160a01b03600160281b94859004811682529390920490921660208201520161019d565b6101cf6103473660046111e5565b6001600160a01b039081166000908152600560205260409020541690565b6001546102b79060ff811690610100810463ffffffff1690600160281b90046001600160a01b031683565b61019161039e36600461128d565b610907565b6102327f051c694253ee1de28d55aa7bc6304f8b568f938d7a7e9bdf84d217e165111cbb81565b610232600081565b6101fa6103e03660046112bd565b610930565b6004546101cf906001600160a01b031681565b610402620f424081565b60405163ffffffff909116815260200161019d565b6101cf6104253660046112d8565b6109b1565b6101fa61043836600461128d565b610ac2565b61045061044b366004611274565b610ae7565b6040805192835260208301919091520161019d565b610232600080516020612f3a83398151915281565b6101fa610488366004611394565b610b5b565b6101fa61049b366004611394565b610cb0565b60006001600160e01b03198216637965db0b60e01b14806104d157506301ffc9a760e01b6001600160e01b03198316145b92915050565b6000336001600160a01b0316836001600160a01b031663ef01df4f6040518163ffffffff1660e01b8152600401602060405180830381865afa158015610521573d6000803e3d6000fd5b505050506040513d601f19601f82011682018060405250810190610545919061144a565b6001600160a01b03161461055a57600061055d565b60015b90508061057b5761057b600080516020612f3a833981519152610e96565b60405163120543ad60e11b815261ffff831660048201526001600160a01b0384169063240a875a90602401600060405180830381600087803b1580156105c057600080fd5b505af11580156105d4573d6000803e3d6000fd5b505060405161ffff851681526001600160a01b03861692507f87601c40f3b9684b6f0eba0102ad5a76bde77f94ecc38c0bd61f18935497998b915060200160405180910390a2505050565b600080516020612f3a83398151915261063781610e96565b6002805463ffffffff84811661010081810264ffffffff001985161790945560405193909204169182907f9136975576bba6c22c16c89447f769bc03a44fffd3ea214d14c9140ba1306e4590600090a3505050565b600080516020612f3a8339815191526106a481610e96565b6001600160a01b0382166106cb5760405163d92e233d60e01b815260040160405180910390fd5b600280546001600160a01b03848116600160281b818102600160281b600160c81b031985161790945560405193909204169182907f3526bc4471de2813d709d06e496ae8b8620563c2d15fdaff20aed03d246f771790600090a3505050565b60008281526020819052604090206001015461074581610e96565b61074f8383610ea3565b505050565b6001600160a01b03811633146107c95760405162461bcd60e51b815260206004820152602f60248201527f416363657373436f6e74726f6c3a2063616e206f6e6c792072656e6f756e636560448201526e103937b632b9903337b91039b2b63360891b60648201526084015b60405180910390fd5b6107d38282610f27565b5050565b600080516020612f3a8339815191526107ef81610e96565b6001600160a01b0382166108165760405163d92e233d60e01b815260040160405180910390fd5b600380546001600160a01b038481166001600160a01b0319831681179093556040519116919082907fbb6f01f955e930367eb0fac583ec04af4f8be9a3f88872a9622eb0a649b8bcb790600090a3505050565b600080516020612f3a83398151915261088181610e96565b6001600160a01b0382166108a85760405163d92e233d60e01b815260040160405180910390fd5b600180546001600160a01b03848116600160281b818102600160281b600160c81b031985161790945560405193909204169182907f27eea88212cd51cf00ccad4cc8ff56b442e8e44a90ca205b079ab91c8e68f0df90600090a3505050565b6000918252602082815260408084206001600160a01b0393909316845291905290205460ff1690565b600080516020612f3a83398151915261094881610e96565b6001805464ffffffff0019811661010061ffff861681810292909217909355604080519390920463ffffffff168084526020840191909152917f5c6c7b69a96ba8fa72e85c90f32e00b7cc06d21ac31dbfa01ffbfc2c3a62f7af910160405180910390a1505050565b6004546000906001600160a01b031633146109df5760405163c8baeeb560e01b815260040160405180910390fd5b6001600160a01b038616610a065760405163d92e233d60e01b815260040160405180910390fd5b60035460405187916001600160a01b0316903090610a2390611199565b6001600160a01b03938416815291831660208301529091166040820152606001604051809103906000f080158015610a5f573d6000803e3d6000fd5b506001600160a01b0387811660008181526005602052604080822080546001600160a01b031916948616948517905551939450919290917f5d9c31ffa0fecffd7cf379989a3c7af252f0335e0d2a1320b55245912c781f5391a395945050505050565b600082815260208190526040902060010154610add81610e96565b61074f8383610f27565b600154600090819060ff1615610b2157600154620f424090610b1490610100900463ffffffff168561147d565b610b1e9190611494565b91505b60025460ff1615610b5657600254620f424090610b4990610100900463ffffffff168561147d565b610b539190611494565b90505b915091565b600080516020612f3a833981519152610b7381610e96565b60005b86811015610c5a57878782818110610b9057610b906114b6565b9050602002016020810190610ba591906111e5565b6001600160a01b031663edbd76688a888885818110610bc657610bc66114b6565b9050602002810190610bd891906114cc565b888887818110610bea57610bea6114b6565b9050602002810190610bfc91906114cc565b6040518663ffffffff1660e01b8152600401610c1c959493929190611591565b600060405180830381600087803b158015610c3657600080fd5b505af1158015610c4a573d6000803e3d6000fd5b505060019092019150610b769050565b50876001600160a01b03167f1add5e2f2142a8f0259a5de73abf3cabbb5ea7e526dca68d2a39ecab5b44aaa9888888888888604051610c9e96959493929190611707565b60405180910390a25050505050505050565b600080516020612f3a833981519152610cc881610e96565b6000866001600160401b03811115610ce257610ce2611750565b604051908082528060200260200182016040528015610d0b578160200160208202803683370190505b50905060005b87811015610e41576000600560008b8b85818110610d3157610d316114b6565b9050602002016020810190610d4691906111e5565b6001600160a01b0390811682526020820192909252604001600020548451911691508190849084908110610d7c57610d7c6114b6565b6001600160a01b039283166020918202929092010152811663edbd76688c8a8a86818110610dac57610dac6114b6565b9050602002810190610dbe91906114cc565b8a8a88818110610dd057610dd06114b6565b9050602002810190610de291906114cc565b6040518663ffffffff1660e01b8152600401610e02959493929190611591565b600060405180830381600087803b158015610e1c57600080fd5b505af1158015610e30573d6000803e3d6000fd5b505060019093019250610d11915050565b50886001600160a01b03167f1add5e2f2142a8f0259a5de73abf3cabbb5ea7e526dca68d2a39ecab5b44aaa98288888888604051610e83959493929190611766565b60405180910390a2505050505050505050565b610ea08133610f8c565b50565b610ead8282610907565b6107d3576000828152602081815260408083206001600160a01b03851684529091529020805460ff19166001179055610ee33390565b6001600160a01b0316816001600160a01b0316837f2f8788117e7eff1d82e926ec794901d17c78024a50270940304540a733656f0d60405160405180910390a45050565b610f318282610907565b156107d3576000828152602081815260408083206001600160a01b0385168085529252808320805460ff1916905551339285917ff6391f5c32d9c69d2a47ea670b442974b53935d1edc7fd64eb21e047a839171b9190a45050565b610f968282610907565b6107d357610fa381610fe5565b610fae836020610ff7565b604051602001610fbf9291906117f8565b60408051601f198184030181529082905262461bcd60e51b82526107c091600401611867565b60606104d16001600160a01b03831660145b6060600061100683600261147d565b61101190600261189a565b6001600160401b0381111561102857611028611750565b6040519080825280601f01601f191660200182016040528015611052576020820181803683370190505b509050600360fc1b8160008151811061106d5761106d6114b6565b60200101906001600160f81b031916908160001a905350600f60fb1b8160018151811061109c5761109c6114b6565b60200101906001600160f81b031916908160001a90535060006110c084600261147d565b6110cb90600161189a565b90505b6001811115611143576f181899199a1a9b1b9c1cb0b131b232b360811b85600f16601081106110ff576110ff6114b6565b1a60f81b828281518110611115576111156114b6565b60200101906001600160f81b031916908160001a90535060049490941c9361113c816118ad565b90506110ce565b5083156111925760405162461bcd60e51b815260206004820181905260248201527f537472696e67733a20686578206c656e67746820696e73756666696369656e7460448201526064016107c0565b9392505050565b611675806118c583390190565b6000602082840312156111b857600080fd5b81356001600160e01b03198116811461119257600080fd5b6001600160a01b0381168114610ea057600080fd5b6000602082840312156111f757600080fd5b8135611192816111d0565b803561ffff8116811461121457600080fd5b919050565b6000806040838503121561122c57600080fd5b8235611237816111d0565b915061124560208401611202565b90509250929050565b60006020828403121561126057600080fd5b813563ffffffff8116811461119257600080fd5b60006020828403121561128657600080fd5b5035919050565b600080604083850312156112a057600080fd5b8235915060208301356112b2816111d0565b809150509250929050565b6000602082840312156112cf57600080fd5b61119282611202565b600080600080600060a086880312156112f057600080fd5b85356112fb816111d0565b9450602086013561130b816111d0565b9350604086013561131b816111d0565b9250606086013561132b816111d0565b9150608086013561133b816111d0565b809150509295509295909350565b60008083601f84011261135b57600080fd5b5081356001600160401b0381111561137257600080fd5b6020830191508360208260051b850101111561138d57600080fd5b9250929050565b60008060008060008060006080888a0312156113af57600080fd5b87356113ba816111d0565b965060208801356001600160401b038111156113d557600080fd5b6113e18a828b01611349565b90975095505060408801356001600160401b0381111561140057600080fd5b61140c8a828b01611349565b90955093505060608801356001600160401b0381111561142b57600080fd5b6114378a828b01611349565b989b979a50959850939692959293505050565b60006020828403121561145c57600080fd5b8151611192816111d0565b634e487b7160e01b600052601160045260246000fd5b80820281158282048414176104d1576104d1611467565b6000826114b157634e487b7160e01b600052601260045260246000fd5b500490565b634e487b7160e01b600052603260045260246000fd5b6000808335601e198436030181126114e357600080fd5b8301803591506001600160401b038211156114fd57600080fd5b6020019150600581901b360382131561138d57600080fd5b81835260208301925060008160005b84811015611555578135611537816111d0565b6001600160a01b031686526020958601959190910190600101611524565b5093949350505050565b81835260006001600160fb1b0383111561157857600080fd5b8260051b80836020870137939093016020019392505050565b6001600160a01b03861681526060602082018190526000906115b69083018688611515565b82810360408401526115c981858761155f565b98975050505050505050565b6000808335601e198436030181126115ec57600080fd5b83016020810192503590506001600160401b0381111561160b57600080fd5b8060051b360382131561138d57600080fd5b60008383855260208501945060208460051b8201018360005b868110156116a457838303601f1901885261165182876115d5565b8085526020850160005b8281101561168b57833561166e816111d0565b6001600160a01b031682526020938401939091019060010161165b565b5060209a8b019a90955093909301925050600101611636565b50909695505050505050565b60008383855260208501945060208460051b8201018360005b868110156116a457838303601f190188526116e482876115d5565b6116ef85828461155f565b60209a8b019a909550939093019250506001016116c9565b60608152600061171b60608301888a611515565b828103602084015261172e81878961161d565b905082810360408401526117438185876116b0565b9998505050505050505050565b634e487b7160e01b600052604160045260246000fd5b6060808252865190820181905260009060208801906080840190835b818110156117a95783516001600160a01b0316835260209384019390920191600101611782565b505083810360208501526117be81888a61161d565b91505082810360408401526115c98185876116b0565b60005b838110156117ef5781810151838201526020016117d7565b50506000910152565b76020b1b1b2b9b9a1b7b73a3937b61d1030b1b1b7bab73a1604d1b81526000835161182a8160178501602088016117d4565b7001034b99036b4b9b9b4b733903937b6329607d1b601791840191820152835161185b8160288401602088016117d4565b01602801949350505050565b60208152600082518060208401526118868160408501602087016117d4565b601f01601f19169190910160400192915050565b808201808211156104d1576104d1611467565b6000816118bc576118bc611467565b50600019019056fe60e060405234801561001057600080fd5b5060405161167538038061167583398101604081905261002f916102ae565b6001600160a01b0383166100565760405163d92e233d60e01b815260040160405180910390fd5b6001600160a01b03821661007d5760405163d92e233d60e01b815260040160405180910390fd5b6001600160a01b0381166100a45760405163d92e233d60e01b815260040160405180910390fd5b6001600160a01b03831660a081905260408051630dfe168160e01b81529051630dfe1681916004808201926020929091908290030181865afa1580156100ee573d6000803e3d6000fd5b505050506040513d601f19601f8201168201806040525081019061011291906102f1565b600160006101000a8154816001600160a01b0302191690836001600160a01b03160217905550826001600160a01b031663d21220a76040518163ffffffff1660e01b8152600401602060405180830381865afa158015610176573d6000803e3d6000fd5b505050506040513d601f19601f8201168201806040525081019061019a91906102f1565b600280546001600160a01b0319166001600160a01b0392831617905582811660c05281166080526101eb7f051c694253ee1de28d55aa7bc6304f8b568f938d7a7e9bdf84d217e165111cbb826101f3565b505050610313565b6000828152602081815260408083206001600160a01b038516845290915290205460ff1661028e576000828152602081815260408083206001600160a01b03851684529091529020805460ff1916600117905561024d3390565b6001600160a01b0316816001600160a01b0316837f2f8788117e7eff1d82e926ec794901d17c78024a50270940304540a733656f0d60405160405180910390a45b5050565b80516001600160a01b03811681146102a957600080fd5b919050565b6000806000606084860312156102c357600080fd5b6102cc84610292565b92506102da60208501610292565b91506102e860408501610292565b90509250925092565b60006020828403121561030357600080fd5b61030c82610292565b9392505050565b60805160a05160c0516113116103646000396000818161017e015261035e01526000818160f1015261038d0152600081816101e701528181610524015281816105c701526106c301526113116000f3fe608060405234801561001057600080fd5b50600436106100bf5760003560e01c806391d148541161007c57806391d14854146101a0578063983fcda1146101b3578063a217fddf146101da578063c45a0155146101e2578063d294f09314610209578063d547741f14610226578063edbd76681461023957600080fd5b806301ffc9a7146100c457806316f0115b146100ec578063248a9ca3146101205780632f2ff15d1461015157806336568abe1461016657806346c96aac14610179575b600080fd5b6100d76100d2366004610f2b565b61024c565b60405190151581526020015b60405180910390f35b6101137f000000000000000000000000000000000000000000000000000000000000000081565b6040516100e39190610f55565b61014361012e366004610f69565b60009081526020819052604090206001015490565b6040519081526020016100e3565b61016461015f366004610f97565b610283565b005b610164610174366004610f97565b6102ad565b6101137f000000000000000000000000000000000000000000000000000000000000000081565b6100d76101ae366004610f97565b610330565b6101437f051c694253ee1de28d55aa7bc6304f8b568f938d7a7e9bdf84d217e165111cbb81565b610143600081565b6101137f000000000000000000000000000000000000000000000000000000000000000081565b610211610359565b604080519283526020830191909152016100e3565b610164610234366004610f97565b6107e6565b610164610247366004611013565b61080b565b60006001600160e01b03198216637965db0b60e01b148061027d57506301ffc9a760e01b6001600160e01b03198316145b92915050565b60008281526020819052604090206001015461029e81610970565b6102a8838361097d565b505050565b6001600160a01b03811633146103225760405162461bcd60e51b815260206004820152602f60248201527f416363657373436f6e74726f6c3a2063616e206f6e6c792072656e6f756e636560448201526e103937b632b9903337b91039b2b63360891b60648201526084015b60405180910390fd5b61032c8282610a01565b5050565b6000918252602082815260408084206001600160a01b0393909316845291905290205460ff1690565b6000807f00000000000000000000000000000000000000000000000000000000000000006001600160a01b0316632045be907f00000000000000000000000000000000000000000000000000000000000000006040518263ffffffff1660e01b81526004016103c89190610f55565b602060405180830381865afa1580156103e5573d6000803e3d6000fd5b505050506040513d601f19601f82011682018060405250810190610409919061109b565b6001600160a01b0316336001600160a01b03161461043a5760405163f664c73b60e01b815260040160405180910390fd5b6001546040516370a0823160e01b81526001600160a01b03909116906370a082319061046a903090600401610f55565b602060405180830381865afa158015610487573d6000803e3d6000fd5b505050506040513d601f19601f820116820180604052508101906104ab91906110b8565b6002546040516370a0823160e01b81529193506001600160a01b0316906370a08231906104dc903090600401610f55565b602060405180830381865afa1580156104f9573d6000803e3d6000fd5b505050506040513d601f19601f8201168201806040525081019061051d91906110b8565b90506000807f00000000000000000000000000000000000000000000000000000000000000006001600160a01b03166358923bc56040518163ffffffff1660e01b81526004016040805180830381865afa15801561057f573d6000803e3d6000fd5b505050506040513d601f19601f820116820180604052508101906105a391906110d1565b909250905060008085156106a7576040516335681b5360e21b8152600481018790527f00000000000000000000000000000000000000000000000000000000000000006001600160a01b03169063d5a06d4c906024016040805180830381865afa158015610615573d6000803e3d6000fd5b505050506040513d601f19601f820116820180604052508101906106399190611100565b9092509050811561065b5760015461065b906001600160a01b03168584610a66565b801561067857600154610678906001600160a01b03168483610a66565b80610683838861113a565b61068d919061113a565b6001549096506106a7906001600160a01b03163388610a66565b84156107a3576040516335681b5360e21b8152600481018690527f00000000000000000000000000000000000000000000000000000000000000006001600160a01b03169063d5a06d4c906024016040805180830381865afa158015610711573d6000803e3d6000fd5b505050506040513d601f19601f820116820180604052508101906107359190611100565b9092509050811561075757600254610757906001600160a01b03168584610a66565b801561077457600254610774906001600160a01b03168483610a66565b8061077f838761113a565b610789919061113a565b6002549095506107a3906001600160a01b03163387610a66565b604080518781526020810187905233917f85da6ab72d2b48932522aea80adb8ca4fab6cdeb87bc2e7f6c03fd78d3b2100e910160405180910390a2505050509091565b60008281526020819052604090206001015461080181610970565b6102a88383610a01565b7f051c694253ee1de28d55aa7bc6304f8b568f938d7a7e9bdf84d217e165111cbb61083581610970565b60005b84811015610967578383828181106108525761085261114d565b9050602002013586868381811061086b5761086b61114d565b90506020020160208101906108809190611163565b6001600160a01b03166370a08231306040518263ffffffff1660e01b81526004016108ab9190610f55565b602060405180830381865afa1580156108c8573d6000803e3d6000fd5b505050506040513d601f19601f820116820180604052508101906108ec91906110b8565b101561090b576040516354e0951160e11b815260040160405180910390fd5b61095f878585848181106109215761092161114d565b9050602002013588888581811061093a5761093a61114d565b905060200201602081019061094f9190611163565b6001600160a01b03169190610a66565b600101610838565b50505050505050565b61097a8133610ab8565b50565b6109878282610330565b61032c576000828152602081815260408083206001600160a01b03851684529091529020805460ff191660011790556109bd3390565b6001600160a01b0316816001600160a01b0316837f2f8788117e7eff1d82e926ec794901d17c78024a50270940304540a733656f0d60405160405180910390a45050565b610a0b8282610330565b1561032c576000828152602081815260408083206001600160a01b0385168085529252808320805460ff1916905551339285917ff6391f5c32d9c69d2a47ea670b442974b53935d1edc7fd64eb21e047a839171b9190a45050565b604080516001600160a01b038416602482015260448082018490528251808303909101815260649091019091526020810180516001600160e01b031663a9059cbb60e01b1790526102a8908490610b11565b610ac28282610330565b61032c57610acf81610be6565b610ada836020610bf8565b604051602001610aeb9291906111a4565b60408051601f198184030181529082905262461bcd60e51b825261031991600401611213565b6000610b66826040518060400160405280602081526020017f5361666545524332303a206c6f772d6c6576656c2063616c6c206661696c6564815250856001600160a01b0316610d9b9092919063ffffffff16565b9050805160001480610b87575080806020019051810190610b879190611246565b6102a85760405162461bcd60e51b815260206004820152602a60248201527f5361666545524332303a204552433230206f7065726174696f6e20646964206e6044820152691bdd081cdd58d8d9595960b21b6064820152608401610319565b606061027d6001600160a01b03831660145b60606000610c07836002611268565b610c1290600261127f565b67ffffffffffffffff811115610c2a57610c2a611292565b6040519080825280601f01601f191660200182016040528015610c54576020820181803683370190505b509050600360fc1b81600081518110610c6f57610c6f61114d565b60200101906001600160f81b031916908160001a905350600f60fb1b81600181518110610c9e57610c9e61114d565b60200101906001600160f81b031916908160001a9053506000610cc2846002611268565b610ccd90600161127f565b90505b6001811115610d45576f181899199a1a9b1b9c1cb0b131b232b360811b85600f1660108110610d0157610d0161114d565b1a60f81b828281518110610d1757610d1761114d565b60200101906001600160f81b031916908160001a90535060049490941c93610d3e816112a8565b9050610cd0565b508315610d945760405162461bcd60e51b815260206004820181905260248201527f537472696e67733a20686578206c656e67746820696e73756666696369656e746044820152606401610319565b9392505050565b6060610daa8484600085610db2565b949350505050565b606082471015610e135760405162461bcd60e51b815260206004820152602660248201527f416464726573733a20696e73756666696369656e742062616c616e636520666f6044820152651c8818d85b1b60d21b6064820152608401610319565b600080866001600160a01b03168587604051610e2f91906112bf565b60006040518083038185875af1925050503d8060008114610e6c576040519150601f19603f3d011682016040523d82523d6000602084013e610e71565b606091505b5091509150610e8287838387610e8d565b979650505050505050565b60608315610efc578251600003610ef5576001600160a01b0385163b610ef55760405162461bcd60e51b815260206004820152601d60248201527f416464726573733a2063616c6c20746f206e6f6e2d636f6e74726163740000006044820152606401610319565b5081610daa565b610daa8383815115610f115781518083602001fd5b8060405162461bcd60e51b81526004016103199190611213565b600060208284031215610f3d57600080fd5b81356001600160e01b031981168114610d9457600080fd5b6001600160a01b0391909116815260200190565b600060208284031215610f7b57600080fd5b5035919050565b6001600160a01b038116811461097a57600080fd5b60008060408385031215610faa57600080fd5b823591506020830135610fbc81610f82565b809150509250929050565b60008083601f840112610fd957600080fd5b50813567ffffffffffffffff811115610ff157600080fd5b6020830191508360208260051b850101111561100c57600080fd5b9250929050565b60008060008060006060868803121561102b57600080fd5b853561103681610f82565b9450602086013567ffffffffffffffff81111561105257600080fd5b61105e88828901610fc7565b909550935050604086013567ffffffffffffffff81111561107e57600080fd5b61108a88828901610fc7565b969995985093965092949392505050565b6000602082840312156110ad57600080fd5b8151610d9481610f82565b6000602082840312156110ca57600080fd5b5051919050565b600080604083850312156110e457600080fd5b82516110ef81610f82565b6020840151909250610fbc81610f82565b6000806040838503121561111357600080fd5b505080516020909101519092909150565b634e487b7160e01b600052601160045260246000fd5b8181038181111561027d5761027d611124565b634e487b7160e01b600052603260045260246000fd5b60006020828403121561117557600080fd5b8135610d9481610f82565b60005b8381101561119b578181015183820152602001611183565b50506000910152565b76020b1b1b2b9b9a1b7b73a3937b61d1030b1b1b7bab73a1604d1b8152600083516111d6816017850160208801611180565b7001034b99036b4b9b9b4b733903937b6329607d1b6017918401918201528351611207816028840160208801611180565b01602801949350505050565b6020815260008251806020840152611232816040850160208701611180565b601f01601f19169190910160400192915050565b60006020828403121561125857600080fd5b81518015158114610d9457600080fd5b808202811582820484141761027d5761027d611124565b8082018082111561027d5761027d611124565b634e487b7160e01b600052604160045260246000fd5b6000816112b7576112b7611124565b506000190190565b600082516112d1818460208701611180565b919091019291505056fea26469706673582212205904dd5e9d24732b61ad17b6aa95e57342b8dd7b50056568d2a8dece671ea95764736f6c634300081c003390fb7ad8c058c7ad7a6703544465fefa9f297038d3d21b64b96e4713179a435da2646970667358221220b78750c0a1f02958e202a981dc095d20fb2e7404b735ca3000678f96b8b081c464736f6c634300081c0033",
  "linkReferences": {},
  "deployedLinkReferences": {}
}