{
  "_format": "hh-sol-artifact-1",
  "contractName": "EmissionToken",
  "sourceName": "contracts/EmissionToken.sol",
  "abi": [
    {
      "inputs": [
        {
          "internalType": "string",
          "name": "_name",
          "type": "string"
        },
        {
          "internalType": "string",
          "name": "_symbol",
          "type": "string"
        }
      ],
      "stateMutability": "nonpayable",
      "type": "constructor"
    },
    {
      "anonymous": false,
      "inputs": [
        {
          "indexed": true,
          "internalType": "address",
          "name": "owner",
          "type": "address"
        },
        {
          "indexed": true,
          "internalType": "address",
          "name": "spender",
          "type": "address"
        },
        {
          "indexed": false,
          "internalType": "uint256",
          "name": "value",
          "type": "uint256"
        }
      ],
      "name": "Approval",
      "type": "event"
    },
    {
      "anonymous": false,
      "inputs": [
        {
          "indexed": true,
          "internalType": "address",
          "name": "from",
          "type": "address"
        },
        {
          "indexed": true,
          "internalType": "address",
          "name": "to",
          "type": "address"
        },
        {
          "indexed": false,
          "internalType": "uint256",
          "name": "value",
          "type": "uint256"
        }
      ],
      "name": "Transfer",
      "type": "event"
    },
    {
      "inputs": [
        {
          "internalType": "address",
          "name": "",
          "type": "address"
        },
        {
          "internalType": "address",
          "name": "",
          "type": "address"
        }
      ],
      "name": "allowance",
      "outputs": [
        {
          "internalType": "uint256",
          "name": "",
          "type": "uint256"
        }
      ],
      "stateMutability": "view",
      "type": "function"
    },
    {
      "inputs": [
        {
          "internalType": "address",
          "name": "_spender",
          "type": "address"
        },
        {
          "internalType": "uint256",
          "name": "_value",
          "type": "uint256"
        }
      ],
      "name": "approve",
      "outputs": [
        {
          "internalType": "bool",
          "name": "",
          "type": "bool"
        }
      ],
      "stateMutability": "nonpayable",
      "type": "function"
    },
    {
      "inputs": [
        {
          "internalType": "address",
          "name": "",
          "type": "address"
        }
      ],
      "name": "balanceOf",
      "outputs": [
        {
          "internalType": "uint256",
          "name": "",
          "type": "uint256"
        }
      ],
      "stateMutability": "view",
      "type": "function"
    },
    {
      "inputs": [],
      "name": "decimals",
      "outputs": [
        {
          "internalType": "uint8",
          "name": "",
          "type": "uint8"
        }
      ],
      "stateMutability": "view",
      "type": "function"
    },
    {
      "inputs": [
        {
          "internalType": "address",
          "name": "_recipient",
          "type": "address"
        }
      ],
      "name": "initialMint",
      "outputs": [],
      "stateMutability": "nonpayable",
      "type": "function"
    },
    {
      "inputs": [],
      "name": "initialMinted",
      "outputs": [
        {
          "internalType": "bool",
          "name": "",
          "type": "bool"
        }
      ],
      "stateMutability": "view",
      "type": "function"
    },
    {
      "inputs": [
        {
          "internalType": "address",
          "name": "account",
          "type": "address"
        },
        {
          "internalType": "uint256",
          "name": "amount",
          "type": "uint256"
        }
      ],
      "name": "mint",
      "outputs": [
        {
          "internalType": "bool",
          "name": "",
          "type": "bool"
        }
      ],
      "stateMutability": "nonpayable",
      "type": "function"
    },
    {
      "inputs": [],
      "name": "minter",
      "outputs": [
        {
          "internalType": "address",
          "name": "",
          "type": "address"
        }
      ],
      "stateMutability": "view",
      "type": "function"
    },
    {
      "inputs": [],
      "name": "name",
      "outputs": [
        {
          "internalType": "string",
          "name": "",
          "type": "string"
        }
      ],
      "stateMutability": "view",
      "type": "function"
    },
    {
      "inputs": [
        {
          "internalType": "address",
          "name": "_minter",
          "type": "address"
        }
      ],
      "name": "setMinter",
      "outputs": [],
      "stateMutability": "nonpayable",
      "type": "function"
    },
    {
      "inputs": [],
      "name": "symbol",
      "outputs": [
        {
          "internalType": "string",
          "name": "",
          "type": "string"
        }
      ],
      "stateMutability": "view",
      "type": "function"
    },
    {
      "inputs": [],
      "name": "totalSupply",
      "outputs": [
        {
          "internalType": "uint256",
          "name": "",
          "type": "uint256"
        }
      ],
      "stateMutability": "view",
      "type": "function"
    },
    {
      "inputs": [
        {
          "internalType": "address",
          "name": "_to",
          "type": "address"
        },
        {
          "internalType": "uint256",
          "name": "_value",
          "type": "uint256"
        }
      ],
      "name": "transfer",
      "outputs": [
        {
          "internalType": "bool",
          "name": "",
          "type": "bool"
        }
      ],
      "stateMutability": "nonpayable",
      "type": "function"
    },
    {
      "inputs": [
        {
          "internalType": "address",
          "name": "_from",
          "type": "address"
        },
        {
          "internalType": "address",
          "name": "_to",
          "type": "address"
        },
        {
          "internalType": "uint256",
          "name": "_value",
          "type": "uint256"
        }
      ],
      "name": "transferFrom",
      "outputs": [
        {
          "internalType": "bool",
          "name": "",
          "type": "bool"
        }
      ],
      "stateMutability": "nonpayable",
      "type": "function"
    }
  ],
  "bytecode": "0x6080604052600060025534801561001557600080fd5b50604051610b16380380610b16833981016040819052610034916101a9565b6000610040838261029b565b50600161004d828261029b565b5060058054610100600160a81b0319163361010081029190911790915561007590600061007d565b50505061037a565b600081600260008282546100919190610359565b90915550506001600160a01b0383166000818152600360209081526040808320805487019055518581527fddf252ad1be2c89b69c2b068fc378daa952ba7f163c4a11628f55a4df523b3ef910160405180910390a35060015b92915050565b634e487b7160e01b600052604160045260246000fd5b600082601f83011261011757600080fd5b81516001600160401b03811115610130576101306100f0565b604051601f8201601f19908116603f011681016001600160401b038111828210171561015e5761015e6100f0565b60405281815283820160200185101561017657600080fd5b60005b8281101561019557602081860181015183830182015201610179565b506000918101602001919091529392505050565b600080604083850312156101bc57600080fd5b82516001600160401b038111156101d257600080fd5b6101de85828601610106565b602085015190935090506001600160401b038111156101fc57600080fd5b61020885828601610106565b9150509250929050565b600181811c9082168061022657607f821691505b60208210810361024657634e487b7160e01b600052602260045260246000fd5b50919050565b601f82111561029657806000526020600020601f840160051c810160208510156102735750805b601f840160051c820191505b81811015610293576000815560010161027f565b50505b505050565b81516001600160401b038111156102b4576102b46100f0565b6102c8816102c28454610212565b8461024c565b6020601f8211600181146102fc57600083156102e45750848201515b600019600385901b1c1916600184901b178455610293565b600084815260208120601f198516915b8281101561032c578785015182556020948501946001909201910161030c565b508482101561034a5786840151600019600387901b60f8161c191681555b50505050600190811b01905550565b808201808211156100ea57634e487b7160e01b600052601160045260246000fd5b61078d806103896000396000f3fe608060405234801561001057600080fd5b50600436106100ca5760003560e01c806370a082311161007c57806370a082311461019757806395d89b41146101b7578063a9059cbb146101bf578063c268f9ba146101d2578063ca1c4de9146101e7578063dd62ed3e146101f4578063fca3b5aa1461021f57600080fd5b806306fdde03146100cf57806307546172146100ed578063095ea7b31461011d57806318160ddd1461014057806323b872dd14610157578063313ce5671461016a57806340c10f1914610184575b600080fd5b6100d7610232565b6040516100e491906105c2565b60405180910390f35b6005546101059061010090046001600160a01b031681565b6040516001600160a01b0390911681526020016100e4565b61013061012b36600461062c565b6102c0565b60405190151581526020016100e4565b61014960025481565b6040519081526020016100e4565b610130610165366004610656565b61032d565b610172601281565b60405160ff90911681526020016100e4565b61013061019236600461062c565b6103a7565b6101496101a5366004610693565b60036020526000908152604090205481565b6100d761040f565b6101306101cd36600461062c565b61041c565b6101e56101e0366004610693565b610430565b005b6005546101309060ff1681565b6101496102023660046106ae565b600460209081526000928352604080842090915290825290205481565b6101e561022d366004610693565b610481565b6000805461023f906106e1565b80601f016020809104026020016040519081016040528092919081815260200182805461026b906106e1565b80156102b85780601f1061028d576101008083540402835291602001916102b8565b820191906000526020600020905b81548152906001019060200180831161029b57829003601f168201915b505050505081565b3360008181526004602090815260408083206001600160a01b038716808552925280832085905551919290917f8c5be1e5ebec7d5bd14f71427d1e84f3dd0314c0f7b2291e5b200ac8c7c3b9259061031b9086815260200190565b60405180910390a35060015b92915050565b6001600160a01b03831660009081526004602090815260408083203384529091528120546000198114610393576001600160a01b03851660009081526004602090815260408083203384529091528120805485929061038d908490610731565b90915550505b61039e8585856104c5565b95945050505050565b60055460009061010090046001600160a01b031633146103fb5760405162461bcd60e51b815260206004820152600b60248201526a1b9bdd08185b1b1bddd95960aa1b604482015260640160405180910390fd5b610405838361055c565b5060019392505050565b6001805461023f906106e1565b60006104293384846104c5565b9392505050565b60055461010090046001600160a01b031633148015610452575060055460ff16155b61045b57600080fd5b6005805460ff1916600117905561047d816a295be96e6406697200000061055c565b5050565b60055461010090046001600160a01b0316331461049d57600080fd5b600580546001600160a01b0390921661010002610100600160a81b0319909216919091179055565b6001600160a01b0383166000908152600360205260408120805483919083906104ef908490610731565b90915550506001600160a01b03808416600081815260036020526040908190208054860190555190918616907fddf252ad1be2c89b69c2b068fc378daa952ba7f163c4a11628f55a4df523b3ef9061054a9086815260200190565b60405180910390a35060019392505050565b600081600260008282546105709190610744565b90915550506001600160a01b0383166000818152600360209081526040808320805487019055518581527fddf252ad1be2c89b69c2b068fc378daa952ba7f163c4a11628f55a4df523b3ef910161031b565b602081526000825180602084015260005b818110156105f057602081860181015160408684010152016105d3565b506000604082850101526040601f19601f83011684010191505092915050565b80356001600160a01b038116811461062757600080fd5b919050565b6000806040838503121561063f57600080fd5b61064883610610565b946020939093013593505050565b60008060006060848603121561066b57600080fd5b61067484610610565b925061068260208501610610565b929592945050506040919091013590565b6000602082840312156106a557600080fd5b61042982610610565b600080604083850312156106c157600080fd5b6106ca83610610565b91506106d860208401610610565b90509250929050565b600181811c908216806106f557607f821691505b60208210810361071557634e487b7160e01b600052602260045260246000fd5b50919050565b634e487b7160e01b600052601160045260246000fd5b818103818111156103275761032761071b565b808201808211156103275761032761071b56fea2646970667358221220f82a606b23d096865ddda4dd98d9bfeb07b958bd81ab8794f45bf2b8978a6bdc64736f6c634300081c0033",
  "linkReferences": {},
  "deployedLinkReferences": {}
}