{
  "_format": "hh-sol-artifact-1",
  "contractName": "GaugeFactory",
  "sourceName": "contracts/GaugeFactory.sol",
  "abi": [
    {
      "inputs": [
        {
          "internalType": "address",
          "name": "_globalFactory",
          "type": "address"
        }
      ],
      "stateMutability": "nonpayable",
      "type": "constructor"
    },
    {
      "anonymous": false,
      "inputs": [
        {
          "indexed": true,
          "internalType": "address",
          "name": "strategy",
          "type": "address"
        },
        {
          "indexed": true,
          "internalType": "address",
          "name": "gauge",
          "type": "address"
        }
      ],
      "name": "CreateGauge",
      "type": "event"
    },
    {
      "anonymous": false,
      "inputs": [
        {
          "indexed": true,
          "internalType": "bytes32",
          "name": "role",
          "type": "bytes32"
        },
        {
          "indexed": true,
          "internalType": "bytes32",
          "name": "previousAdminRole",
          "type": "bytes32"
        },
        {
          "indexed": true,
          "internalType": "bytes32",
          "name": "newAdminRole",
          "type": "bytes32"
        }
      ],
      "name": "RoleAdminChanged",
      "type": "event"
    },
    {
      "anonymous": false,
      "inputs": [
        {
          "indexed": true,
          "internalType": "bytes32",
          "name": "role",
          "type": "bytes32"
        },
        {
          "indexed": true,
          "internalType": "address",
          "name": "account",
          "type": "address"
        },
        {
          "indexed": true,
          "internalType": "address",
          "name": "sender",
          "type": "address"
        }
      ],
      "name": "RoleGranted",
      "type": "event"
    },
    {
      "anonymous": false,
      "inputs": [
        {
          "indexed": true,
          "internalType": "bytes32",
          "name": "role",
          "type": "bytes32"
        },
        {
          "indexed": true,
          "internalType": "address",
          "name": "account",
          "type": "address"
        },
        {
          "indexed": true,
          "internalType": "address",
          "name": "sender",
          "type": "address"
        }
      ],
      "name": "RoleRevoked",
      "type": "event"
    },
    {
      "anonymous": false,
      "inputs": [
        {
          "indexed": true,
          "internalType": "address",
          "name": "globalfactory",
          "type": "address"
        }
      ],
      "name": "SetGlobalFactory",
      "type": "event"
    },
    {
      "inputs": [],
      "name": "CLAIMER_ROLE",
      "outputs": [
        {
          "internalType": "bytes32",
          "name": "",
          "type": "bytes32"
        }
      ],
      "stateMutability": "view",
      "type": "function"
    },
    {
      "inputs": [],
      "name": "CREATE_ROLE",
      "outputs": [
        {
          "internalType": "bytes32",
          "name": "",
          "type": "bytes32"
        }
      ],
      "stateMutability": "view",
      "type": "function"
    },
    {
      "inputs": [],
      "name": "DEFAULT_ADMIN_ROLE",
      "outputs": [
        {
          "internalType": "bytes32",
          "name": "",
          "type": "bytes32"
        }
      ],
      "stateMutability": "view",
      "type": "function"
    },
    {
      "inputs": [],
      "name": "GAUGE_FACTORY_MANAGER_ROLE",
      "outputs": [
        {
          "internalType": "bytes32",
          "name": "",
          "type": "bytes32"
        }
      ],
      "stateMutability": "view",
      "type": "function"
    },
    {
      "inputs": [
        {
          "internalType": "address[]",
          "name": "_gauges",
          "type": "address[]"
        }
      ],
      "name": "activateEmergencyMode",
      "outputs": [],
      "stateMutability": "nonpayable",
      "type": "function"
    },
    {
      "inputs": [
        {
          "internalType": "address",
          "name": "_gauge",
          "type": "address"
        },
        {
          "internalType": "address",
          "name": "_token",
          "type": "address"
        }
      ],
      "name": "addRewardToken",
      "outputs": [],
      "stateMutability": "nonpayable",
      "type": "function"
    },
    {
      "inputs": [
        {
          "internalType": "address[]",
          "name": "_gauges",
          "type": "address[]"
        },
        {
          "internalType": "address",
          "name": "_token",
          "type": "address"
        }
      ],
      "name": "addRewardToken",
      "outputs": [],
      "stateMutability": "nonpayable",
      "type": "function"
    },
    {
      "inputs": [
        {
          "internalType": "address[]",
          "name": "_gauges",
          "type": "address[]"
        }
      ],
      "name": "claimFees",
      "outputs": [],
      "stateMutability": "nonpayable",
      "type": "function"
    },
    {
      "inputs": [
        {
          "internalType": "address",
          "name": "_pool",
          "type": "address"
        },
        {
          "internalType": "address",
          "name": "_distribution",
          "type": "address"
        },
        {
          "internalType": "address",
          "name": "_feeVault",
          "type": "address"
        },
        {
          "internalType": "address",
          "name": "_votingIncentives",
          "type": "address"
        },
        {
          "internalType": "address",
          "name": "_incentiveMaker",
          "type": "address"
        }
      ],
      "name": "createEternalGauge",
      "outputs": [
        {
          "internalType": "address",
          "name": "",
          "type": "address"
        }
      ],
      "stateMutability": "nonpayable",
      "type": "function"
    },
    {
      "inputs": [
        {
          "internalType": "address[]",
          "name": "_rewardtokens",
          "type": "address[]"
        },
        {
          "internalType": "address",
          "name": "_token",
          "type": "address"
        },
        {
          "internalType": "address",
          "name": "_distribution",
          "type": "address"
        },
        {
          "internalType": "address",
          "name": "_feeVault",
          "type": "address"
        },
        {
          "internalType": "address",
          "name": "_votingIncentives",
          "type": "address"
        },
        {
          "internalType": "address",
          "name": "_claimer",
          "type": "address"
        },
        {
          "internalType": "bool",
          "name": "isWeighted",
          "type": "bool"
        }
      ],
      "name": "createGauge",
      "outputs": [
        {
          "internalType": "address",
          "name": "",
          "type": "address"
        }
      ],
      "stateMutability": "nonpayable",
      "type": "function"
    },
    {
      "inputs": [
        {
          "internalType": "bytes32",
          "name": "role",
          "type": "bytes32"
        }
      ],
      "name": "getRoleAdmin",
      "outputs": [
        {
          "internalType": "bytes32",
          "name": "",
          "type": "bytes32"
        }
      ],
      "stateMutability": "view",
      "type": "function"
    },
    {
      "inputs": [],
      "name": "globalFactory",
      "outputs": [
        {
          "internalType": "address",
          "name": "",
          "type": "address"
        }
      ],
      "stateMutability": "view",
      "type": "function"
    },
    {
      "inputs": [
        {
          "internalType": "bytes32",
          "name": "role",
          "type": "bytes32"
        },
        {
          "internalType": "address",
          "name": "account",
          "type": "address"
        }
      ],
      "name": "grantRole",
      "outputs": [],
      "stateMutability": "nonpayable",
      "type": "function"
    },
    {
      "inputs": [
        {
          "internalType": "bytes32",
          "name": "role",
          "type": "bytes32"
        },
        {
          "internalType": "address",
          "name": "account",
          "type": "address"
        }
      ],
      "name": "hasRole",
      "outputs": [
        {
          "internalType": "bool",
          "name": "",
          "type": "bool"
        }
      ],
      "stateMutability": "view",
      "type": "function"
    },
    {
      "inputs": [
        {
          "internalType": "address[]",
          "name": "_gauges",
          "type": "address[]"
        }
      ],
      "name": "pauseGauge",
      "outputs": [],
      "stateMutability": "nonpayable",
      "type": "function"
    },
    {
      "inputs": [
        {
          "internalType": "address",
          "name": "gauge",
          "type": "address"
        },
        {
          "internalType": "address",
          "name": "_token",
          "type": "address"
        }
      ],
      "name": "removeRewardToken",
      "outputs": [],
      "stateMutability": "nonpayable",
      "type": "function"
    },
    {
      "inputs": [
        {
          "internalType": "bytes32",
          "name": "role",
          "type": "bytes32"
        },
        {
          "internalType": "address",
          "name": "account",
          "type": "address"
        }
      ],
      "name": "renounceRole",
      "outputs": [],
      "stateMutability": "nonpayable",
      "type": "function"
    },
    {
      "inputs": [
        {
          "internalType": "bytes32",
          "name": "role",
          "type": "bytes32"
        },
        {
          "internalType": "address",
          "name": "account",
          "type": "address"
        }
      ],
      "name": "revokeRole",
      "outputs": [],
      "stateMutability": "nonpayable",
      "type": "function"
    },
    {
      "inputs": [
        {
          "internalType": "address",
          "name": "claimer",
          "type": "address"
        },
        {
          "internalType": "address[]",
          "name": "_gauges",
          "type": "address[]"
        }
      ],
      "name": "setClaimer",
      "outputs": [],
      "stateMutability": "nonpayable",
      "type": "function"
    },
    {
      "inputs": [
        {
          "internalType": "address[]",
          "name": "_gauges",
          "type": "address[]"
        },
        {
          "internalType": "address",
          "name": "distro",
          "type": "address"
        }
      ],
      "name": "setDistribution",
      "outputs": [],
      "stateMutability": "nonpayable",
      "type": "function"
    },
    {
      "inputs": [
        {
          "internalType": "address[]",
          "name": "_gauges",
          "type": "address[]"
        },
        {
          "internalType": "address[]",
          "name": "feevault",
          "type": "address[]"
        }
      ],
      "name": "setFeeVault",
      "outputs": [],
      "stateMutability": "nonpayable",
      "type": "function"
    },
    {
      "inputs": [
        {
          "internalType": "address",
          "name": "_gf",
          "type": "address"
        }
      ],
      "name": "setGlobalFactory",
      "outputs": [],
      "stateMutability": "nonpayable",
      "type": "function"
    },
    {
      "inputs": [
        {
          "internalType": "address[]",
          "name": "_gauges",
          "type": "address[]"
        },
        {
          "internalType": "address",
          "name": "_incentiveMaker",
          "type": "address"
        }
      ],
      "name": "setIncentiveMaker",
      "outputs": [],
      "stateMutability": "nonpayable",
      "type": "function"
    },
    {
      "inputs": [
        {
          "internalType": "address",
          "name": "_gauges",
          "type": "address"
        },
        {
          "internalType": "address",
          "name": "_vi",
          "type": "address"
        }
      ],
      "name": "setVotingIncentives",
      "outputs": [],
      "stateMutability": "nonpayable",
      "type": "function"
    },
    {
      "inputs": [
        {
          "internalType": "address[]",
          "name": "_gauges",
          "type": "address[]"
        },
        {
          "internalType": "address[]",
          "name": "_vi",
          "type": "address[]"
        }
      ],
      "name": "setVotingIncentives",
      "outputs": [],
      "stateMutability": "nonpayable",
      "type": "function"
    },
    {
      "inputs": [
        {
          "internalType": "address[]",
          "name": "_gauges",
          "type": "address[]"
        }
      ],
      "name": "stopEmergencyMode",
      "outputs": [],
      "stateMutability": "nonpayable",
      "type": "function"
    },
    {
      "inputs": [
        {
          "internalType": "bytes4",
          "name": "interfaceId",
          "type": "bytes4"
        }
      ],
      "name": "supportsInterface",
      "outputs": [
        {
          "internalType": "bool",
          "name": "",
          "type": "bool"
        }
      ],
      "stateMutability": "view",
      "type": "function"
    },
    {
      "inputs": [
        {
          "internalType": "address[]",
          "name": "_gauges",
          "type": "address[]"
        }
      ],
      "name": "unpauseGauge",
      "outputs": [],
      "stateMutability": "nonpayable",
      "type": "function"
    }
  ],
  "bytecode": "0x608060405234801561001057600080fd5b50604051615bc0380380615bc083398101604081905261002f9161017a565b6001600160a01b0381161561009a57600180546001600160a01b0319166001600160a01b03831690811790915561007590600080516020615ba0833981519152906100db565b60015461009a90600080516020615b80833981519152906001600160a01b03166100db565b6100a56000336100db565b6100bd600080516020615b80833981519152336100db565b6100d5600080516020615ba0833981519152336100db565b506101aa565b6000828152602081815260408083206001600160a01b038516845290915290205460ff16610176576000828152602081815260408083206001600160a01b03851684529091529020805460ff191660011790556101353390565b6001600160a01b0316816001600160a01b0316837f2f8788117e7eff1d82e926ec794901d17c78024a50270940304540a733656f0d60405160405180910390a45b5050565b60006020828403121561018c57600080fd5b81516001600160a01b03811681146101a357600080fd5b9392505050565b6159c7806101b96000396000f3fe608060405234801561001057600080fd5b50600436106101835760003560e01c80635e93d0e4116100d957806391d148541161008757806391d148541461035d578063a0ea1ccc14610370578063a217fddf14610383578063d0a273cb1461038b578063d547741f1461039e578063f0ec7e30146103b1578063fc5f18d3146103c457600080fd5b80635e93d0e4146102d857806361533040146102eb5780636cbbf822146102fe578063725acc6b1461031157806379251d881461032457806384e1a4f81461033757806385379bc01461034a57600080fd5b80632ef2115b116101365780632ef2115b146102535780632f2ff15d1461026657806330c6f6021461027957806336568abe1461028c5780634ac0374e1461029f578063536e198c146102b25780635e135a89146102c557600080fd5b80626f53c91461018857806301ffc9a7146101b0578063033b6d1f146101d3578063072dc20d146101e857806323cb2390146101fd578063248a9ca3146102105780632c4c00be14610233575b600080fd5b61019d60008051602061597283398151915281565b6040519081526020015b60405180910390f35b6101c36101be3660046113ed565b6103eb565b60405190151581526020016101a7565b61019d60008051602061595283398151915281565b6101fb6101f636600461147e565b610422565b005b6101fb61020b3660046114d1565b6104dc565b61019d61021e366004611504565b60009081526020819052604090206001015490565b610246610241366004611543565b610557565b6040516101a79190611675565b6101fb610261366004611689565b610602565b6101fb6102743660046116a4565b6106ea565b6101fb61028736600461147e565b610714565b6101fb61029a3660046116a4565b6107c7565b6101fb6102ad3660046116c7565b610845565b6101fb6102c03660046116c7565b6108f3565b6101fb6102d33660046114d1565b6109a5565b6101fb6102e636600461147e565b6109e9565b6101fb6102f9366004611708565b610a9c565b61024661030c36600461175a565b610b4f565b6101fb61031f3660046116c7565b610c15565b6101fb6103323660046114d1565b610cdd565b6101fb6103453660046116c7565b610d21565b6101fb6103583660046117bf565b610dd3565b6101c361036b3660046116a4565b610ec0565b600154610246906001600160a01b031681565b61019d600081565b6101fb6103993660046117bf565b610ee9565b6101fb6103ac3660046116a4565b611003565b6101fb6103bf3660046116c7565b611028565b61019d7f11a8cb5a02bd6c42679835e867ef2118ba78f088f8300511420c6603c21d9c7881565b60006001600160e01b03198216637965db0b60e01b148061041c57506301ffc9a760e01b6001600160e01b03198316145b92915050565b60008051602061595283398151915261043a816110d0565b60005b838110156104d5578484828181106104575761045761182e565b905060200201602081019061046c9190611689565b6001600160a01b031663779fa0c4846040518263ffffffff1660e01b81526004016104979190611675565b600060405180830381600087803b1580156104b157600080fd5b505af11580156104c5573d6000803e3d6000fd5b50506001909201915061043d9050565b5050505050565b6000805160206159528339815191526104f4816110d0565b604051630700f9b360e21b81526001600160a01b03841690631c03e6cc90610520908590600401611675565b600060405180830381600087803b15801561053a57600080fd5b505af115801561054e573d6000803e3d6000fd5b50505050505050565b6000600080516020615972833981519152610571816110d0565b600089898989898989604051610586906113d3565b6105969796959493929190611844565b604051809103906000f0801580156105b2573d6000803e3d6000fd5b509050806001600160a01b0316896001600160a01b03167f46843f5a58231053242305fde621fa67db852076f219ff604176b817bd97a56960405160405180910390a39998505050505050505050565b60008051602061595283398151915261061a816110d0565b6001600160a01b0382166106675760405162461bcd60e51b815260206004820152600f60248201526e47463a205a65726f4164647265737360881b60448201526064015b60405180910390fd5b600180546001600160a01b0319166001600160a01b03841617905561069a600080516020615972833981519152836110dd565b6106b2600080516020615952833981519152836110dd565b6040516001600160a01b038316907fa8058d034a214bf4981222270790224959db0d5b82f22dae82a70e7b397912b390600090a25050565b600082815260208190526040902060010154610705816110d0565b61070f83836110dd565b505050565b60008051602061595283398151915261072c816110d0565b60005b838110156104d5578484828181106107495761074961182e565b905060200201602081019061075e9190611689565b6001600160a01b0316637f699015846040518263ffffffff1660e01b81526004016107899190611675565b600060405180830381600087803b1580156107a357600080fd5b505af11580156107b7573d6000803e3d6000fd5b50506001909201915061072f9050565b6001600160a01b03811633146108375760405162461bcd60e51b815260206004820152602f60248201527f416363657373436f6e74726f6c3a2063616e206f6e6c792072656e6f756e636560448201526e103937b632b9903337b91039b2b63360891b606482015260840161065e565b6108418282611161565b5050565b60008051602061595283398151915261085d816110d0565b60005b828110156108ed5783838281811061087a5761087a61182e565b905060200201602081019061088f9190611689565b6001600160a01b031663d00960106040518163ffffffff1660e01b8152600401600060405180830381600087803b1580156108c957600080fd5b505af11580156108dd573d6000803e3d6000fd5b5050600190920191506108609050565b50505050565b60008051602061595283398151915261090b816110d0565b60005b828110156108ed578383828181106109285761092861182e565b905060200201602081019061093d9190611689565b6040516302329a2960e01b8152600060048201526001600160a01b0391909116906302329a2990602401600060405180830381600087803b15801561098157600080fd5b505af1158015610995573d6000803e3d6000fd5b50506001909201915061090e9050565b6000805160206159528339815191526109bd816110d0565b604051630d779edb60e31b81526001600160a01b03841690636bbcf6d890610520908590600401611675565b600080516020615952833981519152610a01816110d0565b60005b838110156104d557848482818110610a1e57610a1e61182e565b9050602002016020810190610a339190611689565b6001600160a01b0316631c03e6cc846040518263ffffffff1660e01b8152600401610a5e9190611675565b600060405180830381600087803b158015610a7857600080fd5b505af1158015610a8c573d6000803e3d6000fd5b505060019092019150610a049050565b600080516020615952833981519152610ab4816110d0565b60005b828110156104d557838382818110610ad157610ad161182e565b9050602002016020810190610ae69190611689565b6001600160a01b031663cdfb5832866040518263ffffffff1660e01b8152600401610b119190611675565b600060405180830381600087803b158015610b2b57600080fd5b505af1158015610b3f573d6000803e3d6000fd5b505060019092019150610ab79050565b6000600080516020615972833981519152610b69816110d0565b60008787878787604051610b7c906113e0565b6001600160a01b0395861681529385166020850152918416604084015283166060830152909116608082015260a001604051809103906000f080158015610bc7573d6000803e3d6000fd5b509050806001600160a01b0316886001600160a01b03167f46843f5a58231053242305fde621fa67db852076f219ff604176b817bd97a56960405160405180910390a3979650505050505050565b7f11a8cb5a02bd6c42679835e867ef2118ba78f088f8300511420c6603c21d9c78610c3f816110d0565b60005b828110156108ed57838382818110610c5c57610c5c61182e565b9050602002016020810190610c719190611689565b6001600160a01b031663d294f0936040518163ffffffff1660e01b815260040160408051808303816000875af1158015610caf573d6000803e3d6000fd5b505050506040513d601f19601f82011682018060405250810190610cd391906118db565b5050600101610c42565b600080516020615952833981519152610cf5816110d0565b604051633d509c9760e01b81526001600160a01b03841690633d509c9790610520908590600401611675565b600080516020615952833981519152610d39816110d0565b60005b828110156108ed57838382818110610d5657610d5661182e565b9050602002016020810190610d6b9190611689565b6040516302329a2960e01b8152600160048201526001600160a01b0391909116906302329a2990602401600060405180830381600087803b158015610daf57600080fd5b505af1158015610dc3573d6000803e3d6000fd5b505060019092019150610d3c9050565b600080516020615952833981519152610deb816110d0565b838214610df757600080fd5b60005b84811015610eb857858582818110610e1457610e1461182e565b9050602002016020810190610e299190611689565b6001600160a01b0316636bbcf6d8858584818110610e4957610e4961182e565b9050602002016020810190610e5e9190611689565b6040518263ffffffff1660e01b8152600401610e7a9190611675565b600060405180830381600087803b158015610e9457600080fd5b505af1158015610ea8573d6000803e3d6000fd5b505060019092019150610dfa9050565b505050505050565b6000918252602082815260408084206001600160a01b0393909316845291905290205460ff1690565b600080516020615952833981519152610f01816110d0565b838214610f425760405162461bcd60e51b815260206004820152600f60248201526e098cadccee8d040dad2e6dac2e8c6d608b1b604482015260640161065e565b60005b84811015610eb857858582818110610f5f57610f5f61182e565b9050602002016020810190610f749190611689565b6001600160a01b031663a591f97f858584818110610f9457610f9461182e565b9050602002016020810190610fa99190611689565b6040518263ffffffff1660e01b8152600401610fc59190611675565b600060405180830381600087803b158015610fdf57600080fd5b505af1158015610ff3573d6000803e3d6000fd5b505060019092019150610f459050565b60008281526020819052604090206001015461101e816110d0565b61070f8383611161565b600080516020615952833981519152611040816110d0565b60005b828110156108ed5783838281811061105d5761105d61182e565b90506020020160208101906110729190611689565b6001600160a01b031663b1534ecd6040518163ffffffff1660e01b8152600401600060405180830381600087803b1580156110ac57600080fd5b505af11580156110c0573d6000803e3d6000fd5b5050600190920191506110439050565b6110da81336111c6565b50565b6110e78282610ec0565b610841576000828152602081815260408083206001600160a01b03851684529091529020805460ff1916600117905561111d3390565b6001600160a01b0316816001600160a01b0316837f2f8788117e7eff1d82e926ec794901d17c78024a50270940304540a733656f0d60405160405180910390a45050565b61116b8282610ec0565b15610841576000828152602081815260408083206001600160a01b0385168085529252808320805460ff1916905551339285917ff6391f5c32d9c69d2a47ea670b442974b53935d1edc7fd64eb21e047a839171b9190a45050565b6111d08282610ec0565b610841576111dd8161121f565b6111e8836020611231565b6040516020016111f9929190611923565b60408051601f198184030181529082905262461bcd60e51b825261065e91600401611992565b606061041c6001600160a01b03831660145b606060006112408360026119db565b61124b9060026119f2565b6001600160401b038111156112625761126261151d565b6040519080825280601f01601f19166020018201604052801561128c576020820181803683370190505b509050600360fc1b816000815181106112a7576112a761182e565b60200101906001600160f81b031916908160001a905350600f60fb1b816001815181106112d6576112d661182e565b60200101906001600160f81b031916908160001a90535060006112fa8460026119db565b6113059060016119f2565b90505b600181111561137d576f181899199a1a9b1b9c1cb0b131b232b360811b85600f16601081106113395761133961182e565b1a60f81b82828151811061134f5761134f61182e565b60200101906001600160f81b031916908160001a90535060049490941c9361137681611a05565b9050611308565b5083156113cc5760405162461bcd60e51b815260206004820181905260248201527f537472696e67733a20686578206c656e67746820696e73756666696369656e74604482015260640161065e565b9392505050565b612ee080611a1d83390190565b611055806148fd83390190565b6000602082840312156113ff57600080fd5b81356001600160e01b0319811681146113cc57600080fd5b60008083601f84011261142957600080fd5b5081356001600160401b0381111561144057600080fd5b6020830191508360208260051b850101111561145b57600080fd5b9250929050565b80356001600160a01b038116811461147957600080fd5b919050565b60008060006040848603121561149357600080fd5b83356001600160401b038111156114a957600080fd5b6114b586828701611417565b90945092506114c8905060208501611462565b90509250925092565b600080604083850312156114e457600080fd5b6114ed83611462565b91506114fb60208401611462565b90509250929050565b60006020828403121561151657600080fd5b5035919050565b634e487b7160e01b600052604160045260246000fd5b8035801515811461147957600080fd5b600080600080600080600060e0888a03121561155e57600080fd5b87356001600160401b0381111561157457600080fd5b8801601f81018a1361158557600080fd5b80356001600160401b0381111561159e5761159e61151d565b8060051b604051601f19603f83011681018181106001600160401b03821117156115ca576115ca61151d565b60405291825260208184018101929081018d8411156115e857600080fd5b6020850194505b8385101561160e5761160085611462565b8152602094850194016115ef565b5099506116219250505060208901611462565b955061162f60408901611462565b945061163d60608901611462565b935061164b60808901611462565b925061165960a08901611462565b915061166760c08901611533565b905092959891949750929550565b6001600160a01b0391909116815260200190565b60006020828403121561169b57600080fd5b6113cc82611462565b600080604083850312156116b757600080fd5b823591506114fb60208401611462565b600080602083850312156116da57600080fd5b82356001600160401b038111156116f057600080fd5b6116fc85828601611417565b90969095509350505050565b60008060006040848603121561171d57600080fd5b61172684611462565b925060208401356001600160401b0381111561174157600080fd5b61174d86828701611417565b9497909650939450505050565b600080600080600060a0868803121561177257600080fd5b61177b86611462565b945061178960208701611462565b935061179760408701611462565b92506117a560608701611462565b91506117b360808701611462565b90509295509295909350565b600080600080604085870312156117d557600080fd5b84356001600160401b038111156117eb57600080fd5b6117f787828801611417565b90955093505060208501356001600160401b0381111561181657600080fd5b61182287828801611417565b95989497509550505050565b634e487b7160e01b600052603260045260246000fd5b60e0808252885190820181905260009060208a0190610100840190835b818110156118885783516001600160a01b0316835260209384019390920191600101611861565b50506001600160a01b038a16602085015291506118a29050565b6001600160a01b03968716604083015294861660608201529285166080840152931660a082015291151560c09092019190915292915050565b600080604083850312156118ee57600080fd5b505080516020909101519092909150565b60005b8381101561191a578181015183820152602001611902565b50506000910152565b76020b1b1b2b9b9a1b7b73a3937b61d1030b1b1b7bab73a1604d1b8152600083516119558160178501602088016118ff565b7001034b99036b4b9b9b4b733903937b6329607d1b60179184019182015283516119868160288401602088016118ff565b01602801949350505050565b60208152600082518060208401526119b18160408501602087016118ff565b601f01601f19169190910160400192915050565b634e487b7160e01b600052601160045260246000fd5b808202811582820484141761041c5761041c6119c5565b8082018082111561041c5761041c6119c5565b600081611a1457611a146119c5565b50600019019056fe60c060405234801561001057600080fd5b50604051612ee0380380612ee083398101604081905261002f9161034b565b600160005561003d336102b7565b6001805460ff60a01b191690556001600160a01b03861661008d5760405162461bcd60e51b8152602060048201526005602482015264041646472360dc1b60448201526064015b60405180910390fd5b6001600160a01b0385166100cb5760405162461bcd60e51b8152602060048201526005602482015264041646472360dc1b6044820152606401610084565b6001600160a01b0384166101095760405162461bcd60e51b8152602060048201526005602482015264041646472360dc1b6044820152606401610084565b6001600160a01b0382166101475760405162461bcd60e51b8152602060048201526005602482015264041646472360dc1b6044820152606401610084565b60005b87518110156102355760006001600160a01b03168882815181106101705761017061047f565b60200260200101516001600160a01b03161461022d576001600b60008a848151811061019e5761019e61047f565b60200260200101516001600160a01b03166001600160a01b0316815260200190815260200160002060006101000a81548160ff02191690831515021790555060068882815181106101f1576101f161047f565b60209081029190910181015182546001810184556000938452919092200180546001600160a01b0319166001600160a01b039092169190911790555b60010161014a565b8115156080526001600160a01b0387811660a052600380546001600160a01b0319908116898416179091556005805482168884161790556004805490911685831617905584161561029c57600f80546001600160a01b0319166001600160a01b0386161790555b50506001805460ff60a81b1916905550610495945050505050565b600180546001600160a01b038381166001600160a01b0319831681179093556040519116919082907f8be0079c531659141344cd1fd0a4f28419497f9722a3daafe3b4186f6b6457e090600090a35050565b634e487b7160e01b600052604160045260246000fd5b80516001600160a01b038116811461033657600080fd5b919050565b8051801515811461033657600080fd5b600080600080600080600060e0888a03121561036657600080fd5b87516001600160401b0381111561037c57600080fd5b8801601f81018a1361038d57600080fd5b80516001600160401b038111156103a6576103a6610309565b604051600582901b90603f8201601f191681016001600160401b03811182821017156103d4576103d4610309565b60405291825260208184018101929081018d8411156103f257600080fd5b6020850194505b838510156104185761040a8561031f565b8152602094850194016103f9565b50995061042b925050506020890161031f565b95506104396040890161031f565b94506104476060890161031f565b93506104556080890161031f565b925061046360a0890161031f565b915061047160c0890161033b565b905092959891949750929550565b634e487b7160e01b600052603260045260246000fd5b60805160a051612a036104dd6000396000818161042701528181610dfc0152818161102d015281816110bf015281816119aa0152611e9b01526000610f5a0152612a036000f3fe608060405234801561001057600080fd5b50600436106102745760003560e01c8063853828b611610151578063c6c8f6b6116100c3578063d379be2311610087578063d379be2314610573578063da09d19d14610586578063db2e21bc146105af578063de5f6268146105b7578063f1229777146105bf578063f2fde38b146105d257600080fd5b8063c6c8f6b614610514578063caa6fea414610527578063cdfb58321461053b578063d00960101461054e578063d294f0931461055657600080fd5b8063b5fd73f811610115578063b5fd73f81461049d578063b66503cf146104c0578063b6b55f25146104d3578063b6f7097f146104e6578063bf199e62146104f9578063c00007b01461050157600080fd5b8063853828b6146104495780638da5cb5b146104515780639e88ec1014610462578063a591f97f14610482578063b1534ecd1461049557600080fd5b8063478222c2116101ea578063715018a6116101ae578063715018a6146103ce57806376a0adf2146103d65780637bb7bed1146103e95780637c91e4eb146103fc5780637f6990151461040f57806382bfefc81461042257600080fd5b8063478222c2146103525780635c975abb146103725780636bbcf6d81461038a5780636e9852f21461039d57806370a08231146103a557600080fd5b80631c3317c71161023c5780631c3317c7146102d5578063211dc32d146102e8578063221ca18c146102fb5780632e1a7d4d146103245780633d18b912146103375780633d509c971461033f57600080fd5b806302329a2914610279578063055de2751461028e57806318160ddd146102a15780631be05289146102b85780631c03e6cc146102c2575b600080fd5b61028c61028736600461257d565b6105e5565b005b61028c61029c3660046125af565b610605565b6002545b6040519081526020015b60405180910390f35b6102a562093a8081565b61028c6102d03660046125af565b610655565b61028c6102e33660046125cc565b610751565b6102a56102f63660046125f8565b6107b4565b6102a56103093660046125af565b6001600160a01b031660009081526008602052604090205490565b61028c610332366004612631565b6107c9565b61028c6107da565b61028c61034d3660046125af565b6107ff565b600554610365906001600160a01b031681565b6040516102af919061264a565b61037a6108d5565b60405190151581526020016102af565b61028c6103983660046125af565b6108e5565b61028c61095d565b6102a56103b33660046125af565b6001600160a01b03166000908152600e602052604090205490565b61028c610987565b6102a56103e43660046125af565b610999565b6103656103f7366004612631565b6109c0565b600354610365906001600160a01b031681565b61028c61041d3660046125af565b6109ea565b6103657f000000000000000000000000000000000000000000000000000000000000000081565b61028c610a62565b6001546001600160a01b0316610365565b6104756104703660046125af565b610a83565b6040516102af919061265e565b61028c6104903660046125af565b610b3f565b61028c610bb7565b61037a6104ab3660046125af565b600b6020526000908152604090205460ff1681565b61028c6104ce3660046125cc565b610c11565b61028c6104e1366004612631565b610c66565b600f54610365906001600160a01b031681565b6006546102a5565b61028c61050f3660046125af565b610c78565b61028c610522366004612631565b610d4d565b60015461037a90600160a81b900460ff1681565b61028c6105493660046125af565b610e62565b61028c610eda565b61055e610f36565b604080519283526020830191909152016102af565b600454610365906001600160a01b031681565b6102a56105943660046125af565b6001600160a01b031660009081526007602052604090205490565b61028c610fa5565b61028c61109c565b6102a56105cd3660046125af565b61113b565b61028c6105e03660046125af565b611146565b6105ed6111bc565b806105fd576105fa611216565b50565b6105fa611265565b61060d6112a8565b610615611301565b6004546001600160a01b03163314801561063957506004546001600160a01b031615155b61064257600080fd5b61064b81611349565b6105fa6001600055565b61065d6111bc565b6001600160a01b0381166000908152600b602052604090205460ff161561069f5760405162461bcd60e51b8152600401610696906126a1565b60405180910390fd5b6001600160a01b0381166106c55760405162461bcd60e51b8152600401610696906126c9565b6001600160a01b0381166000818152600b6020526040808220805460ff1916600190811790915560068054918201815583527ff652222313e28459528d920b65115c16c04f3efc82aaedc97be59f3f377c0d3f0180546001600160a01b03191684179055517f851bbb4304bf0768ed98b97e429b5bd1dcc1f194b36cd1650f40293e951ae3939190a250565b6107596112a8565b600154600160a81b900460ff161561077057600080fd5b6003546001600160a01b0316331461079a5760405162461bcd60e51b8152600401610696906126e8565b6107a682826001611443565b6107b06001600055565b5050565b60006107c083836116c6565b90505b92915050565b6107d1611301565b6105fa81611775565b6107e26112a8565b6107ea611301565b6107f333611349565b6107fd6001600055565b565b6108076111bc565b6001600160a01b0381166000908152600b602052604090205460ff16156108405760405162461bcd60e51b8152600401610696906126a1565b60065460005b818110156108d057826001600160a01b03166006828154811061086b5761086b612709565b6000918252602090912001546001600160a01b0316036108c85761088f83826117e9565b6040516001600160a01b038416907f36bd04094fa067bb9471a8fbdb0a6e8a43424a2566ad3a740c88973fa40a311890600090a2505050565b600101610846565b505050565b600154600160a01b900460ff1690565b6108ed6111bc565b6001600160a01b0381166109135760405162461bcd60e51b8152600401610696906126c9565b600f80546001600160a01b0319166001600160a01b0383169081179091556040517f71119a4a2850109bdeaff1aedbd330e4bc80607f423b1562fddbdc7ff4628b6490600090a250565b610965611301565b336000908152600e602052604090205461097e90611775565b6107fd33611349565b61098f6111bc565b6107fd60006118bc565b6001600160a01b0381166000908152600860205260408120546107c39062093a8090612735565b600681815481106109d057600080fd5b6000918252602090912001546001600160a01b0316905081565b6109f26111bc565b6001600160a01b038116610a185760405162461bcd60e51b8152600401610696906126c9565b600380546001600160a01b0319166001600160a01b0383169081179091556040517ff085c57737528946971c505b4c9d6f7ca7ab5925b0cee78d8cb75797f36f362890600090a250565b610a6a611301565b336000908152600e60205260409020546107fd90611775565b600654606090600090818167ffffffffffffffff811115610aa657610aa661274c565b604051908082528060200260200182016040528015610acf578160200160208202803683370190505b5093505b81831015610b375760068381548110610aee57610aee612709565b6000918252602090912001546001600160a01b03169050610b0f85826116c6565b848481518110610b2157610b21612709565b6020908102919091010152600190920191610ad3565b505050919050565b610b476111bc565b6001600160a01b038116610b6d5760405162461bcd60e51b8152600401610696906126c9565b600580546001600160a01b0319166001600160a01b0383169081179091556040517fe68507d3387f586d218f2d30c6bd698977c73cfe98ae490919957b344476f19790600090a250565b610bbf6111bc565b60018054600160a81b900460ff16151514610bd957600080fd5b6001805460ff60a81b191690556040517f2b8c5008aae34863b256c67a6c2757d0ac8f800e6b4f3bb98bddf13e47b028ef90600090a1565b610c196112a8565b600154600160a81b900460ff1615610c3057600080fd5b6003546001600160a01b03163314610c5a5760405162461bcd60e51b8152600401610696906126e8565b6107a682826000611443565b610c6e611301565b6105fa813361190e565b610c806112a8565b610c88611301565b33610c938183611a1f565b6001600160a01b038082166000908152600d60209081526040808320938616835292905220548015610d41576001600160a01b038083166000908152600d6020908152604080832093871680845293909152812055610cf3908383611ac1565b826001600160a01b0316826001600160a01b03167fa0306f61d3fafe13787b78e276cb6b644382854a66cb46daae14227d3ec2679783604051610d3891815260200190565b60405180910390a35b50506105fa6001600055565b610d556112a8565b600154600160a81b900460ff16610d6b57600080fd5b336000908152600e6020526040902054811115610db35760405162461bcd60e51b81526020600482015260066024820152651b9bc818985b60d21b6044820152606401610696565b8060026000828254610dc59190612762565b9091555050336000908152600e602052604081208054839290610de9908490612762565b90915550610e2390506001600160a01b037f0000000000000000000000000000000000000000000000000000000000000000163383611ac1565b60405181815233907f884edad9ce6fa2440d8a54cc123490eb96d2768479d49ff9c7366125a94243649060200160405180910390a26105fa6001600055565b610e6a6111bc565b6001600160a01b038116610e905760405162461bcd60e51b8152600401610696906126c9565b600480546001600160a01b0319166001600160a01b0383169081179091556040517fdfe91dcad2adcb1ecd18d2e830b469081211d6743c1e2dfa893836431fb7879490600090a250565b610ee26111bc565b600154600160a81b900460ff1615610ef957600080fd5b6001805460ff60a81b1916600160a81b1790556040517e2027e346bbcb4e71801ce26885a270290fb7d1d463cb49adf82dba74bd151d90600090a1565b600080610f416112a8565b6001546001600160a01b03163314610f5857600080fd5b7f000000000000000000000000000000000000000000000000000000000000000015610f8f57610f86611b17565b91509150610f97565b610f86611e81565b610fa16001600055565b9091565b610fad6112a8565b600154600160a81b900460ff16610fc357600080fd5b336000908152600e6020526040902054610fef5760405162461bcd60e51b815260040161069690612775565b336000908152600e60205260408120546002805491928392611012908490612762565b9091555050336000818152600e602052604081205561105c907f00000000000000000000000000000000000000000000000000000000000000006001600160a01b03169083611ac1565b60405181815233907f884edad9ce6fa2440d8a54cc123490eb96d2768479d49ff9c7366125a94243649060200160405180910390a2506107fd6001600055565b6110a4611301565b6040516370a0823160e01b81526107fd906001600160a01b037f000000000000000000000000000000000000000000000000000000000000000016906370a08231906110f490339060040161264a565b602060405180830381865afa158015611111573d6000803e3d6000fd5b505050506040513d601f19601f820116820180604052508101906111359190612793565b3361190e565b60006107c382612133565b61114e6111bc565b6001600160a01b0381166111b35760405162461bcd60e51b815260206004820152602660248201527f4f776e61626c653a206e6577206f776e657220697320746865207a65726f206160448201526564647265737360d01b6064820152608401610696565b6105fa816118bc565b6001546001600160a01b031633146107fd5760405162461bcd60e51b815260206004820181905260248201527f4f776e61626c653a2063616c6c6572206973206e6f7420746865206f776e65726044820152606401610696565b61121e6121cd565b6001805460ff60a01b191690557f5db9ee0a495bf2e6ff9c91a7834c1ba4fdd244a5e8aa4e537bd38aeae4b073aa335b60405161125b919061264a565b60405180910390a1565b61126d611301565b6001805460ff60a01b1916600160a01b1790557f62e78cea01bee320cd4e420270b5ea74000d11b0c9f74754ebdbfc544b05a25861124e3390565b6002600054036112fa5760405162461bcd60e51b815260206004820152601f60248201527f5265656e7472616e637947756172643a207265656e7472616e742063616c6c006044820152606401610696565b6002600055565b6113096108d5565b156107fd5760405162461bcd60e51b815260206004820152601060248201526f14185d5cd8589b194e881c185d5cd95960821b6044820152606401610696565b61135281612218565b600654600090815b8183101561143d576006838154811061137557611375612709565b60009182526020808320909101546001600160a01b038781168452600d83526040808520919092168085529252909120549091508015611431576001600160a01b038086166000908152600d60209081526040808320938616808452939091528120556113e3908683611ac1565b816001600160a01b0316856001600160a01b03167fa0306f61d3fafe13787b78e276cb6b644382854a66cb46daae14227d3ec267978360405161142891815260200190565b60405180910390a35b5060019092019161135a565b50505050565b61144e600084611a1f565b6001600160a01b0383166000908152600b602052604090205460ff1661149f5760405162461bcd60e51b815260206004820152600660248201526510ba37b5b2b760d11b6044820152606401610696565b6001600160a01b0383166000908152600760205260409020544281116114ea576114cc62093a80846127ac565b6001600160a01b03851660009081526008602052604090205561154f565b6001600160a01b038416600090815260086020526040812054908161150f4285612762565b6115199190612735565b905062093a8061152982876127ce565b61153391906127ac565b6001600160a01b03871660009081526008602052604090205550505b6001600160a01b0384166000908152600960205260409020429081905561157a9062093a80906127ce565b6001600160a01b03851660009081526007602052604090205581156115ae576115ae6001600160a01b038516333086612267565b6040516370a0823160e01b81526000906001600160a01b038616906370a08231906115dd90309060040161264a565b602060405180830381865afa1580156115fa573d6000803e3d6000fd5b505050506040513d601f19601f8201168201806040525081019061161e9190612793565b905061162d62093a80826127ac565b6001600160a01b038616600090815260086020526040902054111561167c5760405162461bcd60e51b8152602060048201526005602482015264217261746560d81b6044820152606401610696565b846001600160a01b03167fac24935fd910bc682b5ccb1a07b718cadf8cf2f6d1404c4f3ddc3662dae40e29856040516116b791815260200190565b60405180910390a25050505050565b6001600160a01b038083166000908152600c602090815260408083209385168352929052908120548190670de0b6b3a76400009061170385612133565b61170d9190612762565b6001600160a01b0386166000908152600e60205260409020546117309190612735565b61173a91906127ac565b6001600160a01b038086166000908152600d602090815260408083209388168352929052205490915061176d90826127ce565b949350505050565b61177d6112a8565b600154600160a81b900460ff161561179457600080fd5b600081116117b45760405162461bcd60e51b8152600401610696906127e1565b336000908152600e60205260409020546117e05760405162461bcd60e51b815260040161069690612775565b610db333612218565b600680546117f990600190612762565b8154811061180957611809612709565b600091825260209091200154600680546001600160a01b03909216918390811061183557611835612709565b9060005260206000200160006101000a8154816001600160a01b0302191690836001600160a01b03160217905550600680548061187457611874612800565b60008281526020808220830160001990810180546001600160a01b03191690559092019092556001600160a01b03939093168152600b9092525060409020805460ff19169055565b600180546001600160a01b038381166001600160a01b0319831681179093556040519116919082907f8be0079c531659141344cd1fd0a4f28419497f9722a3daafe3b4186f6b6457e090600090a35050565b6119166112a8565b600154600160a81b900460ff161561192d57600080fd5b6000821161194d5760405162461bcd60e51b8152600401610696906127e1565b61195681612218565b6001600160a01b0381166000908152600e60205260408120805484929061197e9084906127ce565b92505081905550816002600082825461199791906127ce565b909155506119d290506001600160a01b037f000000000000000000000000000000000000000000000000000000000000000016823085612267565b806001600160a01b03167fe1fffcc4923d04b559f4d29a8bfc6cda04eb5b0d3c460751c2402c5c5cc9109c83604051611a0d91815260200190565b60405180910390a26107b06001600055565b6000611a2a82612133565b6001600160a01b0383166000908152600a602052604090208190559050611a508261229f565b6001600160a01b038084166000908152600960205260409020919091558316156108d057611a7e83836116c6565b6001600160a01b039384166000818152600d602090815260408083209690971680835295815286822093909355908152600c825284812093815292905291902055565b6108d08363a9059cbb60e01b8484604051602401611ae0929190612816565b60408051601f198184030181529190526020810180516001600160e01b03166001600160e01b0319909316929092179091526122c3565b600554604051637aaac16d60e11b815260009182916001600160a01b03909116908290829063f55582da90611b5090309060040161264a565b600060405180830381865afa158015611b6d573d6000803e3d6000fd5b505050506040513d6000823e601f3d908101601f19168201604052611b95919081019061282f565b60055460408051600481526024810182526020810180516001600160e01b031663d294f09360e01b17905290519293506000926001600160a01b0390921691611bde9190612920565b6000604051808303816000865af19150503d8060008114611c1b576040519150601f19603f3d011682016040523d82523d6000602084013e611c20565b606091505b5050905080611c6b5760405162461bcd60e51b815260206004820152601760248201527618db185a5b5199595cca0a4818d85b1b0819985a5b1959604a1b6044820152606401610696565b6000836001600160a01b0316637e1c0c096040518163ffffffff1660e01b8152600401602060405180830381865afa158015611cab573d6000803e3d6000fd5b505050506040513d601f19601f82011682018060405250810190611ccf9190612793565b905060005b81811015611e72576040516327b2595f60e11b8152600481018290526000906001600160a01b03871690634f64b2be90602401602060405180830381865afa158015611d24573d6000803e3d6000fd5b505050506040513d601f19601f82011682018060405250810190611d48919061293c565b90506000858381518110611d5e57611d5e612709565b60200260200101519050600081118015611de457506040516370a0823160e01b81526001600160a01b038316906370a0823190611d9f90309060040161264a565b602060405180830381865afa158015611dbc573d6000803e3d6000fd5b505050506040513d601f19601f82011682018060405250810190611de09190612793565b8111155b15611e6857600f54611e03906001600160a01b03848116911683612398565b600f5460405163b66503cf60e01b81526001600160a01b039091169063b66503cf90611e359085908590600401612816565b600060405180830381600087803b158015611e4f57600080fd5b505af1158015611e63573d6000803e3d6000fd5b505050505b5050600101611cd4565b50600096879650945050505050565b6005546040805163d294f09360e01b8152815160009384937f0000000000000000000000000000000000000000000000000000000000000000936001600160a01b039092169263d294f093926004808201939291829003018188875af1158015611eef573d6000803e3d6000fd5b505050506040513d601f19601f82011682018060405250810190611f139190612959565b80935081945050506000816001600160a01b0316630dfe16816040518163ffffffff1660e01b8152600401602060405180830381865afa158015611f5b573d6000803e3d6000fd5b505050506040513d601f19601f82011682018060405250810190611f7f919061293c565b90506000826001600160a01b031663d21220a76040518163ffffffff1660e01b8152600401602060405180830381865afa158015611fc1573d6000803e3d6000fd5b505050506040513d601f19601f82011682018060405250810190611fe5919061293c565b9050841561206c57600f54612007906001600160a01b03848116911687612398565b600f5460405163b66503cf60e01b81526001600160a01b039091169063b66503cf906120399085908990600401612816565b600060405180830381600087803b15801561205357600080fd5b505af1158015612067573d6000803e3d6000fd5b505050505b83156120f157600f5461208c906001600160a01b03838116911686612398565b600f5460405163b66503cf60e01b81526001600160a01b039091169063b66503cf906120be9084908890600401612816565b600060405180830381600087803b1580156120d857600080fd5b505af11580156120ec573d6000803e3d6000fd5b505050505b604080518681526020810186905233917fbc567d6cbad26368064baa0ab5a757be46aae4d70f707f9203d9d9b6c8ccbfa3910160405180910390a25050509091565b6001600160a01b0381166000908152600a6020526040812054600254820361215b5792915050565b6002546001600160a01b03841660009081526008602090815260408083205460099092529091205461218c8661229f565b6121969190612762565b6121a09190612735565b6121b290670de0b6b3a7640000612735565b6121bc91906127ac565b6121c690826127ce565b9392505050565b6121d56108d5565b6107fd5760405162461bcd60e51b815260206004820152601460248201527314185d5cd8589b194e881b9bdd081c185d5cd95960621b6044820152606401610696565b600654600090815b8183101561143d576006838154811061223b5761223b612709565b6000918252602090912001546001600160a01b0316905061225c8482611a1f565b600190920191612220565b6040516001600160a01b038085166024830152831660448201526064810182905261143d9085906323b872dd60e01b90608401611ae0565b6001600160a01b0381166000908152600760205260408120546107c3904290612436565b6000612318826040518060400160405280602081526020017f5361666545524332303a206c6f772d6c6576656c2063616c6c206661696c6564815250856001600160a01b031661244c9092919063ffffffff16565b9050805160001480612339575080806020019051810190612339919061297d565b6108d05760405162461bcd60e51b815260206004820152602a60248201527f5361666545524332303a204552433230206f7065726174696f6e20646964206e6044820152691bdd081cdd58d8d9595960b21b6064820152608401610696565b604051636eb1769f60e11b81523060048201526001600160a01b0383811660248301526000919085169063dd62ed3e90604401602060405180830381865afa1580156123e8573d6000803e3d6000fd5b505050506040513d601f19601f8201168201806040525081019061240c9190612793565b905061143d8463095ea7b360e01b8561242586866127ce565b604051602401611ae0929190612816565b600081831061244557816107c0565b5090919050565b606061176d848460008585600080866001600160a01b031685876040516124739190612920565b60006040518083038185875af1925050503d80600081146124b0576040519150601f19603f3d011682016040523d82523d6000602084013e6124b5565b606091505b50915091506124c6878383876124d1565b979650505050505050565b60608315612540578251600003612539576001600160a01b0385163b6125395760405162461bcd60e51b815260206004820152601d60248201527f416464726573733a2063616c6c20746f206e6f6e2d636f6e74726163740000006044820152606401610696565b508161176d565b61176d83838151156125555781518083602001fd5b8060405162461bcd60e51b8152600401610696919061299a565b80151581146105fa57600080fd5b60006020828403121561258f57600080fd5b81356121c68161256f565b6001600160a01b03811681146105fa57600080fd5b6000602082840312156125c157600080fd5b81356121c68161259a565b600080604083850312156125df57600080fd5b82356125ea8161259a565b946020939093013593505050565b6000806040838503121561260b57600080fd5b82356126168161259a565b915060208301356126268161259a565b809150509250929050565b60006020828403121561264357600080fd5b5035919050565b6001600160a01b0391909116815260200190565b602080825282518282018190526000918401906040840190835b81811015612696578351835260209384019390920191600101612678565b509095945050505050565b6020808252600e908201526d10b4b9a932bbb0b9322a37b5b2b760911b604082015260600190565b602080825260059082015264041646472360dc1b604082015260600190565b6020808252600790820152662164697374726f60c81b604082015260600190565b634e487b7160e01b600052603260045260246000fd5b634e487b7160e01b600052601160045260246000fd5b80820281158282048414176107c3576107c361271f565b634e487b7160e01b600052604160045260246000fd5b818103818111156107c3576107c361271f565b602080825260049082015263062616c360e41b604082015260600190565b6000602082840312156127a557600080fd5b5051919050565b6000826127c957634e487b7160e01b600052601260045260246000fd5b500490565b808201808211156107c3576107c361271f565b6020808252600590820152640616d6e74360dc1b604082015260600190565b634e487b7160e01b600052603160045260246000fd5b6001600160a01b03929092168252602082015260400190565b60006020828403121561284157600080fd5b815167ffffffffffffffff81111561285857600080fd5b8201601f8101841361286957600080fd5b805167ffffffffffffffff8111156128835761288361274c565b8060051b604051601f19603f830116810181811067ffffffffffffffff821117156128b0576128b061274c565b6040529182526020818401810192908101878411156128ce57600080fd5b6020850194505b838510156128f1578451808252602095860195909350016128d5565b509695505050505050565b60005b838110156129175781810151838201526020016128ff565b50506000910152565b600082516129328184602087016128fc565b9190910192915050565b60006020828403121561294e57600080fd5b81516121c68161259a565b6000806040838503121561296c57600080fd5b505080516020909101519092909150565b60006020828403121561298f57600080fd5b81516121c68161256f565b60208152600082518060208401526129b98160408501602087016128fc565b601f01601f1916919091016040019291505056fea26469706673582212201d2fe529174f5b7afff5f882dddae9b6ebba481a7ca23da989eb2d8e13e9287564736f6c634300081c003360a060405234801561001057600080fd5b5060405161105538038061105583398101604081905261002f91610119565b600160005561003d336100ab565b600280546001600160a01b038087166001600160a01b031992831617909255600380548684169083161790556004805484841692169190911790558581166080528216156100a157600580546001600160a01b0319166001600160a01b0384161790555b505050505061017e565b600180546001600160a01b038381166001600160a01b0319831681179093556040519116919082907f8be0079c531659141344cd1fd0a4f28419497f9722a3daafe3b4186f6b6457e090600090a35050565b80516001600160a01b038116811461011457600080fd5b919050565b600080600080600060a0868803121561013157600080fd5b61013a866100fd565b9450610148602087016100fd565b9350610156604087016100fd565b9250610164606087016100fd565b9150610172608087016100fd565b90509295509295909350565b608051610ea76101ae60003960008181610153015281816104b2015281816107b6015261083c0152610ea76000f3fe608060405234801561001057600080fd5b50600436106100ca5760003560e01c80638da5cb5b1161007c5780638da5cb5b14610175578063a591f97f14610186578063b66503cf14610199578063b6f7097f146101ac578063d294f093146101bf578063f2fde38b146101dc578063f9d5111c146101ef57600080fd5b8063478222c2146100cf5780636bbcf6d8146100f8578063715018a61461010d578063779fa0c4146101155780637c91e4eb146101285780637f6990151461013b57806382bfefc81461014e575b600080fd5b6003546100e2906001600160a01b031681565b6040516100ef9190610caa565b60405180910390f35b61010b610106366004610cd3565b610202565b005b61010b6102f1565b61010b610123366004610cd3565b610305565b6002546100e2906001600160a01b031681565b61010b610149366004610cd3565b610355565b6100e27f000000000000000000000000000000000000000000000000000000000000000081565b6001546001600160a01b03166100e2565b61010b610194366004610cd3565b6103a5565b61010b6101a7366004610cf7565b61041e565b6005546100e2906001600160a01b031681565b6101c761051a565b604080519283526020830191909152016100ef565b61010b6101ea366004610cd3565b610556565b6004546100e2906001600160a01b031681565b61020a6105cf565b6001600160a01b0381166102515760405162461bcd60e51b81526020600482015260096024820152683d32b9379030b2323960b91b60448201526064015b60405180910390fd5b6005546001600160a01b039081169082160361029b5760405162461bcd60e51b815260206004820152600960248201526839b0b6b29030b2323960b91b6044820152606401610248565b600580546001600160a01b0319166001600160a01b0383161790556040517f71119a4a2850109bdeaff1aedbd330e4bc80607f423b1562fddbdc7ff4628b64906102e6908390610caa565b60405180910390a150565b6102f96105cf565b6103036000610629565b565b61030d6105cf565b6001600160a01b0381166103335760405162461bcd60e51b815260040161024890610d23565b600480546001600160a01b0319166001600160a01b0392909216919091179055565b61035d6105cf565b6001600160a01b0381166103835760405162461bcd60e51b815260040161024890610d23565b600280546001600160a01b0319166001600160a01b0392909216919091179055565b6103ad6105cf565b6001600160a01b0381166103d35760405162461bcd60e51b815260040161024890610d23565b600380546001600160a01b0319166001600160a01b0383161790556040517fe68507d3387f586d218f2d30c6bd698977c73cfe98ae490919957b344476f197906102e6908390610caa565b61042661067b565b6002546001600160a01b0316331461046f5760405162461bcd60e51b815260206004820152600c60248201526b10b234b9ba3934b13aba37b960a11b6044820152606401610248565b600454610489906001600160a01b038481169116836106d4565b60048054604051630cfecd0760e31b81526001600160a01b03909116916367f66838916104da917f000000000000000000000000000000000000000000000000000000000000000091869101610d42565b600060405180830381600087803b1580156104f457600080fd5b505af1158015610508573d6000803e3d6000fd5b505050506105166001600055565b5050565b60008061052561067b565b6001546001600160a01b0316331461053c57600080fd5b6105446107af565b915091506105526001600055565b9091565b61055e6105cf565b6001600160a01b0381166105c35760405162461bcd60e51b815260206004820152602660248201527f4f776e61626c653a206e6577206f776e657220697320746865207a65726f206160448201526564647265737360d01b6064820152608401610248565b6105cc81610629565b50565b6001546001600160a01b031633146103035760405162461bcd60e51b815260206004820181905260248201527f4f776e61626c653a2063616c6c6572206973206e6f7420746865206f776e65726044820152606401610248565b600180546001600160a01b038381166001600160a01b0319831681179093556040519116919082907f8be0079c531659141344cd1fd0a4f28419497f9722a3daafe3b4186f6b6457e090600090a35050565b6002600054036106cd5760405162461bcd60e51b815260206004820152601f60248201527f5265656e7472616e637947756172643a207265656e7472616e742063616c6c006044820152606401610248565b6002600055565b604051636eb1769f60e11b81523060048201526001600160a01b0383811660248301526000919085169063dd62ed3e90604401602060405180830381865afa158015610724573d6000803e3d6000fd5b505050506040513d601f19601f820116820180604052508101906107489190610d5b565b90506107a98463095ea7b360e01b856107618686610d74565b604051602401610772929190610d42565b60408051601f198184030181529190526020810180516001600160e01b03166001600160e01b031990931692909217909152610a40565b50505050565b60008060007f00000000000000000000000000000000000000000000000000000000000000006001600160a01b0316630dfe16816040518163ffffffff1660e01b8152600401602060405180830381865afa158015610812573d6000803e3d6000fd5b505050506040513d601f19601f820116820180604052508101906108369190610d9b565b905060007f00000000000000000000000000000000000000000000000000000000000000006001600160a01b031663d21220a76040518163ffffffff1660e01b8152600401602060405180830381865afa158015610898573d6000803e3d6000fd5b505050506040513d601f19601f820116820180604052508101906108bc9190610d9b565b6003546040805163d294f09360e01b815281519394506001600160a01b039092169263d294f09392600480820193929182900301816000875af1158015610907573d6000803e3d6000fd5b505050506040513d601f19601f8201168201806040525081019061092b9190610db8565b909450925083156109b557600554610950906001600160a01b038481169116866106d4565b60055460405163b66503cf60e01b81526001600160a01b039091169063b66503cf906109829085908890600401610d42565b600060405180830381600087803b15801561099c57600080fd5b505af11580156109b0573d6000803e3d6000fd5b505050505b8215610a3a576005546109d5906001600160a01b038381169116856106d4565b60055460405163b66503cf60e01b81526001600160a01b039091169063b66503cf90610a079084908790600401610d42565b600060405180830381600087803b158015610a2157600080fd5b505af1158015610a35573d6000803e3d6000fd5b505050505b50509091565b6000610a95826040518060400160405280602081526020017f5361666545524332303a206c6f772d6c6576656c2063616c6c206661696c6564815250856001600160a01b0316610b1a9092919063ffffffff16565b9050805160001480610ab6575080806020019051810190610ab69190610ddc565b610b155760405162461bcd60e51b815260206004820152602a60248201527f5361666545524332303a204552433230206f7065726174696f6e20646964206e6044820152691bdd081cdd58d8d9595960b21b6064820152608401610248565b505050565b6060610b298484600085610b31565b949350505050565b606082471015610b925760405162461bcd60e51b815260206004820152602660248201527f416464726573733a20696e73756666696369656e742062616c616e636520666f6044820152651c8818d85b1b60d21b6064820152608401610248565b600080866001600160a01b03168587604051610bae9190610e22565b60006040518083038185875af1925050503d8060008114610beb576040519150601f19603f3d011682016040523d82523d6000602084013e610bf0565b606091505b5091509150610c0187838387610c0c565b979650505050505050565b60608315610c7b578251600003610c74576001600160a01b0385163b610c745760405162461bcd60e51b815260206004820152601d60248201527f416464726573733a2063616c6c20746f206e6f6e2d636f6e74726163740000006044820152606401610248565b5081610b29565b610b298383815115610c905781518083602001fd5b8060405162461bcd60e51b81526004016102489190610e3e565b6001600160a01b0391909116815260200190565b6001600160a01b03811681146105cc57600080fd5b600060208284031215610ce557600080fd5b8135610cf081610cbe565b9392505050565b60008060408385031215610d0a57600080fd5b8235610d1581610cbe565b946020939093013593505050565b602080825260059082015264041646472360dc1b604082015260600190565b6001600160a01b03929092168252602082015260400190565b600060208284031215610d6d57600080fd5b5051919050565b80820180821115610d9557634e487b7160e01b600052601160045260246000fd5b92915050565b600060208284031215610dad57600080fd5b8151610cf081610cbe565b60008060408385031215610dcb57600080fd5b505080516020909101519092909150565b600060208284031215610dee57600080fd5b81518015158114610cf057600080fd5b60005b83811015610e19578181015183820152602001610e01565b50506000910152565b60008251610e34818460208701610dfe565b9190910192915050565b6020815260008251806020840152610e5d816040850160208701610dfe565b601f01601f1916919091016040019291505056fea2646970667358221220d7854c6c6c1e0912704552554e04bf8890fd879f539139481b9ad062ad47eca964736f6c634300081c003324768a6ab335e2a1830f89d00694f4c8c79419c278b5acd7dc0b93166bf651b12ad5dda4abad2eba9015076cc6a1db468a91b444067d58b590c8c73985521a04a2646970667358221220ba106d300f70674d8562c242f9b71ad4f1c7711f52eb4d6ba44f54345003c7e364736f6c634300081c003324768a6ab335e2a1830f89d00694f4c8c79419c278b5acd7dc0b93166bf651b12ad5dda4abad2eba9015076cc6a1db468a91b444067d58b590c8c73985521a04",
  "linkReferences": {},
  "deployedLinkReferences": {}
}