{
  "_format": "hh-sol-artifact-1",
  "contractName": "MinterUpgradeable",
  "sourceName": "contracts/MinterUpgradeable.sol",
  "abi": [
    {
      "inputs": [],
      "stateMutability": "nonpayable",
      "type": "constructor"
    },
    {
      "anonymous": false,
      "inputs": [
        {
          "indexed": false,
          "internalType": "uint8",
          "name": "version",
          "type": "uint8"
        }
      ],
      "name": "Initialized",
      "type": "event"
    },
    {
      "anonymous": false,
      "inputs": [
        {
          "indexed": true,
          "internalType": "address",
          "name": "sender",
          "type": "address"
        },
        {
          "indexed": false,
          "internalType": "uint256",
          "name": "weekly",
          "type": "uint256"
        },
        {
          "indexed": false,
          "internalType": "uint256",
          "name": "circulating_supply",
          "type": "uint256"
        },
        {
          "indexed": false,
          "internalType": "uint256",
          "name": "circulating_emission",
          "type": "uint256"
        }
      ],
      "name": "Mint",
      "type": "event"
    },
    {
      "anonymous": false,
      "inputs": [
        {
          "indexed": true,
          "internalType": "address",
          "name": "previousOwner",
          "type": "address"
        },
        {
          "indexed": true,
          "internalType": "address",
          "name": "newOwner",
          "type": "address"
        }
      ],
      "name": "OwnershipTransferred",
      "type": "event"
    },
    {
      "inputs": [],
      "name": "EMISSION",
      "outputs": [
        {
          "internalType": "uint256",
          "name": "",
          "type": "uint256"
        }
      ],
      "stateMutability": "view",
      "type": "function"
    },
    {
      "inputs": [],
      "name": "LOCK",
      "outputs": [
        {
          "internalType": "uint256",
          "name": "",
          "type": "uint256"
        }
      ],
      "stateMutability": "view",
      "type": "function"
    },
    {
      "inputs": [],
      "name": "MAX_TEAM_RATE",
      "outputs": [
        {
          "internalType": "uint256",
          "name": "",
          "type": "uint256"
        }
      ],
      "stateMutability": "view",
      "type": "function"
    },
    {
      "inputs": [],
      "name": "PRECISION",
      "outputs": [
        {
          "internalType": "uint256",
          "name": "",
          "type": "uint256"
        }
      ],
      "stateMutability": "view",
      "type": "function"
    },
    {
      "inputs": [],
      "name": "REBASEMAX",
      "outputs": [
        {
          "internalType": "uint256",
          "name": "",
          "type": "uint256"
        }
      ],
      "stateMutability": "view",
      "type": "function"
    },
    {
      "inputs": [],
      "name": "TAIL_EMISSION",
      "outputs": [
        {
          "internalType": "uint256",
          "name": "",
          "type": "uint256"
        }
      ],
      "stateMutability": "view",
      "type": "function"
    },
    {
      "inputs": [],
      "name": "WEEK",
      "outputs": [
        {
          "internalType": "uint256",
          "name": "",
          "type": "uint256"
        }
      ],
      "stateMutability": "view",
      "type": "function"
    },
    {
      "inputs": [],
      "name": "_emissionToken",
      "outputs": [
        {
          "internalType": "contract IEmissionToken",
          "name": "",
          "type": "address"
        }
      ],
      "stateMutability": "view",
      "type": "function"
    },
    {
      "inputs": [],
      "name": "_epochDistributor",
      "outputs": [
        {
          "internalType": "contract IEpochDistributor",
          "name": "",
          "type": "address"
        }
      ],
      "stateMutability": "view",
      "type": "function"
    },
    {
      "inputs": [
        {
          "internalType": "address[]",
          "name": "claimants",
          "type": "address[]"
        },
        {
          "internalType": "uint256[]",
          "name": "amounts",
          "type": "uint256[]"
        },
        {
          "internalType": "uint256",
          "name": "max",
          "type": "uint256"
        }
      ],
      "name": "_initialize",
      "outputs": [],
      "stateMutability": "nonpayable",
      "type": "function"
    },
    {
      "inputs": [],
      "name": "_rewards_distributor",
      "outputs": [
        {
          "internalType": "contract IRewardsDistributor",
          "name": "",
          "type": "address"
        }
      ],
      "stateMutability": "view",
      "type": "function"
    },
    {
      "inputs": [],
      "name": "_ve",
      "outputs": [
        {
          "internalType": "contract IVotingEscrow",
          "name": "",
          "type": "address"
        }
      ],
      "stateMutability": "view",
      "type": "function"
    },
    {
      "inputs": [],
      "name": "acceptTeam",
      "outputs": [],
      "stateMutability": "nonpayable",
      "type": "function"
    },
    {
      "inputs": [],
      "name": "active_period",
      "outputs": [
        {
          "internalType": "uint256",
          "name": "",
          "type": "uint256"
        }
      ],
      "stateMutability": "view",
      "type": "function"
    },
    {
      "inputs": [],
      "name": "calculate_emission",
      "outputs": [
        {
          "internalType": "uint256",
          "name": "",
          "type": "uint256"
        }
      ],
      "stateMutability": "view",
      "type": "function"
    },
    {
      "inputs": [
        {
          "internalType": "uint256",
          "name": "_weeklyMint",
          "type": "uint256"
        }
      ],
      "name": "calculate_rebase",
      "outputs": [
        {
          "internalType": "uint256",
          "name": "",
          "type": "uint256"
        }
      ],
      "stateMutability": "view",
      "type": "function"
    },
    {
      "inputs": [],
      "name": "check",
      "outputs": [
        {
          "internalType": "bool",
          "name": "",
          "type": "bool"
        }
      ],
      "stateMutability": "view",
      "type": "function"
    },
    {
      "inputs": [],
      "name": "circulating_emission",
      "outputs": [
        {
          "internalType": "uint256",
          "name": "",
          "type": "uint256"
        }
      ],
      "stateMutability": "view",
      "type": "function"
    },
    {
      "inputs": [],
      "name": "circulating_supply",
      "outputs": [
        {
          "internalType": "uint256",
          "name": "",
          "type": "uint256"
        }
      ],
      "stateMutability": "view",
      "type": "function"
    },
    {
      "inputs": [
        {
          "internalType": "address",
          "name": "__epoch_distributor",
          "type": "address"
        },
        {
          "internalType": "address",
          "name": "__ve",
          "type": "address"
        },
        {
          "internalType": "address",
          "name": "__rewards_distributor",
          "type": "address"
        }
      ],
      "name": "initialize",
      "outputs": [],
      "stateMutability": "nonpayable",
      "type": "function"
    },
    {
      "inputs": [],
      "name": "isFirstMint",
      "outputs": [
        {
          "internalType": "bool",
          "name": "",
          "type": "bool"
        }
      ],
      "stateMutability": "view",
      "type": "function"
    },
    {
      "inputs": [],
      "name": "owner",
      "outputs": [
        {
          "internalType": "address",
          "name": "",
          "type": "address"
        }
      ],
      "stateMutability": "view",
      "type": "function"
    },
    {
      "inputs": [],
      "name": "pendingTeam",
      "outputs": [
        {
          "internalType": "address",
          "name": "",
          "type": "address"
        }
      ],
      "stateMutability": "view",
      "type": "function"
    },
    {
      "inputs": [],
      "name": "period",
      "outputs": [
        {
          "internalType": "uint256",
          "name": "",
          "type": "uint256"
        }
      ],
      "stateMutability": "view",
      "type": "function"
    },
    {
      "inputs": [],
      "name": "renounceOwnership",
      "outputs": [],
      "stateMutability": "nonpayable",
      "type": "function"
    },
    {
      "inputs": [
        {
          "internalType": "uint256",
          "name": "_emission",
          "type": "uint256"
        }
      ],
      "name": "setEmission",
      "outputs": [],
      "stateMutability": "nonpayable",
      "type": "function"
    },
    {
      "inputs": [
        {
          "internalType": "address",
          "name": "__epochDistributor",
          "type": "address"
        }
      ],
      "name": "setEpochDistributor",
      "outputs": [],
      "stateMutability": "nonpayable",
      "type": "function"
    },
    {
      "inputs": [
        {
          "internalType": "uint256",
          "name": "_rebase",
          "type": "uint256"
        }
      ],
      "name": "setRebase",
      "outputs": [],
      "stateMutability": "nonpayable",
      "type": "function"
    },
    {
      "inputs": [
        {
          "internalType": "address",
          "name": "_rewardDistro",
          "type": "address"
        }
      ],
      "name": "setRewardDistributor",
      "outputs": [],
      "stateMutability": "nonpayable",
      "type": "function"
    },
    {
      "inputs": [
        {
          "internalType": "address",
          "name": "_team",
          "type": "address"
        }
      ],
      "name": "setTeam",
      "outputs": [],
      "stateMutability": "nonpayable",
      "type": "function"
    },
    {
      "inputs": [
        {
          "internalType": "uint256",
          "name": "_teamRate",
          "type": "uint256"
        }
      ],
      "name": "setTeamRate",
      "outputs": [],
      "stateMutability": "nonpayable",
      "type": "function"
    },
    {
      "inputs": [],
      "name": "team",
      "outputs": [
        {
          "internalType": "address",
          "name": "",
          "type": "address"
        }
      ],
      "stateMutability": "view",
      "type": "function"
    },
    {
      "inputs": [],
      "name": "teamRate",
      "outputs": [
        {
          "internalType": "uint256",
          "name": "",
          "type": "uint256"
        }
      ],
      "stateMutability": "view",
      "type": "function"
    },
    {
      "inputs": [
        {
          "internalType": "address",
          "name": "newOwner",
          "type": "address"
        }
      ],
      "name": "transferOwnership",
      "outputs": [],
      "stateMutability": "nonpayable",
      "type": "function"
    },
    {
      "inputs": [],
      "name": "update_period",
      "outputs": [
        {
          "internalType": "uint256",
          "name": "",
          "type": "uint256"
        }
      ],
      "stateMutability": "nonpayable",
      "type": "function"
    },
    {
      "inputs": [],
      "name": "weekly",
      "outputs": [
        {
          "internalType": "uint256",
          "name": "",
          "type": "uint256"
        }
      ],
      "stateMutability": "view",
      "type": "function"
    },
    {
      "inputs": [],
      "name": "weekly_emission",
      "outputs": [
        {
          "internalType": "uint256",
          "name": "",
          "type": "uint256"
        }
      ],
      "stateMutability": "view",
      "type": "function"
    }
  ],
  "bytecode": "0x6080604052348015600f57600080fd5b5061186d8061001f6000396000f3fe608060405234801561001057600080fd5b50600436106101f75760003560e01c8063a129cfbf11610120578063cfc6c8ff116100b8578063e6684de81161007c578063e6684de8146103ea578063ed29fc11146103f3578063ef78d4fd146103fb578063f2fde38b14610403578063f4359ce51461041657600080fd5b8063cfc6c8ff146103ab578063d1399608146103b3578063ddce102f146103bc578063de3e3492146103cf578063e038c75a146103e257600080fd5b8063a129cfbf14610337578063a1809b951461034a578063a18cb9561461035d578063a2e23a5114610366578063a4f0d7d01461036f578063a9abf7ec1461037a578063aaf5eb6814610387578063b5cc143a14610390578063c0c53b8b1461039857600080fd5b806368446b4d1161019357806368446b4d1461029e5780636f05cc63146102b1578063715018a6146102c457806378ef7f02146102cc57806385f2aef2146102d55780638da5cb5b146102e85780638dd598fb146102f9578063919840ad1461030c578063952c820a1461032457600080fd5b806301c8e6fd146101fc578063095cf5c6146102175780631c1b9e521461022c5780631eebae801461024c57806326cfc17b146102545780632e8f7b1f1461025d57806336d96faf146102705780634b1cd5da1461027857806359d46ffc1461028b575b600080fd5b610204603281565b6040519081526020015b60405180910390f35b61022a61022536600461145e565b610420565b005b606f5461023f906001600160a01b031681565b60405161020e9190611482565b610204610475565b610204606a5481565b61022a61026b366004611496565b61049e565b6102046104ef565b60725461023f906001600160a01b031681565b606e5461023f906001600160a01b031681565b61022a6102ac36600461145e565b610504565b60705461023f906001600160a01b031681565b61022a610563565b61020460695481565b606d5461023f906001600160a01b031681565b6033546001600160a01b031661023f565b60715461023f906001600160a01b031681565b610314610577565b604051901515815260200161020e565b61022a610332366004611587565b6105a8565b610204610345366004611496565b6107c9565b61022a61035836600461145e565b610914565b61020460665481565b61020460675481565b6102046303bfc40081565b6065546103149060ff1681565b6102046103e881565b61022a61094d565b61022a6103a636600461165c565b6109be565b610204610c07565b610204606b5481565b61022a6103ca366004611496565b610c21565b61022a6103dd366004611496565b610c72565b610204610cc3565b61020460685481565b610204610dbd565b610204611290565b61022a61041136600461145e565b6112aa565b61020462093a8081565b606d546001600160a01b031633146104535760405162461bcd60e51b815260040161044a906116a7565b60405180910390fd5b606e80546001600160a01b0319166001600160a01b0392909216919091179055565b60006103e8606754610485610cc3565b61048f91906116df565b61049991906116f6565b905090565b606d546001600160a01b031633146104c85760405162461bcd60e51b815260040161044a906116a7565b6107d08111156104ea5760405162461bcd60e51b815260040161044a90611718565b606955565b60006103e8606654606a5461048f91906116df565b6001600160a01b03811661051757600080fd5b606d546001600160a01b031633146105415760405162461bcd60e51b815260040161044a906116a7565b607080546001600160a01b0319166001600160a01b0392909216919091179055565b61056b611323565b610575600061137d565b565b606b5460009061058a62093a808261173f565b42101580156105a25750606c546001600160a01b0316155b91505090565b606c546001600160a01b031633146105bf57600080fd5b801561079957606f546040516340c10f1960e01b81526001600160a01b03909116906340c10f19906105f79030908590600401611752565b6020604051808303816000875af1158015610616573d6000803e3d6000fd5b505050506040513d601f19601f8201168201806040525081019061063a919061176b565b50606f5460715460405163095ea7b360e01b81526001600160a01b039283169263095ea7b3926106739291169060001990600401611752565b6020604051808303816000875af1158015610692573d6000803e3d6000fd5b505050506040513d601f19601f820116820180604052508101906106b6919061176b565b5060005b83518110156107975760715483516001600160a01b039091169063d4e54c3b908590849081106106ec576106ec61178d565b60200260200101516303bfc40087858151811061070b5761070b61178d565b60200260200101516040518463ffffffff1660e01b815260040161074b9392919092835260208301919091526001600160a01b0316604082015260600190565b6020604051808303816000875af115801561076a573d6000803e3d6000fd5b505050506040513d601f19601f8201168201806040525081019061078e91906117a3565b506001016106ba565b505b606c80546001600160a01b031916905562093a806107b781426116f6565b6107c191906116df565b606b55505050565b606f546071546040516370a0823160e01b815260009283926001600160a01b03918216926370a0823192610801921690600401611482565b602060405180830381865afa15801561081e573d6000803e3d6000fd5b505050506040513d601f19601f8201168201806040525081019061084291906117a3565b90506000606f60009054906101000a90046001600160a01b03166001600160a01b03166318160ddd6040518163ffffffff1660e01b8152600401602060405180830381865afa158015610899573d6000803e3d6000fd5b505050506040513d601f19601f820116820180604052508101906108bd91906117a3565b90506000816108ce6103e8856116df565b6108d891906116f6565b90506068548110610907576103e8606854866108f491906116df565b6108fe91906116f6565b95945050505050565b6103e86108f482876116df565b606d546001600160a01b0316331461092b57600080fd5b607280546001600160a01b0319166001600160a01b0392909216919091179055565b606e546001600160a01b0316331461099a5760405162461bcd60e51b815260206004820152601060248201526f6e6f742070656e64696e67207465616d60801b604482015260640161044a565b606e54606d80546001600160a01b0319166001600160a01b03909216919091179055565b600054610100900460ff16158080156109de5750600054600160ff909116105b806109f85750303b1580156109f8575060005460ff166001145b610a5b5760405162461bcd60e51b815260206004820152602e60248201527f496e697469616c697a61626c653a20636f6e747261637420697320616c72656160448201526d191e481a5b9a5d1a585b1a5e995960921b606482015260840161044a565b6000805460ff191660011790558015610a7e576000805461ff0019166101001790555b610a866113cf565b606c8054336001600160a01b03199182168117909255606d8054909116909117905560196069556103d4606655600260675561012c60685560408051637e062a3560e11b815290516001600160a01b0385169163fc0c546a9160048281019260209291908290030181865afa158015610b03573d6000803e3d6000fd5b505050506040513d601f19601f82011682018060405250810190610b2791906117bc565b606f80546001600160a01b03199081166001600160a01b03938416179091556070805482168784161790556071805482168684161790556072805490911691841691909117905562093a8080610b7e8160026116df565b610b88904261173f565b610b9291906116f6565b610b9c91906116df565b606b556a022692484ce19d09000000606a556065805460ff191660011790558015610c01576000805461ff0019169055604051600181527f7f26b83ff96e1f2b6a682f133852f6798a09c465da95921460cefb38474024989060200160405180910390a15b50505050565b6000610499610c146104ef565b610c1c610475565b6113fe565b606d546001600160a01b03163314610c4b5760405162461bcd60e51b815260040161044a906116a7565b6103e8811115610c6d5760405162461bcd60e51b815260040161044a90611718565b606655565b606d546001600160a01b03163314610c9c5760405162461bcd60e51b815260040161044a906116a7565b6103e8811115610cbe5760405162461bcd60e51b815260040161044a90611718565b606855565b606f546071546040516370a0823160e01b81526000926001600160a01b03908116926370a0823192610cfb9290911690600401611482565b602060405180830381865afa158015610d18573d6000803e3d6000fd5b505050506040513d601f19601f82011682018060405250810190610d3c91906117a3565b606f60009054906101000a90046001600160a01b03166001600160a01b03166318160ddd6040518163ffffffff1660e01b8152600401602060405180830381865afa158015610d8f573d6000803e3d6000fd5b505050506040513d601f19601f82011682018060405250810190610db391906117a3565b61049991906117d9565b606b54600090610dd062093a808261173f565b4210158015610de85750606c546001600160a01b0316155b1561128b5762093a80610dfb81426116f6565b610e0591906116df565b606b81905560655490915060ff16610e2757610e1f610c07565b606a55610e32565b6065805460ff191690555b6000610e3f606a546107c9565b905060006103e8606954606a54610e5691906116df565b610e6091906116f6565b606a54909150600082610e7385846117d9565b610e7d91906117d9565b606f546040516370a0823160e01b81529192506000916001600160a01b03909116906370a0823190610eb3903090600401611482565b602060405180830381865afa158015610ed0573d6000803e3d6000fd5b505050506040513d601f19601f82011682018060405250810190610ef491906117a3565b905082811015610f7c57606f546001600160a01b03166340c10f1930610f1a84876117d9565b6040518363ffffffff1660e01b8152600401610f37929190611752565b6020604051808303816000875af1158015610f56573d6000803e3d6000fd5b505050506040513d601f19601f82011682018060405250810190610f7a919061176b565b505b606f54606d5460405163a9059cbb60e01b81526001600160a01b039283169263a9059cbb92610fb2929116908890600401611752565b6020604051808303816000875af1158015610fd1573d6000803e3d6000fd5b505050506040513d601f19601f82011682018060405250810190610ff5919061176b565b610ffe57600080fd5b606f5460725460405163a9059cbb60e01b81526001600160a01b039283169263a9059cbb92611034929116908990600401611752565b6020604051808303816000875af1158015611053573d6000803e3d6000fd5b505050506040513d601f19601f82011682018060405250810190611077919061176b565b61108057600080fd5b607260009054906101000a90046001600160a01b03166001600160a01b031663811a40fe6040518163ffffffff1660e01b8152600401600060405180830381600087803b1580156110d057600080fd5b505af11580156110e4573d6000803e3d6000fd5b50505050607260009054906101000a90046001600160a01b03166001600160a01b031663b21ed5026040518163ffffffff1660e01b8152600401600060405180830381600087803b15801561113857600080fd5b505af115801561114c573d6000803e3d6000fd5b5050606f5460705460405163095ea7b360e01b81526001600160a01b03928316945063095ea7b3935061118792909116908690600401611752565b6020604051808303816000875af11580156111a6573d6000803e3d6000fd5b505050506040513d601f19601f820116820180604052508101906111ca919061176b565b50607054604051633c6b16ab60e01b8152600481018490526001600160a01b0390911690633c6b16ab90602401600060405180830381600087803b15801561121157600080fd5b505af1158015611225573d6000803e3d6000fd5b50505050336001600160a01b03167fb4c03061fb5b7fed76389d5af8f2e0ddb09f8c70d1333abbb62582835e10accb606a5461125f610cc3565b611267610475565b6040805193845260208401929092529082015260600160405180910390a250505050505b919050565b600062093a806112a081426116f6565b61049991906116df565b6112b2611323565b6001600160a01b0381166113175760405162461bcd60e51b815260206004820152602660248201527f4f776e61626c653a206e6577206f776e657220697320746865207a65726f206160448201526564647265737360d01b606482015260840161044a565b6113208161137d565b50565b6033546001600160a01b031633146105755760405162461bcd60e51b815260206004820181905260248201527f4f776e61626c653a2063616c6c6572206973206e6f7420746865206f776e6572604482015260640161044a565b603380546001600160a01b038381166001600160a01b0319831681179093556040519116919082907f8be0079c531659141344cd1fd0a4f28419497f9722a3daafe3b4186f6b6457e090600090a35050565b600054610100900460ff166113f65760405162461bcd60e51b815260040161044a906117ec565b610575611419565b60008183101561140e5781611410565b825b90505b92915050565b600054610100900460ff166114405760405162461bcd60e51b815260040161044a906117ec565b6105753361137d565b6001600160a01b038116811461132057600080fd5b60006020828403121561147057600080fd5b813561147b81611449565b9392505050565b6001600160a01b0391909116815260200190565b6000602082840312156114a857600080fd5b5035919050565b634e487b7160e01b600052604160045260246000fd5b604051601f8201601f1916810167ffffffffffffffff811182821017156114ee576114ee6114af565b604052919050565b600067ffffffffffffffff821115611510576115106114af565b5060051b60200190565b600082601f83011261152b57600080fd5b813561153e611539826114f6565b6114c5565b8082825260208201915060208360051b86010192508583111561156057600080fd5b602085015b8381101561157d578035835260209283019201611565565b5095945050505050565b60008060006060848603121561159c57600080fd5b833567ffffffffffffffff8111156115b357600080fd5b8401601f810186136115c457600080fd5b80356115d2611539826114f6565b8082825260208201915060208360051b8501019250888311156115f457600080fd5b6020840193505b8284101561161f57833561160e81611449565b8252602093840193909101906115fb565b9550505050602084013567ffffffffffffffff81111561163e57600080fd5b61164a8682870161151a565b93969395505050506040919091013590565b60008060006060848603121561167157600080fd5b833561167c81611449565b9250602084013561168c81611449565b9150604084013561169c81611449565b809150509250925092565b6020808252600890820152676e6f74207465616d60c01b604082015260600190565b634e487b7160e01b600052601160045260246000fd5b8082028115828204841417611413576114136116c9565b60008261171357634e487b7160e01b600052601260045260246000fd5b500490565b6020808252600d908201526c0e4c2e8ca40e8dede40d0d2ced609b1b604082015260600190565b80820180821115611413576114136116c9565b6001600160a01b03929092168252602082015260400190565b60006020828403121561177d57600080fd5b8151801515811461147b57600080fd5b634e487b7160e01b600052603260045260246000fd5b6000602082840312156117b557600080fd5b5051919050565b6000602082840312156117ce57600080fd5b815161147b81611449565b81810381811115611413576114136116c9565b6020808252602b908201527f496e697469616c697a61626c653a20636f6e7472616374206973206e6f74206960408201526a6e697469616c697a696e6760a81b60608201526080019056fea26469706673582212209f7f024c2e83573393ff3234864f546191fc25f6042d863998151c5290ae7f0364736f6c634300081c0033",
  "linkReferences": {},
  "deployedLinkReferences": {}
}