{
  "_format": "hh-sol-artifact-1",
  "contractName": "Voter",
  "sourceName": "contracts/Voter.sol",
  "abi": [
    {
      "inputs": [
        {
          "internalType": "address",
          "name": "__ve",
          "type": "address"
        },
        {
          "internalType": "address",
          "name": "__minter",
          "type": "address"
        }
      ],
      "stateMutability": "nonpayable",
      "type": "constructor"
    },
    {
      "inputs": [],
      "name": "AddressZero",
      "type": "error"
    },
    {
      "inputs": [],
      "name": "InputMismatch",
      "type": "error"
    },
    {
      "inputs": [],
      "name": "MaxSingleWeight",
      "type": "error"
    },
    {
      "inputs": [
        {
          "internalType": "uint256",
          "name": "timestamp",
          "type": "uint256"
        }
      ],
      "name": "NoVotesAvailable",
      "type": "error"
    },
    {
      "inputs": [],
      "name": "NotManager",
      "type": "error"
    },
    {
      "inputs": [],
      "name": "NotOwnerOrApproved",
      "type": "error"
    },
    {
      "inputs": [
        {
          "internalType": "address",
          "name": "pool",
          "type": "address"
        }
      ],
      "name": "NotPool",
      "type": "error"
    },
    {
      "inputs": [],
      "name": "PoolExists",
      "type": "error"
    },
    {
      "inputs": [],
      "name": "PoolNotExists",
      "type": "error"
    },
    {
      "inputs": [],
      "name": "PoolWeightZero",
      "type": "error"
    },
    {
      "inputs": [],
      "name": "TotalWeightZero",
      "type": "error"
    },
    {
      "anonymous": false,
      "inputs": [
        {
          "indexed": true,
          "internalType": "address",
          "name": "pool",
          "type": "address"
        },
        {
          "indexed": false,
          "internalType": "address",
          "name": "gauge",
          "type": "address"
        },
        {
          "indexed": false,
          "internalType": "address",
          "name": "votingIncentives",
          "type": "address"
        }
      ],
      "name": "AddPool",
      "type": "event"
    },
    {
      "anonymous": false,
      "inputs": [
        {
          "indexed": true,
          "internalType": "address",
          "name": "pool",
          "type": "address"
        }
      ],
      "name": "BanPool",
      "type": "event"
    },
    {
      "anonymous": false,
      "inputs": [
        {
          "indexed": true,
          "internalType": "address",
          "name": "previousOwner",
          "type": "address"
        },
        {
          "indexed": true,
          "internalType": "address",
          "name": "newOwner",
          "type": "address"
        }
      ],
      "name": "OwnershipTransferred",
      "type": "event"
    },
    {
      "anonymous": false,
      "inputs": [
        {
          "indexed": false,
          "internalType": "address",
          "name": "account",
          "type": "address"
        }
      ],
      "name": "Paused",
      "type": "event"
    },
    {
      "anonymous": false,
      "inputs": [
        {
          "indexed": true,
          "internalType": "address",
          "name": "pool",
          "type": "address"
        }
      ],
      "name": "RemovePool",
      "type": "event"
    },
    {
      "anonymous": false,
      "inputs": [
        {
          "indexed": false,
          "internalType": "address",
          "name": "voter",
          "type": "address"
        },
        {
          "indexed": true,
          "internalType": "uint256",
          "name": "tokenId",
          "type": "uint256"
        },
        {
          "indexed": false,
          "internalType": "uint256",
          "name": "timestamp",
          "type": "uint256"
        }
      ],
      "name": "Reset",
      "type": "event"
    },
    {
      "anonymous": false,
      "inputs": [
        {
          "indexed": true,
          "internalType": "address",
          "name": "pool",
          "type": "address"
        }
      ],
      "name": "RevivePool",
      "type": "event"
    },
    {
      "anonymous": false,
      "inputs": [
        {
          "indexed": true,
          "internalType": "address",
          "name": "manager",
          "type": "address"
        },
        {
          "indexed": false,
          "internalType": "bool",
          "name": "stauts",
          "type": "bool"
        }
      ],
      "name": "SetManagerStatus",
      "type": "event"
    },
    {
      "anonymous": false,
      "inputs": [
        {
          "indexed": true,
          "internalType": "address",
          "name": "minter",
          "type": "address"
        }
      ],
      "name": "SetMinter",
      "type": "event"
    },
    {
      "anonymous": false,
      "inputs": [
        {
          "indexed": true,
          "internalType": "address",
          "name": "ve",
          "type": "address"
        }
      ],
      "name": "SetVotingEscrow",
      "type": "event"
    },
    {
      "anonymous": false,
      "inputs": [
        {
          "indexed": true,
          "internalType": "address",
          "name": "vea",
          "type": "address"
        }
      ],
      "name": "SetVotingEscrowAttach",
      "type": "event"
    },
    {
      "anonymous": false,
      "inputs": [
        {
          "indexed": false,
          "internalType": "address",
          "name": "account",
          "type": "address"
        }
      ],
      "name": "Unpaused",
      "type": "event"
    },
    {
      "anonymous": false,
      "inputs": [
        {
          "indexed": false,
          "internalType": "address",
          "name": "voter",
          "type": "address"
        },
        {
          "indexed": true,
          "internalType": "uint256",
          "name": "tokenId",
          "type": "uint256"
        },
        {
          "indexed": false,
          "internalType": "uint256",
          "name": "timestamp",
          "type": "uint256"
        }
      ],
      "name": "Vote",
      "type": "event"
    },
    {
      "inputs": [
        {
          "internalType": "address",
          "name": "pool",
          "type": "address"
        },
        {
          "internalType": "address",
          "name": "gauge",
          "type": "address"
        },
        {
          "internalType": "address",
          "name": "votingIncentives",
          "type": "address"
        }
      ],
      "name": "addPoolData",
      "outputs": [],
      "stateMutability": "nonpayable",
      "type": "function"
    },
    {
      "inputs": [
        {
          "internalType": "address",
          "name": "pool",
          "type": "address"
        }
      ],
      "name": "banPool",
      "outputs": [],
      "stateMutability": "nonpayable",
      "type": "function"
    },
    {
      "inputs": [],
      "name": "epochTimestamp",
      "outputs": [
        {
          "internalType": "uint256",
          "name": "",
          "type": "uint256"
        }
      ],
      "stateMutability": "view",
      "type": "function"
    },
    {
      "inputs": [
        {
          "internalType": "address",
          "name": "pool",
          "type": "address"
        }
      ],
      "name": "gaugeForPool",
      "outputs": [
        {
          "internalType": "address",
          "name": "",
          "type": "address"
        }
      ],
      "stateMutability": "view",
      "type": "function"
    },
    {
      "inputs": [
        {
          "internalType": "address",
          "name": "manager",
          "type": "address"
        }
      ],
      "name": "isManager",
      "outputs": [
        {
          "internalType": "bool",
          "name": "",
          "type": "bool"
        }
      ],
      "stateMutability": "view",
      "type": "function"
    },
    {
      "inputs": [
        {
          "internalType": "address",
          "name": "pool",
          "type": "address"
        }
      ],
      "name": "isPool",
      "outputs": [
        {
          "internalType": "bool",
          "name": "",
          "type": "bool"
        }
      ],
      "stateMutability": "view",
      "type": "function"
    },
    {
      "inputs": [],
      "name": "minter",
      "outputs": [
        {
          "internalType": "address",
          "name": "",
          "type": "address"
        }
      ],
      "stateMutability": "view",
      "type": "function"
    },
    {
      "inputs": [],
      "name": "owner",
      "outputs": [
        {
          "internalType": "address",
          "name": "",
          "type": "address"
        }
      ],
      "stateMutability": "view",
      "type": "function"
    },
    {
      "inputs": [
        {
          "internalType": "bool",
          "name": "status",
          "type": "bool"
        }
      ],
      "name": "pause",
      "outputs": [],
      "stateMutability": "nonpayable",
      "type": "function"
    },
    {
      "inputs": [],
      "name": "paused",
      "outputs": [
        {
          "internalType": "bool",
          "name": "",
          "type": "bool"
        }
      ],
      "stateMutability": "view",
      "type": "function"
    },
    {
      "inputs": [
        {
          "internalType": "uint256",
          "name": "_tokenId",
          "type": "uint256"
        }
      ],
      "name": "poke",
      "outputs": [],
      "stateMutability": "nonpayable",
      "type": "function"
    },
    {
      "inputs": [
        {
          "internalType": "address",
          "name": "pool",
          "type": "address"
        }
      ],
      "name": "poolData",
      "outputs": [
        {
          "components": [
            {
              "internalType": "address",
              "name": "gauge",
              "type": "address"
            },
            {
              "internalType": "address",
              "name": "votingIncentives",
              "type": "address"
            }
          ],
          "internalType": "struct IVoter.PoolData",
          "name": "",
          "type": "tuple"
        }
      ],
      "stateMutability": "view",
      "type": "function"
    },
    {
      "inputs": [
        {
          "internalType": "address",
          "name": "pool",
          "type": "address"
        }
      ],
      "name": "poolPosition",
      "outputs": [
        {
          "internalType": "uint256",
          "name": "pos",
          "type": "uint256"
        }
      ],
      "stateMutability": "view",
      "type": "function"
    },
    {
      "inputs": [
        {
          "internalType": "address",
          "name": "pool",
          "type": "address"
        },
        {
          "internalType": "uint256",
          "name": "timestamp",
          "type": "uint256"
        }
      ],
      "name": "poolTotalWeights",
      "outputs": [
        {
          "internalType": "uint256",
          "name": "",
          "type": "uint256"
        }
      ],
      "stateMutability": "view",
      "type": "function"
    },
    {
      "inputs": [
        {
          "internalType": "uint256",
          "name": "from",
          "type": "uint256"
        },
        {
          "internalType": "uint256",
          "name": "to",
          "type": "uint256"
        }
      ],
      "name": "pools",
      "outputs": [
        {
          "internalType": "address[]",
          "name": "_pools",
          "type": "address[]"
        }
      ],
      "stateMutability": "view",
      "type": "function"
    },
    {
      "inputs": [
        {
          "internalType": "uint256",
          "name": "pos",
          "type": "uint256"
        }
      ],
      "name": "pools",
      "outputs": [
        {
          "internalType": "address",
          "name": "",
          "type": "address"
        }
      ],
      "stateMutability": "view",
      "type": "function"
    },
    {
      "inputs": [],
      "name": "pools",
      "outputs": [
        {
          "internalType": "address[]",
          "name": "",
          "type": "address[]"
        }
      ],
      "stateMutability": "view",
      "type": "function"
    },
    {
      "inputs": [],
      "name": "poolsLength",
      "outputs": [
        {
          "internalType": "uint256",
          "name": "",
          "type": "uint256"
        }
      ],
      "stateMutability": "view",
      "type": "function"
    },
    {
      "inputs": [
        {
          "internalType": "address",
          "name": "pool",
          "type": "address"
        }
      ],
      "name": "removePoolData",
      "outputs": [],
      "stateMutability": "nonpayable",
      "type": "function"
    },
    {
      "inputs": [],
      "name": "renounceOwnership",
      "outputs": [],
      "stateMutability": "nonpayable",
      "type": "function"
    },
    {
      "inputs": [
        {
          "internalType": "uint256",
          "name": "_tokenId",
          "type": "uint256"
        }
      ],
      "name": "reset",
      "outputs": [],
      "stateMutability": "nonpayable",
      "type": "function"
    },
    {
      "inputs": [
        {
          "internalType": "address",
          "name": "pool",
          "type": "address"
        }
      ],
      "name": "revivePool",
      "outputs": [],
      "stateMutability": "nonpayable",
      "type": "function"
    },
    {
      "inputs": [
        {
          "internalType": "address",
          "name": "manager",
          "type": "address"
        },
        {
          "internalType": "bool",
          "name": "status",
          "type": "bool"
        }
      ],
      "name": "setManagerStatus",
      "outputs": [],
      "stateMutability": "nonpayable",
      "type": "function"
    },
    {
      "inputs": [
        {
          "internalType": "address",
          "name": "_mint",
          "type": "address"
        }
      ],
      "name": "setMinter",
      "outputs": [],
      "stateMutability": "nonpayable",
      "type": "function"
    },
    {
      "inputs": [
        {
          "internalType": "address",
          "name": "_votingEscrow",
          "type": "address"
        }
      ],
      "name": "setVotingEscrow",
      "outputs": [],
      "stateMutability": "nonpayable",
      "type": "function"
    },
    {
      "inputs": [
        {
          "internalType": "uint256",
          "name": "_tokenId",
          "type": "uint256"
        },
        {
          "internalType": "uint256",
          "name": "timestamp",
          "type": "uint256"
        }
      ],
      "name": "tokenIdVotes",
      "outputs": [
        {
          "components": [
            {
              "internalType": "uint256",
              "name": "veBalance",
              "type": "uint256"
            },
            {
              "internalType": "uint256",
              "name": "totalWeight",
              "type": "uint256"
            },
            {
              "internalType": "uint256[]",
              "name": "weights",
              "type": "uint256[]"
            },
            {
              "internalType": "address[]",
              "name": "pools",
              "type": "address[]"
            }
          ],
          "internalType": "struct IVoter.TokenIdVote",
          "name": "",
          "type": "tuple"
        }
      ],
      "stateMutability": "view",
      "type": "function"
    },
    {
      "inputs": [
        {
          "internalType": "uint256",
          "name": "timestamp",
          "type": "uint256"
        }
      ],
      "name": "totalWeights",
      "outputs": [
        {
          "internalType": "uint256",
          "name": "",
          "type": "uint256"
        }
      ],
      "stateMutability": "view",
      "type": "function"
    },
    {
      "inputs": [
        {
          "internalType": "address",
          "name": "newOwner",
          "type": "address"
        }
      ],
      "name": "transferOwnership",
      "outputs": [],
      "stateMutability": "nonpayable",
      "type": "function"
    },
    {
      "inputs": [],
      "name": "ve",
      "outputs": [
        {
          "internalType": "address",
          "name": "",
          "type": "address"
        }
      ],
      "stateMutability": "view",
      "type": "function"
    },
    {
      "inputs": [
        {
          "internalType": "uint256",
          "name": "_tokenId",
          "type": "uint256"
        },
        {
          "internalType": "address[]",
          "name": "_pools",
          "type": "address[]"
        },
        {
          "internalType": "uint256[]",
          "name": "_weights",
          "type": "uint256[]"
        }
      ],
      "name": "vote",
      "outputs": [],
      "stateMutability": "nonpayable",
      "type": "function"
    },
    {
      "inputs": [
        {
          "internalType": "address",
          "name": "pool",
          "type": "address"
        }
      ],
      "name": "votingIncentivesForPool",
      "outputs": [
        {
          "internalType": "address",
          "name": "",
          "type": "address"
        }
      ],
      "stateMutability": "view",
      "type": "function"
    }
  ],
  "bytecode": "0x608060405234801561001057600080fd5b506040516128fa3803806128fa83398101604081905261002f91610177565b6100383361010b565b6000805460ff60a01b191690556001600160a01b03821661006c57604051639fabe1c160e01b815260040160405180910390fd5b6001600160a01b03811661009357604051639fabe1c160e01b815260040160405180910390fd5b600a80546001600160a01b038085166001600160a01b03199283161790925560098054928416929091169190911790556001600860006100db6000546001600160a01b031690565b6001600160a01b031681526020810191909152604001600020805460ff1916911515919091179055506101aa9050565b600080546001600160a01b038381166001600160a01b0319831681178455604051919092169283917f8be0079c531659141344cd1fd0a4f28419497f9722a3daafe3b4186f6b6457e09190a35050565b80516001600160a01b038116811461017257600080fd5b919050565b6000806040838503121561018a57600080fd5b6101938361015b565b91506101a16020840161015b565b90509250929050565b612741806101b96000396000f3fe608060405234801561001057600080fd5b50600436106101a55760003560e01c8063715018a6116100ef578063b62e1efc11610092578063b62e1efc1461042f578063c42b36ad1461044f578063c5c51dca14610462578063ce5ec92e1461046a578063e98470ed1461047d578063f2fde38b14610490578063f3ae2415146104a3578063fca3b5aa146104b657600080fd5b8063715018a61461036e5780637450e2de146103765780637ac09bf7146103965780638da5cb5b146103a95780638ef74f6c146103ba578063a5295923146103cd578063ac4afa38146103ed578063ac9eb5f51461040057600080fd5b80632716ae66116101575780632716ae66146102d1578063310bd74b146102d957806332145f90146102ec5780634ada282a146102ff5780635b16ebb7146103125780635c975abb146103355780636103ed2e1461033d57806370055e9e1461034557600080fd5b806302329a29146101aa57806307546172146101bf578063136efb7a146101e2578063168e30f5146102605780631aaaea37146102815780631f850716146102945780632045be90146102a5575b600080fd5b6101bd6101b83660046122d2565b6104c9565b005b6009546001600160a01b03165b6040516101d991906122f6565b60405180910390f35b6102396101f0366004612326565b604080518082018252600080825260209182018190526001600160a01b039384168152600582528290208251808401909352805484168352600101549092169181019190915290565b6040805182516001600160a01b0390811682526020938401511692810192909252016101d9565b61027361026e366004612341565b6104e9565b6040519081526020016101d9565b6101bd61028f36600461236b565b610514565b600a546001600160a01b03166101cc565b6101cc6102b3366004612326565b6001600160a01b039081166000908152600560205260409020541690565b600154610273565b6101bd6102e73660046123ae565b61075e565b6101bd6102fa3660046123ae565b6107ff565b6101bd61030d366004612326565b610e00565b610325610320366004612326565b610ea8565b60405190151581526020016101d9565b610325610ed9565b610273610ee9565b610273610353366004612326565b6001600160a01b031660009081526006602052604090205490565b6101bd610ef8565b6103896103843660046123c7565b610f0c565b6040516101d991906123e9565b6101bd6103a4366004612481565b610fe0565b6000546001600160a01b03166101cc565b6101bd6103c8366004612500565b6110ab565b6103e06103db3660046123c7565b611139565b6040516101d9919061257c565b6101cc6103fb3660046123ae565b611250565b6101cc61040e366004612326565b6001600160a01b039081166000908152600560205260409020600101541690565b61027361043d3660046123ae565b60009081526003602052604090205490565b6101bd61045d366004612326565b611280565b610389611465565b6101bd610478366004612326565b6114c7565b6101bd61048b366004612326565b61155e565b6101bd61049e366004612326565b61160a565b6103256104b1366004612326565b611680565b6101bd6104c4366004612326565b61169e565b6104d1611735565b806104e1576104de61178f565b50565b6104de6117de565b6001600160a01b03821660009081526004602090815260408083208484529091529020545b92915050565b61051d33611680565b61053a5760405163607e454560e11b815260040160405180910390fd5b6001600160a01b03831661056157604051639fabe1c160e01b815260040160405180910390fd5b6001600160a01b03821661058857604051639fabe1c160e01b815260040160405180910390fd5b6001600160a01b0381166105af57604051639fabe1c160e01b815260040160405180910390fd5b6001600160a01b03831660009081526007602052604090205460ff16156105e957604051637a471e1360e11b815260040160405180910390fd5b6040805180820182526001600160a01b0380851682528381166020808401918252878316600081815260058352868120955186549086166001600160a01b031991821617875593516001968701805491909616908516179094556007909152938220805460ff19168417905582548084018455918390527fb10e2d527612073b26eecdfd717e6a320cf44b4afac2b0732d9fcbe2b7fa0cf69091018054909116909217909155805461069b919061261b565b6001600160a01b0384166000908152600660205260408120919091556106bf611821565b6001600160a01b03851660009081526004602090815260408083208484529091529020549091508015610710576000828152600360205260408120805483929061070a90849061262e565b90915550505b604080516001600160a01b03868116825285811660208301528716917fe5fa92066fe577ed687637838bf5788f2bd83ebde9bf2a02abd8080ecfbc2d65910160405180910390a25050505050565b61076661188f565b600a5460405163430c208160e01b81526001600160a01b039091169063430c2081906107989033908590600401612641565b602060405180830381865afa1580156107b5573d6000803e3d6000fd5b505050506040513d601f19601f820116820180604052508101906107d9919061265a565b6107f657604051636d8a29e760e11b815260040160405180910390fd5b6104de816118d7565b61080761188f565b600a5460405163430c208160e01b81526001600160a01b039091169063430c2081906108399033908590600401612641565b602060405180830381865afa158015610856573d6000803e3d6000fd5b505050506040513d601f19601f8201168201806040525081019061087a919061265a565b61089757604051636d8a29e760e11b815260040160405180910390fd5b60006108a1611821565b600083815260026020526040812091925090816108c162093a808561261b565b815260200190815260200160002060405180608001604052908160008201548152602001600182015481526020016002820180548060200260200160405190810160405280929190818152602001828054801561093d57602002820191906000526020600020905b815481526020019060010190808311610929575b505050505081526020016003820180548060200260200160405190810160405280929190818152602001828054801561099f57602002820191906000526020600020905b81546001600160a01b03168152600190910190602001808311610981575b5050509190925250505060608101516040820151815192935090916000036109f3576109ce62093a808561261b565b60405163752eca3560e01b81526004016109ea91815260200190565b60405180910390fd5b6109fc856118d7565b6020830151600a546040516339f890b560e21b8152600481018890526000916001600160a01b03169063e7e242d490602401602060405180830381865afa158015610a4b573d6000803e3d6000fd5b505050506040513d601f19601f82011682018060405250810190610a6f9190612677565b9050600080610a8e604080518082019091526000808252602082015290565b84600003610aaf5760405163d666c84560e01b815260040160405180910390fd5b8651831015610ca55760076000888581518110610ace57610ace612690565b6020908102919091018101516001600160a01b031682528101919091526040016000205460ff16610b2d57868381518110610b0b57610b0b612690565b602002602001015160405163250abb5160e11b81526004016109ea91906122f6565b8484878581518110610b4157610b41612690565b6020026020010151610b5391906126a6565b610b5d91906126bd565b915081600003610b80576040516336a06b1360e21b815260040160405180910390fd5b8160046000898681518110610b9757610b97612690565b60200260200101516001600160a01b03166001600160a01b0316815260200190815260200160002060008b81526020019081526020016000206000828254610bdf919061262e565b9250508190555060056000888581518110610bfc57610bfc612690565b6020908102919091018101516001600160a01b039081168352828201939093526040918201600020825180840184528154851681526001909101549093169083018190529051631c57762b60e31b815260048101859052602481018d90529192509063e2bbb15890604401600060405180830381600087803b158015610c8157600080fd5b505af1158015610c95573d6000803e3d6000fd5b505060019094019350610aaf9050565b604051806080016040528085815260200186815260200187815260200188815250600260008c815260200190815260200160002060008b815260200190815260200160002060008201518160000155602082015181600101556040820151816002019080519060200190610d1a9291906121f5565b5060608201518051610d36916003840191602090910190612240565b50505060008981526003602052604081208054869290610d5790849061262e565b9091555050600a5460405163fd4a77f160e01b8152600481018c90526001600160a01b039091169063fd4a77f190602401600060405180830381600087803b158015610da257600080fd5b505af1158015610db6573d6000803e3d6000fd5b50505050897fafd3f234c1f8e944129b26b206d98e5752ad3336a4059938b4a3e990e9588530338b604051610dec929190612641565b60405180910390a250505050505050505050565b610e0933611680565b610e265760405163607e454560e11b815260040160405180910390fd5b6001600160a01b03811660009081526007602052604090205460ff16610e5f576040516302ea63c760e21b815260040160405180910390fd5b6001600160a01b038116600081815260076020526040808220805460ff19169055517fd0d5ea94cd49e02322e6b063a8bb973906359789fa370a54261e226b9592b5e29190a250565b6001600160a01b03811660009081526007602052604081205460ff1615610ed157506001919050565b506000919050565b600054600160a01b900460ff1690565b6000610ef3611821565b905090565b610f00611735565b610f0a6000611c74565b565b60606000610f1a848461261b565b90508067ffffffffffffffff811115610f3557610f356126df565b604051908082528060200260200182016040528015610f5e578160200160208202803683370190505b50915060005b81811015610fd8576001610f78828761262e565b81548110610f8857610f88612690565b9060005260206000200160009054906101000a90046001600160a01b0316838281518110610fb857610fb8612690565b6001600160a01b0390921660209283029190910190910152600101610f64565b505092915050565b610fe861188f565b600a5460405163430c208160e01b81526001600160a01b039091169063430c20819061101a9033908990600401612641565b602060405180830381865afa158015611037573d6000803e3d6000fd5b505050506040513d601f19601f8201168201806040525081019061105b919061265a565b61107857604051636d8a29e760e11b815260040160405180910390fd5b8281146110975760405162a80fb560e51b815260040160405180910390fd5b6110a48585858585611cc4565b5050505050565b6110b3611735565b6001600160a01b0382166110da57604051639fabe1c160e01b815260040160405180910390fd5b6001600160a01b038216600081815260086020908152604091829020805460ff191685151590811790915591519182527f2c0e460d92a73502decde52c29ae030dd8872be648a35b2b71fd47725c3a8c5a910160405180910390a25050565b6111646040518060800160405280600081526020016000815260200160608152602001606081525090565b60008381526002602081815260408084208685528252928390208351608081018552815481526001820154818401529281018054855181850281018501875281815294959294928601938301828280156111dd57602002820191906000526020600020905b8154815260200190600101908083116111c9575b505050505081526020016003820180548060200260200160405190810160405280929190818152602001828054801561123f57602002820191906000526020600020905b81546001600160a01b03168152600190910190602001808311611221575b505050505081525050905092915050565b60006001828154811061126557611265612690565b6000918252602090912001546001600160a01b031692915050565b61128933611680565b6112a65760405163607e454560e11b815260040160405180910390fd5b6001600160a01b03811660009081526007602052604090205460ff166112df576040516302ea63c760e21b815260040160405180910390fd5b60006112e9611821565b6001600160a01b0383166000908152600460209081526040808320848452909152902054909150801561133a576000828152600360205260408120805483929061133490849061261b565b90915550505b600180546000919061134d90829061261b565b8154811061135d5761135d612690565b60009182526020808320909101546001600160a01b038781168452600690925260409092205460018054929093169350918391839081106113a0576113a0612690565b600091825260208083209190910180546001600160a01b0319166001600160a01b03948516179055878316825260069052604080822082905591841681522081905560018054806113f3576113f36126f5565b60008281526020808220830160001990810180546001600160a01b03191690559092019092556001600160a01b03871680835260079091526040808320805460ff191690555190917f0719c8bc6522957e7735717af2894124fbc9096cf04b5bfaabcff5157790876591a25050505050565b606060018054806020026020016040519081016040528092919081815260200182805480156114bd57602002820191906000526020600020905b81546001600160a01b0316815260019091019060200180831161149f575b5050505050905090565b6114d033611680565b6114ed5760405163607e454560e11b815260040160405180910390fd5b6001600160a01b03811661151457604051639fabe1c160e01b815260040160405180910390fd5b600a80546001600160a01b0319166001600160a01b0383169081179091556040517f0927ef649a08b3f317d1dc814404dc648792deea5634d66f8d0879ced04d396c90600090a250565b61156733611680565b6115845760405163607e454560e11b815260040160405180910390fd5b6001600160a01b03811660009081526007602052604090205460ff16156115be57604051637a471e1360e11b815260040160405180910390fd5b6001600160a01b038116600081815260076020526040808220805460ff19166001179055517f1201338058da8a5c7cb6da92ee0dd23d5a813f82564aaa9b8371d36e9f779a079190a250565b611612611735565b6001600160a01b0381166116775760405162461bcd60e51b815260206004820152602660248201527f4f776e61626c653a206e6577206f776e657220697320746865207a65726f206160448201526564647265737360d01b60648201526084016109ea565b6104de81611c74565b6001600160a01b031660009081526008602052604090205460ff1690565b6116a733611680565b6116c45760405163607e454560e11b815260040160405180910390fd5b6001600160a01b0381166116eb57604051639fabe1c160e01b815260040160405180910390fd5b600980546001600160a01b0319166001600160a01b0383169081179091556040517fcec52196e972044edde8689a1b608e459c5946b7f3e5c8cd3d6d8e126d422e1c90600090a250565b6000546001600160a01b03163314610f0a5760405162461bcd60e51b815260206004820181905260248201527f4f776e61626c653a2063616c6c6572206973206e6f7420746865206f776e657260448201526064016109ea565b6117976121aa565b6000805460ff60a01b191690557f5db9ee0a495bf2e6ff9c91a7834c1ba4fdd244a5e8aa4e537bd38aeae4b073aa335b6040516117d491906122f6565b60405180910390a1565b6117e661188f565b6000805460ff60a01b1916600160a01b1790557f62e78cea01bee320cd4e420270b5ea74000d11b0c9f74754ebdbfc544b05a2586117c73390565b60095460408051631a2732c160e31b815290516000926001600160a01b03169163d13996089160048083019260209291908290030181865afa15801561186b573d6000803e3d6000fd5b505050506040513d601f19601f82011682018060405250810190610ef39190612677565b611897610ed9565b15610f0a5760405162461bcd60e51b815260206004820152601060248201526f14185d5cd8589b194e881c185d5cd95960821b60448201526064016109ea565b60006118e1611821565b60008381526002602081815260408084208585528252808420815160808101835281548152600182015481850152938101805483518186028101860185528181529798509596949591949286019390919083018282801561196157602002820191906000526020600020905b81548152602001906001019080831161194d575b50505050508152602001600382018054806020026020016040519081016040528092919081815260200182805480156119c357602002820191906000526020600020905b81546001600160a01b031681526001909101906020018083116119a5575b50505050508152505090506119e8604080518082019091526000808252602082015290565b602082015115611bd657815160008481526003602052604081208054909190611a1290849061261b565b9091555060009050805b836060015151811015611b9257602084015184516040860151805184908110611a4757611a47612690565b6020026020010151611a5991906126a6565b611a6391906126bd565b9150816004600086606001518481518110611a8057611a80612690565b60200260200101516001600160a01b03166001600160a01b0316815260200190815260200160002060008781526020019081526020016000206000828254611ac8919061261b565b925050819055506005600085606001518381518110611ae957611ae9612690565b6020908102919091018101516001600160a01b039081168352828201939093526040918201600020825180840184528154851681526001909101549093169083018190529051630441a3e760e41b815260048101859052602481018990529194509063441a3e7090604401600060405180830381600087803b158015611b6e57600080fd5b505af1158015611b82573d6000803e3d6000fd5b505060019092019150611a1c9050565b60008681526002602081815260408084208985529091528220828155600181018390559190611bc390830182612295565b611bd1600383016000612295565b505050505b600a5460405163c1f0fb9f60e01b8152600481018690526001600160a01b039091169063c1f0fb9f90602401600060405180830381600087803b158015611c1c57600080fd5b505af1158015611c30573d6000803e3d6000fd5b50505050837ff054db3316438c563ccda1bcd9cc2c2c54b88f26c0248b5cfd017aa2111cf1333385604051611c66929190612641565b60405180910390a250505050565b600080546001600160a01b038381166001600160a01b0319831681178455604051919092169283917f8be0079c531659141344cd1fd0a4f28419497f9722a3daafe3b4186f6b6457e09190a35050565b611ccd856118d7565b600a546040516339f890b560e21b81526004810187905260009182916001600160a01b039091169063e7e242d490602401602060405180830381865afa158015611d1b573d6000803e3d6000fd5b505050506040513d601f19601f82011682018060405250810190611d3f9190612677565b90506000611d4b611821565b9050600080805b88831015611e1857600760008b8b86818110611d7057611d70612690565b9050602002016020810190611d859190612326565b6001600160a01b0316815260208101919091526040016000205460ff16611de757898984818110611db857611db8612690565b9050602002016020810190611dcd9190612326565b60405163250abb5160e11b81526004016109ea91906122f6565b878784818110611df957611df9612690565b9050602002013586611e0b919061262e565b9550600190920191611d52565b85600003611e395760405163d666c84560e01b815260040160405180910390fd5b600092505b8883101561200157612710888885818110611e5b57611e5b612690565b905060200201351115611e8157604051636948bec160e11b815260040160405180910390fd5b8585898986818110611e9557611e95612690565b90506020020135611ea691906126a6565b611eb091906126bd565b915081600003611ed3576040516336a06b1360e21b815260040160405180910390fd5b611edd828261262e565b905081600460008c8c87818110611ef657611ef6612690565b9050602002016020810190611f0b9190612326565b6001600160a01b03166001600160a01b0316815260200190815260200160002060008681526020019081526020016000206000828254611f4b919061262e565b909155506005905060008b8b86818110611f6757611f67612690565b9050602002016020810190611f7c9190612326565b6001600160a01b03908116825260208201929092526040908101600020600101549051631c57762b60e31b815260048101859052602481018e905291169063e2bbb15890604401600060405180830381600087803b158015611fdd57600080fd5b505af1158015611ff1573d6000803e3d6000fd5b505060019094019350611e3e9050565b60405180608001604052808681526020018781526020018989808060200260200160405190810160405280939291908181526020018383602002808284376000920191909152505050908252506040805160208d810282810182019093528d82529283019290918e918e91829185019084908082843760009201829052509390945250508d81526002602081815260408084208a8552825292839020855181558582015160018201559285015180519394506120c393928501929101906121f5565b50606082015180516120df916003840191602090910190612240565b5050506000848152600360205260408120805487929061210090849061262e565b9091555050600a5460405163fd4a77f160e01b8152600481018d90526001600160a01b039091169063fd4a77f190602401600060405180830381600087803b15801561214b57600080fd5b505af115801561215f573d6000803e3d6000fd5b505050508a7fafd3f234c1f8e944129b26b206d98e5752ad3336a4059938b4a3e990e95885303386604051612195929190612641565b60405180910390a25050505050505050505050565b6121b2610ed9565b610f0a5760405162461bcd60e51b815260206004820152601460248201527314185d5cd8589b194e881b9bdd081c185d5cd95960621b60448201526064016109ea565b828054828255906000526020600020908101928215612230579160200282015b82811115612230578251825591602001919060010190612215565b5061223c9291506122af565b5090565b828054828255906000526020600020908101928215612230579160200282015b8281111561223057825182546001600160a01b0319166001600160a01b03909116178255602090920191600190910190612260565b50805460008255906000526020600020908101906104de91905b5b8082111561223c57600081556001016122b0565b80151581146104de57600080fd5b6000602082840312156122e457600080fd5b81356122ef816122c4565b9392505050565b6001600160a01b0391909116815260200190565b80356001600160a01b038116811461232157600080fd5b919050565b60006020828403121561233857600080fd5b6122ef8261230a565b6000806040838503121561235457600080fd5b61235d8361230a565b946020939093013593505050565b60008060006060848603121561238057600080fd5b6123898461230a565b92506123976020850161230a565b91506123a56040850161230a565b90509250925092565b6000602082840312156123c057600080fd5b5035919050565b600080604083850312156123da57600080fd5b50508035926020909101359150565b602080825282518282018190526000918401906040840190835b8181101561242a5783516001600160a01b0316835260209384019390920191600101612403565b509095945050505050565b60008083601f84011261244757600080fd5b50813567ffffffffffffffff81111561245f57600080fd5b6020830191508360208260051b850101111561247a57600080fd5b9250929050565b60008060008060006060868803121561249957600080fd5b85359450602086013567ffffffffffffffff8111156124b757600080fd5b6124c388828901612435565b909550935050604086013567ffffffffffffffff8111156124e357600080fd5b6124ef88828901612435565b969995985093965092949392505050565b6000806040838503121561251357600080fd5b61251c8361230a565b9150602083013561252c816122c4565b809150509250929050565b600081518084526020840193506020830160005b828110156125725781516001600160a01b031686526020958601959091019060010161254b565b5093949350505050565b60208152600060a08201835160208401526020840151604084015260408401516080606085015281815180845260c086019150602083019350600092505b808310156125dd57835182526020820191506020840193506001830192506125ba565b506060860151858203601f1901608087015292506125fb8184612537565b9695505050505050565b634e487b7160e01b600052601160045260246000fd5b8181038181111561050e5761050e612605565b8082018082111561050e5761050e612605565b6001600160a01b03929092168252602082015260400190565b60006020828403121561266c57600080fd5b81516122ef816122c4565b60006020828403121561268957600080fd5b5051919050565b634e487b7160e01b600052603260045260246000fd5b808202811582820484141761050e5761050e612605565b6000826126da57634e487b7160e01b600052601260045260246000fd5b500490565b634e487b7160e01b600052604160045260246000fd5b634e487b7160e01b600052603160045260246000fdfea26469706673582212205e702ccf5e19cdd7ceabf4a446b4e2b97df07effbbfbf8c69102c24946f286ea64736f6c634300081c0033",
  "linkReferences": {},
  "deployedLinkReferences": {}
}