{
  "_format": "hh-sol-artifact-1",
  "contractName": "VotingIncentivesFactory",
  "sourceName": "contracts/VotingIncentivesFactory.sol",
  "abi": [
    {
      "inputs": [
        {
          "internalType": "address",
          "name": "_globalFactory",
          "type": "address"
        },
        {
          "internalType": "address[]",
          "name": "defaultTokens",
          "type": "address[]"
        }
      ],
      "stateMutability": "nonpayable",
      "type": "constructor"
    },
    {
      "inputs": [],
      "name": "AddressZero",
      "type": "error"
    },
    {
      "anonymous": false,
      "inputs": [
        {
          "indexed": true,
          "internalType": "address",
          "name": "gauge",
          "type": "address"
        },
        {
          "indexed": true,
          "internalType": "address",
          "name": "votingIncentives",
          "type": "address"
        }
      ],
      "name": "CreateVotingIncentives",
      "type": "event"
    },
    {
      "anonymous": false,
      "inputs": [
        {
          "indexed": true,
          "internalType": "bytes32",
          "name": "role",
          "type": "bytes32"
        },
        {
          "indexed": true,
          "internalType": "bytes32",
          "name": "previousAdminRole",
          "type": "bytes32"
        },
        {
          "indexed": true,
          "internalType": "bytes32",
          "name": "newAdminRole",
          "type": "bytes32"
        }
      ],
      "name": "RoleAdminChanged",
      "type": "event"
    },
    {
      "anonymous": false,
      "inputs": [
        {
          "indexed": true,
          "internalType": "bytes32",
          "name": "role",
          "type": "bytes32"
        },
        {
          "indexed": true,
          "internalType": "address",
          "name": "account",
          "type": "address"
        },
        {
          "indexed": true,
          "internalType": "address",
          "name": "sender",
          "type": "address"
        }
      ],
      "name": "RoleGranted",
      "type": "event"
    },
    {
      "anonymous": false,
      "inputs": [
        {
          "indexed": true,
          "internalType": "bytes32",
          "name": "role",
          "type": "bytes32"
        },
        {
          "indexed": true,
          "internalType": "address",
          "name": "account",
          "type": "address"
        },
        {
          "indexed": true,
          "internalType": "address",
          "name": "sender",
          "type": "address"
        }
      ],
      "name": "RoleRevoked",
      "type": "event"
    },
    {
      "inputs": [],
      "name": "CREATE_ROLE",
      "outputs": [
        {
          "internalType": "bytes32",
          "name": "",
          "type": "bytes32"
        }
      ],
      "stateMutability": "view",
      "type": "function"
    },
    {
      "inputs": [],
      "name": "DEFAULT_ADMIN_ROLE",
      "outputs": [
        {
          "internalType": "bytes32",
          "name": "",
          "type": "bytes32"
        }
      ],
      "stateMutability": "view",
      "type": "function"
    },
    {
      "inputs": [],
      "name": "VOTING_INCENTIVES_FACTORY_MANAGER_ROLE",
      "outputs": [
        {
          "internalType": "bytes32",
          "name": "",
          "type": "bytes32"
        }
      ],
      "stateMutability": "view",
      "type": "function"
    },
    {
      "inputs": [
        {
          "internalType": "address",
          "name": "_token",
          "type": "address"
        },
        {
          "internalType": "address",
          "name": "_vi",
          "type": "address"
        }
      ],
      "name": "addRewardToVotingIncentives",
      "outputs": [],
      "stateMutability": "nonpayable",
      "type": "function"
    },
    {
      "inputs": [
        {
          "internalType": "address[]",
          "name": "_token",
          "type": "address[]"
        },
        {
          "internalType": "address",
          "name": "_vi",
          "type": "address"
        }
      ],
      "name": "addRewardsToVotingIncentives",
      "outputs": [],
      "stateMutability": "nonpayable",
      "type": "function"
    },
    {
      "inputs": [
        {
          "internalType": "address",
          "name": "_token0",
          "type": "address"
        },
        {
          "internalType": "address",
          "name": "_token1",
          "type": "address"
        },
        {
          "internalType": "address",
          "name": "voter",
          "type": "address"
        },
        {
          "internalType": "address",
          "name": "gauge",
          "type": "address"
        },
        {
          "internalType": "address",
          "name": "claimer",
          "type": "address"
        }
      ],
      "name": "createVotingIncentives",
      "outputs": [
        {
          "internalType": "address",
          "name": "",
          "type": "address"
        }
      ],
      "stateMutability": "nonpayable",
      "type": "function"
    },
    {
      "inputs": [
        {
          "internalType": "uint256",
          "name": "",
          "type": "uint256"
        }
      ],
      "name": "defaultRewardToken",
      "outputs": [
        {
          "internalType": "address",
          "name": "",
          "type": "address"
        }
      ],
      "stateMutability": "view",
      "type": "function"
    },
    {
      "inputs": [
        {
          "internalType": "address[]",
          "name": "_vi",
          "type": "address[]"
        },
        {
          "internalType": "address[]",
          "name": "_tokens",
          "type": "address[]"
        },
        {
          "internalType": "uint256[]",
          "name": "_amounts",
          "type": "uint256[]"
        }
      ],
      "name": "emergencyRecoverERC20",
      "outputs": [],
      "stateMutability": "nonpayable",
      "type": "function"
    },
    {
      "inputs": [
        {
          "internalType": "bytes32",
          "name": "role",
          "type": "bytes32"
        }
      ],
      "name": "getRoleAdmin",
      "outputs": [
        {
          "internalType": "bytes32",
          "name": "",
          "type": "bytes32"
        }
      ],
      "stateMutability": "view",
      "type": "function"
    },
    {
      "inputs": [],
      "name": "globalFactory",
      "outputs": [
        {
          "internalType": "address",
          "name": "",
          "type": "address"
        }
      ],
      "stateMutability": "view",
      "type": "function"
    },
    {
      "inputs": [
        {
          "internalType": "bytes32",
          "name": "role",
          "type": "bytes32"
        },
        {
          "internalType": "address",
          "name": "account",
          "type": "address"
        }
      ],
      "name": "grantRole",
      "outputs": [],
      "stateMutability": "nonpayable",
      "type": "function"
    },
    {
      "inputs": [
        {
          "internalType": "bytes32",
          "name": "role",
          "type": "bytes32"
        },
        {
          "internalType": "address",
          "name": "account",
          "type": "address"
        }
      ],
      "name": "hasRole",
      "outputs": [
        {
          "internalType": "bool",
          "name": "",
          "type": "bool"
        }
      ],
      "stateMutability": "view",
      "type": "function"
    },
    {
      "inputs": [],
      "name": "last_votingIncentives",
      "outputs": [
        {
          "internalType": "address",
          "name": "",
          "type": "address"
        }
      ],
      "stateMutability": "view",
      "type": "function"
    },
    {
      "inputs": [
        {
          "internalType": "address[]",
          "name": "_vi",
          "type": "address[]"
        }
      ],
      "name": "pauseVotingIncentives",
      "outputs": [],
      "stateMutability": "nonpayable",
      "type": "function"
    },
    {
      "inputs": [
        {
          "internalType": "address",
          "name": "_token",
          "type": "address"
        }
      ],
      "name": "pushDefaultRewardToken",
      "outputs": [],
      "stateMutability": "nonpayable",
      "type": "function"
    },
    {
      "inputs": [
        {
          "internalType": "address[]",
          "name": "_vi",
          "type": "address[]"
        },
        {
          "internalType": "address[]",
          "name": "_tokens",
          "type": "address[]"
        },
        {
          "internalType": "uint256[]",
          "name": "_amounts",
          "type": "uint256[]"
        }
      ],
      "name": "recoverERC20AndUpdateData",
      "outputs": [],
      "stateMutability": "nonpayable",
      "type": "function"
    },
    {
      "inputs": [
        {
          "internalType": "address",
          "name": "_token",
          "type": "address"
        }
      ],
      "name": "removeDefaultRewardToken",
      "outputs": [],
      "stateMutability": "nonpayable",
      "type": "function"
    },
    {
      "inputs": [
        {
          "internalType": "address",
          "name": "_token",
          "type": "address"
        },
        {
          "internalType": "address",
          "name": "_vi",
          "type": "address"
        }
      ],
      "name": "removeRewardToVotingIncentives",
      "outputs": [],
      "stateMutability": "nonpayable",
      "type": "function"
    },
    {
      "inputs": [
        {
          "internalType": "address[]",
          "name": "_token",
          "type": "address[]"
        },
        {
          "internalType": "address",
          "name": "_vi",
          "type": "address"
        }
      ],
      "name": "removeRewardsToVotingIncentives",
      "outputs": [],
      "stateMutability": "nonpayable",
      "type": "function"
    },
    {
      "inputs": [
        {
          "internalType": "bytes32",
          "name": "role",
          "type": "bytes32"
        },
        {
          "internalType": "address",
          "name": "account",
          "type": "address"
        }
      ],
      "name": "renounceRole",
      "outputs": [],
      "stateMutability": "nonpayable",
      "type": "function"
    },
    {
      "inputs": [
        {
          "internalType": "bytes32",
          "name": "role",
          "type": "bytes32"
        },
        {
          "internalType": "address",
          "name": "account",
          "type": "address"
        }
      ],
      "name": "revokeRole",
      "outputs": [],
      "stateMutability": "nonpayable",
      "type": "function"
    },
    {
      "inputs": [
        {
          "internalType": "address",
          "name": "claimer",
          "type": "address"
        },
        {
          "internalType": "address[]",
          "name": "_vi",
          "type": "address[]"
        }
      ],
      "name": "setClaimer",
      "outputs": [],
      "stateMutability": "nonpayable",
      "type": "function"
    },
    {
      "inputs": [
        {
          "internalType": "address",
          "name": "_gf",
          "type": "address"
        }
      ],
      "name": "setGlobalFactory",
      "outputs": [],
      "stateMutability": "nonpayable",
      "type": "function"
    },
    {
      "inputs": [
        {
          "internalType": "address[]",
          "name": "_vi",
          "type": "address[]"
        },
        {
          "internalType": "address",
          "name": "_minter",
          "type": "address"
        }
      ],
      "name": "setVotingIncentivesMinter",
      "outputs": [],
      "stateMutability": "nonpayable",
      "type": "function"
    },
    {
      "inputs": [
        {
          "internalType": "address[]",
          "name": "_vi",
          "type": "address[]"
        },
        {
          "internalType": "address",
          "name": "_owner",
          "type": "address"
        }
      ],
      "name": "setVotingIncentivesOwner",
      "outputs": [],
      "stateMutability": "nonpayable",
      "type": "function"
    },
    {
      "inputs": [
        {
          "internalType": "address[]",
          "name": "_vi",
          "type": "address[]"
        },
        {
          "internalType": "address",
          "name": "_voter",
          "type": "address"
        }
      ],
      "name": "setVotingIncentivesVoter",
      "outputs": [],
      "stateMutability": "nonpayable",
      "type": "function"
    },
    {
      "inputs": [
        {
          "internalType": "bytes4",
          "name": "interfaceId",
          "type": "bytes4"
        }
      ],
      "name": "supportsInterface",
      "outputs": [
        {
          "internalType": "bool",
          "name": "",
          "type": "bool"
        }
      ],
      "stateMutability": "view",
      "type": "function"
    },
    {
      "inputs": [
        {
          "internalType": "address[]",
          "name": "_vi",
          "type": "address[]"
        }
      ],
      "name": "unpauseVotingIncentives",
      "outputs": [],
      "stateMutability": "nonpayable",
      "type": "function"
    },
    {
      "inputs": [],
      "name": "votingIncentives",
      "outputs": [
        {
          "internalType": "address[]",
          "name": "",
          "type": "address[]"
        }
      ],
      "stateMutability": "view",
      "type": "function"
    }
  ],
  "bytecode": "0x608060405234801561001057600080fd5b506040516152d23803806152d283398101604081905261002f91610213565b6001600160a01b0382161561009a57600280546001600160a01b0319166001600160a01b038416908117909155610075906000805160206152b283398151915290610142565b60025461009a90600080516020615292833981519152906001600160a01b0316610142565b60005b81518110156100ff5760048282815181106100ba576100ba6102f6565b60209081029190910181015182546001808201855560009485529290932090920180546001600160a01b0319166001600160a01b03909316929092179091550161009d565b61010a600033610142565b61012260008051602061529283398151915233610142565b61013a6000805160206152b283398151915233610142565b50505061030c565b6000828152602081815260408083206001600160a01b038516845290915290205460ff166101dd576000828152602081815260408083206001600160a01b03851684529091529020805460ff1916600117905561019c3390565b6001600160a01b0316816001600160a01b0316837f2f8788117e7eff1d82e926ec794901d17c78024a50270940304540a733656f0d60405160405180910390a45b5050565b80516001600160a01b03811681146101f857600080fd5b919050565b634e487b7160e01b600052604160045260246000fd5b6000806040838503121561022657600080fd5b61022f836101e1565b60208401519092506001600160401b0381111561024b57600080fd5b8301601f8101851361025c57600080fd5b80516001600160401b03811115610275576102756101fd565b604051600582901b90603f8201601f191681016001600160401b03811182821017156102a3576102a36101fd565b6040529182526020818401810192908101888411156102c157600080fd5b6020850194505b838510156102e7576102d9856101e1565b8152602094850194016102c8565b50809450505050509250929050565b634e487b7160e01b600052603260045260246000fd5b614f778061031b6000396000f3fe608060405234801561001057600080fd5b506004361061018e5760003560e01c8063770e23a8116100e4578063ad0ef53011610092578063ad0ef5301461035d578063ae11468814610370578063b6f7097f14610383578063ba830ec514610398578063d547741f146103ab578063dc7e43ca146103be578063ec365b20146103d1578063f45842e2146103e457600080fd5b8063770e23a8146102d657806389f3340f146102e957806391d14854146102fc578063a0ea1ccc1461030f578063a217fddf1461032f578063a5a5134914610337578063a8667e471461034a57600080fd5b80632ef2115b116101415780632ef2115b146102515780632f2ff15d1461026457806336568abe14610277578063615330401461028a57806367128b451461029d57806369a12557146102b05780636fa782b9146102c357600080fd5b80626f53c91461019357806301ffc9a7146101bb578063039d26f9146101de57806304cd0100146101f3578063078de3a414610206578063248a9ca314610219578063283b14901461023c575b600080fd5b6101a8600080516020614f2283398151915281565b6040519081526020015b60405180910390f35b6101ce6101c936600461162d565b6103f7565b60405190151581526020016101b2565b6101f16101ec3660046116be565b61042e565b005b6101f16102013660046116be565b6104e8565b6101f1610214366004611711565b610566565b6101a8610227366004611744565b60009081526020819052604090206001015490565b6101a8600080516020614f0283398151915281565b6101f161025f36600461175d565b6105e1565b6101f1610272366004611778565b61065f565b6101f1610285366004611778565b610689565b6101f161029836600461179b565b61070c565b6101f16102ab3660046116be565b6107bf565b6101f16102be36600461175d565b610872565b6101f16102d136600461175d565b61099b565b6101f16102e43660046116be565b610a19565b6101f16102f73660046117ed565b610acc565b6101ce61030a366004611778565b610c2c565b600254610322906001600160a01b031681565b6040516101b29190611890565b6101a8600081565b600154610322906001600160a01b031681565b6101f16103583660046116be565b610c55565b61032261036b3660046118a4565b610c9b565b6101f161037e3660046117ed565b610f5f565b61038b6110be565b6040516101b29190611909565b6101f16103a6366004611955565b611120565b6101f16103b9366004611778565b6111d8565b6101f16103cc366004611955565b6111fd565b6103226103df366004611744565b6112af565b6101f16103f2366004611711565b6112d9565b60006001600160e01b03198216637965db0b60e01b148061042857506301ffc9a760e01b6001600160e01b03198316145b92915050565b600080516020614f028339815191526104468161131d565b60005b838110156104e15784848281811061046357610463611996565b9050602002016020810190610478919061175d565b6001600160a01b03166313af4035846040518263ffffffff1660e01b81526004016104a39190611890565b600060405180830381600087803b1580156104bd57600080fd5b505af11580156104d1573d6000803e3d6000fd5b5050600190920191506104499050565b5050505050565b600080516020614f028339815191526105008161131d565b604051632cd7bfcb60e01b81526001600160a01b03831690632cd7bfcb9061052e90879087906004016119ac565b600060405180830381600087803b15801561054857600080fd5b505af115801561055c573d6000803e3d6000fd5b5050505050505050565b600080516020614f0283398151915261057e8161131d565b604051632935799f60e21b81526001600160a01b0383169063a4d5e67c906105aa908690600401611890565b600060405180830381600087803b1580156105c457600080fd5b505af11580156105d8573d6000803e3d6000fd5b50505050505050565b600080516020614f028339815191526105f98161131d565b6001600160a01b03821661060c57600080fd5b610624600080516020614f228339815191528361132a565b61063c600080516020614f028339815191528361132a565b50600280546001600160a01b0319166001600160a01b0392909216919091179055565b60008281526020819052604090206001015461067a8161131d565b610684838361132a565b505050565b6001600160a01b03811633146106fe5760405162461bcd60e51b815260206004820152602f60248201527f416363657373436f6e74726f6c3a2063616e206f6e6c792072656e6f756e636560448201526e103937b632b9903337b91039b2b63360891b60648201526084015b60405180910390fd5b61070882826113ae565b5050565b600080516020614f028339815191526107248161131d565b60005b828110156104e15783838281811061074157610741611996565b9050602002016020810190610756919061175d565b6001600160a01b031663cdfb5832866040518263ffffffff1660e01b81526004016107819190611890565b600060405180830381600087803b15801561079b57600080fd5b505af11580156107af573d6000803e3d6000fd5b5050600190920191506107279050565b600080516020614f028339815191526107d78161131d565b60005b838110156104e1578484828181106107f4576107f4611996565b9050602002016020810190610809919061175d565b6001600160a01b031663fca3b5aa846040518263ffffffff1660e01b81526004016108349190611890565b600060405180830381600087803b15801561084e57600080fd5b505af1158015610862573d6000803e3d6000fd5b5050600190920191506107da9050565b600080516020614f0283398151915261088a8161131d565b6001600160a01b03821661089d57600080fd5b60005b60045481101561068457826001600160a01b0316600482815481106108c7576108c7611996565b6000918252602090912001546001600160a01b03160361099357600480546108f190600190611a0d565b8154811061090157610901611996565b600091825260209091200154600480546001600160a01b03909216918390811061092d5761092d611996565b9060005260206000200160006101000a8154816001600160a01b0302191690836001600160a01b03160217905550600480548061096c5761096c611a20565b600082815260209020810160001990810180546001600160a01b0319169055019055505050565b6001016108a0565b600080516020614f028339815191526109b38161131d565b6001600160a01b0382166109c657600080fd5b50600480546001810182556000919091527f8a35acfbc15ff81a39ae7d344fd709f28e8600b4aa8c65c6b64bfe7fe36bd19b0180546001600160a01b0319166001600160a01b0392909216919091179055565b600080516020614f02833981519152610a318161131d565b60005b838110156104e157848482818110610a4e57610a4e611996565b9050602002016020810190610a63919061175d565b6001600160a01b0316634bc2a657846040518263ffffffff1660e01b8152600401610a8e9190611890565b600060405180830381600087803b158015610aa857600080fd5b505af1158015610abc573d6000803e3d6000fd5b505060019092019150610a349050565b600080516020614f02833981519152610ae48161131d565b858414610b035760405162461bcd60e51b81526004016106f590611a36565b838214610b225760405162461bcd60e51b81526004016106f590611a36565b60005b8681101561055c576000848483818110610b4157610b41611996565b905060200201351115610c2457878782818110610b6057610b60611996565b9050602002016020810190610b75919061175d565b6001600160a01b0316630125bb32878784818110610b9557610b95611996565b9050602002016020810190610baa919061175d565b868685818110610bbc57610bbc611996565b6040516001600160e01b031960e087901b1681526001600160a01b0390941660048501526020029190910135602483015250604401600060405180830381600087803b158015610c0b57600080fd5b505af1158015610c1f573d6000803e3d6000fd5b505050505b600101610b25565b6000918252602082815260408084206001600160a01b0393909316845291905290205460ff1690565b600080516020614f02833981519152610c6d8161131d565b60405163184fb24560e21b81526001600160a01b0383169063613ec9149061052e90879087906004016119ac565b6000600080516020614f22833981519152610cb58161131d565b6001600160a01b038516610cdc57604051639fabe1c160e01b815260040160405180910390fd5b6001600160a01b038416610d0357604051639fabe1c160e01b815260040160405180910390fd5b6001600160a01b038316610d2a57604051639fabe1c160e01b815260040160405180910390fd5b600030868686604051610d3c90611620565b6001600160a01b039485168152928416602084015290831660408301529091166060820152608001604051809103906000f080158015610d80573d6000803e3d6000fd5b5090506001600160a01b03881615610df157604051639c9b2e2160e01b81526001600160a01b03821690639c9b2e2190610dbe908b90600401611890565b600060405180830381600087803b158015610dd857600080fd5b505af1158015610dec573d6000803e3d6000fd5b505050505b6001600160a01b03871615610e5f57604051639c9b2e2160e01b81526001600160a01b03821690639c9b2e2190610e2c908a90600401611890565b600060405180830381600087803b158015610e4657600080fd5b505af1158015610e5a573d6000803e3d6000fd5b505050505b60405163184fb24560e21b81526001600160a01b0382169063613ec91490610e8b906004908101611a5c565b600060405180830381600087803b158015610ea557600080fd5b505af1158015610eb9573d6000803e3d6000fd5b5050600180546001600160a01b038086166001600160a01b03199283168117845560038054808601825560009182527fc2575a0e9e593c00f959f8c92f12db2869c3395a3b0502d05e2516446f71f85b0180549094169091179092559154604051908316945091891692507f5afdbbd4df66e542006bb86e3fa42bc95f3a645b84b34f6b613ae7d7e6e5669c91a350506001546001600160a01b03169695505050505050565b600080516020614f02833981519152610f778161131d565b6000868514610f985760405162461bcd60e51b81526004016106f590611a36565b848314610fb75760405162461bcd60e51b81526004016106f590611a36565b8681101561055c576000848483818110610fd357610fd3611996565b9050602002013511156110b657878782818110610ff257610ff2611996565b9050602002016020810190611007919061175d565b6001600160a01b031663a551631387878481811061102757611027611996565b905060200201602081019061103c919061175d565b86868581811061104e5761104e611996565b6040516001600160e01b031960e087901b1681526001600160a01b0390941660048501526020029190910135602483015250604401600060405180830381600087803b15801561109d57600080fd5b505af11580156110b1573d6000803e3d6000fd5b505050505b600101610fb7565b6060600380548060200260200160405190810160405280929190818152602001828054801561111657602002820191906000526020600020905b81546001600160a01b031681526001909101906020018083116110f8575b5050505050905090565b600080516020614f028339815191526111388161131d565b60005b828110156111d25783838281811061115557611155611996565b905060200201602081019061116a919061175d565b6040516302329a2960e01b8152600160048201526001600160a01b0391909116906302329a2990602401600060405180830381600087803b1580156111ae57600080fd5b505af11580156111c2573d6000803e3d6000fd5b50506001909201915061113b9050565b50505050565b6000828152602081905260409020600101546111f38161131d565b61068483836113ae565b600080516020614f028339815191526112158161131d565b60005b828110156111d25783838281811061123257611232611996565b9050602002016020810190611247919061175d565b6040516302329a2960e01b8152600060048201526001600160a01b0391909116906302329a2990602401600060405180830381600087803b15801561128b57600080fd5b505af115801561129f573d6000803e3d6000fd5b5050600190920191506112189050565b600481815481106112bf57600080fd5b6000918252602090912001546001600160a01b0316905081565b600080516020614f028339815191526112f18161131d565b604051639c9b2e2160e01b81526001600160a01b03831690639c9b2e21906105aa908690600401611890565b6113278133611413565b50565b6113348282610c2c565b610708576000828152602081815260408083206001600160a01b03851684529091529020805460ff1916600117905561136a3390565b6001600160a01b0316816001600160a01b0316837f2f8788117e7eff1d82e926ec794901d17c78024a50270940304540a733656f0d60405160405180910390a45050565b6113b88282610c2c565b15610708576000828152602081815260408083206001600160a01b0385168085529252808320805460ff1916905551339285917ff6391f5c32d9c69d2a47ea670b442974b53935d1edc7fd64eb21e047a839171b9190a45050565b61141d8282610c2c565b6107085761142a8161146c565b61143583602061147e565b604051602001611446929190611ac4565b60408051601f198184030181529082905262461bcd60e51b82526106f591600401611b33565b60606104286001600160a01b03831660145b6060600061148d836002611b66565b611498906002611b7d565b6001600160401b038111156114af576114af611b90565b6040519080825280601f01601f1916602001820160405280156114d9576020820181803683370190505b509050600360fc1b816000815181106114f4576114f4611996565b60200101906001600160f81b031916908160001a905350600f60fb1b8160018151811061152357611523611996565b60200101906001600160f81b031916908160001a9053506000611547846002611b66565b611552906001611b7d565b90505b60018111156115ca576f181899199a1a9b1b9c1cb0b131b232b360811b85600f166010811061158657611586611996565b1a60f81b82828151811061159c5761159c611996565b60200101906001600160f81b031916908160001a90535060049490941c936115c381611ba6565b9050611555565b5083156116195760405162461bcd60e51b815260206004820181905260248201527f537472696e67733a20686578206c656e67746820696e73756666696369656e7460448201526064016106f5565b9392505050565b61334480611bbe83390190565b60006020828403121561163f57600080fd5b81356001600160e01b03198116811461161957600080fd5b60008083601f84011261166957600080fd5b5081356001600160401b0381111561168057600080fd5b6020830191508360208260051b850101111561169b57600080fd5b9250929050565b80356001600160a01b03811681146116b957600080fd5b919050565b6000806000604084860312156116d357600080fd5b83356001600160401b038111156116e957600080fd5b6116f586828701611657565b90945092506117089050602085016116a2565b90509250925092565b6000806040838503121561172457600080fd5b61172d836116a2565b915061173b602084016116a2565b90509250929050565b60006020828403121561175657600080fd5b5035919050565b60006020828403121561176f57600080fd5b611619826116a2565b6000806040838503121561178b57600080fd5b8235915061173b602084016116a2565b6000806000604084860312156117b057600080fd5b6117b9846116a2565b925060208401356001600160401b038111156117d457600080fd5b6117e086828701611657565b9497909650939450505050565b6000806000806000806060878903121561180657600080fd5b86356001600160401b0381111561181c57600080fd5b61182889828a01611657565b90975095505060208701356001600160401b0381111561184757600080fd5b61185389828a01611657565b90955093505060408701356001600160401b0381111561187257600080fd5b61187e89828a01611657565b979a9699509497509295939492505050565b6001600160a01b0391909116815260200190565b600080600080600060a086880312156118bc57600080fd5b6118c5866116a2565b94506118d3602087016116a2565b93506118e1604087016116a2565b92506118ef606087016116a2565b91506118fd608087016116a2565b90509295509295909350565b602080825282518282018190526000918401906040840190835b8181101561194a5783516001600160a01b0316835260209384019390920191600101611923565b509095945050505050565b6000806020838503121561196857600080fd5b82356001600160401b0381111561197e57600080fd5b61198a85828601611657565b90969095509350505050565b634e487b7160e01b600052603260045260246000fd5b6020808252810182905260008360408301825b858110156119ed576001600160a01b036119d8846116a2565b168252602092830192909101906001016119bf565b5095945050505050565b634e487b7160e01b600052601160045260246000fd5b81810381811115610428576104286119f7565b634e487b7160e01b600052603160045260246000fd5b6020808252600c908201526b36b4b9b6b0ba31b4103632b760a11b604082015260600190565b602080825282548282018190526000848152918220906040840190835b8181101561194a5783546001600160a01b0316835260019384019360209093019201611a79565b60005b83811015611abb578181015183820152602001611aa3565b50506000910152565b76020b1b1b2b9b9a1b7b73a3937b61d1030b1b1b7bab73a1604d1b815260008351611af6816017850160208801611aa0565b7001034b99036b4b9b9b4b733903937b6329607d1b6017918401918201528351611b27816028840160208801611aa0565b01602801949350505050565b6020815260008251806020840152611b52816040850160208701611aa0565b601f01601f19169190910160400192915050565b8082028115828204841417610428576104286119f7565b80820180821115610428576104286119f7565b634e487b7160e01b600052604160045260246000fd5b600081611bb557611bb56119f7565b50600019019056fe608060405234801561001057600080fd5b5060405161334438038061334483398101604081905261002f91610286565b60016000819055805460ff191690553361005c57604051639fabe1c160e01b815260040160405180910390fd5b6001600160a01b03831661008357604051639fabe1c160e01b815260040160405180910390fd5b6001600160a01b0384166100aa57604051639fabe1c160e01b815260040160405180910390fd5b6001600160a01b0381166100d157604051639fabe1c160e01b815260040160405180910390fd5b6000836001600160a01b0316631f8507166040518163ffffffff1660e01b8152600401602060405180830381865afa158015610111573d6000803e3d6000fd5b505050506040513d601f19601f8201168201806040525081019061013591906102da565b90506001600160a01b03811661015e57604051639fabe1c160e01b815260040160405180910390fd5b6000846001600160a01b031663075461726040518163ffffffff1660e01b8152600401602060405180830381865afa15801561019e573d6000803e3d6000fd5b505050506040513d601f19601f820116820180604052508101906101c291906102da565b90506001600160a01b0381166101eb57604051639fabe1c160e01b815260040160405180910390fd5b600480546001600160a01b03199081166001600160a01b0397881617909155600580543390831617905560098054821693871693909317909255600a80548316918616919091179055600680548216938516939093179092556007805483169484169490941790935560088054909116929091169190911790556102fc565b80516001600160a01b038116811461028157600080fd5b919050565b6000806000806080858703121561029c57600080fd5b6102a58561026a565b93506102b36020860161026a565b92506102c16040860161026a565b91506102cf6060860161026a565b905092959194509250565b6000602082840312156102ec57600080fd5b6102f58261026a565b9392505050565b6130398061030b6000396000f3fe608060405234801561001057600080fd5b50600436106102a05760003560e01c806380e336e411610167578063b5fd73f8116100ce578063e2bbb15811610087578063e2bbb158146106ab578063e39c08fc146106be578063e6886396146106d1578063f4359ce5146106d9578063f5f8d365146106e3578063fca3b5aa146106f657600080fd5b8063b5fd73f814610629578063b66503cf1461064c578063c66130d71461065f578063cdfb583214610672578063d379be2314610685578063db0ea9841461069857600080fd5b8063a4a3e03511610120578063a4a3e035146105a1578063a4d5e67c146105a9578063a5516313146105bc578063a7852afa146105cf578063aaf5eb68146105e2578063ae205536146105f357600080fd5b806380e336e414610522578063853c8aeb146105355780638da5cb5b14610548578063981b24d01461055b5780639c9b2e211461057b5780639cc7f7081461058e57600080fd5b806346c96aac1161020b578063613ec914116101c4578063613ec9141461048b57806365c5f94a1461049e5780637035ab98146104a6578063731b8f72146104d15780637bb7bed1146104fc5780637fd7d0621461050f57600080fd5b806346c96aac146104015780634bc2a6571461041457806354fd4d501461042757806355288eea1461045857806357bc5614146104615780635c975abb1461047457600080fd5b806318160ddd1161025d57806318160ddd1461032f5780631f85071614610345578063211dc32d146103585780632cd7bfcb1461036b578063381748621461037e578063441a3e70146103ee57600080fd5b80630125bb32146102a557806302329a29146102ba57806307546172146102cd5780630ccb4851146102f65780630d43e8ad1461030957806313af40351461031c575b600080fd5b6102b86102b3366004612bad565b610709565b005b6102b86102c8366004612be7565b610821565b600a546102e0906001600160a01b031681565b6040516102ed9190612c04565b60405180910390f35b6005546102e0906001600160a01b031681565b6006546102e0906001600160a01b031681565b6102b861032a366004612c18565b610878565b610337610914565b6040519081526020016102ed565b6009546102e0906001600160a01b031681565b610337610366366004612c35565b6109a3565b6102b8610379366004612cb3565b610a61565b6103c661038c366004612bad565b600f602090815260009283526040808420909152908252902080546001820154600283015460038401546004909401549293919290919085565b604080519586526020860194909452928401919091526060830152608082015260a0016102ed565b6102b86103fc366004612cf5565b610b04565b6004546102e0906001600160a01b031681565b6102b8610422366004612c18565b610d87565b61044b604051806040016040528060058152602001640312e302e360dc1b81525081565b6040516102ed9190612d3b565b61033760025481565b61033761046f366004612bad565b610e23565b60015460ff165b60405190151581526020016102ed565b6102b8610499366004612cb3565b610e36565b610337610ed4565b6103376104b4366004612c35565b600b60209081526000928352604080842090915290825290205481565b6103376104df366004612c35565b600c60209081526000928352604080842090915290825290205481565b6102e061050a366004612d6e565b610f60565b6102b861051d366004612cb3565b610f8a565b6102b8610530366004612d87565b611078565b610337610543366004612cf5565b61120d565b6007546102e0906001600160a01b031681565b610337610569366004612d6e565b6000908152600d602052604090205490565b6102b8610589366004612c18565b6112ab565b61033761059c366004612d6e565b6112f3565b61033761140c565b6102b86105b7366004612c18565b61147a565b6102b86105ca366004612bad565b6114c2565b6102b86105dd366004612ddc565b6116cc565b61033769d3c21bcecceda100000081565b610337610601366004612bad565b6001600160a01b03919091166000908152600e60209081526040808320938352929052205490565b61047b610637366004612c18565b60106020526000908152604090205460ff1681565b6102b861065a366004612bad565b61184d565b61033761066d366004612c18565b611943565b6102b8610680366004612c18565b6119ea565b6008546102e0906001600160a01b031681565b6102b86106a6366004612d87565b611aff565b6102b86106b9366004612cf5565b611c17565b6103376106cc366004612e0f565b611e08565b600354610337565b61033762093a8081565b6102b86106f1366004612ddc565b611f38565b6102b8610704366004612c18565b61210a565b6007546001600160a01b031633148061072c57506005546001600160a01b031633145b6107515760405162461bcd60e51b815260040161074890612e34565b60405180910390fd5b6040516370a0823160e01b81526001600160a01b038316906370a082319061077d903090600401612c04565b602060405180830381865afa15801561079a573d6000803e3d6000fd5b505050506040513d601f19601f820116820180604052508101906107be9190612e63565b8111156107ca57600080fd5b6007546107e4906001600160a01b038481169116836121a6565b7f8c1256b8896378cd5044f80c202f9772b9d77dc85c8a6eb51967210b09bfaa288282604051610815929190612e7c565b60405180910390a15050565b6007546001600160a01b031633148061084457506005546001600160a01b031633145b6108605760405162461bcd60e51b815260040161074890612e34565b806108705761086d6121fc565b50565b61086d612248565b6007546001600160a01b031633148061089b57506005546001600160a01b031633145b6108b75760405162461bcd60e51b815260040161074890612e34565b6001600160a01b0381166108ca57600080fd5b600780546001600160a01b0319166001600160a01b0383169081179091556040517f167d3e9c1016ab80e58802ca9da10ce5c6a0f4debc46a2e7a2cd9e56899a4fb590600090a250565b600080600a60009054906101000a90046001600160a01b03166001600160a01b031663d13996086040518163ffffffff1660e01b8152600401602060405180830381865afa15801561096a573d6000803e3d6000fd5b505050506040513d601f19601f8201168201806040525081019061098e9190612e63565b6000908152600d602052604090205492915050565b600080600a60009054906101000a90046001600160a01b03166001600160a01b031663d13996086040518163ffffffff1660e01b8152600401602060405180830381865afa1580156109f9573d6000803e3d6000fd5b505050506040513d601f19601f82011682018060405250810190610a1d9190612e63565b6001600160a01b038086166000908152600c60209081526040808320938816835292905290812054919250610a5483838789612283565b5093505050505b92915050565b6007546001600160a01b0316331480610a8457506005546001600160a01b031633145b610aa05760405162461bcd60e51b815260040161074890612e34565b80610abd5760405162461bcd60e51b815260040161074890612e95565b60005b81811015610aff57610af7838383818110610add57610add612eb9565b9050602002016020810190610af29190612c18565b6122fd565b600101610ac0565b505050565b610b0c612347565b610b146123a0565b600a5460408051631a2732c160e31b815290516000926001600160a01b03169163d13996089160048083019260209291908290030181865afa158015610b5e573d6000803e3d6000fd5b505050506040513d601f19601f82011682018060405250810190610b829190612e63565b6009546040516331a9108f60e11b8152600481018590529192506000916001600160a01b0390911690636352211e90602401602060405180830381865afa158015610bd1573d6000803e3d6000fd5b505050506040513d601f19601f82011682018060405250810190610bf59190612ecf565b905060008411610c385760405162461bcd60e51b815260206004820152600e60248201526d056493a20776974686472617720360941b6044820152606401610748565b6004546001600160a01b03163314610c7f5760405162461bcd60e51b815260206004820152600a6024820152692b249d1010bb37ba32b960b11b6044820152606401610748565b6001600160a01b0381166000908152600e60209081526040808320858452909152902054841115610ce65760405162461bcd60e51b815260206004820152601160248201527056493a2021757365722062616c616e636560781b6044820152606401610748565b6000828152600d602052604081208054869290610d04908490612f02565b90915550506001600160a01b0381166000908152600e6020908152604080832085845290915281208054869290610d3c908490612f02565b909155505060405184815283907f0c875c8d391179c5cf7ad8303d268efd50b8beb78b671f85cd54bfb91eb8ef40906020015b60405180910390a25050610d836001600055565b5050565b6007546001600160a01b0316331480610daa57506005546001600160a01b031633145b610dc65760405162461bcd60e51b815260040161074890612e34565b6001600160a01b038116610dd957600080fd5b600480546001600160a01b0319166001600160a01b0383169081179091556040517fc6ff127433b785c51da9ae4088ee184c909b1a55b9afd82ae6c64224d3bc15d290600090a250565b6000610e2f83836123e8565b9392505050565b6007546001600160a01b0316331480610e5957506005546001600160a01b031633145b610e755760405162461bcd60e51b815260040161074890612e34565b80610e925760405162461bcd60e51b815260040161074890612e95565b60005b81811015610aff57610ecc838383818110610eb257610eb2612eb9565b9050602002016020810190610ec79190612c18565b612456565b600101610e95565b600062093a80600a60009054906101000a90046001600160a01b03166001600160a01b031663d13996086040518163ffffffff1660e01b8152600401602060405180830381865afa158015610f2d573d6000803e3d6000fd5b505050506040513d601f19601f82011682018060405250810190610f519190612e63565b610f5b9190612f15565b905090565b60038181548110610f7057600080fd5b6000918252602090912001546001600160a01b0316905081565b610f92612347565b610f9a6123a0565b60008033815b8481101561106a576000868683818110610fbc57610fbc612eb9565b9050602002016020810190610fd19190612c18565b9050610fdd83826124f2565b95509350831561103757610ffb6001600160a01b03821684866121a6565b806001600160a01b0316836001600160a01b0316600080516020612fe48339815191528660405161102e91815260200190565b60405180910390a35b6001600160a01b038084166000908152600c60209081526040808320949093168252929092529020849055600101610fa0565b50505050610d836001600055565b611080612347565b6110886123a0565b6001600160a01b03831660009081526010602052604090205460ff166110c05760405162461bcd60e51b815260040161074890612f28565b600a5460408051631a2732c160e31b815290516000926001600160a01b03169163d13996089160048083019260209291908290030181865afa15801561110a573d6000803e3d6000fd5b505050506040513d601f19601f8201168201806040525081019061112e9190612e63565b9050600080835b808310156111ab5785858481811061114f5761114f612eb9565b90506020020135826111619190612f15565b91506111a08787878681811061117957611179612eb9565b905060200201358562093a8061118f9190612f5b565b6111999088612f15565b60006125b1565b600190920191611135565b600082116111ea5760405162461bcd60e51b815260206004820152600c60248201526b7a65726f207265776172647360a01b6044820152606401610748565b6111ff6001600160a01b03881633308561272f565b50505050610aff6001600055565b6009546040516331a9108f60e11b81526004810184905260009182916001600160a01b0390911690636352211e90602401602060405180830381865afa15801561125b573d6000803e3d6000fd5b505050506040513d601f19601f8201168201806040525081019061127f9190612ecf565b6001600160a01b03166000908152600e6020908152604080832086845290915290205491505092915050565b6007546001600160a01b03163314806112ce57506005546001600160a01b031633145b6112ea5760405162461bcd60e51b815260040161074890612e34565b61086d81612456565b600080600a60009054906101000a90046001600160a01b03166001600160a01b031663d13996086040518163ffffffff1660e01b8152600401602060405180830381865afa158015611349573d6000803e3d6000fd5b505050506040513d601f19601f8201168201806040525081019061136d9190612e63565b6009546040516331a9108f60e11b8152600481018690529192506000916001600160a01b0390911690636352211e90602401602060405180830381865afa1580156113bc573d6000803e3d6000fd5b505050506040513d601f19601f820116820180604052508101906113e09190612ecf565b6001600160a01b03166000908152600e6020908152604080832094835293905291909120549392505050565b600a5460408051631a2732c160e31b815290516000926001600160a01b03169163d13996089160048083019260209291908290030181865afa158015611456573d6000803e3d6000fd5b505050506040513d601f19601f82011682018060405250810190610f5b9190612e63565b6007546001600160a01b031633148061149d57506005546001600160a01b031633145b6114b95760405162461bcd60e51b815260040161074890612e34565b61086d816122fd565b6007546001600160a01b03163314806114e557506005546001600160a01b031633145b6115015760405162461bcd60e51b815260040161074890612e34565b6040516370a0823160e01b81526001600160a01b038316906370a082319061152d903090600401612c04565b602060405180830381865afa15801561154a573d6000803e3d6000fd5b505050506040513d601f19601f8201168201806040525081019061156e9190612e63565b81111561157a57600080fd5b600a5460408051631a2732c160e31b815290516000926001600160a01b03169163d13996089160048083019260209291908290030181865afa1580156115c4573d6000803e3d6000fd5b505050506040513d601f19601f820116820180604052508101906115e89190612e63565b6001600160a01b0384166000908152600f60209081526040808320848452909152812060010180549293508492909190611623908490612f02565b90915550506001600160a01b0383166000908152600f602090815260408083208484529091528120600301805484929061165e908490612f02565b90915550506001600160a01b0383166000908152600f602090815260408083208484529091529081902042600490910155517f8c1256b8896378cd5044f80c202f9772b9d77dc85c8a6eb51967210b09bfaa28906116bf9085908590612e7c565b60405180910390a1505050565b6116d4612347565b6116dc6123a0565b6008546001600160a01b03163314611707576040516312aa60cd60e31b815260040160405180910390fd5b6009546040516331a9108f60e11b8152600481018590526000918291829182916001600160a01b0390911690636352211e90602401602060405180830381865afa158015611759573d6000803e3d6000fd5b505050506040513d601f19601f8201168201806040525081019061177d9190612ecf565b90505b848210156111ff57600086868481811061179c5761179c612eb9565b90506020020160208101906117b19190612c18565b90506117bd82826124f2565b955093508315611817576117db6001600160a01b03821683866121a6565b806001600160a01b0316826001600160a01b0316600080516020612fe48339815191528660405161180e91815260200190565b60405180910390a35b6001600160a01b038083166000908152600c60209081526040808320949093168252929092529020849055600190910190611780565b611855612347565b61185d6123a0565b6001600160a01b03821660009081526010602052604090205460ff166118955760405162461bcd60e51b815260040161074890612f28565b600a5460408051631a2732c160e31b815290516000926001600160a01b03169163d13996089160048083019260209291908290030181865afa1580156118df573d6000803e3d6000fd5b505050506040513d601f19601f820116820180604052508101906119039190612e63565b600654909150611923908490849084906001600160a01b031633146125b1565b6119386001600160a01b03841633308561272f565b50610d836001600055565b600080600a60009054906101000a90046001600160a01b03166001600160a01b031663d13996086040518163ffffffff1660e01b8152600401602060405180830381865afa158015611999573d6000803e3d6000fd5b505050506040513d601f19601f820116820180604052508101906119bd9190612e63565b6001600160a01b039093166000908152600e60209081526040808320958352949052929092205492915050565b6007546001600160a01b0316331480611a0d57506005546001600160a01b031633145b611a295760405162461bcd60e51b815260040161074890612e34565b6001600160a01b038116611a6b5760405162461bcd60e51b81526020600482015260096024820152683d32b9379030b2323960b91b6044820152606401610748565b6008546001600160a01b0390811690821603611ab55760405162461bcd60e51b815260206004820152600960248201526839b0b6b29030b2323960b91b6044820152606401610748565b600880546001600160a01b0319166001600160a01b0383169081179091556040517fdfe91dcad2adcb1ecd18d2e830b469081211d6743c1e2dfa893836431fb7879490600090a250565b611b07612347565b611b0f6123a0565b6008546001600160a01b03163314611b3a576040516312aa60cd60e31b815260040160405180910390fd5b60008060005b83811015611c0a576000858583818110611b5c57611b5c612eb9565b9050602002016020810190611b719190612c18565b9050611b7d87826124f2565b945092508215611bd757611b9b6001600160a01b03821688856121a6565b806001600160a01b0316876001600160a01b0316600080516020612fe483398151915285604051611bce91815260200190565b60405180910390a35b6001600160a01b038088166000908152600c60209081526040808320949093168252929092529020839055600101611b40565b505050610aff6001600055565b611c1f612347565b611c276123a0565b60008211611c685760405162461bcd60e51b815260206004820152600e60248201526d043616e6e6f74207374616b6520360941b6044820152606401610748565b6004546001600160a01b03163314611c935760405163c18384c160e01b815260040160405180910390fd5b600a5460408051631a2732c160e31b815290516000926001600160a01b03169163d13996089160048083019260209291908290030181865afa158015611cdd573d6000803e3d6000fd5b505050506040513d601f19601f82011682018060405250810190611d019190612e63565b6009546040516331a9108f60e11b8152600481018590529192506000916001600160a01b0390911690636352211e90602401602060405180830381865afa158015611d50573d6000803e3d6000fd5b505050506040513d601f19601f82011682018060405250810190611d749190612ecf565b905083600d60008481526020019081526020016000206000828254611d999190612f15565b90915550506001600160a01b0381166000908152600e6020908152604080832085845290915281208054869290611dd1908490612f15565b909155505060405184815283907f925435fa7e37e5d9555bb18ce0d62bb9627d0846942e58e5291e9a2dded462ed90602001610d6f565b600080600a60009054906101000a90046001600160a01b03166001600160a01b031663d13996086040518163ffffffff1660e01b8152600401602060405180830381865afa158015611e5e573d6000803e3d6000fd5b505050506040513d601f19601f82011682018060405250810190611e829190612e63565b6009546040516331a9108f60e11b8152600481018790529192506000916001600160a01b0390911690636352211e90602401602060405180830381865afa158015611ed1573d6000803e3d6000fd5b505050506040513d601f19601f82011682018060405250810190611ef59190612ecf565b6001600160a01b038082166000908152600c60209081526040808320938916835292905290812054919250611f2c84838886612283565b50979650505050505050565b611f40612347565b611f486123a0565b60095460405163430c208160e01b81526001600160a01b039091169063430c208190611f7a9033908790600401612e7c565b602060405180830381865afa158015611f97573d6000803e3d6000fd5b505050506040513d601f19601f82011682018060405250810190611fbb9190612f72565b611fc457600080fd5b6009546040516331a9108f60e11b8152600481018590526000918291829182916001600160a01b0390911690636352211e90602401602060405180830381865afa158015612016573d6000803e3d6000fd5b505050506040513d601f19601f8201168201806040525081019061203a9190612ecf565b90505b848210156111ff57600086868481811061205957612059612eb9565b905060200201602081019061206e9190612c18565b905061207a82826124f2565b9550935083156120d4576120986001600160a01b03821683866121a6565b806001600160a01b0316826001600160a01b0316600080516020612fe4833981519152866040516120cb91815260200190565b60405180910390a35b6001600160a01b038083166000908152600c6020908152604080832094909316825292909252902084905560019091019061203d565b6007546001600160a01b031633148061212d57506005546001600160a01b031633145b6121495760405162461bcd60e51b815260040161074890612e34565b6001600160a01b03811661215c57600080fd5b600a80546001600160a01b0319166001600160a01b0383169081179091556040517fcec52196e972044edde8689a1b608e459c5946b7f3e5c8cd3d6d8e126d422e1c90600090a250565b610aff8363a9059cbb60e01b84846040516024016121c5929190612e7c565b60408051601f198184030181529190526020810180516001600160e01b03166001600160e01b03199093169290921790915261276d565b612204612842565b6001805460ff191690557f5db9ee0a495bf2e6ff9c91a7834c1ba4fdd244a5e8aa4e537bd38aeae4b073aa335b60405161223e9190612c04565b60405180910390a1565b6122506123a0565b6001805460ff1916811790557f62e78cea01bee320cd4e420270b5ea74000d11b0c9f74754ebdbfc544b05a25833612231565b600080600085870361229c5760008692509250506122f4565b6002548610156122ac5760025495505b60005b60348110156122ed578787146122ed576122ca85878961288b565b6122d49083612f15565b91506122e362093a8088612f15565b96506001016122af565b5091508490505b94509492505050565b6001600160a01b03811660009081526010602052604090205460ff161561086d576001600160a01b0381166000908152601060205260409020805460ff1916905561086d816128fa565b6002600054036123995760405162461bcd60e51b815260206004820152601f60248201527f5265656e7472616e637947756172643a207265656e7472616e742063616c6c006044820152606401610748565b6002600055565b60015460ff16156123e65760405162461bcd60e51b815260206004820152601060248201526f14185d5cd8589b194e881c185d5cd95960821b6044820152606401610748565b565b6000818152600d6020526040812054810361240557506000610a5b565b6000828152600d60209081526040808320546001600160a01b0387168452600f83528184208685529092529091206003015461244c9069d3c21bcecceda100000090612f5b565b610e2f9190612f8f565b6001600160a01b03811660009081526010602052604090205460ff1615801561248757506001600160a01b03811615155b1561086d576001600160a01b03166000818152601060205260408120805460ff191660019081179091556003805491820181559091527fc2575a0e9e593c00f959f8c92f12db2869c3395a3b0502d05e2516446f71f85b0180546001600160a01b0319169091179055565b6000806000600a60009054906101000a90046001600160a01b03166001600160a01b031663d13996086040518163ffffffff1660e01b8152600401602060405180830381865afa15801561254a573d6000803e3d6000fd5b505050506040513d601f19601f8201168201806040525081019061256e9190612e63565b6001600160a01b038087166000908152600c60209081526040808320938916835292905220549091506125a382828789612283565b9350935050505b9250929050565b6002546000036125c15760028290555b80612607576001600160a01b0384166000908152600f60209081526040808320858452909152812060010180548592906125fc908490612f15565b925050819055612644565b6001600160a01b0384166000908152600f602090815260408083208584529091528120600201805485929061263d908490612f15565b9250508190555b506001600160a01b0384166000908152600f602090815260408083208584529091528120600301805485929061267b908490612f15565b90915550506001600160a01b0384166000908152600f6020908152604080832085845290915290204260049091015560016126b962093a8084612f15565b6126c39190612f02565b6001600160a01b0385166000818152600f602090815260408083208784528252918290209390935580519182529181018590529081018390527f6a6f77044107a33658235d41bedbbaf2fe9ccdceb313143c947a5e76e1ec84749060600160405180910390a150505050565b6040516001600160a01b03808516602483015283166044820152606481018290526127679085906323b872dd60e01b906084016121c5565b50505050565b60006127c2826040518060400160405280602081526020017f5361666545524332303a206c6f772d6c6576656c2063616c6c206661696c6564815250856001600160a01b0316612a089092919063ffffffff16565b90508051600014806127e35750808060200190518101906127e39190612f72565b610aff5760405162461bcd60e51b815260206004820152602a60248201527f5361666545524332303a204552433230206f7065726174696f6e20646964206e6044820152691bdd081cdd58d8d9595960b21b6064820152608401610748565b60015460ff166123e65760405162461bcd60e51b815260206004820152601460248201527314185d5cd8589b194e881b9bdd081c185d5cd95960621b6044820152606401610748565b6001600160a01b0383166000908152600e602090815260408083208484529091528120548082036128c0576000915050610e2f565b60006128cc85856123e8565b9050600069d3c21bcecceda10000006128e58484612f5b565b6128ef9190612f8f565b9350610e2f92505050565b60035460005b81811015610aff57826001600160a01b03166003828154811061292557612925612eb9565b6000918252602090912001546001600160a01b031603612a005761294a600183612f02565b81146129c857600361295d600184612f02565b8154811061296d5761296d612eb9565b600091825260209091200154600380546001600160a01b03909216918390811061299957612999612eb9565b9060005260206000200160006101000a8154816001600160a01b0302191690836001600160a01b031602179055505b60038054806129d9576129d9612fb1565b600082815260209020810160001990810180546001600160a01b0319169055019055505050565b600101612900565b6060612a178484600085612a1f565b949350505050565b606082471015612a805760405162461bcd60e51b815260206004820152602660248201527f416464726573733a20696e73756666696369656e742062616c616e636520666f6044820152651c8818d85b1b60d21b6064820152608401610748565b600080866001600160a01b03168587604051612a9c9190612fc7565b60006040518083038185875af1925050503d8060008114612ad9576040519150601f19603f3d011682016040523d82523d6000602084013e612ade565b606091505b5091509150612aef87838387612afa565b979650505050505050565b60608315612b69578251600003612b62576001600160a01b0385163b612b625760405162461bcd60e51b815260206004820152601d60248201527f416464726573733a2063616c6c20746f206e6f6e2d636f6e74726163740000006044820152606401610748565b5081612a17565b612a178383815115612b7e5781518083602001fd5b8060405162461bcd60e51b81526004016107489190612d3b565b6001600160a01b038116811461086d57600080fd5b60008060408385031215612bc057600080fd5b8235612bcb81612b98565b946020939093013593505050565b801515811461086d57600080fd5b600060208284031215612bf957600080fd5b8135610e2f81612bd9565b6001600160a01b0391909116815260200190565b600060208284031215612c2a57600080fd5b8135610e2f81612b98565b60008060408385031215612c4857600080fd5b8235612c5381612b98565b91506020830135612c6381612b98565b809150509250929050565b60008083601f840112612c8057600080fd5b50813567ffffffffffffffff811115612c9857600080fd5b6020830191508360208260051b85010111156125aa57600080fd5b60008060208385031215612cc657600080fd5b823567ffffffffffffffff811115612cdd57600080fd5b612ce985828601612c6e565b90969095509350505050565b60008060408385031215612d0857600080fd5b50508035926020909101359150565b60005b83811015612d32578181015183820152602001612d1a565b50506000910152565b6020815260008251806020840152612d5a816040850160208701612d17565b601f01601f19169190910160400192915050565b600060208284031215612d8057600080fd5b5035919050565b600080600060408486031215612d9c57600080fd5b8335612da781612b98565b9250602084013567ffffffffffffffff811115612dc357600080fd5b612dcf86828701612c6e565b9497909650939450505050565b600080600060408486031215612df157600080fd5b83359250602084013567ffffffffffffffff811115612dc357600080fd5b60008060408385031215612e2257600080fd5b823591506020830135612c6381612b98565b6020808252601590820152747065726d697373696f6e2069732064656e6965642160581b604082015260600190565b600060208284031215612e7557600080fd5b5051919050565b6001600160a01b03929092168252602082015260400190565b6020808252600a90820152690ac927440d8cadccee8d60b31b604082015260600190565b634e487b7160e01b600052603260045260246000fd5b600060208284031215612ee157600080fd5b8151610e2f81612b98565b634e487b7160e01b600052601160045260246000fd5b81810381811115610a5b57610a5b612eec565b80820180821115610a5b57610a5b612eec565b6020808252601990820152781c995dd85c99081d1bdad95b881b9bdd081d995c9a599a5959603a1b604082015260600190565b8082028115828204841417610a5b57610a5b612eec565b600060208284031215612f8457600080fd5b8151610e2f81612bd9565b600082612fac57634e487b7160e01b600052601260045260246000fd5b500490565b634e487b7160e01b600052603160045260246000fd5b60008251612fd9818460208701612d17565b919091019291505056fe540798df468d7b23d11f156fdb954cb19ad414d150722a7b6d55ba369dea792ea2646970667358221220b1eae190bd312b13aab089b20cad6c8094e11ee970115734710a517335c2941564736f6c634300081c0033472eb4ce8c18505cac19c4d3c6ca5f09ead5bee29fe4d6fac6bb190225cebdd52ad5dda4abad2eba9015076cc6a1db468a91b444067d58b590c8c73985521a04a2646970667358221220af54fedb72113e3202d532d957614212830552fe4834cca012d71023a44c73c264736f6c634300081c0033472eb4ce8c18505cac19c4d3c6ca5f09ead5bee29fe4d6fac6bb190225cebdd52ad5dda4abad2eba9015076cc6a1db468a91b444067d58b590c8c73985521a04",
  "linkReferences": {},
  "deployedLinkReferences": {}
}