{
  "_format": "hh-sol-artifact-1",
  "contractName": "AlgebraVaultFactory",
  "sourceName": "contracts/algebra/AlgebraVaultFactory.sol",
  "abi": [
    {
      "inputs": [
        {
          "internalType": "address",
          "name": "_voter",
          "type": "address"
        },
        {
          "internalType": "address",
          "name": "_algebraFactory",
          "type": "address"
        }
      ],
      "stateMutability": "nonpayable",
      "type": "constructor"
    },
    {
      "inputs": [],
      "name": "NotAlgebraFactory",
      "type": "error"
    },
    {
      "inputs": [],
      "name": "ZeroAddress",
      "type": "error"
    },
    {
      "anonymous": false,
      "inputs": [
        {
          "indexed": true,
          "internalType": "bytes32",
          "name": "role",
          "type": "bytes32"
        },
        {
          "indexed": true,
          "internalType": "bytes32",
          "name": "previousAdminRole",
          "type": "bytes32"
        },
        {
          "indexed": true,
          "internalType": "bytes32",
          "name": "newAdminRole",
          "type": "bytes32"
        }
      ],
      "name": "RoleAdminChanged",
      "type": "event"
    },
    {
      "anonymous": false,
      "inputs": [
        {
          "indexed": true,
          "internalType": "bytes32",
          "name": "role",
          "type": "bytes32"
        },
        {
          "indexed": true,
          "internalType": "address",
          "name": "account",
          "type": "address"
        },
        {
          "indexed": true,
          "internalType": "address",
          "name": "sender",
          "type": "address"
        }
      ],
      "name": "RoleGranted",
      "type": "event"
    },
    {
      "anonymous": false,
      "inputs": [
        {
          "indexed": true,
          "internalType": "bytes32",
          "name": "role",
          "type": "bytes32"
        },
        {
          "indexed": true,
          "internalType": "address",
          "name": "account",
          "type": "address"
        },
        {
          "indexed": true,
          "internalType": "address",
          "name": "sender",
          "type": "address"
        }
      ],
      "name": "RoleRevoked",
      "type": "event"
    },
    {
      "anonymous": false,
      "inputs": [
        {
          "indexed": true,
          "internalType": "address",
          "name": "pool",
          "type": "address"
        },
        {
          "indexed": false,
          "internalType": "uint16",
          "name": "newFee",
          "type": "uint16"
        }
      ],
      "name": "SetCommunityFee",
      "type": "event"
    },
    {
      "anonymous": false,
      "inputs": [
        {
          "indexed": true,
          "internalType": "address",
          "name": "pool",
          "type": "address"
        },
        {
          "indexed": true,
          "internalType": "address",
          "name": "vault",
          "type": "address"
        },
        {
          "indexed": true,
          "internalType": "address",
          "name": "gauge",
          "type": "address"
        }
      ],
      "name": "SetGauge",
      "type": "event"
    },
    {
      "anonymous": false,
      "inputs": [
        {
          "indexed": true,
          "internalType": "address",
          "name": "oldTreasury",
          "type": "address"
        },
        {
          "indexed": true,
          "internalType": "address",
          "name": "newTreasury",
          "type": "address"
        }
      ],
      "name": "SetTreasury",
      "type": "event"
    },
    {
      "anonymous": false,
      "inputs": [
        {
          "indexed": true,
          "internalType": "uint32",
          "name": "oldShare",
          "type": "uint32"
        },
        {
          "indexed": true,
          "internalType": "uint32",
          "name": "newShare",
          "type": "uint32"
        }
      ],
      "name": "SetTreasuryShare",
      "type": "event"
    },
    {
      "anonymous": false,
      "inputs": [
        {
          "indexed": true,
          "internalType": "address",
          "name": "oldVoter",
          "type": "address"
        },
        {
          "indexed": true,
          "internalType": "address",
          "name": "newVoter",
          "type": "address"
        }
      ],
      "name": "SetVoter",
      "type": "event"
    },
    {
      "anonymous": false,
      "inputs": [
        {
          "indexed": true,
          "internalType": "address",
          "name": "pool",
          "type": "address"
        },
        {
          "indexed": true,
          "internalType": "address",
          "name": "vault",
          "type": "address"
        }
      ],
      "name": "VaultCreated",
      "type": "event"
    },
    {
      "anonymous": false,
      "inputs": [
        {
          "indexed": true,
          "internalType": "address",
          "name": "to",
          "type": "address"
        },
        {
          "indexed": false,
          "internalType": "address[]",
          "name": "vaults",
          "type": "address[]"
        },
        {
          "indexed": false,
          "internalType": "address[][]",
          "name": "tokens",
          "type": "address[][]"
        },
        {
          "indexed": false,
          "internalType": "uint256[][]",
          "name": "amounts",
          "type": "uint256[][]"
        }
      ],
      "name": "VaultWithdrawal",
      "type": "event"
    },
    {
      "inputs": [],
      "name": "DEFAULT_ADMIN_ROLE",
      "outputs": [
        {
          "internalType": "bytes32",
          "name": "",
          "type": "bytes32"
        }
      ],
      "stateMutability": "view",
      "type": "function"
    },
    {
      "inputs": [],
      "name": "FACTORY_VAULT_MANAGER_ROLE",
      "outputs": [
        {
          "internalType": "bytes32",
          "name": "",
          "type": "bytes32"
        }
      ],
      "stateMutability": "view",
      "type": "function"
    },
    {
      "inputs": [],
      "name": "PRECISION",
      "outputs": [
        {
          "internalType": "uint32",
          "name": "",
          "type": "uint32"
        }
      ],
      "stateMutability": "view",
      "type": "function"
    },
    {
      "inputs": [],
      "name": "algebraFactory",
      "outputs": [
        {
          "internalType": "address",
          "name": "",
          "type": "address"
        }
      ],
      "stateMutability": "view",
      "type": "function"
    },
    {
      "inputs": [
        {
          "internalType": "address",
          "name": "pool",
          "type": "address"
        }
      ],
      "name": "createVaultForPool",
      "outputs": [
        {
          "internalType": "address",
          "name": "_vault",
          "type": "address"
        }
      ],
      "stateMutability": "nonpayable",
      "type": "function"
    },
    {
      "inputs": [],
      "name": "feeInfoTreasury",
      "outputs": [
        {
          "internalType": "bool",
          "name": "isActive",
          "type": "bool"
        },
        {
          "internalType": "uint32",
          "name": "share",
          "type": "uint32"
        },
        {
          "internalType": "address",
          "name": "receiver",
          "type": "address"
        }
      ],
      "stateMutability": "view",
      "type": "function"
    },
    {
      "inputs": [
        {
          "internalType": "bytes32",
          "name": "role",
          "type": "bytes32"
        }
      ],
      "name": "getRoleAdmin",
      "outputs": [
        {
          "internalType": "bytes32",
          "name": "",
          "type": "bytes32"
        }
      ],
      "stateMutability": "view",
      "type": "function"
    },
    {
      "inputs": [
        {
          "internalType": "uint256",
          "name": "amount",
          "type": "uint256"
        }
      ],
      "name": "getTreasuryFees",
      "outputs": [
        {
          "internalType": "uint256",
          "name": "treasuryAmount",
          "type": "uint256"
        }
      ],
      "stateMutability": "view",
      "type": "function"
    },
    {
      "inputs": [],
      "name": "getTreasuryReceiver",
      "outputs": [
        {
          "internalType": "address",
          "name": "treasury",
          "type": "address"
        }
      ],
      "stateMutability": "view",
      "type": "function"
    },
    {
      "inputs": [
        {
          "internalType": "address",
          "name": "pool",
          "type": "address"
        }
      ],
      "name": "getVaultForPool",
      "outputs": [
        {
          "internalType": "address",
          "name": "",
          "type": "address"
        }
      ],
      "stateMutability": "view",
      "type": "function"
    },
    {
      "inputs": [
        {
          "internalType": "bytes32",
          "name": "role",
          "type": "bytes32"
        },
        {
          "internalType": "address",
          "name": "account",
          "type": "address"
        }
      ],
      "name": "grantRole",
      "outputs": [],
      "stateMutability": "nonpayable",
      "type": "function"
    },
    {
      "inputs": [
        {
          "internalType": "bytes32",
          "name": "role",
          "type": "bytes32"
        },
        {
          "internalType": "address",
          "name": "account",
          "type": "address"
        }
      ],
      "name": "hasRole",
      "outputs": [
        {
          "internalType": "bool",
          "name": "",
          "type": "bool"
        }
      ],
      "stateMutability": "view",
      "type": "function"
    },
    {
      "inputs": [
        {
          "internalType": "address",
          "name": "pool",
          "type": "address"
        }
      ],
      "name": "poolToVault",
      "outputs": [
        {
          "internalType": "address",
          "name": "vault",
          "type": "address"
        }
      ],
      "stateMutability": "view",
      "type": "function"
    },
    {
      "inputs": [
        {
          "internalType": "bytes32",
          "name": "role",
          "type": "bytes32"
        },
        {
          "internalType": "address",
          "name": "account",
          "type": "address"
        }
      ],
      "name": "renounceRole",
      "outputs": [],
      "stateMutability": "nonpayable",
      "type": "function"
    },
    {
      "inputs": [
        {
          "internalType": "bytes32",
          "name": "role",
          "type": "bytes32"
        },
        {
          "internalType": "address",
          "name": "account",
          "type": "address"
        }
      ],
      "name": "revokeRole",
      "outputs": [],
      "stateMutability": "nonpayable",
      "type": "function"
    },
    {
      "inputs": [
        {
          "internalType": "address",
          "name": "pool",
          "type": "address"
        },
        {
          "internalType": "uint16",
          "name": "newCommunityFee",
          "type": "uint16"
        }
      ],
      "name": "setCommunityFee",
      "outputs": [],
      "stateMutability": "nonpayable",
      "type": "function"
    },
    {
      "inputs": [
        {
          "internalType": "address",
          "name": "_treasury",
          "type": "address"
        }
      ],
      "name": "setTreasury",
      "outputs": [],
      "stateMutability": "nonpayable",
      "type": "function"
    },
    {
      "inputs": [
        {
          "internalType": "uint32",
          "name": "_treasuryShare",
          "type": "uint32"
        }
      ],
      "name": "setTreasuryShare",
      "outputs": [],
      "stateMutability": "nonpayable",
      "type": "function"
    },
    {
      "inputs": [
        {
          "internalType": "address",
          "name": "_voter",
          "type": "address"
        }
      ],
      "name": "setVoter",
      "outputs": [],
      "stateMutability": "nonpayable",
      "type": "function"
    },
    {
      "inputs": [
        {
          "internalType": "bytes4",
          "name": "interfaceId",
          "type": "bytes4"
        }
      ],
      "name": "supportsInterface",
      "outputs": [
        {
          "internalType": "bool",
          "name": "",
          "type": "bool"
        }
      ],
      "stateMutability": "view",
      "type": "function"
    },
    {
      "inputs": [],
      "name": "voter",
      "outputs": [
        {
          "internalType": "address",
          "name": "",
          "type": "address"
        }
      ],
      "stateMutability": "view",
      "type": "function"
    },
    {
      "inputs": [
        {
          "internalType": "address",
          "name": "to",
          "type": "address"
        },
        {
          "internalType": "address[]",
          "name": "vault",
          "type": "address[]"
        },
        {
          "internalType": "address[][]",
          "name": "token",
          "type": "address[][]"
        },
        {
          "internalType": "uint256[][]",
          "name": "amount",
          "type": "uint256[][]"
        }
      ],
      "name": "withdrawFromVault",
      "outputs": [],
      "stateMutability": "nonpayable",
      "type": "function"
    },
    {
      "inputs": [
        {
          "internalType": "address",
          "name": "to",
          "type": "address"
        },
        {
          "internalType": "address[]",
          "name": "pools",
          "type": "address[]"
        },
        {
          "internalType": "address[][]",
          "name": "token",
          "type": "address[][]"
        },
        {
          "internalType": "uint256[][]",
          "name": "amount",
          "type": "uint256[][]"
        }
      ],
      "name": "withdrawFromVaultWithPools",
      "outputs": [],
      "stateMutability": "nonpayable",
      "type": "function"
    }
  ],
  "bytecode": "0x608060405234801561001057600080fd5b50604051612e3d380380612e3d83398101604081905261002f916101d3565b6001600160a01b0382166100565760405163d92e233d60e01b815260040160405180910390fd5b6001600160a01b03811661007d5760405163d92e233d60e01b815260040160405180910390fd5b600280546001600160a01b038085166001600160a01b03199283161790925560038054928416929091169190911790556040805160608101825260018082526000602083018190529190920181905281546001600160c81b03191682179091556100e79033610118565b6101117f90fb7ad8c058c7ad7a6703544465fefa9f297038d3d21b64b96e4713179a435d33610118565b5050610206565b6000828152602081815260408083206001600160a01b038516845290915290205460ff166101b3576000828152602081815260408083206001600160a01b03851684529091529020805460ff191660011790556101723390565b6001600160a01b0316816001600160a01b0316837f2f8788117e7eff1d82e926ec794901d17c78024a50270940304540a733656f0d60405160405180910390a45b5050565b80516001600160a01b03811681146101ce57600080fd5b919050565b600080604083850312156101e657600080fd5b6101ef836101b7565b91506101fd602084016101b7565b90509250929050565b612c28806102156000396000f3fe608060405234801561001057600080fd5b506004361061014d5760003560e01c80638823ab4d116100c3578063cbc480151161007c578063cbc480151461035a578063d547741f1461036d578063d91ae24114610380578063e5e19bd114610395578063f0f44260146103a8578063f6ad9878146103bb57600080fd5b80638823ab4d1461029f57806391d14854146102b7578063a217fddf146102ca578063a7b64b04146102d2578063aaf5eb68146102e5578063ab2739021461030457600080fd5b8063248a9ca311610115578063248a9ca3146102045780632f2ff15d1461022757806336568abe1461023a57806346c96aac1461024d5780634bc2a657146102605780637570e3891461027357600080fd5b806301ffc9a7146101525780630a7c12b61461017a5780630af5822a146101bb57806311c75c1d146101dc5780632387182d146101f1575b600080fd5b610165610160366004610f88565b6103ce565b60405190151581526020015b60405180910390f35b6101a3610188366004610fc7565b6004602052600090815260409020546001600160a01b031681565b6040516001600160a01b039091168152602001610171565b6101ce6101c9366004610fe4565b610405565b604051908152602001610171565b6101ef6101ea366004610ffd565b61043f565b005b6101ef6101ff36600461103d565b610587565b6101ce610212366004610fe4565b60009081526020819052604090206001015490565b6101ef610235366004611063565b6105f4565b6101ef610248366004611063565b61061e565b6002546101a3906001600160a01b031681565b6101ef61026e366004610fc7565b6106a1565b6101a3610281366004610fc7565b6001600160a01b039081166000908152600460205260409020541690565b600154600160281b90046001600160a01b03166101a3565b6101656102c5366004611063565b610733565b6101ce600081565b6003546101a3906001600160a01b031681565b6102ef620f424081565b60405163ffffffff9091168152602001610171565b60015461032f9060ff811690610100810463ffffffff1690600160281b90046001600160a01b031683565b60408051931515845263ffffffff90921660208401526001600160a01b031690820152606001610171565b6101a3610368366004610fc7565b61075c565b6101ef61037b366004611063565b610878565b6101ce600080516020612bd383398151915281565b6101ef6103a33660046110d3565b61089d565b6101ef6103b6366004610fc7565b6109f2565b6101ef6103c93660046110d3565b610a92565b60006001600160e01b03198216637965db0b60e01b14806103ff57506301ffc9a760e01b6001600160e01b03198316145b92915050565b60015460009060ff161561043a57600154620f42409061043090610100900463ffffffff168461119f565b6103ff91906111b6565b919050565b6000336001600160a01b0316836001600160a01b031663ef01df4f6040518163ffffffff1660e01b8152600401602060405180830381865afa158015610489573d6000803e3d6000fd5b505050506040513d601f19601f820116820180604052508101906104ad91906111d8565b6001600160a01b0316146104c25760006104c5565b60015b9050806104e3576104e3600080516020612bd3833981519152610c78565b60405163120543ad60e11b815261ffff831660048201526001600160a01b0384169063240a875a90602401600060405180830381600087803b15801561052857600080fd5b505af115801561053c573d6000803e3d6000fd5b505060405161ffff851681526001600160a01b03861692507f87601c40f3b9684b6f0eba0102ad5a76bde77f94ecc38c0bd61f18935497998b915060200160405180910390a2505050565b600080516020612bd383398151915261059f81610c78565b6001805463ffffffff84811661010081810264ffffffff001985161790945560405193909204169182907f4d5cedab334d8edf40bbd004db2499276efd159b4c8731469bc7de788d0b18d890600090a3505050565b60008281526020819052604090206001015461060f81610c78565b6106198383610c85565b505050565b6001600160a01b03811633146106935760405162461bcd60e51b815260206004820152602f60248201527f416363657373436f6e74726f6c3a2063616e206f6e6c792072656e6f756e636560448201526e103937b632b9903337b91039b2b63360891b60648201526084015b60405180910390fd5b61069d8282610d09565b5050565b600080516020612bd38339815191526106b981610c78565b6001600160a01b0382166106e05760405163d92e233d60e01b815260040160405180910390fd5b600280546001600160a01b038481166001600160a01b0319831681179093556040519116919082907fbb6f01f955e930367eb0fac583ec04af4f8be9a3f88872a9622eb0a649b8bcb790600090a3505050565b6000918252602082815260408084206001600160a01b0393909316845291905290205460ff1690565b600080610777600080516020612bd383398151915233610733565b90508015801561079257506003546001600160a01b03163314155b156107b05760405163c8baeeb560e01b815260040160405180910390fd5b6001600160a01b0383166107d75760405163d92e233d60e01b815260040160405180910390fd5b82306040516107e590610f7b565b6001600160a01b03928316815291166020820152604001604051809103906000f080158015610818573d6000803e3d6000fd5b506001600160a01b0384811660008181526004602052604080822080546001600160a01b031916948616948517905551939550919290917f5d9c31ffa0fecffd7cf379989a3c7af252f0335e0d2a1320b55245912c781f5391a350919050565b60008281526020819052604090206001015461089381610c78565b6106198383610d09565b600080516020612bd38339815191526108b581610c78565b60005b8681101561099c578787828181106108d2576108d26111f5565b90506020020160208101906108e79190610fc7565b6001600160a01b031663edbd76688a888885818110610908576109086111f5565b905060200281019061091a919061120b565b88888781811061092c5761092c6111f5565b905060200281019061093e919061120b565b6040518663ffffffff1660e01b815260040161095e9594939291906112d0565b600060405180830381600087803b15801561097857600080fd5b505af115801561098c573d6000803e3d6000fd5b5050600190920191506108b89050565b50876001600160a01b03167f1add5e2f2142a8f0259a5de73abf3cabbb5ea7e526dca68d2a39ecab5b44aaa98888888888886040516109e096959493929190611446565b60405180910390a25050505050505050565b600080516020612bd3833981519152610a0a81610c78565b6001600160a01b038216610a315760405163d92e233d60e01b815260040160405180910390fd5b600180546001600160a01b03848116600160281b81810265010000000000600160c81b031985161790945560405193909204169182907f190c262dc6f09322c68a13bf67c9659e58367755ba6190fa7ce5ca8aa45a877d90600090a3505050565b600080516020612bd3833981519152610aaa81610c78565b6000866001600160401b03811115610ac457610ac461148f565b604051908082528060200260200182016040528015610aed578160200160208202803683370190505b50905060005b87811015610c23576000600460008b8b85818110610b1357610b136111f5565b9050602002016020810190610b289190610fc7565b6001600160a01b0390811682526020820192909252604001600020548451911691508190849084908110610b5e57610b5e6111f5565b6001600160a01b039283166020918202929092010152811663edbd76688c8a8a86818110610b8e57610b8e6111f5565b9050602002810190610ba0919061120b565b8a8a88818110610bb257610bb26111f5565b9050602002810190610bc4919061120b565b6040518663ffffffff1660e01b8152600401610be49594939291906112d0565b600060405180830381600087803b158015610bfe57600080fd5b505af1158015610c12573d6000803e3d6000fd5b505060019093019250610af3915050565b50886001600160a01b03167f1add5e2f2142a8f0259a5de73abf3cabbb5ea7e526dca68d2a39ecab5b44aaa98288888888604051610c659594939291906114a5565b60405180910390a2505050505050505050565b610c828133610d6e565b50565b610c8f8282610733565b61069d576000828152602081815260408083206001600160a01b03851684529091529020805460ff19166001179055610cc53390565b6001600160a01b0316816001600160a01b0316837f2f8788117e7eff1d82e926ec794901d17c78024a50270940304540a733656f0d60405160405180910390a45050565b610d138282610733565b1561069d576000828152602081815260408083206001600160a01b0385168085529252808320805460ff1916905551339285917ff6391f5c32d9c69d2a47ea670b442974b53935d1edc7fd64eb21e047a839171b9190a45050565b610d788282610733565b61069d57610d8581610dc7565b610d90836020610dd9565b604051602001610da1929190611537565b60408051601f198184030181529082905262461bcd60e51b825261068a916004016115a6565b60606103ff6001600160a01b03831660145b60606000610de883600261119f565b610df39060026115d9565b6001600160401b03811115610e0a57610e0a61148f565b6040519080825280601f01601f191660200182016040528015610e34576020820181803683370190505b509050600360fc1b81600081518110610e4f57610e4f6111f5565b60200101906001600160f81b031916908160001a905350600f60fb1b81600181518110610e7e57610e7e6111f5565b60200101906001600160f81b031916908160001a9053506000610ea284600261119f565b610ead9060016115d9565b90505b6001811115610f25576f181899199a1a9b1b9c1cb0b131b232b360811b85600f1660108110610ee157610ee16111f5565b1a60f81b828281518110610ef757610ef76111f5565b60200101906001600160f81b031916908160001a90535060049490941c93610f1e816115ec565b9050610eb0565b508315610f745760405162461bcd60e51b815260206004820181905260248201527f537472696e67733a20686578206c656e67746820696e73756666696369656e74604482015260640161068a565b9392505050565b6115cf8061160483390190565b600060208284031215610f9a57600080fd5b81356001600160e01b031981168114610f7457600080fd5b6001600160a01b0381168114610c8257600080fd5b600060208284031215610fd957600080fd5b8135610f7481610fb2565b600060208284031215610ff657600080fd5b5035919050565b6000806040838503121561101057600080fd5b823561101b81610fb2565b9150602083013561ffff8116811461103257600080fd5b809150509250929050565b60006020828403121561104f57600080fd5b813563ffffffff81168114610f7457600080fd5b6000806040838503121561107657600080fd5b82359150602083013561103281610fb2565b60008083601f84011261109a57600080fd5b5081356001600160401b038111156110b157600080fd5b6020830191508360208260051b85010111156110cc57600080fd5b9250929050565b60008060008060008060006080888a0312156110ee57600080fd5b87356110f981610fb2565b965060208801356001600160401b0381111561111457600080fd5b6111208a828b01611088565b90975095505060408801356001600160401b0381111561113f57600080fd5b61114b8a828b01611088565b90955093505060608801356001600160401b0381111561116a57600080fd5b6111768a828b01611088565b989b979a50959850939692959293505050565b634e487b7160e01b600052601160045260246000fd5b80820281158282048414176103ff576103ff611189565b6000826111d357634e487b7160e01b600052601260045260246000fd5b500490565b6000602082840312156111ea57600080fd5b8151610f7481610fb2565b634e487b7160e01b600052603260045260246000fd5b6000808335601e1984360301811261122257600080fd5b8301803591506001600160401b0382111561123c57600080fd5b6020019150600581901b36038213156110cc57600080fd5b81835260208301925060008160005b8481101561129457813561127681610fb2565b6001600160a01b031686526020958601959190910190600101611263565b5093949350505050565b81835260006001600160fb1b038311156112b757600080fd5b8260051b80836020870137939093016020019392505050565b6001600160a01b03861681526060602082018190526000906112f59083018688611254565b828103604084015261130881858761129e565b98975050505050505050565b6000808335601e1984360301811261132b57600080fd5b83016020810192503590506001600160401b0381111561134a57600080fd5b8060051b36038213156110cc57600080fd5b60008383855260208501945060208460051b8201018360005b868110156113e357838303601f190188526113908287611314565b8085526020850160005b828110156113ca5783356113ad81610fb2565b6001600160a01b031682526020938401939091019060010161139a565b5060209a8b019a90955093909301925050600101611375565b50909695505050505050565b60008383855260208501945060208460051b8201018360005b868110156113e357838303601f190188526114238287611314565b61142e85828461129e565b60209a8b019a90955093909301925050600101611408565b60608152600061145a60608301888a611254565b828103602084015261146d81878961135c565b905082810360408401526114828185876113ef565b9998505050505050505050565b634e487b7160e01b600052604160045260246000fd5b6060808252865190820181905260009060208801906080840190835b818110156114e85783516001600160a01b03168352602093840193909201916001016114c1565b505083810360208501526114fd81888a61135c565b91505082810360408401526113088185876113ef565b60005b8381101561152e578181015183820152602001611516565b50506000910152565b76020b1b1b2b9b9a1b7b73a3937b61d1030b1b1b7bab73a1604d1b815260008351611569816017850160208801611513565b7001034b99036b4b9b9b4b733903937b6329607d1b601791840191820152835161159a816028840160208801611513565b01602801949350505050565b60208152600082518060208401526115c5816040850160208701611513565b601f01601f19169190910160400192915050565b808201808211156103ff576103ff611189565b6000816115fb576115fb611189565b50600019019056fe60c060405234801561001057600080fd5b506040516115cf3803806115cf83398101604081905261002f91610280565b6001600160a01b0382166100565760405163d92e233d60e01b815260040160405180910390fd5b6001600160a01b03811661007d5760405163d92e233d60e01b815260040160405180910390fd5b6001600160a01b03821660a081905260408051630dfe168160e01b81529051630dfe1681916004808201926020929091908290030181865afa1580156100c7573d6000803e3d6000fd5b505050506040513d601f19601f820116820180604052508101906100eb91906102b3565b600160006101000a8154816001600160a01b0302191690836001600160a01b03160217905550816001600160a01b031663d21220a76040518163ffffffff1660e01b8152600401602060405180830381865afa15801561014f573d6000803e3d6000fd5b505050506040513d601f19601f8201168201806040525081019061017391906102b3565b600280546001600160a01b0319166001600160a01b0392831617905581166080526101be7f051c694253ee1de28d55aa7bc6304f8b568f938d7a7e9bdf84d217e165111cbb826101c5565b50506102d5565b6000828152602081815260408083206001600160a01b038516845290915290205460ff16610260576000828152602081815260408083206001600160a01b03851684529091529020805460ff1916600117905561021f3390565b6001600160a01b0316816001600160a01b0316837f2f8788117e7eff1d82e926ec794901d17c78024a50270940304540a733656f0d60405160405180910390a45b5050565b80516001600160a01b038116811461027b57600080fd5b919050565b6000806040838503121561029357600080fd5b61029c83610264565b91506102aa60208401610264565b90509250929050565b6000602082840312156102c557600080fd5b6102ce82610264565b9392505050565b60805160a0516112b361031c6000396000818160e601526103bc0152600081816101b50152818161032c015281816105520152818161060101526106e301526112b36000f3fe608060405234801561001057600080fd5b50600436106100b45760003560e01c8063983fcda111610071578063983fcda114610181578063a217fddf146101a8578063c45a0155146101b0578063d294f093146101d7578063d547741f146101f4578063edbd76681461020757600080fd5b806301ffc9a7146100b957806316f0115b146100e1578063248a9ca3146101155780632f2ff15d1461014657806336568abe1461015b57806391d148541461016e575b600080fd5b6100cc6100c7366004610f20565b61021a565b60405190151581526020015b60405180910390f35b6101087f000000000000000000000000000000000000000000000000000000000000000081565b6040516100d89190610f4a565b610138610123366004610f5e565b60009081526020819052604090206001015490565b6040519081526020016100d8565b610159610154366004610f8c565b610251565b005b610159610169366004610f8c565b61027b565b6100cc61017c366004610f8c565b6102fe565b6101387f051c694253ee1de28d55aa7bc6304f8b568f938d7a7e9bdf84d217e165111cbb81565b610138600081565b6101087f000000000000000000000000000000000000000000000000000000000000000081565b6101df610327565b604080519283526020830191909152016100d8565b610159610202366004610f8c565b6107db565b610159610215366004611008565b610800565b60006001600160e01b03198216637965db0b60e01b148061024b57506301ffc9a760e01b6001600160e01b03198316145b92915050565b60008281526020819052604090206001015461026c81610965565b6102768383610972565b505050565b6001600160a01b03811633146102f05760405162461bcd60e51b815260206004820152602f60248201527f416363657373436f6e74726f6c3a2063616e206f6e6c792072656e6f756e636560448201526e103937b632b9903337b91039b2b63360891b60648201526084015b60405180910390fd5b6102fa82826109f6565b5050565b6000918252602082815260408084206001600160a01b0393909316845291905290205460ff1690565b6000807f00000000000000000000000000000000000000000000000000000000000000006001600160a01b03166346c96aac6040518163ffffffff1660e01b8152600401602060405180830381865afa158015610388573d6000803e3d6000fd5b505050506040513d601f19601f820116820180604052508101906103ac9190611090565b6001600160a01b0316632045be907f00000000000000000000000000000000000000000000000000000000000000006040518263ffffffff1660e01b81526004016103f79190610f4a565b602060405180830381865afa158015610414573d6000803e3d6000fd5b505050506040513d601f19601f820116820180604052508101906104389190611090565b6001600160a01b0316336001600160a01b0316146104695760405163f664c73b60e01b815260040160405180910390fd5b6001546040516370a0823160e01b81526001600160a01b03909116906370a0823190610499903090600401610f4a565b602060405180830381865afa1580156104b6573d6000803e3d6000fd5b505050506040513d601f19601f820116820180604052508101906104da91906110ad565b6002546040516370a0823160e01b81529193506001600160a01b0316906370a082319061050b903090600401610f4a565b602060405180830381865afa158015610528573d6000803e3d6000fd5b505050506040513d601f19601f8201168201806040525081019061054c91906110ad565b905060007f00000000000000000000000000000000000000000000000000000000000000006001600160a01b0316638823ab4d6040518163ffffffff1660e01b8152600401602060405180830381865afa1580156105ae573d6000803e3d6000fd5b505050506040513d601f19601f820116820180604052508101906105d29190611090565b9050600083156106b8576001600160a01b038216156106775760405163057ac11560e11b8152600481018590527f00000000000000000000000000000000000000000000000000000000000000006001600160a01b031690630af5822a90602401602060405180830381865afa158015610650573d6000803e3d6000fd5b505050506040513d601f19601f8201168201806040525081019061067491906110ad565b90505b801561069457600154610694906001600160a01b03168383610a5b565b61069e81856110dc565b6001549094506106b8906001600160a01b03163386610a5b565b821561079a576001600160a01b038216156107595760405163057ac11560e11b8152600481018490527f00000000000000000000000000000000000000000000000000000000000000006001600160a01b031690630af5822a90602401602060405180830381865afa158015610732573d6000803e3d6000fd5b505050506040513d601f19601f8201168201806040525081019061075691906110ad565b90505b801561077657600254610776906001600160a01b03168383610a5b565b61078081846110dc565b60025490935061079a906001600160a01b03163385610a5b565b604080518581526020810185905233917f85da6ab72d2b48932522aea80adb8ca4fab6cdeb87bc2e7f6c03fd78d3b2100e910160405180910390a250509091565b6000828152602081905260409020600101546107f681610965565b61027683836109f6565b7f051c694253ee1de28d55aa7bc6304f8b568f938d7a7e9bdf84d217e165111cbb61082a81610965565b60005b8481101561095c57838382818110610847576108476110ef565b90506020020135868683818110610860576108606110ef565b90506020020160208101906108759190611105565b6001600160a01b03166370a08231306040518263ffffffff1660e01b81526004016108a09190610f4a565b602060405180830381865afa1580156108bd573d6000803e3d6000fd5b505050506040513d601f19601f820116820180604052508101906108e191906110ad565b1015610900576040516354e0951160e11b815260040160405180910390fd5b61095487858584818110610916576109166110ef565b9050602002013588888581811061092f5761092f6110ef565b90506020020160208101906109449190611105565b6001600160a01b03169190610a5b565b60010161082d565b50505050505050565b61096f8133610aad565b50565b61097c82826102fe565b6102fa576000828152602081815260408083206001600160a01b03851684529091529020805460ff191660011790556109b23390565b6001600160a01b0316816001600160a01b0316837f2f8788117e7eff1d82e926ec794901d17c78024a50270940304540a733656f0d60405160405180910390a45050565b610a0082826102fe565b156102fa576000828152602081815260408083206001600160a01b0385168085529252808320805460ff1916905551339285917ff6391f5c32d9c69d2a47ea670b442974b53935d1edc7fd64eb21e047a839171b9190a45050565b604080516001600160a01b038416602482015260448082018490528251808303909101815260649091019091526020810180516001600160e01b031663a9059cbb60e01b179052610276908490610b06565b610ab782826102fe565b6102fa57610ac481610bdb565b610acf836020610bed565b604051602001610ae0929190611146565b60408051601f198184030181529082905262461bcd60e51b82526102e7916004016111b5565b6000610b5b826040518060400160405280602081526020017f5361666545524332303a206c6f772d6c6576656c2063616c6c206661696c6564815250856001600160a01b0316610d909092919063ffffffff16565b9050805160001480610b7c575080806020019051810190610b7c91906111e8565b6102765760405162461bcd60e51b815260206004820152602a60248201527f5361666545524332303a204552433230206f7065726174696f6e20646964206e6044820152691bdd081cdd58d8d9595960b21b60648201526084016102e7565b606061024b6001600160a01b03831660145b60606000610bfc83600261120a565b610c07906002611221565b67ffffffffffffffff811115610c1f57610c1f611234565b6040519080825280601f01601f191660200182016040528015610c49576020820181803683370190505b509050600360fc1b81600081518110610c6457610c646110ef565b60200101906001600160f81b031916908160001a905350600f60fb1b81600181518110610c9357610c936110ef565b60200101906001600160f81b031916908160001a9053506000610cb784600261120a565b610cc2906001611221565b90505b6001811115610d3a576f181899199a1a9b1b9c1cb0b131b232b360811b85600f1660108110610cf657610cf66110ef565b1a60f81b828281518110610d0c57610d0c6110ef565b60200101906001600160f81b031916908160001a90535060049490941c93610d338161124a565b9050610cc5565b508315610d895760405162461bcd60e51b815260206004820181905260248201527f537472696e67733a20686578206c656e67746820696e73756666696369656e7460448201526064016102e7565b9392505050565b6060610d9f8484600085610da7565b949350505050565b606082471015610e085760405162461bcd60e51b815260206004820152602660248201527f416464726573733a20696e73756666696369656e742062616c616e636520666f6044820152651c8818d85b1b60d21b60648201526084016102e7565b600080866001600160a01b03168587604051610e249190611261565b60006040518083038185875af1925050503d8060008114610e61576040519150601f19603f3d011682016040523d82523d6000602084013e610e66565b606091505b5091509150610e7787838387610e82565b979650505050505050565b60608315610ef1578251600003610eea576001600160a01b0385163b610eea5760405162461bcd60e51b815260206004820152601d60248201527f416464726573733a2063616c6c20746f206e6f6e2d636f6e747261637400000060448201526064016102e7565b5081610d9f565b610d9f8383815115610f065781518083602001fd5b8060405162461bcd60e51b81526004016102e791906111b5565b600060208284031215610f3257600080fd5b81356001600160e01b031981168114610d8957600080fd5b6001600160a01b0391909116815260200190565b600060208284031215610f7057600080fd5b5035919050565b6001600160a01b038116811461096f57600080fd5b60008060408385031215610f9f57600080fd5b823591506020830135610fb181610f77565b809150509250929050565b60008083601f840112610fce57600080fd5b50813567ffffffffffffffff811115610fe657600080fd5b6020830191508360208260051b850101111561100157600080fd5b9250929050565b60008060008060006060868803121561102057600080fd5b853561102b81610f77565b9450602086013567ffffffffffffffff81111561104757600080fd5b61105388828901610fbc565b909550935050604086013567ffffffffffffffff81111561107357600080fd5b61107f88828901610fbc565b969995985093965092949392505050565b6000602082840312156110a257600080fd5b8151610d8981610f77565b6000602082840312156110bf57600080fd5b5051919050565b634e487b7160e01b600052601160045260246000fd5b8181038181111561024b5761024b6110c6565b634e487b7160e01b600052603260045260246000fd5b60006020828403121561111757600080fd5b8135610d8981610f77565b60005b8381101561113d578181015183820152602001611125565b50506000910152565b76020b1b1b2b9b9a1b7b73a3937b61d1030b1b1b7bab73a1604d1b815260008351611178816017850160208801611122565b7001034b99036b4b9b9b4b733903937b6329607d1b60179184019182015283516111a9816028840160208801611122565b01602801949350505050565b60208152600082518060208401526111d4816040850160208701611122565b601f01601f19169190910160400192915050565b6000602082840312156111fa57600080fd5b81518015158114610d8957600080fd5b808202811582820484141761024b5761024b6110c6565b8082018082111561024b5761024b6110c6565b634e487b7160e01b600052604160045260246000fd5b600081611259576112596110c6565b506000190190565b60008251611273818460208701611122565b919091019291505056fea2646970667358221220096ee7528a956d2fc2f8fa52576dd7d8cae7e361b696fee6b20319ae16e9a91564736f6c634300081c003390fb7ad8c058c7ad7a6703544465fefa9f297038d3d21b64b96e4713179a435da26469706673582212207fbae3b2c32a1eb89e11c1704b852336525815921702ad600960146c07e8365264736f6c634300081c0033",
  "linkReferences": {},
  "deployedLinkReferences": {}
}