{
  "_format": "hh-sol-artifact-1",
  "contractName": "Claimer",
  "sourceName": "contracts/Claimer.sol",
  "abi": [
    {
      "inputs": [
        {
          "internalType": "address",
          "name": "_ve",
          "type": "address"
        }
      ],
      "stateMutability": "nonpayable",
      "type": "constructor"
    },
    {
      "anonymous": false,
      "inputs": [
        {
          "indexed": true,
          "internalType": "address",
          "name": "previousOwner",
          "type": "address"
        },
        {
          "indexed": true,
          "internalType": "address",
          "name": "newOwner",
          "type": "address"
        }
      ],
      "name": "OwnershipTransferred",
      "type": "event"
    },
    {
      "inputs": [
        {
          "internalType": "address[]",
          "name": "_gauges",
          "type": "address[]"
        }
      ],
      "name": "claimRewards",
      "outputs": [],
      "stateMutability": "nonpayable",
      "type": "function"
    },
    {
      "inputs": [
        {
          "internalType": "address[]",
          "name": "_gauges",
          "type": "address[]"
        },
        {
          "internalType": "uint256",
          "name": "_tokenId",
          "type": "uint256"
        }
      ],
      "name": "claimRewards",
      "outputs": [],
      "stateMutability": "nonpayable",
      "type": "function"
    },
    {
      "inputs": [
        {
          "internalType": "address[]",
          "name": "_votingIncentives",
          "type": "address[]"
        },
        {
          "internalType": "address[][]",
          "name": "_tokens",
          "type": "address[][]"
        }
      ],
      "name": "claimVotingIncentivesAddress",
      "outputs": [],
      "stateMutability": "nonpayable",
      "type": "function"
    },
    {
      "inputs": [
        {
          "internalType": "address[]",
          "name": "_votingIncentives",
          "type": "address[]"
        },
        {
          "internalType": "address[][]",
          "name": "_tokens",
          "type": "address[][]"
        },
        {
          "internalType": "uint256",
          "name": "_tokenId",
          "type": "uint256"
        }
      ],
      "name": "claimVotingIncentivesTokenId",
      "outputs": [],
      "stateMutability": "nonpayable",
      "type": "function"
    },
    {
      "inputs": [],
      "name": "owner",
      "outputs": [
        {
          "internalType": "address",
          "name": "",
          "type": "address"
        }
      ],
      "stateMutability": "view",
      "type": "function"
    },
    {
      "inputs": [],
      "name": "renounceOwnership",
      "outputs": [],
      "stateMutability": "nonpayable",
      "type": "function"
    },
    {
      "inputs": [
        {
          "internalType": "address",
          "name": "_ve",
          "type": "address"
        }
      ],
      "name": "setVe",
      "outputs": [],
      "stateMutability": "nonpayable",
      "type": "function"
    },
    {
      "inputs": [
        {
          "internalType": "address",
          "name": "newOwner",
          "type": "address"
        }
      ],
      "name": "transferOwnership",
      "outputs": [],
      "stateMutability": "nonpayable",
      "type": "function"
    },
    {
      "inputs": [],
      "name": "ve",
      "outputs": [
        {
          "internalType": "contract IVotingEscrow",
          "name": "",
          "type": "address"
        }
      ],
      "stateMutability": "view",
      "type": "function"
    }
  ],
  "bytecode": "0x6080604052348015600f57600080fd5b50604051610b2c380380610b2c833981016040819052602c9160a7565b6033336057565b600180546001600160a01b0319166001600160a01b039290921691909117905560d5565b600080546001600160a01b038381166001600160a01b0319831681178455604051919092169283917f8be0079c531659141344cd1fd0a4f28419497f9722a3daafe3b4186f6b6457e09190a35050565b60006020828403121560b857600080fd5b81516001600160a01b038116811460ce57600080fd5b9392505050565b610a48806100e46000396000f3fe608060405234801561001057600080fd5b50600436106100835760003560e01c80631f850716146100885780633a566436146100b1578063715018a6146100c65780637a238855146100ce5780638da5cb5b146100e1578063f18b2cfd146100f2578063f2fde38b14610105578063f9f031df14610118578063fad666041461012b575b600080fd5b60015461009b906001600160a01b031681565b6040516100a891906106d8565b60405180910390f35b6100c46100bf366004610737565b61013e565b005b6100c4610283565b6100c46100dc3660046107c3565b610297565b6000546001600160a01b031661009b565b6100c46101003660046107e7565b6102c1565b6100c46101133660046107c3565b610389565b6100c4610126366004610856565b610407565b6100c4610139366004610897565b6104a7565b60015460405163430c208160e01b8152336004820152602481018390526001600160a01b039091169063430c208190604401602060405180830381865afa15801561018d573d6000803e3d6000fd5b505050506040513d601f19601f820116820180604052508101906101b191906108e2565b6101ba57600080fd5b60005b8481101561027b578585828181106101d7576101d7610904565b90506020020160208101906101ec91906107c3565b6001600160a01b031663a7852afa8386868581811061020d5761020d610904565b905060200281019061021f919061091a565b6040518463ffffffff1660e01b815260040161023d939291906109ad565b600060405180830381600087803b15801561025757600080fd5b505af115801561026b573d6000803e3d6000fd5b5050600190920191506101bd9050565b505050505050565b61028b61062e565b6102956000610688565b565b61029f61062e565b600180546001600160a01b0319166001600160a01b0392909216919091179055565b60005b83811015610382578484828181106102de576102de610904565b90506020020160208101906102f391906107c3565b6001600160a01b031663db0ea9843385858581811061031457610314610904565b9050602002810190610326919061091a565b6040518463ffffffff1660e01b8152600401610344939291906109d0565b600060405180830381600087803b15801561035e57600080fd5b505af1158015610372573d6000803e3d6000fd5b5050600190920191506102c49050565b5050505050565b61039161062e565b6001600160a01b0381166103fb5760405162461bcd60e51b815260206004820152602660248201527f4f776e61626c653a206e6577206f776e657220697320746865207a65726f206160448201526564647265737360d01b60648201526084015b60405180910390fd5b61040481610688565b50565b60005b818110156104a25782828281811061042457610424610904565b905060200201602081019061043991906107c3565b6001600160a01b031663055de275336040518263ffffffff1660e01b815260040161046491906106d8565b600060405180830381600087803b15801561047e57600080fd5b505af1158015610492573d6000803e3d6000fd5b50506001909201915061040a9050565b505050565b60015460405163430c208160e01b8152336004820152602481018390526001600160a01b039091169063430c208190604401602060405180830381865afa1580156104f6573d6000803e3d6000fd5b505050506040513d601f19601f8201168201806040525081019061051a91906108e2565b61052357600080fd5b6001546040516331a9108f60e11b8152600481018390526000916001600160a01b031690636352211e90602401602060405180830381865afa15801561056d573d6000803e3d6000fd5b505050506040513d601f19601f8201168201806040525081019061059191906109f5565b905060005b83811015610382578484828181106105b0576105b0610904565b90506020020160208101906105c591906107c3565b6001600160a01b031663055de275836040518263ffffffff1660e01b81526004016105f091906106d8565b600060405180830381600087803b15801561060a57600080fd5b505af115801561061e573d6000803e3d6000fd5b5050600190920191506105969050565b6000546001600160a01b031633146102955760405162461bcd60e51b815260206004820181905260248201527f4f776e61626c653a2063616c6c6572206973206e6f7420746865206f776e657260448201526064016103f2565b600080546001600160a01b038381166001600160a01b0319831681178455604051919092169283917f8be0079c531659141344cd1fd0a4f28419497f9722a3daafe3b4186f6b6457e09190a35050565b6001600160a01b0391909116815260200190565b60008083601f8401126106fe57600080fd5b5081356001600160401b0381111561071557600080fd5b6020830191508360208260051b850101111561073057600080fd5b9250929050565b60008060008060006060868803121561074f57600080fd5b85356001600160401b0381111561076557600080fd5b610771888289016106ec565b90965094505060208601356001600160401b0381111561079057600080fd5b61079c888289016106ec565b96999598509660400135949350505050565b6001600160a01b038116811461040457600080fd5b6000602082840312156107d557600080fd5b81356107e0816107ae565b9392505050565b600080600080604085870312156107fd57600080fd5b84356001600160401b0381111561081357600080fd5b61081f878288016106ec565b90955093505060208501356001600160401b0381111561083e57600080fd5b61084a878288016106ec565b95989497509550505050565b6000806020838503121561086957600080fd5b82356001600160401b0381111561087f57600080fd5b61088b858286016106ec565b90969095509350505050565b6000806000604084860312156108ac57600080fd5b83356001600160401b038111156108c257600080fd5b6108ce868287016106ec565b909790965060209590950135949350505050565b6000602082840312156108f457600080fd5b815180151581146107e057600080fd5b634e487b7160e01b600052603260045260246000fd5b6000808335601e1984360301811261093157600080fd5b8301803591506001600160401b0382111561094b57600080fd5b6020019150600581901b360382131561073057600080fd5b81835260208301925060008160005b848110156109a3578135610985816107ae565b6001600160a01b031686526020958601959190910190600101610972565b5093949350505050565b8381526040602082015260006109c7604083018486610963565b95945050505050565b6001600160a01b03841681526040602082018190526000906109c79083018486610963565b600060208284031215610a0757600080fd5b81516107e0816107ae56fea264697066735822122012dbfb616c60f3c94159d976e4dcd561595d6cbe6bbc63e2f5f7a3eab6a03b3264736f6c634300081c0033",
  "linkReferences": {},
  "deployedLinkReferences": {}
}