{
  "_format": "hh-sol-artifact-1",
  "contractName": "EpochDistributorUpgradeable",
  "sourceName": "contracts/EpochDistributorUpgradeable.sol",
  "abi": [
    {
      "inputs": [],
      "stateMutability": "nonpayable",
      "type": "constructor"
    },
    {
      "inputs": [],
      "name": "AddressZero",
      "type": "error"
    },
    {
      "inputs": [],
      "name": "NotAutomation",
      "type": "error"
    },
    {
      "inputs": [],
      "name": "NotMinter",
      "type": "error"
    },
    {
      "inputs": [],
      "name": "UpdateNotReady",
      "type": "error"
    },
    {
      "anonymous": false,
      "inputs": [
        {
          "indexed": true,
          "internalType": "address",
          "name": "tokenAddress",
          "type": "address"
        },
        {
          "indexed": true,
          "internalType": "address",
          "name": "receiver",
          "type": "address"
        },
        {
          "indexed": false,
          "internalType": "uint256",
          "name": "tokenAmount",
          "type": "uint256"
        }
      ],
      "name": "EmergencyRecoverERC20",
      "type": "event"
    },
    {
      "anonymous": false,
      "inputs": [
        {
          "indexed": false,
          "internalType": "uint8",
          "name": "version",
          "type": "uint8"
        }
      ],
      "name": "Initialized",
      "type": "event"
    },
    {
      "anonymous": false,
      "inputs": [
        {
          "indexed": true,
          "internalType": "uint256",
          "name": "amount",
          "type": "uint256"
        },
        {
          "indexed": false,
          "internalType": "uint256",
          "name": "epochtimestamp",
          "type": "uint256"
        },
        {
          "indexed": true,
          "internalType": "uint256",
          "name": "epoch",
          "type": "uint256"
        }
      ],
      "name": "NotifyRewardAmount",
      "type": "event"
    },
    {
      "anonymous": false,
      "inputs": [
        {
          "indexed": true,
          "internalType": "address",
          "name": "previousOwner",
          "type": "address"
        },
        {
          "indexed": true,
          "internalType": "address",
          "name": "newOwner",
          "type": "address"
        }
      ],
      "name": "OwnershipTransferred",
      "type": "event"
    },
    {
      "anonymous": false,
      "inputs": [
        {
          "indexed": true,
          "internalType": "address",
          "name": "automation",
          "type": "address"
        },
        {
          "indexed": false,
          "internalType": "bool",
          "name": "status",
          "type": "bool"
        }
      ],
      "name": "SetAutomation",
      "type": "event"
    },
    {
      "anonymous": false,
      "inputs": [
        {
          "indexed": true,
          "internalType": "address",
          "name": "minter",
          "type": "address"
        }
      ],
      "name": "SetMinter",
      "type": "event"
    },
    {
      "anonymous": false,
      "inputs": [
        {
          "indexed": true,
          "internalType": "address",
          "name": "voter",
          "type": "address"
        }
      ],
      "name": "SetVoter",
      "type": "event"
    },
    {
      "inputs": [],
      "name": "PRECISION",
      "outputs": [
        {
          "internalType": "uint256",
          "name": "",
          "type": "uint256"
        }
      ],
      "stateMutability": "view",
      "type": "function"
    },
    {
      "inputs": [],
      "name": "WEEK",
      "outputs": [
        {
          "internalType": "uint256",
          "name": "",
          "type": "uint256"
        }
      ],
      "stateMutability": "view",
      "type": "function"
    },
    {
      "inputs": [
        {
          "internalType": "uint256",
          "name": "",
          "type": "uint256"
        }
      ],
      "name": "amountsPerEpoch",
      "outputs": [
        {
          "internalType": "uint256",
          "name": "amount",
          "type": "uint256"
        },
        {
          "internalType": "uint256",
          "name": "totalWeights",
          "type": "uint256"
        },
        {
          "internalType": "uint256",
          "name": "timestamp",
          "type": "uint256"
        },
        {
          "internalType": "uint256",
          "name": "poolsLength",
          "type": "uint256"
        }
      ],
      "stateMutability": "view",
      "type": "function"
    },
    {
      "inputs": [],
      "name": "checkUpKeep",
      "outputs": [
        {
          "internalType": "bool",
          "name": "",
          "type": "bool"
        }
      ],
      "stateMutability": "view",
      "type": "function"
    },
    {
      "inputs": [],
      "name": "currentEpoch",
      "outputs": [
        {
          "internalType": "uint256",
          "name": "",
          "type": "uint256"
        }
      ],
      "stateMutability": "view",
      "type": "function"
    },
    {
      "inputs": [
        {
          "internalType": "uint256",
          "name": "len",
          "type": "uint256"
        },
        {
          "internalType": "uint256",
          "name": "timestamp",
          "type": "uint256"
        },
        {
          "internalType": "uint256",
          "name": "poolsLength",
          "type": "uint256"
        },
        {
          "internalType": "uint256[]",
          "name": "amounts",
          "type": "uint256[]"
        },
        {
          "internalType": "address[]",
          "name": "pools",
          "type": "address[]"
        }
      ],
      "name": "distribute",
      "outputs": [],
      "stateMutability": "nonpayable",
      "type": "function"
    },
    {
      "inputs": [],
      "name": "distributeAll",
      "outputs": [],
      "stateMutability": "nonpayable",
      "type": "function"
    },
    {
      "inputs": [
        {
          "internalType": "address",
          "name": "tokenAddress",
          "type": "address"
        },
        {
          "internalType": "uint256",
          "name": "tokenAmount",
          "type": "uint256"
        }
      ],
      "name": "emergencyRecoverERC20",
      "outputs": [],
      "stateMutability": "nonpayable",
      "type": "function"
    },
    {
      "inputs": [],
      "name": "emissionToken",
      "outputs": [
        {
          "internalType": "address",
          "name": "",
          "type": "address"
        }
      ],
      "stateMutability": "view",
      "type": "function"
    },
    {
      "inputs": [
        {
          "internalType": "address",
          "name": "_minter",
          "type": "address"
        },
        {
          "internalType": "address",
          "name": "_emissionToken",
          "type": "address"
        },
        {
          "internalType": "address",
          "name": "_voter",
          "type": "address"
        }
      ],
      "name": "initialize",
      "outputs": [],
      "stateMutability": "nonpayable",
      "type": "function"
    },
    {
      "inputs": [
        {
          "internalType": "address",
          "name": "",
          "type": "address"
        }
      ],
      "name": "isAutomation",
      "outputs": [
        {
          "internalType": "bool",
          "name": "",
          "type": "bool"
        }
      ],
      "stateMutability": "view",
      "type": "function"
    },
    {
      "inputs": [],
      "name": "lastPool",
      "outputs": [
        {
          "internalType": "uint256",
          "name": "",
          "type": "uint256"
        }
      ],
      "stateMutability": "view",
      "type": "function"
    },
    {
      "inputs": [],
      "name": "minter",
      "outputs": [
        {
          "internalType": "address",
          "name": "",
          "type": "address"
        }
      ],
      "stateMutability": "view",
      "type": "function"
    },
    {
      "inputs": [
        {
          "internalType": "uint256",
          "name": "amount",
          "type": "uint256"
        }
      ],
      "name": "notifyRewardAmount",
      "outputs": [],
      "stateMutability": "nonpayable",
      "type": "function"
    },
    {
      "inputs": [],
      "name": "owner",
      "outputs": [
        {
          "internalType": "address",
          "name": "",
          "type": "address"
        }
      ],
      "stateMutability": "view",
      "type": "function"
    },
    {
      "inputs": [
        {
          "internalType": "address",
          "name": "",
          "type": "address"
        }
      ],
      "name": "poolToLastimestamp",
      "outputs": [
        {
          "internalType": "uint256",
          "name": "",
          "type": "uint256"
        }
      ],
      "stateMutability": "view",
      "type": "function"
    },
    {
      "inputs": [],
      "name": "renounceOwnership",
      "outputs": [],
      "stateMutability": "nonpayable",
      "type": "function"
    },
    {
      "inputs": [
        {
          "internalType": "address",
          "name": "automation",
          "type": "address"
        },
        {
          "internalType": "bool",
          "name": "status",
          "type": "bool"
        }
      ],
      "name": "setAutomation",
      "outputs": [],
      "stateMutability": "nonpayable",
      "type": "function"
    },
    {
      "inputs": [
        {
          "internalType": "address",
          "name": "_minter",
          "type": "address"
        }
      ],
      "name": "setMinter",
      "outputs": [],
      "stateMutability": "nonpayable",
      "type": "function"
    },
    {
      "inputs": [
        {
          "internalType": "address",
          "name": "_voter",
          "type": "address"
        }
      ],
      "name": "setVoter",
      "outputs": [],
      "stateMutability": "nonpayable",
      "type": "function"
    },
    {
      "inputs": [
        {
          "internalType": "address",
          "name": "newOwner",
          "type": "address"
        }
      ],
      "name": "transferOwnership",
      "outputs": [],
      "stateMutability": "nonpayable",
      "type": "function"
    },
    {
      "inputs": [],
      "name": "voter",
      "outputs": [
        {
          "internalType": "address",
          "name": "",
          "type": "address"
        }
      ],
      "stateMutability": "view",
      "type": "function"
    },
    {
      "stateMutability": "payable",
      "type": "receive"
    }
  ],
  "bytecode": "0x6080604052348015600f57600080fd5b50611acd8061001f6000396000f3fe6080604052600436106101385760003560e01c8063715018a6116100ab578063c0c53b8b1161006f578063c0c53b8b146103a0578063c8249d8a146103c0578063e2099438146103d8578063f2fde38b146103f8578063f4359ce514610418578063fca3b5aa1461042f57600080fd5b8063715018a61461032057806376671808146103355780638da5cb5b1461034b57806396bd835a14610369578063aaf5eb681461038957600080fd5b80632fd49abe116100fd5780632fd49abe1461025a5780633c6b16ab1461027e578063436596c41461029e57806346c96aac146102b35780634bc2a657146102d357806361633550146102f357600080fd5b8062504957146101445780630125bb3214610189578063070164fc146101ab578063075461721461020d5780632a5f2f211461023a57600080fd5b3661013f57005b600080fd5b34801561015057600080fd5b5061017461015f3660046115f9565b606c6020526000908152604090205460ff1681565b60405190151581526020015b60405180910390f35b34801561019557600080fd5b506101a96101a436600461161d565b61044f565b005b3480156101b757600080fd5b506101ed6101c6366004611649565b606b6020526000908152604090208054600182015460028301546003909301549192909184565b604080519485526020850193909352918301526060820152608001610180565b34801561021957600080fd5b5060685461022d906001600160a01b031681565b6040516101809190611662565b34801561024657600080fd5b506101a9610255366004611684565b610528565b34801561026657600080fd5b5061027060675481565b604051908152602001610180565b34801561028a57600080fd5b506101a9610299366004611649565b6105b6565b3480156102aa57600080fd5b506101a96107ea565b3480156102bf57600080fd5b50606a5461022d906001600160a01b031681565b3480156102df57600080fd5b506101a96102ee3660046115f9565b6108bc565b3480156102ff57600080fd5b5061027061030e3660046115f9565b606d6020526000908152604090205481565b34801561032c57600080fd5b506101a9610935565b34801561034157600080fd5b5061027060665481565b34801561035757600080fd5b506033546001600160a01b031661022d565b34801561037557600080fd5b506101a9610384366004611709565b610949565b34801561039557600080fd5b50610270620186a081565b3480156103ac57600080fd5b506101a96103bb36600461179b565b610bc8565b3480156103cc57600080fd5b5060655460ff16610174565b3480156103e457600080fd5b5060695461022d906001600160a01b031681565b34801561040457600080fd5b506101a96104133660046115f9565b610d93565b34801561042457600080fd5b5061027062093a8081565b34801561043b57600080fd5b506101a961044a3660046115f9565b610e0c565b610457610e85565b6040516370a0823160e01b81526001600160a01b038316906370a0823190610483903090600401611662565b602060405180830381865afa1580156104a0573d6000803e3d6000fd5b505050506040513d601f19601f820116820180604052508101906104c491906117e6565b8111156104d057600080fd5b6104e46001600160a01b0383163383610edf565b60405181815233906001600160a01b038416907f7714b2e1355dbd618d450d789c3b49e9c81fef8879c49de4e8766e8e6b12fd949060200160405180910390a35050565b610530610e85565b6001600160a01b03821661055757604051639fabe1c160e01b815260040160405180910390fd5b6001600160a01b0382166000818152606c6020908152604091829020805460ff191685151590811790915591519182527f6ffaf15f7938d0883935dc272476aaf5118e628d0578bb7f8d7c0b4e33bb5190910160405180910390a25050565b6105be610f3a565b6069546105d6906001600160a01b0316333084610f65565b600062093a80606860009054906101000a90046001600160a01b03166001600160a01b031663d13996086040518163ffffffff1660e01b8152600401602060405180830381865afa15801561062f573d6000803e3d6000fd5b505050506040513d601f19601f8201168201806040525081019061065391906117e6565b61065d9190611815565b606a54604051632d8b87bf60e21b8152600481018390529192506000916001600160a01b039091169063b62e1efc90602401602060405180830381865afa1580156106ac573d6000803e3d6000fd5b505050506040513d601f19601f820116820180604052508101906106d091906117e6565b90506000606a60009054906101000a90046001600160a01b03166001600160a01b0316632716ae666040518163ffffffff1660e01b8152600401602060405180830381865afa158015610727573d6000803e3d6000fd5b505050506040513d601f19601f8201168201806040525081019061074b91906117e6565b60408051608081018252868152602080820186815282840188815260608401868152606680546000908152606b865287902095518655925160018087019190915591516002860155516003909401939093556065805460ff191690931790925590549151868152929350909186917fb51e36f0682a0a88b8a7c9e51f0f2a311aef13eed2d27b955eac8d4ec44a93a1910160405180910390a350505050565b6107f2610f9d565b6107fa610fcd565b6066546000908152606b602052604080822060030154606a5482516362e28ee560e11b815292519193926001600160a01b039091169163c5c51dca9160048082019286929091908290030181865afa15801561085a573d6000803e3d6000fd5b505050506040513d6000823e601f3d908101601f191682016040526108829190810190611854565b6066546000908152606b60205260408120805460018201546002909201549394509290916108b590868087878787610ff0565b5050505050565b6108c4610e85565b6001600160a01b0381166108eb57604051639fabe1c160e01b815260040160405180910390fd5b606a80546001600160a01b0319166001600160a01b0383169081179091556040517fc6ff127433b785c51da9ae4088ee184c909b1a55b9afd82ae6c64224d3bc15d290600090a250565b61093d610e85565b61094760006112ce565b565b610951610f9d565b610959610fcd565b6000805b88821015610b735787606d600086868681811061097c5761097c611924565b905060200201602081019061099191906115f9565b6001600160a01b03166001600160a01b03168152602001908152602001600020541015610b685760008686848181106109cc576109cc611924565b905060200201351115610b2157606a546001600160a01b0316632045be908585858181106109fc576109fc611924565b9050602002016020810190610a1191906115f9565b6040518263ffffffff1660e01b8152600401610a2d9190611662565b602060405180830381865afa158015610a4a573d6000803e3d6000fd5b505050506040513d601f19601f82011682018060405250810190610a6e919061193a565b9050610aa281878785818110610a8657610a86611924565b6069546001600160a01b03169392602090910201359050610edf565b6069546001600160a01b038083169163b66503cf9116888886818110610aca57610aca611924565b905060200201356040518363ffffffff1660e01b8152600401610aee929190611957565b600060405180830381600087803b158015610b0857600080fd5b505af1158015610b1c573d6000803e3d6000fd5b505050505b87606d6000868686818110610b3857610b38611924565b9050602002016020810190610b4d91906115f9565b6001600160a01b031681526020810191909152604001600020555b60019091019061095d565b8860676000828254610b859190611970565b90915550506067548711610bbd576065805460ff19169055600060678190556066805460019290610bb7908490611970565b90915550505b505050505050505050565b600054610100900460ff1615808015610be85750600054600160ff909116105b80610c025750303b158015610c02575060005460ff166001145b610c6a5760405162461bcd60e51b815260206004820152602e60248201527f496e697469616c697a61626c653a20636f6e747261637420697320616c72656160448201526d191e481a5b9a5d1a585b1a5e995960921b60648201526084015b60405180910390fd5b6000805460ff191660011790558015610c8d576000805461ff0019166101001790555b610c95611320565b6001600160a01b038316610cbc57604051639fabe1c160e01b815260040160405180910390fd5b6001600160a01b038416610ce357604051639fabe1c160e01b815260040160405180910390fd5b6001600160a01b038216610d0a57604051639fabe1c160e01b815260040160405180910390fd5b606880546001600160a01b038087166001600160a01b03199283161790925560698054868416908316179055606a8054928516929091169190911790558015610d8d576000805461ff0019169055604051600181527f7f26b83ff96e1f2b6a682f133852f6798a09c465da95921460cefb38474024989060200160405180910390a15b50505050565b610d9b610e85565b6001600160a01b038116610e005760405162461bcd60e51b815260206004820152602660248201527f4f776e61626c653a206e6577206f776e657220697320746865207a65726f206160448201526564647265737360d01b6064820152608401610c61565b610e09816112ce565b50565b610e14610e85565b6001600160a01b038116610e3b57604051639fabe1c160e01b815260040160405180910390fd5b606880546001600160a01b0319166001600160a01b0383169081179091556040517fcec52196e972044edde8689a1b608e459c5946b7f3e5c8cd3d6d8e126d422e1c90600090a250565b6033546001600160a01b031633146109475760405162461bcd60e51b815260206004820181905260248201527f4f776e61626c653a2063616c6c6572206973206e6f7420746865206f776e65726044820152606401610c61565b610f358363a9059cbb60e01b8484604051602401610efe929190611957565b60408051601f198184030181529190526020810180516001600160e01b03166001600160e01b03199093169290921790915261134f565b505050565b6068546001600160a01b0316331461094757604051633e34a41b60e21b815260040160405180910390fd5b6040516001600160a01b0380851660248301528316604482015260648101829052610d8d9085906323b872dd60e01b90608401610efe565b336000908152606c602052604090205460ff166109475760405163ddb58e8160e01b815260040160405180910390fd5b60655460ff166109475760405163813b023960e01b815260040160405180910390fd5b600080610ffd8989611815565b905060008060005b838510156112765788858151811061101f5761101f611924565b6020026020010151905085606d6000836001600160a01b03166001600160a01b03168152602001908152602001600020541080156110c95750606a54604051635b16ebb760e01b81526001600160a01b0390911690635b16ebb790611088908490600401611662565b602060405180830381865afa1580156110a5573d6000803e3d6000fd5b505050506040513d601f19601f820116820180604052508101906110c99190611983565b1561126b57606a5460405163168e30f560e01b815288916001600160a01b03169063168e30f5906111009085908b90600401611957565b602060405180830381865afa15801561111d573d6000803e3d6000fd5b505050506040513d601f19601f8201168201806040525081019061114191906117e6565b61114b908a6119a0565b61115591906119b7565b9250821561124f57606a546040516302045be960e41b81526001600160a01b0390911690632045be909061118d908490600401611662565b602060405180830381865afa1580156111aa573d6000803e3d6000fd5b505050506040513d601f19601f820116820180604052508101906111ce919061193a565b6069549092506111e8906001600160a01b03168385610edf565b60695460405163b66503cf60e01b81526001600160a01b038481169263b66503cf9261121c92909116908790600401611957565b600060405180830381600087803b15801561123657600080fd5b505af115801561124a573d6000803e3d6000fd5b505050505b6001600160a01b0381166000908152606d602052604090208690555b600190940193611005565b83606760008282546112889190611970565b90915550506067548a116112c0576065805460ff191690556000606781905560668054600192906112ba908490611970565b90915550505b505050505050505050505050565b603380546001600160a01b038381166001600160a01b0319831681179093556040519116919082907f8be0079c531659141344cd1fd0a4f28419497f9722a3daafe3b4186f6b6457e090600090a35050565b600054610100900460ff166113475760405162461bcd60e51b8152600401610c61906119d9565b610947611424565b60006113a4826040518060400160405280602081526020017f5361666545524332303a206c6f772d6c6576656c2063616c6c206661696c6564815250856001600160a01b03166114549092919063ffffffff16565b90508051600014806113c55750808060200190518101906113c59190611983565b610f355760405162461bcd60e51b815260206004820152602a60248201527f5361666545524332303a204552433230206f7065726174696f6e20646964206e6044820152691bdd081cdd58d8d9595960b21b6064820152608401610c61565b600054610100900460ff1661144b5760405162461bcd60e51b8152600401610c61906119d9565b610947336112ce565b6060611463848460008561146b565b949350505050565b6060824710156114cc5760405162461bcd60e51b815260206004820152602660248201527f416464726573733a20696e73756666696369656e742062616c616e636520666f6044820152651c8818d85b1b60d21b6064820152608401610c61565b600080866001600160a01b031685876040516114e89190611a48565b60006040518083038185875af1925050503d8060008114611525576040519150601f19603f3d011682016040523d82523d6000602084013e61152a565b606091505b509150915061153b87838387611546565b979650505050505050565b606083156115b55782516000036115ae576001600160a01b0385163b6115ae5760405162461bcd60e51b815260206004820152601d60248201527f416464726573733a2063616c6c20746f206e6f6e2d636f6e74726163740000006044820152606401610c61565b5081611463565b61146383838151156115ca5781518083602001fd5b8060405162461bcd60e51b8152600401610c619190611a64565b6001600160a01b0381168114610e0957600080fd5b60006020828403121561160b57600080fd5b8135611616816115e4565b9392505050565b6000806040838503121561163057600080fd5b823561163b816115e4565b946020939093013593505050565b60006020828403121561165b57600080fd5b5035919050565b6001600160a01b0391909116815260200190565b8015158114610e0957600080fd5b6000806040838503121561169757600080fd5b82356116a2816115e4565b915060208301356116b281611676565b809150509250929050565b60008083601f8401126116cf57600080fd5b50813567ffffffffffffffff8111156116e757600080fd5b6020830191508360208260051b850101111561170257600080fd5b9250929050565b600080600080600080600060a0888a03121561172457600080fd5b873596506020880135955060408801359450606088013567ffffffffffffffff81111561175057600080fd5b61175c8a828b016116bd565b909550935050608088013567ffffffffffffffff81111561177c57600080fd5b6117888a828b016116bd565b989b979a50959850939692959293505050565b6000806000606084860312156117b057600080fd5b83356117bb816115e4565b925060208401356117cb816115e4565b915060408401356117db816115e4565b809150509250925092565b6000602082840312156117f857600080fd5b5051919050565b634e487b7160e01b600052601160045260246000fd5b81810381811115611828576118286117ff565b92915050565b634e487b7160e01b600052604160045260246000fd5b805161184f816115e4565b919050565b60006020828403121561186657600080fd5b815167ffffffffffffffff81111561187d57600080fd5b8201601f8101841361188e57600080fd5b805167ffffffffffffffff8111156118a8576118a861182e565b8060051b604051601f19603f830116810181811067ffffffffffffffff821117156118d5576118d561182e565b6040529182526020818401810192908101878411156118f357600080fd5b6020850194505b838510156119195761190b85611844565b8152602094850194016118fa565b509695505050505050565b634e487b7160e01b600052603260045260246000fd5b60006020828403121561194c57600080fd5b8151611616816115e4565b6001600160a01b03929092168252602082015260400190565b80820180821115611828576118286117ff565b60006020828403121561199557600080fd5b815161161681611676565b8082028115828204841417611828576118286117ff565b6000826119d457634e487b7160e01b600052601260045260246000fd5b500490565b6020808252602b908201527f496e697469616c697a61626c653a20636f6e7472616374206973206e6f74206960408201526a6e697469616c697a696e6760a81b606082015260800190565b60005b83811015611a3f578181015183820152602001611a27565b50506000910152565b60008251611a5a818460208701611a24565b9190910192915050565b6020815260008251806020840152611a83816040850160208701611a24565b601f01601f1916919091016040019291505056fea2646970667358221220d64943986b294e7697a41268db7ce94e9fca9583b2d769bb12a638c2ad18fdb864736f6c634300081c0033",
  "linkReferences": {},
  "deployedLinkReferences": {}
}