{
  "_format": "hh-sol-artifact-1",
  "contractName": "GaugeFactory",
  "sourceName": "contracts/GaugeFactory.sol",
  "abi": [
    {
      "inputs": [
        {
          "internalType": "address",
          "name": "_globalFactory",
          "type": "address"
        }
      ],
      "stateMutability": "nonpayable",
      "type": "constructor"
    },
    {
      "anonymous": false,
      "inputs": [
        {
          "indexed": true,
          "internalType": "address",
          "name": "strategy",
          "type": "address"
        },
        {
          "indexed": true,
          "internalType": "address",
          "name": "gauge",
          "type": "address"
        }
      ],
      "name": "CreateGauge",
      "type": "event"
    },
    {
      "anonymous": false,
      "inputs": [
        {
          "indexed": true,
          "internalType": "bytes32",
          "name": "role",
          "type": "bytes32"
        },
        {
          "indexed": true,
          "internalType": "bytes32",
          "name": "previousAdminRole",
          "type": "bytes32"
        },
        {
          "indexed": true,
          "internalType": "bytes32",
          "name": "newAdminRole",
          "type": "bytes32"
        }
      ],
      "name": "RoleAdminChanged",
      "type": "event"
    },
    {
      "anonymous": false,
      "inputs": [
        {
          "indexed": true,
          "internalType": "bytes32",
          "name": "role",
          "type": "bytes32"
        },
        {
          "indexed": true,
          "internalType": "address",
          "name": "account",
          "type": "address"
        },
        {
          "indexed": true,
          "internalType": "address",
          "name": "sender",
          "type": "address"
        }
      ],
      "name": "RoleGranted",
      "type": "event"
    },
    {
      "anonymous": false,
      "inputs": [
        {
          "indexed": true,
          "internalType": "bytes32",
          "name": "role",
          "type": "bytes32"
        },
        {
          "indexed": true,
          "internalType": "address",
          "name": "account",
          "type": "address"
        },
        {
          "indexed": true,
          "internalType": "address",
          "name": "sender",
          "type": "address"
        }
      ],
      "name": "RoleRevoked",
      "type": "event"
    },
    {
      "anonymous": false,
      "inputs": [
        {
          "indexed": true,
          "internalType": "address",
          "name": "globalfactory",
          "type": "address"
        }
      ],
      "name": "SetGlobalFactory",
      "type": "event"
    },
    {
      "inputs": [],
      "name": "CLAIMER_ROLE",
      "outputs": [
        {
          "internalType": "bytes32",
          "name": "",
          "type": "bytes32"
        }
      ],
      "stateMutability": "view",
      "type": "function"
    },
    {
      "inputs": [],
      "name": "CREATE_ROLE",
      "outputs": [
        {
          "internalType": "bytes32",
          "name": "",
          "type": "bytes32"
        }
      ],
      "stateMutability": "view",
      "type": "function"
    },
    {
      "inputs": [],
      "name": "DEFAULT_ADMIN_ROLE",
      "outputs": [
        {
          "internalType": "bytes32",
          "name": "",
          "type": "bytes32"
        }
      ],
      "stateMutability": "view",
      "type": "function"
    },
    {
      "inputs": [],
      "name": "GAUGE_FACTORY_MANAGER_ROLE",
      "outputs": [
        {
          "internalType": "bytes32",
          "name": "",
          "type": "bytes32"
        }
      ],
      "stateMutability": "view",
      "type": "function"
    },
    {
      "inputs": [
        {
          "internalType": "address[]",
          "name": "_gauges",
          "type": "address[]"
        }
      ],
      "name": "activateEmergencyMode",
      "outputs": [],
      "stateMutability": "nonpayable",
      "type": "function"
    },
    {
      "inputs": [
        {
          "internalType": "address",
          "name": "_gauge",
          "type": "address"
        },
        {
          "internalType": "address",
          "name": "_token",
          "type": "address"
        }
      ],
      "name": "addRewardToken",
      "outputs": [],
      "stateMutability": "nonpayable",
      "type": "function"
    },
    {
      "inputs": [
        {
          "internalType": "address[]",
          "name": "_gauges",
          "type": "address[]"
        },
        {
          "internalType": "address",
          "name": "_token",
          "type": "address"
        }
      ],
      "name": "addRewardToken",
      "outputs": [],
      "stateMutability": "nonpayable",
      "type": "function"
    },
    {
      "inputs": [
        {
          "internalType": "address[]",
          "name": "_gauges",
          "type": "address[]"
        }
      ],
      "name": "claimFees",
      "outputs": [],
      "stateMutability": "nonpayable",
      "type": "function"
    },
    {
      "inputs": [],
      "name": "claimer",
      "outputs": [
        {
          "internalType": "address",
          "name": "",
          "type": "address"
        }
      ],
      "stateMutability": "view",
      "type": "function"
    },
    {
      "inputs": [
        {
          "internalType": "address",
          "name": "_pool",
          "type": "address"
        },
        {
          "internalType": "address",
          "name": "_feeVault",
          "type": "address"
        },
        {
          "internalType": "address",
          "name": "_votingIncentives",
          "type": "address"
        }
      ],
      "name": "createEternalGauge",
      "outputs": [
        {
          "internalType": "address",
          "name": "",
          "type": "address"
        }
      ],
      "stateMutability": "nonpayable",
      "type": "function"
    },
    {
      "inputs": [
        {
          "internalType": "address[]",
          "name": "_rewardTokens",
          "type": "address[]"
        },
        {
          "internalType": "address",
          "name": "_token",
          "type": "address"
        },
        {
          "internalType": "address",
          "name": "_feeVault",
          "type": "address"
        },
        {
          "internalType": "address",
          "name": "_votingIncentives",
          "type": "address"
        },
        {
          "internalType": "bool",
          "name": "isWeighted",
          "type": "bool"
        }
      ],
      "name": "createGauge",
      "outputs": [
        {
          "internalType": "address",
          "name": "",
          "type": "address"
        }
      ],
      "stateMutability": "nonpayable",
      "type": "function"
    },
    {
      "inputs": [],
      "name": "epochDistributor",
      "outputs": [
        {
          "internalType": "address",
          "name": "",
          "type": "address"
        }
      ],
      "stateMutability": "view",
      "type": "function"
    },
    {
      "inputs": [
        {
          "internalType": "bytes32",
          "name": "role",
          "type": "bytes32"
        }
      ],
      "name": "getRoleAdmin",
      "outputs": [
        {
          "internalType": "bytes32",
          "name": "",
          "type": "bytes32"
        }
      ],
      "stateMutability": "view",
      "type": "function"
    },
    {
      "inputs": [],
      "name": "globalFactory",
      "outputs": [
        {
          "internalType": "address",
          "name": "",
          "type": "address"
        }
      ],
      "stateMutability": "view",
      "type": "function"
    },
    {
      "inputs": [
        {
          "internalType": "bytes32",
          "name": "role",
          "type": "bytes32"
        },
        {
          "internalType": "address",
          "name": "account",
          "type": "address"
        }
      ],
      "name": "grantRole",
      "outputs": [],
      "stateMutability": "nonpayable",
      "type": "function"
    },
    {
      "inputs": [
        {
          "internalType": "bytes32",
          "name": "role",
          "type": "bytes32"
        },
        {
          "internalType": "address",
          "name": "account",
          "type": "address"
        }
      ],
      "name": "hasRole",
      "outputs": [
        {
          "internalType": "bool",
          "name": "",
          "type": "bool"
        }
      ],
      "stateMutability": "view",
      "type": "function"
    },
    {
      "inputs": [],
      "name": "incentiveMaker",
      "outputs": [
        {
          "internalType": "address",
          "name": "",
          "type": "address"
        }
      ],
      "stateMutability": "view",
      "type": "function"
    },
    {
      "inputs": [
        {
          "internalType": "address[]",
          "name": "_gauges",
          "type": "address[]"
        }
      ],
      "name": "pauseGauge",
      "outputs": [],
      "stateMutability": "nonpayable",
      "type": "function"
    },
    {
      "inputs": [
        {
          "internalType": "address",
          "name": "gauge",
          "type": "address"
        },
        {
          "internalType": "address",
          "name": "_token",
          "type": "address"
        }
      ],
      "name": "removeRewardToken",
      "outputs": [],
      "stateMutability": "nonpayable",
      "type": "function"
    },
    {
      "inputs": [
        {
          "internalType": "bytes32",
          "name": "role",
          "type": "bytes32"
        },
        {
          "internalType": "address",
          "name": "account",
          "type": "address"
        }
      ],
      "name": "renounceRole",
      "outputs": [],
      "stateMutability": "nonpayable",
      "type": "function"
    },
    {
      "inputs": [
        {
          "internalType": "bytes32",
          "name": "role",
          "type": "bytes32"
        },
        {
          "internalType": "address",
          "name": "account",
          "type": "address"
        }
      ],
      "name": "revokeRole",
      "outputs": [],
      "stateMutability": "nonpayable",
      "type": "function"
    },
    {
      "inputs": [
        {
          "internalType": "address[]",
          "name": "_gauges",
          "type": "address[]"
        },
        {
          "internalType": "address[]",
          "name": "feevault",
          "type": "address[]"
        }
      ],
      "name": "setFeeVault",
      "outputs": [],
      "stateMutability": "nonpayable",
      "type": "function"
    },
    {
      "inputs": [
        {
          "internalType": "address",
          "name": "_gf",
          "type": "address"
        }
      ],
      "name": "setGlobalFactory",
      "outputs": [],
      "stateMutability": "nonpayable",
      "type": "function"
    },
    {
      "inputs": [
        {
          "internalType": "address[]",
          "name": "_gauges",
          "type": "address[]"
        },
        {
          "internalType": "address",
          "name": "_incentiveMaker",
          "type": "address"
        }
      ],
      "name": "setIncentiveMaker",
      "outputs": [],
      "stateMutability": "nonpayable",
      "type": "function"
    },
    {
      "inputs": [
        {
          "internalType": "address",
          "name": "_gauges",
          "type": "address"
        },
        {
          "internalType": "address",
          "name": "_vi",
          "type": "address"
        }
      ],
      "name": "setVotingIncentives",
      "outputs": [],
      "stateMutability": "nonpayable",
      "type": "function"
    },
    {
      "inputs": [
        {
          "internalType": "address[]",
          "name": "_gauges",
          "type": "address[]"
        },
        {
          "internalType": "address[]",
          "name": "_vi",
          "type": "address[]"
        }
      ],
      "name": "setVotingIncentives",
      "outputs": [],
      "stateMutability": "nonpayable",
      "type": "function"
    },
    {
      "inputs": [
        {
          "internalType": "address[]",
          "name": "_gauges",
          "type": "address[]"
        }
      ],
      "name": "stopEmergencyMode",
      "outputs": [],
      "stateMutability": "nonpayable",
      "type": "function"
    },
    {
      "inputs": [
        {
          "internalType": "bytes4",
          "name": "interfaceId",
          "type": "bytes4"
        }
      ],
      "name": "supportsInterface",
      "outputs": [
        {
          "internalType": "bool",
          "name": "",
          "type": "bool"
        }
      ],
      "stateMutability": "view",
      "type": "function"
    },
    {
      "inputs": [
        {
          "internalType": "address[]",
          "name": "_gauges",
          "type": "address[]"
        }
      ],
      "name": "unpauseGauge",
      "outputs": [],
      "stateMutability": "nonpayable",
      "type": "function"
    }
  ],
  "bytecode": "0x608060405234801561001057600080fd5b50604051615a2a380380615a2a83398101604081905261002f9161017a565b6001600160a01b0381161561009a57600180546001600160a01b0319166001600160a01b03831690811790915561007590600080516020615a0a833981519152906100db565b60015461009a906000805160206159ea833981519152906001600160a01b03166100db565b6100a56000336100db565b6100bd6000805160206159ea833981519152336100db565b6100d5600080516020615a0a833981519152336100db565b506101aa565b6000828152602081815260408083206001600160a01b038516845290915290205460ff16610176576000828152602081815260408083206001600160a01b03851684529091529020805460ff191660011790556101353390565b6001600160a01b0316816001600160a01b0316837f2f8788117e7eff1d82e926ec794901d17c78024a50270940304540a733656f0d60405160405180910390a45b5050565b60006020828403121561018c57600080fd5b81516001600160a01b03811681146101a357600080fd5b9392505050565b615831806101b96000396000f3fe608060405234801561001057600080fd5b506004361061018e5760003560e01c8063725acc6b116100e4578063a217fddf11610092578063a217fddf14610368578063d0a273cb14610370578063d379be2314610383578063d547741f1461038b578063f0ec7e301461039e578063f434cb6b146103b1578063f9d5111c146103b9578063fc5f18d3146103c157600080fd5b8063725acc6b146102e357806379251d88146102f657806384e1a4f81461030957806385379bc01461031c57806391d148541461032f578063958f3d7c14610342578063a0ea1ccc1461035557600080fd5b80632ef2115b116101415780632ef2115b1461025e5780632f2ff15d1461027157806336568abe146102845780634ac0374e14610297578063536e198c146102aa5780635e135a89146102bd5780635e93d0e4146102d057600080fd5b80626f53c91461019357806301ffc9a7146101bb578063033b6d1f146101de578063072dc20d146101f357806323cb239014610208578063248a9ca31461021b5780632600cb971461023e575b600080fd5b6101a86000805160206157dc83398151915281565b6040519081526020015b60405180910390f35b6101ce6101c93660046113f0565b6103e8565b60405190151581526020016101b2565b6101a86000805160206157bc83398151915281565b61020661020136600461148a565b61041f565b005b6102066102163660046114e0565b6104d9565b6101a8610229366004611519565b60009081526020819052604090206001015490565b61025161024c366004611532565b610554565b6040516101b29190611572565b61020661026c366004611586565b610607565b61020661027f3660046115a3565b6106d1565b6102066102923660046115a3565b6106fb565b6102066102a53660046115c8565b610779565b6102066102b83660046115c8565b610827565b6102066102cb3660046114e0565b6108d9565b6102066102de36600461148a565b61091d565b6102066102f13660046115c8565b6109d0565b6102066103043660046114e0565b610a98565b6102066103173660046115c8565b610adc565b61020661032a366004611609565b610b8e565b6101ce61033d3660046115a3565b610c7b565b61025161035036600461169e565b610ca4565b600154610251906001600160a01b031681565b6101a8600081565b61020661037e366004611609565b610d49565b610251610e63565b6102066103993660046115a3565b610f0a565b6102066103ac3660046115c8565b610f2f565b610251610fd7565b610251611055565b6101a87f11a8cb5a02bd6c42679835e867ef2118ba78f088f8300511420c6603c21d9c7881565b60006001600160e01b03198216637965db0b60e01b148061041957506301ffc9a760e01b6001600160e01b03198316145b92915050565b6000805160206157bc833981519152610437816110d3565b60005b838110156104d257848482818110610454576104546117af565b90506020020160208101906104699190611586565b6001600160a01b031663779fa0c4846040518263ffffffff1660e01b81526004016104949190611572565b600060405180830381600087803b1580156104ae57600080fd5b505af11580156104c2573d6000803e3d6000fd5b50506001909201915061043a9050565b5050505050565b6000805160206157bc8339815191526104f1816110d3565b604051630700f9b360e21b81526001600160a01b03841690631c03e6cc9061051d908590600401611572565b600060405180830381600087803b15801561053757600080fd5b505af115801561054b573d6000803e3d6000fd5b50505050505050565b60006000805160206157dc83398151915261056e816110d3565b600085858560405161057f906113d6565b6001600160a01b03938416815291831660208301529091166040820152606001604051809103906000f0801580156105bb573d6000803e3d6000fd5b509050806001600160a01b0316866001600160a01b03167f46843f5a58231053242305fde621fa67db852076f219ff604176b817bd97a56960405160405180910390a395945050505050565b6000805160206157bc83398151915261061f816110d3565b6001600160a01b03821661064e5760405162461bcd60e51b8152600401610645906117c5565b60405180910390fd5b600180546001600160a01b0319166001600160a01b0384161790556106816000805160206157dc833981519152836110e0565b6106996000805160206157bc833981519152836110e0565b6040516001600160a01b038316907fa8058d034a214bf4981222270790224959db0d5b82f22dae82a70e7b397912b390600090a25050565b6000828152602081905260409020600101546106ec816110d3565b6106f683836110e0565b505050565b6001600160a01b038116331461076b5760405162461bcd60e51b815260206004820152602f60248201527f416363657373436f6e74726f6c3a2063616e206f6e6c792072656e6f756e636560448201526e103937b632b9903337b91039b2b63360891b6064820152608401610645565b6107758282611164565b5050565b6000805160206157bc833981519152610791816110d3565b60005b82811015610821578383828181106107ae576107ae6117af565b90506020020160208101906107c39190611586565b6001600160a01b031663d00960106040518163ffffffff1660e01b8152600401600060405180830381600087803b1580156107fd57600080fd5b505af1158015610811573d6000803e3d6000fd5b5050600190920191506107949050565b50505050565b6000805160206157bc83398151915261083f816110d3565b60005b828110156108215783838281811061085c5761085c6117af565b90506020020160208101906108719190611586565b6040516302329a2960e01b8152600060048201526001600160a01b0391909116906302329a2990602401600060405180830381600087803b1580156108b557600080fd5b505af11580156108c9573d6000803e3d6000fd5b5050600190920191506108429050565b6000805160206157bc8339815191526108f1816110d3565b604051630d779edb60e31b81526001600160a01b03841690636bbcf6d89061051d908590600401611572565b6000805160206157bc833981519152610935816110d3565b60005b838110156104d257848482818110610952576109526117af565b90506020020160208101906109679190611586565b6001600160a01b0316631c03e6cc846040518263ffffffff1660e01b81526004016109929190611572565b600060405180830381600087803b1580156109ac57600080fd5b505af11580156109c0573d6000803e3d6000fd5b5050600190920191506109389050565b7f11a8cb5a02bd6c42679835e867ef2118ba78f088f8300511420c6603c21d9c786109fa816110d3565b60005b8281101561082157838382818110610a1757610a176117af565b9050602002016020810190610a2c9190611586565b6001600160a01b031663d294f0936040518163ffffffff1660e01b815260040160408051808303816000875af1158015610a6a573d6000803e3d6000fd5b505050506040513d601f19601f82011682018060405250810190610a8e91906117ee565b50506001016109fd565b6000805160206157bc833981519152610ab0816110d3565b604051633d509c9760e01b81526001600160a01b03841690633d509c979061051d908590600401611572565b6000805160206157bc833981519152610af4816110d3565b60005b8281101561082157838382818110610b1157610b116117af565b9050602002016020810190610b269190611586565b6040516302329a2960e01b8152600160048201526001600160a01b0391909116906302329a2990602401600060405180830381600087803b158015610b6a57600080fd5b505af1158015610b7e573d6000803e3d6000fd5b505060019092019150610af79050565b6000805160206157bc833981519152610ba6816110d3565b838214610bb257600080fd5b60005b84811015610c7357858582818110610bcf57610bcf6117af565b9050602002016020810190610be49190611586565b6001600160a01b0316636bbcf6d8858584818110610c0457610c046117af565b9050602002016020810190610c199190611586565b6040518263ffffffff1660e01b8152600401610c359190611572565b600060405180830381600087803b158015610c4f57600080fd5b505af1158015610c63573d6000803e3d6000fd5b505060019092019150610bb59050565b505050505050565b6000918252602082815260408084206001600160a01b0393909316845291905290205460ff1690565b60006000805160206157dc833981519152610cbe816110d3565b60008787878787604051610cd1906113e3565b610cdf959493929190611812565b604051809103906000f080158015610cfb573d6000803e3d6000fd5b509050806001600160a01b0316876001600160a01b03167f46843f5a58231053242305fde621fa67db852076f219ff604176b817bd97a56960405160405180910390a3979650505050505050565b6000805160206157bc833981519152610d61816110d3565b838214610da25760405162461bcd60e51b815260206004820152600f60248201526e098cadccee8d040dad2e6dac2e8c6d608b1b6044820152606401610645565b60005b84811015610c7357858582818110610dbf57610dbf6117af565b9050602002016020810190610dd49190611586565b6001600160a01b031663a591f97f858584818110610df457610df46117af565b9050602002016020810190610e099190611586565b6040518263ffffffff1660e01b8152600401610e259190611572565b600060405180830381600087803b158015610e3f57600080fd5b505af1158015610e53573d6000803e3d6000fd5b505060019092019150610da59050565b6001546000906001600160a01b0316610e8e5760405162461bcd60e51b8152600401610645906117c5565b600160009054906101000a90046001600160a01b03166001600160a01b031663d379be236040518163ffffffff1660e01b8152600401602060405180830381865afa158015610ee1573d6000803e3d6000fd5b505050506040513d601f19601f82011682018060405250810190610f059190611891565b905090565b600082815260208190526040902060010154610f25816110d3565b6106f68383611164565b6000805160206157bc833981519152610f47816110d3565b60005b8281101561082157838382818110610f6457610f646117af565b9050602002016020810190610f799190611586565b6001600160a01b031663b1534ecd6040518163ffffffff1660e01b8152600401600060405180830381600087803b158015610fb357600080fd5b505af1158015610fc7573d6000803e3d6000fd5b505060019092019150610f4a9050565b6001546000906001600160a01b03166110025760405162461bcd60e51b8152600401610645906117c5565b600160009054906101000a90046001600160a01b03166001600160a01b031663f434cb6b6040518163ffffffff1660e01b8152600401602060405180830381865afa158015610ee1573d6000803e3d6000fd5b6001546000906001600160a01b03166110805760405162461bcd60e51b8152600401610645906117c5565b600160009054906101000a90046001600160a01b03166001600160a01b031663f9d5111c6040518163ffffffff1660e01b8152600401602060405180830381865afa158015610ee1573d6000803e3d6000fd5b6110dd81336111c9565b50565b6110ea8282610c7b565b610775576000828152602081815260408083206001600160a01b03851684529091529020805460ff191660011790556111203390565b6001600160a01b0316816001600160a01b0316837f2f8788117e7eff1d82e926ec794901d17c78024a50270940304540a733656f0d60405160405180910390a45050565b61116e8282610c7b565b15610775576000828152602081815260408083206001600160a01b0385168085529252808320805460ff1916905551339285917ff6391f5c32d9c69d2a47ea670b442974b53935d1edc7fd64eb21e047a839171b9190a45050565b6111d38282610c7b565b610775576111e081611222565b6111eb836020611234565b6040516020016111fc9291906118d2565b60408051601f198184030181529082905262461bcd60e51b825261064591600401611941565b60606104196001600160a01b03831660145b6060600061124383600261198a565b61124e9060026119a1565b6001600160401b0381111561126557611265611678565b6040519080825280601f01601f19166020018201604052801561128f576020820181803683370190505b509050600360fc1b816000815181106112aa576112aa6117af565b60200101906001600160f81b031916908160001a905350600f60fb1b816001815181106112d9576112d96117af565b60200101906001600160f81b031916908160001a90535060006112fd84600261198a565b6113089060016119a1565b90505b6001811115611380576f181899199a1a9b1b9c1cb0b131b232b360811b85600f166010811061133c5761133c6117af565b1a60f81b828281518110611352576113526117af565b60200101906001600160f81b031916908160001a90535060049490941c93611379816119b4565b905061130b565b5083156113cf5760405162461bcd60e51b815260206004820181905260248201527f537472696e67733a20686578206c656e67746820696e73756666696369656e746044820152606401610645565b9392505050565b610fe3806119cc83390190565b612e0d806129af83390190565b60006020828403121561140257600080fd5b81356001600160e01b0319811681146113cf57600080fd5b60008083601f84011261142c57600080fd5b5081356001600160401b0381111561144357600080fd5b6020830191508360208260051b850101111561145e57600080fd5b9250929050565b6001600160a01b03811681146110dd57600080fd5b803561148581611465565b919050565b60008060006040848603121561149f57600080fd5b83356001600160401b038111156114b557600080fd5b6114c18682870161141a565b90945092505060208401356114d581611465565b809150509250925092565b600080604083850312156114f357600080fd5b82356114fe81611465565b9150602083013561150e81611465565b809150509250929050565b60006020828403121561152b57600080fd5b5035919050565b60008060006060848603121561154757600080fd5b833561155281611465565b9250602084013561156281611465565b915060408401356114d581611465565b6001600160a01b0391909116815260200190565b60006020828403121561159857600080fd5b81356113cf81611465565b600080604083850312156115b657600080fd5b82359150602083013561150e81611465565b600080602083850312156115db57600080fd5b82356001600160401b038111156115f157600080fd5b6115fd8582860161141a565b90969095509350505050565b6000806000806040858703121561161f57600080fd5b84356001600160401b0381111561163557600080fd5b6116418782880161141a565b90955093505060208501356001600160401b0381111561166057600080fd5b61166c8782880161141a565b95989497509550505050565b634e487b7160e01b600052604160045260246000fd5b8035801515811461148557600080fd5b600080600080600060a086880312156116b657600080fd5b85356001600160401b038111156116cc57600080fd5b8601601f810188136116dd57600080fd5b80356001600160401b038111156116f6576116f6611678565b8060051b604051601f19603f83011681018181106001600160401b038211171561172257611722611678565b60405291825260208184018101929081018b84111561174057600080fd5b6020850194505b83851015611766576117588561147a565b815260209485019401611747565b509750611779925050506020870161147a565b93506117876040870161147a565b92506117956060870161147a565b91506117a36080870161168e565b90509295509295909350565b634e487b7160e01b600052603260045260246000fd5b6020808252600f908201526e47463a205a65726f4164647265737360881b604082015260600190565b6000806040838503121561180157600080fd5b505080516020909101519092909150565b60a08082528651908201819052600090602088019060c0840190835b818110156118555783516001600160a01b031683526020938401939092019160010161182e565b50506001600160a01b038881166020860152878116604086015286166060850152915061187f9050565b82151560808301529695505050505050565b6000602082840312156118a357600080fd5b81516113cf81611465565b60005b838110156118c95781810151838201526020016118b1565b50506000910152565b76020b1b1b2b9b9a1b7b73a3937b61d1030b1b1b7bab73a1604d1b8152600083516119048160178501602088016118ae565b7001034b99036b4b9b9b4b733903937b6329607d1b60179184019182015283516119358160288401602088016118ae565b01602801949350505050565b60208152600082518060208401526119608160408501602087016118ae565b601f01601f19169190910160400192915050565b634e487b7160e01b600052601160045260246000fd5b808202811582820484141761041957610419611974565b8082018082111561041957610419611974565b6000816119c3576119c3611974565b50600019019056fe60a060405234801561001057600080fd5b50604051610fe3380380610fe383398101604081905261002f916100fc565b600160005561003d3361008e565b600280546001600160a01b0319166001600160a01b038481169190911790915583811660805281161561008657600380546001600160a01b0319166001600160a01b0383161790555b50505061013f565b600180546001600160a01b038381166001600160a01b0319831681179093556040519116919082907f8be0079c531659141344cd1fd0a4f28419497f9722a3daafe3b4186f6b6457e090600090a35050565b80516001600160a01b03811681146100f757600080fd5b919050565b60008060006060848603121561011157600080fd5b61011a846100e0565b9250610128602085016100e0565b9150610136604085016100e0565b90509250925092565b608051610e7561016e6000396000818160a801528181610489015281816107a301526108290152610e756000f3fe608060405234801561001057600080fd5b506004361061009e5760003560e01c8063a591f97f11610066578063a591f97f14610118578063b66503cf1461012b578063b6f7097f1461013e578063d294f09314610151578063f2fde38b1461016e57600080fd5b806316f0115b146100a3578063478222c2146100e05780636bbcf6d8146100f3578063715018a6146101085780638da5cb5b14610110575b600080fd5b6100ca7f000000000000000000000000000000000000000000000000000000000000000081565b6040516100d79190610c97565b60405180910390f35b6002546100ca906001600160a01b031681565b610106610101366004610cc0565b610181565b005b610106610270565b6100ca610284565b610106610126366004610cc0565b610293565b610106610139366004610ce4565b610324565b6003546100ca906001600160a01b031681565b6101596104f4565b604080519283526020830191909152016100d7565b61010661017c366004610cc0565b61053e565b6101896105b7565b6001600160a01b0381166101d05760405162461bcd60e51b81526020600482015260096024820152683d32b9379030b2323960b91b60448201526064015b60405180910390fd5b6003546001600160a01b039081169082160361021a5760405162461bcd60e51b815260206004820152600960248201526839b0b6b29030b2323960b91b60448201526064016101c7565b600380546001600160a01b0319166001600160a01b0383161790556040517f71119a4a2850109bdeaff1aedbd330e4bc80607f423b1562fddbdc7ff4628b6490610265908390610c97565b60405180910390a150565b6102786105b7565b6102826000610616565b565b6001546001600160a01b031690565b61029b6105b7565b6001600160a01b0381166102d95760405162461bcd60e51b8152602060048201526005602482015264041646472360dc1b60448201526064016101c7565b600280546001600160a01b0319166001600160a01b0383161790556040517fe68507d3387f586d218f2d30c6bd698977c73cfe98ae490919957b344476f19790610265908390610c97565b61032c610668565b610334610284565b6001600160a01b031663f434cb6b6040518163ffffffff1660e01b8152600401602060405180830381865afa158015610371573d6000803e3d6000fd5b505050506040513d601f19601f820116820180604052508101906103959190610d10565b6001600160a01b0316336001600160a01b0316146103e45760405162461bcd60e51b815260206004820152600c60248201526b10b234b9ba3934b13aba37b960a11b60448201526064016101c7565b60006103ee610284565b6001600160a01b031663f9d5111c6040518163ffffffff1660e01b8152600401602060405180830381865afa15801561042b573d6000803e3d6000fd5b505050506040513d601f19601f8201168201806040525081019061044f9190610d10565b90506104656001600160a01b03841682846106c1565b604051630cfecd0760e31b81526001600160a01b038216906367f66838906104b3907f0000000000000000000000000000000000000000000000000000000000000000908690600401610d2d565b600060405180830381600087803b1580156104cd57600080fd5b505af11580156104e1573d6000803e3d6000fd5b50505050506104f06001600055565b5050565b6000806104ff610668565b610507610284565b6001600160a01b0316336001600160a01b03161461052457600080fd5b61052c61079c565b9150915061053a6001600055565b9091565b6105466105b7565b6001600160a01b0381166105ab5760405162461bcd60e51b815260206004820152602660248201527f4f776e61626c653a206e6577206f776e657220697320746865207a65726f206160448201526564647265737360d01b60648201526084016101c7565b6105b481610616565b50565b336105c0610284565b6001600160a01b0316146102825760405162461bcd60e51b815260206004820181905260248201527f4f776e61626c653a2063616c6c6572206973206e6f7420746865206f776e657260448201526064016101c7565b600180546001600160a01b038381166001600160a01b0319831681179093556040519116919082907f8be0079c531659141344cd1fd0a4f28419497f9722a3daafe3b4186f6b6457e090600090a35050565b6002600054036106ba5760405162461bcd60e51b815260206004820152601f60248201527f5265656e7472616e637947756172643a207265656e7472616e742063616c6c0060448201526064016101c7565b6002600055565b604051636eb1769f60e11b81523060048201526001600160a01b0383811660248301526000919085169063dd62ed3e90604401602060405180830381865afa158015610711573d6000803e3d6000fd5b505050506040513d601f19601f820116820180604052508101906107359190610d46565b90506107968463095ea7b360e01b8561074e8686610d5f565b60405160240161075f929190610d2d565b60408051601f198184030181529190526020810180516001600160e01b03166001600160e01b031990931692909217909152610a2d565b50505050565b60008060007f00000000000000000000000000000000000000000000000000000000000000006001600160a01b0316630dfe16816040518163ffffffff1660e01b8152600401602060405180830381865afa1580156107ff573d6000803e3d6000fd5b505050506040513d601f19601f820116820180604052508101906108239190610d10565b905060007f00000000000000000000000000000000000000000000000000000000000000006001600160a01b031663d21220a76040518163ffffffff1660e01b8152600401602060405180830381865afa158015610885573d6000803e3d6000fd5b505050506040513d601f19601f820116820180604052508101906108a99190610d10565b6002546040805163d294f09360e01b815281519394506001600160a01b039092169263d294f09392600480820193929182900301816000875af11580156108f4573d6000803e3d6000fd5b505050506040513d601f19601f820116820180604052508101906109189190610d86565b909450925083156109a25760035461093d906001600160a01b038481169116866106c1565b60035460405163b66503cf60e01b81526001600160a01b039091169063b66503cf9061096f9085908890600401610d2d565b600060405180830381600087803b15801561098957600080fd5b505af115801561099d573d6000803e3d6000fd5b505050505b8215610a27576003546109c2906001600160a01b038381169116856106c1565b60035460405163b66503cf60e01b81526001600160a01b039091169063b66503cf906109f49084908790600401610d2d565b600060405180830381600087803b158015610a0e57600080fd5b505af1158015610a22573d6000803e3d6000fd5b505050505b50509091565b6000610a82826040518060400160405280602081526020017f5361666545524332303a206c6f772d6c6576656c2063616c6c206661696c6564815250856001600160a01b0316610b079092919063ffffffff16565b9050805160001480610aa3575080806020019051810190610aa39190610daa565b610b025760405162461bcd60e51b815260206004820152602a60248201527f5361666545524332303a204552433230206f7065726174696f6e20646964206e6044820152691bdd081cdd58d8d9595960b21b60648201526084016101c7565b505050565b6060610b168484600085610b1e565b949350505050565b606082471015610b7f5760405162461bcd60e51b815260206004820152602660248201527f416464726573733a20696e73756666696369656e742062616c616e636520666f6044820152651c8818d85b1b60d21b60648201526084016101c7565b600080866001600160a01b03168587604051610b9b9190610df0565b60006040518083038185875af1925050503d8060008114610bd8576040519150601f19603f3d011682016040523d82523d6000602084013e610bdd565b606091505b5091509150610bee87838387610bf9565b979650505050505050565b60608315610c68578251600003610c61576001600160a01b0385163b610c615760405162461bcd60e51b815260206004820152601d60248201527f416464726573733a2063616c6c20746f206e6f6e2d636f6e747261637400000060448201526064016101c7565b5081610b16565b610b168383815115610c7d5781518083602001fd5b8060405162461bcd60e51b81526004016101c79190610e0c565b6001600160a01b0391909116815260200190565b6001600160a01b03811681146105b457600080fd5b600060208284031215610cd257600080fd5b8135610cdd81610cab565b9392505050565b60008060408385031215610cf757600080fd5b8235610d0281610cab565b946020939093013593505050565b600060208284031215610d2257600080fd5b8151610cdd81610cab565b6001600160a01b03929092168252602082015260400190565b600060208284031215610d5857600080fd5b5051919050565b80820180821115610d8057634e487b7160e01b600052601160045260246000fd5b92915050565b60008060408385031215610d9957600080fd5b505080516020909101519092909150565b600060208284031215610dbc57600080fd5b81518015158114610cdd57600080fd5b60005b83811015610de7578181015183820152602001610dcf565b50506000910152565b60008251610e02818460208701610dcc565b9190910192915050565b6020815260008251806020840152610e2b816040850160208701610dcc565b601f01601f1916919091016040019291505056fea2646970667358221220aef6e48b502602033fb4cdbc2cda86d85529fcf7fe1f5f0defceae1af93841b064736f6c634300081c003360c060405234801561001057600080fd5b50604051612e0d380380612e0d83398101604081905261002f916102b1565b600160005561003d3361021d565b6001805460ff60a01b191690556001600160a01b03841661008d5760405162461bcd60e51b8152602060048201526005602482015264041646472360dc1b60448201526064015b60405180910390fd5b6001600160a01b0383166100cb5760405162461bcd60e51b8152602060048201526005602482015264041646472360dc1b6044820152606401610084565b60005b85518110156101b95760006001600160a01b03168682815181106100f4576100f46103c4565b60200260200101516001600160a01b0316146101b157600160096000888481518110610122576101226103c4565b60200260200101516001600160a01b03166001600160a01b0316815260200190815260200160002060006101000a81548160ff0219169083151502179055506004868281518110610175576101756103c4565b60209081029190910181015182546001810184556000938452919092200180546001600160a01b0319166001600160a01b039092169190911790555b6001016100ce565b8115156080526001600160a01b0385811660a052600380546001600160a01b03191686831617905583161561020457600d80546001600160a01b0319166001600160a01b0385161790555b50506001805460ff60a81b19169055506103da92505050565b600180546001600160a01b038381166001600160a01b0319831681179093556040519116919082907f8be0079c531659141344cd1fd0a4f28419497f9722a3daafe3b4186f6b6457e090600090a35050565b634e487b7160e01b600052604160045260246000fd5b80516001600160a01b038116811461029c57600080fd5b919050565b8051801515811461029c57600080fd5b600080600080600060a086880312156102c957600080fd5b85516001600160401b038111156102df57600080fd5b8601601f810188136102f057600080fd5b80516001600160401b038111156103095761030961026f565b604051600582901b90603f8201601f191681016001600160401b03811182821017156103375761033761026f565b60405291825260208184018101929081018b84111561035557600080fd5b6020850194505b8385101561037b5761036d85610285565b81526020948501940161035c565b50975061038e9250505060208701610285565b935061039c60408701610285565b92506103aa60608701610285565b91506103b8608087016102a1565b90509295509295909350565b634e487b7160e01b600052603260045260246000fd5b60805160a0516129eb610422600039600081816103d501528181610e4901528181611010015281816110a2015281816119920152611e8301526000610f3d01526129eb6000f3fe608060405234801561001057600080fd5b50600436106102485760003560e01c8063853828b61161013b578063c00007b0116100b8578063da09d19d1161007c578063da09d19d14610505578063db2e21bc1461052e578063de5f626814610536578063f12297771461053e578063f2fde38b1461055157600080fd5b8063c00007b0146104a6578063c6c8f6b6146104b9578063caa6fea4146104cc578063d0096010146104e0578063d294f093146104e857600080fd5b8063b5fd73f8116100ff578063b5fd73f814610442578063b66503cf14610465578063b6b55f2514610478578063b6f7097f1461048b578063bf199e621461049e57600080fd5b8063853828b6146103f75780638da5cb5b146103ff5780639e88ec1014610407578063a591f97f14610427578063b1534ecd1461043a57600080fd5b80633d509c97116101c957806370a082311161018d57806370a0823114610379578063715018a6146103a257806376a0adf2146103aa5780637bb7bed1146103bd57806382bfefc8146103d057600080fd5b80633d509c9714610313578063478222c2146103265780635c975abb146103465780636bbcf6d81461035e5780636e9852f21461037157600080fd5b80631c3317c7116102105780631c3317c7146102a9578063211dc32d146102bc578063221ca18c146102cf5780632e1a7d4d146102f85780633d18b9121461030b57600080fd5b806302329a291461024d578063055de2751461026257806318160ddd146102755780631be052891461028c5780631c03e6cc14610296575b600080fd5b61026061025b366004612565565b610564565b005b610260610270366004612597565b610584565b6002545b6040519081526020015b60405180910390f35b61027962093a8081565b6102606102a4366004612597565b61062d565b6102606102b73660046125b4565b610729565b6102796102ca3660046125e0565b6107fb565b6102796102dd366004612597565b6001600160a01b031660009081526006602052604090205490565b610260610306366004612619565b610810565b610260610821565b610260610321366004612597565b610846565b600354610339906001600160a01b031681565b6040516102839190612632565b61034e61091c565b6040519015158152602001610283565b61026061036c366004612597565b61092c565b6102606109a4565b610279610387366004612597565b6001600160a01b03166000908152600c602052604090205490565b6102606109ce565b6102796103b8366004612597565b6109e0565b6103396103cb366004612619565b610a07565b6103397f000000000000000000000000000000000000000000000000000000000000000081565b610260610a31565b610339610a52565b61041a610415366004612597565b610a61565b6040516102839190612646565b610260610435366004612597565b610b1d565b610260610b95565b61034e610450366004612597565b60096020526000908152604090205460ff1681565b6102606104733660046125b4565b610bef565b610260610486366004612619565b610cb3565b600d54610339906001600160a01b031681565b600454610279565b6102606104b4366004612597565b610cc5565b6102606104c7366004612619565b610d9a565b60015461034e90600160a81b900460ff1681565b610260610eaf565b6104f0610f0b565b60408051928352602083019190915201610283565b610279610513366004612597565b6001600160a01b031660009081526005602052604090205490565b610260610f88565b61026061107f565b61027961054c366004612597565b61111e565b61026061055f366004612597565b611129565b61056c61119f565b8061057c576105796111fe565b50565b61057961124d565b61058c611290565b6105946112e9565b61059c610a52565b6001600160a01b031663d379be236040518163ffffffff1660e01b8152600401602060405180830381865afa1580156105d9573d6000803e3d6000fd5b505050506040513d601f19601f820116820180604052508101906105fd9190612689565b6001600160a01b0316336001600160a01b03161461061a57600080fd5b61062381611331565b6105796001600055565b61063561119f565b6001600160a01b03811660009081526009602052604090205460ff16156106775760405162461bcd60e51b815260040161066e906126a6565b60405180910390fd5b6001600160a01b03811661069d5760405162461bcd60e51b815260040161066e906126ce565b6001600160a01b038116600081815260096020526040808220805460ff1916600190811790915560048054918201815583527f8a35acfbc15ff81a39ae7d344fd709f28e8600b4aa8c65c6b64bfe7fe36bd19b0180546001600160a01b03191684179055517f851bbb4304bf0768ed98b97e429b5bd1dcc1f194b36cd1650f40293e951ae3939190a250565b610731611290565b600154600160a81b900460ff161561074857600080fd5b610750610a52565b6001600160a01b031663f434cb6b6040518163ffffffff1660e01b8152600401602060405180830381865afa15801561078d573d6000803e3d6000fd5b505050506040513d601f19601f820116820180604052508101906107b19190612689565b6001600160a01b0316336001600160a01b0316146107e15760405162461bcd60e51b815260040161066e906126ed565b6107ed8282600161142b565b6107f76001600055565b5050565b600061080783836116ae565b90505b92915050565b6108186112e9565b6105798161175d565b610829611290565b6108316112e9565b61083a33611331565b6108446001600055565b565b61084e61119f565b6001600160a01b03811660009081526009602052604090205460ff16156108875760405162461bcd60e51b815260040161066e906126a6565b60045460005b8181101561091757826001600160a01b0316600482815481106108b2576108b261270e565b6000918252602090912001546001600160a01b03160361090f576108d683826117d1565b6040516001600160a01b038416907f36bd04094fa067bb9471a8fbdb0a6e8a43424a2566ad3a740c88973fa40a311890600090a2505050565b60010161088d565b505050565b600154600160a01b900460ff1690565b61093461119f565b6001600160a01b03811661095a5760405162461bcd60e51b815260040161066e906126ce565b600d80546001600160a01b0319166001600160a01b0383169081179091556040517f71119a4a2850109bdeaff1aedbd330e4bc80607f423b1562fddbdc7ff4628b6490600090a250565b6109ac6112e9565b336000908152600c60205260409020546109c59061175d565b61084433611331565b6109d661119f565b61084460006118a4565b6001600160a01b03811660009081526006602052604081205461080a9062093a809061273a565b60048181548110610a1757600080fd5b6000918252602090912001546001600160a01b0316905081565b610a396112e9565b336000908152600c60205260409020546108449061175d565b6001546001600160a01b031690565b600454606090600090818167ffffffffffffffff811115610a8457610a84612751565b604051908082528060200260200182016040528015610aad578160200160208202803683370190505b5093505b81831015610b155760048381548110610acc57610acc61270e565b6000918252602090912001546001600160a01b03169050610aed85826116ae565b848481518110610aff57610aff61270e565b6020908102919091010152600190920191610ab1565b505050919050565b610b2561119f565b6001600160a01b038116610b4b5760405162461bcd60e51b815260040161066e906126ce565b600380546001600160a01b0319166001600160a01b0383169081179091556040517fe68507d3387f586d218f2d30c6bd698977c73cfe98ae490919957b344476f19790600090a250565b610b9d61119f565b60018054600160a81b900460ff16151514610bb757600080fd5b6001805460ff60a81b191690556040517f2b8c5008aae34863b256c67a6c2757d0ac8f800e6b4f3bb98bddf13e47b028ef90600090a1565b610bf7611290565b600154600160a81b900460ff1615610c0e57600080fd5b610c16610a52565b6001600160a01b031663f434cb6b6040518163ffffffff1660e01b8152600401602060405180830381865afa158015610c53573d6000803e3d6000fd5b505050506040513d601f19601f82011682018060405250810190610c779190612689565b6001600160a01b0316336001600160a01b031614610ca75760405162461bcd60e51b815260040161066e906126ed565b6107ed8282600061142b565b610cbb6112e9565b61057981336118f6565b610ccd611290565b610cd56112e9565b33610ce08183611a07565b6001600160a01b038082166000908152600b60209081526040808320938616835292905220548015610d8e576001600160a01b038083166000908152600b6020908152604080832093871680845293909152812055610d40908383611aa9565b826001600160a01b0316826001600160a01b03167fa0306f61d3fafe13787b78e276cb6b644382854a66cb46daae14227d3ec2679783604051610d8591815260200190565b60405180910390a35b50506105796001600055565b610da2611290565b600154600160a81b900460ff16610db857600080fd5b336000908152600c6020526040902054811115610e005760405162461bcd60e51b81526020600482015260066024820152651b9bc818985b60d21b604482015260640161066e565b8060026000828254610e129190612767565b9091555050336000908152600c602052604081208054839290610e36908490612767565b90915550610e7090506001600160a01b037f0000000000000000000000000000000000000000000000000000000000000000163383611aa9565b60405181815233907f884edad9ce6fa2440d8a54cc123490eb96d2768479d49ff9c7366125a94243649060200160405180910390a26105796001600055565b610eb761119f565b600154600160a81b900460ff1615610ece57600080fd5b6001805460ff60a81b1916600160a81b1790556040517e2027e346bbcb4e71801ce26885a270290fb7d1d463cb49adf82dba74bd151d90600090a1565b600080610f16611290565b610f1e610a52565b6001600160a01b0316336001600160a01b031614610f3b57600080fd5b7f000000000000000000000000000000000000000000000000000000000000000015610f7257610f69611aff565b91509150610f7a565b610f69611e69565b610f846001600055565b9091565b610f90611290565b600154600160a81b900460ff16610fa657600080fd5b336000908152600c6020526040902054610fd25760405162461bcd60e51b815260040161066e9061277a565b336000908152600c60205260408120546002805491928392610ff5908490612767565b9091555050336000818152600c602052604081205561103f907f00000000000000000000000000000000000000000000000000000000000000006001600160a01b03169083611aa9565b60405181815233907f884edad9ce6fa2440d8a54cc123490eb96d2768479d49ff9c7366125a94243649060200160405180910390a2506108446001600055565b6110876112e9565b6040516370a0823160e01b8152610844906001600160a01b037f000000000000000000000000000000000000000000000000000000000000000016906370a08231906110d7903390600401612632565b602060405180830381865afa1580156110f4573d6000803e3d6000fd5b505050506040513d601f19601f820116820180604052508101906111189190612798565b336118f6565b600061080a8261211b565b61113161119f565b6001600160a01b0381166111965760405162461bcd60e51b815260206004820152602660248201527f4f776e61626c653a206e6577206f776e657220697320746865207a65726f206160448201526564647265737360d01b606482015260840161066e565b610579816118a4565b336111a8610a52565b6001600160a01b0316146108445760405162461bcd60e51b815260206004820181905260248201527f4f776e61626c653a2063616c6c6572206973206e6f7420746865206f776e6572604482015260640161066e565b6112066121b5565b6001805460ff60a01b191690557f5db9ee0a495bf2e6ff9c91a7834c1ba4fdd244a5e8aa4e537bd38aeae4b073aa335b6040516112439190612632565b60405180910390a1565b6112556112e9565b6001805460ff60a01b1916600160a01b1790557f62e78cea01bee320cd4e420270b5ea74000d11b0c9f74754ebdbfc544b05a2586112363390565b6002600054036112e25760405162461bcd60e51b815260206004820152601f60248201527f5265656e7472616e637947756172643a207265656e7472616e742063616c6c00604482015260640161066e565b6002600055565b6112f161091c565b156108445760405162461bcd60e51b815260206004820152601060248201526f14185d5cd8589b194e881c185d5cd95960821b604482015260640161066e565b61133a81612200565b600454600090815b81831015611425576004838154811061135d5761135d61270e565b60009182526020808320909101546001600160a01b038781168452600b83526040808520919092168085529252909120549091508015611419576001600160a01b038086166000908152600b60209081526040808320938616808452939091528120556113cb908683611aa9565b816001600160a01b0316856001600160a01b03167fa0306f61d3fafe13787b78e276cb6b644382854a66cb46daae14227d3ec267978360405161141091815260200190565b60405180910390a35b50600190920191611342565b50505050565b611436600084611a07565b6001600160a01b03831660009081526009602052604090205460ff166114875760405162461bcd60e51b815260206004820152600660248201526510ba37b5b2b760d11b604482015260640161066e565b6001600160a01b0383166000908152600560205260409020544281116114d2576114b462093a80846127b1565b6001600160a01b038516600090815260066020526040902055611537565b6001600160a01b03841660009081526006602052604081205490816114f74285612767565b611501919061273a565b905062093a8061151182876127d3565b61151b91906127b1565b6001600160a01b03871660009081526006602052604090205550505b6001600160a01b038416600090815260076020526040902042908190556115629062093a80906127d3565b6001600160a01b0385166000908152600560205260409020558115611596576115966001600160a01b03851633308661224f565b6040516370a0823160e01b81526000906001600160a01b038616906370a08231906115c5903090600401612632565b602060405180830381865afa1580156115e2573d6000803e3d6000fd5b505050506040513d601f19601f820116820180604052508101906116069190612798565b905061161562093a80826127b1565b6001600160a01b03861660009081526006602052604090205411156116645760405162461bcd60e51b8152602060048201526005602482015264217261746560d81b604482015260640161066e565b846001600160a01b03167fac24935fd910bc682b5ccb1a07b718cadf8cf2f6d1404c4f3ddc3662dae40e298560405161169f91815260200190565b60405180910390a25050505050565b6001600160a01b038083166000908152600a602090815260408083209385168352929052908120548190670de0b6b3a7640000906116eb8561211b565b6116f59190612767565b6001600160a01b0386166000908152600c6020526040902054611718919061273a565b61172291906127b1565b6001600160a01b038086166000908152600b602090815260408083209388168352929052205490915061175590826127d3565b949350505050565b611765611290565b600154600160a81b900460ff161561177c57600080fd5b6000811161179c5760405162461bcd60e51b815260040161066e906127e6565b336000908152600c60205260409020546117c85760405162461bcd60e51b815260040161066e9061277a565b610e0033612200565b600480546117e190600190612767565b815481106117f1576117f161270e565b600091825260209091200154600480546001600160a01b03909216918390811061181d5761181d61270e565b9060005260206000200160006101000a8154816001600160a01b0302191690836001600160a01b03160217905550600480548061185c5761185c612805565b60008281526020808220830160001990810180546001600160a01b03191690559092019092556001600160a01b0393909316815260099092525060409020805460ff19169055565b600180546001600160a01b038381166001600160a01b0319831681179093556040519116919082907f8be0079c531659141344cd1fd0a4f28419497f9722a3daafe3b4186f6b6457e090600090a35050565b6118fe611290565b600154600160a81b900460ff161561191557600080fd5b600082116119355760405162461bcd60e51b815260040161066e906127e6565b61193e81612200565b6001600160a01b0381166000908152600c6020526040812080548492906119669084906127d3565b92505081905550816002600082825461197f91906127d3565b909155506119ba90506001600160a01b037f00000000000000000000000000000000000000000000000000000000000000001682308561224f565b806001600160a01b03167fe1fffcc4923d04b559f4d29a8bfc6cda04eb5b0d3c460751c2402c5c5cc9109c836040516119f591815260200190565b60405180910390a26107f76001600055565b6000611a128261211b565b6001600160a01b03831660009081526008602052604090208190559050611a3882612287565b6001600160a01b0380841660009081526007602052604090209190915583161561091757611a6683836116ae565b6001600160a01b039384166000818152600b602090815260408083209690971680835295815286822093909355908152600a825284812093815292905291902055565b6109178363a9059cbb60e01b8484604051602401611ac892919061281b565b60408051601f198184030181529190526020810180516001600160e01b03166001600160e01b0319909316929092179091526122ab565b600354604051637aaac16d60e11b815260009182916001600160a01b03909116908290829063f55582da90611b38903090600401612632565b600060405180830381865afa158015611b55573d6000803e3d6000fd5b505050506040513d6000823e601f3d908101601f19168201604052611b7d9190810190612834565b60035460408051600481526024810182526020810180516001600160e01b031663d294f09360e01b17905290519293506000926001600160a01b0390921691611bc69190612925565b6000604051808303816000865af19150503d8060008114611c03576040519150601f19603f3d011682016040523d82523d6000602084013e611c08565b606091505b5050905080611c535760405162461bcd60e51b815260206004820152601760248201527618db185a5b5199595cca0a4818d85b1b0819985a5b1959604a1b604482015260640161066e565b6000836001600160a01b0316637e1c0c096040518163ffffffff1660e01b8152600401602060405180830381865afa158015611c93573d6000803e3d6000fd5b505050506040513d601f19601f82011682018060405250810190611cb79190612798565b905060005b81811015611e5a576040516327b2595f60e11b8152600481018290526000906001600160a01b03871690634f64b2be90602401602060405180830381865afa158015611d0c573d6000803e3d6000fd5b505050506040513d601f19601f82011682018060405250810190611d309190612689565b90506000858381518110611d4657611d4661270e565b60200260200101519050600081118015611dcc57506040516370a0823160e01b81526001600160a01b038316906370a0823190611d87903090600401612632565b602060405180830381865afa158015611da4573d6000803e3d6000fd5b505050506040513d601f19601f82011682018060405250810190611dc89190612798565b8111155b15611e5057600d54611deb906001600160a01b03848116911683612380565b600d5460405163b66503cf60e01b81526001600160a01b039091169063b66503cf90611e1d908590859060040161281b565b600060405180830381600087803b158015611e3757600080fd5b505af1158015611e4b573d6000803e3d6000fd5b505050505b5050600101611cbc565b50600096879650945050505050565b6003546040805163d294f09360e01b8152815160009384937f0000000000000000000000000000000000000000000000000000000000000000936001600160a01b039092169263d294f093926004808201939291829003018188875af1158015611ed7573d6000803e3d6000fd5b505050506040513d601f19601f82011682018060405250810190611efb9190612941565b80935081945050506000816001600160a01b0316630dfe16816040518163ffffffff1660e01b8152600401602060405180830381865afa158015611f43573d6000803e3d6000fd5b505050506040513d601f19601f82011682018060405250810190611f679190612689565b90506000826001600160a01b031663d21220a76040518163ffffffff1660e01b8152600401602060405180830381865afa158015611fa9573d6000803e3d6000fd5b505050506040513d601f19601f82011682018060405250810190611fcd9190612689565b9050841561205457600d54611fef906001600160a01b03848116911687612380565b600d5460405163b66503cf60e01b81526001600160a01b039091169063b66503cf90612021908590899060040161281b565b600060405180830381600087803b15801561203b57600080fd5b505af115801561204f573d6000803e3d6000fd5b505050505b83156120d957600d54612074906001600160a01b03838116911686612380565b600d5460405163b66503cf60e01b81526001600160a01b039091169063b66503cf906120a6908490889060040161281b565b600060405180830381600087803b1580156120c057600080fd5b505af11580156120d4573d6000803e3d6000fd5b505050505b604080518681526020810186905233917fbc567d6cbad26368064baa0ab5a757be46aae4d70f707f9203d9d9b6c8ccbfa3910160405180910390a25050509091565b6001600160a01b03811660009081526008602052604081205460025482036121435792915050565b6002546001600160a01b03841660009081526006602090815260408083205460079092529091205461217486612287565b61217e9190612767565b612188919061273a565b61219a90670de0b6b3a764000061273a565b6121a491906127b1565b6121ae90826127d3565b9392505050565b6121bd61091c565b6108445760405162461bcd60e51b815260206004820152601460248201527314185d5cd8589b194e881b9bdd081c185d5cd95960621b604482015260640161066e565b600454600090815b8183101561142557600483815481106122235761222361270e565b6000918252602090912001546001600160a01b031690506122448482611a07565b600190920191612208565b6040516001600160a01b03808516602483015283166044820152606481018290526114259085906323b872dd60e01b90608401611ac8565b6001600160a01b03811660009081526005602052604081205461080a90429061241e565b6000612300826040518060400160405280602081526020017f5361666545524332303a206c6f772d6c6576656c2063616c6c206661696c6564815250856001600160a01b03166124349092919063ffffffff16565b90508051600014806123215750808060200190518101906123219190612965565b6109175760405162461bcd60e51b815260206004820152602a60248201527f5361666545524332303a204552433230206f7065726174696f6e20646964206e6044820152691bdd081cdd58d8d9595960b21b606482015260840161066e565b604051636eb1769f60e11b81523060048201526001600160a01b0383811660248301526000919085169063dd62ed3e90604401602060405180830381865afa1580156123d0573d6000803e3d6000fd5b505050506040513d601f19601f820116820180604052508101906123f49190612798565b90506114258463095ea7b360e01b8561240d86866127d3565b604051602401611ac892919061281b565b600081831061242d5781610807565b5090919050565b6060611755848460008585600080866001600160a01b0316858760405161245b9190612925565b60006040518083038185875af1925050503d8060008114612498576040519150601f19603f3d011682016040523d82523d6000602084013e61249d565b606091505b50915091506124ae878383876124b9565b979650505050505050565b60608315612528578251600003612521576001600160a01b0385163b6125215760405162461bcd60e51b815260206004820152601d60248201527f416464726573733a2063616c6c20746f206e6f6e2d636f6e7472616374000000604482015260640161066e565b5081611755565b611755838381511561253d5781518083602001fd5b8060405162461bcd60e51b815260040161066e9190612982565b801515811461057957600080fd5b60006020828403121561257757600080fd5b81356121ae81612557565b6001600160a01b038116811461057957600080fd5b6000602082840312156125a957600080fd5b81356121ae81612582565b600080604083850312156125c757600080fd5b82356125d281612582565b946020939093013593505050565b600080604083850312156125f357600080fd5b82356125fe81612582565b9150602083013561260e81612582565b809150509250929050565b60006020828403121561262b57600080fd5b5035919050565b6001600160a01b0391909116815260200190565b602080825282518282018190526000918401906040840190835b8181101561267e578351835260209384019390920191600101612660565b509095945050505050565b60006020828403121561269b57600080fd5b81516121ae81612582565b6020808252600e908201526d10b4b9a932bbb0b9322a37b5b2b760911b604082015260600190565b602080825260059082015264041646472360dc1b604082015260600190565b6020808252600790820152662164697374726f60c81b604082015260600190565b634e487b7160e01b600052603260045260246000fd5b634e487b7160e01b600052601160045260246000fd5b808202811582820484141761080a5761080a612724565b634e487b7160e01b600052604160045260246000fd5b8181038181111561080a5761080a612724565b602080825260049082015263062616c360e41b604082015260600190565b6000602082840312156127aa57600080fd5b5051919050565b6000826127ce57634e487b7160e01b600052601260045260246000fd5b500490565b8082018082111561080a5761080a612724565b6020808252600590820152640616d6e74360dc1b604082015260600190565b634e487b7160e01b600052603160045260246000fd5b6001600160a01b03929092168252602082015260400190565b60006020828403121561284657600080fd5b815167ffffffffffffffff81111561285d57600080fd5b8201601f8101841361286e57600080fd5b805167ffffffffffffffff81111561288857612888612751565b8060051b604051601f19603f830116810181811067ffffffffffffffff821117156128b5576128b5612751565b6040529182526020818401810192908101878411156128d357600080fd5b6020850194505b838510156128f6578451808252602095860195909350016128da565b509695505050505050565b60005b8381101561291c578181015183820152602001612904565b50506000910152565b60008251612937818460208701612901565b9190910192915050565b6000806040838503121561295457600080fd5b505080516020909101519092909150565b60006020828403121561297757600080fd5b81516121ae81612557565b60208152600082518060208401526129a1816040850160208701612901565b601f01601f1916919091016040019291505056fea264697066735822122001bb2be67b6f51febbc35a0e78eb515f4b6658cdefc9e123698747f937d980f864736f6c634300081c003324768a6ab335e2a1830f89d00694f4c8c79419c278b5acd7dc0b93166bf651b12ad5dda4abad2eba9015076cc6a1db468a91b444067d58b590c8c73985521a04a2646970667358221220e328914e7aaa5a3d09d4b5fe574d04fffed7e1ccb7a51bec51308f97bad8ac6864736f6c634300081c003324768a6ab335e2a1830f89d00694f4c8c79419c278b5acd7dc0b93166bf651b12ad5dda4abad2eba9015076cc6a1db468a91b444067d58b590c8c73985521a04",
  "linkReferences": {},
  "deployedLinkReferences": {}
}