{
  "_format": "hh-sol-artifact-1",
  "contractName": "GlobalFactory",
  "sourceName": "contracts/GlobalFactory.sol",
  "abi": [
    {
      "inputs": [
        {
          "internalType": "address",
          "name": "_voter",
          "type": "address"
        },
        {
          "internalType": "address",
          "name": "_emissionToken",
          "type": "address"
        },
        {
          "internalType": "address",
          "name": "_epochDistributor",
          "type": "address"
        },
        {
          "internalType": "address",
          "name": "_pfsld",
          "type": "address"
        },
        {
          "internalType": "address",
          "name": "_pfalgb",
          "type": "address"
        },
        {
          "internalType": "address",
          "name": "_gf",
          "type": "address"
        },
        {
          "internalType": "address",
          "name": "_vif",
          "type": "address"
        },
        {
          "internalType": "address",
          "name": "_treasury",
          "type": "address"
        },
        {
          "internalType": "address",
          "name": "_claimer",
          "type": "address"
        },
        {
          "internalType": "address",
          "name": "_incentiveMaker",
          "type": "address"
        }
      ],
      "stateMutability": "nonpayable",
      "type": "constructor"
    },
    {
      "inputs": [],
      "name": "AddressZero",
      "type": "error"
    },
    {
      "inputs": [],
      "name": "NotAllowed",
      "type": "error"
    },
    {
      "inputs": [],
      "name": "NotValidPool",
      "type": "error"
    },
    {
      "inputs": [],
      "name": "PoolExists",
      "type": "error"
    },
    {
      "inputs": [],
      "name": "PoolIsNotAContract",
      "type": "error"
    },
    {
      "inputs": [],
      "name": "PoolType",
      "type": "error"
    },
    {
      "inputs": [],
      "name": "TokenNotAllowed",
      "type": "error"
    },
    {
      "anonymous": false,
      "inputs": [
        {
          "indexed": true,
          "internalType": "address",
          "name": "token",
          "type": "address"
        }
      ],
      "name": "AddToken",
      "type": "event"
    },
    {
      "anonymous": false,
      "inputs": [
        {
          "indexed": false,
          "internalType": "address",
          "name": "feeVault",
          "type": "address"
        },
        {
          "indexed": true,
          "internalType": "address",
          "name": "gauge",
          "type": "address"
        },
        {
          "indexed": false,
          "internalType": "address",
          "name": "votingIncentives",
          "type": "address"
        },
        {
          "indexed": true,
          "internalType": "address",
          "name": "pool",
          "type": "address"
        }
      ],
      "name": "Create",
      "type": "event"
    },
    {
      "anonymous": false,
      "inputs": [
        {
          "indexed": true,
          "internalType": "address",
          "name": "token",
          "type": "address"
        }
      ],
      "name": "RemoveToken",
      "type": "event"
    },
    {
      "anonymous": false,
      "inputs": [
        {
          "indexed": true,
          "internalType": "bytes32",
          "name": "role",
          "type": "bytes32"
        },
        {
          "indexed": true,
          "internalType": "bytes32",
          "name": "previousAdminRole",
          "type": "bytes32"
        },
        {
          "indexed": true,
          "internalType": "bytes32",
          "name": "newAdminRole",
          "type": "bytes32"
        }
      ],
      "name": "RoleAdminChanged",
      "type": "event"
    },
    {
      "anonymous": false,
      "inputs": [
        {
          "indexed": true,
          "internalType": "bytes32",
          "name": "role",
          "type": "bytes32"
        },
        {
          "indexed": true,
          "internalType": "address",
          "name": "account",
          "type": "address"
        },
        {
          "indexed": true,
          "internalType": "address",
          "name": "sender",
          "type": "address"
        }
      ],
      "name": "RoleGranted",
      "type": "event"
    },
    {
      "anonymous": false,
      "inputs": [
        {
          "indexed": true,
          "internalType": "bytes32",
          "name": "role",
          "type": "bytes32"
        },
        {
          "indexed": true,
          "internalType": "address",
          "name": "account",
          "type": "address"
        },
        {
          "indexed": true,
          "internalType": "address",
          "name": "sender",
          "type": "address"
        }
      ],
      "name": "RoleRevoked",
      "type": "event"
    },
    {
      "anonymous": false,
      "inputs": [
        {
          "indexed": true,
          "internalType": "address",
          "name": "claimer",
          "type": "address"
        }
      ],
      "name": "SetClaimer",
      "type": "event"
    },
    {
      "anonymous": false,
      "inputs": [
        {
          "indexed": true,
          "internalType": "address",
          "name": "epochDistributor",
          "type": "address"
        }
      ],
      "name": "SetEpochDistributor",
      "type": "event"
    },
    {
      "anonymous": false,
      "inputs": [
        {
          "indexed": true,
          "internalType": "address",
          "name": "gf",
          "type": "address"
        }
      ],
      "name": "SetGaugeFactory",
      "type": "event"
    },
    {
      "anonymous": false,
      "inputs": [
        {
          "indexed": true,
          "internalType": "address",
          "name": "incentiveMaker",
          "type": "address"
        }
      ],
      "name": "SetIncentiveMaker",
      "type": "event"
    },
    {
      "anonymous": false,
      "inputs": [
        {
          "indexed": true,
          "internalType": "address",
          "name": "pfa",
          "type": "address"
        }
      ],
      "name": "SetPairFactoryAlgebra",
      "type": "event"
    },
    {
      "anonymous": false,
      "inputs": [
        {
          "indexed": true,
          "internalType": "address",
          "name": "pfs",
          "type": "address"
        }
      ],
      "name": "SetPairFactorySolidly",
      "type": "event"
    },
    {
      "anonymous": false,
      "inputs": [
        {
          "indexed": true,
          "internalType": "uint8",
          "name": "poolType",
          "type": "uint8"
        },
        {
          "indexed": false,
          "internalType": "bool",
          "name": "status",
          "type": "bool"
        }
      ],
      "name": "SetPoolType",
      "type": "event"
    },
    {
      "anonymous": false,
      "inputs": [
        {
          "indexed": true,
          "internalType": "uint8",
          "name": "poolType",
          "type": "uint8"
        },
        {
          "indexed": false,
          "internalType": "bool",
          "name": "status",
          "type": "bool"
        },
        {
          "indexed": false,
          "internalType": "address",
          "name": "user",
          "type": "address"
        }
      ],
      "name": "SetPoolTypeCreator",
      "type": "event"
    },
    {
      "anonymous": false,
      "inputs": [
        {
          "indexed": true,
          "internalType": "address",
          "name": "treasury",
          "type": "address"
        }
      ],
      "name": "SetTreasury",
      "type": "event"
    },
    {
      "anonymous": false,
      "inputs": [
        {
          "indexed": true,
          "internalType": "address",
          "name": "voter",
          "type": "address"
        }
      ],
      "name": "SetVoter",
      "type": "event"
    },
    {
      "anonymous": false,
      "inputs": [
        {
          "indexed": true,
          "internalType": "address",
          "name": "vif",
          "type": "address"
        }
      ],
      "name": "SetVotingIncentivesFactory",
      "type": "event"
    },
    {
      "anonymous": false,
      "inputs": [
        {
          "indexed": true,
          "internalType": "address",
          "name": "wf",
          "type": "address"
        }
      ],
      "name": "SetWeightedFactory",
      "type": "event"
    },
    {
      "inputs": [],
      "name": "ADDR_0",
      "outputs": [
        {
          "internalType": "address",
          "name": "",
          "type": "address"
        }
      ],
      "stateMutability": "view",
      "type": "function"
    },
    {
      "inputs": [],
      "name": "DEFAULT_ADMIN_ROLE",
      "outputs": [
        {
          "internalType": "bytes32",
          "name": "",
          "type": "bytes32"
        }
      ],
      "stateMutability": "view",
      "type": "function"
    },
    {
      "inputs": [],
      "name": "FEE_VAULT_MANAGER_ROLE",
      "outputs": [
        {
          "internalType": "bytes32",
          "name": "",
          "type": "bytes32"
        }
      ],
      "stateMutability": "view",
      "type": "function"
    },
    {
      "inputs": [],
      "name": "GLOBAL_FACTORY_MANAGER_ROLE",
      "outputs": [
        {
          "internalType": "bytes32",
          "name": "",
          "type": "bytes32"
        }
      ],
      "stateMutability": "view",
      "type": "function"
    },
    {
      "inputs": [],
      "name": "POOL_TYPE_ALGEBRA",
      "outputs": [
        {
          "internalType": "uint8",
          "name": "",
          "type": "uint8"
        }
      ],
      "stateMutability": "view",
      "type": "function"
    },
    {
      "inputs": [],
      "name": "POOL_TYPE_ALM",
      "outputs": [
        {
          "internalType": "uint8",
          "name": "",
          "type": "uint8"
        }
      ],
      "stateMutability": "view",
      "type": "function"
    },
    {
      "inputs": [],
      "name": "POOL_TYPE_SOLIDLY",
      "outputs": [
        {
          "internalType": "uint8",
          "name": "",
          "type": "uint8"
        }
      ],
      "stateMutability": "view",
      "type": "function"
    },
    {
      "inputs": [],
      "name": "POOL_TYPE_WEIGHTED",
      "outputs": [
        {
          "internalType": "uint8",
          "name": "",
          "type": "uint8"
        }
      ],
      "stateMutability": "view",
      "type": "function"
    },
    {
      "inputs": [
        {
          "internalType": "address[]",
          "name": "_tokens",
          "type": "address[]"
        }
      ],
      "name": "addToken",
      "outputs": [],
      "stateMutability": "nonpayable",
      "type": "function"
    },
    {
      "inputs": [],
      "name": "algebraFactory",
      "outputs": [
        {
          "internalType": "contract IAlgebraFactory",
          "name": "",
          "type": "address"
        }
      ],
      "stateMutability": "view",
      "type": "function"
    },
    {
      "inputs": [
        {
          "internalType": "address",
          "name": "feevault",
          "type": "address"
        },
        {
          "internalType": "address",
          "name": "caller",
          "type": "address"
        },
        {
          "internalType": "bool",
          "name": "status",
          "type": "bool"
        }
      ],
      "name": "allow_feeVault",
      "outputs": [],
      "stateMutability": "nonpayable",
      "type": "function"
    },
    {
      "inputs": [
        {
          "internalType": "uint8",
          "name": "",
          "type": "uint8"
        },
        {
          "internalType": "address",
          "name": "",
          "type": "address"
        }
      ],
      "name": "canCreatePoolType",
      "outputs": [
        {
          "internalType": "bool",
          "name": "",
          "type": "bool"
        }
      ],
      "stateMutability": "view",
      "type": "function"
    },
    {
      "inputs": [],
      "name": "claimer",
      "outputs": [
        {
          "internalType": "address",
          "name": "",
          "type": "address"
        }
      ],
      "stateMutability": "view",
      "type": "function"
    },
    {
      "inputs": [
        {
          "internalType": "address",
          "name": "_pool",
          "type": "address"
        },
        {
          "internalType": "uint8",
          "name": "pool_type",
          "type": "uint8"
        }
      ],
      "name": "create",
      "outputs": [
        {
          "internalType": "address",
          "name": "feeVault",
          "type": "address"
        },
        {
          "internalType": "address",
          "name": "gauge",
          "type": "address"
        },
        {
          "internalType": "address",
          "name": "votingIncentives",
          "type": "address"
        }
      ],
      "stateMutability": "nonpayable",
      "type": "function"
    },
    {
      "inputs": [
        {
          "internalType": "uint256",
          "name": "",
          "type": "uint256"
        }
      ],
      "name": "defaultGaugeRewardTokens",
      "outputs": [
        {
          "internalType": "address",
          "name": "",
          "type": "address"
        }
      ],
      "stateMutability": "view",
      "type": "function"
    },
    {
      "inputs": [],
      "name": "emissionToken",
      "outputs": [
        {
          "internalType": "address",
          "name": "",
          "type": "address"
        }
      ],
      "stateMutability": "view",
      "type": "function"
    },
    {
      "inputs": [],
      "name": "epochDistributor",
      "outputs": [
        {
          "internalType": "address",
          "name": "",
          "type": "address"
        }
      ],
      "stateMutability": "view",
      "type": "function"
    },
    {
      "inputs": [],
      "name": "gaugeFactory",
      "outputs": [
        {
          "internalType": "contract IGaugeFactory",
          "name": "",
          "type": "address"
        }
      ],
      "stateMutability": "view",
      "type": "function"
    },
    {
      "inputs": [
        {
          "internalType": "bytes32",
          "name": "role",
          "type": "bytes32"
        }
      ],
      "name": "getRoleAdmin",
      "outputs": [
        {
          "internalType": "bytes32",
          "name": "",
          "type": "bytes32"
        }
      ],
      "stateMutability": "view",
      "type": "function"
    },
    {
      "inputs": [
        {
          "internalType": "bytes32",
          "name": "role",
          "type": "bytes32"
        },
        {
          "internalType": "address",
          "name": "account",
          "type": "address"
        }
      ],
      "name": "grantRole",
      "outputs": [],
      "stateMutability": "nonpayable",
      "type": "function"
    },
    {
      "inputs": [
        {
          "internalType": "bytes32",
          "name": "role",
          "type": "bytes32"
        },
        {
          "internalType": "address",
          "name": "account",
          "type": "address"
        }
      ],
      "name": "hasRole",
      "outputs": [
        {
          "internalType": "bool",
          "name": "",
          "type": "bool"
        }
      ],
      "stateMutability": "view",
      "type": "function"
    },
    {
      "inputs": [],
      "name": "incentiveMaker",
      "outputs": [
        {
          "internalType": "address",
          "name": "",
          "type": "address"
        }
      ],
      "stateMutability": "view",
      "type": "function"
    },
    {
      "inputs": [
        {
          "internalType": "address",
          "name": "",
          "type": "address"
        }
      ],
      "name": "isToken",
      "outputs": [
        {
          "internalType": "bool",
          "name": "",
          "type": "bool"
        }
      ],
      "stateMutability": "view",
      "type": "function"
    },
    {
      "inputs": [],
      "name": "pairFactorySld",
      "outputs": [
        {
          "internalType": "contract IPairFactory",
          "name": "",
          "type": "address"
        }
      ],
      "stateMutability": "view",
      "type": "function"
    },
    {
      "inputs": [
        {
          "internalType": "uint8",
          "name": "",
          "type": "uint8"
        }
      ],
      "name": "poolType",
      "outputs": [
        {
          "internalType": "bool",
          "name": "",
          "type": "bool"
        }
      ],
      "stateMutability": "view",
      "type": "function"
    },
    {
      "inputs": [
        {
          "internalType": "address",
          "name": "feevault",
          "type": "address"
        },
        {
          "internalType": "address",
          "name": "_tokenAddress",
          "type": "address"
        },
        {
          "internalType": "uint256",
          "name": "_tokenAmount",
          "type": "uint256"
        }
      ],
      "name": "recoverERC20_feeVault",
      "outputs": [],
      "stateMutability": "nonpayable",
      "type": "function"
    },
    {
      "inputs": [
        {
          "internalType": "address[]",
          "name": "_tokens",
          "type": "address[]"
        }
      ],
      "name": "removeToken",
      "outputs": [],
      "stateMutability": "nonpayable",
      "type": "function"
    },
    {
      "inputs": [
        {
          "internalType": "bytes32",
          "name": "role",
          "type": "bytes32"
        },
        {
          "internalType": "address",
          "name": "account",
          "type": "address"
        }
      ],
      "name": "renounceRole",
      "outputs": [],
      "stateMutability": "nonpayable",
      "type": "function"
    },
    {
      "inputs": [
        {
          "internalType": "bytes32",
          "name": "role",
          "type": "bytes32"
        },
        {
          "internalType": "address",
          "name": "account",
          "type": "address"
        }
      ],
      "name": "revokeRole",
      "outputs": [],
      "stateMutability": "nonpayable",
      "type": "function"
    },
    {
      "inputs": [
        {
          "internalType": "address",
          "name": "_claimer",
          "type": "address"
        }
      ],
      "name": "setClaimer",
      "outputs": [],
      "stateMutability": "nonpayable",
      "type": "function"
    },
    {
      "inputs": [
        {
          "internalType": "address",
          "name": "_epochDistributor",
          "type": "address"
        }
      ],
      "name": "setDistribution",
      "outputs": [],
      "stateMutability": "nonpayable",
      "type": "function"
    },
    {
      "inputs": [
        {
          "internalType": "address",
          "name": "_fact",
          "type": "address"
        }
      ],
      "name": "setGaugeFactory",
      "outputs": [],
      "stateMutability": "nonpayable",
      "type": "function"
    },
    {
      "inputs": [
        {
          "internalType": "address",
          "name": "feevault",
          "type": "address"
        },
        {
          "internalType": "address",
          "name": "_gauge",
          "type": "address"
        }
      ],
      "name": "setGauge_feeVault",
      "outputs": [],
      "stateMutability": "nonpayable",
      "type": "function"
    },
    {
      "inputs": [
        {
          "internalType": "address",
          "name": "_incentivemaker",
          "type": "address"
        }
      ],
      "name": "setIncentiveMaker",
      "outputs": [],
      "stateMutability": "nonpayable",
      "type": "function"
    },
    {
      "inputs": [
        {
          "internalType": "address",
          "name": "_fact",
          "type": "address"
        }
      ],
      "name": "setPairFactoryAlgebra",
      "outputs": [],
      "stateMutability": "nonpayable",
      "type": "function"
    },
    {
      "inputs": [
        {
          "internalType": "address",
          "name": "_fact",
          "type": "address"
        }
      ],
      "name": "setPairFactorySolidly",
      "outputs": [],
      "stateMutability": "nonpayable",
      "type": "function"
    },
    {
      "inputs": [
        {
          "internalType": "uint8",
          "name": "_type",
          "type": "uint8"
        },
        {
          "internalType": "bool",
          "name": "status",
          "type": "bool"
        }
      ],
      "name": "setPoolType",
      "outputs": [],
      "stateMutability": "nonpayable",
      "type": "function"
    },
    {
      "inputs": [
        {
          "internalType": "uint8",
          "name": "_type",
          "type": "uint8"
        },
        {
          "internalType": "bool",
          "name": "status",
          "type": "bool"
        },
        {
          "internalType": "address",
          "name": "user",
          "type": "address"
        }
      ],
      "name": "setPoolTypeCreator",
      "outputs": [],
      "stateMutability": "nonpayable",
      "type": "function"
    },
    {
      "inputs": [
        {
          "internalType": "address",
          "name": "feevault",
          "type": "address"
        },
        {
          "internalType": "address",
          "name": "_pool",
          "type": "address"
        }
      ],
      "name": "setPool_feeVault",
      "outputs": [],
      "stateMutability": "nonpayable",
      "type": "function"
    },
    {
      "inputs": [
        {
          "internalType": "address",
          "name": "_treasury",
          "type": "address"
        }
      ],
      "name": "setTreasury",
      "outputs": [],
      "stateMutability": "nonpayable",
      "type": "function"
    },
    {
      "inputs": [
        {
          "internalType": "address",
          "name": "feevault",
          "type": "address"
        },
        {
          "internalType": "uint256",
          "name": "share",
          "type": "uint256"
        }
      ],
      "name": "setTreasuryShare_feeVault",
      "outputs": [],
      "stateMutability": "nonpayable",
      "type": "function"
    },
    {
      "inputs": [
        {
          "internalType": "address",
          "name": "feevault",
          "type": "address"
        },
        {
          "internalType": "address",
          "name": "_treasury",
          "type": "address"
        }
      ],
      "name": "setTreasury_feeVault",
      "outputs": [],
      "stateMutability": "nonpayable",
      "type": "function"
    },
    {
      "inputs": [
        {
          "internalType": "address",
          "name": "_voter",
          "type": "address"
        }
      ],
      "name": "setVoter",
      "outputs": [],
      "stateMutability": "nonpayable",
      "type": "function"
    },
    {
      "inputs": [
        {
          "internalType": "address",
          "name": "_fact",
          "type": "address"
        }
      ],
      "name": "setVotingIncentivesFactory",
      "outputs": [],
      "stateMutability": "nonpayable",
      "type": "function"
    },
    {
      "inputs": [
        {
          "internalType": "address",
          "name": "_fact",
          "type": "address"
        }
      ],
      "name": "setWeightedFactory",
      "outputs": [],
      "stateMutability": "nonpayable",
      "type": "function"
    },
    {
      "inputs": [
        {
          "internalType": "bytes4",
          "name": "interfaceId",
          "type": "bytes4"
        }
      ],
      "name": "supportsInterface",
      "outputs": [
        {
          "internalType": "bool",
          "name": "",
          "type": "bool"
        }
      ],
      "stateMutability": "view",
      "type": "function"
    },
    {
      "inputs": [
        {
          "internalType": "uint256",
          "name": "",
          "type": "uint256"
        }
      ],
      "name": "tokens",
      "outputs": [
        {
          "internalType": "address",
          "name": "",
          "type": "address"
        }
      ],
      "stateMutability": "view",
      "type": "function"
    },
    {
      "inputs": [],
      "name": "treasury",
      "outputs": [
        {
          "internalType": "address",
          "name": "",
          "type": "address"
        }
      ],
      "stateMutability": "view",
      "type": "function"
    },
    {
      "inputs": [],
      "name": "voter",
      "outputs": [
        {
          "internalType": "contract IVoter",
          "name": "",
          "type": "address"
        }
      ],
      "stateMutability": "view",
      "type": "function"
    },
    {
      "inputs": [],
      "name": "votingIncentivesFactory",
      "outputs": [
        {
          "internalType": "contract IVotingIncentivesFactory",
          "name": "",
          "type": "address"
        }
      ],
      "stateMutability": "view",
      "type": "function"
    },
    {
      "inputs": [],
      "name": "weightedFactory",
      "outputs": [
        {
          "internalType": "contract IWeightedPoolsSimple",
          "name": "",
          "type": "address"
        }
      ],
      "stateMutability": "view",
      "type": "function"
    }
  ],
  "bytecode": "0x60a060405234801561001057600080fd5b5060405161470838038061470883398101604081905261002f916103a8565b6001600160a01b038a1661005657604051639fabe1c160e01b815260040160405180910390fd5b6001600160a01b03881661007d57604051639fabe1c160e01b815260040160405180910390fd5b6001600160a01b0387166100a457604051639fabe1c160e01b815260040160405180910390fd5b6001600160a01b0386166100cb57604051639fabe1c160e01b815260040160405180910390fd5b6001600160a01b0385166100f257604051639fabe1c160e01b815260040160405180910390fd5b6001600160a01b03841661011957604051639fabe1c160e01b815260040160405180910390fd5b6001600160a01b03831661014057604051639fabe1c160e01b815260040160405180910390fd5b6001600160a01b03821661016757604051639fabe1c160e01b815260040160405180910390fd5b6001600160a01b03891661018e57604051639fabe1c160e01b815260040160405180910390fd5b6001600160a01b0381166101b557604051639fabe1c160e01b815260040160405180910390fd5b600c80546001600160a01b03199081166001600160a01b038d8116919091179092558a82166080819052600680546001818101835560009283527ff652222313e28459528d920b65115c16c04f3efc82aaedc97be59f3f377c0d3f909101805485169093179092556002805484168786161790556003805484168d86161790556007805484168a86161790556009805484168c8616179055600a805484168b861617905560088054841689861617905560048054841686861617905581549092169286169290921790915561028a90336102ed565b6102b47f3ed15195b156ab70692b41e303d93a82e4d51253041ae47ad698946b14235571336102ed565b6102de7f051c694253ee1de28d55aa7bc6304f8b568f938d7a7e9bdf84d217e165111cbb336102ed565b50505050505050505050610462565b6000828152602081815260408083206001600160a01b038516845290915290205460ff16610388576000828152602081815260408083206001600160a01b03851684529091529020805460ff191660011790556103473390565b6001600160a01b0316816001600160a01b0316837f2f8788117e7eff1d82e926ec794901d17c78024a50270940304540a733656f0d60405160405180910390a45b5050565b80516001600160a01b03811681146103a357600080fd5b919050565b6000806000806000806000806000806101408b8d0312156103c857600080fd5b6103d18b61038c565b99506103df60208c0161038c565b98506103ed60408c0161038c565b97506103fb60608c0161038c565b965061040960808c0161038c565b955061041760a08c0161038c565b945061042560c08c0161038c565b935061043360e08c0161038c565b92506104426101008c0161038c565b91506104516101208c0161038c565b90509295989b9194979a5092959850565b60805161428b61047d6000396000610682015261428b6000f3fe608060405234801561001057600080fd5b50600436106102c15760003560e01c80636697a4371161017d578063bf7cb70b116100d9578063d547741f11610092578063d547741f1461066a578063e20994381461067d578063f0f44260146106a4578063f434cb6b146106b7578063f790dd80146106ca578063f81b0ea4146106dd578063f9d5111c146106f057600080fd5b8063bf7cb70b1461060e578063c746a9f114610621578063c800db6914610629578063c9d3b8a014610631578063cdfb583214610644578063d379be231461065757600080fd5b8063983fcda111610136578063983fcda1146105905780639c1ce4f2146105a55780639c4203a7146105b8578063a217fddf146105cd578063a7b64b04146105d5578063b858af2a146105e8578063b8cc116f146105fb57600080fd5b80636697a4371461050a578063779fa0c41461052c5780637f6990151461053f57806384e6f1751461055257806391d148541461055a578063934d98dd1461056d57600080fd5b80632ab2de661161022c5780633e76d8d9116101e55780633e76d8d91461048557806346c96aac146104985780634bc2a657146104ab5780634f64b2be146104be5780635a9a68d6146104d15780635eb8a82b146104e457806361d027b3146104f757600080fd5b80632ab2de66146103f85780632b61ce9b146104265780632be0c9a7146104395780632f2ff15d1461044c57806336568abe1461045f5780633b99f1581461047257600080fd5b80631243925a1161027e5780631243925a1461035857806319f373611461036b57806323130d111461038e57806323efb7fa146103a1578063248a9ca3146103b457806329d04b95146103e557600080fd5b806301ffc9a7146102c657806302d91df2146102ee5780630caa4b6c146103085780630ccb4851146103105780630d52333c146103305780631088116614610343575b600080fd5b6102d96102d43660046127b6565b610703565b60405190151581526020015b60405180910390f35b6102f6600081565b60405160ff90911681526020016102e5565b6102f6600381565b600854610323906001600160a01b031681565b6040516102e591906127e0565b600754610323906001600160a01b031681565b6103566103513660046127f4565b61073a565b005b6103566103663660046128a2565b610847565b6102d96103793660046128eb565b600d6020526000908152604090205460ff1681565b61035661039c3660046128eb565b6108d4565b6103566103af3660046128eb565b61095e565b6103d76103c2366004612908565b60009081526020819052604090206001015490565b6040519081526020016102e5565b6103566103f3366004612921565b6109e8565b6102d961040636600461295a565b600f60209081526000928352604080842090915290825290205460ff1681565b6103566104343660046128eb565b610a63565b610356610447366004612976565b610aed565b61035661045a3660046129a2565b610b32565b61035661046d3660046129a2565b610b5c565b6103566104803660046128eb565b610bdf565b600954610323906001600160a01b031681565b600c54610323906001600160a01b031681565b6103566104b93660046128eb565b610c69565b6103236104cc366004612908565b610cf3565b600b54610323906001600160a01b031681565b6103566104f23660046129c7565b610d1d565b600154610323906001600160a01b031681565b61051d610518366004612a08565b610db2565b6040516102e593929190612a3d565b61035661053a3660046128eb565b610e30565b61035661054d3660046128eb565b610eba565b610323600081565b6102d96105683660046129a2565b610f44565b6102d961057b366004612a60565b600e6020526000908152604090205460ff1681565b6103d760008051602061421683398151915281565b6103566105b3366004612a7b565b610f6d565b6103d760008051602061423683398151915281565b6103d7600081565b600a54610323906001600160a01b031681565b6103566105f6366004612921565b610fee565b610323610609366004612908565b611032565b61035661061c3660046127f4565b611042565b6102f6600181565b6102f6600281565b61035661063f366004612abb565b61110c565b6103566106523660046128eb565b61117e565b600254610323906001600160a01b031681565b6103566106783660046129a2565b611208565b6103237f000000000000000000000000000000000000000000000000000000000000000081565b6103566106b23660046128eb565b61122d565b600354610323906001600160a01b031681565b6103566106d83660046128eb565b6112b7565b6103566106eb366004612921565b611341565b600454610323906001600160a01b031681565b60006001600160e01b03198216637965db0b60e01b148061073457506301ffc9a760e01b6001600160e01b03198316145b92915050565b60008051602061423683398151915261075281611385565b6000805b838210156108405784848381811061077057610770612ae7565b905060200201602081019061078591906128eb565b6001600160a01b0381166000908152600d602052604090205490915060ff16610835576005805460018082019092557f036b6384b5eca791c62761152d0c79bb0604c104a5fb6f4eb0703f3154bb3db00180546001600160a01b0319166001600160a01b0384169081179091556000818152600d6020526040808220805460ff1916909417909355915190917fe473c74f34be27c1464d6624f14a0d7fd4e301cbfa29c3eba425d378c8a7ebe091a25b600190910190610756565b5050505050565b60008051602061423683398151915261085f81611385565b60ff84166000818152600f602090815260408083206001600160a01b03871680855290835292819020805460ff19168815159081179091558151908152918201929092527f21cc9aa55fbdd1b229eb9124179a73f2f8003de7fdc2c1e99b38f4931e0302e3910160405180910390a250505050565b6000805160206142368339815191526108ec81611385565b6001600160a01b03821661091357604051639fabe1c160e01b815260040160405180910390fd5b600780546001600160a01b0319166001600160a01b0384169081179091556040517fdeb11016ce68cf8804ec69fd7a9499b94e8b193abc64b7f6a797f602b07a3ae390600090a25050565b60008051602061423683398151915261097681611385565b6001600160a01b03821661099d57604051639fabe1c160e01b815260040160405180910390fd5b600b80546001600160a01b0319166001600160a01b0384169081179091556040517f659c2b52daec84e350f862dfbd2d70a0be98d12a7a6a03d1791f2184d02d8c0390600090a25050565b600080516020614216833981519152610a0081611385565b6040516355a68ed360e01b81526001600160a01b038416906355a68ed390610a2c9085906004016127e0565b600060405180830381600087803b158015610a4657600080fd5b505af1158015610a5a573d6000803e3d6000fd5b50505050505050565b600080516020614236833981519152610a7b81611385565b6001600160a01b038216610aa257604051639fabe1c160e01b815260040160405180910390fd5b600a80546001600160a01b0319166001600160a01b0384169081179091556040517fe561f8c311b76a90f0418c5780136508edbe54dfe438b0cc1979d5405177811d90600090a25050565b600080516020614216833981519152610b0581611385565b6040516374f9e6a360e01b8152600481018390526001600160a01b038416906374f9e6a390602401610a2c565b600082815260208190526040902060010154610b4d81611385565b610b578383611392565b505050565b6001600160a01b0381163314610bd15760405162461bcd60e51b815260206004820152602f60248201527f416363657373436f6e74726f6c3a2063616e206f6e6c792072656e6f756e636560448201526e103937b632b9903337b91039b2b63360891b60648201526084015b60405180910390fd5b610bdb8282611416565b5050565b600080516020614236833981519152610bf781611385565b6001600160a01b038216610c1e57604051639fabe1c160e01b815260040160405180910390fd5b600880546001600160a01b0319166001600160a01b0384169081179091556040517f96542255f3428b3a10a23db9b83744da403e62b699feadd6a19bfa7b60769c5790600090a25050565b600080516020614236833981519152610c8181611385565b6001600160a01b038216610ca857604051639fabe1c160e01b815260040160405180910390fd5b600c80546001600160a01b0319166001600160a01b0384169081179091556040517fc6ff127433b785c51da9ae4088ee184c909b1a55b9afd82ae6c64224d3bc15d290600090a25050565b60058181548110610d0357600080fd5b6000918252602090912001546001600160a01b0316905081565b600080516020614216833981519152610d3581611385565b604051638980f11f60e01b81526001600160a01b03848116600483015260248201849052851690638980f11f90604401600060405180830381600087803b158015610d7f57600080fd5b505af1158015610d93573d6000803e3d6000fd5b50610dac925050506001600160a01b038416338461147b565b50505050565b600080600080610dc286866114cd565b9050610dcf818787611d9c565b809450819550829650505050856001600160a01b0316836001600160a01b03167f68ff1cfcdcf76864161555fc0de1878d8f83ec6949bf351df74d8a4a1a2679ab8685604051610e20929190612afd565b60405180910390a3509250925092565b600080516020614236833981519152610e4881611385565b6001600160a01b038216610e6f57604051639fabe1c160e01b815260040160405180910390fd5b600480546001600160a01b0319166001600160a01b0384169081179091556040517f094e717488bad9fc1c6d0fffbafe06b6fcf4d0a978734f31f471f48235e1a78c90600090a25050565b600080516020614236833981519152610ed281611385565b6001600160a01b038216610ef957604051639fabe1c160e01b815260040160405180910390fd5b600380546001600160a01b0319166001600160a01b0384169081179091556040517f5a659307dfa05ccdd64aa026f285b66fc279925644e9d0a6754b0ec25f852c6990600090a25050565b6000918252602082815260408084206001600160a01b0393909316845291905290205460ff1690565b600080516020614216833981519152610f8581611385565b60405163110496e560e01b81526001600160a01b038481166004830152831515602483015285169063110496e590604401600060405180830381600087803b158015610fd057600080fd5b505af1158015610fe4573d6000803e3d6000fd5b5050505050505050565b60008051602061421683398151915261100681611385565b604051630787a21360e51b81526001600160a01b0384169063f0f4426090610a2c9085906004016127e0565b60068181548110610d0357600080fd5b60008051602061423683398151915261105a81611385565b6000805b838210156108405784848381811061107857611078612ae7565b905060200201602081019061108d91906128eb565b6001600160a01b0381166000908152600d602052604090205490915060ff1615611101576110ba8161223a565b6001600160a01b0381166000818152600d6020526040808220805460ff19169055517f4eb129c82dcd3eedb52df2b0e6fb4cfa41ac64ee9d63ff081acbb1877e85d79b9190a25b60019091019061105e565b60008051602061423683398151915261112481611385565b60ff83166000818152600e6020908152604091829020805460ff191686151590811790915591519182527fc95ef773f6043f01dbbddd5de80cfc334aa10c07ab828c84e920cf6c7bce7e57910160405180910390a2505050565b60008051602061423683398151915261119681611385565b6001600160a01b0382166111bd57604051639fabe1c160e01b815260040160405180910390fd5b600280546001600160a01b0319166001600160a01b0384169081179091556040517fdfe91dcad2adcb1ecd18d2e830b469081211d6743c1e2dfa893836431fb7879490600090a25050565b60008281526020819052604090206001015461122381611385565b610b578383611416565b60008051602061423683398151915261124581611385565b6001600160a01b03821661126c57604051639fabe1c160e01b815260040160405180910390fd5b600180546001600160a01b0319166001600160a01b0384169081179091556040517fcb7ef3e545f5cdb893f5c568ba710fe08f336375a2d9fd66e161033f8fc09ef390600090a25050565b6000805160206142368339815191526112cf81611385565b6001600160a01b0382166112f657604051639fabe1c160e01b815260040160405180910390fd5b600980546001600160a01b0319166001600160a01b0384169081179091556040517f24bf218b62e9549c4093312eb349355c745be51ece9dbde3fe069d5932ce2e5e90600090a25050565b60008051602061421683398151915261135981611385565b60405163221b8a9560e11b81526001600160a01b03841690634437152a90610a2c9085906004016127e0565b61138f8133612337565b50565b61139c8282610f44565b610bdb576000828152602081815260408083206001600160a01b03851684529091529020805460ff191660011790556113d23390565b6001600160a01b0316816001600160a01b0316837f2f8788117e7eff1d82e926ec794901d17c78024a50270940304540a733656f0d60405160405180910390a45050565b6114208282610f44565b15610bdb576000828152602081815260408083206001600160a01b0385168085529252808320805460ff1916905551339285917ff6391f5c32d9c69d2a47ea670b442974b53935d1edc7fd64eb21e047a839171b9190a45050565b604080516001600160a01b038416602482015260448082018490528251808303909101815260649091019091526020810180516001600160e01b031663a9059cbb60e01b179052610b57908490612390565b60606001600160a01b0383166114f657604051639fabe1c160e01b815260040160405180910390fd5b60ff8083166000908152600e60205260409020541661152857604051633de93d8960e11b815260040160405180910390fd5b600c54604051635b16ebb760e01b81526001600160a01b0390911690635b16ebb7906115589086906004016127e0565b602060405180830381865afa158015611575573d6000803e3d6000fd5b505050506040513d601f19601f820116820180604052508101906115999190612b17565b156115b757604051637a471e1360e11b815260040160405180910390fd5b826001600160a01b03163b6000036115e25760405163390b45b760e11b815260040160405180910390fd5b60021960ff8316016118bb57600b54604051636634b75360e01b81526001600160a01b0390911690636634b7539061161e9086906004016127e0565b602060405180830381865afa15801561163b573d6000803e3d6000fd5b505050506040513d601f19601f8201168201806040525081019061165f9190612b17565b61167c57604051630664125360e21b815260040160405180910390fd5b6000836001600160a01b03166338fff2d06040518163ffffffff1660e01b8152600401602060405180830381865afa1580156116bc573d6000803e3d6000fd5b505050506040513d601f19601f820116820180604052508101906116e09190612b34565b90506000846001600160a01b0316638d928af86040518163ffffffff1660e01b8152600401602060405180830381865afa158015611722573d6000803e3d6000fd5b505050506040513d601f19601f820116820180604052508101906117469190612b4d565b6001600160a01b031663f94d4668836040518263ffffffff1660e01b815260040161177391815260200190565b600060405180830381865afa158015611790573d6000803e3d6000fd5b505050506040513d6000823e601f3d908101601f191682016040526117b89190810190612c40565b5050905080516001600160401b038111156117d5576117d5612b6a565b6040519080825280602002602001820160405280156117fe578160200160208202803683370190505b50925060005b83518110156118b357600d600083838151811061182357611823612ae7565b6020908102919091018101516001600160a01b031682528101919091526040016000205460ff166118675760405163514e24c360e11b815260040160405180910390fd5b81818151811061187957611879612ae7565b602002602001015184828151811061189357611893612ae7565b6001600160a01b0390921660209283029190910190910152600101611804565b505050610734565b6040805160028082526060820183529091602083019080368337019050509050826001600160a01b0316630dfe16816040518163ffffffff1660e01b8152600401602060405180830381865afa158015611919573d6000803e3d6000fd5b505050506040513d601f19601f8201168201806040525081019061193d9190612b4d565b8160008151811061195057611950612ae7565b60200260200101906001600160a01b031690816001600160a01b031681525050826001600160a01b031663d21220a76040518163ffffffff1660e01b8152600401602060405180830381865afa1580156119ae573d6000803e3d6000fd5b505050506040513d601f19601f820116820180604052508101906119d29190612b4d565b816001815181106119e5576119e5612ae7565b60200260200101906001600160a01b031690816001600160a01b031681525050600d600082600081518110611a1c57611a1c612ae7565b6020908102919091018101516001600160a01b031682528101919091526040016000205460ff161580611a8a5750600d600082600181518110611a6157611a61612ae7565b6020908102919091018101516001600160a01b031682528101919091526040016000205460ff16155b15611aa85760405163514e24c360e11b815260040160405180910390fd5b60ff8216611b435760095460405163e5e31b1360e01b81526001600160a01b039091169063e5e31b1390611ae09086906004016127e0565b602060405180830381865afa158015611afd573d6000803e3d6000fd5b505050506040513d601f19601f82011682018060405250810190611b219190612b17565b611b3e57604051630664125360e21b815260040160405180910390fd5b610734565b60ff8083166000908152600f6020908152604080832033845290915290205416611b8057604051631eb49d6d60e11b815260040160405180910390fd5b600a5481516000916001600160a01b03169063d9a641e19084908490611ba857611ba8612ae7565b602002602001015184600181518110611bc357611bc3612ae7565b60200260200101516040518363ffffffff1660e01b8152600401611be8929190612afd565b602060405180830381865afa158015611c05573d6000803e3d6000fd5b505050506040513d601f19601f82011682018060405250810190611c299190612b4d565b905060001960ff841601611ccf57806001600160a01b0316846001600160a01b03166316f0115b6040518163ffffffff1660e01b8152600401602060405180830381865afa158015611c7f573d6000803e3d6000fd5b505050506040513d601f19601f82011682018060405250810190611ca39190612b4d565b6001600160a01b031614611cca57604051630664125360e21b815260040160405180910390fd5b611d95565b60011960ff841601611d7c5760095460405163e5e31b1360e01b81526001600160a01b039091169063e5e31b1390611d0b9087906004016127e0565b602060405180830381865afa158015611d28573d6000803e3d6000fd5b505050506040513d601f19601f82011682018060405250810190611d4c9190612b17565b80611d5e57506001600160a01b038116155b15611cca57604051630664125360e21b815260040160405180910390fd5b604051633de93d8960e11b815260040160405180910390fd5b5092915050565b6000808060ff8416611db057849250611f0c565b60001960ff851601611e0c5760015460405186916000916001600160a01b0390911690611ddc906127a9565b611de893929190612a3d565b604051809103906000f080158015611e04573d6000803e3d6000fd5b509250611f0c565b60021960ff851601611e8157846001600160a01b031663c44b10bf6040518163ffffffff1660e01b8152600401602060405180830381865afa158015611e56573d6000803e3d6000fd5b505050506040513d601f19601f82011682018060405250810190611e7a9190612b4d565b9250611f0c565b846001600160a01b03166353e978686040518163ffffffff1660e01b8152600401602060405180830381865afa158015611ebf573d6000803e3d6000fd5b505050506040513d601f19601f82011682018060405250810190611ee39190612b4d565b92506001600160a01b038316611f0c57604051639fabe1c160e01b815260040160405180910390fd5b60011960ff851601611f9757600754604051632600cb9760e01b81526001600160a01b0390911690632600cb9790611f4d9088908790600090600401612a3d565b6020604051808303816000875af1158015611f6c573d6000803e3d6000fd5b505050506040513d601f19601f82011682018060405250810190611f909190612b4d565b915061201e565b600754604051632563cf5f60e21b815260ff8616600314916001600160a01b03169063958f3d7c90611fd7906006908a9089906000908890600401612d17565b6020604051808303816000875af1158015611ff6573d6000803e3d6000fd5b505050506040513d601f19601f8201168201806040525081019061201a9190612b4d565b9250505b60085460405163b4f863e760e01b81526001600160a01b039091169063b4f863e7906120539060009081908790600401612a3d565b6020604051808303816000875af1158015612072573d6000803e3d6000fd5b505050506040513d601f19601f820116820180604052508101906120969190612b4d565b905060001960ff851601612103576040516355a68ed360e01b81526001600160a01b038416906355a68ed3906120d09085906004016127e0565b600060405180830381600087803b1580156120ea57600080fd5b505af11580156120fe573d6000803e3d6000fd5b505050505b600754604051635e135a8960e01b81526001600160a01b0390911690635e135a89906121359085908590600401612afd565b600060405180830381600087803b15801561214f57600080fd5b505af1158015612163573d6000803e3d6000fd5b505060085460405163a8667e4760e01b81526001600160a01b03909116925063a8667e4791506121999089908590600401612da0565b600060405180830381600087803b1580156121b357600080fd5b505af11580156121c7573d6000803e3d6000fd5b5050600c54604051631aaaea3760e01b81526001600160a01b039091169250631aaaea3791506121ff90889086908690600401612a3d565b600060405180830381600087803b15801561221957600080fd5b505af115801561222d573d6000803e3d6000fd5b5050505093509350939050565b60005b600554811015610bdb57816001600160a01b03166005828154811061226457612264612ae7565b6000918252602090912001546001600160a01b03160361232f576005805461228e90600190612e19565b8154811061229e5761229e612ae7565b600091825260209091200154600580546001600160a01b0390921691839081106122ca576122ca612ae7565b9060005260206000200160006101000a8154816001600160a01b0302191690836001600160a01b03160217905550600580548061230957612309612e2c565b600082815260209020810160001990810180546001600160a01b03191690550190555050565b60010161223d565b6123418282610f44565b610bdb5761234e81612465565b612359836020612477565b60405160200161236a929190612e66565b60408051601f198184030181529082905262461bcd60e51b8252610bc891600401612ed5565b60006123e5826040518060400160405280602081526020017f5361666545524332303a206c6f772d6c6576656c2063616c6c206661696c6564815250856001600160a01b03166126199092919063ffffffff16565b90508051600014806124065750808060200190518101906124069190612b17565b610b575760405162461bcd60e51b815260206004820152602a60248201527f5361666545524332303a204552433230206f7065726174696f6e20646964206e6044820152691bdd081cdd58d8d9595960b21b6064820152608401610bc8565b60606107346001600160a01b03831660145b60606000612486836002612f08565b612491906002612f1f565b6001600160401b038111156124a8576124a8612b6a565b6040519080825280601f01601f1916602001820160405280156124d2576020820181803683370190505b509050600360fc1b816000815181106124ed576124ed612ae7565b60200101906001600160f81b031916908160001a905350600f60fb1b8160018151811061251c5761251c612ae7565b60200101906001600160f81b031916908160001a9053506000612540846002612f08565b61254b906001612f1f565b90505b60018111156125c3576f181899199a1a9b1b9c1cb0b131b232b360811b85600f166010811061257f5761257f612ae7565b1a60f81b82828151811061259557612595612ae7565b60200101906001600160f81b031916908160001a90535060049490941c936125bc81612f32565b905061254e565b5083156126125760405162461bcd60e51b815260206004820181905260248201527f537472696e67733a20686578206c656e67746820696e73756666696369656e746044820152606401610bc8565b9392505050565b60606126288484600085612630565b949350505050565b6060824710156126915760405162461bcd60e51b815260206004820152602660248201527f416464726573733a20696e73756666696369656e742062616c616e636520666f6044820152651c8818d85b1b60d21b6064820152608401610bc8565b600080866001600160a01b031685876040516126ad9190612f49565b60006040518083038185875af1925050503d80600081146126ea576040519150601f19603f3d011682016040523d82523d6000602084013e6126ef565b606091505b50915091506127008783838761270b565b979650505050505050565b6060831561277a578251600003612773576001600160a01b0385163b6127735760405162461bcd60e51b815260206004820152601d60248201527f416464726573733a2063616c6c20746f206e6f6e2d636f6e74726163740000006044820152606401610bc8565b5081612628565b612628838381511561278f5781518083602001fd5b8060405162461bcd60e51b8152600401610bc89190612ed5565b6112b080612f6683390190565b6000602082840312156127c857600080fd5b81356001600160e01b03198116811461261257600080fd5b6001600160a01b0391909116815260200190565b6000806020838503121561280757600080fd5b82356001600160401b0381111561281d57600080fd5b8301601f8101851361282e57600080fd5b80356001600160401b0381111561284457600080fd5b8560208260051b840101111561285957600080fd5b6020919091019590945092505050565b803560ff8116811461287a57600080fd5b919050565b801515811461138f57600080fd5b6001600160a01b038116811461138f57600080fd5b6000806000606084860312156128b757600080fd5b6128c084612869565b925060208401356128d08161287f565b915060408401356128e08161288d565b809150509250925092565b6000602082840312156128fd57600080fd5b81356126128161288d565b60006020828403121561291a57600080fd5b5035919050565b6000806040838503121561293457600080fd5b823561293f8161288d565b9150602083013561294f8161288d565b809150509250929050565b6000806040838503121561296d57600080fd5b61293f83612869565b6000806040838503121561298957600080fd5b82356129948161288d565b946020939093013593505050565b600080604083850312156129b557600080fd5b82359150602083013561294f8161288d565b6000806000606084860312156129dc57600080fd5b83356129e78161288d565b925060208401356129f78161288d565b929592945050506040919091013590565b60008060408385031215612a1b57600080fd5b8235612a268161288d565b9150612a3460208401612869565b90509250929050565b6001600160a01b0393841681529183166020830152909116604082015260600190565b600060208284031215612a7257600080fd5b61261282612869565b600080600060608486031215612a9057600080fd5b8335612a9b8161288d565b92506020840135612aab8161288d565b915060408401356128e08161287f565b60008060408385031215612ace57600080fd5b612ad783612869565b9150602083013561294f8161287f565b634e487b7160e01b600052603260045260246000fd5b6001600160a01b0392831681529116602082015260400190565b600060208284031215612b2957600080fd5b81516126128161287f565b600060208284031215612b4657600080fd5b5051919050565b600060208284031215612b5f57600080fd5b81516126128161288d565b634e487b7160e01b600052604160045260246000fd5b604051601f8201601f191681016001600160401b0381118282101715612ba857612ba8612b6a565b604052919050565b60006001600160401b03821115612bc957612bc9612b6a565b5060051b60200190565b600082601f830112612be457600080fd5b8151612bf7612bf282612bb0565b612b80565b8082825260208201915060208360051b860101925085831115612c1957600080fd5b602085015b83811015612c36578051835260209283019201612c1e565b5095945050505050565b600080600060608486031215612c5557600080fd5b83516001600160401b03811115612c6b57600080fd5b8401601f81018613612c7c57600080fd5b8051612c8a612bf282612bb0565b8082825260208201915060208360051b850101925088831115612cac57600080fd5b6020840193505b82841015612cd7578351612cc68161288d565b825260209384019390910190612cb3565b8096505050505060208401516001600160401b03811115612cf757600080fd5b612d0386828701612bd3565b604095909501519396949550929392505050565b60a08082528654908201819052600087815260208120909160c0840190835b81811015612d5d5783546001600160a01b0316835260019384019360209093019201612d36565b50506001600160a01b038881166020860152871660408501529150612d7f9050565b6001600160a01b038416606083015282151560808301529695505050505050565b6040808252835190820181905260009060208501906060840190835b81811015612de35783516001600160a01b0316835260209384019390920191600101612dbc565b50506001600160a01b039490941660209390930192909252509092915050565b634e487b7160e01b600052601160045260246000fd5b8181038181111561073457610734612e03565b634e487b7160e01b600052603160045260246000fd5b60005b83811015612e5d578181015183820152602001612e45565b50506000910152565b76020b1b1b2b9b9a1b7b73a3937b61d1030b1b1b7bab73a1604d1b815260008351612e98816017850160208801612e42565b7001034b99036b4b9b9b4b733903937b6329607d1b6017918401918201528351612ec9816028840160208801612e42565b01602801949350505050565b6020815260008251806020840152612ef4816040850160208701612e42565b601f01601f19169190910160400192915050565b808202811582820484141761073457610734612e03565b8082018082111561073457610734612e03565b600081612f4157612f41612e03565b506000190190565b60008251612f5b818460208701612e42565b919091019291505056fe6080604052600060015534801561001557600080fd5b506040516112b03803806112b083398101604081905261003491610283565b61003d33610217565b6001600160a01b03831661006457604051639fabe1c160e01b815260040160405180910390fd5b6001600160a01b03811661008b57604051639fabe1c160e01b815260040160405180910390fd5b600280546001600160a01b0319166001600160a01b03858116919091179091558216156100e9576001600160a01b0382166000818152600760205260409020805460ff19166001179055600380546001600160a01b03191690911790555b600480546001600160a01b0319166001600160a01b0383811691909117825560025460408051630dfe168160e01b815290519190921692630dfe1681928082019260209290918290030181865afa158015610148573d6000803e3d6000fd5b505050506040513d601f19601f8201168201806040525081019061016c91906102c6565b600580546001600160a01b0319166001600160a01b039283161790556002546040805163d21220a760e01b81529051919092169163d21220a79160048083019260209291908290030181865afa1580156101ca573d6000803e3d6000fd5b505050506040513d601f19601f820116820180604052508101906101ee91906102c6565b600680546001600160a01b0319166001600160a01b0392909216919091179055506102e8915050565b600080546001600160a01b038381166001600160a01b0319831681178455604051919092169283917f8be0079c531659141344cd1fd0a4f28419497f9722a3daafe3b4186f6b6457e09190a35050565b80516001600160a01b038116811461027e57600080fd5b919050565b60008060006060848603121561029857600080fd5b6102a184610267565b92506102af60208501610267565b91506102bd60408501610267565b90509250925092565b6000602082840312156102d857600080fd5b6102e182610267565b9392505050565b610fb9806102f76000396000f3fe608060405234801561001057600080fd5b50600436106101115760003560e01c80637796ff37116100ad578063babcc53911610071578063babcc53914610244578063d21220a714610277578063d294f0931461028a578063f0f44260146102a7578063f2fde38b146102ba57600080fd5b80637796ff37146101ec5780638980f11f146102035780638da5cb5b14610216578063a6f19c8414610227578063aaf5eb681461023a57600080fd5b80630dfe168114610116578063110496e51461013f57806316f0115b146101545780634437152a1461016757806354fd4d501461017a57806355a68ed3146101ab57806361d027b3146101be578063715018a6146101d157806374f9e6a3146101d9575b600080fd5b600554610129906001600160a01b031681565b6040516101369190610d7c565b60405180910390f35b61015261014d366004610db3565b6102cd565b005b600254610129906001600160a01b031681565b610152610175366004610dec565b610335565b61019e604051806040016040528060058152602001640332e302e360dc1b81525081565b6040516101369190610e34565b6101526101b9366004610dec565b6104b9565b600454610129906001600160a01b031681565b61015261053a565b6101526101e7366004610e67565b61054e565b6101f560015481565b604051908152602001610136565b610152610211366004610e80565b6105ad565b6000546001600160a01b0316610129565b600354610129906001600160a01b031681565b6101f5620f424081565b610267610252366004610dec565b60076020526000908152604090205460ff1681565b6040519015158152602001610136565b600654610129906001600160a01b031681565b61029261067d565b60408051928352602083019190915201610136565b6101526102b5366004610dec565b61091f565b6101526102c8366004610dec565b610998565b6102d5610a16565b6001600160a01b038216600081815260076020908152604091829020805460ff191685151590811790915591519182527fede61ad8d90ae19c92295efa0ab7179ebfeeea8050223c028abdf71545fdf46a91015b60405180910390a25050565b61033d610a16565b6001600160a01b03811661036457604051639fabe1c160e01b815260040160405180910390fd5b600280546001600160a01b038381166001600160a01b03198316811790935560408051630dfe168160e01b81529051919092169291630dfe16819160048083019260209291908290030181865afa1580156103c3573d6000803e3d6000fd5b505050506040513d601f19601f820116820180604052508101906103e79190610eac565b600580546001600160a01b0319166001600160a01b039283161790556002546040805163d21220a760e01b81529051919092169163d21220a79160048083019260209291908290030181865afa158015610445573d6000803e3d6000fd5b505050506040513d601f19601f820116820180604052508101906104699190610eac565b600680546001600160a01b0319166001600160a01b03928316179055604051838216918316907f390ace337562623e4cf938891cfa7e80b7b2e6ff395963aba93e537ce67e842c90600090a35050565b6104c1610a16565b6001600160a01b0381166104e857604051639fabe1c160e01b815260040160405180910390fd5b600380546001600160a01b038381166001600160a01b0319831681179093556040519116919082907fb980a40e5b6e992493967c8460db4d84575ad3246c3a17141fa7756ae4dd718090600090a35050565b610542610a16565b61054c6000610a70565b565b610556610a16565b620f424081111561057a5760405163f03c00eb60e01b815260040160405180910390fd5b600181905560405181907ff6ff0d95ac61d91b6eab6874111891e531d3dab19b39143a34d210dcdae111d390600090a250565b6105b5610a16565b6040516370a0823160e01b81526001600160a01b038316906370a08231906105e1903090600401610d7c565b602060405180830381865afa1580156105fe573d6000803e3d6000fd5b505050506040513d601f19601f820116820180604052508101906106229190610ec9565b81111561062e57600080fd5b6106426001600160a01b0383163383610ac0565b816001600160a01b03167fbe7426aee8a34d0263892b55ce65ce81d8f4c806eb4719e59015ea49feb92d228260405161032991815260200190565b33600090815260076020526040812054819060ff166106af57604051631eb49d6d60e11b815260040160405180910390fd5b6003546001600160a01b03166106d857604051639fabe1c160e01b815260040160405180910390fd5b6004546001600160a01b031661070157604051639fabe1c160e01b815260040160405180910390fd5b6005546040516370a0823160e01b81526001600160a01b039091169060009082906370a0823190610736903090600401610d7c565b602060405180830381865afa158015610753573d6000803e3d6000fd5b505050506040513d601f19601f820116820180604052508101906107779190610ec9565b90506000620f42406001548361078d9190610ef8565b6107979190610f15565b90506107a38183610f37565b6006546040516370a0823160e01b81529196506001600160a01b03169081906370a08231906107d6903090600401610d7c565b602060405180830381865afa1580156107f3573d6000803e3d6000fd5b505050506040513d601f19601f820116820180604052508101906108179190610ec9565b92506000620f42406001548561082d9190610ef8565b6108379190610f15565b90506108438185610f37565b9550861561087f57821561086b5760045461086b906001600160a01b03878116911685610ac0565b61087f6001600160a01b0386163389610ac0565b85156108b95780156108a5576004546108a5906001600160a01b03848116911683610ac0565b6108b96001600160a01b0383163388610ac0565b6002546040805189815260208101899052908101859052606081018390524260808201526001600160a01b03909116907fdd62b49b6af825b87747e945d9945c319dbc9323433e500e738066086d4f1c6c9060a00160405180910390a250505050509091565b610927610a16565b6001600160a01b03811661094e57604051639fabe1c160e01b815260040160405180910390fd5b600480546001600160a01b0319166001600160a01b0383169081179091556040517fcb7ef3e545f5cdb893f5c568ba710fe08f336375a2d9fd66e161033f8fc09ef390600090a250565b6109a0610a16565b6001600160a01b038116610a0a5760405162461bcd60e51b815260206004820152602660248201527f4f776e61626c653a206e6577206f776e657220697320746865207a65726f206160448201526564647265737360d01b60648201526084015b60405180910390fd5b610a1381610a70565b50565b6000546001600160a01b0316331461054c5760405162461bcd60e51b815260206004820181905260248201527f4f776e61626c653a2063616c6c6572206973206e6f7420746865206f776e65726044820152606401610a01565b600080546001600160a01b038381166001600160a01b0319831681178455604051919092169283917f8be0079c531659141344cd1fd0a4f28419497f9722a3daafe3b4186f6b6457e09190a35050565b604080516001600160a01b038416602482015260448082018490528251808303909101815260649091019091526020810180516001600160e01b031663a9059cbb60e01b179052610b12908490610b17565b505050565b6000610b6c826040518060400160405280602081526020017f5361666545524332303a206c6f772d6c6576656c2063616c6c206661696c6564815250856001600160a01b0316610bec9092919063ffffffff16565b9050805160001480610b8d575080806020019051810190610b8d9190610f4a565b610b125760405162461bcd60e51b815260206004820152602a60248201527f5361666545524332303a204552433230206f7065726174696f6e20646964206e6044820152691bdd081cdd58d8d9595960b21b6064820152608401610a01565b6060610bfb8484600085610c03565b949350505050565b606082471015610c645760405162461bcd60e51b815260206004820152602660248201527f416464726573733a20696e73756666696369656e742062616c616e636520666f6044820152651c8818d85b1b60d21b6064820152608401610a01565b600080866001600160a01b03168587604051610c809190610f67565b60006040518083038185875af1925050503d8060008114610cbd576040519150601f19603f3d011682016040523d82523d6000602084013e610cc2565b606091505b5091509150610cd387838387610cde565b979650505050505050565b60608315610d4d578251600003610d46576001600160a01b0385163b610d465760405162461bcd60e51b815260206004820152601d60248201527f416464726573733a2063616c6c20746f206e6f6e2d636f6e74726163740000006044820152606401610a01565b5081610bfb565b610bfb8383815115610d625781518083602001fd5b8060405162461bcd60e51b8152600401610a019190610e34565b6001600160a01b0391909116815260200190565b6001600160a01b0381168114610a1357600080fd5b8015158114610a1357600080fd5b60008060408385031215610dc657600080fd5b8235610dd181610d90565b91506020830135610de181610da5565b809150509250929050565b600060208284031215610dfe57600080fd5b8135610e0981610d90565b9392505050565b60005b83811015610e2b578181015183820152602001610e13565b50506000910152565b6020815260008251806020840152610e53816040850160208701610e10565b601f01601f19169190910160400192915050565b600060208284031215610e7957600080fd5b5035919050565b60008060408385031215610e9357600080fd5b8235610e9e81610d90565b946020939093013593505050565b600060208284031215610ebe57600080fd5b8151610e0981610d90565b600060208284031215610edb57600080fd5b5051919050565b634e487b7160e01b600052601160045260246000fd5b8082028115828204841417610f0f57610f0f610ee2565b92915050565b600082610f3257634e487b7160e01b600052601260045260246000fd5b500490565b81810381811115610f0f57610f0f610ee2565b600060208284031215610f5c57600080fd5b8151610e0981610da5565b60008251610f79818460208701610e10565b919091019291505056fea2646970667358221220da2ac6cbc1dc8e8137558c44df4701e13c60c726803499739e8e902784788b9064736f6c634300081c0033051c694253ee1de28d55aa7bc6304f8b568f938d7a7e9bdf84d217e165111cbb3ed15195b156ab70692b41e303d93a82e4d51253041ae47ad698946b14235571a26469706673582212201cb03790183d6d10b9306838774610ebffc6f1f1b8fe3fb8187c7a78cb0de62064736f6c634300081c0033",
  "linkReferences": {},
  "deployedLinkReferences": {}
}