{
  "_format": "hh-sol-artifact-1",
  "contractName": "IncentiveMakerUpgradeable",
  "sourceName": "contracts/algebra/IncentiveMakerUpgradeable.sol",
  "abi": [
    {
      "inputs": [],
      "stateMutability": "nonpayable",
      "type": "constructor"
    },
    {
      "inputs": [],
      "name": "IncentiveExists",
      "type": "error"
    },
    {
      "inputs": [],
      "name": "NotGauge",
      "type": "error"
    },
    {
      "inputs": [],
      "name": "NotPlugin",
      "type": "error"
    },
    {
      "inputs": [],
      "name": "RewardAmount",
      "type": "error"
    },
    {
      "inputs": [],
      "name": "ZeroAddress",
      "type": "error"
    },
    {
      "anonymous": false,
      "inputs": [
        {
          "indexed": false,
          "internalType": "uint8",
          "name": "version",
          "type": "uint8"
        }
      ],
      "name": "Initialized",
      "type": "event"
    },
    {
      "anonymous": false,
      "inputs": [
        {
          "indexed": true,
          "internalType": "bytes32",
          "name": "role",
          "type": "bytes32"
        },
        {
          "indexed": true,
          "internalType": "bytes32",
          "name": "previousAdminRole",
          "type": "bytes32"
        },
        {
          "indexed": true,
          "internalType": "bytes32",
          "name": "newAdminRole",
          "type": "bytes32"
        }
      ],
      "name": "RoleAdminChanged",
      "type": "event"
    },
    {
      "anonymous": false,
      "inputs": [
        {
          "indexed": true,
          "internalType": "bytes32",
          "name": "role",
          "type": "bytes32"
        },
        {
          "indexed": true,
          "internalType": "address",
          "name": "account",
          "type": "address"
        },
        {
          "indexed": true,
          "internalType": "address",
          "name": "sender",
          "type": "address"
        }
      ],
      "name": "RoleGranted",
      "type": "event"
    },
    {
      "anonymous": false,
      "inputs": [
        {
          "indexed": true,
          "internalType": "bytes32",
          "name": "role",
          "type": "bytes32"
        },
        {
          "indexed": true,
          "internalType": "address",
          "name": "account",
          "type": "address"
        },
        {
          "indexed": true,
          "internalType": "address",
          "name": "sender",
          "type": "address"
        }
      ],
      "name": "RoleRevoked",
      "type": "event"
    },
    {
      "anonymous": false,
      "inputs": [
        {
          "indexed": false,
          "internalType": "address",
          "name": "algebraEternalFarming",
          "type": "address"
        }
      ],
      "name": "SetEternalFarming",
      "type": "event"
    },
    {
      "inputs": [],
      "name": "DEFAULT_ADMIN_ROLE",
      "outputs": [
        {
          "internalType": "bytes32",
          "name": "",
          "type": "bytes32"
        }
      ],
      "stateMutability": "view",
      "type": "function"
    },
    {
      "inputs": [],
      "name": "INCENTIVE_MAKER_MANAGER_ROLE",
      "outputs": [
        {
          "internalType": "bytes32",
          "name": "",
          "type": "bytes32"
        }
      ],
      "stateMutability": "view",
      "type": "function"
    },
    {
      "inputs": [],
      "name": "MINIMAL_POSITION_WIDTH",
      "outputs": [
        {
          "internalType": "uint24",
          "name": "",
          "type": "uint24"
        }
      ],
      "stateMutability": "view",
      "type": "function"
    },
    {
      "inputs": [
        {
          "internalType": "address",
          "name": "_algebraEternalFarming",
          "type": "address"
        },
        {
          "internalType": "address",
          "name": "_voter",
          "type": "address"
        }
      ],
      "name": "_initialize",
      "outputs": [],
      "stateMutability": "nonpayable",
      "type": "function"
    },
    {
      "inputs": [],
      "name": "algebraEternalFarming",
      "outputs": [
        {
          "internalType": "contract IAlgebraEternalFarming",
          "name": "",
          "type": "address"
        }
      ],
      "stateMutability": "view",
      "type": "function"
    },
    {
      "inputs": [
        {
          "internalType": "address",
          "name": "pool",
          "type": "address"
        },
        {
          "internalType": "uint128",
          "name": "emissionTokenAmount",
          "type": "uint128"
        },
        {
          "internalType": "uint128",
          "name": "wGasTokenAmount",
          "type": "uint128"
        }
      ],
      "name": "createIncentive",
      "outputs": [
        {
          "internalType": "address",
          "name": "",
          "type": "address"
        }
      ],
      "stateMutability": "nonpayable",
      "type": "function"
    },
    {
      "inputs": [],
      "name": "emissionToken",
      "outputs": [
        {
          "internalType": "address",
          "name": "",
          "type": "address"
        }
      ],
      "stateMutability": "view",
      "type": "function"
    },
    {
      "inputs": [],
      "name": "farmingCenter",
      "outputs": [
        {
          "internalType": "contract IFarmingCenter",
          "name": "",
          "type": "address"
        }
      ],
      "stateMutability": "view",
      "type": "function"
    },
    {
      "inputs": [
        {
          "internalType": "bytes32",
          "name": "role",
          "type": "bytes32"
        }
      ],
      "name": "getRoleAdmin",
      "outputs": [
        {
          "internalType": "bytes32",
          "name": "",
          "type": "bytes32"
        }
      ],
      "stateMutability": "view",
      "type": "function"
    },
    {
      "inputs": [
        {
          "internalType": "bytes32",
          "name": "role",
          "type": "bytes32"
        },
        {
          "internalType": "address",
          "name": "account",
          "type": "address"
        }
      ],
      "name": "grantRole",
      "outputs": [],
      "stateMutability": "nonpayable",
      "type": "function"
    },
    {
      "inputs": [
        {
          "internalType": "bytes32",
          "name": "role",
          "type": "bytes32"
        },
        {
          "internalType": "address",
          "name": "account",
          "type": "address"
        }
      ],
      "name": "hasRole",
      "outputs": [
        {
          "internalType": "bool",
          "name": "",
          "type": "bool"
        }
      ],
      "stateMutability": "view",
      "type": "function"
    },
    {
      "inputs": [
        {
          "internalType": "address",
          "name": "pool",
          "type": "address"
        }
      ],
      "name": "incentiveIsActive",
      "outputs": [
        {
          "internalType": "bool",
          "name": "",
          "type": "bool"
        }
      ],
      "stateMutability": "view",
      "type": "function"
    },
    {
      "inputs": [
        {
          "internalType": "address",
          "name": "_emissionToken",
          "type": "address"
        },
        {
          "internalType": "address",
          "name": "_wGasToken",
          "type": "address"
        }
      ],
      "name": "initialize",
      "outputs": [],
      "stateMutability": "nonpayable",
      "type": "function"
    },
    {
      "inputs": [
        {
          "internalType": "address",
          "name": "pool",
          "type": "address"
        }
      ],
      "name": "poolToKey",
      "outputs": [
        {
          "internalType": "contract IERC20Minimal",
          "name": "rewardToken",
          "type": "address"
        },
        {
          "internalType": "contract IERC20Minimal",
          "name": "bonusRewardToken",
          "type": "address"
        },
        {
          "internalType": "contract IAlgebraPool",
          "name": "pool",
          "type": "address"
        },
        {
          "internalType": "uint256",
          "name": "nonce",
          "type": "uint256"
        }
      ],
      "stateMutability": "view",
      "type": "function"
    },
    {
      "inputs": [
        {
          "internalType": "address",
          "name": "pool",
          "type": "address"
        }
      ],
      "name": "poolToVirtualPool",
      "outputs": [
        {
          "internalType": "address",
          "name": "virtualFarmingPool",
          "type": "address"
        }
      ],
      "stateMutability": "view",
      "type": "function"
    },
    {
      "inputs": [
        {
          "internalType": "bytes32",
          "name": "role",
          "type": "bytes32"
        },
        {
          "internalType": "address",
          "name": "account",
          "type": "address"
        }
      ],
      "name": "renounceRole",
      "outputs": [],
      "stateMutability": "nonpayable",
      "type": "function"
    },
    {
      "inputs": [
        {
          "internalType": "bytes32",
          "name": "role",
          "type": "bytes32"
        },
        {
          "internalType": "address",
          "name": "account",
          "type": "address"
        }
      ],
      "name": "revokeRole",
      "outputs": [],
      "stateMutability": "nonpayable",
      "type": "function"
    },
    {
      "inputs": [
        {
          "internalType": "address",
          "name": "_algebraEternalFarming",
          "type": "address"
        }
      ],
      "name": "setAlgebraEnternalFarming",
      "outputs": [],
      "stateMutability": "nonpayable",
      "type": "function"
    },
    {
      "inputs": [
        {
          "internalType": "address",
          "name": "_farmingCenter",
          "type": "address"
        }
      ],
      "name": "setFarmingCenter",
      "outputs": [],
      "stateMutability": "nonpayable",
      "type": "function"
    },
    {
      "inputs": [
        {
          "internalType": "address",
          "name": "pool",
          "type": "address"
        },
        {
          "internalType": "bool",
          "name": "exists",
          "type": "bool"
        }
      ],
      "name": "setIncentiveExists",
      "outputs": [],
      "stateMutability": "nonpayable",
      "type": "function"
    },
    {
      "inputs": [
        {
          "components": [
            {
              "internalType": "contract IERC20Minimal",
              "name": "rewardToken",
              "type": "address"
            },
            {
              "internalType": "contract IERC20Minimal",
              "name": "bonusRewardToken",
              "type": "address"
            },
            {
              "internalType": "contract IAlgebraPool",
              "name": "pool",
              "type": "address"
            },
            {
              "internalType": "uint256",
              "name": "nonce",
              "type": "uint256"
            }
          ],
          "internalType": "struct IncentiveKey",
          "name": "key",
          "type": "tuple"
        }
      ],
      "name": "setPoolToKey",
      "outputs": [],
      "stateMutability": "nonpayable",
      "type": "function"
    },
    {
      "inputs": [
        {
          "internalType": "bytes4",
          "name": "interfaceId",
          "type": "bytes4"
        }
      ],
      "name": "supportsInterface",
      "outputs": [
        {
          "internalType": "bool",
          "name": "",
          "type": "bool"
        }
      ],
      "stateMutability": "view",
      "type": "function"
    },
    {
      "inputs": [
        {
          "internalType": "address",
          "name": "pool",
          "type": "address"
        },
        {
          "internalType": "uint128",
          "name": "reward",
          "type": "uint128"
        }
      ],
      "name": "updateExtraIncentive",
      "outputs": [],
      "stateMutability": "nonpayable",
      "type": "function"
    },
    {
      "inputs": [
        {
          "internalType": "address",
          "name": "pool",
          "type": "address"
        },
        {
          "internalType": "uint256",
          "name": "reward",
          "type": "uint256"
        }
      ],
      "name": "updateIncentive",
      "outputs": [],
      "stateMutability": "nonpayable",
      "type": "function"
    },
    {
      "inputs": [],
      "name": "voter",
      "outputs": [
        {
          "internalType": "contract IVoter",
          "name": "",
          "type": "address"
        }
      ],
      "stateMutability": "view",
      "type": "function"
    },
    {
      "inputs": [],
      "name": "wGasToken",
      "outputs": [
        {
          "internalType": "address",
          "name": "",
          "type": "address"
        }
      ],
      "stateMutability": "view",
      "type": "function"
    }
  ],
  "bytecode": "0x6080604052348015600f57600080fd5b506125288061001f6000396000f3fe608060405234801561001057600080fd5b506004361061016e5760003560e01c806391d14854116100ce578063e172d2f411610087578063e172d2f41461032a578063e20994381461033d578063e46ba78b14610355578063e5c9c2ed14610368578063e864ba561461037b578063f1e18d67146103a4578063ff69b509146103b757600080fd5b806391d14854146102ba578063a217fddf146102cd578063bff34ed3146102d5578063cb09d919146102f1578063d547741f14610304578063dd56e5d81461031757600080fd5b80633ccd58e01161012b5780633ccd58e01461021c57806346c96aac1461022f578063485cc955146102425780634d10862d146102555780635cd7fe361461026857806367f6683814610294578063737869c6146102a757600080fd5b806301ffc9a7146101735780631ab54eeb1461019b578063248a9ca3146101b15780632f2ff15d146101d457806336568abe146101e957806338c96e84146101fc575b600080fd5b610186610181366004611f76565b610431565b60405190151581526020015b60405180910390f35b6101a3610468565b604051908152602001610192565b6101a36101bf366004611fa0565b60009081526065602052604090206001015490565b6101e76101e2366004611fce565b610490565b005b6101e76101f7366004611fce565b6104ba565b61020f61020a36600461201a565b61053d565b604051610192919061205f565b6101e761022a366004612081565b610600565b60995461020f906001600160a01b031681565b6101e76102503660046120af565b61065a565b6101e76102633660046120dd565b61082a565b6101866102763660046120dd565b6001600160a01b03166000908152609e602052604090205460ff1690565b6101e76102a23660046120fa565b6108a2565b609a5461020f906001600160a01b031681565b6101866102c8366004611fce565b610e65565b6101a3600081565b6102dd600181565b60405162ffffff9091168152602001610192565b6101e76102ff366004612126565b610e90565b6101e7610312366004611fce565b61121a565b609b5461020f906001600160a01b031681565b6101e761033836600461215b565b61123f565b60975461020f9061010090046001600160a01b031681565b60985461020f906001600160a01b031681565b6101e76103763660046120af565b6112e4565b61020f6103893660046120dd565b609d602052600090815260409020546001600160a01b031681565b6101e76103b23660046120dd565b61145b565b6103fc6103c53660046120dd565b609c6020526000908152604090208054600182015460028301546003909301546001600160a01b0392831693918316929091169084565b60405161019294939291906001600160a01b039485168152928416602084015292166040820152606081019190915260800190565b60006001600160e01b03198216637965db0b60e01b148061046257506301ffc9a760e01b6001600160e01b03198316145b92915050565b60405160200161047790612176565b6040516020818303038152906040528051906020012081565b6000828152606560205260409020600101546104ab81611507565b6104b58383611514565b505050565b6001600160a01b038116331461052f5760405162461bcd60e51b815260206004820152602f60248201527f416363657373436f6e74726f6c3a2063616e206f6e6c792072656e6f756e636560448201526e103937b632b9903337b91039b2b63360891b60648201526084015b60405180910390fd5b610539828261159a565b5050565b600060405160200161054e90612176565b6040516020818303038152906040528051906020012061056d81611507565b60006105798686611601565b905060006105878686611790565b90506105f58282896001600160a01b031663ef01df4f6040518163ffffffff1660e01b8152600401602060405180830381865afa1580156105cc573d6000803e3d6000fd5b505050506040513d601f19601f820116820180604052508101906105f091906121ad565b611815565b979650505050505050565b60405160200161060f90612176565b6040516020818303038152906040528051906020012061062e81611507565b506001600160a01b03919091166000908152609e60205260409020805460ff1916911515919091179055565b600054610100900460ff161580801561067a5750600054600160ff909116105b806106945750303b158015610694575060005460ff166001145b6106f75760405162461bcd60e51b815260206004820152602e60248201527f496e697469616c697a61626c653a20636f6e747261637420697320616c72656160448201526d191e481a5b9a5d1a585b1a5e995960921b6064820152608401610526565b6000805460ff19166001179055801561071a576000805461ff0019166101001790555b61074860405160200161072c90612176565b6040516020818303038152906040528051906020012033611514565b610753600033611514565b6001600160a01b03831661077a5760405163d92e233d60e01b815260040160405180910390fd5b6001600160a01b0382166107a15760405163d92e233d60e01b815260040160405180910390fd5b60978054610100600160a81b0319166101006001600160a01b038681169190910291909117909155609880546001600160a01b03191691841691909117905580156104b5576000805461ff0019169055604051600181527f7f26b83ff96e1f2b6a682f133852f6798a09c465da95921460cefb38474024989060200160405180910390a1505050565b60405160200161083990612176565b6040516020818303038152906040528051906020012061085881611507565b6001600160a01b03821661087f5760405163d92e233d60e01b815260040160405180910390fd5b50609b80546001600160a01b0319166001600160a01b0392909216919091179055565b6099546040516302045be960e41b815233916001600160a01b031690632045be90906108d290869060040161205f565b602060405180830381865afa1580156108ef573d6000803e3d6000fd5b505050506040513d601f19601f8201168201806040525081019061091391906121ad565b6001600160a01b03161461093a576040516304639b6160e11b815260040160405180910390fd5b6001600160a01b038083166000908152609c602090815260408083208151608081018352815486168152600182015486169381019390935260028101549094169082015260039092015460608301528215610996576000610999565b60015b6001600160a01b0385166000908152609e602052604081205491925060ff909116908215610a37578115610a2f57609a54604051638433524160e01b81526001600160a01b03909116906384335241906109fc90879060009081906004016121fd565b600060405180830381600087803b158015610a1657600080fd5b505af1158015610a2a573d6000803e3d6000fd5b505050505b505050505050565b609754610a549061010090046001600160a01b03163330886119fb565b609a54609754610a76916001600160a01b036101009092048216911687611a66565b610a8362093a8086612243565b90506000866001600160a01b031663ef01df4f6040518163ffffffff1660e01b8152600401602060405180830381865afa158015610ac5573d6000803e3d6000fd5b505050506040513d601f19601f82011682018060405250810190610ae991906121ad565b905082610d8d576040805160a0810182526001600160801b03808916825260006020808401829052918616838501526060808401919091526001608080850191909152845190810185526097546001600160a01b03610100909104811682526098548116828501528c811682870152609a54865163415ebcf560e11b8152965195969295938601949116926382bd79ea9260048082019392918290030181865afa158015610b9b573d6000803e3d6000fd5b505050506040513d601f19601f82011682018060405250810190610bbf9190612280565b9052609a5460405163547b6da960e01b81529197506000916001600160a01b039091169063547b6da990610bfb908a9086908890600401612299565b6020604051808303816000875af1158015610c1a573d6000803e3d6000fd5b505050506040513d601f19601f82011682018060405250810190610c3e91906121ad565b905086609c60008b6001600160a01b03166001600160a01b0316815260200190815260200160002060008201518160000160006101000a8154816001600160a01b0302191690836001600160a01b0316021790555060208201518160010160006101000a8154816001600160a01b0302191690836001600160a01b0316021790555060408201518160020160006101000a8154816001600160a01b0302191690836001600160a01b03160217905550606082015181600301559050506001609e60008b6001600160a01b03166001600160a01b0316815260200190815260200160002060006101000a81548160ff02191690831515021790555080609d600089604001516001600160a01b03166001600160a01b0316815260200190815260200160002060006101000a8154816001600160a01b0302191690836001600160a01b031602179055505050610e5c565b609a546040516379375fbd60e11b81526001600160a01b039091169063f26ebf7a90610dc29088908a906000906004016121fd565b600060405180830381600087803b158015610ddc57600080fd5b505af1158015610df0573d6000803e3d6000fd5b5050609a54604051638433524160e01b81526001600160a01b03909116925063843352419150610e2990889086906000906004016121fd565b600060405180830381600087803b158015610e4357600080fd5b505af1158015610e57573d6000803e3d6000fd5b505050505b50505050505050565b60009182526065602090815260408084206001600160a01b0393909316845291905290205460ff1690565b604051602001610e9f90612176565b60405160208183030381529060405280519060200120610ebe81611507565b816001600160801b0316600003610ee8576040516305bcf6a760e51b815260040160405180910390fd5b6001600160a01b038316610f0f5760405163d92e233d60e01b815260040160405180910390fd5b6001600160a01b038084166000908152609c60209081526040808320815160808101835281548616815260018201548616938101939093526002810154909416908201526003909201546060830152610f6b62093a8085612243565b609854909150610f8f906001600160a01b031633306001600160801b0388166119fb565b609a54609854610fb5916001600160a01b0391821691166001600160801b038716611a66565b6000856001600160a01b031663ef01df4f6040518163ffffffff1660e01b8152600401602060405180830381865afa158015610ff5573d6000803e3d6000fd5b505050506040513d601f19601f8201168201806040525081019061101991906121ad565b6040805160a08101825260008082526001600160801b03898116602084015282840191909152851660608201526001608082015290850151919250906001600160a01b031661117e57604080516080810182526097546001600160a01b036101009091048116825260985481166020808401919091528a821683850152609a54845163415ebcf560e11b815294519394606086019491909316926382bd79ea9260048083019391928290030181865afa1580156110da573d6000803e3d6000fd5b505050506040513d601f19601f820116820180604052508101906110fe9190612280565b9052609a5460405163547b6da960e01b81529195506001600160a01b03169063547b6da99061113590879085908790600401612299565b6020604051808303816000875af1158015611154573d6000803e3d6000fd5b505050506040513d601f19601f8201168201806040525081019061117891906121ad565b50610e5c565b609a546040516379375fbd60e11b81526001600160a01b039091169063f26ebf7a906111b39087906000908b906004016121fd565b600060405180830381600087803b1580156111cd57600080fd5b505af11580156111e1573d6000803e3d6000fd5b5050609a54604051638433524160e01b81526001600160a01b03909116925063843352419150610e2990879060009088906004016121fd565b60008281526065602052604090206001015461123581611507565b6104b5838361159a565b60405160200161124e90612176565b6040516020818303038152906040528051906020012061126d81611507565b600061127f60608401604085016120dd565b6001600160a01b0316036112a65760405163d92e233d60e01b815260040160405180910390fd5b81609c60006112bb60608401604085016120dd565b6001600160a01b0316815260208101919091526040016000206112de828261232a565b50505050565b6040516020016112f390612176565b6040516020818303038152906040528051906020012061131281611507565b6001600160a01b0383166113395760405163d92e233d60e01b815260040160405180910390fd5b6001600160a01b0382166113605760405163d92e233d60e01b815260040160405180910390fd5b60975460ff161561137057600080fd5b609980546001600160a01b038085166001600160a01b031992831617909255609a8054928616929091168217905560408051631baadcbb60e31b815290516000929163dd56e5d89160048083019260209291908290030181865afa1580156113dc573d6000803e3d6000fd5b505050506040513d601f19601f8201168201806040525081019061140091906121ad565b90506001600160a01b0381166114295760405163d92e233d60e01b815260040160405180910390fd5b609b80546001600160a01b0319166001600160a01b039290921691909117905550506097805460ff1916600117905550565b60405160200161146a90612176565b6040516020818303038152906040528051906020012061148981611507565b6001600160a01b0382166114b05760405163d92e233d60e01b815260040160405180910390fd5b609a80546001600160a01b0319166001600160a01b0384161790556040517f0da0b6509978e29b7a1c411f1bb29021fe98a196fadd6b3f38305cab75b9a054906114fb90849061205f565b60405180910390a15050565b6115118133611b13565b50565b61151e8282610e65565b6105395760008281526065602090815260408083206001600160a01b03851684529091529020805460ff191660011790556115563390565b6001600160a01b0316816001600160a01b0316837f2f8788117e7eff1d82e926ec794901d17c78024a50270940304540a733656f0d60405160405180910390a45050565b6115a48282610e65565b156105395760008281526065602090815260408083206001600160a01b0385168085529252808320805460ff1916905551339285917ff6391f5c32d9c69d2a47ea670b442974b53935d1edc7fd64eb21e047a839171b9190a45050565b604080516080810182526000808252602082018190529181018290526060810191909152816001600160801b031660000361164f576040516305bcf6a760e51b815260040160405180910390fd5b6001600160a01b0383166116765760405163d92e233d60e01b815260040160405180910390fd5b506001600160a01b038083166000818152609c6020908152604080832081516080810183528154871681526001820154871681850152600282015490961686830152600301546060860152928252609e9052205460ff16156116eb576040516324925dd360e21b815260040160405180910390fd5b604080516080810182526097546001600160a01b0361010090910481168252609854811660208084019190915286821683850152609a54845163415ebcf560e11b815294519394606086019491909316926382bd79ea9260048083019391928290030181865afa158015611763573d6000803e3d6000fd5b505050506040513d601f19601f820116820180604052508101906117879190612280565b90529392505050565b6040805160a081018252600080825260208201819052918101829052606081018290526080810182905290806117c962093a8086612243565b6117d662093a8086612243565b6040805160a0810182526001600160801b0398891681529688166020880152918716918601919091529094166060840152505060016080820152919050565b81516097546000916118429161010090046001600160a01b031690339030906001600160801b03166119fb565b609a548351609754611870926001600160a01b036101009092048216929116906001600160801b0316611a66565b60208301516001600160801b0316156118d95760208301516098546118ad916001600160a01b0390911690339030906001600160801b03166119fb565b609a5460208401516098546118d9926001600160a01b03918216929116906001600160801b0316611a66565b609a5460405163547b6da960e01b81526000916001600160a01b03169063547b6da99061190e90889088908890600401612299565b6020604051808303816000875af115801561192d573d6000803e3d6000fd5b505050506040513d601f19601f8201168201806040525081019061195191906121ad565b604086810180516001600160a01b039081166000908152609c60209081528482208b5181546001600160a01b0319908116918616919091178255828d0151600180840180548416928816929092179091558651600284018054841691881691821790556060909e01516003909301929092559b8352609d82528583208054909c1687851617909b5592519091168152609e90915220805460ff191690961790955550929392505050565b6040516001600160a01b03808516602483015283166044820152606481018290526112de9085906323b872dd60e01b906084015b60408051601f198184030181529190526020810180516001600160e01b03166001600160e01b031990931692909217909152611b6c565b604051636eb1769f60e11b81523060048201526001600160a01b0383811660248301526000919085169063dd62ed3e90604401602060405180830381865afa158015611ab6573d6000803e3d6000fd5b505050506040513d601f19601f82011682018060405250810190611ada9190612280565b90506112de8463095ea7b360e01b85611af38686612386565b6040516001600160a01b0390921660248301526044820152606401611a2f565b611b1d8282610e65565b61053957611b2a81611c41565b611b35836020611c53565b604051602001611b469291906123bd565b60408051601f198184030181529082905262461bcd60e51b82526105269160040161242c565b6000611bc1826040518060400160405280602081526020017f5361666545524332303a206c6f772d6c6576656c2063616c6c206661696c6564815250856001600160a01b0316611df69092919063ffffffff16565b9050805160001480611be2575080806020019051810190611be2919061245f565b6104b55760405162461bcd60e51b815260206004820152602a60248201527f5361666545524332303a204552433230206f7065726174696f6e20646964206e6044820152691bdd081cdd58d8d9595960b21b6064820152608401610526565b60606104626001600160a01b03831660145b60606000611c6283600261247c565b611c6d906002612386565b67ffffffffffffffff811115611c8557611c85612493565b6040519080825280601f01601f191660200182016040528015611caf576020820181803683370190505b509050600360fc1b81600081518110611cca57611cca6124a9565b60200101906001600160f81b031916908160001a905350600f60fb1b81600181518110611cf957611cf96124a9565b60200101906001600160f81b031916908160001a9053506000611d1d84600261247c565b611d28906001612386565b90505b6001811115611da0576f181899199a1a9b1b9c1cb0b131b232b360811b85600f1660108110611d5c57611d5c6124a9565b1a60f81b828281518110611d7257611d726124a9565b60200101906001600160f81b031916908160001a90535060049490941c93611d99816124bf565b9050611d2b565b508315611def5760405162461bcd60e51b815260206004820181905260248201527f537472696e67733a20686578206c656e67746820696e73756666696369656e746044820152606401610526565b9392505050565b6060611e058484600085611e0d565b949350505050565b606082471015611e6e5760405162461bcd60e51b815260206004820152602660248201527f416464726573733a20696e73756666696369656e742062616c616e636520666f6044820152651c8818d85b1b60d21b6064820152608401610526565b600080866001600160a01b03168587604051611e8a91906124d6565b60006040518083038185875af1925050503d8060008114611ec7576040519150601f19603f3d011682016040523d82523d6000602084013e611ecc565b606091505b50915091506105f58783838760608315611f47578251600003611f40576001600160a01b0385163b611f405760405162461bcd60e51b815260206004820152601d60248201527f416464726573733a2063616c6c20746f206e6f6e2d636f6e74726163740000006044820152606401610526565b5081611e05565b611e058383815115611f5c5781518083602001fd5b8060405162461bcd60e51b8152600401610526919061242c565b600060208284031215611f8857600080fd5b81356001600160e01b031981168114611def57600080fd5b600060208284031215611fb257600080fd5b5035919050565b6001600160a01b038116811461151157600080fd5b60008060408385031215611fe157600080fd5b823591506020830135611ff381611fb9565b809150509250929050565b80356001600160801b038116811461201557600080fd5b919050565b60008060006060848603121561202f57600080fd5b833561203a81611fb9565b925061204860208501611ffe565b915061205660408501611ffe565b90509250925092565b6001600160a01b0391909116815260200190565b801515811461151157600080fd5b6000806040838503121561209457600080fd5b823561209f81611fb9565b91506020830135611ff381612073565b600080604083850312156120c257600080fd5b82356120cd81611fb9565b91506020830135611ff381611fb9565b6000602082840312156120ef57600080fd5b8135611def81611fb9565b6000806040838503121561210d57600080fd5b823561211881611fb9565b946020939093013593505050565b6000806040838503121561213957600080fd5b823561214481611fb9565b915061215260208401611ffe565b90509250929050565b6000608082840312801561216e57600080fd5b509092915050565b6020808252601c908201527f494e43454e544956455f4d414b45525f4d414e414745525f524f4c4500000000604082015260600190565b6000602082840312156121bf57600080fd5b8151611def81611fb9565b80516001600160a01b03908116835260208083015182169084015260408083015190911690830152606090810151910152565b60c0810161220b82866121ca565b6001600160801b0393841660808301529190921660a090920191909152919050565b634e487b7160e01b600052601160045260246000fd5b60006001600160801b0383168061226a57634e487b7160e01b600052601260045260246000fd5b6001600160801b03929092169190910492915050565b60006020828403121561229257600080fd5b5051919050565b61014081016122a882866121ca565b83516001600160801b039081166080848101919091526020860151821660a08501526040860151821660c0850152606086015190911660e08401529093015162ffffff166101008201526001600160a01b039190911661012090910152919050565b80546001600160a01b0319166001600160a01b0392909216919091179055565b813561233581611fb9565b61233f818361230a565b50602082013561234e81611fb9565b61235b816001840161230a565b50604082013561236a81611fb9565b612377816002840161230a565b50606082013560038201555050565b808201808211156104625761046261222d565b60005b838110156123b457818101518382015260200161239c565b50506000910152565b76020b1b1b2b9b9a1b7b73a3937b61d1030b1b1b7bab73a1604d1b8152600083516123ef816017850160208801612399565b7001034b99036b4b9b9b4b733903937b6329607d1b6017918401918201528351612420816028840160208801612399565b01602801949350505050565b602081526000825180602084015261244b816040850160208701612399565b601f01601f19169190910160400192915050565b60006020828403121561247157600080fd5b8151611def81612073565b80820281158282048414176104625761046261222d565b634e487b7160e01b600052604160045260246000fd5b634e487b7160e01b600052603260045260246000fd5b6000816124ce576124ce61222d565b506000190190565b600082516124e8818460208701612399565b919091019291505056fea2646970667358221220951749a954f831ab0aa1714d57e24891d1b43078f450dd52a4b22d2f7a65d0be64736f6c634300081c0033",
  "linkReferences": {},
  "deployedLinkReferences": {}
}