{
  "_format": "hh-sol-artifact-1",
  "contractName": "MinterUpgradeable",
  "sourceName": "contracts/MinterUpgradeable.sol",
  "abi": [
    {
      "inputs": [],
      "stateMutability": "nonpayable",
      "type": "constructor"
    },
    {
      "anonymous": false,
      "inputs": [
        {
          "indexed": false,
          "internalType": "uint8",
          "name": "version",
          "type": "uint8"
        }
      ],
      "name": "Initialized",
      "type": "event"
    },
    {
      "anonymous": false,
      "inputs": [
        {
          "indexed": true,
          "internalType": "address",
          "name": "sender",
          "type": "address"
        },
        {
          "indexed": false,
          "internalType": "uint256",
          "name": "weekly",
          "type": "uint256"
        },
        {
          "indexed": false,
          "internalType": "uint256",
          "name": "circulating_supply",
          "type": "uint256"
        },
        {
          "indexed": false,
          "internalType": "uint256",
          "name": "circulating_emission",
          "type": "uint256"
        }
      ],
      "name": "Mint",
      "type": "event"
    },
    {
      "anonymous": false,
      "inputs": [
        {
          "indexed": true,
          "internalType": "address",
          "name": "previousOwner",
          "type": "address"
        },
        {
          "indexed": true,
          "internalType": "address",
          "name": "newOwner",
          "type": "address"
        }
      ],
      "name": "OwnershipTransferred",
      "type": "event"
    },
    {
      "inputs": [],
      "name": "EMISSION",
      "outputs": [
        {
          "internalType": "uint256",
          "name": "",
          "type": "uint256"
        }
      ],
      "stateMutability": "view",
      "type": "function"
    },
    {
      "inputs": [],
      "name": "PRECISION",
      "outputs": [
        {
          "internalType": "uint256",
          "name": "",
          "type": "uint256"
        }
      ],
      "stateMutability": "view",
      "type": "function"
    },
    {
      "inputs": [],
      "name": "REBASEMAX",
      "outputs": [
        {
          "internalType": "uint256",
          "name": "",
          "type": "uint256"
        }
      ],
      "stateMutability": "view",
      "type": "function"
    },
    {
      "inputs": [],
      "name": "STARTING_EMISSION",
      "outputs": [
        {
          "internalType": "uint256",
          "name": "",
          "type": "uint256"
        }
      ],
      "stateMutability": "view",
      "type": "function"
    },
    {
      "inputs": [],
      "name": "TAIL_EMISSION",
      "outputs": [
        {
          "internalType": "uint256",
          "name": "",
          "type": "uint256"
        }
      ],
      "stateMutability": "view",
      "type": "function"
    },
    {
      "inputs": [],
      "name": "WEEK",
      "outputs": [
        {
          "internalType": "uint256",
          "name": "",
          "type": "uint256"
        }
      ],
      "stateMutability": "view",
      "type": "function"
    },
    {
      "inputs": [],
      "name": "_emissionToken",
      "outputs": [
        {
          "internalType": "contract IEmissionToken",
          "name": "",
          "type": "address"
        }
      ],
      "stateMutability": "view",
      "type": "function"
    },
    {
      "inputs": [],
      "name": "_epochDistributor",
      "outputs": [
        {
          "internalType": "contract IEpochDistributor",
          "name": "",
          "type": "address"
        }
      ],
      "stateMutability": "view",
      "type": "function"
    },
    {
      "inputs": [],
      "name": "_initialize",
      "outputs": [],
      "stateMutability": "nonpayable",
      "type": "function"
    },
    {
      "inputs": [],
      "name": "_rebase_distributor",
      "outputs": [
        {
          "internalType": "contract IRebaseDistributor",
          "name": "",
          "type": "address"
        }
      ],
      "stateMutability": "view",
      "type": "function"
    },
    {
      "inputs": [],
      "name": "_ve",
      "outputs": [
        {
          "internalType": "contract IVotingEscrow",
          "name": "",
          "type": "address"
        }
      ],
      "stateMutability": "view",
      "type": "function"
    },
    {
      "inputs": [],
      "name": "acceptTeam",
      "outputs": [],
      "stateMutability": "nonpayable",
      "type": "function"
    },
    {
      "inputs": [],
      "name": "active_period",
      "outputs": [
        {
          "internalType": "uint256",
          "name": "",
          "type": "uint256"
        }
      ],
      "stateMutability": "view",
      "type": "function"
    },
    {
      "inputs": [],
      "name": "block_period",
      "outputs": [
        {
          "internalType": "uint256",
          "name": "",
          "type": "uint256"
        }
      ],
      "stateMutability": "view",
      "type": "function"
    },
    {
      "inputs": [],
      "name": "calculate_emission",
      "outputs": [
        {
          "internalType": "uint256",
          "name": "",
          "type": "uint256"
        }
      ],
      "stateMutability": "view",
      "type": "function"
    },
    {
      "inputs": [
        {
          "internalType": "uint256",
          "name": "_weeklyMint",
          "type": "uint256"
        }
      ],
      "name": "calculate_rebase",
      "outputs": [
        {
          "internalType": "uint256",
          "name": "",
          "type": "uint256"
        }
      ],
      "stateMutability": "view",
      "type": "function"
    },
    {
      "inputs": [],
      "name": "check_update_period",
      "outputs": [
        {
          "internalType": "bool",
          "name": "",
          "type": "bool"
        }
      ],
      "stateMutability": "view",
      "type": "function"
    },
    {
      "inputs": [],
      "name": "circulating_emission",
      "outputs": [
        {
          "internalType": "uint256",
          "name": "",
          "type": "uint256"
        }
      ],
      "stateMutability": "view",
      "type": "function"
    },
    {
      "inputs": [],
      "name": "circulating_supply",
      "outputs": [
        {
          "internalType": "uint256",
          "name": "",
          "type": "uint256"
        }
      ],
      "stateMutability": "view",
      "type": "function"
    },
    {
      "inputs": [
        {
          "internalType": "address",
          "name": "__epoch_distributor",
          "type": "address"
        },
        {
          "internalType": "address",
          "name": "__ve",
          "type": "address"
        },
        {
          "internalType": "address",
          "name": "__rebase_distributor",
          "type": "address"
        }
      ],
      "name": "initialize",
      "outputs": [],
      "stateMutability": "nonpayable",
      "type": "function"
    },
    {
      "inputs": [],
      "name": "isFirstMint",
      "outputs": [
        {
          "internalType": "bool",
          "name": "",
          "type": "bool"
        }
      ],
      "stateMutability": "view",
      "type": "function"
    },
    {
      "inputs": [],
      "name": "is_period_updated",
      "outputs": [
        {
          "internalType": "bool",
          "name": "",
          "type": "bool"
        }
      ],
      "stateMutability": "view",
      "type": "function"
    },
    {
      "inputs": [],
      "name": "owner",
      "outputs": [
        {
          "internalType": "address",
          "name": "",
          "type": "address"
        }
      ],
      "stateMutability": "view",
      "type": "function"
    },
    {
      "inputs": [],
      "name": "pendingTeam",
      "outputs": [
        {
          "internalType": "address",
          "name": "",
          "type": "address"
        }
      ],
      "stateMutability": "view",
      "type": "function"
    },
    {
      "inputs": [],
      "name": "renounceOwnership",
      "outputs": [],
      "stateMutability": "nonpayable",
      "type": "function"
    },
    {
      "inputs": [
        {
          "internalType": "uint256",
          "name": "_emission",
          "type": "uint256"
        }
      ],
      "name": "setEmission",
      "outputs": [],
      "stateMutability": "nonpayable",
      "type": "function"
    },
    {
      "inputs": [
        {
          "internalType": "address",
          "name": "__epochDistributor",
          "type": "address"
        }
      ],
      "name": "setEpochDistributor",
      "outputs": [],
      "stateMutability": "nonpayable",
      "type": "function"
    },
    {
      "inputs": [
        {
          "internalType": "uint256",
          "name": "_rebase",
          "type": "uint256"
        }
      ],
      "name": "setRebase",
      "outputs": [],
      "stateMutability": "nonpayable",
      "type": "function"
    },
    {
      "inputs": [
        {
          "internalType": "address",
          "name": "_rebaseDistro",
          "type": "address"
        }
      ],
      "name": "setRewardDistributor",
      "outputs": [],
      "stateMutability": "nonpayable",
      "type": "function"
    },
    {
      "inputs": [
        {
          "internalType": "uint256",
          "name": "_tailEmission",
          "type": "uint256"
        }
      ],
      "name": "setTailEmission",
      "outputs": [],
      "stateMutability": "nonpayable",
      "type": "function"
    },
    {
      "inputs": [
        {
          "internalType": "address",
          "name": "_team",
          "type": "address"
        }
      ],
      "name": "setTeam",
      "outputs": [],
      "stateMutability": "nonpayable",
      "type": "function"
    },
    {
      "inputs": [
        {
          "internalType": "uint256",
          "name": "_teamRate",
          "type": "uint256"
        }
      ],
      "name": "setTeamRate",
      "outputs": [],
      "stateMutability": "nonpayable",
      "type": "function"
    },
    {
      "inputs": [],
      "name": "team",
      "outputs": [
        {
          "internalType": "address",
          "name": "",
          "type": "address"
        }
      ],
      "stateMutability": "view",
      "type": "function"
    },
    {
      "inputs": [],
      "name": "teamRate",
      "outputs": [
        {
          "internalType": "uint256",
          "name": "",
          "type": "uint256"
        }
      ],
      "stateMutability": "view",
      "type": "function"
    },
    {
      "inputs": [
        {
          "internalType": "address",
          "name": "newOwner",
          "type": "address"
        }
      ],
      "name": "transferOwnership",
      "outputs": [],
      "stateMutability": "nonpayable",
      "type": "function"
    },
    {
      "inputs": [],
      "name": "update_period",
      "outputs": [
        {
          "internalType": "uint256",
          "name": "",
          "type": "uint256"
        }
      ],
      "stateMutability": "nonpayable",
      "type": "function"
    },
    {
      "inputs": [],
      "name": "weekly",
      "outputs": [
        {
          "internalType": "uint256",
          "name": "",
          "type": "uint256"
        }
      ],
      "stateMutability": "view",
      "type": "function"
    },
    {
      "inputs": [],
      "name": "weekly_emission",
      "outputs": [
        {
          "internalType": "uint256",
          "name": "",
          "type": "uint256"
        }
      ],
      "stateMutability": "view",
      "type": "function"
    }
  ],
  "bytecode": "0x6080604052348015600f57600080fd5b506115228061001f6000396000f3fe608060405234801561001057600080fd5b50600436106102125760003560e01c8063a1809b9511610120578063cce9ab37116100b8578063e038c75a1161007c578063e038c75a14610414578063e6684de81461041c578063ed29fc1114610425578063f2fde38b1461042d578063f4359ce51461044057600080fd5b8063cce9ab37146103ca578063cfc6c8ff146103dd578063d1399608146103e5578063ddce102f146103ee578063de3e34921461040157600080fd5b8063a1809b9514610364578063a18cb95614610377578063a2e23a5114610380578063a80528a314610389578063a9abf7ec14610391578063aaf5eb681461039e578063ac261103146103a7578063b5cc143a146103af578063c0c53b8b146103b757600080fd5b80636f05cc63116101ae5780638c4f598b116101725780638c4f598b146103085780638da5cb5b1461031b5780638dd598fb1461032c57806399aa8adf1461033f578063a129cfbf1461035157600080fd5b80636f05cc63146102c9578063715018a6146102dc57806378ef7f02146102e457806380ae4ebc146102ed57806385f2aef2146102f557600080fd5b8063055cd34a14610217578063095cf5c6146102345780631c1b9e52146102495780631eebae801461026957806326cfc17b1461027f5780632e8f7b1f1461028857806336d96faf1461029b57806359d46ffc146102a357806368446b4d146102b6575b600080fd5b61021f61044a565b60405190151581526020015b60405180910390f35b6102476102423660046112d6565b61045d565b005b606f5461025c906001600160a01b031681565b60405161022b91906112fa565b6102716104b2565b60405190815260200161022b565b610271606a5481565b61024761029636600461130e565b6104db565b61027161052c565b606e5461025c906001600160a01b031681565b6102476102c43660046112d6565b610541565b60705461025c906001600160a01b031681565b6102476105a0565b61027160685481565b6102476105b4565b606d5461025c906001600160a01b031681565b61024761031636600461130e565b6105f8565b6033546001600160a01b031661025c565b60715461025c906001600160a01b031681565b6102716a022692484ce19d0900000081565b61027161035f36600461130e565b610649565b6102476103723660046112d6565b610794565b61027160655481565b61027160665481565b6102716107cd565b60695461021f9060ff1681565b6102716103e881565b61021f6107d7565b610247610808565b6102476103c5366004611327565b610879565b60725461025c906001600160a01b031681565b610271610a91565b610271606b5481565b6102476103fc36600461130e565b610aab565b61024761040f36600461130e565b610afc565b610271610b4d565b61027160675481565b610271610c47565b61024761043b3660046112d6565b611108565b61027162093a8081565b6000610454611181565b606b5414905090565b606d546001600160a01b031633146104905760405162461bcd60e51b815260040161048790611372565b60405180910390fd5b606e80546001600160a01b0319166001600160a01b0392909216919091179055565b60006103e86066546104c2610b4d565b6104cc91906113aa565b6104d691906113c1565b905090565b606d546001600160a01b031633146105055760405162461bcd60e51b815260040161048790611372565b6103e88111156105275760405162461bcd60e51b8152600401610487906113e3565b606855565b60006103e8606554606a546104cc91906113aa565b6001600160a01b03811661055457600080fd5b606d546001600160a01b0316331461057e5760405162461bcd60e51b815260040161048790611372565b607080546001600160a01b0319166001600160a01b0392909216919091179055565b6105a861119b565b6105b260006111f5565b565b606c546001600160a01b031633146105cb57600080fd5b606c80546001600160a01b031916905562093a806105e981426113c1565b6105f391906113aa565b606b55565b606d546001600160a01b031633146106225760405162461bcd60e51b815260040161048790611372565b6103e88111156106445760405162461bcd60e51b8152600401610487906113e3565b606655565b606f546071546040516370a0823160e01b815260009283926001600160a01b03918216926370a08231926106819216906004016112fa565b602060405180830381865afa15801561069e573d6000803e3d6000fd5b505050506040513d601f19601f820116820180604052508101906106c2919061140a565b90506000606f60009054906101000a90046001600160a01b03166001600160a01b03166318160ddd6040518163ffffffff1660e01b8152600401602060405180830381865afa158015610719573d6000803e3d6000fd5b505050506040513d601f19601f8201168201806040525081019061073d919061140a565b905060008161074e6103e8856113aa565b61075891906113c1565b90506067548110610787576103e86067548661077491906113aa565b61077e91906113c1565b95945050505050565b6103e861077482876113aa565b606d546001600160a01b031633146107ab57600080fd5b607280546001600160a01b0319166001600160a01b0392909216919091179055565b60006104d6611181565b606b546000906107ea62093a8082611423565b42101580156108025750606c546001600160a01b0316155b91505090565b606e546001600160a01b031633146108555760405162461bcd60e51b815260206004820152601060248201526f6e6f742070656e64696e67207465616d60801b6044820152606401610487565b606e54606d80546001600160a01b0319166001600160a01b03909216919091179055565b600054610100900460ff16158080156108995750600054600160ff909116105b806108b35750303b1580156108b3575060005460ff166001145b6109165760405162461bcd60e51b815260206004820152602e60248201527f496e697469616c697a61626c653a20636f6e747261637420697320616c72656160448201526d191e481a5b9a5d1a585b1a5e995960921b6064820152608401610487565b6000805460ff191660011790558015610939576000805461ff0019166101001790555b610941611247565b606c8054336001600160a01b03199182168117909255606d8054909116909117905560196068556103d4606555600260665561012c60675560408051637e062a3560e11b815290516001600160a01b0385169163fc0c546a9160048281019260209291908290030181865afa1580156109be573d6000803e3d6000fd5b505050506040513d601f19601f820116820180604052508101906109e29190611436565b606f80546001600160a01b03199081166001600160a01b0393841617909155607080548216878416179055607180548216868416179055607280549091169184169190911790556a022692484ce19d09000000606a556069805460ff191660011790558015610a8b576000805461ff0019169055604051600181527f7f26b83ff96e1f2b6a682f133852f6798a09c465da95921460cefb38474024989060200160405180910390a15b50505050565b60006104d6610a9e61052c565b610aa66104b2565b611276565b606d546001600160a01b03163314610ad55760405162461bcd60e51b815260040161048790611372565b6103e8811115610af75760405162461bcd60e51b8152600401610487906113e3565b606555565b606d546001600160a01b03163314610b265760405162461bcd60e51b815260040161048790611372565b6103e8811115610b485760405162461bcd60e51b8152600401610487906113e3565b606755565b606f546071546040516370a0823160e01b81526000926001600160a01b03908116926370a0823192610b8592909116906004016112fa565b602060405180830381865afa158015610ba2573d6000803e3d6000fd5b505050506040513d601f19601f82011682018060405250810190610bc6919061140a565b606f60009054906101000a90046001600160a01b03166001600160a01b03166318160ddd6040518163ffffffff1660e01b8152600401602060405180830381865afa158015610c19573d6000803e3d6000fd5b505050506040513d601f19601f82011682018060405250810190610c3d919061140a565b6104d69190611453565b606b54600090610c5a62093a8082611423565b4210158015610c725750606c546001600160a01b0316155b156111035762093a80610c8581426113c1565b610c8f91906113aa565b606b81905560695490915060ff16610cb157610ca9610a91565b606a55610cbc565b6069805460ff191690555b6000610cc9606a54610649565b905060006103e8606854606a54610ce091906113aa565b610cea91906113c1565b606a54909150600082610cfd8584611453565b610d079190611453565b606f546040516370a0823160e01b81529192506000916001600160a01b03909116906370a0823190610d3d9030906004016112fa565b602060405180830381865afa158015610d5a573d6000803e3d6000fd5b505050506040513d601f19601f82011682018060405250810190610d7e919061140a565b905082811015610df457606f546001600160a01b03166340c10f1930610da48487611453565b6040518363ffffffff1660e01b8152600401610dc1929190611466565b600060405180830381600087803b158015610ddb57600080fd5b505af1158015610def573d6000803e3d6000fd5b505050505b606f54606d5460405163a9059cbb60e01b81526001600160a01b039283169263a9059cbb92610e2a929116908890600401611466565b6020604051808303816000875af1158015610e49573d6000803e3d6000fd5b505050506040513d601f19601f82011682018060405250810190610e6d919061147f565b610e7657600080fd5b606f5460725460405163a9059cbb60e01b81526001600160a01b039283169263a9059cbb92610eac929116908990600401611466565b6020604051808303816000875af1158015610ecb573d6000803e3d6000fd5b505050506040513d601f19601f82011682018060405250810190610eef919061147f565b610ef857600080fd5b607260009054906101000a90046001600160a01b03166001600160a01b031663811a40fe6040518163ffffffff1660e01b8152600401600060405180830381600087803b158015610f4857600080fd5b505af1158015610f5c573d6000803e3d6000fd5b50505050607260009054906101000a90046001600160a01b03166001600160a01b031663b21ed5026040518163ffffffff1660e01b8152600401600060405180830381600087803b158015610fb057600080fd5b505af1158015610fc4573d6000803e3d6000fd5b5050606f5460705460405163095ea7b360e01b81526001600160a01b03928316945063095ea7b39350610fff92909116908690600401611466565b6020604051808303816000875af115801561101e573d6000803e3d6000fd5b505050506040513d601f19601f82011682018060405250810190611042919061147f565b50607054604051633c6b16ab60e01b8152600481018490526001600160a01b0390911690633c6b16ab90602401600060405180830381600087803b15801561108957600080fd5b505af115801561109d573d6000803e3d6000fd5b50505050336001600160a01b03167fb4c03061fb5b7fed76389d5af8f2e0ddb09f8c70d1333abbb62582835e10accb606a546110d7610b4d565b6110df6104b2565b6040805193845260208401929092529082015260600160405180910390a250505050505b919050565b61111061119b565b6001600160a01b0381166111755760405162461bcd60e51b815260206004820152602660248201527f4f776e61626c653a206e6577206f776e657220697320746865207a65726f206160448201526564647265737360d01b6064820152608401610487565b61117e816111f5565b50565b600062093a8061119181426113c1565b6104d691906113aa565b6033546001600160a01b031633146105b25760405162461bcd60e51b815260206004820181905260248201527f4f776e61626c653a2063616c6c6572206973206e6f7420746865206f776e65726044820152606401610487565b603380546001600160a01b038381166001600160a01b0319831681179093556040519116919082907f8be0079c531659141344cd1fd0a4f28419497f9722a3daafe3b4186f6b6457e090600090a35050565b600054610100900460ff1661126e5760405162461bcd60e51b8152600401610487906114a1565b6105b2611291565b6000818310156112865781611288565b825b90505b92915050565b600054610100900460ff166112b85760405162461bcd60e51b8152600401610487906114a1565b6105b2336111f5565b6001600160a01b038116811461117e57600080fd5b6000602082840312156112e857600080fd5b81356112f3816112c1565b9392505050565b6001600160a01b0391909116815260200190565b60006020828403121561132057600080fd5b5035919050565b60008060006060848603121561133c57600080fd5b8335611347816112c1565b92506020840135611357816112c1565b91506040840135611367816112c1565b809150509250925092565b6020808252600890820152676e6f74207465616d60c01b604082015260600190565b634e487b7160e01b600052601160045260246000fd5b808202811582820484141761128b5761128b611394565b6000826113de57634e487b7160e01b600052601260045260246000fd5b500490565b6020808252600d908201526c0e4c2e8ca40e8dede40d0d2ced609b1b604082015260600190565b60006020828403121561141c57600080fd5b5051919050565b8082018082111561128b5761128b611394565b60006020828403121561144857600080fd5b81516112f3816112c1565b8181038181111561128b5761128b611394565b6001600160a01b03929092168252602082015260400190565b60006020828403121561149157600080fd5b815180151581146112f357600080fd5b6020808252602b908201527f496e697469616c697a61626c653a20636f6e7472616374206973206e6f74206960408201526a6e697469616c697a696e6760a81b60608201526080019056fea2646970667358221220bbcec60ccd5cd7f3fb0b709e4cad1e8421286937626beae36ee2bc73f463725364736f6c634300081c0033",
  "linkReferences": {},
  "deployedLinkReferences": {}
}