{
  "_format": "hh-sol-artifact-1",
  "contractName": "RebaseDistributor",
  "sourceName": "contracts/RebaseDistributor.sol",
  "abi": [
    {
      "inputs": [
        {
          "internalType": "address",
          "name": "_voting_escrow",
          "type": "address"
        }
      ],
      "stateMutability": "nonpayable",
      "type": "constructor"
    },
    {
      "anonymous": false,
      "inputs": [
        {
          "indexed": false,
          "internalType": "uint256",
          "name": "time",
          "type": "uint256"
        },
        {
          "indexed": false,
          "internalType": "uint256",
          "name": "tokens",
          "type": "uint256"
        }
      ],
      "name": "CheckpointToken",
      "type": "event"
    },
    {
      "anonymous": false,
      "inputs": [
        {
          "indexed": false,
          "internalType": "uint256",
          "name": "tokenId",
          "type": "uint256"
        },
        {
          "indexed": false,
          "internalType": "uint256",
          "name": "amount",
          "type": "uint256"
        },
        {
          "indexed": false,
          "internalType": "uint256",
          "name": "claim_epoch",
          "type": "uint256"
        },
        {
          "indexed": false,
          "internalType": "uint256",
          "name": "max_epoch",
          "type": "uint256"
        }
      ],
      "name": "Claimed",
      "type": "event"
    },
    {
      "inputs": [
        {
          "internalType": "address",
          "name": "caller",
          "type": "address"
        }
      ],
      "name": "_lockAddress",
      "outputs": [],
      "stateMutability": "nonpayable",
      "type": "function"
    },
    {
      "inputs": [
        {
          "internalType": "address",
          "name": "caller",
          "type": "address"
        }
      ],
      "name": "_unlockAddress",
      "outputs": [],
      "stateMutability": "nonpayable",
      "type": "function"
    },
    {
      "inputs": [],
      "name": "checkpoint_token",
      "outputs": [],
      "stateMutability": "nonpayable",
      "type": "function"
    },
    {
      "inputs": [],
      "name": "checkpoint_total_supply",
      "outputs": [],
      "stateMutability": "nonpayable",
      "type": "function"
    },
    {
      "inputs": [
        {
          "internalType": "uint256",
          "name": "_tokenId",
          "type": "uint256"
        }
      ],
      "name": "claim",
      "outputs": [
        {
          "internalType": "uint256",
          "name": "",
          "type": "uint256"
        }
      ],
      "stateMutability": "nonpayable",
      "type": "function"
    },
    {
      "inputs": [
        {
          "internalType": "uint256[]",
          "name": "tokenIds",
          "type": "uint256[]"
        }
      ],
      "name": "claim_many",
      "outputs": [
        {
          "internalType": "bool",
          "name": "",
          "type": "bool"
        }
      ],
      "stateMutability": "nonpayable",
      "type": "function"
    },
    {
      "inputs": [
        {
          "internalType": "uint256",
          "name": "_tokenId",
          "type": "uint256"
        }
      ],
      "name": "claimable",
      "outputs": [
        {
          "internalType": "uint256",
          "name": "",
          "type": "uint256"
        }
      ],
      "stateMutability": "view",
      "type": "function"
    },
    {
      "inputs": [],
      "name": "depositor",
      "outputs": [
        {
          "internalType": "address",
          "name": "",
          "type": "address"
        }
      ],
      "stateMutability": "view",
      "type": "function"
    },
    {
      "inputs": [
        {
          "internalType": "bool",
          "name": "what",
          "type": "bool"
        }
      ],
      "name": "increaseOrRemoveAllowances",
      "outputs": [],
      "stateMutability": "nonpayable",
      "type": "function"
    },
    {
      "inputs": [],
      "name": "last_token_time",
      "outputs": [
        {
          "internalType": "uint256",
          "name": "",
          "type": "uint256"
        }
      ],
      "stateMutability": "view",
      "type": "function"
    },
    {
      "inputs": [],
      "name": "last_week",
      "outputs": [
        {
          "internalType": "uint256",
          "name": "",
          "type": "uint256"
        }
      ],
      "stateMutability": "view",
      "type": "function"
    },
    {
      "inputs": [
        {
          "internalType": "address",
          "name": "",
          "type": "address"
        }
      ],
      "name": "lockAddress",
      "outputs": [
        {
          "internalType": "bool",
          "name": "",
          "type": "bool"
        }
      ],
      "stateMutability": "view",
      "type": "function"
    },
    {
      "inputs": [],
      "name": "owner",
      "outputs": [
        {
          "internalType": "address",
          "name": "",
          "type": "address"
        }
      ],
      "stateMutability": "view",
      "type": "function"
    },
    {
      "inputs": [
        {
          "internalType": "address",
          "name": "_depositor",
          "type": "address"
        }
      ],
      "name": "setDepositor",
      "outputs": [],
      "stateMutability": "nonpayable",
      "type": "function"
    },
    {
      "inputs": [
        {
          "internalType": "address",
          "name": "_owner",
          "type": "address"
        }
      ],
      "name": "setOwner",
      "outputs": [],
      "stateMutability": "nonpayable",
      "type": "function"
    },
    {
      "inputs": [],
      "name": "start_time",
      "outputs": [
        {
          "internalType": "uint256",
          "name": "",
          "type": "uint256"
        }
      ],
      "stateMutability": "view",
      "type": "function"
    },
    {
      "inputs": [],
      "name": "time_cursor",
      "outputs": [
        {
          "internalType": "uint256",
          "name": "",
          "type": "uint256"
        }
      ],
      "stateMutability": "view",
      "type": "function"
    },
    {
      "inputs": [
        {
          "internalType": "uint256",
          "name": "",
          "type": "uint256"
        }
      ],
      "name": "time_cursor_of",
      "outputs": [
        {
          "internalType": "uint256",
          "name": "",
          "type": "uint256"
        }
      ],
      "stateMutability": "view",
      "type": "function"
    },
    {
      "inputs": [],
      "name": "timestamp",
      "outputs": [
        {
          "internalType": "uint256",
          "name": "",
          "type": "uint256"
        }
      ],
      "stateMutability": "view",
      "type": "function"
    },
    {
      "inputs": [],
      "name": "token",
      "outputs": [
        {
          "internalType": "address",
          "name": "",
          "type": "address"
        }
      ],
      "stateMutability": "view",
      "type": "function"
    },
    {
      "inputs": [],
      "name": "token_claimed",
      "outputs": [
        {
          "internalType": "uint256",
          "name": "",
          "type": "uint256"
        }
      ],
      "stateMutability": "view",
      "type": "function"
    },
    {
      "inputs": [
        {
          "internalType": "uint256",
          "name": "",
          "type": "uint256"
        }
      ],
      "name": "tokens_per_week",
      "outputs": [
        {
          "internalType": "uint256",
          "name": "",
          "type": "uint256"
        }
      ],
      "stateMutability": "view",
      "type": "function"
    },
    {
      "inputs": [],
      "name": "total_distributed",
      "outputs": [
        {
          "internalType": "uint256",
          "name": "",
          "type": "uint256"
        }
      ],
      "stateMutability": "view",
      "type": "function"
    },
    {
      "inputs": [
        {
          "internalType": "uint256",
          "name": "",
          "type": "uint256"
        }
      ],
      "name": "ve_supply",
      "outputs": [
        {
          "internalType": "uint256",
          "name": "",
          "type": "uint256"
        }
      ],
      "stateMutability": "view",
      "type": "function"
    },
    {
      "inputs": [],
      "name": "voting_escrow",
      "outputs": [
        {
          "internalType": "address",
          "name": "",
          "type": "address"
        }
      ],
      "stateMutability": "view",
      "type": "function"
    },
    {
      "inputs": [
        {
          "internalType": "address",
          "name": "_token",
          "type": "address"
        }
      ],
      "name": "withdrawERC20",
      "outputs": [],
      "stateMutability": "nonpayable",
      "type": "function"
    }
  ],
  "bytecode": "0x608060405234801561001057600080fd5b5060405161199838038061199883398101604081905261002f9161019f565b6001600090815562093a8061004481426101cf565b61004e91906101f1565b905080600281905550806006819055506000826001600160a01b031663fc0c546a6040518163ffffffff1660e01b8152600401602060405180830381865afa15801561009e573d6000803e3d6000fd5b505050506040513d601f19601f820116820180604052508101906100c2919061019f565b66071afd498d000980546001600160a01b038381166001600160a01b0319928316811790935566071afd498d000880549188169183168217905566071afd498d000a805483169055600186905566071afd498d00078054909216331790915560405163095ea7b360e01b8152600481019190915260001960248201529192509063095ea7b3906044016020604051808303816000875af115801561016a573d6000803e3d6000fd5b505050506040513d601f19601f8201168201806040525081019061018e919061021c565b61019757600080fd5b50505061023e565b6000602082840312156101b157600080fd5b81516001600160a01b03811681146101c857600080fd5b9392505050565b6000826101ec57634e487b7160e01b600052601260045260246000fd5b500490565b808202811582820484141761021657634e487b7160e01b600052601160045260246000fd5b92915050565b60006020828403121561022e57600080fd5b815180151581146101c857600080fd5b61174b8061024d6000396000f3fe608060405234801561001057600080fd5b506004361061016e5760003560e01c8063b80777ea116100ce578063de42fa1e11610087578063de42fa1e146102f0578063dfe0503114610303578063e8b8b73f1461031c578063edf5999714610325578063f2c098b714610338578063f4f3b2001461034b578063fc0c546a1461035e57600080fd5b8063b80777ea1461028d578063c7c4ff4614610295578063ce2639a7146102ae578063d1d58b25146102b7578063d4dafba8146102ca578063dcbbab4f146102dd57600080fd5b8063486d25fe1161012b578063486d25fe1461020c578063616174ce146102325780637f58e8f814610245578063811a40fe1461024e578063834ee417146102565780638da5cb5b1461025f578063b21ed5021461028557600080fd5b8063127dcbd31461017357806313af40351461018f5780631f1db043146101a457806321f1e89d146101c757806334a90d02146101d0578063379607f5146101f9575b600080fd5b61017c60065481565b6040519081526020015b60405180910390f35b6101a261019d36600461136a565b610377565b005b6101b76101b23660046113ce565b6103bc565b6040519015158152602001610186565b61017c60055481565b6101b76101de36600461136a565b66071afd498d000c6020526000908152604090205460ff1681565b61017c61020736600461147f565b610420565b61017c61021a36600461147f565b66071afd498d000b6020526000908152604090205481565b6101a261024036600461136a565b61043f565b61017c60025481565b6101a2610496565b61017c60015481565b66071afd498d000754610278906001600160a01b031681565b6040516101869190611498565b6101a26104db565b61017c61051e565b66071afd498d000a54610278906001600160a01b031681565b61017c60035481565b61017c6102c536600461147f565b61053d565b61017c6102d836600461147f565b6105ab565b6101a26102eb3660046114ba565b6105ce565b6101a26102fe36600461136a565b6106c3565b66071afd498d000854610278906001600160a01b031681565b61017c60045481565b61017c61033336600461147f565b61071d565b6101a261034636600461136a565b610733565b6101a261035936600461136a565b610778565b66071afd498d000954610278906001600160a01b031681565b66071afd498d0007546001600160a01b0316331461039457600080fd5b66071afd498d000780546001600160a01b0319166001600160a01b0392909216919091179055565b60006103c6610891565b6019825111156103d557600080fd5b60005b825181101561040c576104038382815181106103f6576103f66114d7565b60200260200101516108ef565b506001016103d8565b506001905061041b6001600055565b919050565b600061042a610891565b610433826108ef565b905061041b6001600055565b336001600160a01b0382161480610466575066071afd498d0007546001600160a01b031633145b61046f57600080fd5b6001600160a01b0316600090815266071afd498d000c60205260409020805460ff19169055565b66071afd498d000a546001600160a01b03163314806104c5575066071afd498d0007546001600160a01b031633145b6104d1576104d16114ed565b6104d9610ce5565b565b66071afd498d000a546001600160a01b031633148061050a575066071afd498d0007546001600160a01b031633145b610516576105166114ed565b6104d9610e40565b600062093a8061052e8142611519565b610538919061153b565b905090565b600081815266071afd498d000b602052604081205480820361055e57506001545b6003546000805b60648110156105a2578284116105a25761057f8685610fe3565b6105899083611552565b915061059862093a8085611552565b9350600101610565565b50949350505050565b66038d7ea4c680078166038d7ea4c6800081106105c757600080fd5b0154905081565b66071afd498d0007546001600160a01b031633146105eb57600080fd5b60018115151461067f5766071afd498d00095466071afd498d00085460405163095ea7b360e01b81526001600160a01b039283169263095ea7b39261063892911690600090600401611565565b6020604051808303816000875af1158015610657573d6000803e3d6000fd5b505050506040513d601f19601f8201168201806040525081019061067b919061157e565b5050565b66071afd498d00095466071afd498d00085460405163095ea7b360e01b81526001600160a01b039283169263095ea7b3926106389291169060001990600401611565565b336001600160a01b03821614806106ea575066071afd498d0007546001600160a01b031633145b6106f357600080fd5b6001600160a01b0316600090815266071afd498d000c60205260409020805460ff19166001179055565b60078166038d7ea4c6800081106105c757600080fd5b66071afd498d0007546001600160a01b0316331461075057600080fd5b66071afd498d000a80546001600160a01b0319166001600160a01b0392909216919091179055565b66071afd498d0007546001600160a01b0316331461079557600080fd5b6001600160a01b0381166107a857600080fd5b6040516370a0823160e01b81526000906001600160a01b038316906370a08231906107d7903090600401611498565b602060405180830381865afa1580156107f4573d6000803e3d6000fd5b505050506040513d601f19601f82011682018060405250810190610818919061159b565b60405163a9059cbb60e01b81529091506001600160a01b0383169063a9059cbb906108499033908590600401611565565b6020604051808303816000875af1158015610868573d6000803e3d6000fd5b505050506040513d601f19601f8201168201806040525081019061088c919061157e565b505050565b6002600054036108e85760405162461bcd60e51b815260206004820152601f60248201527f5265656e7472616e637947756172643a207265656e7472616e742063616c6c0060448201526064015b60405180910390fd5b6002600055565b66071afd498d0008546040516331a9108f60e11b81526004810183905260009182916001600160a01b0390911690636352211e90602401602060405180830381865afa158015610943573d6000803e3d6000fd5b505050506040513d601f19601f8201168201806040525081019061096791906115b4565b6001600160a01b038116600090815266071afd498d000c602052604090205490915060ff1615610a455766071afd498d00085460405163430c208160e01b81526001600160a01b039091169063430c2081906109c99033908790600401611565565b602060405180830381865afa1580156109e6573d6000803e3d6000fd5b505050506040513d601f19601f82011682018060405250810190610a0a919061157e565b610a455760405162461bcd60e51b815260206004820152600c60248201526b1b9bdd08185c1c1c9bdd995960a21b60448201526064016108df565b66071afd498d000854604051635a2d1e0760e11b8152600481018590526000916001600160a01b03169063b45a3c0e906024016040805180830381865afa158015610a94573d6000803e3d6000fd5b505050506040513d601f19601f82011682018060405250810190610ab891906115e3565b905060008160000151600f0b13610b0a5760405162461bcd60e51b8152602060048201526016602482015275139bc8195e1a5cdd1a5b99c81b1bd8dac8199bdd5b9960521b60448201526064016108df565b42816020015111610b695760405162461bcd60e51b8152602060048201526024808201527f43616e6e6f742061646420746f2065787069726564206c6f636b2e20576974686044820152636472617760e01b60648201526084016108df565b600084815266071afd498d000b6020526040902054600154811015610b8d57506001545b6003546000805b6064811015610bd157828411610bd157610bae8885610fe3565b610bb89083611552565b9150610bc762093a8085611552565b9350600101610b94565b508015610c445766071afd498d000854604051631dd33fc560e31b815260048101899052602481018390526001600160a01b039091169063ee99fe2890604401600060405180830381600087803b158015610c2b57600080fd5b505af1158015610c3f573d6000803e3d6000fd5b505050505b600087815266071afd498d000b6020526040812084905560058054839290610c6d908490611552565b909155505060035466071afd498d0008547fcae2990aa9af8eb1c64713b7eddb3a80bf18e49a94a13fe0d0002b5d61d58f00918991849190610cb8906001600160a01b0316826111ef565b60408051948552602085019390935291830152606082015260800160405180910390a19695505050505050565b62093a80610cf38142611519565b610cfd919061153b565b6003819055600090815266071afd498d000d60205260408082204390554260025566071afd498d00095490516370a0823160e01b81526001600160a01b03909116906370a0823190610d53903090600401611498565b602060405180830381865afa158015610d70573d6000803e3d6000fd5b505050506040513d601f19601f82011682018060405250810190610d94919061159b565b90506000600554600454610da8919061163b565b90506000610db6828461163b565b905080600760035466038d7ea4c680008110610dd457610dd46114d7565b016000828254610de49190611552565b925050819055508060046000828254610dfd9190611552565b909155505060408051428152602081018390527fce749457b74e10f393f2c6b1ce4261b78791376db5a3f501477a809f03f500d6910160405180910390a1505050565b66071afd498d0008546006546001600160a01b0390911690600062093a80610e688142611519565b610e72919061153b565b9050826001600160a01b031663c2c4c5c16040518163ffffffff1660e01b8152600401600060405180830381600087803b158015610eaf57600080fd5b505af1158015610ec3573d6000803e3d6000fd5b5050505060005b6014811015610fdb57818311610fdb576000610ee685856111ef565b60405163d1febfb960e01b8152600481018290529091506000906001600160a01b0387169063d1febfb990602401608060405180830381865afa158015610f31573d6000803e3d6000fd5b505050506040513d601f19601f82011682018060405250810190610f55919061164e565b905060008160400151861115610f77576040820151610f74908761163b565b90505b610fa0818360200151610f8a91906116c1565b8351610f9691906116e8565b600f0b6000611339565b66038d7ea4c680078766038d7ea4c680008110610fbf57610fbf6114d7565b0155505050610fd162093a8084611552565b9250600101610eca565b505060065550565b66071afd498d0008546040516309bb79ed60e11b8152600481018490526001602482015260009182916001600160a01b0390911690631376f3da90604401608060405180830381865afa15801561103e573d6000803e3d6000fd5b505050506040513d601f19601f82011682018060405250810190611062919061164e565b905066038d7ea4c680078366038d7ea4c680008110611083576110836114d7565b01546000036110965760009150506111e9565b60078366038d7ea4c6800081106110af576110af6114d7565b01546000036110c25760009150506111e9565b82816040015111156110d85760009150506111e9565b66071afd498d000854600084815266071afd498d000d6020526040808220549051638c2c9baf60e01b815260048101889052602481019190915290916001600160a01b031690638c2c9baf90604401602060405180830381865afa158015611144573d6000803e3d6000fd5b505050506040513d601f19601f82011682018060405250810190611168919061159b565b9050600066038d7ea4c680078566038d7ea4c68000811061118b5761118b6114d7565b015461119f83670de0b6b3a764000061153b565b6111a99190611519565b9050670de0b6b3a764000060078666038d7ea4c6800081106111cd576111cd6114d7565b01546111d9908361153b565b6111e39190611519565b93505050505b92915050565b600080600090506000846001600160a01b031663900cf0cf6040518163ffffffff1660e01b8152600401602060405180830381865afa158015611236573d6000803e3d6000fd5b505050506040513d601f19601f8201168201806040525081019061125a919061159b565b905060005b608081101561132f578183101561132f576000600261127e8486611552565b611289906002611552565b6112939190611519565b60405163d1febfb960e01b8152600481018290529091506000906001600160a01b0389169063d1febfb990602401608060405180830381865afa1580156112de573d6000803e3d6000fd5b505050506040513d601f19601f82011682018060405250810190611302919061164e565b90508681604001511161131757819450611325565b61132260018361163b565b93505b505060010161125f565b5090949350505050565b600081831015611349578161134b565b825b9392505050565b6001600160a01b038116811461136757600080fd5b50565b60006020828403121561137c57600080fd5b813561134b81611352565b634e487b7160e01b600052604160045260246000fd5b604051601f8201601f1916810167ffffffffffffffff811182821017156113c6576113c6611387565b604052919050565b6000602082840312156113e057600080fd5b813567ffffffffffffffff8111156113f757600080fd5b8201601f8101841361140857600080fd5b803567ffffffffffffffff81111561142257611422611387565b8060051b6114326020820161139d565b9182526020818401810192908101908784111561144e57600080fd5b6020850194505b8385101561147457843580835260209586019590935090910190611455565b979650505050505050565b60006020828403121561149157600080fd5b5035919050565b6001600160a01b0391909116815260200190565b801515811461136757600080fd5b6000602082840312156114cc57600080fd5b813561134b816114ac565b634e487b7160e01b600052603260045260246000fd5b634e487b7160e01b600052600160045260246000fd5b634e487b7160e01b600052601160045260246000fd5b60008261153657634e487b7160e01b600052601260045260246000fd5b500490565b80820281158282048414176111e9576111e9611503565b808201808211156111e9576111e9611503565b6001600160a01b03929092168252602082015260400190565b60006020828403121561159057600080fd5b815161134b816114ac565b6000602082840312156115ad57600080fd5b5051919050565b6000602082840312156115c657600080fd5b815161134b81611352565b8051600f81900b811461041b57600080fd5b600060408284031280156115f657600080fd5b506040805190810167ffffffffffffffff8111828210171561161a5761161a611387565b604052611626836115d1565b81526020928301519281019290925250919050565b818103818111156111e9576111e9611503565b6000608082840312801561166157600080fd5b506040516080810167ffffffffffffffff8111828210171561168557611685611387565b604052611691836115d1565b815261169f602084016115d1565b6020820152604083810151908201526060928301519281019290925250919050565b600082600f0b82600f0b0280600f0b91508082146116e1576116e1611503565b5092915050565b600f82810b9082900b0360016001607f1b0319811260016001607f1b03821317156111e9576111e961150356fea264697066735822122039b4a68781ff1cbc1bc5309af4d18376c105f8353b36ef3d00638205757398fb64736f6c634300081c0033",
  "linkReferences": {},
  "deployedLinkReferences": {}
}