{
  "_format": "hh-sol-artifact-1",
  "contractName": "PairFactoryUpgradeable",
  "sourceName": "contracts/solidly/PairFactoryUpgradeable.sol",
  "abi": [
    {
      "inputs": [],
      "stateMutability": "nonpayable",
      "type": "constructor"
    },
    {
      "anonymous": false,
      "inputs": [
        {
          "indexed": false,
          "internalType": "uint8",
          "name": "version",
          "type": "uint8"
        }
      ],
      "name": "Initialized",
      "type": "event"
    },
    {
      "anonymous": false,
      "inputs": [
        {
          "indexed": true,
          "internalType": "address",
          "name": "previousOwner",
          "type": "address"
        },
        {
          "indexed": true,
          "internalType": "address",
          "name": "newOwner",
          "type": "address"
        }
      ],
      "name": "OwnershipTransferred",
      "type": "event"
    },
    {
      "anonymous": false,
      "inputs": [
        {
          "indexed": true,
          "internalType": "address",
          "name": "token0",
          "type": "address"
        },
        {
          "indexed": true,
          "internalType": "address",
          "name": "token1",
          "type": "address"
        },
        {
          "indexed": false,
          "internalType": "bool",
          "name": "stable",
          "type": "bool"
        },
        {
          "indexed": false,
          "internalType": "address",
          "name": "pair",
          "type": "address"
        },
        {
          "indexed": false,
          "internalType": "uint256",
          "name": "",
          "type": "uint256"
        }
      ],
      "name": "PairCreated",
      "type": "event"
    },
    {
      "inputs": [],
      "name": "MAX_FEE",
      "outputs": [
        {
          "internalType": "uint256",
          "name": "",
          "type": "uint256"
        }
      ],
      "stateMutability": "view",
      "type": "function"
    },
    {
      "inputs": [],
      "name": "MAX_REFERRAL_FEE",
      "outputs": [
        {
          "internalType": "uint256",
          "name": "",
          "type": "uint256"
        }
      ],
      "stateMutability": "view",
      "type": "function"
    },
    {
      "inputs": [],
      "name": "acceptFeeManager",
      "outputs": [],
      "stateMutability": "nonpayable",
      "type": "function"
    },
    {
      "inputs": [
        {
          "internalType": "uint256",
          "name": "",
          "type": "uint256"
        }
      ],
      "name": "allPairs",
      "outputs": [
        {
          "internalType": "address",
          "name": "",
          "type": "address"
        }
      ],
      "stateMutability": "view",
      "type": "function"
    },
    {
      "inputs": [],
      "name": "allPairsLength",
      "outputs": [
        {
          "internalType": "uint256",
          "name": "",
          "type": "uint256"
        }
      ],
      "stateMutability": "view",
      "type": "function"
    },
    {
      "inputs": [
        {
          "internalType": "address",
          "name": "tokenA",
          "type": "address"
        },
        {
          "internalType": "address",
          "name": "tokenB",
          "type": "address"
        },
        {
          "internalType": "bool",
          "name": "stable",
          "type": "bool"
        }
      ],
      "name": "createPair",
      "outputs": [
        {
          "internalType": "address",
          "name": "pair",
          "type": "address"
        }
      ],
      "stateMutability": "nonpayable",
      "type": "function"
    },
    {
      "inputs": [],
      "name": "dibs",
      "outputs": [
        {
          "internalType": "address",
          "name": "",
          "type": "address"
        }
      ],
      "stateMutability": "view",
      "type": "function"
    },
    {
      "inputs": [],
      "name": "feeManager",
      "outputs": [
        {
          "internalType": "address",
          "name": "",
          "type": "address"
        }
      ],
      "stateMutability": "view",
      "type": "function"
    },
    {
      "inputs": [
        {
          "internalType": "bool",
          "name": "_stable",
          "type": "bool"
        }
      ],
      "name": "getFee",
      "outputs": [
        {
          "internalType": "uint256",
          "name": "",
          "type": "uint256"
        }
      ],
      "stateMutability": "view",
      "type": "function"
    },
    {
      "inputs": [],
      "name": "getInitializable",
      "outputs": [
        {
          "internalType": "address",
          "name": "",
          "type": "address"
        },
        {
          "internalType": "address",
          "name": "",
          "type": "address"
        },
        {
          "internalType": "bool",
          "name": "",
          "type": "bool"
        }
      ],
      "stateMutability": "view",
      "type": "function"
    },
    {
      "inputs": [
        {
          "internalType": "address",
          "name": "",
          "type": "address"
        },
        {
          "internalType": "address",
          "name": "",
          "type": "address"
        },
        {
          "internalType": "bool",
          "name": "",
          "type": "bool"
        }
      ],
      "name": "getPair",
      "outputs": [
        {
          "internalType": "address",
          "name": "",
          "type": "address"
        }
      ],
      "stateMutability": "view",
      "type": "function"
    },
    {
      "inputs": [],
      "name": "initialize",
      "outputs": [],
      "stateMutability": "nonpayable",
      "type": "function"
    },
    {
      "inputs": [
        {
          "internalType": "address",
          "name": "",
          "type": "address"
        }
      ],
      "name": "isPair",
      "outputs": [
        {
          "internalType": "bool",
          "name": "",
          "type": "bool"
        }
      ],
      "stateMutability": "view",
      "type": "function"
    },
    {
      "inputs": [],
      "name": "isPaused",
      "outputs": [
        {
          "internalType": "bool",
          "name": "",
          "type": "bool"
        }
      ],
      "stateMutability": "view",
      "type": "function"
    },
    {
      "inputs": [],
      "name": "owner",
      "outputs": [
        {
          "internalType": "address",
          "name": "",
          "type": "address"
        }
      ],
      "stateMutability": "view",
      "type": "function"
    },
    {
      "inputs": [],
      "name": "pairCodeHash",
      "outputs": [
        {
          "internalType": "bytes32",
          "name": "",
          "type": "bytes32"
        }
      ],
      "stateMutability": "pure",
      "type": "function"
    },
    {
      "inputs": [],
      "name": "pairs",
      "outputs": [
        {
          "internalType": "address[]",
          "name": "",
          "type": "address[]"
        }
      ],
      "stateMutability": "view",
      "type": "function"
    },
    {
      "inputs": [],
      "name": "pendingFeeManager",
      "outputs": [
        {
          "internalType": "address",
          "name": "",
          "type": "address"
        }
      ],
      "stateMutability": "view",
      "type": "function"
    },
    {
      "inputs": [],
      "name": "renounceOwnership",
      "outputs": [],
      "stateMutability": "nonpayable",
      "type": "function"
    },
    {
      "inputs": [
        {
          "internalType": "address",
          "name": "_dibs",
          "type": "address"
        }
      ],
      "name": "setDibs",
      "outputs": [],
      "stateMutability": "nonpayable",
      "type": "function"
    },
    {
      "inputs": [
        {
          "internalType": "bool",
          "name": "_stable",
          "type": "bool"
        },
        {
          "internalType": "uint256",
          "name": "_fee",
          "type": "uint256"
        }
      ],
      "name": "setFee",
      "outputs": [],
      "stateMutability": "nonpayable",
      "type": "function"
    },
    {
      "inputs": [
        {
          "internalType": "address",
          "name": "_feeManager",
          "type": "address"
        }
      ],
      "name": "setFeeManager",
      "outputs": [],
      "stateMutability": "nonpayable",
      "type": "function"
    },
    {
      "inputs": [
        {
          "internalType": "bool",
          "name": "_state",
          "type": "bool"
        }
      ],
      "name": "setPause",
      "outputs": [],
      "stateMutability": "nonpayable",
      "type": "function"
    },
    {
      "inputs": [
        {
          "internalType": "uint256",
          "name": "_refFee",
          "type": "uint256"
        }
      ],
      "name": "setReferralFee",
      "outputs": [],
      "stateMutability": "nonpayable",
      "type": "function"
    },
    {
      "inputs": [
        {
          "internalType": "address",
          "name": "_feehandler",
          "type": "address"
        }
      ],
      "name": "setStakingFeeAddress",
      "outputs": [],
      "stateMutability": "nonpayable",
      "type": "function"
    },
    {
      "inputs": [
        {
          "internalType": "uint256",
          "name": "_newFee",
          "type": "uint256"
        }
      ],
      "name": "setStakingFees",
      "outputs": [],
      "stateMutability": "nonpayable",
      "type": "function"
    },
    {
      "inputs": [],
      "name": "stableFee",
      "outputs": [
        {
          "internalType": "uint256",
          "name": "",
          "type": "uint256"
        }
      ],
      "stateMutability": "view",
      "type": "function"
    },
    {
      "inputs": [],
      "name": "stakingFeeHandler",
      "outputs": [
        {
          "internalType": "address",
          "name": "",
          "type": "address"
        }
      ],
      "stateMutability": "view",
      "type": "function"
    },
    {
      "inputs": [],
      "name": "stakingNFTFee",
      "outputs": [
        {
          "internalType": "uint256",
          "name": "",
          "type": "uint256"
        }
      ],
      "stateMutability": "view",
      "type": "function"
    },
    {
      "inputs": [
        {
          "internalType": "address",
          "name": "newOwner",
          "type": "address"
        }
      ],
      "name": "transferOwnership",
      "outputs": [],
      "stateMutability": "nonpayable",
      "type": "function"
    },
    {
      "inputs": [],
      "name": "volatileFee",
      "outputs": [
        {
          "internalType": "uint256",
          "name": "",
          "type": "uint256"
        }
      ],
      "stateMutability": "view",
      "type": "function"
    }
  ],
  "bytecode": "0x6080604052348015600f57600080fd5b50615e388061001f6000396000f3fe608060405234801561001057600080fd5b50600436106101a55760003560e01c806382dfdce4116100ef578063c124a4a211610092578063c124a4a21461035c578063d0fb02031461036f578063e1f76b4414610382578063e5e31b1314610395578063eb13c4cf146103b8578063f2fde38b146103f0578063f94c53c714610403578063ffb0a4a01461040b57600080fd5b806382dfdce4146102dc5780638a4fa0d2146102ef5780638da5cb5b14610302578063956f94a1146103135780639aab92481461031c578063b187bd2614610324578063bc063e1a14610341578063bedb86fb1461034957600080fd5b80635084ed03116101575780635084ed0314610248578063512b45ea14610251578063574f2ba3146102645780636801cc301461026c578063713494d7146102a6578063715018a6146102b95780637be1623e146102c15780638129fc1c146102d457600080fd5b80630c74db12146101aa5780631e3dd18b146101bf5780631e61079c146101ef5780634091cb771461020657806340bbd77514610219578063472d35b914610222578063482a8d0714610235575b600080fd5b6101bd6101b8366004610cc0565b610420565b005b6101d26101cd366004610ce2565b61046c565b6040516001600160a01b0390911681526020015b60405180910390f35b6101f860695481565b6040519081526020016101e6565b6101bd610214366004610cc0565b610496565b6101f860665481565b6101bd610230366004610cc0565b6104e2565b6101bd610243366004610ce2565b61051b565b6101f860675481565b6101f861025f366004610d0b565b610546565b606f546101f8565b6101d261027a366004610d26565b606e6020908152600093845260408085208252928452828420905282529020546001600160a01b031681565b6101bd6102b4366004610ce2565b61055f565b6101bd61057b565b606c546101d2906001600160a01b031681565b6101bd61058f565b6101d26102ea366004610d26565b6106d5565b606b546101d2906001600160a01b031681565b6033546001600160a01b03166101d2565b6101f860685481565b6101f86109b5565b6065546103319060ff1681565b60405190151581526020016101e6565b6101f8606481565b6101bd610357366004610d0b565b6109e7565b606d546101d2906001600160a01b031681565b606a546101d2906001600160a01b031681565b6101bd610390366004610d69565b610a11565b6103316103a3366004610cc0565b60706020526000908152604090205460ff1681565b607154607254604080516001600160a01b0393841681529282166020840152600160a01b90910460ff161515908201526060016101e6565b6101bd6103fe366004610cc0565b610a7e565b6101bd610af4565b610413610b2f565b6040516101e69190610d93565b606a546001600160a01b0316331461043757600080fd5b6001600160a01b03811661044a57600080fd5b606c80546001600160a01b0319166001600160a01b0392909216919091179055565b606f818154811061047c57600080fd5b6000918252602090912001546001600160a01b0316905081565b606a546001600160a01b031633146104ad57600080fd5b6001600160a01b0381166104c057600080fd5b606d80546001600160a01b0319166001600160a01b0392909216919091179055565b606a546001600160a01b031633146104f957600080fd5b606b80546001600160a01b0319166001600160a01b0392909216919091179055565b606a546001600160a01b0316331461053257600080fd5b610bb881111561054157600080fd5b606855565b60008161055557606754610559565b6066545b92915050565b606a546001600160a01b0316331461057657600080fd5b606955565b610583610b91565b61058d6000610beb565b565b600054610100900460ff16158080156105af5750600054600160ff909116105b806105c95750303b1580156105c9575060005460ff166001145b6106315760405162461bcd60e51b815260206004820152602e60248201527f496e697469616c697a61626c653a20636f6e747261637420697320616c72656160448201526d191e481a5b9a5d1a585b1a5e995960921b60648201526084015b60405180910390fd5b6000805460ff191660011790558015610654576000805461ff0019166101001790555b61065c610c3d565b6065805460ff19169055606a80546001600160a01b03191633179055600460665560126067556000606881905560695580156106d2576000805461ff0019169055604051600181527f7f26b83ff96e1f2b6a682f133852f6798a09c465da95921460cefb38474024989060200160405180910390a15b50565b6000826001600160a01b0316846001600160a01b03160361071d5760405162461bcd60e51b8152602060048201526002602482015261494160f01b6044820152606401610628565b600080846001600160a01b0316866001600160a01b031610610740578486610743565b85855b90925090506001600160a01b0382166107835760405162461bcd60e51b81526020600482015260026024820152615a4160f01b6044820152606401610628565b6001600160a01b038281166000908152606e6020908152604080832085851684528252808320881515845290915290205416156107e75760405162461bcd60e51b8152602060048201526002602482015261504560f01b6044820152606401610628565b6040516bffffffffffffffffffffffff19606084811b8216602084015283901b16603482015284151560f81b604882015260009060490160408051601f19818403018152908290528051602090910120607280546001600160a01b038087166001600160a01b03198b1515600160a01b0281166001600160a81b0319909416939093171790925560718054928816929091169190911790559150819061088c90610c97565b8190604051809103906000f59050801580156108ac573d6000803e3d6000fd5b506001600160a01b038481166000818152606e602081815260408084208987168086529083528185208d15158087529084528286208054988a166001600160a01b0319998a168117909155828752948452828620878752845282862081875284528286208054891686179055606f8054600181810183557f39f2babe526038520877fc7c33d81accf578af4a06c5fa6b0d038cae36e127119091018054909a1687179099558587526070855295839020805460ff1916909817909755935481519687529186019290925290840152929650907fc4805696c66d7cf352fc1d6bb633ad5ee82f6cb577c453024b6e0eb8306c6fc99060600160405180910390a35050509392505050565b6000604051806020016109c790610c97565b6020820181038252601f19601f8201166040525080519060200120905090565b6033546001600160a01b031633146109fe57600080fd5b6065805460ff1916911515919091179055565b606a546001600160a01b03163314610a2857600080fd5b6064811115610a5f5760405162461bcd60e51b815260206004820152600360248201526266656560e81b6044820152606401610628565b80600003610a6c57600080fd5b8115610a785760665550565b60675550565b610a86610b91565b6001600160a01b038116610aeb5760405162461bcd60e51b815260206004820152602660248201527f4f776e61626c653a206e6577206f776e657220697320746865207a65726f206160448201526564647265737360d01b6064820152608401610628565b6106d281610beb565b606b546001600160a01b03163314610b0b57600080fd5b606b54606a80546001600160a01b0319166001600160a01b03909216919091179055565b6060606f805480602002602001604051908101604052809291908181526020018280548015610b8757602002820191906000526020600020905b81546001600160a01b03168152600190910190602001808311610b69575b5050505050905090565b6033546001600160a01b0316331461058d5760405162461bcd60e51b815260206004820181905260248201527f4f776e61626c653a2063616c6c6572206973206e6f7420746865206f776e65726044820152606401610628565b603380546001600160a01b038381166001600160a01b0319831681179093556040519116919082907f8be0079c531659141344cd1fd0a4f28419497f9722a3daafe3b4186f6b6457e090600090a35050565b600054610100900460ff16610c645760405162461bcd60e51b815260040161062890610ddf565b61058d600054610100900460ff16610c8e5760405162461bcd60e51b815260040161062890610ddf565b61058d33610beb565b614fd880610e2b83390190565b80356001600160a01b0381168114610cbb57600080fd5b919050565b600060208284031215610cd257600080fd5b610cdb82610ca4565b9392505050565b600060208284031215610cf457600080fd5b5035919050565b80358015158114610cbb57600080fd5b600060208284031215610d1d57600080fd5b610cdb82610cfb565b600080600060608486031215610d3b57600080fd5b610d4484610ca4565b9250610d5260208501610ca4565b9150610d6060408501610cfb565b90509250925092565b60008060408385031215610d7c57600080fd5b610d8583610cfb565b946020939093013593505050565b602080825282518282018190526000918401906040840190835b81811015610dd45783516001600160a01b0316835260209384019390920191600101610dad565b509095945050505050565b6020808252602b908201527f496e697469616c697a61626c653a20636f6e7472616374206973206e6f74206960408201526a6e697469616c697a696e6760a81b60608201526080019056fe61016060405260006002556000600d556000600e55600160135534801561002557600080fd5b50336001600160a01b0316610100816001600160a01b0316815250506000806000336001600160a01b031663eb13c4cf6040518163ffffffff1660e01b8152600401606060405180830381865afa158015610084573d6000803e3d6000fd5b505050506040513d601f19601f820116820180604052508101906100a891906106c8565b8015156080526001600160a01b0380831660c052831660a0526040519295509093509150839083906100d99061069f565b6001600160a01b03928316815291166020820152604001604051809103906000f08015801561010c573d6000803e3d6000fd5b506001600160a01b031660e052801561031a57826001600160a01b03166395d89b416040518163ffffffff1660e01b8152600401600060405180830381865afa15801561015d573d6000803e3d6000fd5b505050506040513d6000823e601f3d908101601f19168201604052610185919081019061074e565b826001600160a01b03166395d89b416040518163ffffffff1660e01b8152600401600060405180830381865afa1580156101c3573d6000803e3d6000fd5b505050506040513d6000823e601f3d908101601f191682016040526101eb919081019061074e565b6040516020016101fc929190610800565b6040516020818303038152906040526000908161021991906108e0565b50826001600160a01b03166395d89b416040518163ffffffff1660e01b8152600401600060405180830381865afa158015610258573d6000803e3d6000fd5b505050506040513d6000823e601f3d908101601f19168201604052610280919081019061074e565b826001600160a01b03166395d89b416040518163ffffffff1660e01b8152600401600060405180830381865afa1580156102be573d6000803e3d6000fd5b505050506040513d6000823e601f3d908101601f191682016040526102e6919081019061074e565b6040516020016102f792919061099e565b6040516020818303038152906040526001908161031491906108e0565b50610511565b826001600160a01b03166395d89b416040518163ffffffff1660e01b8152600401600060405180830381865afa158015610358573d6000803e3d6000fd5b505050506040513d6000823e601f3d908101601f19168201604052610380919081019061074e565b826001600160a01b03166395d89b416040518163ffffffff1660e01b8152600401600060405180830381865afa1580156103be573d6000803e3d6000fd5b505050506040513d6000823e601f3d908101601f191682016040526103e6919081019061074e565b6040516020016103f79291906109eb565b6040516020818303038152906040526000908161041491906108e0565b50826001600160a01b03166395d89b416040518163ffffffff1660e01b8152600401600060405180830381865afa158015610453573d6000803e3d6000fd5b505050506040513d6000823e601f3d908101601f1916820160405261047b919081019061074e565b826001600160a01b03166395d89b416040518163ffffffff1660e01b8152600401600060405180830381865afa1580156104b9573d6000803e3d6000fd5b505050506040513d6000823e601f3d908101601f191682016040526104e1919081019061074e565b6040516020016104f2929190610a44565b6040516020818303038152906040526001908161050f91906108e0565b505b826001600160a01b031663313ce5676040518163ffffffff1660e01b8152600401602060405180830381865afa15801561054f573d6000803e3d6000fd5b505050506040513d601f19601f820116820180604052508101906105739190610a64565b61057e90600a610b8d565b6101208181525050816001600160a01b031663313ce5676040518163ffffffff1660e01b8152600401602060405180830381865afa1580156105c4573d6000803e3d6000fd5b505050506040513d601f19601f820116820180604052508101906105e89190610a64565b6105f390600a610b8d565b6101405250506040805160608101825242815260006020820181815292820181815260078054600181018255925291517fa66cc928b5edb82af9bd49922954155ab7b0942694bea4ce44661d9a8736c68860039092029182015591517fa66cc928b5edb82af9bd49922954155ab7b0942694bea4ce44661d9a8736c689830155517fa66cc928b5edb82af9bd49922954155ab7b0942694bea4ce44661d9a8736c68a9091015550610b9c565b6105ba80614a1e83390190565b80516001600160a01b03811681146106c357600080fd5b919050565b6000806000606084860312156106dd57600080fd5b6106e6846106ac565b92506106f4602085016106ac565b91506040840151801515811461070957600080fd5b809150509250925092565b634e487b7160e01b600052604160045260246000fd5b60005b8381101561074557818101518382015260200161072d565b50506000910152565b60006020828403121561076057600080fd5b81516001600160401b0381111561077657600080fd5b8201601f8101841361078757600080fd5b80516001600160401b038111156107a0576107a0610714565b604051601f8201601f19908116603f011681016001600160401b03811182821017156107ce576107ce610714565b6040528181528282016020018610156107e657600080fd5b6107f782602083016020860161072a565b95945050505050565b6e029ba30b13632ab189020a6a690169608d1b81526000835161082a81600f85016020880161072a565b602f60f81b600f91840191820152835161084b81601084016020880161072a565b01601001949350505050565b600181811c9082168061086b57607f821691505b60208210810361088b57634e487b7160e01b600052602260045260246000fd5b50919050565b601f8211156108db57806000526020600020601f840160051c810160208510156108b85750805b601f840160051c820191505b818110156108d857600081556001016108c4565b50505b505050565b81516001600160401b038111156108f9576108f9610714565b61090d816109078454610857565b84610891565b6020601f82116001811461094157600083156109295750848201515b600019600385901b1c1916600184901b1784556108d8565b600084815260208120601f198516915b828110156109715787850151825560209485019460019092019101610951565b508482101561098f5786840151600019600387901b60f8161c191681555b50505050600190811b01905550565b6473414d4d2d60d81b8152600083516109be81600585016020880161072a565b602f60f81b60059184019182015283516109df81600684016020880161072a565b01600601949350505050565b7002b37b630ba34b632ab189020a6a690169607d1b815260008351610a1781601185016020880161072a565b602f60f81b6011918401918201528351610a3881601284016020880161072a565b01601201949350505050565b6476414d4d2d60d81b8152600083516109be81600585016020880161072a565b600060208284031215610a7657600080fd5b815160ff81168114610a8757600080fd5b9392505050565b634e487b7160e01b600052601160045260246000fd5b6001815b6001841115610adf57808504811115610ac357610ac3610a8e565b6001841615610ad157908102905b60019390931c928002610aa8565b935093915050565b600082610af657506001610b87565b81610b0357506000610b87565b8160018114610b195760028114610b2357610b3f565b6001915050610b87565b60ff841115610b3457610b34610a8e565b50506001821b610b87565b5060208310610133831016604e8410600b8410161715610b62575081810a610b87565b610b6f6000198484610aa4565b8060001904821115610b8357610b83610a8e565b0290505b92915050565b6000610a8760ff841683610ae7565b60805160a05160c05160e051610100516101205161014051613ca7610d776000396000818161045e01528181612b9f01528181612e8901528181612f4b015261305601526000818161043b01528181612b5e01528181612e4a01528181612f8d01526130300152600081816107ed01528181610c4601528181610d17015281816120410152818161218b01528181612463015281816124e9015281816125c4015281816127d101528181612857015261293201526000818161061f01528181611caf015281816120db0152818161267801528181612702015281816129e60152612a700152600081816104e801528181610674015281816107410152818161092801528181610bda0152818161151c0152818161172101528181611b50015281816122ef015281816128f90152612a4f015260008181610331015281816104c00152818161064f0152818161090701528181610bb9015281816114a0015281816116ff01528181611b2e015281816122620152818161258b015281816126e101528181612ecb01528181612f1201528181612ff7015261309a0152600081816102e9015281816103c40152818161049001528181610c0e01528181610cdf0152818161215a01528181612b360152612e160152613ca76000f3fe608060405234801561001057600080fd5b506004361061028a5760003560e01c80637ecebe001161015c578063bda39cad116100ce578063d505accf11610087578063d505accf1461076b578063dd62ed3e1461077e578063ebeb31db146107a9578063f083be3b146107b1578063f140a35a146107b9578063fff6cae9146107cc57600080fd5b8063bda39cad14610718578063bf944dbc14610721578063c245febc1461072a578063c5700a0214610733578063d21220a71461073c578063d294f0931461076357600080fd5b80639d63848a116101205780639d63848a146106415780639e8cc04b1461069f5780639f767c88146106b2578063a1ac4d13146106d2578063a9059cbb146106f2578063bc25cf771461070557600080fd5b80637ecebe00146105a057806389afcb44146105c05780638a7b8cf2146105e857806395d89b41146106125780639af1d35a1461061a57600080fd5b806323b872dd116102005780634d5a9f8a116101b95780634d5a9f8a1461051e578063517b3f821461053e5780635881c475146105515780635a76f25e146105645780636a6278421461056d57806370a082311461058057600080fd5b806323b872dd146103e6578063252c09d7146103f9578063313ce5671461040c57806332c0defd14610426578063392f37e91461042f578063443cb4bc1461051557600080fd5b80630dfe1681116102525780630dfe16811461032c57806313345fe11461036057806318160ddd146103805780631df8c71714610397578063205aabf11461039f57806322be3de1146103bf57600080fd5b8063022c0d9f1461028f57806306fdde03146102a45780630902f1ac146102c257806309047bdd146102e7578063095ea7b314610319575b600080fd5b6102a261029d3660046136b6565b6107d4565b005b6102ac610f35565b6040516102b99190613772565b60405180910390f35b600854600954600a545b604080519384526020840192909252908201526060016102b9565b7f00000000000000000000000000000000000000000000000000000000000000005b60405190151581526020016102b9565b6103096103273660046137a5565b610fc3565b6103537f000000000000000000000000000000000000000000000000000000000000000081565b6040516102b991906137d1565b61037361036e3660046137e5565b61101e565b6040516102b99190613820565b61038960025481565b6040519081526020016102b9565b6102cc61121a565b6103896103ad366004613863565b60106020526000908152604090205481565b6103097f000000000000000000000000000000000000000000000000000000000000000081565b6103096103f4366004613880565b611289565b6102cc6104073660046138c1565b611340565b610414601281565b60405160ff90911681526020016102b9565b610389600d5481565b600854600954604080517f000000000000000000000000000000000000000000000000000000000000000081527f000000000000000000000000000000000000000000000000000000000000000060208201529081019290925260608201527f0000000000000000000000000000000000000000000000000000000000000000151560808201526001600160a01b037f0000000000000000000000000000000000000000000000000000000000000000811660a08301527f00000000000000000000000000000000000000000000000000000000000000001660c082015260e0016102b9565b61038960085481565b61038961052c366004613863565b60116020526000908152604090205481565b61038961054c3660046137a5565b611373565b61037361055f3660046138da565b61145b565b61038960095481565b61038961057b366004613863565b61146a565b61038961058e366004613863565b60046020526000908152604090205481565b6103896105ae366004613863565b60066020526000908152604090205481565b6105d36105ce366004613863565b6116d3565b604080519283526020830191909152016102b9565b6105f0611a02565b60408051825181526020808401519082015291810151908201526060016102b9565b6102ac611a82565b6103537f000000000000000000000000000000000000000000000000000000000000000081565b604080516001600160a01b037f0000000000000000000000000000000000000000000000000000000000000000811682527f0000000000000000000000000000000000000000000000000000000000000000166020820152016102b9565b6103896106ad3660046138da565b611a8f565b6103896106c0366004613863565b600f6020526000908152604090205481565b6103896106e0366004613863565b60126020526000908152604090205481565b6103096107003660046137a5565b611af2565b6102a2610713366004613863565b611b08565b610389600e5481565b610389600b5481565b610389600c5481565b610389600a5481565b6103537f000000000000000000000000000000000000000000000000000000000000000081565b6105d3611c26565b6102a261077936600461390f565b611d4d565b61038961078c366004613986565b600360209081526000928352604080842090915290825290205481565b600754610389565b6102a261203d565b6103896107c73660046139bf565b612145565b6102a2612233565b6013546001146107e357600080fd5b60026013819055507f00000000000000000000000000000000000000000000000000000000000000006001600160a01b031663b187bd266040518163ffffffff1660e01b8152600401602060405180830381865afa158015610849573d6000803e3d6000fd5b505050506040513d601f19601f8201168201806040525081019061086d91906139e4565b1561087757600080fd5b60008511806108865750600084115b6108bd5760405162461bcd60e51b8152602060048201526003602482015262494f4160e81b60448201526064015b60405180910390fd5b60085460095481871080156108d157508086105b6109025760405162461bcd60e51b8152602060048201526002602482015261125360f21b60448201526064016108b4565b6000807f00000000000000000000000000000000000000000000000000000000000000007f00000000000000000000000000000000000000000000000000000000000000006001600160a01b03898116908316148015906109755750806001600160a01b0316896001600160a01b031614155b6109a65760405162461bcd60e51b8152602060048201526002602482015261125560f21b60448201526064016108b4565b8a156109b7576109b7828a8d612377565b89156109c8576109c8818a8c612377565b8615610a3557604051639a7bff7960e01b81526001600160a01b038a1690639a7bff7990610a029033908f908f908e908e90600401613a06565b600060405180830381600087803b158015610a1c57600080fd5b505af1158015610a30573d6000803e3d6000fd5b505050505b6040516370a0823160e01b81526001600160a01b038316906370a0823190610a619030906004016137d1565b602060405180830381865afa158015610a7e573d6000803e3d6000fd5b505050506040513d601f19601f82011682018060405250810190610aa29190613a52565b6040516370a0823160e01b81529094506001600160a01b038216906370a0823190610ad19030906004016137d1565b602060405180830381865afa158015610aee573d6000803e3d6000fd5b505050506040513d601f19601f82011682018060405250810190610b129190613a52565b9250505060008985610b249190613a81565b8311610b31576000610b45565b610b3b8a86613a81565b610b459084613a81565b90506000610b538a86613a81565b8311610b60576000610b74565b610b6a8a86613a81565b610b749084613a81565b90506000821180610b855750600081115b610bb75760405162461bcd60e51b815260206004820152600360248201526249494160e81b60448201526064016108b4565b7f00000000000000000000000000000000000000000000000000000000000000007f00000000000000000000000000000000000000000000000000000000000000008315610cca57604051632895a2f560e11b81527f000000000000000000000000000000000000000000000000000000000000000015156004820152610cca90612710906001600160a01b037f0000000000000000000000000000000000000000000000000000000000000000169063512b45ea90602401602060405180830381865afa158015610c8d573d6000803e3d6000fd5b505050506040513d601f19601f82011682018060405250810190610cb19190613a52565b610cbb9087613a94565b610cc59190613aab565b61245f565b8215610d9b57604051632895a2f560e11b81527f000000000000000000000000000000000000000000000000000000000000000015156004820152610d9b90612710906001600160a01b037f0000000000000000000000000000000000000000000000000000000000000000169063512b45ea90602401602060405180830381865afa158015610d5e573d6000803e3d6000fd5b505050506040513d601f19601f82011682018060405250810190610d829190613a52565b610d8c9086613a94565b610d969190613aab565b6127cd565b6040516370a0823160e01b81526001600160a01b038316906370a0823190610dc79030906004016137d1565b602060405180830381865afa158015610de4573d6000803e3d6000fd5b505050506040513d601f19601f82011682018060405250810190610e089190613a52565b6040516370a0823160e01b81529096506001600160a01b038216906370a0823190610e379030906004016137d1565b602060405180830381865afa158015610e54573d6000803e3d6000fd5b505050506040513d601f19601f82011682018060405250810190610e789190613a52565b9450610e848888612b32565b610e8e8787612b32565b1015610ec05760405162461bcd60e51b81526020600482015260016024820152604b60f81b60448201526064016108b4565b5050610ece84848888612c7e565b60408051838152602081018390529081018c9052606081018b90526001600160a01b038a169033907fd78ad95fa46c994b6551d0da85fc275fe613ce37657fb8d5e3d130840159d8229060800160405180910390a350506001601355505050505050505050565b60008054610f4290613acd565b80601f0160208091040260200160405190810160405280929190818152602001828054610f6e90613acd565b8015610fbb5780601f10610f9057610100808354040283529160200191610fbb565b820191906000526020600020905b815481529060010190602001808311610f9e57829003601f168201915b505050505081565b3360008181526003602090815260408083206001600160a01b03871680855292528083208590555191929091600080516020613c528339815191529061100c9086815260200190565b60405180910390a35060015b92915050565b606060008367ffffffffffffffff81111561103b5761103b613b01565b604051908082528060200260200182016040528015611064578160200160208202803683370190505b5060075490915060009061107a90600190613a81565b905060006110888587613a94565b6110929083613a81565b90506000805b8383101561120a576110aa8784613b17565b91506000600784815481106110c1576110c1613b2a565b906000526020600020906003020160000154600784815481106110e6576110e6613b2a565b9060005260206000209060030201600001546111029190613a81565b90506000816007868154811061111a5761111a613b2a565b9060005260206000209060030201600101546007868154811061113f5761113f613b2a565b90600052602060002090600302016001015461115b9190613a81565b6111659190613aab565b90506000826007878154811061117d5761117d613b2a565b906000526020600020906003020160020154600787815481106111a2576111a2613b2a565b9060005260206000209060030201600201546111be9190613a81565b6111c89190613aab565b90506111d68c8e8484612e12565b8885815181106111e8576111e8613b2a565b60209081029190910101525050506001016112038784613b17565b9250611098565b509293505050505b949350505050565b600b54600c544260008080611238600854600954600a549192909190565b9250925092508381146112815760006112518286613a81565b905061125d8185613a94565b6112679088613b17565b96506112738184613a94565b61127d9087613b17565b9550505b505050909192565b6001600160a01b0383166000818152600360209081526040808320338085529252822054919290919082148015906112c357506000198114155b156113275760006112d48583613a81565b6001600160a01b03888116600081815260036020908152604080832094891680845294825291829020859055905184815293945091929091600080516020613c52833981519152910160405180910390a3505b611332868686613107565b6001925050505b9392505050565b6007818154811061135057600080fd5b600091825260209091206003909102018054600182015460029092015490925083565b60008061137e611a02565b905060008061138b61121a565b508451919350915042036113f357600780546113a990600290613a81565b815481106113b9576113b9613b2a565b9060005260206000209060030201604051806060016040529081600082015481526020016001820154815260200160028201548152505092505b82516000906114029042613a81565b90506000818560200151856114179190613a81565b6114219190613aab565b90506000828660400151856114369190613a81565b6114409190613aab565b905061144e888a8484612e12565b9998505050505050505050565b6060611212848484600161101e565b600060135460011461147b57600080fd5b60026013556008546009546040516370a0823160e01b81526000906001600160a01b037f000000000000000000000000000000000000000000000000000000000000000016906370a08231906114d59030906004016137d1565b602060405180830381865afa1580156114f2573d6000803e3d6000fd5b505050506040513d601f19601f820116820180604052508101906115169190613a52565b905060007f00000000000000000000000000000000000000000000000000000000000000006001600160a01b03166370a08231306040518263ffffffff1660e01b815260040161156691906137d1565b602060405180830381865afa158015611583573d6000803e3d6000fd5b505050506040513d601f19601f820116820180604052508101906115a79190613a52565b905060006115b58584613a81565b905060006115c38584613a81565b6002549091506000819003611605576103e86115e76115e28486613a94565b6131b5565b6115f19190613a81565b975061160060006103e8613225565b61163a565b611637876116138386613a94565b61161d9190613aab565b876116288486613a94565b6116329190613aab565b6132a6565b97505b600088116116705760405162461bcd60e51b8152602060048201526003602482015262494c4d60e81b60448201526064016108b4565b61167a8989613225565b61168685858989612c7e565b604080518481526020810184905233917f4c209b5fc8ad50758f13e2e1088ba56a560dff690a1c6fef26394f4c03821c4f910160405180910390a250506001601355509395945050505050565b6000806013546001146116e557600080fd5b60026013556008546009546040516370a0823160e01b81527f0000000000000000000000000000000000000000000000000000000000000000907f0000000000000000000000000000000000000000000000000000000000000000906000906001600160a01b038416906370a08231906117639030906004016137d1565b602060405180830381865afa158015611780573d6000803e3d6000fd5b505050506040513d601f19601f820116820180604052508101906117a49190613a52565b90506000826001600160a01b03166370a08231306040518263ffffffff1660e01b81526004016117d491906137d1565b602060405180830381865afa1580156117f1573d6000803e3d6000fd5b505050506040513d601f19601f820116820180604052508101906118159190613a52565b3060009081526004602052604090205460025491925090806118378584613a94565b6118419190613aab565b99508061184e8484613a94565b6118589190613aab565b985060008a11801561186a5750600089115b61189c5760405162461bcd60e51b815260206004820152600360248201526224a62160e91b60448201526064016108b4565b6118a630836132bc565b6118b1868c8c612377565b6118bc858c8b612377565b6040516370a0823160e01b81526001600160a01b038716906370a08231906118e89030906004016137d1565b602060405180830381865afa158015611905573d6000803e3d6000fd5b505050506040513d601f19601f820116820180604052508101906119299190613a52565b6040516370a0823160e01b81529094506001600160a01b038616906370a08231906119589030906004016137d1565b602060405180830381865afa158015611975573d6000803e3d6000fd5b505050506040513d601f19601f820116820180604052508101906119999190613a52565b92506119a784848a8a612c7e565b604080518b8152602081018b90526001600160a01b038d169133917fdccd412f0b1252819cb1fd330b93224ca42612892bb3f4f789976e6d81936496910160405180910390a350505050505050506001601381905550915091565b611a2660405180606001604052806000815260200160008152602001600081525090565b60078054611a3690600190613a81565b81548110611a4657611a46613b2a565b90600052602060002090600302016040518060600160405290816000820154815260200160018201548152602001600282015481525050905090565b60018054610f4290613acd565b600080611a9f858585600161101e565b90506000805b8251811015611add57828181518110611ac057611ac0613b2a565b602002602001015182611ad39190613b17565b9150600101611aa5565b50611ae88482613aab565b9695505050505050565b6000611aff338484613107565b50600192915050565b601354600114611b1757600080fd5b60026013556008546040516370a0823160e01b81527f0000000000000000000000000000000000000000000000000000000000000000917f000000000000000000000000000000000000000000000000000000000000000091611be89184918691906001600160a01b038416906370a0823190611b989030906004016137d1565b602060405180830381865afa158015611bb5573d6000803e3d6000fd5b505050506040513d601f19601f82011682018060405250810190611bd99190613a52565b611be39190613a81565b612377565b611c1c8184600954846001600160a01b03166370a08231306040518263ffffffff1660e01b8152600401611b9891906137d1565b5050600160135550565b600080611c3233613335565b50503360009081526011602090815260408083205460129092529091205481151580611c5e5750600081115b15611d49573360008181526011602090815260408083208390556012909152808220919091555163299e7ae760e11b8152600481019190915260248101839052604481018290526001600160a01b037f0000000000000000000000000000000000000000000000000000000000000000169063533cf5ce90606401600060405180830381600087803b158015611cf357600080fd5b505af1158015611d07573d6000803e3d6000fd5b505060408051858152602081018590523393508392507f865ca08d59f5cb456e85cd2f7ef63664ea4f73327414e9d8152c4158b0e94645910160405180910390a35b9091565b42841015611d8d5760405162461bcd60e51b815260206004820152600d60248201526c14185a5c8e8811561412549151609a1b60448201526064016108b4565b7f8b73c3c69bb8fe3d512ecc4cf759cc79239f7b179b0ffacaa9a75d522b39400f6000604051611dbd9190613b40565b60408051918290038220828201825260018352603160f81b6020938401528151928301939093528101919091527fc89efdaa54c0f20c7adf612882df0950f5a951637e0307cdcb4c672f298b8bc660608201524660808201523060a082015260c00160408051601f19818403018152918152815160209283012060058190556001600160a01b038a166000908152600690935290822080547f6e71edae12b1b97f4d1f60370fef10105fa2faae0126114a169c64845d6126c9918b918b918b919087611e8883613bdf565b909155506040805160208101969096526001600160a01b0394851690860152929091166060840152608083015260a082015260c0810187905260e00160405160208183030381529060405280519060200120604051602001611f0192919061190160f01b81526002810192909252602282015260420190565b60408051601f198184030181528282528051602091820120600080855291840180845281905260ff88169284019290925260608301869052608083018590529092509060019060a0016020604051602081039080840390855afa158015611f6c573d6000803e3d6000fd5b5050604051601f1901519150506001600160a01b03811615801590611fa25750886001600160a01b0316816001600160a01b0316145b611fe85760405162461bcd60e51b8152602060048201526017602482015276506169723a20494e56414c49445f5349474e415455524560481b60448201526064016108b4565b6001600160a01b038981166000818152600360209081526040808320948d16808452948252918290208b905590518a8152600080516020613c52833981519152910160405180910390a3505050505050505050565b60007f00000000000000000000000000000000000000000000000000000000000000006001600160a01b031663c124a4a26040518163ffffffff1660e01b8152600401602060405180830381865afa15801561209d573d6000803e3d6000fd5b505050506040513d601f19601f820116820180604052508101906120c19190613bf8565b60405163f8518b8960e01b81529091506001600160a01b037f0000000000000000000000000000000000000000000000000000000000000000169063f8518b89906121109084906004016137d1565b600060405180830381600087803b15801561212a57600080fd5b505af115801561213e573d6000803e3d6000fd5b5050505050565b600854600954604051632895a2f560e11b81527f0000000000000000000000000000000000000000000000000000000000000000151560048201526000929190612710907f00000000000000000000000000000000000000000000000000000000000000006001600160a01b03169063512b45ea90602401602060405180830381865afa1580156121da573d6000803e3d6000fd5b505050506040513d601f19601f820116820180604052508101906121fe9190613a52565b6122089087613a94565b6122129190613aab565b61221c9086613a81565b945061222a85858484612e12565b95945050505050565b60135460011461224257600080fd5b60026013556040516370a0823160e01b8152612370906001600160a01b037f000000000000000000000000000000000000000000000000000000000000000016906370a08231906122979030906004016137d1565b602060405180830381865afa1580156122b4573d6000803e3d6000fd5b505050506040513d601f19601f820116820180604052508101906122d89190613a52565b6040516370a0823160e01b81526001600160a01b037f000000000000000000000000000000000000000000000000000000000000000016906370a08231906123249030906004016137d1565b602060405180830381865afa158015612341573d6000803e3d6000fd5b505050506040513d601f19601f820116820180604052508101906123659190613a52565b600854600954612c7e565b6001601355565b6000836001600160a01b03163b1161238e57600080fd5b604080516001600160a01b038481166024830152604480830185905283518084039091018152606490920183526020820180516001600160e01b031663a9059cbb60e01b17905291516000928392908716916123ea9190613c15565b6000604051808303816000865af19150503d8060008114612427576040519150601f19603f3d011682016040523d82523d6000602084013e61242c565b606091505b509150915081801561245657508051158061245657508080602001905181019061245691906139e4565b61213e57600080fd5b60007f00000000000000000000000000000000000000000000000000000000000000006001600160a01b0316637be1623e6040518163ffffffff1660e01b8152600401602060405180830381865afa1580156124bf573d6000803e3d6000fd5b505050506040513d601f19601f820116820180604052508101906124e39190613bf8565b905060007f00000000000000000000000000000000000000000000000000000000000000006001600160a01b0316631e61079c6040518163ffffffff1660e01b8152600401602060405180830381865afa158015612545573d6000803e3d6000fd5b505050506040513d601f19601f820116820180604052508101906125699190613a52565b9050600061271061257a8386613a94565b6125849190613aab565b90506125b17f00000000000000000000000000000000000000000000000000000000000000008483612377565b6125bb8185613a81565b935060006127107f00000000000000000000000000000000000000000000000000000000000000006001600160a01b031663956f94a16040518163ffffffff1660e01b8152600401602060405180830381865afa158015612620573d6000803e3d6000fd5b505050506040513d601f19601f820116820180604052508101906126449190613a52565b61264e9087613a94565b6126589190613aab565b604051638d4dabff60e01b815260048101829052600160248201529091507f00000000000000000000000000000000000000000000000000000000000000006001600160a01b031690638d4dabff90604401600060405180830381600087803b1580156126c457600080fd5b505af11580156126d8573d6000803e3d6000fd5b505050506127277f00000000000000000000000000000000000000000000000000000000000000007f000000000000000000000000000000000000000000000000000000000000000087612377565b6127318186613a81565b9450600060025486670de0b6b3a764000061274c9190613a94565b6127569190613aab565b905080156127765780600d60008282546127709190613b17565b90915550505b337f112c256902bf554b6ed882d2936687aaeb4225e8cd5b51303c90ca6cf43a8602846127a3858a613b17565b6127ad9190613b17565b6040805191825260006020830152015b60405180910390a2505050505050565b60007f00000000000000000000000000000000000000000000000000000000000000006001600160a01b0316637be1623e6040518163ffffffff1660e01b8152600401602060405180830381865afa15801561282d573d6000803e3d6000fd5b505050506040513d601f19601f820116820180604052508101906128519190613bf8565b905060007f00000000000000000000000000000000000000000000000000000000000000006001600160a01b0316631e61079c6040518163ffffffff1660e01b8152600401602060405180830381865afa1580156128b3573d6000803e3d6000fd5b505050506040513d601f19601f820116820180604052508101906128d79190613a52565b905060006127106128e88386613a94565b6128f29190613aab565b905061291f7f00000000000000000000000000000000000000000000000000000000000000008483612377565b6129298185613a81565b935060006127107f00000000000000000000000000000000000000000000000000000000000000006001600160a01b031663956f94a16040518163ffffffff1660e01b8152600401602060405180830381865afa15801561298e573d6000803e3d6000fd5b505050506040513d601f19601f820116820180604052508101906129b29190613a52565b6129bc9087613a94565b6129c69190613aab565b604051638d4dabff60e01b815260048101829052600060248201529091507f00000000000000000000000000000000000000000000000000000000000000006001600160a01b031690638d4dabff90604401600060405180830381600087803b158015612a3257600080fd5b505af1158015612a46573d6000803e3d6000fd5b50505050612a957f00000000000000000000000000000000000000000000000000000000000000007f000000000000000000000000000000000000000000000000000000000000000087612377565b612a9f8186613a81565b9450600060025486670de0b6b3a7640000612aba9190613a94565b612ac49190613aab565b90508015612ae45780600e6000828254612ade9190613b17565b90915550505b337f112c256902bf554b6ed882d2936687aaeb4225e8cd5b51303c90ca6cf43a8602600085612b13868b613b17565b612b1d9190613b17565b604080519283526020830191909152016127bd565b60007f000000000000000000000000000000000000000000000000000000000000000015612c6d5760007f0000000000000000000000000000000000000000000000000000000000000000612b8f85670de0b6b3a7640000613a94565b612b999190613aab565b905060007f0000000000000000000000000000000000000000000000000000000000000000612bd085670de0b6b3a7640000613a94565b612bda9190613aab565b90506000670de0b6b3a7640000612bf18385613a94565b612bfb9190613aab565b90506000670de0b6b3a7640000612c128480613a94565b612c1c9190613aab565b670de0b6b3a7640000612c2f8680613a94565b612c399190613aab565b612c439190613b17565b9050670de0b6b3a7640000612c588284613a94565b612c629190613aab565b945050505050611018565b612c778284613a94565b9050611018565b600a544290600090612c909083613a81565b9050600081118015612ca157508315155b8015612cac57508215155b15612cf357612cbb8185613a94565b600b6000828254612ccc9190613b17565b90915550612cdc90508184613a94565b600c6000828254612ced9190613b17565b90915550505b6000612cfd611a02565b8051909150612d0c9084613a81565b9150610708821115612dc15760408051606081018252848152600b5460208201908152600c549282019283526007805460018101825560009190915291517fa66cc928b5edb82af9bd49922954155ab7b0942694bea4ce44661d9a8736c688600390930292830155517fa66cc928b5edb82af9bd49922954155ab7b0942694bea4ce44661d9a8736c68982015590517fa66cc928b5edb82af9bd49922954155ab7b0942694bea4ce44661d9a8736c68a909101555b60088790556009869055600a83905560408051888152602081018890527fcf2aa50876cdfbb541206f89af0ee78d44a2abf8d328e37fa4917f982149848a910160405180910390a150505050505050565b60007f000000000000000000000000000000000000000000000000000000000000000015613095576000612e468484612b32565b90507f0000000000000000000000000000000000000000000000000000000000000000612e7b85670de0b6b3a7640000613a94565b612e859190613aab565b93507f0000000000000000000000000000000000000000000000000000000000000000612eba84670de0b6b3a7640000613a94565b612ec49190613aab565b92506000807f00000000000000000000000000000000000000000000000000000000000000006001600160a01b0316876001600160a01b031614612f09578486612f0c565b85855b915091507f00000000000000000000000000000000000000000000000000000000000000006001600160a01b0316876001600160a01b031614612f8b577f0000000000000000000000000000000000000000000000000000000000000000612f7c89670de0b6b3a7640000613a94565b612f869190613aab565b612fc8565b7f0000000000000000000000000000000000000000000000000000000000000000612fbe89670de0b6b3a7640000613a94565b612fc89190613aab565b97506000612fe0612fd9848b613b17565b8584613495565b612fea9083613a81565b9050670de0b6b3a76400007f00000000000000000000000000000000000000000000000000000000000000006001600160a01b0316896001600160a01b031614613054577f0000000000000000000000000000000000000000000000000000000000000000613076565b7f00000000000000000000000000000000000000000000000000000000000000005b6130809083613a94565b61308a9190613aab565b945050505050611212565b6000807f00000000000000000000000000000000000000000000000000000000000000006001600160a01b0316866001600160a01b0316146130d85783856130db565b84845b90925090506130ea8783613b17565b6130f48289613a94565b6130fe9190613aab565b92505050611212565b61311083613335565b61311982613335565b6001600160a01b03831660009081526004602052604081208054839290613141908490613a81565b90915550506001600160a01b0382166000908152600460205260408120805483929061316e908490613b17565b92505081905550816001600160a01b0316836001600160a01b0316600080516020613c32833981519152836040516131a891815260200190565b60405180910390a3505050565b6000600382111561321657508060006131cf600283613aab565b6131da906001613b17565b90505b81811015613210579050806002816131f58186613aab565b6131ff9190613b17565b6132099190613aab565b90506131dd565b50919050565b8115613220575060015b919050565b61322e82613335565b80600260008282546132409190613b17565b90915550506001600160a01b0382166000908152600460205260408120805483929061326d908490613b17565b90915550506040518181526001600160a01b03831690600090600080516020613c32833981519152906020015b60405180910390a35050565b60008183106132b55781611339565b5090919050565b6132c582613335565b80600260008282546132d79190613a81565b90915550506001600160a01b03821660009081526004602052604081208054839290613304908490613a81565b90915550506040518181526000906001600160a01b03841690600080516020613c328339815191529060200161329a565b6001600160a01b0381166000908152600460205260409020548015613463576001600160a01b0382166000908152600f60209081526040808320805460108085529285208054600d54600e549481905594909552829055936133978584613a81565b905060006133a58584613a81565b90508115613400576000670de0b6b3a76400006133c2848a613a94565b6133cc9190613aab565b6001600160a01b038a166000908152601160205260408120805492935083929091906133f9908490613b17565b9091555050505b8015613459576000670de0b6b3a764000061341b838a613a94565b6134259190613aab565b6001600160a01b038a16600090815260126020526040812080549293508392909190613452908490613b17565b9091555050505b5050505050505050565b600d546001600160a01b0383166000908152600f6020908152604080832093909355600e546010909152919020555050565b6000805b60ff811015613590578260006134af8783613599565b9050858110156134ff5760006134c58887613636565b6134cf8389613a81565b6134e190670de0b6b3a7640000613a94565b6134eb9190613aab565b90506134f78187613b17565b955050613541565b600061350b8887613636565b6135158884613a81565b61352790670de0b6b3a7640000613a94565b6135319190613aab565b905061353d8187613a81565b9550505b8185111561356a5760016135558387613a81565b1161356557849350505050611339565b613586565b60016135768684613a81565b1161358657849350505050611339565b5050600101613499565b50909392505050565b6000670de0b6b3a7640000828185816135b28280613a94565b6135bc9190613aab565b6135c69190613a94565b6135d09190613aab565b6135da9190613a94565b6135e49190613aab565b670de0b6b3a76400008084816135fa8280613a94565b6136049190613aab565b61360e9190613a94565b6136189190613aab565b6136229086613a94565b61362c9190613aab565b6113399190613b17565b6000670de0b6b3a7640000838161364d8280613a94565b6136579190613aab565b6136619190613a94565b61366b9190613aab565b670de0b6b3a76400008061367f8580613a94565b6136899190613aab565b613694866003613a94565b6136229190613a94565b6001600160a01b03811681146136b357600080fd5b50565b6000806000806000608086880312156136ce57600080fd5b853594506020860135935060408601356136e78161369e565b9250606086013567ffffffffffffffff81111561370357600080fd5b8601601f8101881361371457600080fd5b803567ffffffffffffffff81111561372b57600080fd5b88602082840101111561373d57600080fd5b959894975092955050506020019190565b60005b83811015613769578181015183820152602001613751565b50506000910152565b602081526000825180602084015261379181604085016020870161374e565b601f01601f19169190910160400192915050565b600080604083850312156137b857600080fd5b82356137c38161369e565b946020939093013593505050565b6001600160a01b0391909116815260200190565b600080600080608085870312156137fb57600080fd5b84356138068161369e565b966020860135965060408601359560600135945092505050565b602080825282518282018190526000918401906040840190835b8181101561385857835183526020938401939092019160010161383a565b509095945050505050565b60006020828403121561387557600080fd5b81356113398161369e565b60008060006060848603121561389557600080fd5b83356138a08161369e565b925060208401356138b08161369e565b929592945050506040919091013590565b6000602082840312156138d357600080fd5b5035919050565b6000806000606084860312156138ef57600080fd5b83356138fa8161369e565b95602085013595506040909401359392505050565b600080600080600080600060e0888a03121561392a57600080fd5b87356139358161369e565b965060208801356139458161369e565b95506040880135945060608801359350608088013560ff8116811461396957600080fd5b9699959850939692959460a0840135945060c09093013592915050565b6000806040838503121561399957600080fd5b82356139a48161369e565b915060208301356139b48161369e565b809150509250929050565b600080604083850312156139d257600080fd5b8235915060208301356139b48161369e565b6000602082840312156139f657600080fd5b8151801515811461133957600080fd5b60018060a01b038616815284602082015283604082015260806060820152816080820152818360a0830137600081830160a090810191909152601f909201601f19160101949350505050565b600060208284031215613a6457600080fd5b5051919050565b634e487b7160e01b600052601160045260246000fd5b8181038181111561101857611018613a6b565b808202811582820484141761101857611018613a6b565b600082613ac857634e487b7160e01b600052601260045260246000fd5b500490565b600181811c90821680613ae157607f821691505b60208210810361321057634e487b7160e01b600052602260045260246000fd5b634e487b7160e01b600052604160045260246000fd5b8082018082111561101857611018613a6b565b634e487b7160e01b600052603260045260246000fd5b6000808354818160011c90506001821680613b5c57607f821691505b602082108103613b7a57634e487b7160e01b84526022600452602484fd5b808015613b8e5760018114613ba357613bd3565b60ff1984168752821515830287019450613bd3565b60008881526020902060005b84811015613bcb57815489820152600190910190602001613baf565b505082870194505b50929695505050505050565b600060018201613bf157613bf1613a6b565b5060010190565b600060208284031215613c0a57600080fd5b81516113398161369e565b60008251613c2781846020870161374e565b919091019291505056feddf252ad1be2c89b69c2b068fc378daa952ba7f163c4a11628f55a4df523b3ef8c5be1e5ebec7d5bd14f71427d1e84f3dd0314c0f7b2291e5b200ac8c7c3b925a2646970667358221220d5319f5a97944af1d2c408f0d5815a56defb6d5b1b702606eb32b02c92c406ec64736f6c634300081c003360e060405234801561001057600080fd5b506040516105ba3803806105ba83398101604081905261002f91610066565b336080526001600160a01b0391821660a0521660c052610099565b80516001600160a01b038116811461006157600080fd5b919050565b6000806040838503121561007957600080fd5b6100828361004a565b91506100906020840161004a565b90509250929050565b60805160a05160c0516104d86100e26000396000818161012c015261026001526000818160fb015261022601526000818160c60152818161016201526101ef01526104d86000f3fe608060405234801561001057600080fd5b50600436106100575760003560e01c8063533cf5ce1461005c5780635b3c924814610071578063651d83f91461008c5780638d4dabff14610095578063f8518b89146100a8575b600080fd5b61006f61006a36600461039c565b6100bb565b005b61007a60015481565b60405190815260200160405180910390f35b61007a60005481565b61006f6100a33660046103dd565b610157565b61006f6100b636600461040d565b6101e4565b336001600160a01b037f000000000000000000000000000000000000000000000000000000000000000016146100f057600080fd5b8115610121576101217f00000000000000000000000000000000000000000000000000000000000000008484610291565b8015610152576101527f00000000000000000000000000000000000000000000000000000000000000008483610291565b505050565b336001600160a01b037f0000000000000000000000000000000000000000000000000000000000000000161461018c57600080fd5b6000821180156101995750805b156101b557816000808282546101af919061042f565b90915550505b6000821180156101c3575080155b156101e05781600160008282546101da919061042f565b90915550505b5050565b336001600160a01b037f0000000000000000000000000000000000000000000000000000000000000000161461021957600080fd5b600054156102535761024e7f000000000000000000000000000000000000000000000000000000000000000082600054610291565b600080555b6001541561028e576102887f000000000000000000000000000000000000000000000000000000000000000082600154610291565b60006001555b50565b6000836001600160a01b03163b116102a857600080fd5b604080516001600160a01b038481166024830152604480830185905283518084039091018152606490920183526020820180516001600160e01b031663a9059cbb60e01b17905291516000928392908716916103049190610456565b6000604051808303816000865af19150503d8060008114610341576040519150601f19603f3d011682016040523d82523d6000602084013e610346565b606091505b50915091508180156103705750805115806103705750808060200190518101906103709190610485565b61037957600080fd5b5050505050565b80356001600160a01b038116811461039757600080fd5b919050565b6000806000606084860312156103b157600080fd5b6103ba84610380565b95602085013595506040909401359392505050565b801515811461028e57600080fd5b600080604083850312156103f057600080fd5b823591506020830135610402816103cf565b809150509250929050565b60006020828403121561041f57600080fd5b61042882610380565b9392505050565b8082018082111561045057634e487b7160e01b600052601160045260246000fd5b92915050565b6000825160005b81811015610477576020818601810151858301520161045d565b506000920191825250919050565b60006020828403121561049757600080fd5b8151610428816103cf56fea2646970667358221220963c608c6792ef860b782ba7873af48e3a5634bf9602bd4df04beb1cd63c125764736f6c634300081c0033a2646970667358221220eac417650a620b69b1f41fd575ad1ce501561c01e05b7b9af185ee10db22e4ab64736f6c634300081c0033",
  "linkReferences": {},
  "deployedLinkReferences": {}
}