{
  "_format": "hh-sol-artifact-1",
  "contractName": "VeArtProxy",
  "sourceName": "contracts/VeArtProxy.sol",
  "abi": [
    {
      "inputs": [
        {
          "internalType": "string",
          "name": "_veSymbol",
          "type": "string"
        },
        {
          "internalType": "string",
          "name": "_logo",
          "type": "string"
        },
        {
          "internalType": "string",
          "name": "_footer",
          "type": "string"
        }
      ],
      "stateMutability": "nonpayable",
      "type": "constructor"
    },
    {
      "inputs": [
        {
          "internalType": "uint256",
          "name": "_tokenId",
          "type": "uint256"
        },
        {
          "internalType": "uint256",
          "name": "_balanceOf",
          "type": "uint256"
        },
        {
          "internalType": "uint256",
          "name": "_locked_end",
          "type": "uint256"
        },
        {
          "internalType": "uint256",
          "name": "_value",
          "type": "uint256"
        }
      ],
      "name": "_tokenURI",
      "outputs": [
        {
          "internalType": "string",
          "name": "output",
          "type": "string"
        }
      ],
      "stateMutability": "view",
      "type": "function"
    },
    {
      "inputs": [],
      "name": "footer",
      "outputs": [
        {
          "internalType": "string",
          "name": "",
          "type": "string"
        }
      ],
      "stateMutability": "view",
      "type": "function"
    },
    {
      "inputs": [],
      "name": "logo",
      "outputs": [
        {
          "internalType": "string",
          "name": "",
          "type": "string"
        }
      ],
      "stateMutability": "view",
      "type": "function"
    },
    {
      "inputs": [],
      "name": "veSymbol",
      "outputs": [
        {
          "internalType": "string",
          "name": "",
          "type": "string"
        }
      ],
      "stateMutability": "view",
      "type": "function"
    }
  ],
  "bytecode": "0x608060405234801561001057600080fd5b5060405161166138038061166183398101604081905261002f91610117565b600061003b8482610235565b5060016100488382610235565b5060026100558282610235565b505050506102f3565b634e487b7160e01b600052604160045260246000fd5b600082601f83011261008557600080fd5b81516001600160401b0381111561009e5761009e61005e565b604051601f8201601f19908116603f011681016001600160401b03811182821017156100cc576100cc61005e565b6040528181528382016020018510156100e457600080fd5b60005b82811015610103576020818601810151838301820152016100e7565b506000918101602001919091529392505050565b60008060006060848603121561012c57600080fd5b83516001600160401b0381111561014257600080fd5b61014e86828701610074565b602086015190945090506001600160401b0381111561016c57600080fd5b61017886828701610074565b604086015190935090506001600160401b0381111561019657600080fd5b6101a286828701610074565b9150509250925092565b600181811c908216806101c057607f821691505b6020821081036101e057634e487b7160e01b600052602260045260246000fd5b50919050565b601f82111561023057806000526020600020601f840160051c8101602085101561020d5750805b601f840160051c820191505b8181101561022d5760008155600101610219565b50505b505050565b81516001600160401b0381111561024e5761024e61005e565b6102628161025c84546101ac565b846101e6565b6020601f821160018114610296576000831561027e5750848201515b600019600385901b1c1916600184901b17845561022d565b600084815260208120601f198516915b828110156102c657878501518255602094850194600190920191016102a6565b50848210156102e45786840151600019600387901b60f8161c191681555b50505050600190811b01905550565b61135f806103026000396000f3fe608060405234801561001057600080fd5b506004361061004c5760003560e01c80633ce301851461005157806377102c711461006f578063dd9ec14914610077578063fb7f21eb1461008a575b600080fd5b610059610092565b6040516100669190610829565b60405180910390f35b610059610120565b61005961008536600461085c565b61012d565b610059610255565b6002805461009f9061088e565b80601f01602080910402602001604051908101604052809291908181526020018280546100cb9061088e565b80156101185780601f106100ed57610100808354040283529160200191610118565b820191906000526020600020905b8154815290600101906020018083116100fb57829003601f168201915b505050505081565b6000805461009f9061088e565b60606040518060e0016040528060ad815260200161127d60ad913990506000428411156101615761015e42856108de565b90505b816001600061017289600080610262565b61018f610186662386f26fc1000089610907565b60026000610262565b6101a3610186662386f26fc100008c610907565b6101bb6101b26121c089610907565b60016000610262565b60026040516020016101d49897969594939291906109d3565b604051602081830303815290604052915060006102276101f688600080610262565b60006102018661045c565b60405160200161021393929190610f10565b60405160208183030381529060405261045c565b90508060405160200161023a9190611022565b60405160208183030381529060405292505050949350505050565b6001805461009f9061088e565b6060600082610272576000610275565b60015b9050600061028485600a61114e565b9050856000805b82156102ea5760ff8116156102ac57806102a481611164565b9150506102ca565b6102b7600a84611183565b156102ca57806102c681611164565b9150505b816102d481611164565b92506102e39050600a84610907565b925061028b565b6040805161010081018252600080825260208201819052918101829052606081018290526080810182905260a0810182905260c081019190915287151560e082015260ff891661033a8385611197565b60ff161061037a5761034c858b610907565b81526103588984611197565b60ff166040820181905261036d9087906111b0565b60ff16602082015261042d565b6103848284611197565b61038f90600a61114e565b610399908b610907565b8152898511156103fc57600260808201526103b4838a611197565b6103bf9060026111b0565b60ff1660a082018190526103d390836111b0565b60ff16604082018190526103e89087906111b0565b60ff166020820152600160c082015261042d565b6104078260016111b0565b60ff1660408201526104198984611197565b6104249060016111b0565b60ff1660608201525b85816040015161043d91906111b0565b60ff16602082015261044e816105c6565b9a9950505050505050505050565b80516060906000819003610480575050604080516020810190915260008152919050565b6000600361048f8360026111c9565b6104999190610907565b6104a49060046111dc565b905060006104b38260206111c9565b67ffffffffffffffff8111156104cb576104cb6111f3565b6040519080825280601f01601f1916602001820160405280156104f5576020820181803683370190505b509050600060405180606001604052806040815260200161123d604091399050600181016020830160005b86811015610581576003818a01810151603f601282901c8116860151600c83901c8216870151600684901c831688015192909316870151600891821b60ff94851601821b92841692909201901b91160160e01b835260049092019101610520565b50600386066001811461059b57600281146105ac576105b8565b613d3d60f01b6001198301526105b8565b603d60f81b6000198301525b505050918152949350505050565b60606000826020015160ff1667ffffffffffffffff8111156105ea576105ea6111f3565b6040519080825280601f01601f191660200182016040528015610614576020820181803683370190505b5090508260e001511561065d57602560f81b816001835161063591906108de565b8151811061064557610645611209565b60200101906001600160f81b031916908160001a9053505b8260c00151156106c657600360fc1b8160008151811061067f5761067f611209565b60200101906001600160f81b031916908160001a905350601760f91b816001815181106106ae576106ae611209565b60200101906001600160f81b031916908160001a9053505b608083015160ff165b8360a0015160ff1681101561071457603060f81b8282815181106106f5576106f5611209565b60200101906001600160f81b031916908160001a9053506001016106cf565b505b8251156107ff576000836060015160ff161180156107415750826060015160ff16836040015160ff16145b1561078a57601760f91b8184604001805161075b9061121f565b60ff16908190528151811061077257610772611209565b60200101906001600160f81b031916908160001a9053505b825161079890600a90611183565b6107a39060306111c9565b60f81b818460400180516107b69061121f565b60ff1690819052815181106107cd576107cd611209565b60200101906001600160f81b031916908160001a905350600a836000018181516107f79190610907565b905250610716565b92915050565b60005b83811015610820578181015183820152602001610808565b50506000910152565b6020815260008251806020840152610848816040850160208701610805565b601f01601f19169190910160400192915050565b6000806000806080858703121561087257600080fd5b5050823594602084013594506040840135936060013592509050565b600181811c908216806108a257607f821691505b6020821081036108c257634e487b7160e01b600052602260045260246000fd5b50919050565b634e487b7160e01b600052601160045260246000fd5b818103818111156107ff576107ff6108c8565b634e487b7160e01b600052601260045260246000fd5b600082610916576109166108f1565b500490565b6000815161092d818560208601610805565b9290920192915050565b8054600090600181811c9082168061095057607f821691505b60208210810361097057634e487b7160e01b600052602260045260246000fd5b8080156109845760018114610999576109c9565b60ff19841687528215158302870194506109c9565b60008681526020902060005b848110156109c1578154898201526001909101906020016109a5565b505082870194505b5050505092915050565b600089516109e5818460208e01610805565b6109f18184018b610937565b7f3c7465787420793d22313434302220783d22353025222066696c6c3d2277686981527f74652220646f6d696e616e742d626173656c696e653d226d6964646c6522207460208201527f6578742d616e63686f723d226d6964646c652220636c6173733d227672222066604082015270037b73a16b9b4bd329e911c1ab83c111f1607d1b60608201529050610a89607182018a610937565b905061202360f01b81528751610aa6816002840160208c01610805565b7f3c2f746578743e203c7465787420666f6e742d73697a653d2238307078222066600292909101918201527f696c6c3d2277686974652220793d22313536302220783d2234382220646f6d6960228201527f6e616e742d626173656c696e653d226d6964646c652220636c6173733d226c6160428201527f62656c22203e204c6f636b65643a203c2f746578743e203c7465787420666f6e60628201527f742d73697a653d22383070782220793d2231353630222066696c6c3d2277686960828201527f74652220783d22313837302220646f6d696e616e742d626173656c696e653d2260a28201527f6d6964646c652220746578742d616e63686f723d22656e642220636c6173733d60c2820152691130b6b7bab73a11101f60b11b60e2820152610f01610ee7610ee1610e3c610e36610d14610d0e610bea60ec89018f61091b565b7f3c2f746578743e203c7465787420666f6e742d73697a653d223830707822206681527f696c6c3d2277686974652220793d22313638302220783d2234382220646f6d6960208201527f6e616e742d626173656c696e653d226d6964646c652220636c6173733d226c6160408201527f62656c223e20566f74696e6720506f7765723a203c2f746578743e203c74657860608201527f7420666f6e742d73697a653d2238307078222066696c6c3d227768697465222060808201527f793d22313638302220783d22313837302220646f6d696e616e742d626173656c60a08201527f696e653d226d6964646c652220746578742d616e63686f723d22656e6422206360c08201526d3630b9b99e9130b6b7bab73a111f60911b60e082015260ee0190565b8c61091b565b7f3c2f746578743e203c7465787420666f6e742d73697a653d223830707822202081527f66696c6c3d2277686974652220793d22313830302220783d2234382220646f6d60208201527f696e616e742d626173656c696e653d226d6964646c652220636c6173733d226c60408201527f6162656c22203e20457870697265733a203c2f746578743e203c74657874206660608201527f6f6e742d73697a653d2238307078222066696c6c3d2277686974652220793d2260808201527f313830302220783d22313837302220646f6d696e616e742d626173656c696e6560a08201527f3d226d6964646c652220746578742d616e63686f723d22656e642220636c617360c08201526b399e9130b6b7bab73a11101f60a11b60e082015260ec0190565b8961091b565b7f2064617973203c2f746578743e203c746578742066696c6c3d2277686974652281527f20793d22313835382220783d223530252220666f6e742d73697a653d2234357060208201527f782220646f6d696e616e742d626173656c696e653d226d6964646c652220746560408201527f78742d616e63686f723d226d6964646c652220636c6173733d2261707022203e6060820152600160fd1b608082015260810190565b86610937565b6d101e17ba32bc3a1f1e17b9bb339f60911b8152600e0190565b9b9a5050505050505050505050565b6f7b226e616d65223a20226c6f636b202360801b81528351600090610f3c816010850160208901610805565b72111610113232b9b1b934b83a34b7b7111d101160691b601091840191820152610f696023820186610937565b90507f206c6f636b732c2063616e206265207573656420746f20766f7465206f6e207481527f6f6b656e20656d697373696f6e7320616e64207265636569766520766f74696e60208201527f672072657761726473222c2022696d616765223a2022646174613a696d61676560408201526f0bdcdd99cade1b5b0ed8985cd94d8d0b60821b60608201528351611006816070840160208801610805565b61227d60f01b6070929091019182015260720195945050505050565b7f646174613a6170706c69636174696f6e2f6a736f6e3b6261736536342c00000081526000825161105a81601d850160208701610805565b91909101601d0192915050565b6001815b60018411156110a257808504811115611086576110866108c8565b600184161561109457908102905b60019390931c92800261106b565b935093915050565b6000826110b9575060016107ff565b816110c6575060006107ff565b81600181146110dc57600281146110e657611102565b60019150506107ff565b60ff8411156110f7576110f76108c8565b50506001821b6107ff565b5060208310610133831016604e8410600b8410161715611125575081810a6107ff565b6111326000198484611067565b8060001904821115611146576111466108c8565b029392505050565b600061115d60ff8416836110aa565b9392505050565b600060ff821660ff810361117a5761117a6108c8565b60010192915050565b600082611192576111926108f1565b500690565b60ff82811682821603908111156107ff576107ff6108c8565b60ff81811683821601908111156107ff576107ff6108c8565b808201808211156107ff576107ff6108c8565b80820281158282048414176107ff576107ff6108c8565b634e487b7160e01b600052604160045260246000fd5b634e487b7160e01b600052603260045260246000fd5b600060ff821680611232576112326108c8565b600019019291505056fe4142434445464748494a4b4c4d4e4f505152535455565758595a6162636465666768696a6b6c6d6e6f707172737475767778797a303132333435363738392b2f3c7376672076657273696f6e3d22312e322220783d223070782220793d22307078222076696577426f783d223020302031393230203139323022206f766572666c6f773d2276697369626c652220786d6c3a73706163653d2270726573657276652220786d6c6e733d22687474703a2f2f7777772e77332e6f72672f323030302f7376672220786d6c6e733a7376673d22687474703a2f2f7777772e77332e6f72672f323030302f737667223ea26469706673582212204afe59142961356e4a77c08745ce42c7ed1fdea4f1e4c2d1c2b729be3812973464736f6c634300081c0033",
  "linkReferences": {},
  "deployedLinkReferences": {}
}