{
  "_format": "hh-sol-artifact-1",
  "contractName": "Voter",
  "sourceName": "contracts/Voter.sol",
  "abi": [
    {
      "inputs": [
        {
          "internalType": "address",
          "name": "__ve",
          "type": "address"
        },
        {
          "internalType": "address",
          "name": "__minter",
          "type": "address"
        }
      ],
      "stateMutability": "nonpayable",
      "type": "constructor"
    },
    {
      "inputs": [],
      "name": "AddressZero",
      "type": "error"
    },
    {
      "inputs": [],
      "name": "EpochFlipRequired",
      "type": "error"
    },
    {
      "inputs": [],
      "name": "InputMismatch",
      "type": "error"
    },
    {
      "inputs": [],
      "name": "MaxSingleWeight",
      "type": "error"
    },
    {
      "inputs": [
        {
          "internalType": "uint256",
          "name": "timestamp",
          "type": "uint256"
        }
      ],
      "name": "NoVotesAvailable",
      "type": "error"
    },
    {
      "inputs": [],
      "name": "NotManager",
      "type": "error"
    },
    {
      "inputs": [],
      "name": "NotOwnerOrApproved",
      "type": "error"
    },
    {
      "inputs": [
        {
          "internalType": "address",
          "name": "pool",
          "type": "address"
        }
      ],
      "name": "NotPool",
      "type": "error"
    },
    {
      "inputs": [],
      "name": "PoolExists",
      "type": "error"
    },
    {
      "inputs": [],
      "name": "PoolNotExists",
      "type": "error"
    },
    {
      "inputs": [],
      "name": "PoolWeightZero",
      "type": "error"
    },
    {
      "inputs": [],
      "name": "TotalWeightZero",
      "type": "error"
    },
    {
      "anonymous": false,
      "inputs": [
        {
          "indexed": true,
          "internalType": "address",
          "name": "pool",
          "type": "address"
        },
        {
          "indexed": false,
          "internalType": "address",
          "name": "gauge",
          "type": "address"
        },
        {
          "indexed": false,
          "internalType": "address",
          "name": "votingIncentives",
          "type": "address"
        }
      ],
      "name": "AddPool",
      "type": "event"
    },
    {
      "anonymous": false,
      "inputs": [
        {
          "indexed": true,
          "internalType": "address",
          "name": "pool",
          "type": "address"
        }
      ],
      "name": "BanPool",
      "type": "event"
    },
    {
      "anonymous": false,
      "inputs": [
        {
          "indexed": true,
          "internalType": "address",
          "name": "previousOwner",
          "type": "address"
        },
        {
          "indexed": true,
          "internalType": "address",
          "name": "newOwner",
          "type": "address"
        }
      ],
      "name": "OwnershipTransferred",
      "type": "event"
    },
    {
      "anonymous": false,
      "inputs": [
        {
          "indexed": false,
          "internalType": "address",
          "name": "account",
          "type": "address"
        }
      ],
      "name": "Paused",
      "type": "event"
    },
    {
      "anonymous": false,
      "inputs": [
        {
          "indexed": true,
          "internalType": "address",
          "name": "pool",
          "type": "address"
        }
      ],
      "name": "RemovePool",
      "type": "event"
    },
    {
      "anonymous": false,
      "inputs": [
        {
          "indexed": false,
          "internalType": "address",
          "name": "voter",
          "type": "address"
        },
        {
          "indexed": true,
          "internalType": "uint256",
          "name": "tokenId",
          "type": "uint256"
        },
        {
          "indexed": false,
          "internalType": "uint256",
          "name": "timestamp",
          "type": "uint256"
        }
      ],
      "name": "Reset",
      "type": "event"
    },
    {
      "anonymous": false,
      "inputs": [
        {
          "indexed": true,
          "internalType": "address",
          "name": "pool",
          "type": "address"
        }
      ],
      "name": "RevivePool",
      "type": "event"
    },
    {
      "anonymous": false,
      "inputs": [
        {
          "indexed": true,
          "internalType": "address",
          "name": "manager",
          "type": "address"
        },
        {
          "indexed": false,
          "internalType": "bool",
          "name": "stauts",
          "type": "bool"
        }
      ],
      "name": "SetManagerStatus",
      "type": "event"
    },
    {
      "anonymous": false,
      "inputs": [
        {
          "indexed": true,
          "internalType": "address",
          "name": "minter",
          "type": "address"
        }
      ],
      "name": "SetMinter",
      "type": "event"
    },
    {
      "anonymous": false,
      "inputs": [
        {
          "indexed": true,
          "internalType": "address",
          "name": "ve",
          "type": "address"
        }
      ],
      "name": "SetVotingEscrow",
      "type": "event"
    },
    {
      "anonymous": false,
      "inputs": [
        {
          "indexed": true,
          "internalType": "address",
          "name": "vea",
          "type": "address"
        }
      ],
      "name": "SetVotingEscrowAttach",
      "type": "event"
    },
    {
      "anonymous": false,
      "inputs": [
        {
          "indexed": false,
          "internalType": "address",
          "name": "account",
          "type": "address"
        }
      ],
      "name": "Unpaused",
      "type": "event"
    },
    {
      "anonymous": false,
      "inputs": [
        {
          "indexed": false,
          "internalType": "address",
          "name": "voter",
          "type": "address"
        },
        {
          "indexed": true,
          "internalType": "uint256",
          "name": "tokenId",
          "type": "uint256"
        },
        {
          "indexed": false,
          "internalType": "uint256",
          "name": "timestamp",
          "type": "uint256"
        }
      ],
      "name": "Vote",
      "type": "event"
    },
    {
      "inputs": [
        {
          "internalType": "address",
          "name": "pool",
          "type": "address"
        },
        {
          "internalType": "address",
          "name": "gauge",
          "type": "address"
        },
        {
          "internalType": "address",
          "name": "votingIncentives",
          "type": "address"
        }
      ],
      "name": "addPoolData",
      "outputs": [],
      "stateMutability": "nonpayable",
      "type": "function"
    },
    {
      "inputs": [
        {
          "internalType": "address",
          "name": "pool",
          "type": "address"
        }
      ],
      "name": "banPool",
      "outputs": [],
      "stateMutability": "nonpayable",
      "type": "function"
    },
    {
      "inputs": [],
      "name": "epochTimestamp",
      "outputs": [
        {
          "internalType": "uint256",
          "name": "",
          "type": "uint256"
        }
      ],
      "stateMutability": "view",
      "type": "function"
    },
    {
      "inputs": [
        {
          "internalType": "address",
          "name": "pool",
          "type": "address"
        }
      ],
      "name": "gaugeForPool",
      "outputs": [
        {
          "internalType": "address",
          "name": "",
          "type": "address"
        }
      ],
      "stateMutability": "view",
      "type": "function"
    },
    {
      "inputs": [],
      "name": "isEpochFlipRequired",
      "outputs": [
        {
          "internalType": "bool",
          "name": "",
          "type": "bool"
        }
      ],
      "stateMutability": "view",
      "type": "function"
    },
    {
      "inputs": [
        {
          "internalType": "address",
          "name": "manager",
          "type": "address"
        }
      ],
      "name": "isManager",
      "outputs": [
        {
          "internalType": "bool",
          "name": "",
          "type": "bool"
        }
      ],
      "stateMutability": "view",
      "type": "function"
    },
    {
      "inputs": [
        {
          "internalType": "address",
          "name": "pool",
          "type": "address"
        }
      ],
      "name": "isPool",
      "outputs": [
        {
          "internalType": "bool",
          "name": "",
          "type": "bool"
        }
      ],
      "stateMutability": "view",
      "type": "function"
    },
    {
      "inputs": [],
      "name": "minter",
      "outputs": [
        {
          "internalType": "address",
          "name": "",
          "type": "address"
        }
      ],
      "stateMutability": "view",
      "type": "function"
    },
    {
      "inputs": [],
      "name": "owner",
      "outputs": [
        {
          "internalType": "address",
          "name": "",
          "type": "address"
        }
      ],
      "stateMutability": "view",
      "type": "function"
    },
    {
      "inputs": [
        {
          "internalType": "bool",
          "name": "status",
          "type": "bool"
        }
      ],
      "name": "pause",
      "outputs": [],
      "stateMutability": "nonpayable",
      "type": "function"
    },
    {
      "inputs": [],
      "name": "paused",
      "outputs": [
        {
          "internalType": "bool",
          "name": "",
          "type": "bool"
        }
      ],
      "stateMutability": "view",
      "type": "function"
    },
    {
      "inputs": [
        {
          "internalType": "uint256",
          "name": "_tokenId",
          "type": "uint256"
        }
      ],
      "name": "poke",
      "outputs": [],
      "stateMutability": "nonpayable",
      "type": "function"
    },
    {
      "inputs": [
        {
          "internalType": "address",
          "name": "pool",
          "type": "address"
        }
      ],
      "name": "poolData",
      "outputs": [
        {
          "components": [
            {
              "internalType": "address",
              "name": "gauge",
              "type": "address"
            },
            {
              "internalType": "address",
              "name": "votingIncentives",
              "type": "address"
            }
          ],
          "internalType": "struct IVoter.PoolData",
          "name": "",
          "type": "tuple"
        }
      ],
      "stateMutability": "view",
      "type": "function"
    },
    {
      "inputs": [
        {
          "internalType": "address",
          "name": "pool",
          "type": "address"
        }
      ],
      "name": "poolPosition",
      "outputs": [
        {
          "internalType": "uint256",
          "name": "pos",
          "type": "uint256"
        }
      ],
      "stateMutability": "view",
      "type": "function"
    },
    {
      "inputs": [
        {
          "internalType": "address",
          "name": "pool",
          "type": "address"
        },
        {
          "internalType": "uint256",
          "name": "timestamp",
          "type": "uint256"
        }
      ],
      "name": "poolTotalWeights",
      "outputs": [
        {
          "internalType": "uint256",
          "name": "",
          "type": "uint256"
        }
      ],
      "stateMutability": "view",
      "type": "function"
    },
    {
      "inputs": [
        {
          "internalType": "uint256",
          "name": "from",
          "type": "uint256"
        },
        {
          "internalType": "uint256",
          "name": "to",
          "type": "uint256"
        }
      ],
      "name": "pools",
      "outputs": [
        {
          "internalType": "address[]",
          "name": "_pools",
          "type": "address[]"
        }
      ],
      "stateMutability": "view",
      "type": "function"
    },
    {
      "inputs": [
        {
          "internalType": "uint256",
          "name": "pos",
          "type": "uint256"
        }
      ],
      "name": "pools",
      "outputs": [
        {
          "internalType": "address",
          "name": "",
          "type": "address"
        }
      ],
      "stateMutability": "view",
      "type": "function"
    },
    {
      "inputs": [],
      "name": "pools",
      "outputs": [
        {
          "internalType": "address[]",
          "name": "",
          "type": "address[]"
        }
      ],
      "stateMutability": "view",
      "type": "function"
    },
    {
      "inputs": [],
      "name": "poolsLength",
      "outputs": [
        {
          "internalType": "uint256",
          "name": "",
          "type": "uint256"
        }
      ],
      "stateMutability": "view",
      "type": "function"
    },
    {
      "inputs": [
        {
          "internalType": "address",
          "name": "pool",
          "type": "address"
        }
      ],
      "name": "removePoolData",
      "outputs": [],
      "stateMutability": "nonpayable",
      "type": "function"
    },
    {
      "inputs": [],
      "name": "renounceOwnership",
      "outputs": [],
      "stateMutability": "nonpayable",
      "type": "function"
    },
    {
      "inputs": [
        {
          "internalType": "uint256",
          "name": "_tokenId",
          "type": "uint256"
        }
      ],
      "name": "reset",
      "outputs": [],
      "stateMutability": "nonpayable",
      "type": "function"
    },
    {
      "inputs": [
        {
          "internalType": "address",
          "name": "pool",
          "type": "address"
        }
      ],
      "name": "revivePool",
      "outputs": [],
      "stateMutability": "nonpayable",
      "type": "function"
    },
    {
      "inputs": [
        {
          "internalType": "address",
          "name": "manager",
          "type": "address"
        },
        {
          "internalType": "bool",
          "name": "status",
          "type": "bool"
        }
      ],
      "name": "setManagerStatus",
      "outputs": [],
      "stateMutability": "nonpayable",
      "type": "function"
    },
    {
      "inputs": [
        {
          "internalType": "address",
          "name": "_mint",
          "type": "address"
        }
      ],
      "name": "setMinter",
      "outputs": [],
      "stateMutability": "nonpayable",
      "type": "function"
    },
    {
      "inputs": [
        {
          "internalType": "address",
          "name": "_votingEscrow",
          "type": "address"
        }
      ],
      "name": "setVotingEscrow",
      "outputs": [],
      "stateMutability": "nonpayable",
      "type": "function"
    },
    {
      "inputs": [
        {
          "internalType": "uint256",
          "name": "_tokenId",
          "type": "uint256"
        },
        {
          "internalType": "uint256",
          "name": "timestamp",
          "type": "uint256"
        }
      ],
      "name": "tokenIdVotes",
      "outputs": [
        {
          "components": [
            {
              "internalType": "uint256",
              "name": "veBalance",
              "type": "uint256"
            },
            {
              "internalType": "uint256",
              "name": "totalWeight",
              "type": "uint256"
            },
            {
              "internalType": "uint256[]",
              "name": "weights",
              "type": "uint256[]"
            },
            {
              "internalType": "address[]",
              "name": "pools",
              "type": "address[]"
            }
          ],
          "internalType": "struct IVoter.TokenIdVote",
          "name": "",
          "type": "tuple"
        }
      ],
      "stateMutability": "view",
      "type": "function"
    },
    {
      "inputs": [
        {
          "internalType": "uint256",
          "name": "timestamp",
          "type": "uint256"
        }
      ],
      "name": "totalWeights",
      "outputs": [
        {
          "internalType": "uint256",
          "name": "",
          "type": "uint256"
        }
      ],
      "stateMutability": "view",
      "type": "function"
    },
    {
      "inputs": [
        {
          "internalType": "address",
          "name": "newOwner",
          "type": "address"
        }
      ],
      "name": "transferOwnership",
      "outputs": [],
      "stateMutability": "nonpayable",
      "type": "function"
    },
    {
      "inputs": [],
      "name": "ve",
      "outputs": [
        {
          "internalType": "address",
          "name": "",
          "type": "address"
        }
      ],
      "stateMutability": "view",
      "type": "function"
    },
    {
      "inputs": [
        {
          "internalType": "uint256",
          "name": "_tokenId",
          "type": "uint256"
        },
        {
          "internalType": "address[]",
          "name": "_pools",
          "type": "address[]"
        },
        {
          "internalType": "uint256[]",
          "name": "_weights",
          "type": "uint256[]"
        }
      ],
      "name": "vote",
      "outputs": [],
      "stateMutability": "nonpayable",
      "type": "function"
    },
    {
      "inputs": [
        {
          "internalType": "address",
          "name": "pool",
          "type": "address"
        }
      ],
      "name": "votingIncentivesForPool",
      "outputs": [
        {
          "internalType": "address",
          "name": "",
          "type": "address"
        }
      ],
      "stateMutability": "view",
      "type": "function"
    }
  ],
  "bytecode": "0x608060405234801561001057600080fd5b506040516129f33803806129f383398101604081905261002f91610177565b6100383361010b565b6000805460ff60a01b191690556001600160a01b03821661006c57604051639fabe1c160e01b815260040160405180910390fd5b6001600160a01b03811661009357604051639fabe1c160e01b815260040160405180910390fd5b600a80546001600160a01b038085166001600160a01b03199283161790925560098054928416929091169190911790556001600860006100db6000546001600160a01b031690565b6001600160a01b031681526020810191909152604001600020805460ff1916911515919091179055506101aa9050565b600080546001600160a01b038381166001600160a01b0319831681178455604051919092169283917f8be0079c531659141344cd1fd0a4f28419497f9722a3daafe3b4186f6b6457e09190a35050565b80516001600160a01b038116811461017257600080fd5b919050565b6000806040838503121561018a57600080fd5b6101938361015b565b91506101a16020840161015b565b90509250929050565b61283a806101b96000396000f3fe608060405234801561001057600080fd5b50600436106101b05760003560e01c80637450e2de116100ef578063b62e1efc11610092578063b62e1efc14610442578063c42b36ad14610462578063c5c51dca14610475578063ce5ec92e1461047d578063e98470ed14610490578063f2fde38b146104a3578063f3ae2415146104b6578063fca3b5aa146104c957600080fd5b80637450e2de146103815780637ac09bf7146103a15780638da5cb5b146103b45780638ef74f6c146103c5578063a5295923146103d8578063a7b8bfc2146103f8578063ac4afa3814610400578063ac9eb5f51461041357600080fd5b8063310bd74b11610157578063310bd74b146102e457806332145f90146102f75780634ada282a1461030a5780635b16ebb71461031d5780635c975abb146103405780636103ed2e1461034857806370055e9e14610350578063715018a61461037957600080fd5b806302329a29146101b557806307546172146101ca578063136efb7a146101ed578063168e30f51461026b5780631aaaea371461028c5780631f8507161461029f5780632045be90146102b05780632716ae66146102dc575b600080fd5b6101c86101c33660046123cb565b6104dc565b005b6009546001600160a01b03165b6040516101e491906123ef565b60405180910390f35b6102446101fb36600461241f565b604080518082018252600080825260209182018190526001600160a01b039384168152600582528290208251808401909352805484168352600101549092169181019190915290565b6040805182516001600160a01b0390811682526020938401511692810192909252016101e4565b61027e61027936600461243a565b6104fc565b6040519081526020016101e4565b6101c861029a366004612464565b610527565b600a546001600160a01b03166101d7565b6101d76102be36600461241f565b6001600160a01b039081166000908152600560205260409020541690565b60015461027e565b6101c86102f23660046124a7565b610771565b6101c86103053660046124a7565b610838565b6101c861031836600461241f565b610e5f565b61033061032b36600461241f565b610f07565b60405190151581526020016101e4565b610330610f38565b61027e610f48565b61027e61035e36600461241f565b6001600160a01b031660009081526006602052604090205490565b6101c8610f57565b61039461038f3660046124c0565b610f6b565b6040516101e491906124e2565b6101c86103af36600461257a565b61103f565b6000546001600160a01b03166101d7565b6101c86103d33660046125f9565b611130565b6103eb6103e63660046124c0565b6111be565b6040516101e49190612675565b6103306112d5565b6101d761040e3660046124a7565b611349565b6101d761042136600461241f565b6001600160a01b039081166000908152600560205260409020600101541690565b61027e6104503660046124a7565b60009081526003602052604090205490565b6101c861047036600461241f565b611379565b61039461155e565b6101c861048b36600461241f565b6115c0565b6101c861049e36600461241f565b611657565b6101c86104b136600461241f565b611703565b6103306104c436600461241f565b611779565b6101c86104d736600461241f565b611797565b6104e461182e565b806104f4576104f1611888565b50565b6104f16118d7565b6001600160a01b03821660009081526004602090815260408083208484529091529020545b92915050565b61053033611779565b61054d5760405163607e454560e11b815260040160405180910390fd5b6001600160a01b03831661057457604051639fabe1c160e01b815260040160405180910390fd5b6001600160a01b03821661059b57604051639fabe1c160e01b815260040160405180910390fd5b6001600160a01b0381166105c257604051639fabe1c160e01b815260040160405180910390fd5b6001600160a01b03831660009081526007602052604090205460ff16156105fc57604051637a471e1360e11b815260040160405180910390fd5b6040805180820182526001600160a01b0380851682528381166020808401918252878316600081815260058352868120955186549086166001600160a01b031991821617875593516001968701805491909616908516179094556007909152938220805460ff19168417905582548084018455918390527fb10e2d527612073b26eecdfd717e6a320cf44b4afac2b0732d9fcbe2b7fa0cf6909101805490911690921790915580546106ae9190612714565b6001600160a01b0384166000908152600660205260408120919091556106d261191a565b6001600160a01b03851660009081526004602090815260408083208484529091529020549091508015610723576000828152600360205260408120805483929061071d908490612727565b90915550505b604080516001600160a01b03868116825285811660208301528716917fe5fa92066fe577ed687637838bf5788f2bd83ebde9bf2a02abd8080ecfbc2d65910160405180910390a25050505050565b610779611988565b600a5460405163430c208160e01b81526001600160a01b039091169063430c2081906107ab903390859060040161273a565b602060405180830381865afa1580156107c8573d6000803e3d6000fd5b505050506040513d601f19601f820116820180604052508101906107ec9190612753565b61080957604051636d8a29e760e11b815260040160405180910390fd5b6108116112d5565b1561082f57604051635ea1747160e01b815260040160405180910390fd5b6104f1816119d0565b610840611988565b600a5460405163430c208160e01b81526001600160a01b039091169063430c208190610872903390859060040161273a565b602060405180830381865afa15801561088f573d6000803e3d6000fd5b505050506040513d601f19601f820116820180604052508101906108b39190612753565b6108d057604051636d8a29e760e11b815260040160405180910390fd5b6108d86112d5565b156108f657604051635ea1747160e01b815260040160405180910390fd5b600061090061191a565b6000838152600260205260408120919250908161092062093a8085612714565b815260200190815260200160002060405180608001604052908160008201548152602001600182015481526020016002820180548060200260200160405190810160405280929190818152602001828054801561099c57602002820191906000526020600020905b815481526020019060010190808311610988575b50505050508152602001600382018054806020026020016040519081016040528092919081815260200182805480156109fe57602002820191906000526020600020905b81546001600160a01b031681526001909101906020018083116109e0575b505050919092525050506060810151604082015181519293509091600003610a5257610a2d62093a8085612714565b60405163752eca3560e01b8152600401610a4991815260200190565b60405180910390fd5b610a5b856119d0565b6020830151600a546040516339f890b560e21b8152600481018890526000916001600160a01b03169063e7e242d490602401602060405180830381865afa158015610aaa573d6000803e3d6000fd5b505050506040513d601f19601f82011682018060405250810190610ace9190612770565b9050600080610aed604080518082019091526000808252602082015290565b84600003610b0e5760405163d666c84560e01b815260040160405180910390fd5b8651831015610d045760076000888581518110610b2d57610b2d612789565b6020908102919091018101516001600160a01b031682528101919091526040016000205460ff16610b8c57868381518110610b6a57610b6a612789565b602002602001015160405163250abb5160e11b8152600401610a4991906123ef565b8484878581518110610ba057610ba0612789565b6020026020010151610bb2919061279f565b610bbc91906127b6565b915081600003610bdf576040516336a06b1360e21b815260040160405180910390fd5b8160046000898681518110610bf657610bf6612789565b60200260200101516001600160a01b03166001600160a01b0316815260200190815260200160002060008b81526020019081526020016000206000828254610c3e9190612727565b9250508190555060056000888581518110610c5b57610c5b612789565b6020908102919091018101516001600160a01b039081168352828201939093526040918201600020825180840184528154851681526001909101549093169083018190529051631c57762b60e31b815260048101859052602481018d90529192509063e2bbb15890604401600060405180830381600087803b158015610ce057600080fd5b505af1158015610cf4573d6000803e3d6000fd5b505060019094019350610b0e9050565b604051806080016040528085815260200186815260200187815260200188815250600260008c815260200190815260200160002060008b815260200190815260200160002060008201518160000155602082015181600101556040820151816002019080519060200190610d799291906122ee565b5060608201518051610d95916003840191602090910190612339565b50505060008981526003602052604081208054869290610db6908490612727565b9091555050600a5460405163fd4a77f160e01b8152600481018c90526001600160a01b039091169063fd4a77f190602401600060405180830381600087803b158015610e0157600080fd5b505af1158015610e15573d6000803e3d6000fd5b50505050897fafd3f234c1f8e944129b26b206d98e5752ad3336a4059938b4a3e990e9588530338b604051610e4b92919061273a565b60405180910390a250505050505050505050565b610e6833611779565b610e855760405163607e454560e11b815260040160405180910390fd5b6001600160a01b03811660009081526007602052604090205460ff16610ebe576040516302ea63c760e21b815260040160405180910390fd5b6001600160a01b038116600081815260076020526040808220805460ff19169055517fd0d5ea94cd49e02322e6b063a8bb973906359789fa370a54261e226b9592b5e29190a250565b6001600160a01b03811660009081526007602052604081205460ff1615610f3057506001919050565b506000919050565b600054600160a01b900460ff1690565b6000610f5261191a565b905090565b610f5f61182e565b610f696000611d6d565b565b60606000610f798484612714565b90508067ffffffffffffffff811115610f9457610f946127d8565b604051908082528060200260200182016040528015610fbd578160200160208202803683370190505b50915060005b81811015611037576001610fd78287612727565b81548110610fe757610fe7612789565b9060005260206000200160009054906101000a90046001600160a01b031683828151811061101757611017612789565b6001600160a01b0390921660209283029190910190910152600101610fc3565b505092915050565b611047611988565b600a5460405163430c208160e01b81526001600160a01b039091169063430c208190611079903390899060040161273a565b602060405180830381865afa158015611096573d6000803e3d6000fd5b505050506040513d601f19601f820116820180604052508101906110ba9190612753565b6110d757604051636d8a29e760e11b815260040160405180910390fd5b8281146110f65760405162a80fb560e51b815260040160405180910390fd5b6110fe6112d5565b1561111c57604051635ea1747160e01b815260040160405180910390fd5b6111298585858585611dbd565b5050505050565b61113861182e565b6001600160a01b03821661115f57604051639fabe1c160e01b815260040160405180910390fd5b6001600160a01b038216600081815260086020908152604091829020805460ff191685151590811790915591519182527f2c0e460d92a73502decde52c29ae030dd8872be648a35b2b71fd47725c3a8c5a910160405180910390a25050565b6111e96040518060800160405280600081526020016000815260200160608152602001606081525090565b600083815260026020818152604080842086855282529283902083516080810185528154815260018201548184015292810180548551818502810185018752818152949592949286019383018282801561126257602002820191906000526020600020905b81548152602001906001019080831161124e575b50505050508152602001600382018054806020026020016040519081016040528092919081815260200182805480156112c457602002820191906000526020600020905b81546001600160a01b031681526001909101906020018083116112a6575b505050505081525050905092915050565b600954604080516302ae69a560e11b815290516000926001600160a01b03169163055cd34a9160048083019260209291908290030181865afa15801561131f573d6000803e3d6000fd5b505050506040513d601f19601f820116820180604052508101906113439190612753565b15919050565b60006001828154811061135e5761135e612789565b6000918252602090912001546001600160a01b031692915050565b61138233611779565b61139f5760405163607e454560e11b815260040160405180910390fd5b6001600160a01b03811660009081526007602052604090205460ff166113d8576040516302ea63c760e21b815260040160405180910390fd5b60006113e261191a565b6001600160a01b03831660009081526004602090815260408083208484529091529020549091508015611433576000828152600360205260408120805483929061142d908490612714565b90915550505b6001805460009190611446908290612714565b8154811061145657611456612789565b60009182526020808320909101546001600160a01b0387811684526006909252604090922054600180549290931693509183918390811061149957611499612789565b600091825260208083209190910180546001600160a01b0319166001600160a01b03948516179055878316825260069052604080822082905591841681522081905560018054806114ec576114ec6127ee565b60008281526020808220830160001990810180546001600160a01b03191690559092019092556001600160a01b03871680835260079091526040808320805460ff191690555190917f0719c8bc6522957e7735717af2894124fbc9096cf04b5bfaabcff5157790876591a25050505050565b606060018054806020026020016040519081016040528092919081815260200182805480156115b657602002820191906000526020600020905b81546001600160a01b03168152600190910190602001808311611598575b5050505050905090565b6115c933611779565b6115e65760405163607e454560e11b815260040160405180910390fd5b6001600160a01b03811661160d57604051639fabe1c160e01b815260040160405180910390fd5b600a80546001600160a01b0319166001600160a01b0383169081179091556040517f0927ef649a08b3f317d1dc814404dc648792deea5634d66f8d0879ced04d396c90600090a250565b61166033611779565b61167d5760405163607e454560e11b815260040160405180910390fd5b6001600160a01b03811660009081526007602052604090205460ff16156116b757604051637a471e1360e11b815260040160405180910390fd5b6001600160a01b038116600081815260076020526040808220805460ff19166001179055517f1201338058da8a5c7cb6da92ee0dd23d5a813f82564aaa9b8371d36e9f779a079190a250565b61170b61182e565b6001600160a01b0381166117705760405162461bcd60e51b815260206004820152602660248201527f4f776e61626c653a206e6577206f776e657220697320746865207a65726f206160448201526564647265737360d01b6064820152608401610a49565b6104f181611d6d565b6001600160a01b031660009081526008602052604090205460ff1690565b6117a033611779565b6117bd5760405163607e454560e11b815260040160405180910390fd5b6001600160a01b0381166117e457604051639fabe1c160e01b815260040160405180910390fd5b600980546001600160a01b0319166001600160a01b0383169081179091556040517fcec52196e972044edde8689a1b608e459c5946b7f3e5c8cd3d6d8e126d422e1c90600090a250565b6000546001600160a01b03163314610f695760405162461bcd60e51b815260206004820181905260248201527f4f776e61626c653a2063616c6c6572206973206e6f7420746865206f776e65726044820152606401610a49565b6118906122a3565b6000805460ff60a01b191690557f5db9ee0a495bf2e6ff9c91a7834c1ba4fdd244a5e8aa4e537bd38aeae4b073aa335b6040516118cd91906123ef565b60405180910390a1565b6118df611988565b6000805460ff60a01b1916600160a01b1790557f62e78cea01bee320cd4e420270b5ea74000d11b0c9f74754ebdbfc544b05a2586118c03390565b60095460408051631a2732c160e31b815290516000926001600160a01b03169163d13996089160048083019260209291908290030181865afa158015611964573d6000803e3d6000fd5b505050506040513d601f19601f82011682018060405250810190610f529190612770565b611990610f38565b15610f695760405162461bcd60e51b815260206004820152601060248201526f14185d5cd8589b194e881c185d5cd95960821b6044820152606401610a49565b60006119da61191a565b600083815260026020818152604080842085855282528084208151608081018352815481526001820154818501529381018054835181860281018601855281815297985095969495919492860193909190830182828015611a5a57602002820191906000526020600020905b815481526020019060010190808311611a46575b5050505050815260200160038201805480602002602001604051908101604052809291908181526020018280548015611abc57602002820191906000526020600020905b81546001600160a01b03168152600190910190602001808311611a9e575b5050505050815250509050611ae1604080518082019091526000808252602082015290565b602082015115611ccf57815160008481526003602052604081208054909190611b0b908490612714565b9091555060009050805b836060015151811015611c8b57602084015184516040860151805184908110611b4057611b40612789565b6020026020010151611b52919061279f565b611b5c91906127b6565b9150816004600086606001518481518110611b7957611b79612789565b60200260200101516001600160a01b03166001600160a01b0316815260200190815260200160002060008781526020019081526020016000206000828254611bc19190612714565b925050819055506005600085606001518381518110611be257611be2612789565b6020908102919091018101516001600160a01b039081168352828201939093526040918201600020825180840184528154851681526001909101549093169083018190529051630441a3e760e41b815260048101859052602481018990529194509063441a3e7090604401600060405180830381600087803b158015611c6757600080fd5b505af1158015611c7b573d6000803e3d6000fd5b505060019092019150611b159050565b60008681526002602081815260408084208985529091528220828155600181018390559190611cbc9083018261238e565b611cca60038301600061238e565b505050505b600a5460405163c1f0fb9f60e01b8152600481018690526001600160a01b039091169063c1f0fb9f90602401600060405180830381600087803b158015611d1557600080fd5b505af1158015611d29573d6000803e3d6000fd5b50505050837ff054db3316438c563ccda1bcd9cc2c2c54b88f26c0248b5cfd017aa2111cf1333385604051611d5f92919061273a565b60405180910390a250505050565b600080546001600160a01b038381166001600160a01b0319831681178455604051919092169283917f8be0079c531659141344cd1fd0a4f28419497f9722a3daafe3b4186f6b6457e09190a35050565b611dc6856119d0565b600a546040516339f890b560e21b81526004810187905260009182916001600160a01b039091169063e7e242d490602401602060405180830381865afa158015611e14573d6000803e3d6000fd5b505050506040513d601f19601f82011682018060405250810190611e389190612770565b90506000611e4461191a565b9050600080805b88831015611f1157600760008b8b86818110611e6957611e69612789565b9050602002016020810190611e7e919061241f565b6001600160a01b0316815260208101919091526040016000205460ff16611ee057898984818110611eb157611eb1612789565b9050602002016020810190611ec6919061241f565b60405163250abb5160e11b8152600401610a4991906123ef565b878784818110611ef257611ef2612789565b9050602002013586611f049190612727565b9550600190920191611e4b565b85600003611f325760405163d666c84560e01b815260040160405180910390fd5b600092505b888310156120fa57612710888885818110611f5457611f54612789565b905060200201351115611f7a57604051636948bec160e11b815260040160405180910390fd5b8585898986818110611f8e57611f8e612789565b90506020020135611f9f919061279f565b611fa991906127b6565b915081600003611fcc576040516336a06b1360e21b815260040160405180910390fd5b611fd68282612727565b905081600460008c8c87818110611fef57611fef612789565b9050602002016020810190612004919061241f565b6001600160a01b03166001600160a01b03168152602001908152602001600020600086815260200190815260200160002060008282546120449190612727565b909155506005905060008b8b8681811061206057612060612789565b9050602002016020810190612075919061241f565b6001600160a01b03908116825260208201929092526040908101600020600101549051631c57762b60e31b815260048101859052602481018e905291169063e2bbb15890604401600060405180830381600087803b1580156120d657600080fd5b505af11580156120ea573d6000803e3d6000fd5b505060019094019350611f379050565b60405180608001604052808681526020018781526020018989808060200260200160405190810160405280939291908181526020018383602002808284376000920191909152505050908252506040805160208d810282810182019093528d82529283019290918e918e91829185019084908082843760009201829052509390945250508d81526002602081815260408084208a8552825292839020855181558582015160018201559285015180519394506121bc93928501929101906122ee565b50606082015180516121d8916003840191602090910190612339565b505050600084815260036020526040812080548792906121f9908490612727565b9091555050600a5460405163fd4a77f160e01b8152600481018d90526001600160a01b039091169063fd4a77f190602401600060405180830381600087803b15801561224457600080fd5b505af1158015612258573d6000803e3d6000fd5b505050508a7fafd3f234c1f8e944129b26b206d98e5752ad3336a4059938b4a3e990e9588530338660405161228e92919061273a565b60405180910390a25050505050505050505050565b6122ab610f38565b610f695760405162461bcd60e51b815260206004820152601460248201527314185d5cd8589b194e881b9bdd081c185d5cd95960621b6044820152606401610a49565b828054828255906000526020600020908101928215612329579160200282015b8281111561232957825182559160200191906001019061230e565b506123359291506123a8565b5090565b828054828255906000526020600020908101928215612329579160200282015b8281111561232957825182546001600160a01b0319166001600160a01b03909116178255602090920191600190910190612359565b50805460008255906000526020600020908101906104f191905b5b8082111561233557600081556001016123a9565b80151581146104f157600080fd5b6000602082840312156123dd57600080fd5b81356123e8816123bd565b9392505050565b6001600160a01b0391909116815260200190565b80356001600160a01b038116811461241a57600080fd5b919050565b60006020828403121561243157600080fd5b6123e882612403565b6000806040838503121561244d57600080fd5b61245683612403565b946020939093013593505050565b60008060006060848603121561247957600080fd5b61248284612403565b925061249060208501612403565b915061249e60408501612403565b90509250925092565b6000602082840312156124b957600080fd5b5035919050565b600080604083850312156124d357600080fd5b50508035926020909101359150565b602080825282518282018190526000918401906040840190835b818110156125235783516001600160a01b03168352602093840193909201916001016124fc565b509095945050505050565b60008083601f84011261254057600080fd5b50813567ffffffffffffffff81111561255857600080fd5b6020830191508360208260051b850101111561257357600080fd5b9250929050565b60008060008060006060868803121561259257600080fd5b85359450602086013567ffffffffffffffff8111156125b057600080fd5b6125bc8882890161252e565b909550935050604086013567ffffffffffffffff8111156125dc57600080fd5b6125e88882890161252e565b969995985093965092949392505050565b6000806040838503121561260c57600080fd5b61261583612403565b91506020830135612625816123bd565b809150509250929050565b600081518084526020840193506020830160005b8281101561266b5781516001600160a01b0316865260209586019590910190600101612644565b5093949350505050565b60208152600060a08201835160208401526020840151604084015260408401516080606085015281815180845260c086019150602083019350600092505b808310156126d657835182526020820191506020840193506001830192506126b3565b506060860151858203601f1901608087015292506126f48184612630565b9695505050505050565b634e487b7160e01b600052601160045260246000fd5b81810381811115610521576105216126fe565b80820180821115610521576105216126fe565b6001600160a01b03929092168252602082015260400190565b60006020828403121561276557600080fd5b81516123e8816123bd565b60006020828403121561278257600080fd5b5051919050565b634e487b7160e01b600052603260045260246000fd5b8082028115828204841417610521576105216126fe565b6000826127d357634e487b7160e01b600052601260045260246000fd5b500490565b634e487b7160e01b600052604160045260246000fd5b634e487b7160e01b600052603160045260246000fdfea26469706673582212201e311313f52b378a3fe842756752ec174afb9a4ba450b82138e2b2e0ef29d41564736f6c634300081c0033",
  "linkReferences": {},
  "deployedLinkReferences": {}
}