{
  "_format": "hh-sol-artifact-1",
  "contractName": "VotingIncentivesFactory",
  "sourceName": "contracts/VotingIncentivesFactory.sol",
  "abi": [
    {
      "inputs": [
        {
          "internalType": "address",
          "name": "_globalFactory",
          "type": "address"
        },
        {
          "internalType": "address[]",
          "name": "defaultTokens",
          "type": "address[]"
        },
        {
          "internalType": "address",
          "name": "_minter",
          "type": "address"
        },
        {
          "internalType": "address",
          "name": "_votingEscrow",
          "type": "address"
        },
        {
          "internalType": "address",
          "name": "_voter",
          "type": "address"
        },
        {
          "internalType": "address",
          "name": "_claimer",
          "type": "address"
        }
      ],
      "stateMutability": "nonpayable",
      "type": "constructor"
    },
    {
      "inputs": [],
      "name": "AddressZero",
      "type": "error"
    },
    {
      "anonymous": false,
      "inputs": [
        {
          "indexed": true,
          "internalType": "address",
          "name": "gauge",
          "type": "address"
        },
        {
          "indexed": true,
          "internalType": "address",
          "name": "votingIncentives",
          "type": "address"
        }
      ],
      "name": "CreateVotingIncentives",
      "type": "event"
    },
    {
      "anonymous": false,
      "inputs": [
        {
          "indexed": true,
          "internalType": "bytes32",
          "name": "role",
          "type": "bytes32"
        },
        {
          "indexed": true,
          "internalType": "bytes32",
          "name": "previousAdminRole",
          "type": "bytes32"
        },
        {
          "indexed": true,
          "internalType": "bytes32",
          "name": "newAdminRole",
          "type": "bytes32"
        }
      ],
      "name": "RoleAdminChanged",
      "type": "event"
    },
    {
      "anonymous": false,
      "inputs": [
        {
          "indexed": true,
          "internalType": "bytes32",
          "name": "role",
          "type": "bytes32"
        },
        {
          "indexed": true,
          "internalType": "address",
          "name": "account",
          "type": "address"
        },
        {
          "indexed": true,
          "internalType": "address",
          "name": "sender",
          "type": "address"
        }
      ],
      "name": "RoleGranted",
      "type": "event"
    },
    {
      "anonymous": false,
      "inputs": [
        {
          "indexed": true,
          "internalType": "bytes32",
          "name": "role",
          "type": "bytes32"
        },
        {
          "indexed": true,
          "internalType": "address",
          "name": "account",
          "type": "address"
        },
        {
          "indexed": true,
          "internalType": "address",
          "name": "sender",
          "type": "address"
        }
      ],
      "name": "RoleRevoked",
      "type": "event"
    },
    {
      "inputs": [],
      "name": "CREATE_ROLE",
      "outputs": [
        {
          "internalType": "bytes32",
          "name": "",
          "type": "bytes32"
        }
      ],
      "stateMutability": "view",
      "type": "function"
    },
    {
      "inputs": [],
      "name": "DEFAULT_ADMIN_ROLE",
      "outputs": [
        {
          "internalType": "bytes32",
          "name": "",
          "type": "bytes32"
        }
      ],
      "stateMutability": "view",
      "type": "function"
    },
    {
      "inputs": [],
      "name": "VOTING_INCENTIVES_FACTORY_MANAGER_ROLE",
      "outputs": [
        {
          "internalType": "bytes32",
          "name": "",
          "type": "bytes32"
        }
      ],
      "stateMutability": "view",
      "type": "function"
    },
    {
      "inputs": [
        {
          "internalType": "address",
          "name": "_token",
          "type": "address"
        },
        {
          "internalType": "address",
          "name": "_vi",
          "type": "address"
        }
      ],
      "name": "addRewardToVotingIncentives",
      "outputs": [],
      "stateMutability": "nonpayable",
      "type": "function"
    },
    {
      "inputs": [
        {
          "internalType": "address[]",
          "name": "_token",
          "type": "address[]"
        },
        {
          "internalType": "address",
          "name": "_vi",
          "type": "address"
        }
      ],
      "name": "addRewardsToVotingIncentives",
      "outputs": [],
      "stateMutability": "nonpayable",
      "type": "function"
    },
    {
      "inputs": [],
      "name": "claimer",
      "outputs": [
        {
          "internalType": "address",
          "name": "",
          "type": "address"
        }
      ],
      "stateMutability": "view",
      "type": "function"
    },
    {
      "inputs": [
        {
          "internalType": "address",
          "name": "_token0",
          "type": "address"
        },
        {
          "internalType": "address",
          "name": "_token1",
          "type": "address"
        },
        {
          "internalType": "address",
          "name": "gauge",
          "type": "address"
        }
      ],
      "name": "createVotingIncentives",
      "outputs": [
        {
          "internalType": "address",
          "name": "",
          "type": "address"
        }
      ],
      "stateMutability": "nonpayable",
      "type": "function"
    },
    {
      "inputs": [
        {
          "internalType": "uint256",
          "name": "",
          "type": "uint256"
        }
      ],
      "name": "defaultRewardToken",
      "outputs": [
        {
          "internalType": "address",
          "name": "",
          "type": "address"
        }
      ],
      "stateMutability": "view",
      "type": "function"
    },
    {
      "inputs": [
        {
          "internalType": "address[]",
          "name": "_vi",
          "type": "address[]"
        },
        {
          "internalType": "address[]",
          "name": "_tokens",
          "type": "address[]"
        },
        {
          "internalType": "uint256[]",
          "name": "_amounts",
          "type": "uint256[]"
        }
      ],
      "name": "emergencyRecoverERC20",
      "outputs": [],
      "stateMutability": "nonpayable",
      "type": "function"
    },
    {
      "inputs": [
        {
          "internalType": "bytes32",
          "name": "role",
          "type": "bytes32"
        }
      ],
      "name": "getRoleAdmin",
      "outputs": [
        {
          "internalType": "bytes32",
          "name": "",
          "type": "bytes32"
        }
      ],
      "stateMutability": "view",
      "type": "function"
    },
    {
      "inputs": [],
      "name": "globalFactory",
      "outputs": [
        {
          "internalType": "address",
          "name": "",
          "type": "address"
        }
      ],
      "stateMutability": "view",
      "type": "function"
    },
    {
      "inputs": [
        {
          "internalType": "bytes32",
          "name": "role",
          "type": "bytes32"
        },
        {
          "internalType": "address",
          "name": "account",
          "type": "address"
        }
      ],
      "name": "grantRole",
      "outputs": [],
      "stateMutability": "nonpayable",
      "type": "function"
    },
    {
      "inputs": [
        {
          "internalType": "bytes32",
          "name": "role",
          "type": "bytes32"
        },
        {
          "internalType": "address",
          "name": "account",
          "type": "address"
        }
      ],
      "name": "hasRole",
      "outputs": [
        {
          "internalType": "bool",
          "name": "",
          "type": "bool"
        }
      ],
      "stateMutability": "view",
      "type": "function"
    },
    {
      "inputs": [],
      "name": "last_votingIncentives",
      "outputs": [
        {
          "internalType": "address",
          "name": "",
          "type": "address"
        }
      ],
      "stateMutability": "view",
      "type": "function"
    },
    {
      "inputs": [],
      "name": "minter",
      "outputs": [
        {
          "internalType": "address",
          "name": "",
          "type": "address"
        }
      ],
      "stateMutability": "view",
      "type": "function"
    },
    {
      "inputs": [
        {
          "internalType": "address[]",
          "name": "_vi",
          "type": "address[]"
        }
      ],
      "name": "pauseVotingIncentives",
      "outputs": [],
      "stateMutability": "nonpayable",
      "type": "function"
    },
    {
      "inputs": [
        {
          "internalType": "address",
          "name": "_token",
          "type": "address"
        }
      ],
      "name": "pushDefaultRewardToken",
      "outputs": [],
      "stateMutability": "nonpayable",
      "type": "function"
    },
    {
      "inputs": [
        {
          "internalType": "address[]",
          "name": "_vi",
          "type": "address[]"
        },
        {
          "internalType": "address[]",
          "name": "_tokens",
          "type": "address[]"
        },
        {
          "internalType": "uint256[]",
          "name": "_amounts",
          "type": "uint256[]"
        }
      ],
      "name": "recoverERC20AndUpdateData",
      "outputs": [],
      "stateMutability": "nonpayable",
      "type": "function"
    },
    {
      "inputs": [
        {
          "internalType": "address",
          "name": "_token",
          "type": "address"
        }
      ],
      "name": "removeDefaultRewardToken",
      "outputs": [],
      "stateMutability": "nonpayable",
      "type": "function"
    },
    {
      "inputs": [
        {
          "internalType": "address",
          "name": "_token",
          "type": "address"
        },
        {
          "internalType": "address",
          "name": "_vi",
          "type": "address"
        }
      ],
      "name": "removeRewardToVotingIncentives",
      "outputs": [],
      "stateMutability": "nonpayable",
      "type": "function"
    },
    {
      "inputs": [
        {
          "internalType": "address[]",
          "name": "_token",
          "type": "address[]"
        },
        {
          "internalType": "address",
          "name": "_vi",
          "type": "address"
        }
      ],
      "name": "removeRewardsToVotingIncentives",
      "outputs": [],
      "stateMutability": "nonpayable",
      "type": "function"
    },
    {
      "inputs": [
        {
          "internalType": "bytes32",
          "name": "role",
          "type": "bytes32"
        },
        {
          "internalType": "address",
          "name": "account",
          "type": "address"
        }
      ],
      "name": "renounceRole",
      "outputs": [],
      "stateMutability": "nonpayable",
      "type": "function"
    },
    {
      "inputs": [
        {
          "internalType": "bytes32",
          "name": "role",
          "type": "bytes32"
        },
        {
          "internalType": "address",
          "name": "account",
          "type": "address"
        }
      ],
      "name": "revokeRole",
      "outputs": [],
      "stateMutability": "nonpayable",
      "type": "function"
    },
    {
      "inputs": [
        {
          "internalType": "address",
          "name": "_claimer",
          "type": "address"
        }
      ],
      "name": "setClaimer",
      "outputs": [],
      "stateMutability": "nonpayable",
      "type": "function"
    },
    {
      "inputs": [
        {
          "internalType": "address",
          "name": "_gf",
          "type": "address"
        }
      ],
      "name": "setGlobalFactory",
      "outputs": [],
      "stateMutability": "nonpayable",
      "type": "function"
    },
    {
      "inputs": [
        {
          "internalType": "address",
          "name": "_minter",
          "type": "address"
        }
      ],
      "name": "setMinter",
      "outputs": [],
      "stateMutability": "nonpayable",
      "type": "function"
    },
    {
      "inputs": [
        {
          "internalType": "address",
          "name": "_voter",
          "type": "address"
        }
      ],
      "name": "setVoter",
      "outputs": [],
      "stateMutability": "nonpayable",
      "type": "function"
    },
    {
      "inputs": [
        {
          "internalType": "address",
          "name": "_votingEscrow",
          "type": "address"
        }
      ],
      "name": "setVotingEscrow",
      "outputs": [],
      "stateMutability": "nonpayable",
      "type": "function"
    },
    {
      "inputs": [
        {
          "internalType": "address[]",
          "name": "_vi",
          "type": "address[]"
        },
        {
          "internalType": "address",
          "name": "_votingIncentivesFactory",
          "type": "address"
        }
      ],
      "name": "setVotingIncentivesFactory",
      "outputs": [],
      "stateMutability": "nonpayable",
      "type": "function"
    },
    {
      "inputs": [
        {
          "internalType": "bytes4",
          "name": "interfaceId",
          "type": "bytes4"
        }
      ],
      "name": "supportsInterface",
      "outputs": [
        {
          "internalType": "bool",
          "name": "",
          "type": "bool"
        }
      ],
      "stateMutability": "view",
      "type": "function"
    },
    {
      "inputs": [
        {
          "internalType": "address[]",
          "name": "_vi",
          "type": "address[]"
        }
      ],
      "name": "unpauseVotingIncentives",
      "outputs": [],
      "stateMutability": "nonpayable",
      "type": "function"
    },
    {
      "inputs": [],
      "name": "voter",
      "outputs": [
        {
          "internalType": "address",
          "name": "",
          "type": "address"
        }
      ],
      "stateMutability": "view",
      "type": "function"
    },
    {
      "inputs": [],
      "name": "votingEscrow",
      "outputs": [
        {
          "internalType": "address",
          "name": "",
          "type": "address"
        }
      ],
      "stateMutability": "view",
      "type": "function"
    },
    {
      "inputs": [],
      "name": "votingIncentives",
      "outputs": [
        {
          "internalType": "address[]",
          "name": "",
          "type": "address[]"
        }
      ],
      "stateMutability": "view",
      "type": "function"
    }
  ],
  "bytecode": "0x608060405234801561001057600080fd5b50604051614aeb380380614aeb83398101604081905261002f91610256565b600180546001600160a01b03199081166001600160a01b0387811691909117909255600280548216868416179055600380548216858416179055600480549091168383161790558616156100d957600680546001600160a01b0319166001600160a01b0388169081179091556100b490600080516020614acb83398151915290610185565b6006546100d990600080516020614aab833981519152906001600160a01b0316610185565b60005b855181101561013e5760088682815181106100f9576100f9610379565b60209081029190910181015182546001808201855560009485529290932090920180546001600160a01b0319166001600160a01b0390931692909217909155016100dc565b610149600033610185565b610161600080516020614aab83398151915233610185565b610179600080516020614acb83398151915233610185565b5050505050505061038f565b6000828152602081815260408083206001600160a01b038516845290915290205460ff16610220576000828152602081815260408083206001600160a01b03851684529091529020805460ff191660011790556101df3390565b6001600160a01b0316816001600160a01b0316837f2f8788117e7eff1d82e926ec794901d17c78024a50270940304540a733656f0d60405160405180910390a45b5050565b80516001600160a01b038116811461023b57600080fd5b919050565b634e487b7160e01b600052604160045260246000fd5b60008060008060008060c0878903121561026f57600080fd5b61027887610224565b60208801519096506001600160401b0381111561029457600080fd5b8701601f810189136102a557600080fd5b80516001600160401b038111156102be576102be610240565b604051600582901b90603f8201601f191681016001600160401b03811182821017156102ec576102ec610240565b60405291825260208184018101929081018c84111561030a57600080fd5b6020850194505b838510156103305761032285610224565b815260209485019401610311565b5097506103439250505060408801610224565b935061035160608801610224565b925061035f60808801610224565b915061036d60a08801610224565b90509295509295509295565b634e487b7160e01b600052603260045260246000fd5b61470d8061039e6000396000f3fe608060405234801561001057600080fd5b50600436106101c55760003560e01c8063a0ea1ccc116100fa578063ba830ec51161009d578063ba830ec5146103e2578063cdfb5832146103f5578063ce5ec92e14610408578063d379be231461041b578063d547741f1461042e578063dc7e43ca14610441578063ec365b2014610454578063f45842e214610467578063fca3b5aa1461047a57600080fd5b8063a0ea1ccc14610353578063a217fddf14610366578063a5a513491461036e578063a6c4d5e314610381578063a8667e4714610394578063ae114688146103a7578063b4f863e7146103ba578063b6f7097f146103cd57600080fd5b80632f2ff15d1161016d5780632f2ff15d146102a857806336568abe146102bb57806346c96aac146102ce5780634bc2a657146102e15780634f2bfe5b146102f457806369a12557146103075780636fa782b91461031a57806389f3340f1461032d57806391d148541461034057600080fd5b80626f53c9146101ca57806301ffc9a7146101f257806304cd010014610215578063075461721461022a578063078de3a41461024a578063248a9ca31461025d578063283b1490146102805780632ef2115b14610295575b600080fd5b6101df6000805160206146b883398151915281565b6040519081526020015b60405180910390f35b6102056102003660046115c9565b61048d565b60405190151581526020016101e9565b61022861022336600461165a565b6104c4565b005b60015461023d906001600160a01b031681565b6040516101e991906116ad565b6102286102583660046116c1565b610542565b6101df61026b3660046116f4565b60009081526020819052604090206001015490565b6101df60008051602061469883398151915281565b6102286102a336600461170d565b6105bd565b6102286102b6366004611728565b61063b565b6102286102c9366004611728565b610665565b60035461023d906001600160a01b031681565b6102286102ef36600461170d565b6106e8565b60025461023d906001600160a01b031681565b61022861031536600461170d565b61074a565b61022861032836600461170d565b610873565b61022861033b36600461174b565b6108f1565b61020561034e366004611728565b610a57565b60065461023d906001600160a01b031681565b6101df600081565b60055461023d906001600160a01b031681565b61022861038f36600461165a565b610a80565b6102286103a236600461165a565b610b3a565b6102286103b536600461174b565b610b80565b61023d6103c83660046117ee565b610cdf565b6103d5610f34565b6040516101e99190611828565b6102286103f0366004611874565b610f96565b61022861040336600461170d565b61104e565b61022861041636600461170d565b6110b0565b60045461023d906001600160a01b031681565b61022861043c366004611728565b611112565b61022861044f366004611874565b611137565b61023d6104623660046116f4565b6111e9565b6102286104753660046116c1565b611213565b61022861048836600461170d565b611257565b60006001600160e01b03198216637965db0b60e01b14806104be57506301ffc9a760e01b6001600160e01b03198316145b92915050565b6000805160206146988339815191526104dc816112b9565b604051632cd7bfcb60e01b81526001600160a01b03831690632cd7bfcb9061050a90879087906004016118b5565b600060405180830381600087803b15801561052457600080fd5b505af1158015610538573d6000803e3d6000fd5b5050505050505050565b60008051602061469883398151915261055a816112b9565b604051632935799f60e21b81526001600160a01b0383169063a4d5e67c906105869086906004016116ad565b600060405180830381600087803b1580156105a057600080fd5b505af11580156105b4573d6000803e3d6000fd5b50505050505050565b6000805160206146988339815191526105d5816112b9565b6001600160a01b0382166105e857600080fd5b6106006000805160206146b8833981519152836112c6565b610618600080516020614698833981519152836112c6565b50600680546001600160a01b0319166001600160a01b0392909216919091179055565b600082815260208190526040902060010154610656816112b9565b61066083836112c6565b505050565b6001600160a01b03811633146106da5760405162461bcd60e51b815260206004820152602f60248201527f416363657373436f6e74726f6c3a2063616e206f6e6c792072656e6f756e636560448201526e103937b632b9903337b91039b2b63360891b60648201526084015b60405180910390fd5b6106e4828261134a565b5050565b600080516020614698833981519152610700816112b9565b6001600160a01b03821661072757604051639fabe1c160e01b815260040160405180910390fd5b50600380546001600160a01b0319166001600160a01b0392909216919091179055565b600080516020614698833981519152610762816112b9565b6001600160a01b03821661077557600080fd5b60005b60085481101561066057826001600160a01b03166008828154811061079f5761079f611900565b6000918252602090912001546001600160a01b03160361086b57600880546107c99060019061192c565b815481106107d9576107d9611900565b600091825260209091200154600880546001600160a01b03909216918390811061080557610805611900565b9060005260206000200160006101000a8154816001600160a01b0302191690836001600160a01b0316021790555060088054806108445761084461193f565b600082815260209020810160001990810180546001600160a01b0319169055019055505050565b600101610778565b60008051602061469883398151915261088b816112b9565b6001600160a01b03821661089e57600080fd5b50600880546001810182556000919091527ff3f7a9fe364faab93b216da50a3214154f22a0a2b415b23a84c8169e8b636ee30180546001600160a01b0319166001600160a01b0392909216919091179055565b600080516020614698833981519152610909816112b9565b8584146109285760405162461bcd60e51b81526004016106d190611955565b8382146109475760405162461bcd60e51b81526004016106d190611955565b60005b8681101561053857600084848381811061096657610966611900565b905060200201351115610a4f5787878281811061098557610985611900565b905060200201602081019061099a919061170d565b6001600160a01b031663b245b4648787848181106109ba576109ba611900565b90506020020160208101906109cf919061170d565b8686858181106109e1576109e1611900565b6040516001600160e01b031960e087901b1681526001600160a01b0390941660048501526020029190910135602483015250336044820152606401600060405180830381600087803b158015610a3657600080fd5b505af1158015610a4a573d6000803e3d6000fd5b505050505b60010161094a565b6000918252602082815260408084206001600160a01b0393909316845291905290205460ff1690565b600080516020614698833981519152610a98816112b9565b60005b83811015610b3357848482818110610ab557610ab5611900565b9050602002016020810190610aca919061170d565b6001600160a01b0316633b99f158846040518263ffffffff1660e01b8152600401610af591906116ad565b600060405180830381600087803b158015610b0f57600080fd5b505af1158015610b23573d6000803e3d6000fd5b505060019092019150610a9b9050565b5050505050565b600080516020614698833981519152610b52816112b9565b60405163184fb24560e21b81526001600160a01b0383169063613ec9149061050a90879087906004016118b5565b600080516020614698833981519152610b98816112b9565b6000868514610bb95760405162461bcd60e51b81526004016106d190611955565b848314610bd85760405162461bcd60e51b81526004016106d190611955565b86811015610538576000848483818110610bf457610bf4611900565b905060200201351115610cd757878782818110610c1357610c13611900565b9050602002016020810190610c28919061170d565b6001600160a01b031663e19558c5878784818110610c4857610c48611900565b9050602002016020810190610c5d919061170d565b868685818110610c6f57610c6f611900565b6040516001600160e01b031960e087901b1681526001600160a01b0390941660048501526020029190910135602483015250604401600060405180830381600087803b158015610cbe57600080fd5b505af1158015610cd2573d6000803e3d6000fd5b505050505b600101610bd8565b60006000805160206146b8833981519152610cf9816112b9565b6001600160a01b038316610d2057604051639fabe1c160e01b815260040160405180910390fd5b600083604051610d2f906115bc565b610d3991906116ad565b604051809103906000f080158015610d55573d6000803e3d6000fd5b5090506001600160a01b03861615610dc657604051639c9b2e2160e01b81526001600160a01b03821690639c9b2e2190610d939089906004016116ad565b600060405180830381600087803b158015610dad57600080fd5b505af1158015610dc1573d6000803e3d6000fd5b505050505b6001600160a01b03851615610e3457604051639c9b2e2160e01b81526001600160a01b03821690639c9b2e2190610e019088906004016116ad565b600060405180830381600087803b158015610e1b57600080fd5b505af1158015610e2f573d6000803e3d6000fd5b505050505b60405163184fb24560e21b81526001600160a01b0382169063613ec91490610e619060089060040161197b565b600060405180830381600087803b158015610e7b57600080fd5b505af1158015610e8f573d6000803e3d6000fd5b5050600580546001600160a01b038086166001600160a01b0319928316811784556007805460018101825560009182527fa66cc928b5edb82af9bd49922954155ab7b0942694bea4ce44661d9a8736c6880180549094169091179092559154604051908316945091881692507f5afdbbd4df66e542006bb86e3fa42bc95f3a645b84b34f6b613ae7d7e6e5669c91a350506005546001600160a01b0316949350505050565b60606007805480602002602001604051908101604052809291908181526020018280548015610f8c57602002820191906000526020600020905b81546001600160a01b03168152600190910190602001808311610f6e575b5050505050905090565b600080516020614698833981519152610fae816112b9565b60005b8281101561104857838382818110610fcb57610fcb611900565b9050602002016020810190610fe0919061170d565b6040516302329a2960e01b8152600160048201526001600160a01b0391909116906302329a2990602401600060405180830381600087803b15801561102457600080fd5b505af1158015611038573d6000803e3d6000fd5b505060019092019150610fb19050565b50505050565b600080516020614698833981519152611066816112b9565b6001600160a01b03821661108d57604051639fabe1c160e01b815260040160405180910390fd5b50600480546001600160a01b0319166001600160a01b0392909216919091179055565b6000805160206146988339815191526110c8816112b9565b6001600160a01b0382166110ef57604051639fabe1c160e01b815260040160405180910390fd5b50600280546001600160a01b0319166001600160a01b0392909216919091179055565b60008281526020819052604090206001015461112d816112b9565b610660838361134a565b60008051602061469883398151915261114f816112b9565b60005b828110156110485783838281811061116c5761116c611900565b9050602002016020810190611181919061170d565b6040516302329a2960e01b8152600060048201526001600160a01b0391909116906302329a2990602401600060405180830381600087803b1580156111c557600080fd5b505af11580156111d9573d6000803e3d6000fd5b5050600190920191506111529050565b600881815481106111f957600080fd5b6000918252602090912001546001600160a01b0316905081565b60008051602061469883398151915261122b816112b9565b604051639c9b2e2160e01b81526001600160a01b03831690639c9b2e21906105869086906004016116ad565b60008051602061469883398151915261126f816112b9565b6001600160a01b03821661129657604051639fabe1c160e01b815260040160405180910390fd5b50600180546001600160a01b0319166001600160a01b0392909216919091179055565b6112c381336113af565b50565b6112d08282610a57565b6106e4576000828152602081815260408083206001600160a01b03851684529091529020805460ff191660011790556113063390565b6001600160a01b0316816001600160a01b0316837f2f8788117e7eff1d82e926ec794901d17c78024a50270940304540a733656f0d60405160405180910390a45050565b6113548282610a57565b156106e4576000828152602081815260408083206001600160a01b0385168085529252808320805460ff1916905551339285917ff6391f5c32d9c69d2a47ea670b442974b53935d1edc7fd64eb21e047a839171b9190a45050565b6113b98282610a57565b6106e4576113c681611408565b6113d183602061141a565b6040516020016113e29291906119e3565b60408051601f198184030181529082905262461bcd60e51b82526106d191600401611a52565b60606104be6001600160a01b03831660145b60606000611429836002611a85565b611434906002611a9c565b6001600160401b0381111561144b5761144b611aaf565b6040519080825280601f01601f191660200182016040528015611475576020820181803683370190505b509050600360fc1b8160008151811061149057611490611900565b60200101906001600160f81b031916908160001a905350600f60fb1b816001815181106114bf576114bf611900565b60200101906001600160f81b031916908160001a90535060006114e3846002611a85565b6114ee906001611a9c565b90505b6001811115611566576f181899199a1a9b1b9c1cb0b131b232b360811b85600f166010811061152257611522611900565b1a60f81b82828151811061153857611538611900565b60200101906001600160f81b031916908160001a90535060049490941c9361155f81611ac5565b90506114f1565b5083156115b55760405162461bcd60e51b815260206004820181905260248201527f537472696e67733a20686578206c656e67746820696e73756666696369656e7460448201526064016106d1565b9392505050565b612bbb80611add83390190565b6000602082840312156115db57600080fd5b81356001600160e01b0319811681146115b557600080fd5b60008083601f84011261160557600080fd5b5081356001600160401b0381111561161c57600080fd5b6020830191508360208260051b850101111561163757600080fd5b9250929050565b80356001600160a01b038116811461165557600080fd5b919050565b60008060006040848603121561166f57600080fd5b83356001600160401b0381111561168557600080fd5b611691868287016115f3565b90945092506116a490506020850161163e565b90509250925092565b6001600160a01b0391909116815260200190565b600080604083850312156116d457600080fd5b6116dd8361163e565b91506116eb6020840161163e565b90509250929050565b60006020828403121561170657600080fd5b5035919050565b60006020828403121561171f57600080fd5b6115b58261163e565b6000806040838503121561173b57600080fd5b823591506116eb6020840161163e565b6000806000806000806060878903121561176457600080fd5b86356001600160401b0381111561177a57600080fd5b61178689828a016115f3565b90975095505060208701356001600160401b038111156117a557600080fd5b6117b189828a016115f3565b90955093505060408701356001600160401b038111156117d057600080fd5b6117dc89828a016115f3565b979a9699509497509295939492505050565b60008060006060848603121561180357600080fd5b61180c8461163e565b925061181a6020850161163e565b91506116a46040850161163e565b602080825282518282018190526000918401906040840190835b818110156118695783516001600160a01b0316835260209384019390920191600101611842565b509095945050505050565b6000806020838503121561188757600080fd5b82356001600160401b0381111561189d57600080fd5b6118a9858286016115f3565b90969095509350505050565b6020808252810182905260008360408301825b858110156118f6576001600160a01b036118e18461163e565b168252602092830192909101906001016118c8565b5095945050505050565b634e487b7160e01b600052603260045260246000fd5b634e487b7160e01b600052601160045260246000fd5b818103818111156104be576104be611916565b634e487b7160e01b600052603160045260246000fd5b6020808252600c908201526b36b4b9b6b0ba31b4103632b760a11b604082015260600190565b602080825282548282018190526000848152918220906040840190835b818110156118695783546001600160a01b0316835260019384019360209093019201611998565b60005b838110156119da5781810151838201526020016119c2565b50506000910152565b76020b1b1b2b9b9a1b7b73a3937b61d1030b1b1b7bab73a1604d1b815260008351611a158160178501602088016119bf565b7001034b99036b4b9b9b4b733903937b6329607d1b6017918401918201528351611a468160288401602088016119bf565b01602801949350505050565b6020815260008251806020840152611a718160408501602087016119bf565b601f01601f19169190910160400192915050565b80820281158282048414176104be576104be611916565b808201808211156104be576104be611916565b634e487b7160e01b600052604160045260246000fd5b600081611ad457611ad4611916565b50600019019056fe6080604052348015600f57600080fd5b50604051612bbb380380612bbb833981016040819052602c91606d565b60016000819055805460ff1916905560058054336001600160a01b031991821617909155600480549091166001600160a01b0392909216919091179055609b565b600060208284031215607e57600080fd5b81516001600160a01b0381168114609457600080fd5b9392505050565b612b11806100aa6000396000f3fe608060405234801561001057600080fd5b506004361061028a5760003560e01c8063853c8aeb1161015c578063b5fd73f8116100ce578063e2bbb15811610087578063e2bbb1581461061a578063e39c08fc1461062d578063e688639614610640578063f4359ce514610648578063f5f8d36514610652578063f7e4daae1461066557600080fd5b8063b5fd73f8146105a3578063b66503cf146105c6578063c66130d7146105d9578063d379be23146105ec578063db0ea984146105f4578063e19558c51461060757600080fd5b8063a4d5e67c11610120578063a4d5e67c1461051b578063a7852afa1461052e578063a7b8bfc214610541578063aaf5eb6814610549578063ae2055361461055a578063b245b4641461059057600080fd5b8063853c8aeb146104ba578063981b24d0146104cd5780639c9b2e21146104ed5780639cc7f70814610500578063a4a3e0351461051357600080fd5b806346c96aac1161020057806365c5f94a116101b957806365c5f94a146104235780637035ab981461042b578063731b8f72146104565780637bb7bed1146104815780637fd7d0621461049457806380e336e4146104a757600080fd5b806346c96aac146103cd5780634f2bfe5b146103d557806355288eea146103dd57806357bc5614146103e65780635c975abb146103f9578063613ec9141461041057600080fd5b806318160ddd1161025257806318160ddd14610309578063211dc32d146103115780632cd7bfcb1461032457806338174862146103375780633b99f158146103a7578063441a3e70146103ba57600080fd5b806302329a291461028f57806307546172146102a45780630ccb4851146102c25780630d43e8ad146102d557806314ecc7d6146102e8575b600080fd5b6102a261029d366004612603565b610678565b005b6102ac6106bb565b6040516102b99190612620565b60405180910390f35b6005546102ac906001600160a01b031681565b6004546102ac906001600160a01b031681565b6102fb6102f6366004612649565b61072e565b6040519081526020016102b9565b6102fb6107bf565b6102fb61031f366004612681565b6107e1565b6102a26103323660046126ff565b610830565b61037f610345366004612741565b600a602090815260009283526040808420909152908252902080546001820154600283015460038401546004909401549293919290919085565b604080519586526020860194909452928401919091526060830152608082015260a0016102b9565b6102a26103b536600461276d565b6108c8565b6102a26103c836600461278a565b610950565b6102ac610b69565b6102ac610bb3565b6102fb60025481565b6102fb6103f4366004612741565b610bfd565b60015460ff165b60405190151581526020016102b9565b6102a261041e3660046126ff565b610c09565b6102fb610c93565b6102fb610439366004612681565b600660209081526000928352604080842090915290825290205481565b6102fb610464366004612681565b600760209081526000928352604080842090915290825290205481565b6102ac61048f3660046127ac565b610d0c565b6102a26104a23660046126ff565b610d36565b6102a26104b53660046127c5565b610e24565b6102fb6104c836600461278a565b610f7b565b6102fb6104db3660046127ac565b60009081526008602052604090205490565b6102a26104fb36600461276d565b611020565b6102fb61050e3660046127ac565b611054565b6102fb611107565b6102a261052936600461276d565b611172565b6102a261053c36600461281a565b6111a6565b61040061133b565b6102fb69d3c21bcecceda100000081565b6102fb610568366004612741565b6001600160a01b03919091166000908152600960209081526040808320938352929052205490565b6102a261059e36600461284d565b6113ac565b6104006105b136600461276d565b600b6020526000908152604090205460ff1681565b6102a26105d4366004612741565b6114a2565b6102fb6105e736600461276d565b61155a565b6102ac611591565b6102a26106023660046127c5565b6115db565b6102a2610615366004612741565b611701565b6102a261062836600461278a565b611886565b6102fb61063b36600461288f565b611a27565b6003546102fb565b6102fb62093a8081565b6102a261066036600461281a565b611aef565b6102fb6106733660046128b4565b611cca565b6005546001600160a01b031633146106a357604051630ca2c4e960e01b815260040160405180910390fd5b806106b3576106b0611cdf565b50565b6106b0611d2b565b600554604080516303aa30b960e11b815290516000926001600160a01b03169163075461729160048083019260209291908290030181865afa158015610705573d6000803e3d6000fd5b505050506040513d601f19601f8201168201806040525081019061072991906128e4565b905090565b600080610739610bb3565b6001600160a01b0316636352211e866040518263ffffffff1660e01b815260040161076691815260200190565b602060405180830381865afa158015610783573d6000803e3d6000fd5b505050506040513d601f19601f820116820180604052508101906107a791906128e4565b90506107b4818585611d66565b9150505b9392505050565b6000600860006107cd611107565b815260200190815260200160002054905090565b6000806107ec611107565b6001600160a01b03808616600090815260076020908152604080832093881683529290529081205491925061082383838789611dd5565b5093505050505b92915050565b6005546001600160a01b0316331461085b57604051630ca2c4e960e01b815260040160405180910390fd5b806108815760405162461bcd60e51b815260040161087890612901565b60405180910390fd5b60005b818110156108c3576108bb8383838181106108a1576108a1612925565b90506020020160208101906108b6919061276d565b611e4f565b600101610884565b505050565b6005546001600160a01b031633146108f357604051630ca2c4e960e01b815260040160405180910390fd5b6001600160a01b03811661090657600080fd5b600580546001600160a01b0319166001600160a01b0383169081179091556040517f96542255f3428b3a10a23db9b83744da403e62b699feadd6a19bfa7b60769c5790600090a250565b610958611e99565b610960611ef2565b600082116109a15760405162461bcd60e51b815260206004820152600e60248201526d056493a20776974686472617720360941b6044820152606401610878565b6109a9610b69565b6001600160a01b0316336001600160a01b0316146109da5760405163c18384c160e01b815260040160405180910390fd5b60006109e4611107565b905060006109f0610bb3565b6001600160a01b0316636352211e846040518263ffffffff1660e01b8152600401610a1d91815260200190565b602060405180830381865afa158015610a3a573d6000803e3d6000fd5b505050506040513d601f19601f82011682018060405250810190610a5e91906128e4565b6001600160a01b0381166000908152600960209081526040808320868452909152902054909150841115610ac85760405162461bcd60e51b815260206004820152601160248201527056493a2021757365722062616c616e636560781b6044820152606401610878565b60008281526008602052604081208054869290610ae6908490612951565b90915550506001600160a01b038116600090815260096020908152604080832085845290915281208054869290610b1e908490612951565b909155505060405184815283907f0c875c8d391179c5cf7ad8303d268efd50b8beb78b671f85cd54bfb91eb8ef40906020015b60405180910390a25050610b656001600055565b5050565b600554604080516311b25aab60e21b815290516000926001600160a01b0316916346c96aac9160048083019260209291908290030181865afa158015610705573d6000803e3d6000fd5b60055460408051634f2bfe5b60e01b815290516000926001600160a01b031691634f2bfe5b9160048083019260209291908290030181865afa158015610705573d6000803e3d6000fd5b60006107b88383611f3a565b6005546001600160a01b03163314610c3457604051630ca2c4e960e01b815260040160405180910390fd5b80610c515760405162461bcd60e51b815260040161087890612901565b60005b818110156108c357610c8b838383818110610c7157610c71612925565b9050602002016020810190610c86919061276d565b611fa8565b600101610c54565b600062093a80610ca16106bb565b6001600160a01b031663d13996086040518163ffffffff1660e01b8152600401602060405180830381865afa158015610cde573d6000803e3d6000fd5b505050506040513d601f19601f82011682018060405250810190610d029190612964565b610729919061297d565b60038181548110610d1c57600080fd5b6000918252602090912001546001600160a01b0316905081565b610d3e611e99565b610d46611ef2565b60008033815b84811015610e16576000868683818110610d6857610d68612925565b9050602002016020810190610d7d919061276d565b9050610d898382612044565b955093508315610de357610da76001600160a01b0382168486612094565b806001600160a01b0316836001600160a01b0316600080516020612abc83398151915286604051610dda91815260200190565b60405180910390a35b6001600160a01b038084166000908152600760209081526040808320949093168252929092529020849055600101610d4c565b50505050610b656001600055565b610e2c611e99565b610e34611ef2565b6001600160a01b0383166000908152600b602052604090205460ff16610e6c5760405162461bcd60e51b815260040161087890612990565b610e7461133b565b15610e9257604051635ea1747160e01b815260040160405180910390fd5b6000610e9c611107565b9050600080835b80831015610f1957858584818110610ebd57610ebd612925565b9050602002013582610ecf919061297d565b9150610f0e87878786818110610ee757610ee7612925565b905060200201358562093a80610efd91906129c3565b610f07908861297d565b60006120ea565b600190920191610ea3565b60008211610f585760405162461bcd60e51b815260206004820152600c60248201526b7a65726f207265776172647360a01b6044820152606401610878565b610f6d6001600160a01b038816333085612268565b505050506108c36001600055565b600080610f86610bb3565b6001600160a01b0316636352211e856040518263ffffffff1660e01b8152600401610fb391815260200190565b602060405180830381865afa158015610fd0573d6000803e3d6000fd5b505050506040513d601f19601f82011682018060405250810190610ff491906128e4565b6001600160a01b0316600090815260096020908152604080832086845290915290205491505092915050565b6005546001600160a01b0316331461104b57604051630ca2c4e960e01b815260040160405180910390fd5b6106b081611fa8565b60008061105f610bb3565b6001600160a01b0316636352211e846040518263ffffffff1660e01b815260040161108c91815260200190565b602060405180830381865afa1580156110a9573d6000803e3d6000fd5b505050506040513d601f19601f820116820180604052508101906110cd91906128e4565b6001600160a01b03811660009081526009602052604081209192506110f0611107565b815260200190815260200160002054915050919050565b60006111116106bb565b6001600160a01b031663d13996086040518163ffffffff1660e01b8152600401602060405180830381865afa15801561114e573d6000803e3d6000fd5b505050506040513d601f19601f820116820180604052508101906107299190612964565b6005546001600160a01b0316331461119d57604051630ca2c4e960e01b815260040160405180910390fd5b6106b081611e4f565b6111ae611e99565b6111b6611ef2565b6111be611591565b6001600160a01b0316336001600160a01b0316146111ef576040516312aa60cd60e31b815260040160405180910390fd5b6000806000806111fd610bb3565b6001600160a01b0316636352211e886040518263ffffffff1660e01b815260040161122a91815260200190565b602060405180830381865afa158015611247573d6000803e3d6000fd5b505050506040513d601f19601f8201168201806040525081019061126b91906128e4565b90505b84821015610f6d57600086868481811061128a5761128a612925565b905060200201602081019061129f919061276d565b90506112ab8282612044565b955093508315611305576112c96001600160a01b0382168386612094565b806001600160a01b0316826001600160a01b0316600080516020612abc833981519152866040516112fc91815260200190565b60405180910390a35b6001600160a01b03808316600090815260076020908152604080832094909316825292909252902084905560019091019061126e565b60006113456106bb565b6001600160a01b031663055cd34a6040518163ffffffff1660e01b8152600401602060405180830381865afa158015611382573d6000803e3d6000fd5b505050506040513d601f19601f820116820180604052508101906113a691906129da565b15919050565b6005546001600160a01b031633146113d757604051630ca2c4e960e01b815260040160405180910390fd5b6040516370a0823160e01b81526001600160a01b038416906370a0823190611403903090600401612620565b602060405180830381865afa158015611420573d6000803e3d6000fd5b505050506040513d601f19601f820116820180604052508101906114449190612964565b82111561145057600080fd5b6114646001600160a01b0384168284612094565b7f8c1256b8896378cd5044f80c202f9772b9d77dc85c8a6eb51967210b09bfaa2883836040516114959291906129f7565b60405180910390a1505050565b6114aa611e99565b6114b2611ef2565b6001600160a01b0382166000908152600b602052604090205460ff166114ea5760405162461bcd60e51b815260040161087890612990565b6114f261133b565b1561151057604051635ea1747160e01b815260040160405180910390fd5b600061151a611107565b60045490915061153a908490849084906001600160a01b031633146120ea565b61154f6001600160a01b038416333085612268565b50610b656001600055565b6001600160a01b03811660009081526009602052604081208161157b611107565b8152602001908152602001600020549050919050565b6005546040805163d379be2360e01b815290516000926001600160a01b03169163d379be239160048083019260209291908290030181865afa158015610705573d6000803e3d6000fd5b6115e3611e99565b6115eb611ef2565b6115f3611591565b6001600160a01b0316336001600160a01b031614611624576040516312aa60cd60e31b815260040160405180910390fd5b60008060005b838110156116f457600085858381811061164657611646612925565b905060200201602081019061165b919061276d565b90506116678782612044565b9450925082156116c1576116856001600160a01b0382168885612094565b806001600160a01b0316876001600160a01b0316600080516020612abc833981519152856040516116b891815260200190565b60405180910390a35b6001600160a01b03808816600090815260076020908152604080832094909316825292909252902083905560010161162a565b5050506108c36001600055565b6005546001600160a01b0316331461172c57604051630ca2c4e960e01b815260040160405180910390fd5b6040516370a0823160e01b81526001600160a01b038316906370a0823190611758903090600401612620565b602060405180830381865afa158015611775573d6000803e3d6000fd5b505050506040513d601f19601f820116820180604052508101906117999190612964565b8111156117a557600080fd5b60006117af611107565b6001600160a01b0384166000908152600a602090815260408083208484529091528120600101805492935084929091906117ea908490612951565b90915550506001600160a01b0383166000908152600a6020908152604080832084845290915281206003018054849290611825908490612951565b90915550506001600160a01b0383166000908152600a602090815260408083208484529091529081902042600490910155517f8c1256b8896378cd5044f80c202f9772b9d77dc85c8a6eb51967210b09bfaa289061149590859085906129f7565b61188e611e99565b611896611ef2565b600082116118d65760405162461bcd60e51b815260206004820152600d60248201526c056493a206465706f736974203609c1b6044820152606401610878565b6118de610b69565b6001600160a01b0316336001600160a01b03161461190f5760405163c18384c160e01b815260040160405180910390fd5b6000611919611107565b90506000611925610bb3565b6001600160a01b0316636352211e846040518263ffffffff1660e01b815260040161195291815260200190565b602060405180830381865afa15801561196f573d6000803e3d6000fd5b505050506040513d601f19601f8201168201806040525081019061199391906128e4565b9050836008600084815260200190815260200160002060008282546119b8919061297d565b90915550506001600160a01b0381166000908152600960209081526040808320858452909152812080548692906119f090849061297d565b909155505060405184815283907f925435fa7e37e5d9555bb18ce0d62bb9627d0846942e58e5291e9a2dded462ed90602001610b51565b600080611a32611107565b90506000611a3e610bb3565b6001600160a01b0316636352211e866040518263ffffffff1660e01b8152600401611a6b91815260200190565b602060405180830381865afa158015611a88573d6000803e3d6000fd5b505050506040513d601f19601f82011682018060405250810190611aac91906128e4565b6001600160a01b038082166000908152600760209081526040808320938916835292905290812054919250611ae384838886611dd5565b50979650505050505050565b611af7611e99565b611aff611ef2565b611b07610bb3565b6001600160a01b031663430c208133856040518363ffffffff1660e01b8152600401611b349291906129f7565b602060405180830381865afa158015611b51573d6000803e3d6000fd5b505050506040513d601f19601f82011682018060405250810190611b7591906129da565b611b7e57600080fd5b600080600080611b8c610bb3565b6001600160a01b0316636352211e886040518263ffffffff1660e01b8152600401611bb991815260200190565b602060405180830381865afa158015611bd6573d6000803e3d6000fd5b505050506040513d601f19601f82011682018060405250810190611bfa91906128e4565b90505b84821015610f6d576000868684818110611c1957611c19612925565b9050602002016020810190611c2e919061276d565b9050611c3a8282612044565b955093508315611c9457611c586001600160a01b0382168386612094565b806001600160a01b0316826001600160a01b0316600080516020612abc83398151915286604051611c8b91815260200190565b60405180910390a35b6001600160a01b038083166000908152600760209081526040808320949093168252929092529020849055600190910190611bfd565b6000611cd7848484611d66565b949350505050565b611ce76122a6565b6001805460ff191690557f5db9ee0a495bf2e6ff9c91a7834c1ba4fdd244a5e8aa4e537bd38aeae4b073aa335b604051611d219190612620565b60405180910390a1565b611d33611ef2565b6001805460ff1916811790557f62e78cea01bee320cd4e420270b5ea74000d11b0c9f74754ebdbfc544b05a25833611d14565b6001600160a01b0383166000908152600960209081526040808320848452909152812054808203611d9b5760009150506107b8565b6000611da78585611f3a565b9050600069d3c21bcecceda1000000611dc084846129c3565b611dca9190612a10565b93506107b892505050565b6000806000858703611dee576000869250925050611e46565b600254861015611dfe5760025495505b60005b6034811015611e3f57878714611e3f57611e1c858789611d66565b611e26908361297d565b9150611e3562093a808861297d565b9650600101611e01565b5091508490505b94509492505050565b6001600160a01b0381166000908152600b602052604090205460ff16156106b0576001600160a01b0381166000908152600b60205260409020805460ff191690556106b0816122ef565b600260005403611eeb5760405162461bcd60e51b815260206004820152601f60248201527f5265656e7472616e637947756172643a207265656e7472616e742063616c6c006044820152606401610878565b6002600055565b60015460ff1615611f385760405162461bcd60e51b815260206004820152601060248201526f14185d5cd8589b194e881c185d5cd95960821b6044820152606401610878565b565b6000818152600860205260408120548103611f575750600061082a565b6000828152600860209081526040808320546001600160a01b0387168452600a835281842086855290925290912060030154611f9e9069d3c21bcecceda1000000906129c3565b6107b89190612a10565b6001600160a01b0381166000908152600b602052604090205460ff16158015611fd957506001600160a01b03811615155b156106b0576001600160a01b03166000818152600b60205260408120805460ff191660019081179091556003805491820181559091527fc2575a0e9e593c00f959f8c92f12db2869c3395a3b0502d05e2516446f71f85b0180546001600160a01b0319169091179055565b6000806000612051611107565b6001600160a01b0380871660009081526007602090815260408083209389168352929052205490915061208682828789611dd5565b9350935050505b9250929050565b6108c38363a9059cbb60e01b84846040516024016120b39291906129f7565b60408051601f198184030181529190526020810180516001600160e01b03166001600160e01b0319909316929092179091526123fd565b6002546000036120fa5760028290555b80612140576001600160a01b0384166000908152600a602090815260408083208584529091528120600101805485929061213590849061297d565b92505081905561217d565b6001600160a01b0384166000908152600a602090815260408083208584529091528120600201805485929061217690849061297d565b9250508190555b506001600160a01b0384166000908152600a60209081526040808320858452909152812060030180548592906121b490849061297d565b90915550506001600160a01b0384166000908152600a6020908152604080832085845290915290204260049091015560016121f262093a808461297d565b6121fc9190612951565b6001600160a01b0385166000818152600a602090815260408083208784528252918290209390935580519182529181018590529081018390527f6a6f77044107a33658235d41bedbbaf2fe9ccdceb313143c947a5e76e1ec84749060600160405180910390a150505050565b6040516001600160a01b03808516602483015283166044820152606481018290526122a09085906323b872dd60e01b906084016120b3565b50505050565b60015460ff16611f385760405162461bcd60e51b815260206004820152601460248201527314185d5cd8589b194e881b9bdd081c185d5cd95960621b6044820152606401610878565b60035460005b818110156108c357826001600160a01b03166003828154811061231a5761231a612925565b6000918252602090912001546001600160a01b0316036123f55761233f600183612951565b81146123bd576003612352600184612951565b8154811061236257612362612925565b600091825260209091200154600380546001600160a01b03909216918390811061238e5761238e612925565b9060005260206000200160006101000a8154816001600160a01b0302191690836001600160a01b031602179055505b60038054806123ce576123ce612a32565b600082815260209020810160001990810180546001600160a01b0319169055019055505050565b6001016122f5565b6000612452826040518060400160405280602081526020017f5361666545524332303a206c6f772d6c6576656c2063616c6c206661696c6564815250856001600160a01b03166124d29092919063ffffffff16565b905080516000148061247357508080602001905181019061247391906129da565b6108c35760405162461bcd60e51b815260206004820152602a60248201527f5361666545524332303a204552433230206f7065726174696f6e20646964206e6044820152691bdd081cdd58d8d9595960b21b6064820152608401610878565b6060611cd7848460008585600080866001600160a01b031685876040516124f99190612a6c565b60006040518083038185875af1925050503d8060008114612536576040519150601f19603f3d011682016040523d82523d6000602084013e61253b565b606091505b509150915061254c87838387612557565b979650505050505050565b606083156125c65782516000036125bf576001600160a01b0385163b6125bf5760405162461bcd60e51b815260206004820152601d60248201527f416464726573733a2063616c6c20746f206e6f6e2d636f6e74726163740000006044820152606401610878565b5081611cd7565b611cd783838151156125db5781518083602001fd5b8060405162461bcd60e51b81526004016108789190612a88565b80151581146106b057600080fd5b60006020828403121561261557600080fd5b81356107b8816125f5565b6001600160a01b0391909116815260200190565b6001600160a01b03811681146106b057600080fd5b60008060006060848603121561265e57600080fd5b83359250602084013561267081612634565b929592945050506040919091013590565b6000806040838503121561269457600080fd5b823561269f81612634565b915060208301356126af81612634565b809150509250929050565b60008083601f8401126126cc57600080fd5b50813567ffffffffffffffff8111156126e457600080fd5b6020830191508360208260051b850101111561208d57600080fd5b6000806020838503121561271257600080fd5b823567ffffffffffffffff81111561272957600080fd5b612735858286016126ba565b90969095509350505050565b6000806040838503121561275457600080fd5b823561275f81612634565b946020939093013593505050565b60006020828403121561277f57600080fd5b81356107b881612634565b6000806040838503121561279d57600080fd5b50508035926020909101359150565b6000602082840312156127be57600080fd5b5035919050565b6000806000604084860312156127da57600080fd5b83356127e581612634565b9250602084013567ffffffffffffffff81111561280157600080fd5b61280d868287016126ba565b9497909650939450505050565b60008060006040848603121561282f57600080fd5b83359250602084013567ffffffffffffffff81111561280157600080fd5b60008060006060848603121561286257600080fd5b833561286d81612634565b925060208401359150604084013561288481612634565b809150509250925092565b600080604083850312156128a257600080fd5b8235915060208301356126af81612634565b6000806000606084860312156128c957600080fd5b83356128d481612634565b9250602084013561267081612634565b6000602082840312156128f657600080fd5b81516107b881612634565b6020808252600a90820152690ac927440d8cadccee8d60b31b604082015260600190565b634e487b7160e01b600052603260045260246000fd5b634e487b7160e01b600052601160045260246000fd5b8181038181111561082a5761082a61293b565b60006020828403121561297657600080fd5b5051919050565b8082018082111561082a5761082a61293b565b6020808252601990820152781c995dd85c99081d1bdad95b881b9bdd081d995c9a599a5959603a1b604082015260600190565b808202811582820484141761082a5761082a61293b565b6000602082840312156129ec57600080fd5b81516107b8816125f5565b6001600160a01b03929092168252602082015260400190565b600082612a2d57634e487b7160e01b600052601260045260246000fd5b500490565b634e487b7160e01b600052603160045260246000fd5b60005b83811015612a63578181015183820152602001612a4b565b50506000910152565b60008251612a7e818460208701612a48565b9190910192915050565b6020815260008251806020840152612aa7816040850160208701612a48565b601f01601f1916919091016040019291505056fe540798df468d7b23d11f156fdb954cb19ad414d150722a7b6d55ba369dea792ea26469706673582212201fb4eed3c0a4edfba3f91e335d2977e9395755b2b51ae1e447ba97523c0ac8a264736f6c634300081c0033472eb4ce8c18505cac19c4d3c6ca5f09ead5bee29fe4d6fac6bb190225cebdd52ad5dda4abad2eba9015076cc6a1db468a91b444067d58b590c8c73985521a04a2646970667358221220bfc3fce79914fda2ba76a70e8901f9badb3f34363507a3b2ba91e3e2836d99e464736f6c634300081c0033472eb4ce8c18505cac19c4d3c6ca5f09ead5bee29fe4d6fac6bb190225cebdd52ad5dda4abad2eba9015076cc6a1db468a91b444067d58b590c8c73985521a04",
  "linkReferences": {},
  "deployedLinkReferences": {}
}